:100000000C9491020C94B9020C94B9020C94B902AC
:100010000C94B9020C94B9020C94B9020C94B90274
:100020000C94B9020C94B9020C94B9020C94B90264
:100030000C94B9020C94B9020C94B9020C94B90254
:100040000C94AF330C94B9020C949D050C94D90513
:100050000C94B9020C94B9020C94B9020C94B90234
:100060000C94B9020C94B902084AD73B3BCE016EFE
:1000700084BCBFFDC12F3D6C74319ABD56833DDAFF
:100080003D00C77F11BED9E4BB4C3E916BAAAABE0E
:10009000000000803F05A84CCDB2D44EB93836A937
:1000A000020C50B9918688083CA6AAAA2ABE000074
:1000B00000803F0664EC1B3C04BC163E3BE5B93CAB
:1000C000C93C37C29E5A3D660498083EEA69AAAA0E
:1000D0003E000000803F00070E091C1B1215383F30
:1000E000363124232A2D70777E796C6B6265484FF8
:1000F000464154535A5DE0E7EEE9FCFBF2F5D8DFE8
:10010000D6D1C4C3CACD90979E998C8B8285A8AF57
:10011000A6A1B4B3BABDC7C0C9CEDBDCD5D2FFF847
:10012000F1F6E3E4EDEAB7B0B9BEABACA5A28F88B7
:10013000818693949D9A2720292E3B3C35321F18A7
:10014000111603040D0A5750595E4B4C45426F6817
:10015000616673747D7A898E878095929B9CB1B617
:10016000BFB8ADAAA3A4F9FEF7F0E5E2EBECC1C677
:10017000CFC8DDDAD3D4696E676075727B7C515667
:100180005F584D4A4344191E171005020B0C2126D7
:100190002F283D3A33344E49404752555C5B7671C7
:1001A000787F6A6D64633E39303722252C2B060137
:1001B000080F1A1D1413AEA9A0A7B2B5BCBB969127
:1001C000989F8A8D8483DED9D0D7C2C5CCCBE6E197
:1001D000E8EFFAFDF4F32020BF0020BF00BF007C51
:1001E000202020202020202020202020202020200F
:1001F00020202000C8202020202020202020202077
:1002000020C900C8202020202020202020202020BD
:10021000C97C00D820202020202020202020202041
:10022000D97C00C820202020202020202020202031
:10023000C97C00C820202020202020202020202031
:10024000C97C006D696E6F706F7364206A646C2086
:10025000322E353100626F6F74696E672075703AA7
:10026000EDF2F2F2F2F2F2F2F30063616C696272A3
:100270006174657C7C6D6561737572656420616D08
:10028000703A20200063616C6962726174657C7CE5
:100290006D6561737572656420616D703A20200030
:1002A00063616C6962726174657C7C6D6561737594
:1002B00072656420766F6C743A20006C69706F20F0
:1002C000626174742063656C6C7C7C7761726E69AA
:1002D0006E67206C6576656C3A20006261747420EC
:1002E00063617061636974793A0073657475702035
:1002F00073637265656E7C7C7C000000000000000A
:1003000000000000000000010A0F1315191D202134
:10031000232527292B2D2F3031333537393A3C3ED1
:10032000404243444445464748494A4B4D4E4F504E
:10033000505152525354555658595A5B5B5C5D5D4F
:100340005E5E5E5F5F5F60606061616162626263AA
:100350006363636363636363636363636363000033
:100360000000000000000000000002070A0C0D0E53
:10037000101214151617191A1B1E2126282A2B2DA8
:100380002F31333437393C3D3E3F404142444649AA
:100390004A4B4C4D4E4F4F5051515252535454555D
:1003A00055565758595A5B5C5C5D5D5E5F5F5F6098
:1003B000606060606161616161616262626262622B
:1003C000626300407A10F35A00A0724E18090010C0
:1003D000A5D4E80000E87648170000E40B540200BA
:1003E00000CA9A3B000000E1F505000080969800E5
:1003F000000040420F000000A0860100000010270E
:1004000000000000E803000000006400000000009D
:100410000A00000000000100000000002C76D888CF
:10042000DC674F0823DFC1DFAE59E1B1B796E5E3E2
:10043000E453C63AE651997696E8E6C28426EB89FB
:100440008C9B62ED407C6FFCEFBC9C9F40F2BAA598
:100450006FA5F490055A2AF75C936B6CF9676DC130
:100460001BFCE0E40D47FEF520E6B500D0ED902E34
:100470000300943577050080841E080000204E0A92
:10048000000000C80C333333330F986E12831141D0
:10049000EF8D2114893BE65516CFFEE6DB18D1849B
:1004A0004B381BF77C1D901DA4BBE42420328472C2
:1004B0005E228100C9F124ECA1E53D276E616E004A
:1004C000696E660000000000240027002A0000007A
:1004D0000000250028002B0000000000230026005B
:1004E00029000404040404040404020202020202B7
:1004F00003030303030301020408102040800102E8
:100500000408102001020408102000000007000267
:10051000010000030406000000000000000049077D
:100520009D2B11241FBECFEFD8E0DEBFCDBF13E05F
:10053000A0E0B1E0EEEAF3E702C005900D92A43B23
:10054000B107D9F716E0A4EBB3E001C01D92AD33BB
:10055000B107E1F715E0C2E2D5E004C02297FE0141
:100560000E94D139CE31D107C9F70E9451350C9480
:10057000D5390C940000283008F027E03327DA0141
:10058000990F311D87FD916000966105710539F461
:1005900032602E5F3D9330E32A95E1F708959F3F47
:1005A00030F080387105610509F03C5F3C5F3D9398
:1005B000913008F08068911DDF93CF931F930F93C4
:1005C000FF92EF92192F987F9695E92F9695969521
:1005D000E90FFF27E45EFB4F99273327EE24FF2422
:1005E000A701E70105900894079428F4360FE71E49
:1005F000F81E491F511D660F771F881F991F06940B
:10060000A1F70590079428F4E70EF81E491F561F1E
:10061000C11D770F881F991F661F0694A1F70590CB
:10062000079428F4F80E491F561FC71FD11D880FC5
:10063000991F661F771F0694A1F70590079420F471
:10064000490F561FC71FD81F990F661F771F881F96
:100650000694A9F784911095177041F0D695C79527
:1006600057954795F794E7941A95C1F7E2ECF3E0B4
:1006700068941590159135916591959105907FE25B
:100680007395E118F10A430B560BC90BD009C0F75B
:10069000E10CF11E431F561FC91FD01D7EF470339D
:1006A00011F48A95E6CFE894015030F0080F0AF46F
:1006B0000027021708F4202F2395022F7A3328F001
:1006C00079E37D932A95E9F710C07D932A9589F601
:1006D000069497956795379517951794E118F10A41
:1006E000430B560BC90BD00998F023957E91739557
:1006F0007A3308F070E37C932013B8F77E91706131
:100700007D9330F0839571E37D9370E32A95E1F753
:100710001124EF90FF900F911F91CF91DF919927B6
:1007200087FD90950895FA01AA27283051F12031CC
:1007300081F1E8946F936E7F6E5F7F4F8F4F9F4F75
:10074000AF4FB1E03ED0B4E03CD0670F781F891FB7
:100750009A1FA11D680F791F8A1F911DA11D6A0F85
:10076000711D811D911DA11D20D009F468943F9138
:100770002AE0269F11243019305D3193DEF6CF0137
:100780000895462F4770405D4193B3E00FD0C9F7FD
:10079000F6CF462F4F70405D4A3318F0495D31FD6A
:1007A0004052419302D0A9F7EACFB4E0A6959795BD
:1007B000879577956795BA95C9F700976105710593
:1007C00008959B01AC010A2E0694579547953795DD
:1007D0002795BA95C9F7620F731F841F951FA01D37
:1007E0000895FC010590615070400110D8F7809584
:1007F00090958E0F9F1F0895FC01615070400190ED
:100800000110D8F7809590958E0F9F1F0895FC01D9
:100810001382128288EE93E0A0E0B0E08483958397
:10082000A683B7838AE693E0918380830895FC01D1
:100830008089803419F421E030E002C020E030E00B
:10084000C9010895FC01818990E0089580E090E05D
:10085000089580E090E0089580E090E00895089584
:100860001F93CF93DF93EC01162F86E060E00E9488
:10087000FD348DE196E060E00E94812B112319F098
:10088000113059F404C08DE196E0688904C068898C
:100890006C618DE196E00E94812B86E061E00E9410
:1008A000FD34DF91CF911F910895EF92FF920F9346
:1008B0001F937C010DE116E0C80167E00E94812BC7
:1008C000C8016FEF0E94812B86E061E00E94FD3439
:1008D000F70187858F5F87871F910F91FF90EF90BA
:1008E0000895EF92FF920F931F93FC01E7848EE12E
:1008F000E89E700111248685E80EF11C86E060E018
:100900000E94FD340DE116E0C80164E00E94812BD5
:10091000C80163E00E94812BC80165E00E94812B21
:10092000C8016F2D0E94812BC80166E00E94812BB7
:10093000C8016E2D0E94812B1F910F91FF90EF90A7
:100940000895FC0164874587668747870E94710484
:1009500008951F93CF93DF93EC01162F6C3731F47A
:100960000E945504CE010E9471040AC08DE196E0F8
:1009700067E00E94812B8DE196E0612F0E94812B20
:1009800081E090E0DF91CF911F910895EF92FF9267
:100990000F931F938EE1489F70011124E60EF11C06
:1009A00086E060E00E94FD340DE116E0C80165E0DC
:1009B0000E94812BC8016F2D0E94812BC80166E027
:1009C0000E94812BC8016E2D0E94812B1F910F91D7
:1009D000FF90EF9008950F931F9386E060E00E94D0
:1009E000FD340DE116E0C80164E00E94812BC801CE
:1009F00064E00E94812B61E070E080E090E00E9462
:100A0000053486E061E00E94FD341F910F91089546
:100A10001F93CF93DF93EC01188A16E0198B8FE2B6
:100A200096E060E973E00E946732813049F480E427
:100A3000888B88E0898B86E060E00E94FD3402C0EC
:100A4000188A198B86E060E00E94FD34DF91CF9117
:100A50001F9108950F931F93CF93DF93EC0186E0CE
:100A600061E00E94BE3482E060E00E94BE3482E019
:100A700061E00E94FD34CE010E94080586E060E03E
:100A80000E94FD348DE196E06CEE0E94812B8DE199
:100A900096E06FEF0E94812B182F8DE196E060E0C9
:100AA0000E94812B688962608DE196E00E94812B13
:100AB00062E370E080E090E00E9405348DE196E012
:100AC0006CE60E94812B1F7E8DE196E0612F0E94D3
:100AD000812B8889803419F00DE010E002C000E11C
:100AE00010E01092B5031092B40317C06091B403E4
:100AF0007091B503605F8DE196E00E94812B8DE1DE
:100B000096E069E00E94812B8091B4039091B50337
:100B100001969093B5038093B4038091B4039091B0
:100B2000B5038017910714F3CE0161E00E943004F1
:100B3000DF91CF911F910F9108951F920F920FB6E1
:100B40000F9211242F933F934F938F939F93EF9383
:100B5000FF934091C60020911E0630911F062F5F23
:100B60003F4F8091220690912306282339238091BC
:100B70002006909121062817390779F080911E06EA
:100B800090911F06E0912406F0912506E80FF91FC9
:100B9000408330931F0620931E06FF91EF919F9193
:100BA0008F914F913F912F910F900FBE0F901F90FB
:100BB00018951F920F920FB60F9211242F933F9307
:100BC0008F939F93EF93FF932091280630912906EE
:100BD000809126069091270628173907E9F0809121
:100BE000280690912906E0912C06F0912D06E80F39
:100BF000F91F80818093C600809128069091290674
:100C0000019620912A0630912B06822393239093FC
:100C100029068093280610C02091260630912706C9
:100C200080912806909129062817390729F4809188
:100C3000C1008F7D8093C100FF91EF919F918F91B3
:100C40003F912F910F900FBE0F901F901895CF934B
:100C5000DF93482FEB0180919305833009F45FC047
:100C6000843028F48130D1F0823068F50AC08530B4
:100C700009F4D4C0853008F4AAC0863009F0F4C065
:100C8000EBC04C3309F0F0C081E0809393054883BA
:100C9000E2E1F1E0E491E0939205E6C0842F90E078
:100CA000E0919205F0E0E827F927EA52FF4FE4913E
:100CB000E0939205887F9070809741F582E0809361
:100CC0009305498329C0242F30E0E0919205F0E09C
:100CD000E227F327EA52FF4FE491E09392058091D7
:100CE00091058F5F80939105823018F43B832A83AE
:100CF000BBC0922F88272A813B81820F931F9B8341
:100D00008A830A978F3F910521F018F0109293057E
:100D1000ABC083E08093930510929105A5C0E42FAA
:100D2000F0E08091920590E0E827F927EA52FF4F22
:100D3000E491E0939205609191056F5F6093910556
:100D4000623089F0633020F4613009F08DC006C054
:100D5000633091F0643009F087C022C0842F90E0A6
:100D6000A0E0B0E018C0242F30E040E050E0542F65
:100D7000432F322F222707C0242F30E040E050E0DD
:100D8000A901332722278C819D81AE81BF81820FEB
:100D9000931FA41FB51F8C839D83AE83BF8364C044
:100DA000242F30E040E050E0522F44273327222701
:100DB0008C819D81AE81BF81820F931FA41FB51FBF
:100DC0008C839D83AE83BF8360939305A5CF242F2F
:100DD00030E0E0919205F0E0E227F327EA52FF4F7E
:100DE000E491E0939205609191056F5F60939105A6
:100DF000613019F06230C1F503C03987288734C0EB
:100E0000922F882728853985280F391F3987288709
:100E10008A819B810A97F1F085E07CCFE42FF0E096
:100E20008091920590E0E827F927EA52FF4FE4917C
:100E3000E0939205209191052F5F2093910530E07A
:100E4000FB01E20FF31F41878A819B810A972817D4
:100E5000390750F086E05ECFC75FDE4F4883C95048
:100E6000D14087E08093930580919305873069F4A2
:100E700010929305C75FDE4F909192058881C9500B
:100E8000D140981711F48A8101C080E0DF91CF91A1
:100E900008958F92AF92CF92EF92FF920F931F938C
:100EA00084E294E060E045EC50E024EC30E000ECBB
:100EB00010E0B1ECEB2EF12CCC24C394A8E9AA2EBF
:100EC000F0E28F2E0E94D72B81E494E00E94070469
:100ED0001F910F91FF90EF90CF90AF908F9008955A
:100EE000CF92DF92EF92FF920F931F93DF93CF93F6
:100EF000CDB7DEB72A970FB6F894DEBF0FBECDBFD1
:100F000007E0E02EF12CEC0EFD1E0DE913E0C12EE2
:100F1000D12CCC0EDD1E2CC20E94F73360527E44D1
:100F20008040904098F40E94F733695873418040A4
:100F3000904060F01A3011F01D3031F4809190052E
:100F40008F5F8093900502C010929005812F66E814
:100F500074E00E942706882309F40AC280918A045B
:100F600090918B04A0918C04B0918D048E37E9EAA6
:100F70009E07EBE5AE07E6E2BE0709F4C9C08F376E
:100F8000F9EA9F07FBE5AF07F6E2BF0780F4843577
:100F900024E7920725ECA2072BE0B20709F4AAC1C7
:100FA00088529E45A24DB44209F0E2C1A4C08634E5
:100FB000F3E09F07F2ECAF07F5E8BF0709F4B5C10E
:100FC0008E3F26EB920729E2A20725EAB20709F431
:100FD00005C18A5B974CA142B44709F0C9C10E9480
:100FE000F7336093540470935504809356049093A0
:100FF000570483E0809353048091A0049091A1044E
:10100000A091A204B091A3048F839887A987BA877F
:101010006F81788589859A850E94C03670935904BE
:10102000609358048091A4049091A504A091A60413
:10103000B091A7048F839887A987BA876F81788535
:1010400089859A850E94C03670935B0460935A0428
:101050008091A8049091A904A091AA04B091AB0436
:101060008F839887A987BA876F81788589859A85C4
:101070000E94C0368B0170935D0460935C046091A4
:101080005E0470915F04809160049091610420E09F
:1010900030E040E050E00E945136882309F0A8C1BA
:1010A000B801882777FD8095982F0E94F3367B0141
:1010B0008C01609362047093630480936404909342
:1010C000650420E030E040E050E00E945136882383
:1010D0000CF08EC1C801B70120E030E044EB53E4CE
:1010E0000E948B3560936204709363048093640460
:1010F000909365047DC180919004809366048091F3
:10110000920480936704809191048093680430C1B5
:101110008091900490919104A0919204B0919304D5
:10112000F70180839183A283B3836F81788589855A
:101130009A8520E030E048EC52E40E9426380E9474
:10114000C03670936A0460936904693C710520F0AD
:1011500010926A04109269048091AA049091AB04E1
:1011600090936C0480936B048091AC049091AD04D7
:1011700090936E0480936D048091B6049091B704AF
:1011800090934603809345036091BC047091BD0425
:101190007A836983709348036093470380E090E00B
:1011A0000E94F13620E030E04AEF54E40E948A3594
:1011B00020E030E040E251E40E94583620E030E088
:1011C00040E05FE30E948A350E94C0366093490385
:1011D0006D390CF0CDC000934903CAC060919004F2
:1011E0007091910480919204909193040E94F3363F
:1011F00020E836E948E15BE40E94583660935E04DB
:1012000070935F04809360049093610460919404F0
:10121000709195048091960490919704D6016C93F7
:1012200011967C93119712968C93129713969C9318
:101230000E94F33620E836E948E15BE40E94583624
:1012400060936F04709370048093710490937204A0
:101250008091B504809373048091B40480937404E6
:101260008091A0049091A104A091A204B091A30444
:10127000F70180839183A283B3838F819885A985A9
:10128000BA858093620490936304A0936404B0933E
:1012900065048091980490919904A0919A04B0916A
:1012A0009B0480839183A283B3838F819885A985D2
:1012B000BA858093750490937604A0937704B093D5
:1012C00078048091A4049091A504A091A604B09103
:1012D000A70480839183A283B3838F819885A98596
:1012E000BA858093790490937A04A0937B04B09399
:1012F0007C043EC08091980490919904A0919A0436
:10130000B0919B04F70180839183A283B3838F8183
:101310009885A985BA85B05880937D0490937E0402
:10132000A0937F04B093800423C040919A0440931B
:10133000810480919F0480938204309194043093BF
:1013400083042091930420938404909192049093B9
:101350008504813009F04CC0413009F049C031307A
:1013600009F046C0213009F043C0913009F040C077
:1013700084E294E00E94292C1816190604F584E2F0
:1013800094E00E94592C182F80915304882309F06F
:10139000DDCDC2CD10925304DD24D3948D2D90E089
:1013A0002A960FB6F894DEBF0FBECDBFCF91DF9166
:1013B0001F910F91FF90EF90DF90CF900895DD2463
:1013C000E0905404F0905504009156041091570495
:1013D00080E197E2A0E0B0E0E80EF91E0A1F1B1FB3
:1013E0000E94F733E616F7060807190798F2D6CFDA
:1013F000DD24D394E5CF6091620470916304809101
:1014000064049091650420E030E040E152E40E94E1
:10141000263820E030E044EB53E40E9458360E9426
:1014200089380E94C0369B012550304037FF03C0E9
:101430009B01215E3F4FA3EAB5E0F901E858FC4F5C
:1014400080818C932F5F3F4F2432310514F020E0D0
:1014500030E0119685E0AE3AB80779F71C9208950E
:101460002F923F924F925F926F927F928F929F92B4
:10147000AF92BF92CF92DF92EF92FF920F931F93A2
:10148000DF93CF9300D000D000D0CDB7DEB7182FB8
:10149000662E20915804309159042A35310530F0D8
:1014A000C9018D549F4F89359105E8F437FF02C07B
:1014B0002D543F4FC90137FF03C0909581959F4F31
:1014C0008A3191053CF094E4892E912C89ED282EE7
:1014D000312C1DC00A975CF10BE3802E912CB2EDEC
:1014E0002B2E312C20C02B35310514F0235B3040DE
:1014F000C90137FF03C0909581959F4F8A319105AF
:1015000054F0A6E58A2E912CFCED2F2E312CE7E02D
:10151000AE2EB12C15C00A9754F07DE4872E912C85
:1015200064ED262E312C58E0A52EB12C09C045E0E3
:10153000842E912C38E3232E312C29E0A22EB12CBD
:1015400060915A0470915B04882777FD8095982FED
:101550000E94F33627EA32E94BE25CEB0E94263820
:101560000E94FA3820E030E040EA50E40E94263839
:1015700020E030E040E951E40E9426380E9489389A
:1015800020E030E044E352E40E948B350E94C036F4
:10159000712E9EEBC92E9FEFD92E9B01442737FD5C
:1015A0004095542F29833A834B835C8381E4482EF2
:1015B00084E0582E4AEF5FEF240E351E60915804E8
:1015C00070915904882777FD8095982F0E94F336F3
:1015D00025E33AEF4EE85CE30E9426380E94FA3891
:1015E0007B018C01B601882777FD8095982F0E949A
:1015F000F3369B01AC01C801B7010E9426387B017C
:101600008C0169817A818B819C810E94F3369B01D8
:10161000AC01C801B7010E948B350E94C0369B0106
:10162000CB0101978A35910508F071C062E170E045
:101630000E946B398B012F5F3F4FAEEEBFEF6A9F69
:10164000C0016B9F900D7A9F900D1124820F931F04
:1016500062E070E00E946B396D837E83E62CE01AB5
:101660004E2D4C5F81E494E0672D0E94C60400D0AB
:1016700000D000D0EDB7FEB73196ADB7BEB7129629
:101680005C924E92119720E031E0338322838D816A
:101690009E81880D991D958384830E94B62B4DB73A
:1016A0005EB74A5F5F4F0FB6F8945EBF0FBE4DBF87
:1016B0008D819E818A159B0554F1043011053CF5FE
:1016C00093E0E90EC201672D4E2D0E94C60400D0A2
:1016D00000D000D0EDB7FEB73196ADB7BEB71296C9
:1016E0005C924E92119720E031E0338322834D814A
:1016F0005E81420D531D558344830E94B62B8DB7E6
:101700009EB706960FB6F8949EBF0FBE8DBFACE095
:10171000B0E0CA0EDB1E7394BEE4CB16D10409F010
:101720004DCF26960FB6F894DEBF0FBECDBFCF913A
:10173000DF911F910F91FF90EF90DF90CF90BF90BE
:10174000AF909F908F907F906F905F904F903F9061
:101750002F900895CF92DF92EF92FF920F931F93F5
:10176000823010F402E002C0082F000F609194054F
:101770007091950580919605909197050E94F3369A
:101780006B017C0120E030E44CE156E40E945136CC
:10179000202F30E041E454E0882334F58DB79EB724
:1017A0000E970FB6F8949EBF0FBE8DBFEDB7FEB774
:1017B0003196ADB7BEB712965C934E93119783E006
:1017C00091E09383828322573F4F358324832F5F99
:1017D0003F4F37832683C086D186E286F3868DE825
:1017E00090E09587848734C08DB79EB70E970FB66B
:1017F000F8949EBF0FBE8DBF0DB71EB70F5F1F4F72
:10180000ADB7BEB712965C934E9311978FE091E0FF
:10181000F8019383828322573F4F358324832F5FC0
:101820003F4F37832683C701B60120E030E04AE707
:1018300054E40E945836D80118966D937D938D9389
:101840009C931B978DEF90E01D969C938E931C9715
:101850000E94B62BEDB7FEB73E960FB6F894FEBFCA
:101860000FBEEDBF1F910F91FF90EF90DF90CF90D3
:101870000895CF93DF93AC01E0916B04F0916C0479
:101880002091980530919905C9018C599F4F8E1769
:101890009F071CF4EA01219609C024563040E21744
:1018A000F30714F0EA0102C0EA012197842F90E0C7
:1018B000C817D90729F08FE296E04C2F0E946E32AC
:1018C000CE01DF91CF910895CF92DF92EF92FF92F8
:1018D0000F931F93CF93DF937C016B01EA0100D03C
:1018E00000D001E414E0EDB7FEB7128301838FED61
:1018F00091E0948383830E94A52B0F900F900F900B
:101900000F90CA30D10581F0C436D10521F0C13025
:10191000D10519F512C000D000D0EDB7FEB7128383
:1019200001838DED91E011C000D000D0EDB7FEB77E
:10193000128301838AED91E008C000D000D0EDB79A
:10194000FEB71283018386ED91E0948383830E9426
:10195000A52B0F900F900F900F9040916B0450911A
:101960006C042091980530919905C9018C599F4FBD
:10197000841795071CF4CE0DDF1D0BC02456304094
:101980004217530714F0E70116C0C7018C1B9D0BCB
:10199000EC01CE15DF0579F08FE296E0B6014C2F11
:1019A0000E946E320894C11CD11C8FE296E0B601F1
:1019B0004D2F0E946E32CE01DF91CF911F910F917A
:1019C000FF90EF90DF90CF900895CF92DF92EF924B
:1019D000FF920F931F937C01D62EC72E01E414E0D3
:1019E000C8016E2D4D2D0E94A10400D000D0EDB78E
:1019F000FEB71283018383E392E0948383830E9482
:101A0000A52BEDB7FEB71283018383E292E09483A6
:101A100083830E94A52BEDB7FEB71283018383E178
:101A200092E0948383830E94A52BEDB7FEB71283C7
:101A3000018383E092E0948383830E94A52BEDB71A
:101A4000FEB71283018384EF91E0948383830E9425
:101A5000A52B0F900F900F900F90C8010E94550476
:101A6000C70101966D2D7C2D0E94300A1F910F91A8
:101A7000FF90EF90DF90CF9008950F931F93282F42
:101A8000462F01E414E0C801622F0E94A1042091B6
:101A90009A0530919B058DB79EB70C970FB6F894B9
:101AA0009EBF0FBE8DBFEDB7FEB73196ADB7BEB7C7
:101AB00012961C930E9311978BE191E0938382838E
:101AC00083EB90E095838483C9016CE370E00E940E
:101AD0006B39CB016CE370E00E946B39978386838E
:101AE0008AE390E091878087C9016CE370E00E94EF
:101AF0006B39938782870E94B62B8DB79EB70C9661
:101B00000FB6F8949EBF0FBE8DBFC8010E9455044A
:101B10001F910F9108950F931F93282F462F01E4D3
:101B200014E0C801622F0E94A10400D000D0EDB7DC
:101B3000FEB71283018387E291E0948383830E943E
:101B4000B62B0F900F900F900F90C8010E94550474
:101B50001F910F9108950F931F93282F462F01E493
:101B600014E0C801622F0E94A1048DB79EB70C97A4
:101B70000FB6F8949EBF0FBE8DBFEDB7FEB731967E
:101B8000ADB7BEB712961C930E9311978FE291E0FA
:101B90009383828387EB90E09583848380914A03CB
:101BA00090914B03A0914C03B0914D038683978392
:101BB000A087B18785E290E0938782870E94B62B49
:101BC0008DB79EB70C960FB6F8949EBF0FBE8DBF13
:101BD000C8010E9455041F910F910895EF92FF9242
:101BE0000F931F93282F462F31E4E32E34E0F32E7A
:101BF000C701622F0E94A1048DB79EB70C970FB644
:101C0000F8949EBF0FBE8DBF0DB71EB70F5F1F4F5D
:101C1000EDB7FEB7F282E18289E391E0F8019383A8
:101C2000828384EE90E09583848360919C0570911B
:101C30009D05882777FD8095982F0E94F3362AE02E
:101C400037ED43E25CE30E942638F8016683778330
:101C5000808791878FE890E0938782870E94B62BD8
:101C60008DB79EB70C960FB6F8949EBF0FBE8DBF72
:101C7000C7010E9455041F910F91FF90EF900895A6
:101C8000CF92DF92EF92FF920F931F93CF93DF9348
:101C9000282F462F81E494E0622F0E94A104C09077
:101CA0009E05D0909F05E090A005F090A105C09101
:101CB0004E03D0914F038091A20590E0805D9E4F2E
:101CC0008C9FB0018D9F700D9C9F700D11248827F3
:101CD00077FD8095982F0E94F33620E030E048ECA5
:101CE00052E40E9458369B01AC01C701B6010E9424
:101CF0005136181614F428EB01C024EB8DB79EB7AB
:101D000040970FB6F8949EBF0FBE8DBFEDB7FEB7DC
:101D1000319601E414E0ADB7BEB712961C930E9352
:101D2000119783E491E093838283D583C48380E811
:101D300090E097838683822F992787FD90959187DE
:101D40008087C286D386E486F5868EE890E0978702
:101D500086870E94B62B8DB79EB740960FB6F89433
:101D60009EBF0FBE8DBFC8010E945504DF91CF9169
:101D70001F910F91FF90EF90DF90CF9008950F93F8
:101D80001F93CF93DF93282F462F81E494E0622F97
:101D90000E94A10480916804882319F4C1E5D1E070
:101DA00057C0813019F4C5E5D1E052C0823019F432
:101DB000C9E5D1E04DC0833019F4CDE5D1E048C08C
:101DC000843019F4C1E6D1E043C0853019F4C5E68A
:101DD000D1E03EC0863019F4C9E6D1E039C0873081
:101DE00019F4CDE6D1E034C0883019F4C1E7D1E070
:101DF0002FC0893019F4C5E7D1E02AC08A3019F420
:101E0000C9E7D1E025C08B3019F4CDE7D1E020C07F
:101E10008C3019F4C1E8D1E01BC08D3019F4C5E84D
:101E2000D1E016C08E3019F4C9E8D1E011C08F306E
:101E300019F4CDE8D1E00CC0803119F4C1E9D1E04A
:101E400007C0813119F0C5E9D1E002C0C6E9D1E08F
:101E50008150863090F480916704882371F00E944D
:101E6000F7332CE231E040E050E00E947E3920FF61
:101E700002C024E003C020E201C020EE8DB79EB76F
:101E800008970FB6F8949EBF0FBE8DBFEDB7FEB793
:101E9000319601E414E0ADB7BEB712961C930E93D1
:101EA00011978AE991E093838283822F992787FD96
:101EB000909595838483D783C6830E94B62B8DB774
:101EC0009EB708960FB6F8949EBF0FBE8DBFC8018F
:101ED0000E945504DF91CF911F910F9108950F93A8
:101EE0001F93282F462F01E414E0C801622F0E949F
:101EF000A1048DB79EB70A970FB6F8949EBF0FBE88
:101F00008DBFEDB7FEB73196ADB7BEB712961C9335
:101F10000E9311978FE991E09383828387E890E095
:101F2000958384838091690490916A049783868362
:101F300085E290E0918780870E94B62B8DB79EB78F
:101F40000A960FB6F8949EBF0FBE8DBFC8010E94BF
:101F500055041F910F9108950F931F93282F462F1B
:101F600001E414E0C801622F0E94A1048DB79EB75E
:101F700008970FB6F8949EBF0FBE8DBFEDB7FEB7A2
:101F80003196ADB7BEB712961C930E93119789EA9E
:101F900091E09383828380915A0490915B049583AE
:101FA000848381EB90E0978386830E94B62B8DB764
:101FB0009EB708960FB6F8949EBF0FBE8DBFC8019E
:101FC0000E9455041F910F9108950F931F93282F7E
:101FD000462F01E414E0C801622F0E94A1048DB7CE
:101FE0009EB708970FB6F8949EBF0FBE8DBFEDB792
:101FF000FEB73196ADB7BEB712961C930E931197EC
:1020000089EA91E0938382838091580490915904E6
:102010009583848382EB90E0978386830E94B62B1E
:102020008DB79EB708960FB6F8949EBF0FBE8DBFB2
:10203000C8010E9455041F910F9108950F931F939B
:10204000282F462F01E414E0C801622F0E94A1044A
:102050008DB79EB70A970FB6F8949EBF0FBE8DBF7F
:10206000EDB7FEB73196ADB7BEB712961C930E937F
:1020700011978FEA91E09383828381EE90E09583BC
:10208000848380914903992787FD90959783868360
:102090008CE890E0918780870E94B62B8DB79EB721
:1020A0000A960FB6F8949EBF0FBE8DBFC8010E945E
:1020B00055041F910F9108950F931F93282F462FBA
:1020C00001E414E0C801622F0E94A1048DB79EB7FD
:1020D00042970FB6F8949EBF0FBE8DBFEDB7FEB707
:1020E0003196ADB7BEB712961C930E93119787EB3E
:1020F00091E09383828388EC91E09583848380913F
:10210000620490916304A0916404B0916504868395
:102110009783A087B18780EB90E09387828780EDDB
:1021200090E09587848783EA95E09787868781ED9D
:1021300090E0918B808B0E94B62B8DB79EB7429614
:102140000FB6F8949EBF0FBE8DBFC8010E94550404
:102150001F910F9108950F931F93282F462F01E48D
:1021600014E0C801622F0E94A1048DB79EB70C979E
:102170000FB6F8949EBF0FBE8DBFEDB7FEB7319678
:10218000ADB7BEB712961C930E93119782ED91E0F6
:102190009383828386E190E09583848380917D049C
:1021A00090917E04A0917F04B091800486839783F0
:1021B000A087B18788E890E0938782870E94B62B3A
:1021C0008DB79EB70C960FB6F8949EBF0FBE8DBF0D
:1021D000C8010E9455041F910F910895CF92DF927C
:1021E000EF92FF920F931F93CF93DF93282F462FE9
:1021F000C1E4D4E0CE01622F0E94A104C090AF05DB
:10220000D090B005E090B105F090B205C701B601DD
:102210000E94C036695E7340804090408CF18DB75B
:102220009EB70C970FB6F8949EBF0FBE8DBF0DB72B
:102230001EB70F5F1F4FADB7BEB71296DC93CE939C
:10224000119789E391E0F801938382838EEF90E008
:1022500095838483C701B60120E030E04AE754E467
:102260000E945836D80116966D937D938D939C935A
:1022700019978DEF90E01B969C938E931A9721C02F
:102280008DB79EB70C970FB6F8949EBF0FBE8DBF4B
:10229000EDB7FEB73196ADB7BEB71296DC93CE93CD
:1022A00011978CED91E0938382838EEF90E095837C
:1022B0008483C682D782E086F1868DE890E093879A
:1022C00082870E94B62BEDB7FEB73C960FB6F89406
:1022D000FEBF0FBEEDBF81E494E00E945504DF9184
:1022E000CF911F910F91FF90EF90DF90CF900895C5
:1022F000EF92FF920F931F93282F462F51E4E52E64
:1023000054E0F52EC701622F0E94A1048DB79EB73D
:102310000C970FB6F8949EBF0FBE8DBF0DB71EB7BA
:102320000F5F1F4FEDB7FEB7F282E18282ED91E0C1
:10233000F8019383828388EE90E095838483609193
:10234000B3057091B4058091B5059091B60526E668
:1023500036E646E650E40E942638F8016683778325
:102360008087918781E890E0938782870E94B62BCF
:102370008DB79EB70C960FB6F8949EBF0FBE8DBF5B
:10238000C7010E9455041F910F91FF90EF9008958F
:10239000EF92FF920F931F93282F462F61E4E62EB2
:1023A00064E0F62EC701622F0E94A1048DB79EB78C
:1023B0000C970FB6F8949EBF0FBE8DBF0DB71EB71A
:1023C0000F5F1F4FEDB7FEB7F282E18282ED91E021
:1023D000F8019383828389EE90E0958384836091F2
:1023E000790470917A0480917B0490917C0426E6B4
:1023F00036E646E650E40E942638F8016683778385
:102400008087918781E890E0938782870E94B62B2E
:102410008DB79EB70C960FB6F8949EBF0FBE8DBFBA
:10242000C7010E9455041F910F91FF90EF900895EE
:102430000F931F93282F462F01E414E0C801622F49
:102440000E94A1048DB79EB70C970FB6F8949EBF5B
:102450000FBE8DBFEDB7FEB73196ADB7BEB71296C2
:102460001C930E9311978CED91E09383828385E802
:1024700090E0958384838091750490917604A09177
:102480007704B091780486839783A087B1878DE81D
:1024900090E0938782870E94B62B8DB79EB70C96EB
:1024A0000FB6F8949EBF0FBE8DBFC8010E945504A1
:1024B0001F910F910895EF92FF920F931F93282F72
:1024C000462F8091B705882309F44EC0809174048B
:1024D000823008F449C071E4E72E74E0F72EC7019A
:1024E000622F0E94A1048DB79EB70C970FB6F89487
:1024F0009EBF0FBE8DBF0DB71EB70F5F1F4FEDB74D
:10250000FEB7F282E18286EE91E0F8019383828346
:1025100087EE90E0958384836091750470917604D2
:1025200080917704909178042091B8053091B90595
:102530004091BA055091BB050E948A35F801668327
:102540007783808791878DE890E0938782870E94C8
:10255000B62B8DB79EB70C960FB6F8949EBF0FBEE4
:102560008DBFC7010E9455041F910F91FF90EF90FE
:1025700008950F931F93282F462F01E414E0C801FC
:10258000622F0E94A1048091BC050E94AA0BC80181
:102590000E9455041F910F910895CF92DF92EF9200
:1025A000FF920F931F93CF93DF93282F462FC1E401
:1025B000D4E0CE01622F0E94A1046091BD0570910C
:1025C000BE058091BF059091C0050E94F3366B0156
:1025D0007C0120E030E44CE156E40E94513688232F
:1025E00014F58DB79EB70C970FB6F8949EBF0FBE2B
:1025F0008DBFEDB7FEB73196ADB7BEB71296DC937F
:10260000CE93119786EE91E09383828382E190E0EE
:1026100095838483C682D782E086F1868DE890E038
:102620009387828730C08DB79EB70C970FB6F8940A
:102630009EBF0FBE8DBF0DB71EB70F5F1F4FADB74B
:10264000BEB71296DC93CE93119780EF91E0F8011C
:102650009383828382E190E095838483C701B601EE
:1026600020E030E04AE754E40E945836D80116963C
:102670006D937D938D939C9319978DEF90E01B96AE
:102680009C938E931A970E94B62BEDB7FEB73C969B
:102690000FB6F894FEBF0FBEEDBF81E494E00E9438
:1026A0005504DF91CF911F910F91FF90EF90DF9034
:1026B000CF900895BF92CF92DF92EF92FF920F9347
:1026C0001F93CF93DF93282F462F81E494E0622F4E
:1026D0000E94A1042091C1053091C20537FF02C0BC
:1026E0004AE801C047EFC091C305D091C405D7FFA8
:1026F00003C00AE8B02E02C018EFB12E8DB79EB706
:102700004C970FB6F8949EBF0FBE8DBF0DB71EB786
:102710000F5F1F4FB1E4CB2EB4E0DB2EEDB7FEB759
:10272000D282C1828AEF91E0F80193838283842F61
:10273000992787FD909595838483B901882777FD34
:102740008095982F0E94F336F801668377838087FF
:102750009187ADE8EA2EF12CF386E2868B2D99273E
:1027600087FD909595878487BE01882777FD8095A2
:10277000982F0E94F336F80166877787808B918BBC
:10278000F38AE28A8BEF90E0958B848B6091C5058C
:102790007091C6058091C7059091C80520E030E092
:1027A0004AE754E40E945836F801668B778B808F95
:1027B000918F84EF90E0938F828F0E94B62B8DB71C
:1027C0009EB74C960FB6F8949EBF0FBE8DBFC60144
:1027D0000E945504DF91CF911F910F91FF90EF90D0
:1027E000DF90CF90BF9008950F931F93282F462F0F
:1027F00001E414E0C801622F0E94A1048DB79EB7C6
:102800000C970FB6F8949EBF0FBE8DBFEDB7FEB705
:102810003196ADB7BEB712961C930E93119788E10F
:1028200092E09383828380915E0490915F04A091F3
:102830006004B091610484839583A683B7838091FB
:102840006F0490917004A0917104B091720480871C
:102850009187A287B3870E94B62B8DB79EB70C963F
:102860000FB6F8949EBF0FBE8DBFC8010E945504DD
:102870001F910F9108950F931F93282F462F81E4E6
:1028800094E0622F0E94A10480917404282F30E00C
:10289000823030F484E0220F331F8A95E1F702C0C2
:1028A0002150304000D000D000D0EDB7FEB73196B7
:1028B00001E414E0ADB7BEB712961C930E931197C6
:1028C00080E091E093838283358324830E94B62B3A
:1028D0008DB79EB706960FB6F8949EBF0FBE8DBFFC
:1028E000C8010E9455041F910F9108950F931F93E3
:1028F000282F462F01E414E0C801622F0E94A10492
:102900008DB79EB708970FB6F8949EBF0FBE8DBFC8
:10291000EDB7FEB73196ADB7BEB712961C930E93C6
:10292000119784E292E0938382838FE090E0958315
:10293000848380917304868317820E94B62B8DB79F
:102940009EB708960FB6F8949EBF0FBE8DBFC80104
:102950000E9455041F910F9108950F931F9301E456
:1029600014E0C80161E047E00E94A10400D000D05B
:10297000EDB7FEB71283018383E492E094838383EF
:102980000E94A52B0F900F900F900F90C8010E94EE
:1029900055041F910F9108950F931F93282F462FD1
:1029A00001E414E0C801622F0E94A10400D000D00D
:1029B000EDB7FEB71283018385E592E094838383AC
:1029C0000E94A52B0F900F900F900F90C8010E94AE
:1029D00055041F910F910895EF92FF920F931F934B
:1029E000CF93DF930E94F7332091D2053091D30526
:1029F0004091D4055091D505261737074807590748
:102A000008F0E6C20E94F7336C507E4F8F4F9F4F05
:102A10006093D2057093D3058093D4059093D50528
:102A200001E414E0C8010E94EB04C80165E043E042
:102A30000E94A10400D000D0ADB7BEB712961C937F
:102A40000E9311978AEE92E014969C938E931397AF
:102A50000E94A52B0F900F900F900F9080919805DA
:102A600090919905892B31F08091C9059091CA0503
:102A7000892B81F480916B0490916C04909399055B
:102A80008093980580916D0490916E049093CA058F
:102A90008093C90520916D0430916E044091C90561
:102AA0005091CA05C901845690404817590724F42B
:102AB0008091D1058F5F08C02C593F4F24173507EF
:102AC0002CF48091D10581508093D1058091D1055E
:102AD000823014F482E003C08E301CF08DE08093CD
:102AE000D1058091D105873009F4F4C088308CF489
:102AF000843009F494C0853034F4823091F183300D
:102B000009F062C222C08530E9F0863009F05CC26B
:102B100025C08A3009F451C18B3034F4883079F003
:102B2000893009F051C217C08C3091F08C3024F0FC
:102B30008D3009F049C2C5C1C4E6D0E0C9C1C4E6C0
:102B4000D0E042C1C4E6D0E0CCC0CAE0D0E00BC0C7
:102B500084E690E0B8C184E690E031C184E690E07C
:102B6000BBC0C4E6D0E000D000D041E4E42E44E095
:102B7000F42EEDB7FEB7F282E1828BED92E0948302
:102B800083830E94A52B8DB79EB708970FB6F89444
:102B90009EBF0FBE8DBF0DB71EB70F5F1F4FADB7E6
:102BA000BEB71296FC92EE9211978AE292E0F8017B
:102BB000938382836091500370915103882777FD3E
:102BC0008095982F0E94F336D80114966D937D93CB
:102BD0008D939C93179782E890E019969C938E931F
:102BE000189780E290E01B969C938E931A970E9410
:102BF000B62BEDB7FEB73C960FB6F894FEBF0FBEEE
:102C0000EDBF80915003909151036DEF73E0AE01E1
:102C10000E94640C9093510380935003D5C100D05F
:102C200000D031E4E32E34E0F32EADB7BEB71296F8
:102C3000FC92EE9211978BEB92E014969C938E93FC
:102C400013970E94A52BEDB7FEB738970FB6F894EF
:102C5000FEBF0FBEEDBF0DB71EB70F5F1F4FF28255
:102C6000E18282E392E0D80113969C938E931297AF
:102C70006091A20570E0645D7E4F882777FD8095A6
:102C8000982F0E94F33620E030E048EC52E40E9496
:102C90005836F801648375838683978386E790E0CE
:102CA0009187808780E290E0938782870E94B62B8D
:102CB0008DB79EB70C960FB6F8949EBF0FBE8DBF12
:102CC0008091A20590E060E873E00E94390C809347
:102CD000A2057AC18AE090E06AE070E00E946B3958
:102CE000EB0100D000D001E414E0ADB7BEB71296FE
:102CF0001C930E93119780EA92E014969C938E9306
:102D000013970E94A52BEDB7FEB738970FB6F8942E
:102D1000FEBF0FBEEDBF3196ADB7BEB712961C9386
:102D20000E93119789E391E09383828382EE90E082
:102D30009583848380919E0590919F05A091A00525
:102D4000B091A10586839783A087B1878EE890E034
:102D5000938782870E94B62BEDB7FEB736960FB6E3
:102D6000F894FEBF0FBEEDBF3196ADB7BEB7129659
:102D70001C930E9311978AE392E093838283809150
:102D8000CB059091CC05958384830E94B62BEDB73B
:102D9000FEB736960FB6F894FEBF0FBEEDBF80911A
:102DA000CB059091CC0564EF73E0AE010E94640CFA
:102DB0009093CC058093CB0507C18AE090E06AE050
:102DC00070E00E946B39EB0100D000D021E4E22ECC
:102DD00024E0F22EADB7BEB71296FC92EE92119798
:102DE00085E892E014969C938E9313970E94A52BEE
:102DF000EDB7FEB738970FB6F894FEBF0FBEEDBF24
:102E00000DB71EB70F5F1F4FF282E18289E391E099
:102E1000D80113969C938E93129784EE90E01596AA
:102E20009C938E93149760919C0570919D058827C3
:102E300077FD8095982F0E94F3362AE037ED43E224
:102E40005CE30E942638F801668377838087918748
:102E50008FE890E0938782870E94B62B8DB79EB74C
:102E600006960FB6F8949EBF0FBE8DBFEDB7FEB7A6
:102E70003196ADB7BEB71296FC92EE92119781E5EE
:102E800092E0938382838091CD059091CE059583C6
:102E900084830E94B62BEDB7FEB736960FB6F89432
:102EA000FEBF0FBEEDBF8091CD059091CE0568EFBE
:102EB00073E0AE010E94640C9093CE058093CD0523
:102EC00083C08AE090E06AE070E00E946B39EB0119
:102ED00000D000D091E4E92E94E0F92EADB7BEB752
:102EE0001296FC92EE9211978AE692E014969C93C9
:102EF0008E9313970E94A52BEDB7FEB738970FB6A8
:102F0000F894FEBF0FBEEDBF0DB71EB70F5F1F4F8A
:102F1000F282E18289E391E0D80113969C938E932B
:102F2000129784EE90E015969C938E93149760917F
:102F30009C0570919D05882777FD8095982F0E94AC
:102F4000F3362AE037ED43E25CE30E942638F801CD
:102F500066837783808791878FE890E09387828765
:102F60000E94B62B8DB79EB706960FB6F8949EBFFB
:102F70000FBE8DBFEDB7FEB73196ADB7BEB7129697
:102F8000FC92EE92119788E692E09383828380917F
:102F9000CF059091D005958384830E94B62BEDB721
:102FA000FEB736960FB6F894FEBF0FBEEDBF809108
:102FB000CF059091D00566EF73E0AE010E94640CDE
:102FC0009093D0058093CF0581E494E00E9455044E
:102FD000DF91CF911F910F91FF90EF9008952F9265
:102FE0003F924F925F926F927F928F929F92AF9299
:102FF000BF92CF92DF92EF92FF920F931F93DF93D6
:10300000CF93CDB7DEB760970FB6F894DEBF0FBE93
:10301000CDBF8D876E870E94F7332091D605309102
:10302000D7054091D8055091D9052617370748078D
:10303000590708F00CC28091DA058823C9F0809303
:1030400052031092DA058FE792E09093E80580939F
:10305000E7050E94F733625A7E4F8F4F9F4F609370
:10306000D6057093D7058093D8059093D905A7C14D
:1030700080915203282E332490906604209181047D
:103080002C87309182043B87809083044091840494
:103090004A87509185045987E090DB05F090DC0564
:1030A0008091E7059091E805988B8F879091530464
:1030B0009983A0917404A887B091B705BF8340900D
:1030C0009E0550909F056090A0057090A10580918D
:1030D000A20590E0845D9E4F20914E0330914F03F6
:1030E000FC01E29FC001E39F900DF29F900D11241F
:1030F000F0914903FE832091C1053091C2053D83C3
:103100002C834091C3055091C4055B834A838101A0
:103110005C01CC24B7FCC094DC2C0F5F1F4F09303E
:1031200011051CF001E010E021C00430110509F484
:1031300060C0053011056CF40230110509F441C07E
:10314000033011050CF047C00130110509F0BAC079
:103150000DC00630110509F472C0063011050CF4DB
:1031600061C00830110509F0ADC099C051E0591592
:10317000F8F0951619F48CE892E020C09C85913007
:1031800091F4AB85A13079F4B1E08B1661F4EA8556
:10319000E13049F4F985F13031F429E932E0388B36
:1031A0002F8781E094C046EA52E0588B4F87F9CFD1
:1031B0005B85513009F486C083EB92E0988B8F8752
:1031C000F0CF9981933009F47DC0A0ECB2E0B88BC8
:1031D000AF8782E07CC0B885B23008F073C0EF8161
:1031E000EE2309F46FC02DEC32E0388B2F8783E09B
:1031F0006EC0C601B5010E94F33620E030E048EC15
:1032000052E40E9458369B01AC01C301B2010E94F6
:10321000513688230CF056C04AED52E0588B4F8748
:1032200084E055C051E0E516F10409F04BC087EE8B
:1032300092E0988B8F87EE24FF2485E048C091E0D0
:10324000981598F4A2E08A1639F4991570F0E4EF15
:10325000F2E0F88BEF8707C0F3E08F1631F421E03E
:1032600033E0388B2F8786E001C080E0398532302B
:1032700028F04EE053E0588B4F8786E05A85523055
:1032800028F08BE193E0988B8F8786E09E81993BB5
:10329000BCF4A8E2B3E0B88BAF8786E018C0B1E019
:1032A000B91580F4EC81FD81F7FD04C02A813B81D2
:1032B00037FF08C045E353E0588B4F8788E007C0CD
:1032C000882329F40215130509F027CFA3C0F09233
:1032D000DC05E092DB05AF85B889B093E805A093E3
:1032E000E7058093DA0581E08093DD050E94F733DE
:1032F00064547D4F8F4F9F4F6093D6057093D705D1
:103300008093D8059093D9050E94F7336854744F81
:103310008F4F9F4F6093E3057093E4058093E5051D
:103320009093E6058091DE059091DF05A091E00580
:10333000B091E1050097A105B10571F40E94F73342
:103340006059784E8F4F9F4F6093DE057093DF0575
:103350008093E0059093E1058091E205882379F45C
:103360000E94F7332091DE053091DF054091E005A2
:103370005091E105261737074807590720F081E4E7
:1033800094E00E94EB040E94F7332091DE05309117
:10339000DF054091E0055091E10526173707480702
:1033A000590768F01092E2050AC01092DD051092EC
:1033B000DE051092DF051092E0051092E10501E4B0
:1033C00014E0C8016D854E850E94A10400D000D094
:1033D00000D0EDB7FEB73196ADB7BEB712961C93CD
:1033E0000E93119782E493E0938382838091E705A3
:1033F0009091E805958384830E94B62BEDB7FEB7C4
:1034000036960FB6F894FEBF0FBEEDBFC8010E94FE
:1034100055041DC0F092DC05E092DB052F8538894C
:103420003093E8052093E7051092DA050E94F73300
:103430002091E3053091E4054091E5055091E605C2
:10344000261737074807590708F4AFCFB8CF60965B
:103450000FB6F894DEBF0FBECDBFCF91DF911F91A5
:103460000F91FF90EF90DF90CF90BF90AF909F9023
:103470008F907F906F905F904F903F902F90089526
:103480002091450330914603C901895097408F5AD6
:103490009440D0F580916604882321F481E08093E4
:1034A000E9052EC08091E905882351F58091DD055D
:1034B000882311F10E94F7332091DE053091DF055A
:1034C0004091E0055091E105261737074807590755
:1034D000B8F40E94F7332091D6053091D70540917A
:1034E000D8055091D905261737074807590740F4E2
:1034F0008091DA05882321F481E494E00E94EB04B2
:1035000082E08093E205089584E0203B380768F468
:103510008091E205882349F01092E90581E494E066
:103520000E94EB041092E2050895205B3440295577
:10353000324000F58091E2058130E1F08091DD05B7
:10354000882379F00E94F7332091DE053091DF0562
:103550004091E0055091E1052617370748075907C4
:1035600048F41092E90581E494E00E94EB0481E0C4
:103570008093E2050895EF92FF920F931F9380913D
:10358000E905882309F04EC080916604823008F076
:1035900049C08091B705813009F044C080916B0427
:1035A00090916C0489509740ECF180916D0490915A
:1035B0006E04805B9440B4F580915E0490915F044A
:1035C000A0916004B09161048093EA059093EB05AB
:1035D000A093EC05B093ED0580916F049091700479
:1035E000A0917104B09172048093EE059093EF0561
:1035F000A093F005B093F105809175049091760445
:10360000A0917704B09178048093B8059093B905A0
:10361000A093BA05B093BB0581E090E09093DC05E0
:103620008093DB058091F2059091F305A091F4055C
:10363000B091F5050097A105B105E1F58091690408
:1036400090916A040797B0F180916604823090F1FE
:103650000E94F7336093F2057093F3058093F405AD
:103660009093F5051092F7051092F6058091F805F4
:103670009091F9059093FB058093FA0580914A0398
:1036800090914B03A0914C03B0914D038093530351
:1036900090935403A0935503B093560380E090E0B9
:1036A000A0E0B0E08093AF059093B005A093B10582
:1036B000B093B2058091F2059091F305A091F405C5
:1036C000B091F5050097A105B10509F462C080919C
:1036D000690490916A04079720F480916704882315
:1036E00059F180916604823038F10E94F7332091BD
:1036F000F2053091F3054091F4055091F505621BF8
:10370000730B840B950B28EE33E040E050E00E94F1
:103710007E3930939B0520939A058091F80590910E
:10372000F9052091FA053091FB05821B930B9093CC
:10373000F7058093F6054DC00E94F7337B018C019D
:1037400060919A0570919B05882777FD8095982F49
:1037500028E13CEF4FEF5FEF0E944C39E60EF71E79
:10376000081F191FE092F205F092F3050093F4058B
:103770001093F5058091F8059091F9052091F605D3
:103780003091F705821B930B9093FB058093FA050C
:1037900020C00E94F73328EE33E040E050E00E9462
:1037A0007E3930939B0520939A051092F70510926D
:1037B000F60580914A0390914B03A0914C03B09180
:1037C0004D038093530390935403A0935503B093F8
:1037D00056030E94401A8091E905882319F00E943F
:1037E000EC1440C28091BC0380FF08C060911204B9
:1037F0008091100490E070E00E94EF178091E20544
:103800008230A8F08091DD05882309F42BC20E9444
:10381000F7332091DE053091DF054091E0055091AE
:10382000E105261737074807590708F41BC280919E
:10383000E2058093FC05823011F41092E20580913C
:10384000E205A82FB0E0FD01EA54FC4F808185FF1E
:103850000BC0FD01E253FC4F6081A453BC4F8C911F
:1038600090E070E00E9476148091E205A82FB0E00D
:10387000FD01EA54FC4F808186FF0BC0FD01EE5232
:10388000FC4F6081A053BC4F8C9190E070E00E948F
:103890003B148091B705882309F454C08091E20558
:1038A000A82FB0E0FD01EA54FC4F808187FF0BC0D8
:1038B000FD01EA52FC4F6081AC52BC4F8C9190E00C
:1038C00070E00E94F4138091E205A82FB0E0FD01A2
:1038D000E854FC4F808184FF0BC0FD01EA51FC4F8E
:1038E0006081AC51BC4F8C9190E070E00E94CD1291
:1038F0008091E205A82FB0E0FD01E854FC4F8081E3
:1039000083FF0BC0FD01EE51FC4F6081A052BC4F04
:103910008C9190E070E00E94B9128091E205A82F8E
:10392000B0E0FD01E854FC4F808186FF0BC0FD0133
:10393000E651FC4F6081A851BC4F8C9190E070E043
:103940000E945A138091B705882309F483C080919F
:103950007404823008F47EC08091E205A82FB0E0A4
:10396000FD01E654FC4F808187FF0BC0FD01E6504E
:10397000FC4F6081A850BC4F8C9190E070E00E9499
:103980005B128091E205A82FB0E0FD01E454FC4FEA
:10399000808183FF0BC0FD01EA5EFB4F6081AC5E5E
:1039A000BB4F8C9190E070E00E94AB108091E205DB
:1039B000A82FB0E0FD01E254FC4F808182FF0BC0D4
:1039C000FD01E25EFB4F6081A45EBB4F8C9190E0F5
:1039D00070E00E94EE108091E205A82FB0E0FD019A
:1039E000E654FC4F808182FF0BC0FD01EA50FC4F82
:1039F0006081AC50BC4F8C9190E070E00E94181236
:103A00008091E205A82FB0E0FD01E654FC4F8081D3
:103A100083FF0BC0FD01E250FC4F6081A450BC4FFE
:103A20008C9190E070E00E94C8118091E205A82F6F
:103A3000B0E0FD01E654FC4F808181FF0BC0FD0129
:103A4000EE5FFB4F6081A050BC4F8C9190E070E026
:103A50000E9478118091B7058823C9F08091740481
:103A60008230A8F08091E205A82FB0E0FD01E85473
:103A7000FC4F808180FF0BC0FD01E252FC4F608152
:103A8000A452BC4F8C9190E070E00E945C10809139
:103A9000E205A82FB0E0FD01E454FC4F808186FFD1
:103AA0000BC0FD01E65EFB4F6081A85EBB4F8C91B1
:103AB00090E070E00E941E108091E205A82FB0E017
:103AC000FD01EA54FC4F808182FF0BC0FD01EA53E7
:103AD000FC4F6081AC53BC4F8C9190E070E00E9431
:103AE000E50F8091E205A82FB0E0FD01EA54FC4FFC
:103AF000808181FF0BC0FD01EE53FC4F6081A0541B
:103B0000BC4F8C9190E070E00E94AC0F8091E20578
:103B1000A82FB0E0FD01E654FC4F808184FF0BC06C
:103B2000FD01EA5FFB4F6081AC5FBB4F8C9190E081
:103B300070E00E946F0F8091E205A82FB0E0FD01B8
:103B4000E654FC4F808185FF0BC0FD01E65FFB4F13
:103B50006081A85FBB4F8C9190E070E00E94BF0E27
:103B60008091E205A82FB0E0FD01EA54FC4F80816E
:103B700083FF0BC0FD01E653FC4F6081A853BC4F8F
:103B80008C9190E070E00E94400E8091E205A82F99
:103B9000B0E0FD01E654FC4F808180FF0BC0FD01C9
:103BA000EE50FC4F6081A051BC4F8C9190E070E0D2
:103BB0000E94EE0D8091E205A82FB0E0FD01EA54CD
:103BC000FC4F808184FF0BC0FD01E652FC4F6081F9
:103BD000A852BC4F8C9190E070E00E94AB0D809198
:103BE000E205A82FB0E0FD01E254FC4F808181FF87
:103BF0000BC0FD01EE5DFB4F6081A05EBB4F8C9161
:103C000090E070E00E948B0D8091E205A82FB0E05B
:103C1000FD01E854FC4F808187FF0BC0FD01E2519C
:103C2000FC4F6081A451BC4F8C9190E070E00E94E9
:103C30003D0D8091E205A82FB0E0FD01E654FC4F58
:103C4000808186FF0BC0FD01E25FFB4F6081A45FB6
:103C5000BB4F8C9190E070E00E94E50C8091FC05D8
:103C60008093E2051F910F91FF90EF90089581E4FA
:103C700094E00E94EB040E94AD140895CF93DF936B
:103C8000EC0181E494E00E942204C817D9073CF0BB
:103C900081E494E00E941704892B09F42397CE0154
:103CA000DF91CF910895FF920F931F930FE216E0DB
:103CB000C80160E873E00E9467328093A205C801E2
:103CC0006DEF73E00E946732F82EC8016EEF73E06B
:103CD0000E946732382F20E02F0D311D30935103A1
:103CE00020935003C80164EF73E00E946732F82EFE
:103CF000C80165EF73E00E946732382F20E02F0D76
:103D0000311D3093CC052093CB05C80166EF73E0DD
:103D10000E946732F82EC80167EF73E00E94673295
:103D2000382F20E02F0D311D3093D0052093CF0583
:103D3000C80168EF73E00E946732F82EC80169EF8E
:103D400073E00E946732382F20E02F0D311D309331
:103D5000CE052093CD051F910F91FF900895BC01D2
:103D60008FE296E00E9467320895EF92FF920F93E0
:103D70001F93CF93DF930091E20510E08AEF90E06C
:103D8000089F7001099FF00C189FF00C1124C701C7
:103D900088569F4F0E94AF1EF801EA54FC4F8823BB
:103DA00019F08081806102C080818F7E8083809144
:103DB000E205C82FD0E0C70186569F4F0E94AF1E74
:103DC000C852DC4F88838091E205C82FD0E0C7013C
:103DD00084569F4F0E94AF1E90E00E943E1EC65226
:103DE000DC4F88830091E20510E0C70106960E942F
:103DF000AF1EF801EA54FC4F882319F080818260DD
:103E000002C080818D7F80838091E205C82FD0E041
:103E1000C70108960E94AF1EC054DC4F8883809172
:103E2000E205C82FD0E0C7010A960E94AF1E90E0BD
:103E30000E943E1ECE53DC4F88830091E20510E0C5
:103E4000C7010C960E94AF1EF801EA54FC4F88236C
:103E500019F08081846002C080818B7F8083809193
:103E6000E205C82FD0E0C7010E960E94AF1ECC53CA
:103E7000DC4F88838091E205C82FD0E0C7014096CF
:103E80000E94AF1E90E00E943E1ECA53DC4F888302
:103E90000091E20510E0C70142960E94AF1EF801B2
:103EA000EA54FC4F882319F08081886002C0808129
:103EB000877F80838091E205C82FD0E0C7014496B8
:103EC0000E94AF1EC853DC4F88838091E205C82F43
:103ED000D0E0C70146960E94AF1E90E00E943E1EB1
:103EE000C653DC4F88830091E20510E0C7014E966F
:103EF0000E94AF1EF801EA54FC4F882319F080811C
:103F0000806202C080818F7D80838091E205C82F0E
:103F1000D0E0C70180960E94AF1EC453DC4F888357
:103F20008091E205C82FD0E0C70182960E94AF1EA3
:103F300090E00E943E1EC253DC4F88830091E20550
:103F400010E0C70184960E94AF1EF801EA54FC4FAE
:103F5000882319F08081806402C080818F7B8083F8
:103F60008091E205C82FD0E0C70186960E94AF1E5F
:103F7000C053DC4F88838091E205C82FD0E0C70191
:103F800088960E94AF1E90E00E943E1ECE52DC4FEB
:103F900088830091E20510E0C7018A960E94AF1E57
:103FA000F801EA54FC4F882319F08081806802C030
:103FB00080818F7780838091E205C82FD0E0C70190
:103FC0008C960E94AF1ECC52DC4F88838091E20514
:103FD000C82FD0E0C7018E960E94AF1E90E00E94CD
:103FE0003E1ECA52DC4F88830091E20510E0C701F3
:103FF000C0960E94AF1EF801E854FC4F882319F0C8
:104000008081816002C080818E7F80838091E20503
:10401000C82FD0E0C701C2960E94AF1EC452DC4F29
:1040200088838091E205C82FD0E0C701C4960E9422
:10403000AF1E90E00E943E1EC252DC4F888300916A
:10404000E20510E0C701885B9F4F0E94AF1EF80198
:10405000E854FC4F882319F08081806102C0808180
:104060008F7E80838091E205C82FD0E0C701865BF8
:104070009F4F0E94AF1ECC51DC4F88838091E20598
:10408000C82FD0E0C701845B9F4F0E94AF1E90E015
:104090000E943E1ECA51DC4F88830091E20510E069
:1040A000C7018E5B9F4F0E94AF1EF801E854FC4F82
:1040B000882319F08081886002C08081877F808397
:1040C0008091E205C82FD0E0C7018C5B9F4F0E9412
:1040D000AF1EC052DC4F88838091E205C82FD0E02C
:1040E000C7018A5B9F4F0E94AF1E90E00E943E1E58
:1040F000CE51DC4F88830091E20510E0C7018A5A57
:104100009F4F0E94AF1EF801E854FC4F882319F01E
:104110008081806402C080818F7B80838091E205F2
:10412000C82FD0E0C701885A9F4F0E94AF1EC851C8
:10413000DC4F88838091E205C82FD0E0C701865A02
:104140009F4F0E94AF1E90E00E943E1EC651DC4F62
:1041500088830091E20510E0C70182569F4F0E94BC
:10416000AF1EF801E854FC4F882319F08081806865
:1041700002C080818F7780838091E205C82FD0E0D4
:10418000C70180569F4F0E94AF1EC451DC4F8883E9
:104190008091E205C82FD0E0C7018E559F4F0E9445
:1041A000AF1E90E00E943E1EC251DC4F88830091FA
:1041B000E20510E0C7018E599F4F0E94AF1EF80123
:1041C000E654FC4F882319F08081816002C0808111
:1041D0008E7F80838091E205C82FD0E0C7018C5983
:1041E0009F4F0E94AF1EC051DC4F88838091E20533
:1041F000C82FD0E0C7018A599F4F0E94AF1E90E0A0
:104200000E943E1ECE50DC4F88830091E20510E0F4
:10421000C70182599F4F0E94AF1EF801E654FC4F20
:10422000882319F08081846002C080818B7F808325
:104230008091E205C82FD0E0C70180599F4F0E94AE
:10424000AF1ECC50DC4F88838091E205C82FD0E0B0
:10425000C7018E589F4F0E94AF1E90E00E943E1EE5
:10426000CA50DC4F88830091E20510E0C7018457F3
:104270009F4F0E94AF1EF801E654FC4F882319F0AF
:104280008081806802C080818F7780838091E20581
:10429000C82FD0E0C70182579F4F0E94AF1EC85061
:1042A000DC4F88838091E205C82FD0E0C70180579A
:1042B0009F4F0E94AF1E90E00E943E1EC650DC4FF2
:1042C00088830091E20510E0C7018E569F4F0E943F
:1042D000AF1EF801E654FC4F882319F080818260FC
:1042E00002C080818D7F80838091E205C82FD0E05D
:1042F000C7018C569F4F0E94AF1EC050DC4F888371
:104300008091E205C82FD0E0C7018A569F4F0E94D6
:10431000AF1E90E00E943E1ECE5FDB4F888300916F
:10432000E20510E0C7018C589F4F0E94AF1EF801B4
:10433000E654FC4F882319F08081886002C0808198
:10434000877F80838091E205C82FD0E0C7018A581B
:104350009F4F0E94AF1EC450DC4F88838091E205BE
:10436000C82FD0E0C70188589F4F0E94AF1E90E031
:104370000E943E1EC250DC4F88830091E20510E08F
:10438000C70186589F4F0E94AF1EF801E654FC4FAC
:10439000882319F08081806102C080818F7E8083B4
:1043A0008091E205C82FD0E0C70184589F4F0E943A
:1043B000AF1ECC5FDB4F88838091E205C82FD0E031
:1043C000C70182589F4F0E94AF1E90E00E943E1E80
:1043D000CA5FDB4F88830091E20510E0C701805877
:1043E0009F4F0E94AF1EF801E654FC4F882319F03E
:1043F0008081806202C080818F7D80838091E20510
:10440000C82FD0E0C7018E579F4F0E94AF1EC85FD4
:10441000DB4F88838091E205C82FD0E0C7018C571D
:104420009F4F0E94AF1E90E00E943E1EC65FDB4F72
:1044300088830091E20510E0C7018A579F4F0E94D0
:10444000AF1EF801E654FC4F882319F08081806488
:1044500002C080818F7B80838091E205C82FD0E0ED
:10446000C70188579F4F0E94AF1EC45FDB4F8883F0
:104470008091E205C82FD0E0C70186579F4F0E9468
:10448000AF1E90E00E943E1EC25FDB4F888300910A
:10449000E20510E0C7018C559F4F0E94AF1EF80146
:1044A000E454FC4F882319F08081816002C0808130
:1044B0008E7F80838091E205C82FD0E0C7018A55A6
:1044C0009F4F0E94AF1EC05FDB4F88838091E20543
:1044D000C82FD0E0C70188559F4F0E94AF1E90E0C3
:1044E0000E943E1ECE5EDB4F88830091E20510E005
:1044F000C7018A549F4F0E94AF1EF801E454FC4F3D
:10450000882319F08081886002C08081877F808342
:104510008091E205C82FD0E0C70188549F4F0E94C8
:10452000AF1ECC5EDB4F88838091E205C82FD0E0C0
:10453000C70186549F4F0E94AF1E90E00E943E1E0E
:10454000CA5EDB4F88830091E20510E0C701845A00
:104550009F4F0E94AF1EF801E454FC4F882319F0CE
:104560008081806402C080818F7B80838091E2059E
:10457000C82FD0E0C701825A9F4F0E94AF1EC85E6D
:10458000DB4F88838091E205C82FD0E0C701805AB5
:104590009F4F0E94AF1E90E00E943E1EC65EDB4F02
:1045A00088830091E20510E0C70180529F4F0E946E
:1045B000AF1EF801E254FC4F882319F0808184601B
:1045C00002C080818B7F80838091E205C82FD0E07C
:1045D000C7018E519F4F0E94AF1EC45EDB4F888380
:1045E0008091E205C82FD0E0C7018C519F4F0E94F7
:1045F000AF1E90E00E943E1EC25EDB4F888300919A
:10460000E20510E0C7018C529F4F0E94AF1EF801D7
:10461000E254FC4F882319F08081826002C08081BF
:104620008D7F80838091E205C82FD0E0C7018A5238
:104630009F4F0E94AF1EC05EDB4F88838091E205D2
:10464000C82FD0E0C70188529F4F0E94AF1E90E054
:104650000E943E1ECE5DDB4F8883DF91CF911F917C
:104660000F91FF90EF90089583E00E949934089590
:104670002F923F924F925F926F927F928F929F9272
:10468000AF92BF92CF92DF92EF92FF920F931F9360
:10469000E090FE05F090FF050091000610910106E4
:1046A0008FE590E0A0E0B0E0E80EF91E0A1F1B1FA6
:1046B0000E94F7336E157F058007910708F4B9C291
:1046C0000E94F7331B012C016090FE057090FF05DE
:1046D00080900006909001060E94F7336093FE05DB
:1046E0007093FF05809300069093010683E00E947B
:1046F000993486E00E949C34AA2797FDA095BA2F92
:10470000BC01CD010E94F3362DEC3CEC4CE85FE39C
:104710000E94263820E030E040E85AE30E94263824
:104720007B018C016091CB057091CC05882777FDCA
:104730008095982F0E94F33620E030E048EC52E458
:104740000E9458369B01AC01C801B7010E9426386F
:104750007B018C01A0905B03B0905C03C0905D0373
:10476000D0905E03C601B50120E030E040E85FEB89
:104770000E945136882349F4E0925B03F0925C0377
:1047800000935D0310935E0339C0C801B701A60111
:1047900095010E94513618168CF0C801B7012DEC16
:1047A0003CEC4CEC5DE30E9426387B018C01C60199
:1047B000B50126E636E646E65FE310C0C801B7015C
:1047C0002AE939E949E95EE30E9426387B018C0138
:1047D000C601B50123E333E343E35FE30E942638D8
:1047E0009B01AC01C801B7010E948B3560935B034C
:1047F00070935C0380935D0390935E03E0905B0392
:10480000F0905C0300915D0310915E03C801B70155
:1048100026E636E64EEA51E40E941B3818161CF4D0
:1048200086E090E04BC0C801B7012AE939E94BE8BE
:1048300051E40E941B3818164CF480914E0390915D
:104840004F0305971CF485E090E038C0C801B7011C
:1048500023E333E343E551E40E941B3818164CF47C
:1048600080914E0390914F0304971CF484E090E0F4
:1048700025C0C801B7012DEC3CEC4CE051E40E948E
:104880001B3818164CF480914E0390914F030397F8
:104890001CF483E090E012C0C801B70120E030E0D2
:1048A00040EA50E40E941B38181664F480914E03CD
:1048B00090914F03029734F482E090E090934F037D
:1048C00080934E038091FD058823C9F4DD24609117
:1048D0004E0370914F03882777FD8095982F0E9493
:1048E000F3369B01AC01C801B7010E94583621EE96
:1048F0003AE748E850E40E941B38181614F4DD2407
:10490000D394D092FD05DD2029F088E49DE7A5EE43
:10491000B2E404C087E894E1A9E0B3E480935703CC
:1049200090935803A0935903B0935A03E0929E05C5
:10493000F0929F050093A0051093A10520914E03CE
:1049400030914F03DD2029F1B901882777FD80954B
:10495000982F0E94F3369B01AC01C801B7010E9459
:1049600058362CEF39EA4DE550E40E948A35209103
:104970005703309158034091590350915A030E94B4
:1049800026380E94C536E62FF0E0E650FD4F6491D0
:1049900024C0B901882777FD8095982F0E94F336AF
:1049A0009B01AC01C801B7010E9458362CEF39EACF
:1049B0004DE550E40E948A35209157033091580309
:1049C0004091590350915A030E9426380E94C536DF
:1049D000E62FF0E0E25AFC4F649170E080E090E056
:1049E0000E94F1367B018C01A0904A03B0904B03EA
:1049F000C0904C03D0904D03C601B50120E030E0DB
:104A000040E85FEB0E945136882349F4E0924A0364
:104A1000F0924B0300934C0310934D0339C0C8012F
:104A2000B701A60195010E94513618168CF0C801F5
:104A3000B7012DEC3CEC4CE45DE30E9426387B0191
:104A40008C01C601B50123E333E343E75FE310C004
:104A5000C801B7012AE939E949E95EE30E9426382D
:104A60007B018C01C601B50123E333E343E35FE33C
:104A70000E9426389B01AC01C801B7010E948B350A
:104A800060934A0370934B0380934C0390934D03C0
:104A900060914A0370914B0380914C0390914D03B8
:104AA00020E030E046EC52E40E941B38181664F413
:104AB00080E090E0A6ECB2E480934A0390934B032D
:104AC000A0934C03B0934D038091CF059091D005F6
:104AD000181619060CF0ADC081E00E94993481E0EF
:104AE0000E949C34AA2797FDA095BA2FBC01CD0146
:104AF0000E94F33629E23CE54FE950E40E94263853
:104B000020E030E040E85AE30E9426387B018C0127
:104B10006091CD057091CE05882777FD8095982FFF
:104B20000E94F33620E030E44CE156EC0E94583607
:104B30009B01AC01C801B7010E948B357B018C0140
:104B40006091CF057091D005882777FD8095982FCB
:104B50000E94F33620E030E048EC52E40E945836E0
:104B60009B01AC01C801B7010E9426382DEC3CEC3A
:104B70004CE45EE30E9426387B018C0160910606BE
:104B80007091070680910806909109062DEC3CEC87
:104B90004CE45FE30E9426389B01AC01C801B701D9
:104BA0000E948B357B018C0160930606709307068B
:104BB0008093080690930906B1016619770980E091
:104BC00090E00E94F1369B01AC01C801B7010E9440
:104BD00026382FEA35EA41E959E30E942638209128
:104BE00002063091030640910406509105060E948A
:104BF0008B355B016C016093020670930306809312
:104C0000040690930506C801B70120E030E048ECA7
:104C100052E40E9426380E94C03670939D0560932E
:104C20009C05C601B5010E94C5367093F9056093D5
:104C3000F8051F910F91FF90EF90DF90CF90BF90FC
:104C4000AF909F908F907F906F905F904F903F902C
:104C50002F9008951F93CF93DF9385E090E06CE051
:104C600070E00E94CC1468EE73E080E090E00E9457
:104C7000053484E294E00E94A62CC0E0D0E010E06D
:104C8000CE016DE171E00E946B39892B89F41F5EC2
:104C900081E494E0612F4CE00E94A10481E494E05F
:104CA0006EEE0E94A90481E494E00E945504105124
:104CB00061E070E080E090E00E940534219687E09A
:104CC000C13DD807E9F6DF91CF911F91089586E0A5
:104CD00061E00E94FD34089586E061E00E94BE34E8
:104CE00084E294E040E051EE60E070E00E94C72B67
:104CF0000E94672681E494E00E942A050E94371EE4
:104D000068EE73E080E090E00E9405340E94531E3C
:104D10001092E20507C00E94B51E8091E2058F5FE8
:104D20008093E2058091E2058230A8F31092E205BB
:104D30000E942A260E94342381E494E00E94EB041E
:104D40000E94F73360930A0670930B0680930C065B
:104D500090930D0608952F923F924F925F926F921B
:104D60007F928F929F92AF92BF92CF92DF92EF92FB
:104D7000FF920F931F93DF93CF9300D000D0CDB756
:104D8000DEB7E0901906F0901A0600911B0610910C
:104D90001C068FE590E0A0E0B0E0E80EF91E0A1FC7
:104DA0001B1F0E94F7336E157F058007910708F4DB
:104DB00081C12091790430917A0440917B04509113
:104DC0007C04E0907D04F0907E0400917F041091BB
:104DD0008004CA01B9010E9426385B016C01C80138
:104DE000B701A80197010E9426389B01AC01C601BA
:104DF000B5010E948B350E94AD386093B305709366
:104E0000B4058093B5059093B60520E030E040E00E
:104E100050E00E941B3818160CF042C10E94F73374
:104E20002091190630911A0640911B0650911C06DC
:104E3000621B730B840B950B0E94F1363B014C01F6
:104E4000E090B305F090B4050091B5051091B6055A
:104E50002091790430917A0440917B0450917C0434
:104E60000E94263820E030E04AE754E40E94583699
:104E70009B01AC016091AF057091B0058091B105C7
:104E80009091B2050E948B356093AF057093B00589
:104E90008093B1059093B2058091F6059091F70546
:104EA000892B09F49AC0C801B701A40193010E949B
:104EB000263820E030E04AE754E40E9458361B01CF
:104EC0002C0160919C0570919D05882777FD809548
:104ED000982F0E94F33669837A838B839C83609139
:104EE00015067091160680911706909118062DEC04
:104EF0003CEC4CE45FE30E9426387B018C01C2014C
:104F0000B10120E030EA4CE857E40E9426382981BC
:104F10003A814B815C810E945836A40193010E9422
:104F200058369B01AC01C801B7010E948B355B016B
:104F30006C01609315067093160680931706909384
:104F400018066091500370915103882777FD809572
:104F5000982F0E94F3362DEC3CEC4CE45FE30E946A
:104F600026387B018C016091F8057091F90580E08D
:104F700090E00E94F1369B01AC01C801B7010E948C
:104F80008A35A60195010E9426387B018C0160912B
:104F900094057091950580919605909197050E94D2
:104FA000F3369B01AC01C801B7010E948A3520E0AD
:104FB00030E040E05FE30E9426380E94C0367093E4
:104FC000C4056093C305615F784D64F481EF98ED8B
:104FD0009093C4058093C30505C01092C405109238
:104FE000C30552C0C201B10120E030E040E050E012
:104FF0000E941B3818160CF047C06091C5057091CF
:10500000C6058091C7059091C8052DEC3CEC4CE499
:105010005FE30E9426387B018C0169817A818B8154
:105020009C8120919E0530919F054091A005509153
:10503000A1050E942638A40193010E94263820E091
:1050400030E041EE54E40E945836A20191010E94E2
:1050500058369B01AC01C801B7010E948B356093A3
:10506000C5057093C6058093C7059093C80520E0D9
:105070003BE443EC57E40E941B3818168CF480E0A4
:105080009BE4A3ECB7E404C080E090E0A0E0B0E0D3
:105090008093C5059093C605A093C705B093C80536
:1050A0000E94F7336093190670931A0680931B06CB
:1050B00090931C060F900F900F900F90CF91DF915F
:1050C0001F910F91FF90EF90DF90CF90BF90AF9026
:1050D0009F908F907F906F905F904F903F902F9018
:1050E00008952F923F924F925F926F927F928F928C
:1050F0009F92AF92BF92CF92DF92EF92FF920F9367
:105100001F93DF93CF9300D000D0CDB7DEB780914F
:10511000B705882309F438C2E090EA05F090EB0562
:105120000091EC051091ED05C801B7019F7725E3CB
:105130003AEF4EE85CE30E9426380E9455366983B8
:105140007A838B839C83C801B70120915E043091E0
:105150005F0440916004509161040E948A359F77FA
:1051600020EC3BE649ED57E40E9426385B016C01D8
:105170006091EE057091EF058091F0059091F10539
:1051800020916F0430917004409171045091720429
:105190000E948A359F7720EC3BE649ED57E40E9458
:1051A000263829813A814B815C810E9426387B0117
:1051B0008C01C601B501A60195010E9426385B014C
:1051C0006C01C801B701A80197010E9426389B0114
:1051D000AC01C601B5010E948B350E94AD380E941A
:1051E000C0366093940570939505809396059093CF
:1051F00097058091F6059091F705892B09F4E9C090
:1052000060910E0670910F0680E090E00E94F136EA
:105210002DEC3CEC4CE45FE30E9426383B014C0152
:105220006091500370915103882777FD8095982FE6
:105230000E94F3362DEC3CEC4CE45FE30E942638F0
:105240007B018C016091F8057091F90580E090E098
:105250000E94F1369B01AC01C801B7010E948A355A
:105260005B016C010E94F7337B018C016091F605B4
:105270007091F70580E090E00E94F1361B012C014F
:105280008091F2059091F305A091F405B091F50598
:10529000E81AF90A0A0B1B0BC801B7010E94F13684
:1052A000A20191010E9458369B01AC01C601B501D3
:1052B0000E94263820E030E04AE754E40E94583645
:1052C0002DEC3CEC4CE45EE30E9426389B01AC01E3
:1052D000C401B3010E948B350E94C03670930F0643
:1052E00060930E066091F8057091F90580E090E0FA
:1052F0000E94F1365B016C01609150037091510383
:10530000882777FD8095982F0E94F3362DEC3CEC92
:105310004CE45FE30E9426387B018C01C601B50195
:10532000A80197010E941B38181624F410920F064A
:1053300010920E0680910E0690910F0680579741AD
:1053400030F08FE697E190930F0680930E06C80128
:10535000B701A60195010E948A357B018C016091FD
:10536000AF057091B0058091B1059091B205A20191
:1053700091010E9458369B01AC01C801B7010E94FF
:1053800026387B018C016091940570919505809180
:105390009605909197050E94F3369B01AC01C801D8
:1053A000B7010E948A3520E030E040E05FE30E94D0
:1053B00026380E94C0367093C2056093C105615FB4
:1053C000784D7CF481EF98ED9093C2058093C105F0
:1053D00008C010920F0610920E061092C20510928D
:1053E000C105609175047091760480917704909165
:1053F00078042091B8053091B9054091BA055091D3
:10540000BB050E948A355B016C01209194053091A7
:1054100095054091960550919705CA01B9010E94E2
:105420004C390E94F3367B018C01C601B501A601FF
:1054300095010E9426389B01AC01C801B7010E946A
:105440008B350E94AD380E94C0366093BD057093C5
:10545000BE058093BF059093C0056091EA057091E9
:10546000EB058091EC059091ED0520915E04309163
:105470005F0440916004509161040E948A357B0171
:105480008C0160E070E080E89FE329813A814B81E4
:105490005C810E9458369B01AC01C801B7010E9493
:1054A00026387B018C016091EE057091EF058091AB
:1054B000F0059091F10520916F04309170044091B6
:1054C0007104509172040E948A359B01AC015058BE
:1054D000C801B7010E94FE3520EE3EE245E652E4E7
:1054E0000E94263820E030E044EB52E40E948B35E5
:1054F0000E94C0369B01AC0197FF04C028593E4F63
:105500004F4F5F4FCA01B901645B704080409040CB
:1055100097FF06C0CA01B9016C547F4F8F4F9F4F50
:105520000E94F33620916204309163044091640438
:10553000509165040E948A350E94C03697FF04C0CE
:1055400068597E4F8F4F9F4F0E94F33620E030E026
:1055500044EB53E40E94583620E030E040E851E448
:105560000E9426380E94893820E030E040E85FE35E
:105570000E948B350E94C5366093BC05613108F4EA
:105580006CC01092BC0569C080917404823008F42C
:1055900064C080917304853008F45FC0D090100619
:1055A000FDE1FD1508F459C0E0907504F090760413
:1055B00000917704109178046091110670911206A1
:1055C0008091130690911406A80197010E948A35D4
:1055D0009F7720E030E040E05FE30E941B38181620
:1055E0005CF410921006E0921106F09212060093FD
:1055F00013061093140631C08D2D8F5F8093100613
:105600008E3159F580915E0490915F04A091600401
:10561000B09161048093EA059093EB05A093EC05AB
:10562000B093ED0580916F0490917004A091710486
:10563000B09172048093EE059093EF05A093F0056E
:10564000B093F105E092B805F092B9050093BA0560
:105650001093BB0581E08093B7050F900F900F90DA
:105660000F90CF91DF911F910F91FF90EF90DF90FE
:10567000CF90BF90AF909F908F907F906F905F90F2
:105680004F903F902F9008950E9438230E94AB26A0
:105690000E94FB0981E494E00E9471280E94BB1AD9
:1056A0000895EF92FF920F931F930E947007892B2A
:1056B000B9F4E0900A06F0900B0600910C061091E8
:1056C0000D0684E690E0A0E0B0E0E80EF91E0A1FA7
:1056D0001B1F0E94F733E616F7060807190760F448
:1056E0000E94F73360930A0670930B0680930C06B2
:1056F00090930D060E94442B1F910F91FF90EF9005
:1057000008956EBD0DB407FEFDCF8EB508958DE0F2
:1057100061E00E94BE348BE061E00E94BE348CE008
:1057200060E00E94BE348AE061E00E94BE341CBC8E
:1057300080E58CBD8DB58EB508958DE196E00E9413
:10574000872B08958FEF9FE70895DF93CF93CDB711
:10575000DEB7FE0139968D819E8161E04F815885CB
:105760009F010E94462ECF91DF910895DF93CF9342
:10577000CDB7DEB7FE0139968D819E8160E04F8105
:1057800058859F010E94462ECF91DF9108950F9377
:105790001F93DC01ED91FC910288F389E02D20E05C
:1057A00030E000E010E009951F910F9108958F926D
:1057B000AF92CF92EF92FF920F931F93DF93CF930D
:1057C000CDB7DEB7FC011382128288EE93E0A0E031
:1057D000B0E084839583A683B78380EA93E09183C6
:1057E00080835587448737872687118B008BF38A00
:1057F000E28AC48AA58A868A70E0CB0123E0880FFA
:10580000991F2A95E1F79C01225E394F308F278B33
:105810008A5D994F928F818F81E090E002C0880F5E
:10582000991F6A95E2F720912E06282B20932E06C9
:10583000CF0140E051EE60E070E00E94C72BCF91B5
:10584000DF911F910F91FF90EF90CF90AF908F90CD
:105850000895FC01838D882319F42FEF3FEF0DC0CD
:105860000788F08DE02D2081318182819381281B72
:10587000390B8481958128233923C9010895FC01BE
:10588000838D882319F42FEF3FEF11C0018CF28D27
:10589000E02D2081318182819381281B390B209555
:1058A000309584819581282339232F5F3F4FC9018B
:1058B0000895FC01838D882361F0A789B08D2D9117
:1058C0003C91119712968D919C9113972817390747
:1058D00021F44FEF5FEFCA01089512968D919C91CC
:1058E00013971696ED91FC911797E80FF91F4081D9
:1058F00012968D919C911397019614962D913C913F
:1059000015978223932313969C938E93129750E0BE
:10591000E2CFFC01838D882351F00788F08DE02DC4
:1059200020813181828193812817390721F42FEF5B
:105930003FEFC9010895828193810680F781E02DB0
:10594000E80FF91F8081282F30E0F3CFDC01579654
:10595000ED91FC9158978281938191838083599630
:10596000ED91FC915A978081918193838283089570
:10597000DC015B968C915B978823A9F15996ED9198
:10598000FC915A97208131812F5F3F4F848195810F
:10599000282339235C968C915C97882329F0828197
:1059A000938128173907F9F08281938128173907E5
:1059B000D9F3808191810680F781E02DE80FF91FEE
:1059C00060835996ED91FC915A97318320835296CA
:1059D000ED91FC915397808156969C91892B808301
:1059E00021E030E002C020E030E0C9010895CF930B
:1059F000DF93EC011B821A828A819B8199838883C1
:105A00001D821C828E819F81009721F00E94173396
:105A10001F821E82DF91CF9108950F931F938C01F7
:105A2000DC015296ED91FC915397208156968C9112
:105A3000569755969C915597892B80958223808304
:105A400057968D919C9158970E94F72CF801818D63
:105A5000928D0E94F72CD8015B961C921F910F919A
:105A600008950F931F93CF93DF938C01FC01138252
:105A70001282828193819183808341E0A1E0B0E032
:105A800001C04F5FFD01042E02C0EE0FFF1F0A94FC
:105A9000E2F79B0182E06130780710F020E032E00D
:105AA000E217F30770F3C1E0D0E002C0CC0FDD1FB6
:105AB0004A95E2F72197F8012681378121153105B2
:105AC00041F0848195818C179D0789F0C9010E945E
:105AD0001733F801D583C483CE0101960E947A3230
