:100000000C947A020C94A2020C94A2020C94A20208
:100010000C94A2020C94A2020C94A2020C94A202D0
:100020000C94A2020C94A2020C94A2020C94A202C0
:100030000C94A2020C94A2020C94A2020C94A202B0
:100040000C9463340C94A2020C94E8050C942406DE
:100050000C94A2020C94A2020C94A2020C94A20290
:100060000C94A2020C94A202084AD73B3BCE016E2C
:1000700084BCBFFDC12F3D6C74319ABD56833DDAFF
:100080003D00C77F11BED9E4BB4C3E916BAAAABE0E
:10009000000000803F05A84CCDB2D44EB93836A937
:1000A000020C50B9918688083CA6AAAA2ABE000074
:1000B00000803F0664EC1B3C04BC163E3BE5B93CAB
:1000C000C93C37C29E5A3D660498083EEA69AAAA0E
:1000D0003E000000803F00070E091C1B1215383F30
:1000E000363124232A2D70777E796C6B6265484FF8
:1000F000464154535A5DE0E7EEE9FCFBF2F5D8DFE8
:10010000D6D1C4C3CACD90979E998C8B8285A8AF57
:10011000A6A1B4B3BABDC7C0C9CEDBDCD5D2FFF847
:10012000F1F6E3E4EDEAB7B0B9BEABACA5A28F88B7
:10013000818693949D9A2720292E3B3C35321F18A7
:10014000111603040D0A5750595E4B4C45426F6817
:10015000616673747D7A898E878095929B9CB1B617
:10016000BFB8ADAAA3A4F9FEF7F0E5E2EBECC1C677
:10017000CFC8DDDAD3D4696E676075727B7C515667
:100180005F584D4A4344191E171005020B0C2126D7
:100190002F283D3A33344E49404752555C5B7671C7
:1001A000787F6A6D64633E39303722252C2B060137
:1001B000080F1A1D1413AEA9A0A7B2B5BCBB969127
:1001C000989F8A8D8483DED9D0D7C2C5CCCBE6E197
:1001D000E8EFFAFDF4F32020BF0020BF00BF007C51
:1001E000202020202020202020202020202020200F
:1001F00020202000C8202020202020202020202077
:1002000020C900C8202020202020202020202020BD
:10021000C97C00D820202020202020202020202041
:10022000D97C00C820202020202020202020202031
:10023000C97C00C820202020202020202020202031
:10024000C97C00626F6F74696E672075703AEDF259
:10025000F2F2F2F2F2F2F30063616C6962726174BD
:10026000657C7C6D6561737572656420616D703A43
:1002700020200063616C6962726174657C7C6D65CD
:1002800061737572656420616D703A20200063614E
:100290006C6962726174657C7C6D65617375726591
:1002A0006420766F6C743A20006C69706F20626114
:1002B00074742063656C6C7C7C7761726E696E67A8
:1002C000206C6576656C3A2000626174742063610D
:1002D0007061636974793A003473206C69696F6E78
:1002E000006C69706F20202020006261747420749B
:1002F0007970653A20007365747570207363726558
:10030000656E7C7C7C004368617220446F6E650A78
:1003100000526561647920666F7220466F6E740AC0
:100320000075706461746520636861727365740040
:1003300000000000000000000000000002070A0C9E
:100340000D0E101214151617191A1B1E2126282A15
:100350002B2D2F31333437393C3D3E3F4041424411
:1003600046494A4B4C4D4E4F4F50515152525354A7
:10037000545555565758595A5B5C5C5D5D5E5F5FDE
:100380005F60606060606161616161616262626260
:100390006262626300407A10F35A00A0724E18093C
:1003A0000010A5D4E80000E87648170000E40B54DC
:1003B000020000CA9A3B000000E1F50500008096AB
:1003C0009800000040420F000000A08601000000DD
:1003D000102700000000E803000000006400000097
:1003E00000000A00000000000100000000002C7660
:1003F000D888DC674F0823DFC1DFAE59E1B1B7967B
:10040000E5E3E453C63AE651997696E8E6C28426D7
:10041000EB898C9B62ED407C6FFCEFBC9C9F40F2B3
:10042000BAA56FA5F490055A2AF75C936B6CF9672F
:100430006DC11BFCE0E40D47FEF520E6B500D0EDF4
:10044000902E0300943577050080841E080000205C
:100450004E0A000000C80C333333330F986E1283FA
:100460001141EF8D2114893BE65516CFFEE6DB18CE
:10047000D1844B381BF77C1D901DA4BBE424203293
:1004800084725E228100C9F124ECA1E53D276E61F2
:100490006E00696E660000000000240027002A003C
:1004A00000000000250028002B00000000002300B1
:1004B00026002900040404040404040402020202C5
:1004C0000202030303030303010204081020408017
:1004D0000102040810200102040810200000000797
:1004E00000020100000304060000000000000000FC
:1004F0009407512C11241FBECFEFD8E0DEBFCDBF33
:1005000013E0A0E0B1E0E6E1F5E702C005900D924E
:10051000AC3BB107D9F716E0ACEBB3E001C01D92DC
:10052000A234B107E1F714E0C4EFD4E004C022978D
:10053000FE010E94853AC03FD107C9F70E940536E7
:100540000C94893A0C940000283008F027E03327F7
:10055000DA01990F311D87FD9160009661057105E3
:1005600039F432602E5F3D9330E32A95E1F7089528
:100570009F3F30F080387105610509F03C5F3C5FBA
:100580003D93913008F08068911DDF93CF931F93C6
:100590000F93FF92EF92192F987F9695E92F9695DA
:1005A0009695E90FFF27E251FC4F99273327EE2458
:1005B000FF24A701E70105900894079428F4360F5B
:1005C000E71EF81E491F511D660F771F881F991FD0
:1005D0000694A1F70590079428F4E70EF81E491F2A
:1005E000561FC11D770F881F991F661F0694A1F71C
:1005F0000590079428F4F80E491F561FC71FD11DF8
:10060000880F991F661F771F0694A1F7059007941E
:1006100020F4490F561FC71FD81F990F661F771F59
:10062000881F0694A9F784911095177041F0D6950C
:10063000C79557954795F794E7941A95C1F7E4E95C
:10064000F3E0689415901591359165919591059019
:100650007FE27395E118F10A430B560BC90BD009E1
:10066000C0F7E10CF11E431F561FC91FD01D7EF4B9
:10067000703311F48A95E6CFE894015030F0080FFA
:100680000AF40027021708F4202F2395022F7A334B
:1006900028F079E37D932A95E9F710C07D932A9598
:1006A00089F6069497956795379517951794E118ED
:1006B000F10A430B560BC90BD00998F023957E9194
:1006C00073957A3308F070E37C932013B8F77E912A
:1006D00070617D9330F0839571E37D9370E32A958B
:1006E000E1F71124EF90FF900F911F91CF91DF91CF
:1006F000992787FD90950895FA01AA27283051F18E
:10070000203181F1E8946F936E7F6E5F7F4F8F4F42
:100710009F4FAF4FB1E03ED0B4E03CD0670F781FA1
:10072000891F9A1FA11D680F791F8A1F911DA11D86
:100730006A0F711D811D911DA11D20D009F46894BF
:100740003F912AE0269F11243019305D3193DEF667
:10075000CF010895462F4770405D4193B3E00FD01D
:10076000C9F7F6CF462F4F70405D4A3318F0495D08
:1007700031FD4052419302D0A9F7EACFB4E0A695EB
:100780009795879577956795BA95C9F7009761050D
:10079000710508959B01AC010A2E06945795479563
:1007A00037952795BA95C9F7620F731F841F951F58
:1007B000A01D0895FC010590615070400110D8F70C
:1007C000809590958E0F9F1F0895FC016150704099
:1007D00001900110D8F7809590958E0F9F1F089576
:1007E000FC011382128288EE93E0A0E0B0E08483E3
:1007F0009583A683B78381E793E0918380830895EF
:10080000FC018089803419F421E030E002C020E04E
:1008100030E0C9010895FC01818990E0089580E0ED
:1008200090E0089580E090E0089580E090E00895E1
:100830000895EF92FF921F93CF93DF93162F7A01C3
:1008400086E060E00E94B13582E296E060E00E94BE
:10085000352C82E296E060E00E94352C82E296E040
:1008600069E00E94352C82E296E0612F0E94352CCF
:10087000C0E0D0E0F701EC0FFD1F108182E296E0AE
:100880006AE00E94352C82E296E06C2F0E94352CA3
:1008900082E296E06BE00E94352C82E296E0612FC6
:1008A0000E94352C2196C633D10521F782E296E0CD
:1008B00068E00E94352C82E296E060EA0E94352CC6
:1008C00082E296E060EA0E94352C85FDF9CF82E253
:1008D00096E060E00E94352C82E296E06CE00E9497
:1008E000352C86E061E00E94B135DF91CF911F91F8
:1008F000FF90EF9008951F93CF93DF93EC01162F95
:1009000086E060E00E94B13582E296E060E00E94FD
:10091000352C112319F0113059F404C082E296E00D
:10092000688904C068896C6182E296E00E94352C77
:1009300086E061E00E94B135DF91CF911F9108956B
:10094000EF92FF920F931F937C0102E216E0C80121
:1009500067E00E94352CC8016FEF0E94352C86E0BD
:1009600061E00E94B135F70187858F5F87871F910E
:100970000F91FF90EF900895EF92FF920F931F93C6
:10098000FC01E7848EE1E89E700111248685E80E63
:10099000F11C86E060E00E94B13502E216E0C80179
:1009A00064E00E94352CC80163E00E94352CC80128
:1009B00065E00E94352CC8016F2D0E94352CC801BE
:1009C00066E00E94352CC8016E2D0E94352C1F91C7
:1009D0000F91FF90EF900895FC016487458766872B
:1009E00047870E94BC0408951F93CF93DF93EC01C7
:1009F000162F6C3731F40E94A004CE010E94BC0473
:100A00000AC082E296E067E00E94352C82E296E01E
:100A1000612F0E94352C81E090E0DF91CF911F91F2
:100A20000895EF92FF920F931F938EE1489F7001FC
:100A30001124E60EF11C86E060E00E94B13502E26E
:100A400016E0C80165E00E94352CC8016F2D0E9498
:100A5000352CC80166E00E94352CC8016E2D0E941D
:100A6000352C1F910F91FF90EF9008950F931F93D6
:100A700086E060E00E94B13502E216E0C80164E061
:100A80000E94352CC80164E00E94352C61E070E0C2
:100A900080E090E00E94B93486E061E00E94B135C8
:100AA0001F910F9108951F93CF93DF93EC01188A44
:100AB00016E0198B84E396E060E973E00E941B3333
:100AC000813049F480E4888B88E0898B86E060E09F
:100AD0000E94B13502C0188A198B86E060E00E943E
:100AE000B135DF91CF911F9108950F931F93CF934D
:100AF000DF93EC0186E061E00E94723582E060E005
:100B00000E94723582E061E00E94B135CE010E9400
:100B1000530586E060E00E94B13582E296E06CEE1B
:100B20000E94352C82E296E06FEF0E94352C182F40
:100B300082E296E060E00E94352C6889626082E281
:100B400096E00E94352C62E370E080E090E00E9425
:100B5000B93482E296E06CE60E94352C1F7E82E278
:100B600096E0612F0E94352C8889803419F00DE0C1
:100B700010E002C000E110E01092BD031092BC032F
:100B800017C06091BC037091BD03605F82E296E084
:100B90000E94352C82E296E069E00E94352C80911B
:100BA000BC039091BD0301969093BD038093BC0359
:100BB0008091BC039091BD038017910714F3CE017F
:100BC00061E00E947B04DF91CF911F910F91089506
:100BD0001F920F920FB60F9211242F933F934F93B2
:100BE0008F939F93EF93FF934091C600209123062C
:100BF000309124062F5F3F4F809127069091280661
:100C00002823392380912506909126062817390735
:100C100079F08091230690912406E0912906F091C5
:100C20002A06E80FF91F40833093240620932306F9
:100C3000FF91EF919F918F914F913F912F910F9045
:100C40000FBE0F901F9018951F920F920FB60F9224
:100C500011242F933F938F939F93EF93FF932091B2
:100C60002D0630912E0680912B0690912C06281788
:100C70003907E9F080912D0690912E06E09131061A
:100C8000F0913206E80FF91F80818093C6008091B1
:100C90002D0690912E06019620912F063091300658
:100CA0008223932390932E0680932D0610C02091CB
:100CB0002B0630912C0680912D0690912E06281738
:100CC000390729F48091C1008F7D8093C100FF9185
:100CD000EF919F918F913F912F910F900FBE0F90A9
:100CE0001F901895CF93DF93482FEB0180919F05BC
:100CF000833009F45FC0843028F48130D1F0823031
:100D000068F50AC0853009F4D4C0853008F4AAC05B
:100D1000863009F0F4C0EBC04C3309F0F0C081E03C
:100D200080939F054883E2E1F1E0E491E0939E0522
:100D3000E6C0842F90E0E0919E05F0E0E827F927D7
:100D4000EA52FF4FE491E0939E05887F9070809770
:100D500041F582E080939F05498329C0242F30E02C
:100D6000E0919E05F0E0E227F327EA52FF4FE4917D
:100D7000E0939E0580919D058F5F80939D05823055
:100D800018F43B832A83BBC0922F88272A813B819A
:100D9000820F931F9B838A830A978F3F910521F0CF
:100DA00018F010929F05ABC083E080939F051092CE
:100DB0009D05A5C0E42FF0E080919E0590E0E82716
:100DC000F927EA52FF4FE491E0939E0560919D055B
:100DD0006F5F60939D05623089F0633020F461306D
:100DE00009F08DC006C0633091F0643009F087C00F
:100DF00022C0842F90E0A0E0B0E018C0242F30E0A3
:100E000040E050E0542F432F322F222707C0242FD9
:100E100030E040E050E0A901332722278C819D81FA
:100E2000AE81BF81820F931FA41FB51F8C839D834A
:100E3000AE83BF8364C0242F30E040E050E0522FE7
:100E40004427332722278C819D81AE81BF81820F69
:100E5000931FA41FB51F8C839D83AE83BF836093B4
:100E60009F05A5CF242F30E0E0919E05F0E0E2271A
:100E7000F327EA52FF4FE491E0939E0560919D05B0
:100E80006F5F60939D05613019F06230C1F503C05A
:100E90003987288734C0922F882728853985280FDD
:100EA000391F398728878A819B810A97F1F085E06D
:100EB0007CCFE42FF0E080919E0590E0E827F927B1
:100EC000EA52FF4FE491E0939E0520919D052F5F2C
:100ED00020939D0530E0FB01E20FF31F41878A81DB
:100EE0009B810A972817390750F086E05ECFC75FCD
:100EF000DE4F4883C950D14087E080939F058091A1
:100F00009F05873069F410929F05C75FDE4F90916F
:100F10009E058881C950D140981711F48A8101C07B
:100F200080E0DF91CF9108958F92AF92CF92EF92B0
:100F3000FF920F931F938CE294E060E045EC50E049
:100F400024EC30E000EC10E0B1ECEB2EF12CCC24E2
:100F5000C394A8E9AA2EF0E28F2E0E948B2C89E47C
:100F600094E00E94F0031F910F91FF90EF90CF90BB
:100F7000AF908F90089560916A0470916B04809196
:100F80006C0490916D0420E030E040E152E40E9456
:100F9000DA3820E030E044EB53E40E940C370E9442
:100FA0003D390E9474379B012550304037FF03C004
:100FB0009B01215E3F4FAFEAB5E0F901E158FC4FDC
:100FC00080818C932F5F3F4F2432310514F020E055
:100FD00030E0119685E0AA3BB80779F71C92089596
:100FE0002F923F924F925F926F927F928F929F9239
:100FF000AF92BF92CF92DF92EF92FF920F931F9327
:10100000DF93CF9300D000D000D0CDB7DEB7182F3C
:10101000662E20916004309161042A35310530F04C
:10102000C9018D549F4F89359105E8F437FF02C0FF
:101030002D543F4FC90137FF03C0909581959F4FB5
:101040008A3191053CF004E4802E912CB9ED2B2ED1
:10105000312C1DC00A975CF1ABE38A2E912CF2ED86
:101060002F2E312C20C02B35310514F0235B30405E
:10107000C90137FF03C0909581959F4F8A31910533
:1010800054F0E6E58E2E912C7CED272E312C67E076
:10109000A62EB12C15C00A9754F05DE4852E912C34
:1010A00044ED242E312C38E0A32EB12C09C025E0CC
:1010B000822E912C98E3292E312C89E0A82EB12C78
:1010C0006091620470916304882777FD8095982F62
:1010D0000E94A73727EA32E94BE25CEB0E94DA383C
:1010E0000E94AE3920E030E040EA50E40E94DA3855
:1010F00020E030E040E951E40E94DA380E943D39B6
:1011000020E030E044E352E40E943F360E9474370E
:10111000712E0EEBC02E0FEFD02E9B01442737FD12
:101120004095542F29833A834B835C8319E4412EE5
:1011300014E0512E4AEF5FEF240E351E60916004DB
:1011400070916104882777FD8095982F0E94A737BA
:1011500025E33AEF4EE85CE30E94DA380E94AE39AC
:101160007B018C01B601882777FD8095982F0E941E
:10117000A7379B01AC01C801B7010E94DA387B0197
:101180008C0169817A818B819C810E94A7379B01A8
:10119000AC01C801B7010E943F360E9474379B0121
:1011A000CB0101978A35910508F071C062E170E0CA
:1011B0000E941F3A8B012F5F3F4FAEEEBFEF6A9F39
:1011C000C0016B9F900D7A9F900D1124820F931F89
:1011D00062E070E00E941F3A6D837E83E62CE01A85
:1011E0004E2D4C5F89E494E0672D0E94110500D0DC
:1011F00000D000D0EDB7FEB73196ADB7BEB71296AE
:101200005C924E92119720E031E0338322838D81EE
:101210009E81880D991D958384830E946A2C4DB709
:101220005EB74A5F5F4F0FB6F8945EBF0FBE4DBF0B
:101230008D819E818A159B0554F1043011053CF582
:1012400093E0E90EC201672D4E2D0E94110500D0DA
:1012500000D000D0EDB7FEB73196ADB7BEB712964D
:101260005C924E92119720E031E0338322834D81CE
:101270005E81420D531D558344830E946A2C8DB7B5
:101280009EB706960FB6F8949EBF0FBE8DBFACE01A
:10129000B0E0CA0EDB1E7394BEE4CB16D10409F095
:1012A0004DCF26960FB6F894DEBF0FBECDBFCF91BF
:1012B000DF911F910F91FF90EF90DF90CF90BF9043
:1012C000AF909F908F907F906F905F904F903F90E6
:1012D0002F900895CF92DF92EF92FF920F931F937A
:1012E000823010F402E002C0082F000F6091A005C8
:1012F0007091A1058091A2059091A3050E94A73746
:101300006B017C0120E030E44CE156E40E9405379B
:10131000202F30E049E454E0882334F58DB79EB7A0
:101320000E970FB6F8949EBF0FBE8DBFEDB7FEB7F8
:101330003196ADB7BEB712965C934E93119783E08A
:1013400091E09383828322573F4F358324832F5F1D
:101350003F4F37832683C086D186E286F3868DE8A9
:1013600090E09587848734C08DB79EB70E970FB6EF
:10137000F8949EBF0FBE8DBF0DB71EB70F5F1F4FF6
:10138000ADB7BEB712965C934E9311978FE091E084
:10139000F8019383828322573F4F358324832F5F45
:1013A0003F4F37832683C701B60120E030E04AE78C
:1013B00054E40E940C37D80118966D937D938D9359
:1013C0009C931B978DEF90E01D969C938E931C979A
:1013D0000E946A2CEDB7FEB73E960FB6F894FEBF9A
:1013E0000FBEEDBF1F910F91FF90EF90DF90CF9058
:1013F0000895CF93DF93AC01E0917304F0917404EE
:101400002091A4053091A505C9018C599F4F8E17D5
:101410009F071CF4EA01219609C024563040E217C8
:10142000F30714F0EA0102C0EA012197842F90E04B
:10143000C817D90729F084E396E04C2F0E94223385
:10144000CE01DF91CF910895CF92DF92EF92FF927C
:101450000F931F93CF93DF937C016B01EA0100D0C0
:1014600000D009E414E0EDB7FEB7128301838FEDDD
:1014700091E0948383830E94592C0F900F900F90DA
:101480000F90CA30D10581F0C436D10521F0C130AA
:10149000D10519F512C000D000D0EDB7FEB7128308
:1014A00001838DED91E011C000D000D0EDB7FEB703
:1014B000128301838AED91E008C000D000D0EDB71F
:1014C000FEB71283018386ED91E0948383830E94AB
:1014D000592C0F900F900F900F90409173045091E2
:1014E00074042091A4053091A505C9018C599F4F22
:1014F000841795071CF4CE0DDF1D0BC02456304019
:101500004217530714F0E70116C0C7018C1B9D0B4F
:10151000EC01CE15DF0579F084E396E0B6014C2F9F
:101520000E9422330894C11CD11C84E396E0B601CA
:101530004D2F0E942233CE01DF91CF911F910F9149
:10154000FF90EF90DF90CF900895CF92DF92EF92CF
:10155000FF920F931F937C01D62EC72E09E414E04F
:10156000C8016E2D4D2D0E94EC0400D000D0EDB7C7
:10157000FEB71283018383E392E0948383830E9406
:10158000592CEDB7FEB71283018383E292E0948376
:1015900083830E94592CEDB7FEB71283018383E148
:1015A00092E0948383830E94592CEDB7FEB7128397
:1015B000018383E092E0948383830E94592CEDB7EA
:1015C000FEB71283018384EF91E0948383830E94AA
:1015D000592C0F900F900F900F90C8010E94A004FB
:1015E000C70101966D2D7C2D0E94F0071F910F9170
:1015F000FF90EF90DF90CF9008950F931F93282FC7
:10160000462F09E414E0C801622F0E94EC042091E7
:10161000A6053091A7058DB79EB70C970FB6F89425
:101620009EBF0FBE8DBFEDB7FEB73196ADB7BEB74B
:1016300012961C930E9311978BE191E09383828312
:1016400083EB90E095838483C9016CE370E00E9492
:101650001F3ACB016CE370E00E941F3A97838683A8
:101660008AE390E091878087C9016CE370E00E9473
:101670001F3A938782870E946A2C8DB79EB70C967B
:101680000FB6F8949EBF0FBE8DBFC8010E94A00484
:101690001F910F9108950F931F93282F462F09E450
:1016A00014E0C801622F0E94EC0400D000D0EDB716
:1016B000FEB71283018387E291E0948383830E94C3
:1016C0006A2C0F900F900F900F90C8010E94A004F9
:1016D0001F910F9108950F931F93282F462F09E410
:1016E00014E0C801622F0E94EC048DB79EB70C97DE
:1016F0000FB6F8949EBF0FBE8DBFEDB7FEB7319603
:10170000ADB7BEB712961C930E9311978FE291E07E
:101710009383828387EB90E0958384838091540345
:1017200090915503A0915603B091570386839783F8
:10173000A087B18785E290E0938782870E946A2C18
:101740008DB79EB70C960FB6F8949EBF0FBE8DBF97
:10175000C8010E94A0041F910F910895EF92FF927B
:101760000F931F93282F462F89E4E82E84E0F82E4C
:10177000C701622F0E94EC048DB79EB70C970FB67D
:10178000F8949EBF0FBE8DBF0DB71EB70F5F1F4FE2
:10179000EDB7FEB7F282E18289E391E0F80193832D
:1017A000828384EE90E0958384836091A805709194
:1017B000A905882777FD8095982F0E94A7372AE0F2
:1017C00037ED43E25CE30E94DA38F8016683778301
:1017D000808791878FE890E0938782870E946A2CA8
:1017E0008DB79EB70C960FB6F8949EBF0FBE8DBFF7
:1017F000C7010E94A0041F910F91FF90EF900895E0
:10180000CF92DF92EF92FF920F931F93CF93DF93CC
:10181000282F462F89E494E0622F0E94EC04C090A8
:10182000AA05D090AB05E090AC05F090AD05C09155
:101830005903D0915A03809158032091AE05829F9D
:10184000C0011124805D9E4F8C9FB0018D9F700D53
:101850009C9F700D1124882777FD8095982F0E94FA
:10186000A73720E030E048EC52E40E940C379B019F
:10187000AC01C701B6010E940537181614F428EB15
:1018800001C024EB8DB79EB740970FB6F8949EBF6A
:101890000FBE8DBFEDB7FEB7319609E414E0ADB7CA
:1018A000BEB712961C930E93119783E491E0938335
:1018B0008283D583C48380E890E097838683822FD8
:1018C000992787FD909591878087C286D386E48685
:1018D000F5868EE890E0978786870E946A2C8DB700
:1018E0009EB740960FB6F8949EBF0FBE8DBFC8013D
:1018F0000E94A004DF91CF911F910F91FF90EF9074
:10190000DF90CF9008950F931F93282F462F89E4DF
:1019100094E0622F0E94EC0480917004882319F4F3
:1019200021E531E057C0813019F425E531E052C09E
:10193000823019F429E531E04DC0833019F42DE5EA
:1019400031E048C0843019F421E631E043C08530ED
:1019500019F425E631E03EC0863019F429E631E07D
:1019600039C0873019F42DE631E034C0883019F4DD
:1019700021E731E02FC0893019F425E731E02AC092
:101980008A3019F429E731E025C08B3019F42DE7AE
:1019900031E020C08C3019F421E831E01BC08D30DB
:1019A00019F425E831E016C08E3019F429E831E049
:1019B00011C08F3019F42DE831E00CC0803119F4DA
:1019C00021E931E007C0813119F025E931E002C099
:1019D00026E931E08150863030F480916F0488230D
:1019E00011F044E001C040EE8DB79EB708970FB6E6
:1019F000F8949EBF0FBE8DBFEDB7FEB7319609E4D8
:101A000014E0ADB7BEB712961C930E9311978AE9F6
:101A100091E093838283842F992787FD9095958306
:101A20008483378326830E946A2C8DB79EB70896DD
:101A30000FB6F8949EBF0FBE8DBFC8010E94A004D0
:101A40001F910F9108950F931F93282F462F09E49C
:101A500014E0C801622F0E94EC048DB79EB70A976C
:101A60000FB6F8949EBF0FBE8DBFEDB7FEB731968F
:101A7000ADB7BEB712961C930E9311978FE991E004
:101A80009383828387E890E09583848380917104B7
:101A9000909172049783868385E290E09187808796
:101AA0000E946A2C8DB79EB70A960FB6F8949EBF17
:101AB0000FBE8DBFC8010E94A0041F910F91089511
:101AC0000F931F93282F462F09E414E0C801622FBB
:101AD0000E94EC048DB79EB708970FB6F8949EBF8E
:101AE0000FBE8DBFEDB7FEB73196ADB7BEB712963C
:101AF0001C930E93119789EA91E0938382838091DE
:101B00006204909163049583848381EB90E09783D2
:101B100086830E946A2C8DB79EB708960FB6F894FC
:101B20009EBF0FBE8DBFC8010E94A0041F910F91E0
:101B300008950F931F93282F462F09E414E0C8013E
:101B4000622F0E94EC048DB79EB708970FB6F894E9
:101B50009EBF0FBE8DBFEDB7FEB73196ADB7BEB716
:101B600012961C930E93119789EA91E093838283D6
:101B700080916004909161049583848382EB90E06E
:101B8000978386830E946A2C8DB79EB708960FB6FE
:101B9000F8949EBF0FBE8DBFC8010E94A0041F9184
:101BA0000F9108950F931F93282F462F09E414E0F7
:101BB000C801622F0E94EC048DB79EB70A970FB63A
:101BC000F8949EBF0FBE8DBFEDB7FEB73196ADB78F
:101BD000BEB712961C930E9311978FEA91E09383F0
:101BE000828381EE90E095838483809153039927CB
:101BF00087FD9095978386838CE890E09187808716
:101C00000E946A2C8DB79EB70A960FB6F8949EBFB5
:101C10000FBE8DBFC8010E94A0041F910F910895AF
:101C20000F931F93282F462F09E414E0C801622F59
:101C30000E94EC048DB79EB742970FB6F8949EBFF2
:101C40000FBE8DBFEDB7FEB73196ADB7BEB71296DA
:101C50001C930E93119787EB91E09383828388EC1A
:101C600091E09583848380916A0490916B04A091A4
:101C70006C04B0916D0486839783A087B18780EB55
:101C800090E09387828780ED90E0958784878FEA44
:101C900095E09787868781ED90E0918B808B0E94FD
:101CA0006A2C8DB79EB742960FB6F8949EBF0FBEB2
:101CB0008DBFC8010E94A0041F910F910895EF925B
:101CC000FF920F931F93CF93DF93282F462F89E422
:101CD00094E0622F0E94EC04E0908504F09086046A
:101CE0000091870410918804C801B70120E030E01A
:101CF00040E050E00E94CF38181614F42BE701C0E2
:101D00002DE78DB79EB70C970FB6F8949EBF0FBE08
:101D10008DBFCDB7DEB7219689E494E0EDB7FEB76D
:101D20009283818382ED91E09B838A832C831D8241
:101D3000C801B70120E030E040E752E40E94DA3801
:101D40000E9474379B0177FF03C0309521953F4F68
:101D5000B901882777FD8095982F0E94A7376E8359
:101D60007F83888799878FE790E09B878A870E9487
:101D70006A2C8DB79EB70C960FB6F8949EBF0FBE17
:101D80008DBF89E494E00E94A004DF91CF911F9160
:101D90000F91FF90EF900895CF92DF92EF92FF9214
:101DA0000F931F93CF93DF93282F462FC9E4D4E0DE
:101DB000CE01622F0E94EC04C090BB05D090BC0500
:101DC000E090BD05F090BE05C701B6010E947437D2
:101DD000695E7340804090408CF18DB79EB70C9740
:101DE0000FB6F8949EBF0FBE8DBF0DB71EB70F5F25
:101DF0001F4FADB7BEB71296DC93CE93119789E310
:101E000091E0F801938382838EEF90E09583848341
:101E1000C701B60120E030E04AE754E40E940C37E5
:101E2000D80116966D937D938D939C9319978DEFA2
:101E300090E01B969C938E931A9721C08DB79EB706
:101E40000C970FB6F8949EBF0FBE8DBFEDB7FEB7CF
:101E50003196ADB7BEB71296DC93CE9311978CED49
:101E600091E0938382838EEF90E095838483C68292
:101E7000D782E086F1868DE890E0938782870E9482
:101E80006A2CEDB7FEB73C960FB6F894FEBF0FBEB6
:101E9000EDBF89E494E00E94A004DF91CF911F91EF
:101EA0000F91FF90EF90DF90CF900895CF92DF9247
:101EB000EF92FF920F931F93282F462F39E4C32EE2
:101EC00034E0D32EC601622F0E94EC048DB79EB77A
:101ED00044970FB6F8949EBF0FBE8DBF0DB71EB7C7
:101EE0000F5F1F4FEDB7FEB7D282C18286EE91E041
:101EF000F8019383828388EE90E0958384836091D8
:101F0000BF057091C0058091C1059091C20526E67C
:101F100036E646E650E40E94DA38F80166837783B5
:101F20008087918791E8E92EF12CF386E28689E893
:101F300090E09587848760918E0470918F048091E2
:101F400090049091910426E636E646E650E40E941D
:101F5000DA38F80166877787808B918BF38AE28A7B
:101F60000E946A2C8DB79EB744960FB6F8949EBF18
:101F70000FBE8DBFC6010E94A0041F910F91FF905C
:101F8000EF90DF90CF900895EF92FF920F931F9301
:101F9000282F462F59E4E52E54E0F52EC701622F75
:101FA0000E94EC048DB79EB70C970FB6F8949EBFB5
:101FB0000FBE8DBF0DB71EB70F5F1F4FEDB7FEB73A
:101FC000F282E1828AEF91E0F8019383828389EEC5
:101FD00090E0958384836091810470918204809164
:101FE00083049091840426E636E646E650E40E9497
:101FF000DA38F801668377838087918781E890E0FB
:10200000938782870E946A2C8DB79EB70C960FB675
:10201000F8949EBF0FBE8DBFC7010E94A0041F9100
:102020000F91FF90EF9008950F931F93282F462F45
:1020300009E414E0C801622F0E94EC048DB79EB73A
:102040000C970FB6F8949EBF0FBE8DBFEDB7FEB7CD
:102050003196ADB7BEB712961C930E9311978CEDC7
:1020600091E09383828385E890E0958384838091D7
:102070007D0490917E04A0917F04B09180048683BA
:102080009783A087B1878DE890E0938782870E942D
:102090006A2C8DB79EB70C960FB6F8949EBF0FBEF4
:1020A0008DBFC8010E94A0041F910F910895EF9267
:1020B000FF920F931F93282F462F8091C3058823EB
:1020C00009F44EC080917C04823008F449C069E470
:1020D000E62E64E0F62EC701622F0E94EC048DB755
:1020E0009EB70C970FB6F8949EBF0FBE8DBF0DB76D
:1020F0001EB70F5F1F4FEDB7FEB7F282E18282ED90
:1021000091E0F8019383828387EE90E09583848346
:1021100060917D0470917E0480917F049091800491
:102120002091C4053091C5054091C6055091C70561
:102130000E943E36F80166837783808791878DE819
:1021400090E0938782870E946A2C8DB79EB70C9689
:102150000FB6F8949EBF0FBE8DBFC7010E94A004AA
:102160001F910F91FF90EF9008950F931F93282FC9
:10217000462F09E414E0C801622F0E94EC0480910C
:10218000C8050E946A09C8010E94A0041F910F910E
:102190000895CF92DF92EF92FF920F931F93CF9308
:1021A000DF93282F462FC9E4D4E0CE01622F0E948E
:1021B000EC046091C9057091CA058091CB0590919E
:1021C000CC050E94A7376B017C0120E030E44CE194
:1021D00056E40E940537882314F58DB79EB70C97F7
:1021E0000FB6F8949EBF0FBE8DBFEDB7FEB7319608
:1021F000ADB7BEB71296DC93CE93119782ED91E006
:102200009383828382E190E095838483C682D78220
:10221000E086F1868DE890E09387828730C08DB7A5
:102220009EB70C970FB6F8949EBF0FBE8DBF0DB72B
:102230001EB70F5F1F4FADB7BEB71296DC93CE939C
:10224000119784E092E0F8019383828382E190E029
:1022500095838483C701B60120E030E04AE754E467
:102260000E940C37D80116966D937D938D939C93A5
:1022700019978DEF90E01B969C938E931A970E946E
:102280006A2CEDB7FEB73C960FB6F894FEBF0FBEB2
:10229000EDBF89E494E00E94A004DF91CF911F91EB
:1022A0000F91FF90EF90DF90CF900895EF92FF9203
:1022B0000F931F93282F462F89E494E0622F0E94EA
:1022C000EC042091CD053091CE0537FF02C04AE8DD
:1022D00001C047EF8DB79EB744970FB6F8949EBFE5
:1022E0000FBE8DBF0DB71EB70F5F1F4F79E4E72EEE
:1022F00074E0F72EEDB7FEB7F282E1828EE092E055
:10230000F80193838283842F992787FD9095958385
:102310008483B901882777FD8095982F0E94A7377D
:10232000F80166837783808791878DE890E09387B3
:1023300082878BEF90E0958784878091CF0590917D
:10234000D005A091D105B091D20586879787A08B43
:10235000B18B8CEF90E0938B828B0E946A2C8DB7AF
:102360009EB744960FB6F8949EBF0FBE8DBFC701AF
:102370000E94A0041F910F91FF90EF9008950F937A
:102380001F93282F462F09E414E0C801622F0E94F2
:10239000EC048DB79EB70C970FB6F8949EBF0FBE96
:1023A0008DBFEDB7FEB73196ADB7BEB712961C9391
:1023B0000E93119782E292E0938382838091660468
:1023C00090916704A0916804B09169048483958317
:1023D000A683B7838091770490917804A0917904C3
:1023E000B0917A0480879187A287B3870E946A2C74
:1023F0008DB79EB70C960FB6F8949EBF0FBE8DBFDB
:10240000C8010E94A0041F910F9108950F931F937C
:10241000282F462F89E494E0622F0E94EC048091DB
:102420007C04282F30E0823030F4E4E0220F331FA8
:10243000EA95E1F702C02150304000D000D000D032
:10244000EDB7FEB7319609E414E0ADB7BEB712960A
:102450001C930E93119780E091E0938382833583E0
:1024600024830E946A2C8DB79EB706960FB6F89407
:102470009EBF0FBE8DBFC8010E94A0041F910F9187
:1024800008950F931F93282F462F09E414E0C801E5
:10249000622F0E94EC048DB79EB708970FB6F89490
:1024A0009EBF0FBE8DBFEDB7FEB73196ADB7BEB7BD
:1024B00012961C930E9311978EE292E0938382837F
:1024C0008FE090E09583848380917B0486831782DC
:1024D0000E946A2C8DB79EB708960FB6F8949EBFDF
:1024E0000FBE8DBFC8010E94A0041F910F910895D7
:1024F0000F931F93282F462F09E414E0C801622F81
:102500000E94EC0400D000D0EDB7FEB71283018327
:1025100083E492E0948383830E94592C0F900F9060
:102520000F900F90C8010E94A0041F910F91089571
:10253000EF92FF920F931F93CF93DF930E94AB34E0
:102540002091DC053091DD054091DE055091DF05DD
:10255000261737074807590708F043C30E94AB34D2
:102560006C507E4F8F4F9F4F6093DC057093DD055D
:102570008093DE059093DF0509E414E0C8010E9412
:102580003605C80165E043E00E94EC0400D000D0AD
:10259000ADB7BEB712961C930E93119786EF92E0DB
:1025A00014969C938E9313970E94592C0F900F9022
:1025B0000F900F908091A4059091A505892B31F083
:1025C0008091D3059091D405892B81F48091730477
:1025D000909174049093A5058093A405809175044F
:1025E000909176049093D4058093D305209175043F
:1025F000309176044091D3055091D405C901845699
:1026000090404817590724F48091DB058F5F08C07C
:102610002C593F4F241735072CF48091DB0581504E
:102620008093DB058091DB05181614F081E003C070
:102630008E301CF08DE08093DB050091DB050730C8
:1026400009F451C1083084F4033009F497C0043010
:1026500034F4013089F1023009F0BFC22AC00530DC
:10266000E1F006301CF5E4C00A3009F4AFC10B30CC
:1026700034F4083079F0093009F0AFC214C00C30DE
:1026800079F00C3024F00D3009F0A7C223C2C4E663
:10269000D0E027C2C4E6D0E0A0C1C4E6D0E02AC1A1
:1026A00084E690E019C284E690E092C184E690E06E
:1026B0001CC1C4E6D0E064C000D000D0C9E4D4E0BE
:1026C000EDB7FEB7D283C1838AEE92E09483838311
:1026D0000E94592C0F900F900F900F9080915803EB
:1026E000882321F100D000D0ADB7BEB71296DC939D
:1026F000CE93119781EE92E014969C938E9313974C
:102700000E94592C8091A4059091A5058456904073
:102710000F900F900F900F902091730430917404DC
:102720002817390714F5109258031FC000D000D0A5
:10273000EDB7FEB7D283C18388ED92E094838383A3
:102740000E94592C8091A4059091A5058C599F4F0A
:102750000F900F900F900F9020917304309174049C
:102760008217930714F40093580384E396E06CEF08
:1027700073E0409158030E9422332FC2CAE0D0E098
:1027800000D000D019E4E12E14E0F12EADB7BEB7B1
:102790001296FC92EE92119789EC92E014969C931B
:1027A0008E9313970E94592CEDB7FEB738970FB64A
:1027B000F894FEBF0FBEEDBF0DB71EB70F5F1F4FE2
:1027C000F282E18284E392E0D80113969C938E9387
:1027D000129760915B0370915C03882777FD809569
:1027E000982F0E94A737F8016483758386839783A7
:1027F00082E890E09187808780E290E093878287EB
:102800000E946A2C8DB79EB70C960FB6F8949EBFA7
:102810000FBE8DBF80915B0390915C036DEF73E001
:10282000AE010E94240A90935C0380935B03D5C1A0
:1028300000D000D0B9E4EB2EB4E0FB2EADB7BEB7AC
:102840001296FC92EE92119789EA92E014969C936C
:102850008E9313970E94592CEDB7FEB738970FB699
:10286000F894FEBF0FBEEDBF0DB71EB70F5F1F4F31
:10287000F282E1828CE392E0D80113969C938E93CE
:1028800012976091AE0570E0645D7E4F882777FDFA
:102890008095982F0E94A73720E030E048EC52E462
:1028A0000E940C37F801648375838683978386E7DB
:1028B00090E09187808780E290E0938782870E94F2
:1028C0006A2C8DB79EB70C960FB6F8949EBF0FBEBC
:1028D0008DBF8091AE0590E060E873E00E94F90939
:1028E0008093AE057AC18AE090E06AE070E00E94D1
:1028F0001F3AEB0100D000D009E414E0ADB7BEB739
:1029000012961C930E9311978EE892E014969C9366
:102910008E9313970E94592CEDB7FEB738970FB6D8
:10292000F894FEBF0FBEEDBF3196ADB7BEB712969D
:102930001C930E93119789E391E09383828382EE37
:1029400090E0958384838091AA059091AB05A09136
:10295000AC05B091AD0586839783A087B1878EE8DB
:1029600090E0938782870E946A2CEDB7FEB7369677
:102970000FB6F894FEBF0FBEEDBF3196ADB7BEB730
:1029800012961C930E93119784E492E093838283B2
:102990008091D5059091D605958384830E946A2CF9
:1029A000EDB7FEB736960FB6F894FEBF0FBEEDBF7B
:1029B0008091D5059091D60564EF73E0AE010E9439
:1029C000240A9093D6058093D50507C18AE090E04C
:1029D0006AE070E00E941F3AEB0100D000D0A9E449
:1029E000EA2EA4E0FA2EADB7BEB71296FC92EE9294
:1029F000119783E792E014969C938E9313970E940D
:102A0000592CEDB7FEB738970FB6F894FEBF0FBE3E
:102A1000EDBF0DB71EB70F5F1F4FF282E18289E352
:102A200091E0D80113969C938E93129784EE90E0D8
:102A300015969C938E9314976091A8057091A905A3
:102A4000882777FD8095982F0E94A7372AE037EDD9
:102A500043E25CE30E94DA38F8016683778380877B
:102A600091878FE890E0938782870E946A2C8DB7C8
:102A70009EB706960FB6F8949EBF0FBE8DBFEDB7FA
:102A8000FEB73196ADB7BEB71296FC92EE92119793
:102A90008BE592E0938382838091D7059091D8054E
:102AA000958384830E946A2CEDB7FEB736960FB6E5
:102AB000F894FEBF0FBEEDBF8091D7059091D80569
:102AC00068EF73E0AE010E94240A9093D8058093CA
:102AD000D70583C08AE090E06AE070E00E941F3A68
:102AE000EB0100D000D0F9E4EF2EF4E0FF2EADB7FB
:102AF000BEB71296FC92EE92119788E592E014967A
:102B00009C938E9313970E94592CEDB7FEB738977C
:102B10000FB6F894FEBF0FBEEDBF0DB71EB70F5F27
:102B20001F4FF282E18289E391E0D80113969C93D2
:102B30008E93129784EE90E015969C938E93149743
:102B40006091A8057091A905882777FD8095982F39
:102B50000E94A7372AE037ED43E25CE30E94DA38AF
:102B6000F80166837783808791878FE890E0938769
:102B700082870E946A2C8DB79EB706960FB6F8948E
:102B80009EBF0FBE8DBFEDB7FEB73196ADB7BEB7D6
:102B90001296FC92EE92119782E792E093838283E1
:102BA0008091D9059091DA05958384830E946A2CDF
:102BB000EDB7FEB736960FB6F894FEBF0FBEEDBF69
:102BC0008091D9059091DA0566EF73E0AE010E941D
:102BD000240A9093DA058093D90589E494E00E9451
:102BE000A004DF91CF911F910F91FF90EF90089576
:102BF0002F923F924F925F926F927F928F929F920D
:102C0000AF92BF92CF92DF92EF92FF920F931F93FA
:102C1000DF93CF93CDB7DEB72E970FB6F894DEBF14
:102C20000FBECDBF8B876C870E94AB342091E0052F
:102C30003091E1054091E2055091E30526173707F1
:102C40004807590708F006C28091E4058823C9F0B7
:102C500080935D031092E40589E892E09093F20579
:102C60008093F1050E94AB34625A7E4F8F4F9F4F85
:102C70006093E0057093E1058093E2059093E3058E
:102C8000A1C180915D03282E332490906E04209181
:102C900089042A8730918A04398780908B04409177
:102CA0008C04488750918D045F83E090E505F09097
:102CB000E6058091F1059091F2059E878D879091B0
:102CC0005B049983A0917C04AE83B091C305BD835E
:102CD0004090AA055090AB056090AC057090AD0592
:102CE000809158032091AE05829FC0011124845D1C
:102CF0009E4F2091590330915A03FC01E29FC0017D
:102D0000E39F900DF29F900D1124F0915303FC83EB
:102D10002091CD053091CE053B832A8381015C0152
:102D2000CC24B7FCC094DC2C0F5F1F4F0930110579
:102D30001CF001E010E021C00430110509F460C06E
:102D4000053011056CF40230110509F441C003305F
:102D500011050CF047C00130110509F0B6C00DC0D7
:102D60000630110509F472C0063011050CF461C07B
:102D70000830110509F0A9C099C031E03915F0F00B
:102D8000931619F446E952E01FC05A85513089F470
:102D90008985813071F491E0891659F4A885A130B4
:102DA00041F4BF81B13029F4E3EAF2E0FE87ED8718
:102DB00091C020EB32E03E872D8708C03985313045
:102DC00009F483C04DEB52E05E874D8781E082C0FD
:102DD0005981533009F479C08AEC92E09E878D873F
:102DE00082E078C09E81923008F06FC0AD81AA2346
:102DF00009F46BC0E7EDF2E0FE87ED8783E06AC07F
:102E0000C601B5010E94A73720E030E048EC52E44B
:102E10000E940C379B01AC01C301B2010E9405372F
:102E200088230CF052C024EE32E03E872D8784E0E8
:102E300051C031E0E316F10409F047C041EF52E020
:102E40005E874D87EE24FF2485E044C051E058158D
:102E500098F482E0881639F4591570F0AEEFB2E0BC
:102E6000BE87AD8707C0B3E08B1631F4EBE0F3E02B
:102E7000FE87ED8786E001C080E0FF81F23028F018
:102E800028E133E03E872D8786E03885323028F010
:102E900045E253E05E874D8786E05C81593B9CF4B8
:102EA00082E393E09E878D8786E014C091E09915B8
:102EB00060F4AA81BB81B7FF08C0EFE3F3E0FE87AF
:102EC000ED8788E007C0882329F40215130509F06F
:102ED0002BCFA3C0F092E605E092E5052D853E8557
:102EE0003093F2052093F1058093E40581E080930F
:102EF000E7050E94AB3464547D4F8F4F9F4F609322
:102F0000E0057093E1058093E2059093E3050E944C
:102F1000AB346854744F8F4F9F4F6093ED0570939F
:102F2000EE058093EF059093F0058091E805909170
:102F3000E905A091EA05B091EB050097A105B1055F
:102F400071F40E94AB346059784E8F4F9F4F60935D
:102F5000E8057093E9058093EA059093EB0580916D
:102F6000EC05882379F40E94AB342091E805309178
:102F7000E9054091EA055091EB0526173707480708
:102F8000590720F089E494E00E9436050E94AB3492
:102F90002091E8053091E9054091EA055091EB0553
:102FA000261737074807590768F01092EC050AC042
:102FB0001092E7051092E8051092E9051092EA05D3
:102FC0001092EB0509E414E0C8016B854C850E9462
:102FD000EC0400D000D000D0EDB7FEB73196ADB70D
:102FE000BEB712961C930E9311978CE493E09383D3
:102FF00082838091F1059091F205958384830E94EC
:103000006A2CEDB7FEB736960FB6F894FEBF0FBE2A
:10301000EDBFC8010E94A0041DC0F092E605E09239
:10302000E5052D853E853093F2052093F10510923C
:10303000E4050E94AB342091ED053091EE054091FE
:10304000EF055091F005261737074807590708F490
:10305000AFCFB8CF2E960FB6F894DEBF0FBECDBF60
:10306000CF91DF911F910F91FF90EF90DF90CF9064
:10307000BF90AF909F908F907F906F905F904F9098
:103080003F902F90089520914F0330915003C90134
:10309000895097408F5A9440D0F580916E048823D0
:1030A00021F481E08093F3052EC08091F3058823FD
:1030B00051F58091E705882311F10E94AB342091EE
:1030C000E8053091E9054091EA055091EB05261796
:1030D000370748075907B8F40E94AB342091E00540
:1030E0003091E1054091E2055091E305261737073D
:1030F0004807590740F48091E405882321F489E4C6
:1031000094E00E94360582E08093EC05089584E007
:10311000203B380768F48091EC05882349F0109231
:10312000F30589E494E00E9436051092EC050895B9
:10313000205B34402955324000F58091EC05813008
:10314000E1F08091E705882379F00E94AB3420916B
:10315000E8053091E9054091EA055091EB05261705
:1031600037074807590748F41092F30589E494E0BB
:103170000E94360581E08093EC050895EF92FF925E
:103180000F931F938091F305882309F04EC080911F
:103190006E04823008F049C08091C305813009F087
:1031A00044C0809173049091740489509740ECF16D
:1031B0008091750490917604805B9440B4F5809181
:1031C000660490916704A0916804B09169048093AB
:1031D000F4059093F505A093F605B093F70580915B
:1031E000770490917804A0917904B0917A04809347
:1031F000F8059093F905A093FA05B093FB0580912B
:103200007D0490917E04A0917F04B091800480930E
:10321000C4059093C505A093C605B093C70581E08A
:1032200090E09093E6058093E5058091FC059091F0
:10323000FD05A091FE05B091FF050097A105B10520
:10324000E1F58091710490917204CD97B0F1809175
:103250006E04823090F10E94AB346093FC05709351
:10326000FD058093FE059093FF05109201061092D4
:1032700000068091020690910306909305068093C4
:1032800004068091540390915503A0915603B09188
:10329000570380935E0390935F03A0936003B09302
:1032A000610380E090E0A0E0B0E08093BB059093E4
:1032B000BC05A093BD05B093BE058091FC0590911F
:1032C000FD05A091FE05B091FF050097A105B10590
:1032D00009F458C080916E04823038F10E94AB34FA
:1032E0002091FC053091FD054091FE055091FF05B0
:1032F000621B730B840B950B28EE33E040E050E02B
:103300000E94323A3093A7052093A60580910206C9
:10331000909103062091040630910506821B930BC1
:1033200090930106809300064DC00E94AB347B0150
:103330008C016091A6057091A705882777FD80957F
:10334000982F28E13CEF4FEF5FEF0E94003AE60E26
:10335000F71E081F191FE092FC05F092FD0500936F
:10336000FE051093FF0580910206909103062091BF
:10337000000630910106821B930B90930506809303
:10338000040620C00E94AB3428EE33E040E050E059
:103390000E94323A3093A7052093A60510920106A9
:1033A000109200068091540390915503A09156030A
:1033B000B091570380935E0390935F03A0936003E3
:1033C000B09361030E9443188091F305882319F09C
:1033D0000E94981240C28091C40380FF08C060918F
:1033E0001A048091180490E070E00E94F815809112
:1033F000EC058230A8F08091E705882309F42BC200
:103400000E94AB342091E8053091E9054091EA052E
:103410005091EB05261737074807590708F41BC2D8
:103420008091EC0580930606823011F41092EC0531
:103430008091EC05A82FB0E0FD01E254FC4F8081A3
:1034400085FF0BC0FD01EA52FC4F6081AC52BC4FBE
:103450008C9190E070E00E9441128091EC05A82FC1
:10346000B0E0FD01E254FC4F808186FF0BC0FD01FE
:10347000E652FC4F6081A852BC4F8C9190E070E006
:103480000E9406128091C305882309F454C08091DC
:10349000EC05A82FB0E0FD01E254FC4F808187FFCE
:1034A0000BC0FD01E252FC4F6081A452BC4F8C91D5
:1034B00090E070E00E94BF118091EC05A82FB0E071
:1034C000FD01E054FC4F808184FF0BC0FD01E251FF
:1034D000FC4F6081A451BC4F8C9190E070E00E9441
:1034E000C9108091EC05A82FB0E0FD01E054FC4F1D
:1034F000808183FF0BC0FD01E651FC4F6081A85124
:10350000BC4F8C9190E070E00E94B5108091EC056A
:10351000A82FB0E0FD01E054FC4F808186FF0BC076
:10352000FD01EE50FC4F6081A051BC4F8C9190E0AA
:1035300070E00E9456118091EC05A82FB0E0FD01CB
:10354000EE53FC4F808181FF0BC0FD01E65FFB4F16
:103550006081A85FBB4F8C9190E070E00E94560F95
:103560008091C305882309F46EC080917C04823069
:1035700008F469C08091EC05A82FB0E0FD01EE537E
:10358000FC4F808187FF0BC0FD01EE5FFB4F608128
:10359000A050BC4F8C9190E070E00E945710809139
:1035A000EC05A82FB0E0FD01EC53FC4F808183FFB8
:1035B0000BC0FD01E25EFB4F6081A45EBB4F8C91AE
:1035C00090E070E00E945F0E8091EC05A82FB0E0C3
:1035D000FD01EA53FC4F808182FF0BC0FD01EA5DD3
:1035E000FB4F6081AC5DBB4F8C9190E070E00E941E
:1035F000CC0E8091EC05A82FB0E0FD01EE53FC4FFE
:10360000808182FF0BC0FD01E250FC4F6081A4501D
:10361000BC4F8C9190E070E00E9414108091EC05FA
:10362000A82FB0E0FD01EE53FC4F808183FF0BC05B
:10363000FD01EA5FFB4F6081AC5FBB4F8C9190E076
:1036400070E00E94C40F8091C3058823C9F0809167
:103650007C048230A8F08091EC05A82FB0E0FD0139
:10366000E054FC4F808180FF0BC0FD01EA51FC4F0C
:103670006081AC51BC4F8C9190E070E00E94100EC4
:103680008091EC05A82FB0E0FD01EC53FC4F808148
:1036900086FF0BC0FD01EE5DFB4F6081A05EBB4F5E
:1036A0008C9190E070E00E94D20D8091EC05A82FE3
:1036B000B0E0FD01E254FC4F808182FF0BC0FD01B0
:1036C000E253FC4F6081A453BC4F8C9190E070E0BA
:1036D0000E94990D8091EC05A82FB0E0FD01E25405
:1036E000FC4F808181FF0BC0FD01E653FC4F6081E0
:1036F000A853BC4F8C9190E070E00E94600D8091C7
:10370000EC05A82FB0E0FD01EE53FC4F808184FF53
:103710000BC0FD01E25FFB4F6081A45FBB4F8C914A
:1037200090E070E00E94230D8091EC05A82FB0E09E
:10373000FD01EE53FC4F808185FF0BC0FD01EE5E65
:10374000FB4F6081A05FBB4F8C9190E070E00E94C6
:10375000830C8091EC05A82FB0E0FD01E254FC4FF2
:10376000808183FF0BC0FD01EE52FC4F6081A053AE
:10377000BC4F8C9190E070E00E94000C8091EC05B1
:10378000A82FB0E0FD01EE53FC4F808180FF0BC0FD
:10379000FD01E650FC4F6081A850BC4F8C9190E039
:1037A00070E00E94AE0B8091EC05A82FB0E0FD0107
:1037B000E254FC4F808184FF0BC0FD01EE51FC4FB1
:1037C0006081A052BC4F8C9190E070E00E946B0B26
:1037D0008091EC05A82FB0E0FD01EA53FC4F8081F9
:1037E00081FF0BC0FD01E65DFB4F6081A85DBB4F13
:1037F0008C9190E070E00E944B0B8091EC05A82F1B
:10380000B0E0FD01E054FC4F808187FF0BC0FD015B
:10381000EA50FC4F6081AC50BC4F8C9190E070E05E
:103820000E94FD0A8091EC05A82FB0E0FD01EE5347
:10383000FC4F808186FF0BC0FD01EA5EFB4F60817B
:10384000AC5EBB4F8C9190E070E00E94A50A809125
:1038500006068093EC051F910F91FF90EF9008955D
:1038600089E494E00E9436050895CF93DF93EC013C
:1038700089E494E00E940B04C817D9073CF089E45E
:1038800094E00E940004892B09F42397CE01DF9174
:10389000CF910895FF920F931F9304E316E0C801A0
:1038A00060E873E00E941B338093AE05C8016CEFA3
:1038B00073E00E941B3380935803C8016DEF73E0DF
:1038C0000E941B33F82EC8016EEF73E00E941B3379
:1038D000382F20E02F0D311D30935C0320935B03C4
:1038E000C80164EF73E00E941B33F82EC80165EF36
:1038F00073E00E941B33382F20E02F0D311D3093D1
:10390000D6052093D505C80166EF73E00E941B33EE
:10391000F82EC80167EF73E00E941B33382F20E0B8
:103920002F0D311D3093DA052093D905C80168EFBA
:1039300073E00E941B33F82EC80169EF73E00E9408
:103940001B33382F20E02F0D311D3093D8052093E5
:10395000D7051F910F91FF900895BC0184E396E075
:103960000E941B330895EF92FF920F931F93CF9302
:10397000DF930091EC0510E08AEF90E0089F700162
:10398000099FF00C189FF00C1124C70188569F4F17
:103990000E94AD1CF801E254FC4F882319F080818D
:1039A000806102C080818F7E80838091EC05C82F6A
:1039B000D0E0C70186569F4F0E94AD1CC052DC4F1D
:1039C00088838091EC05C82FD0E0C70184569F4FB3
:1039D0000E94AD1C90E00E94351CCE51DC4F8883C4
:1039E0000091EC0510E0C70106960E94AD1CF8019D
:1039F000E254FC4F882319F08081826002C08081EC
:103A00008D7F80838091EC05C82FD0E0C701089698
:103A10000E94AD1CC853DC4F88838091EC05C82FF1
:103A2000D0E0C7010A960E94AD1C90E00E94351CB0
:103A3000C653DC4F88830091EC0510E0C7010C965B
:103A40000E94AD1CF801E254FC4F882319F08081DC
:103A5000846002C080818B7F80838091EC05C82FB9
:103A6000D0E0C7010E960E94AD1CC453DC4F888382
:103A70008091EC05C82FD0E0C70140960E94AD1C94
:103A800090E00E94351CC253DC4F88830091EC0506
:103A900010E0C70142960E94AD1CF801E254FC4FB1
:103AA000882319F08081886002C08081877F8083AD
:103AB0008091EC05C82FD0E0C70144960E94AD1C50
:103AC000C053DC4F88838091EC05C82FD0E0C7013C
:103AD00046960E94AD1C90E00E94351CCE52DC4FF1
:103AE00088830091EC0510E0C7014E960E94AD1C42
:103AF000F801E254FC4F882319F08081806202C0F3
:103B000080818F7D80838091EC05C82FD0E0C70134
:103B100080960E94AD1CCC52DC4F88838091EC05CE
:103B2000C82FD0E0C70182960E94AD1C90E00E9491
:103B3000351CCA52DC4F88830091EC0510E0C701A8
:103B400084960E94AD1CF801E254FC4F882319F0C2
:103B50008081806402C080818F7B80838091EC05AE
:103B6000C82FD0E0C70186960E94AD1CC852DC4F1A
:103B700088838091EC05C82FD0E0C70188960E9409
:103B8000AD1C90E00E94351CC652DC4F888300912A
:103B9000EC0510E0C7018A960E94AD1CF801E254C2
:103BA000FC4F882319F08081806802C080818F7764
:103BB00080838091EC05C82FD0E0C7018C960E94CD
:103BC000AD1CC452DC4F88838091EC05C82FD0E037
:103BD000C7018E960E94AD1C90E00E94351CC25217
:103BE000DC4F88830091EC0510E0C701C0960E946D
:103BF000AD1CF801E054FC4F882319F080818160EE
:103C000002C080818E7F80838091EC05C82FD0E038
:103C1000C701C2960E94AD1CCC51DC4F88838091B5
:103C2000EC05C82FD0E0C701C4960E94AD1C90E0FF
:103C30000E94351CCA51DC4F88830091EC0510E0CE
:103C4000C701885B9F4F0E94AD1CF801E054FC4FF8
:103C5000882319F08081806102C080818F7E8083FB
:103C60008091EC05C82FD0E0C701865B9F4F0E9472
:103C7000AD1CC451DC4F88838091EC05C82FD0E087
:103C8000C701845B9F4F0E94AD1C90E00E94351CD1
:103C9000C251DC4F88830091EC0510E0C7018E5BB8
:103CA0009F4F0E94AD1CF801E054FC4F882319F08F
:103CB0008081886002C08081877F80838091EC054D
:103CC000C82FD0E0C7018C5B9F4F0E94AD1CC8512C
:103CD000DC4F88838091EC05C82FD0E0C7018A5B58
:103CE0009F4F0E94AD1C90E00E94351CC651DC4FD6
:103CF00088830091EC0510E0C7018A5A9F4F0E940B
:103D0000AD1CF801E054FC4F882319F080818064D9
:103D100002C080818F7B80838091EC05C82FD0E02A
:103D2000C701885A9F4F0E94AD1CC051DC4F888349
:103D30008091EC05C82FD0E0C701865A9F4F0E94A2
:103D4000AD1C90E00E94351CCE50DC4F8883009162
:103D5000EC0510E0C70182569F4F0E94AD1CF80190
:103D6000E054FC4F882319F08081806802C0808174
:103D70008F7780838091EC05C82FD0E0C7018056F3
:103D80009F4F0E94AD1CCC50DC4F88838091EC0586
:103D9000C82FD0E0C7018E559F4F0E94AD1C90E008
:103DA0000E94351CCA50DC4F88830091EC0510E05E
:103DB000C7018E599F4F0E94AD1CF801EE53FC4F76
:103DC000882319F08081816002C080818E7F80838A
:103DD0008091EC05C82FD0E0C7018C599F4F0E94FD
:103DE000AD1CC850DC4F88838091EC05C82FD0E013
:103DF000C7018A599F4F0E94AD1C90E00E94351C5C
:103E0000C650DC4F88830091EC0510E0C701825951
:103E10009F4F0E94AD1CF801EE53FC4F882319F010
:103E20008081846002C080818B7F80838091EC05DB
:103E3000C82FD0E0C70180599F4F0E94AD1CC450CD
:103E4000DC4F88838091EC05C82FD0E0C7018E58E5
:103E50009F4F0E94AD1C90E00E94351CC250DC4F69
:103E600088830091EC0510E0C70184579F4F0E94A2
:103E7000AD1CF801EE53FC4F882319F08081806857
:103E800002C080818F7780838091EC05C82FD0E0BD
:103E9000C70182579F4F0E94AD1CC050DC4F8883E2
:103EA0008091EC05C82FD0E0C70180579F4F0E943A
:103EB000AD1C90E00E94351CCE5FDB4F88830091E3
:103EC000EC0510E0C7018E569F4F0E94AD1CF80113
:103ED000EE53FC4F882319F08081826002C08081FC
:103EE0008D7F80838091EC05C82FD0E0C7018C5670
:103EF0009F4F0E94AD1CC85FDB4F88838091EC050B
:103F0000C82FD0E0C7018A569F4F0E94AD1C90E099
:103F10000E94351CC65FDB4F88830091EC0510E0E2
:103F2000C7018C589F4F0E94AD1CF801EE53FC4F07
:103F3000882319F08081886002C08081877F808318
:103F40008091EC05C82FD0E0C7018A589F4F0E948E
:103F5000AD1CCC5FDB4F88838091EC05C82FD0E08F
:103F6000C70188589F4F0E94AD1C90E00E94351CED
:103F7000CA5FDB4F88830091EC0510E0C7018658CB
:103F80009F4F0E94AD1CF801EE53FC4F882319F09F
:103F90008081806102C080818F7E80838091EC056A
:103FA000C82FD0E0C70184589F4F0E94AD1CC45F4A
:103FB000DB4F88838091EC05C82FD0E0C701825881
:103FC0009F4F0E94AD1C90E00E94351CC25FDB4FEA
:103FD00088830091EC0510E0C70180589F4F0E9434
:103FE000AD1CF801EE53FC4F882319F080818062EC
:103FF00002C080818F7D80838091EC05C82FD0E046
:10400000C7018E579F4F0E94AD1CC05FDB4F888356
:104010008091EC05C82FD0E0C7018C579F4F0E94BC
:10402000AD1C90E00E94351CCE5EDB4F8883009172
:10403000EC0510E0C7018A579F4F0E94AD1CF801A4
:10404000EE53FC4F882319F08081806402C0808188
:104050008F7B80838091EC05C82FD0E0C701885703
:104060009F4F0E94AD1CCC5EDB4F88838091EC0596
:10407000C82FD0E0C70186579F4F0E94AD1C90E02B
:104080000E94351CCA5EDB4F88830091EC0510E06E
:10409000C7018C559F4F0E94AD1CF801EC53FC4F9B
:1040A000882319F08081816002C080818E7F8083A7
:1040B0008091EC05C82FD0E0C7018A559F4F0E9420
:1040C000AD1CC85EDB4F88838091EC05C82FD0E023
:1040D000C70188559F4F0E94AD1C90E00E94351C7F
:1040E000C65EDB4F88830091EC0510E0C7018A545F
:1040F0009F4F0E94AD1CF801EC53FC4F882319F030
:104100008081886002C08081877F80838091EC05F8
:10411000C82FD0E0C70188549F4F0E94AD1CC45ED9
:10412000DB4F88838091EC05C82FD0E0C70186540F
:104130009F4F0E94AD1C90E00E94351CC25EDB4F79
:1041400088830091EC0510E0C701845A9F4F0E94BC
:10415000AD1CF801EC53FC4F882319F0808180647A
:1041600002C080818F7B80838091EC05C82FD0E0D6
:10417000C701825A9F4F0E94AD1CC05EDB4F8883EF
:104180008091EC05C82FD0E0C701805A9F4F0E9454
:10419000AD1C90E00E94351CCE5DDB4F8883009102
:1041A000EC0510E0C70180529F4F0E94AD1CF80142
:1041B000EA53FC4F882319F08081846002C080811B
:1041C0008B7F80838091EC05C82FD0E0C7018E5192
:1041D0009F4F0E94AD1CCC5DDB4F88838091EC0526
:1041E000C82FD0E0C7018C519F4F0E94AD1C90E0BA
:1041F0000E94351CCA5DDB4F88830091EC0510E0FE
:10420000C7018C529F4F0E94AD1CF801EA53FC4F2E
:10421000882319F08081826002C080818D7F808335
:104220008091EC05C82FD0E0C7018A529F4F0E94B1
:10423000AD1CC85DDB4F88838091EC05C82FD0E0B2
:10424000C70188529F4F0E94AD1C90E00E94351C10
:10425000C65DDB4F8883DF91CF911F910F91FF9057
:10426000EF9008954F925F927F928F929F92AF92BC
:10427000BF92CF92DF92EF92FF920F931F93DF9343
:10428000CF93CDB7DEB7C854D0400FB6F894DEBF99
:104290000FBECDBF09E414E0C8010E943605C80175
:1042A00066E049E00E94EC0400D000D0EDB7FEB714
:1042B0001283018381E293E0948383830E94592CCB
:1042C0000F900F900F900F90C8010E94A00400D093
:1042D00000D00CE214E0EDB7FEB71283018381E158
:1042E00093E0948383830E94592C96E0492E93E0B7
:1042F000592EEE24FF24CC24DD240F900F900F9034
:104300000F90702E012F89E0A82EB12CAC0EBD1E8F
:104310004E010894811C911C8CE294E00E940D2DAA
:10432000982F8D3031F08D30DCF180538230C0F524
:1043300030C01830A1F59981892F8053823078F5EB
:10434000913311F490E801C090E08A81813309F43F
:10435000905C8B81813309F4905E8C81813309F408
:10436000905F8D81813309F4985F8E81813309F4E8
:104370009C5F8F81813309F49E5F8885813309F4C6
:104380009F5FF501EE0DFF1D90830894E11CF11C69
:1043900006C0F401E10FF11D90831F5F01C010E022
:1043A000F0E4EF16F104C9F489E494E0B601A50144
:1043B0000E9419040894C11CD11C00D000D0EDB794
:1043C000FEB771820283548243820E94592CEE24EC
:1043D000FF240F900F900F900F90FFEFCF16D10496
:1043E00009F00CF499CFC85BDF4F0FB6F894DEBF2D
:1043F0000FBECDBFCF91DF911F910F91FF90EF9036
:10440000DF90CF90BF90AF909F908F907F905F9004
:104410004F900895CF92DF92EF92FF920F931F93E8
:10442000DF93CF93CDB7DEB72A970FB6F894DEBFF0
:104430000FBECDBF33E0C32ED12CCC0EDD1E27E046
:10444000E22EF12CEC0EFD1E0DE956C20E94AB349B
:1044500060527E4480409040C8F40E94AB3469585A
:1044600073418040904090F01A3011F01D3031F4CB
:1044700080919C058F5F80939C0502C010929C05E3
:1044800080919C05833011F40E943221812F62E9D2
:1044900074E00E947206882309F42EC2809196046B
:1044A00090919704A0919804B09199048A3BE7EC0D
:1044B0009E07E1E2AE07E4E7BE0709F43AC08B3B92
:1044C000F7EC9F07F1E2AF07F4E7BF07C8F48832C3
:1044D0002EE5920722EDA20724E2B20709F4B5C047
:1044E0008E37E9EA9E07EBE5AE07E6E2BE0709F480
:1044F000B9C084559447A54CBB4009F0FDC1A4C187
:104500008E3F26EB920729E2A20725EAB20709F4BB
:104510000FC18832EFE99E07E0E0AE07E7ECBE0787
:1045200009F4D1C186549340A24CB54809F0E4C1C6
:10453000A6C10E94AB3460935C0470935D048093C9
:104540005E0490935F0483E080935B048091AC04ED
:104550009091AD04A091AE04B091AF048F83988781
:10456000A987BA876F81788589859A850E94743773
:1045700070936104609360048091B0049091B104E1
:10458000A091B204B091B3048F839887A987BA87AA
:104590006F81788589859A850E947437709363044A
:1045A000609362048091B4049091B504A091B60424
:1045B000B091B7048F839887A987BA876F81788570
:1045C00089859A850E9474378B0170936504609386
:1045D000640460916604709167048091680490910E
:1045E000690420E030E040E050E00E940537882375
:1045F00009F0C2C1B801882777FD8095982F0E94E5
:10460000A7377B018C0160936A0470936B048093DD
:104610006C0490936D0420E030E040E050E00E9494
:10462000053788230CF0A8C1C801B70120E030E0AD
:1046300044EB53E40E943F3660936A0470936B042A
:1046400080936C0490936D0497C180919C04809337
:104650006E0480919E0480936F0480919D048093EA
:1046600070044AC180919C0490919D04A0919E0485
:10467000B0919F04F70180839183A283B3836F81FC
:10468000788589859A8520E030E048EC52E40E94E4
:10469000DA380E9474377093720460937104693C35
:1046A000710520F010927204109271048091B6048A
:1046B0009091B70490937404809373048091B8042C
:1046C0009091B90490937604809375048091C2040C
:1046D0009091C3049093500380934F036091C8045A
:1046E0007091C9047A836983709352036093510374
:1046F00080E090E00E94A53720E030E04AEF54E4EB
:104700000E943E3620E030E040E251E40E940C3747
:1047100020E030E040E05FE30E943E360E947437C4
:10472000609353036D390CF0E7C000935303E4C06A
:1047300060919C0470919D0480919E0490919F04CF
:104740000E94A73720E836E948E15BE40E940C3775
:10475000609366047093670480936804909369047F
:104760006091A0047091A1048091A2049091A3048F
:10477000D6016C9311967C93119712968C93129795
:1047800013969C930E94A73720E836E948E15BE442
:104790000E940C37609377047093780480937904B7
:1047A00090937A048091C10480937B048091C0042B
:1047B00080937C048091AC049091AD04A091AE04F0
:1047C000B091AF04F70180839183A283B3838F817B
:1047D0009885A985BA8580936A0490936B04A09309
:1047E0006C04B0936D048091A4049091A504A091F1
:1047F000A604B091A70480839183A283B3838F81A1
:104800009885A985BA8580937D0490937E04A093B2
:104810007F04B09380048091B0049091B104A09182
:10482000B204B091B30480839183A283B3838F8158
:104830009885A985BA858093810490938204A0937A
:104840008304B093840458C08091A4049091A5047B
:10485000A091A604B091A704F70180839183A2835D
:10486000B3838F819885A985BA85B05880938504D4
:1048700090938604A0938704B09388043DC0409130
:10488000A604409389048091AB0480938A043091FC
:10489000A00430938B0420919F0420938C0490916A
:1048A0009E0490938D04813009F066C0413009F078
:1048B00063C0313009F060C0213009F05DC0913033
:1048C00009F05AC019C080919C0490919D04A09158
:1048D0009E04B0919F04F70180839183A283B383E8
:1048E0008F819885A985BA8580938E0490938F04D3
:1048F000A0939004B09391048CE294E00E94DD2C8C
:104900001816190604F58CE294E00E940D2D182F5C
:1049100080915B04882309F0B9CD98CD10925B0497
:10492000DD24D3948D2D90E02A960FB6F894DEBF47
:104930000FBECDBFCF91DF911F910F91FF90EF90F0
:10494000DF90CF900895DD24E0905C04F0905D044A
:1049500000915E0410915F0480E197E2A0E0B0E076
:10496000E80EF91E0A1F1B1F0E94AB34E616F7065D
:104970000807190798F2D6CFDD24D394E5CF83E05A
:104980000E944D3508952F923F924F925F926F9201
:104990007F928F929F92AF92BF92CF92DF92EF92CF
:1049A000FF920F931F93E0900706F0900806009186
:1049B000090610910A068FE590E0A0E0B0E0E80E4D
:1049C000F91E0A1F1B1F0E94AB346E157F0580075E
:1049D000910708F483C20E94AB341B012C01609044
:1049E0000706709008068090090690900A060E94BB
:1049F000AB34609307067093080680930906909382
:104A00000A0683E00E944D3586E00E945035AA27B1
:104A100097FDA095BA2FBC01CD010E94A7372DECC0
:104A20003CEC4CE85FE30E94DA3820E030E040E8FC
:104A30005AE30E94DA387B018C016091D5057091B0
:104A4000D605882777FD8095982F0E94A73720E00C
:104A500030E048EC52E40E940C379B01AC01C801E5
:104A6000B7010E94DA387B018C01A0906203B090FC
:104A70006303C0906403D0906503C601B50120E0D4
:104A800030E040E85FEB0E940537882349F4E0926C
:104A90006203F0926303009364031093650339C0CB
:104AA000C801B701A60195010E94053718168CF0C0
:104AB000C801B7012DEC3CEC4CEC5DE30E94DA3808
:104AC0007B018C01C601B50126E636E646E65FE3CA
:104AD00010C0C801B7012AE939E949E95EE30E943B
:104AE000DA387B018C01C601B50123E333E343E3EC
:104AF0005FE30E94DA389B01AC01C801B7010E9454
:104B00003F366093620370936303809364039093D2
:104B10006503D0905803DD2009F45EC0E090620385
:104B2000F09063030091640310916503C801B7011D
:104B300026E636E64EEA51E40E94CF3818161CF4F9
:104B400086E090E04BC0C801B7012AE939E94BE89B
:104B500051E40E94CF3818164CF48091590390917B
:104B60005A0305971CF485E090E038C0C801B701EE
:104B700023E333E343E551E40E94CF38181634F4BD
:104B80008091590390915A03049734F1C801B701F9
:104B90002DEC3CEC4CE051E40E94CF3818164CF45C
:104BA0008091590390915A0303971CF483E090E09D
:104BB00015C0C801B70120E030E040EA50E40E948F
:104BC000CF3818167CF48091590390915A030297BC
:104BD0004CF482E090E002C084E090E090935A03AD
:104BE00080935903E0906203F090630300916403A3
:104BF00010916503E092AA05F092AB050093AC0515
:104C00001093AD052091590330915A03DD2031F105
:104C1000B901882777FD8095982F0E94A7379B01BF
:104C2000AC01C801B7010E940C372CEF39EA4DE501
:104C300050E40E943E3627E834E149E053E40E9404
:104C4000DA380E947937E62FF0E0E05DFC4F64919E
:104C500070E080E090E00E94A53719C0B901882774
:104C600077FD8095982F0E94A7379B01AC01C80162
:104C7000B7010E940C3720E030E040E450E40E948D
:104C80003E3628E63FE249EB52E40E94DA387B01E7
:104C90008C01A0905403B0905503C0905603D0905F
:104CA0005703C601B50120E030E040E85FEB0E9409
:104CB0000537882349F4E0925403F092550300939A
:104CC00056031093570339C0C801B701A6019501D7
:104CD0000E94053718168CF0C801B7012DEC3CEC8A
:104CE0004CE45DE30E94DA387B018C01C601B5011A
:104CF00023E333E343E75FE310C0C801B7012AE9C8
:104D000039E949E95EE30E94DA387B018C01C6018A
:104D1000B50123E333E343E35FE30E94DA389B0109
:104D2000AC01C801B7010E943F36609354037093F1
:104D300055038093560390935703609154037091E9
:104D40005503809156039091570320E030E046ECE4
:104D500052E40E94CF38181664F480E090E0A6EC8C
:104D6000B2E48093540390935503A0935603B093F9
:104D700057038091D9059091DA05181619060CF0A1
:104D8000ADC081E00E944D3581E00E945035AA27D8
:104D900097FDA095BA2FBC01CD010E94A73729E24B
:104DA0003CE54FE950E40E94DA3820E030E040E88A
:104DB0005AE30E94DA387B018C016091D70570912B
:104DC000D805882777FD8095982F0E94A73720E087
:104DD00030E44CE156EC0E940C379B01AC01C80159
:104DE000B7010E943F367B018C016091D90570911B
:104DF000DA05882777FD8095982F0E94A73720E055
:104E000030E048EC52E40E940C379B01AC01C80131
:104E1000B7010E94DA382DEC3CEC4CE45EE30E94D2
:104E2000DA387B018C0160910F0670911006809139
:104E30001106909112062DEC3CEC4CE45FE30E94CD
:104E4000DA389B01AC01C801B7010E943F367B01F3
:104E50008C0160930F067093100680931106909357
:104E60001206B1016619770980E090E00E94A5372B
:104E70009B01AC01C801B7010E94DA382FEA35EA7C
:104E800041E959E30E94DA3820910B0630910C0673
:104E900040910D0650910E060E943F365B016C0159
:104EA00060930B0670930C0680930D0690930E068C
:104EB000C801B70120E030E048EC52E40E94DA3843
:104EC0000E9474377093A9056093A805C601B501C7
:104ED0000E94793770930306609302061F910F9129
:104EE000FF90EF90DF90CF90BF90AF909F908F900A
:104EF0007F906F905F904F903F902F9008951F93F9
:104F0000CF93DF9385E090E06CE070E00E94781230
:104F100068EE73E080E090E00E94B9348CE294E0A7
:104F20000E945A2DC0E0D0E010E0CE016DE171E0AA
:104F30000E941F3A892B89F41F5E89E494E0612F57
:104F40004CE00E94EC0489E494E06EEE0E94F404CC
:104F500089E494E00E94A004105161E070E080E0D8
:104F600090E00E94B934219687E0C13DD807E9F668
:104F7000DF91CF911F91089586E061E00E94B135E5
:104F8000089586E061E00E9472358CE294E040E092
:104F900051EE60E070E00E947B2C0E94BC2789E407
:104FA00094E00E9475050E94301C68EE73E080E07A
:104FB00090E00E94B9340E944A1C1092EC0507C090
:104FC0000E94B31C8091EC058F5F8093EC0580916B
:104FD000EC058230A8F31092EC050E947F270E9416
:104FE000BF2489E494E00E9436050E94AB346093AC
:104FF0001306709314068093150690931606089571
:105000006F927F928F929F92AF92BF92CF92DF92D8
:10501000EF92FF920F931F93E0901E06F0901F06F1
:1050200000912006109121068FE590E0A0E0B0E00D
:10503000E80EF91E0A1F1B1F0E94AB346E157F0578
:105040008007910708F4F4C0209181043091820414
:105050004091830450918404E0908504F09086048C
:105060000091870410918804CA01B9010E94DA38BE
:105070005B016C01C801B701A80197010E94DA38F1
:105080009B01AC01C601B5010E943F360E94613907
:105090006093BF057093C0058093C1059093C205CE
:1050A00020E030E040E050E00E94CF3818160CF0CD
:1050B000B5C00E94AB3420911E0630911F0640916E
:1050C000200650912106621B730B840B950B0E94E6
:1050D000A5375B016C01E090BF05F090C005009121
:1050E000C1051091C2052091810430918204409144
:1050F0008304509184040E94DA3820E030E04AE7CB
:1051000054E40E940C379B01AC016091BB05709187
:10511000BC058091BD059091BE050E943F3660930D
:10512000BB057093BC058093BD059093BE0580912F
:10513000000690910106892B09F464C0C801B701EB
:10514000A60195010E94DA3820E030E04AE754E4F5
:105150000E940C373B014C0120E030E040E050E081
:105160000E94CF3818160CF04DC06091CF05709199
:10517000D0058091D1059091D2052DEC3CEC4CE40A
:105180005FE30E94DA387B018C016091A805709181
:10519000A905882777FD8095982F0E94A737209131
:1051A000AA053091AB054091AC055091AD050E9428
:1051B000DA38A60195010E94DA3820E030E041EEAD
:1051C00054E40E940C37A40193010E940C379B0108
:1051D000AC01C801B7010E943F366093CF057093C0
:1051E000D0058093D1059093D20520E03BE443ECB9
:1051F00057E40E94CF3818168CF480E09BE4A3ECAF
:10520000B7E404C080E090E0A0E0B0E08093CF0578
:105210009093D005A093D105B093D2050E94AB34F2
:1052200060931E0670931F068093200690932106BC
:105230001F910F91FF90EF90DF90CF90BF90AF90B4
:105240009F908F907F906F9008952F923F924F92F2
:105250005F926F927F928F929F92AF92BF92CF9206
:10526000DF92EF92FF920F931F93DF93CF9300D0C3
:1052700000D0CDB7DEB78091C305882309F438C2CA
:10528000E090F405F090F5050091F6051091F70512
:10529000C801B7019F7725E33AEF4EE85CE30E942F
:1052A000DA380E94093769837A838B839C83C8012B
:1052B000B7012091660430916704409168045091D1
:1052C00069040E943E369F7720EC3BE649ED57E4A7
:1052D0000E94DA385B016C016091F8057091F90564
:1052E0008091FA059091FB05209177043091780424
:1052F0004091790450917A040E943E369F7720ECC9
:105300003BE649ED57E40E94DA3829813A814B8126
:105310005C810E94DA387B018C01C601B501A601CF
:1053200095010E94DA385B016C01C801B701A80140
:1053300097010E94DA389B01AC01C601B5010E94B9
:105340003F360E9461390E9474376093A0057093C4
:10535000A1058093A2059093A305809100069091EA
:105360000106892B09F4E9C06091170670911806AF
:1053700080E090E00E94A5372DEC3CEC4CE45FE32C
:105380000E94DA383B014C0160915B0370915C0331
:10539000882777FD8095982F0E94A7372DEC3CEC4D
:1053A0004CE45FE30E94DA387B018C0160910206D5
:1053B0007091030680E090E00E94A5379B01AC014C
:1053C000C801B7010E943E365B016C010E94AB34FC
:1053D0007B018C01609100067091010680E090E0F5
:1053E0000E94A5371B012C018091FC059091FD05C1
:1053F000A091FE05B091FF05E81AF90A0A0B1B0BF4
:10540000C801B7010E94A537A20191010E940C3783
:105410009B01AC01C601B5010E94DA3820E030E002
:105420004AE754E40E940C372DEC3CEC4CE45EE37C
:105430000E94DA389B01AC01C401B3010E943F36DF
:105440000E947437709318066093170660910206E5
:105450007091030680E090E00E94A5375B016C012B
:1054600060915B0370915C03882777FD8095982F8E
:105470000E94A7372DEC3CEC4CE45FE30E94DA3845
:105480007B018C01C601B501A80197010E94CF38AC
:10549000181624F410921806109217068091170619
:1054A000909118068057974130F08FE697E19093DE
:1054B000180680931706C801B701A60195010E943E
:1054C0003E367B018C016091BB057091BC058091DB
:1054D000BD059091BE05A20191010E940C379B0170
:1054E000AC01C801B7010E94DA387B018C016091E0
:1054F000A0057091A1058091A2059091A3050E943D
:10550000A7379B01AC01C801B7010E943E3620E0DD
:1055100030E040E05FE30E94DA380E947437709315
:10552000CE056093CD05615F784D7CF481EF98EDF9
:105530009093CE058093CD0508C010921806109266
:1055400017061092CE051092CD0560917D047091E2
:105550007E0480917F04909180042091C405309155
:10556000C5054091C6055091C7050E943E365B01B6
:105570006C012091A0053091A1054091A2055091A8
:10558000A305CA01B9010E94003A0E94A7377B0116
:105590008C01C601B501A60195010E94DA389B0174
:1055A000AC01C801B7010E943F360E9461390E94D8
:1055B00074376093C9057093CA058093CB059093A7
:1055C000CC056091F4057091F5058091F6059091F8
:1055D000F70520916604309167044091680450916A
:1055E00069040E943E367B018C0160E070E080E837
:1055F0009FE329813A814B815C810E940C379B019A
:10560000AC01C801B7010E94DA387B018C016091BE
:10561000F8057091F9058091FA059091FB052091AC
:105620007704309178044091790450917A040E9473
:105630003E369B01AC015058C801B7010E94B236FA
:1056400020EE3EE245E652E40E94DA3820E030E007
:1056500044EB52E40E943F360E9474379B01AC0138
:1056600097FF04C028593E4F4F4F5F4FCA01B90101
:10567000645B70408040904097FF06C0CA01B9014A
:105680006C547F4F8F4F9F4F0E94A73720916A0421
:1056900030916B0440916C0450916D040E943E3631
:1056A0000E94743797FF04C068597E4F8F4F9F4FF9
:1056B0000E94A73720E030E044EB53E40E940C370F
:1056C00020E030E040E851E40E94DA380E943D39A1
:1056D00020E030E040E85FE30E943F360E947937E7
:1056E0006093C805613108F46CC01092C80569C0A8
:1056F00080917C04823008F464C080917B04853002
:1057000008F45FC0D0901906FDE1FD1508F459C0FA
:10571000E0907D04F0907E0400917F04109180045D
:1057200060911A0670911B0680911C0690911D06CF
:10573000A80197010E943E369F7720E030E040E0CC
:105740005FE30E94CF3818165CF410921906E092BD
:105750001A06F0921B0600931C0610931D0631C01A
:105760008D2D8F5F809319068E3159F580916604D7
:1057700090916704A0916804B09169048093F40546
:105780009093F505A093F605B093F7058091770403
:1057900090917804A0917904B0917A048093F805EF
:1057A0009093F905A093FA05B093FB05E092C40528
:1057B000F092C5050093C6051093C70581E080935C
:1057C000C3050F900F900F900F90CF91DF911F9115
:1057D0000F91FF90EF90DF90CF90BF90AF909F9090
:1057E0008F907F906F905F904F903F902F90089593
:1057F0000E94C3240E9400280E94BB0789E494E011
:105800000E9425290E94BE180895EF92FF920F93DF
:105810001F930E940A22892BB9F4E0901306F0909E
:105820001406009115061091160684E690E0A0E09B
:10583000B0E0E80EF91E0A1F1B1F0E94AB34E616EB
:10584000F7060807190760F40E94AB34609313064B
:105850007093140680931506909316060E94F82BF9
:105860001F910F91FF90EF9008956EBD0DB407FE4C
:10587000FDCF8EB508958DE061E00E9472358BE01A
:1058800061E00E9472358CE060E00E9472358AE02F
:1058900061E00E9472351CBC80E58CBD8DB58EB573
:1058A000089582E296E00E943B2C08958FEF9FE7D7
:1058B0000895DF93CF93CDB7DEB7FE0139968D8182
:1058C0009E8161E04F8158859F010E94FA2ECF9101
:1058D000DF910895DF93CF93CDB7DEB7FE01399600
:1058E0008D819E8160E04F8158859F010E94FA2E34
:1058F000CF91DF9108950F931F93DC01ED91FC91FF
:105900000288F389E02D20E030E000E010E0099506
:105910001F910F9108958F92AF92CF92EF92FF92C5
:105920000F931F93DF93CF93CDB7DEB7FC011382A4
:10593000128288EE93E0A0E0B0E084839583A68392
:10594000B78387EA93E091838083558744873787BD
:105950002687118B008BF38AE28AC48AA58A868AFD
:1059600070E0CB0123E0880F991F2A95E1F79C0195
:105970002D5D394F308F278B855D994F928F818FA9
:1059800081E090E002C0880F991F6A95E2F72091AC
:105990003306282B20933306CF0140E051EE60E020
:1059A00070E00E947B2CCF91DF911F910F91FF90AF
:1059B000EF90CF90AF908F900895FC01838D882356
:1059C00019F42FEF3FEF0DC00788F08DE02D2081F7
:1059D000318182819381281B390B84819581282311
:1059E0003923C9010895FC01838D882319F42FEF11
:1059F0003FEF11C0018CF28DE02D20813181828139
:105A00009381281B390B209530958481958128231B
:105A100039232F5F3F4FC9010895FC01838D8823EF
:105A200061F0A789B08D2D913C91119712968D91BF
:105A30009C9113972817390721F44FEF5FEFCA01A4
:105A4000089512968D919C9113971696ED91FC9165
:105A50001797E80FF91F408112968D919C9113972B
:105A6000019614962D913C911597822393231396BA
:105A70009C938E93129750E0E2CFFC01838D882394
:105A800051F00788F08DE02D208131818281938152
:105A90002817390721F42FEF3FEFC90108958281BC
:105AA00093810680F781E02DE80FF91F8081282F70
:105AB00030E0F3CFDC015796ED91FC91589782814D
:105AC0009381918380835996ED91FC915A978081BF
:105AD0009181938382830895DC015B968C915B971F
