:100000000C9488020C94B0020C94B0020C94B002D0
:100010000C94B0020C94B0020C94B0020C94B00298
:100020000C94B0020C94B0020C94B0020C94B00288
:100030000C94B0020C94B0020C94B0020C94B00278
:100040000C945D340C94B0020C9494050C94D0057F
:100050000C94B0020C94B0020C94B0020C94B00258
:100060000C94B0020C94B002084AD73B3BCE016E10
:1000700084BCBFFDC12F3D6C74319ABD56833DDAFF
:100080003D00C77F11BED9E4BB4C3E916BAAAABE0E
:10009000000000803F05A84CCDB2D44EB93836A937
:1000A000020C50B9918688083CA6AAAA2ABE000074
:1000B00000803F0664EC1B3C04BC163E3BE5B93CAB
:1000C000C93C37C29E5A3D660498083EEA69AAAA0E
:1000D0003E000000803F00070E091C1B1215383F30
:1000E000363124232A2D70777E796C6B6265484FF8
:1000F000464154535A5DE0E7EEE9FCFBF2F5D8DFE8
:10010000D6D1C4C3CACD90979E998C8B8285A8AF57
:10011000A6A1B4B3BABDC7C0C9CEDBDCD5D2FFF847
:10012000F1F6E3E4EDEAB7B0B9BEABACA5A28F88B7
:10013000818693949D9A2720292E3B3C35321F18A7
:10014000111603040D0A5750595E4B4C45426F6817
:10015000616673747D7A898E878095929B9CB1B617
:10016000BFB8ADAAA3A4F9FEF7F0E5E2EBECC1C677
:10017000CFC8DDDAD3D4696E676075727B7C515667
:100180005F584D4A4344191E171005020B0C2126D7
:100190002F283D3A33344E49404752555C5B7671C7
:1001A000787F6A6D64633E39303722252C2B060137
:1001B000080F1A1D1413AEA9A0A7B2B5BCBB969127
:1001C000989F8A8D8483DED9D0D7C2C5CCCBE6E197
:1001D000E8EFFAFDF4F32020BF0020BF00BF007C51
:1001E000202020202020202020202020202020200F
:1001F00020202000C8202020202020202020202077
:1002000020C900C8202020202020202020202020BD
:10021000C97C00D820202020202020202020202041
:10022000D97C00C820202020202020202020202031
:10023000C97C00C820202020202020202020202031
:10024000C97C00626F6F74696E672075703AEDF259
:10025000F2F2F2F2F2F2F30063616C6962726174BD
:10026000657C7C6D6561737572656420616D703A43
:1002700020200063616C6962726174657C7C6D65CD
:1002800061737572656420616D703A20200063614E
:100290006C6962726174657C7C6D65617375726591
:1002A0006420766F6C743A20006C69706F20626114
:1002B00074742063656C6C7C7C7761726E696E67A8
:1002C000206C6576656C3A2000626174742063610D
:1002D0007061636974793A00736574757020736333
:1002E0007265656E7C7C7C000000000000000000F0
:1002F0000000000000010A0F1315191D20212325FD
:1003000027292B2D2F3031333537393A3C3E4042A7
:1003100043444445464748494A4B4D4E4F5050513F
:1003200052525354555658595A5B5B5C5D5D5E5E44
:100330005E5F5F5F606060616161626262636363B0
:100340006363636363636363636363630000000009
:10035000000000000000000002070A0C0D0E101241
:1003600014151617191A1B1E2126282A2B2D2F317A
:10037000333437393C3D3E3F4041424446494A4B85
:100380004C4D4E4F4F505151525253545455555657
:100390005758595A5B5C5C5D5D5E5F5F5F60606093
:1003A0006060616161616161626262626262626336
:1003B00000407A10F35A00A0724E18090010A5D41C
:1003C000E80000E87648170000E40B54020000CA79
:1003D0009A3B000000E1F5050000809698000000BF
:1003E00040420F000000A08601000000102700001E
:1003F0000000E803000000006400000000000A00A4
:10040000000000000100000000002C76D888DC67A6
:100410004F0823DFC1DFAE59E1B1B796E5E3E453FE
:10042000C63AE651997696E8E6C28426EB898C9B1B
:1004300062ED407C6FFCEFBC9C9F40F2BAA56FA5BB
:10044000F490055A2AF75C936B6CF9676DC11BFC3D
:10045000E0E40D47FEF520E6B500D0ED902E030058
:10046000943577050080841E080000204E0A0000A5
:1004700000C80C333333330F986E12831141EF8D64
:100480002114893BE65516CFFEE6DB18D1844B38A4
:100490001BF77C1D901DA4BBE424203284725E22D5
:1004A0008100C9F124ECA1E53D276E616E00696E03
:1004B000660000000000240027002A000000000061
:1004C000250028002B000000000023002600290042
:1004D00004040404040404040202020202020303EA
:1004E00003030303010204081020408001020408F2
:1004F0001020010204081020000000070002010083
:1005000000030406000000000000000040074B2C20
:1005100011241FBECFEFD8E0DEBFCDBF13E0A0E0B7
:10052000B1E0EAE0F5E702C005900D92AA3BB10701
:10053000D9F716E0AAEBB3E001C01D92AB34B107C6
:10054000E1F715E0C0E1D5E004C02297FE010E946A
:100550007F3ACC30D107C9F70E94FF350C94833A1B
:100560000C940000283008F027E03327DA01990FB7
:10057000311D87FD916000966105710539F4326087
:100580002E5F3D9330E32A95E1F708959F3F30F0C9
:1005900080387105610509F03C5F3C5F3D93913007
:1005A00008F08068911DDF93CF931F930F93FF9204
:1005B000EF92192F987F9695E92F96959695E90FCA
:1005C000FF27E65FFB4F99273327EE24FF24A7017F
:1005D000E70105900894079428F4360FE71EF81EEB
:1005E000491F511D660F771F881F991F0694A1F799
:1005F0000590079428F4E70EF81E491F561FC11DE9
:10060000770F881F991F661F0694A1F7059007941E
:1006100028F4F80E491F561FC71FD11D880F991FB8
:10062000661F771F0694A1F70590079420F4490FE1
:10063000561FC71FD81F990F661F771F881F069464
:10064000A9F784911095177041F0D695C7955795E5
:100650004795F794E7941A95C1F7E0EBF3E06894B7
:100660001590159135916591959105907FE273955F
:10067000E118F10A430B560BC90BD009C0F7E10C86
:10068000F11E431F561FC91FD01D7EF4703311F495
:100690008A95E6CFE894015030F0080F0AF400275D
:1006A000021708F4202F2395022F7A3328F079E3DC
:1006B0007D932A95E9F710C07D932A9589F60694D3
:1006C00097956795379517951794E118F10A430B9D
:1006D000560BC90BD00998F023957E9173957A3308
:1006E00008F070E37C932013B8F77E9170617D93DE
:1006F00030F0839571E37D9370E32A95E1F711243F
:10070000EF90FF900F911F91CF91DF91992787FD77
:1007100090950895FA01AA27283051F1203181F1EE
:10072000E8946F936E7F6E5F7F4F8F4F9F4FAF4FF9
:10073000B1E03ED0B4E03CD0670F781F891F9A1F0C
:10074000A11D680F791F8A1F911DA11D6A0F711DC0
:10075000811D911DA11D20D009F468943F912AE0CC
:10076000269F11243019305D3193DEF6CF010895B4
:10077000462F4770405D4193B3E00FD0C9F7F6CFE5
:10078000462F4F70405D4A3318F0495D31FD4052AD
:10079000419302D0A9F7EACFB4E0A6959795879543
:1007A00077956795BA95C9F7009761057105089522
:1007B0009B01AC010A2E06945795479537952795CE
:1007C000BA95C9F7620F731F841F951FA01D089566
:1007D000FC010590615070400110D8F7809590950C
:1007E0008E0F9F1F0895FC01615070400190011011
:1007F000D8F7809590958E0F9F1F0895FC01138266
:10080000128288EE93E0A0E0B0E084839583A68313
:10081000B78380E793E0918380830895FC0180890A
:10082000803419F421E030E002C020E030E0C9015A
:100830000895FC01818990E0089580E090E008959A
:1008400080E090E0089580E090E0089508951F937F
:10085000CF93DF93EC01162F86E060E00E94AB356A
:100860008BE296E060E00E942F2C112319F01130EA
:1008700059F404C08BE296E0688904C068896C6111
:100880008BE296E00E942F2C86E061E00E94AB355F
:10089000DF91CF911F910895EF92FF920F931F93D5
:1008A0007C010BE216E0C80167E00E942F2CC80112
:1008B0006FEF0E942F2C86E061E00E94AB35F701BC
:1008C00087858F5F87871F910F91FF90EF90089525
:1008D000EF92FF920F931F93FC01E7848EE1E89E55
:1008E000700111248685E80EF11C86E060E00E940C
:1008F000AB350BE216E0C80164E00E942F2CC80162
:1009000063E00E942F2CC80165E00E942F2CC801D3
:100910006F2D0E942F2CC80166E00E942F2CC80169
:100920006E2D0E942F2C1F910F91FF90EF90089534
:10093000FC0164874587668747870E94680408959D
:100940001F93CF93DF93EC01162F6C3731F40E9485
:100950004C04CE010E9468040AC08BE296E067E076
:100960000E942F2C8BE296E0612F0E942F2C81E0B9
:1009700090E0DF91CF911F910895EF92FF920F9336
:100980001F938EE1489F70011124E60EF11C86E052
:1009900060E00E94AB350BE216E0C80165E00E9402
:1009A0002F2CC8016F2D0E942F2CC80166E00E94D9
:1009B0002F2CC8016E2D0E942F2C1F910F91FF909C
:1009C000EF9008950F931F9386E060E00E94AB358F
:1009D0000BE216E0C80164E00E942F2CC80164E01D
:1009E0000E942F2C61E070E080E090E00E94B33420
:1009F00086E061E00E94AB351F910F9108951F932F
:100A0000CF93DF93EC01188A16E0198B8DE396E003
:100A100060E973E00E941533813049F480E4888BEB
:100A200088E0898B86E060E00E94AB3502C0188ABE
:100A3000198B86E060E00E94AB35DF91CF911F916A
:100A400008950F931F93CF93DF93EC0186E061E04D
:100A50000E946C3582E060E00E946C3582E061E0CB
:100A60000E94AB35CE010E94FF0486E060E00E9448
:100A7000AB358BE296E06CEE0E942F2C8BE296E079
:100A80006FEF0E942F2C182F8BE296E060E00E94FF
:100A90002F2C688962608BE296E00E942F2C62E323
:100AA00070E080E090E00E94B3348BE296E06CE668
:100AB0000E942F2C1F7E8BE296E0612F0E942F2C2C
:100AC0008889803419F00DE010E002C000E110E0E8
:100AD0001092BB031092BA0317C06091BA037091D1
:100AE000BB03605F8BE296E00E942F2C8BE296E0C6
:100AF00069E00E942F2C8091BA039091BB0301966C
:100B00009093BB038093BA038091BA039091BB0387
:100B10008017910714F3CE0161E00E942704DF9152
:100B2000CF911F910F9108951F920F920FB60F92C0
:100B300011242F933F934F938F939F93EF93FF93A2
:100B40004091C60020912C0630912D062F5F3F4F1B
:100B500080913006909131062823392380912E060A
:100B600090912F062817390779F080912C069091E3
:100B70002D06E0913206F0913306E80FF91F40830D
:100B800030932D0620932C06FF91EF919F918F912A
:100B90004F913F912F910F900FBE0F901F9018957E
:100BA0001F920F920FB60F9211242F933F938F93A2
:100BB0009F93EF93FF9320913606309137068091F3
:100BC00034069091350628173907E9F080913606EA
:100BD00090913706E0913A06F0913B06E80FF91F35
:100BE00080818093C60080913606909137060196E9
:100BF000209138063091390682239323909337064B
:100C00008093360610C020913406309135068091CD
:100C10003606909137062817390729F48091C100CC
:100C20008F7D8093C100FF91EF919F918F913F91B4
:100C30002F910F900FBE0F901F901895CF93DF93B9
:100C4000482FEB018091A105833009F45FC0843007
:100C500028F48130D1F0823068F50AC0853009F47B
:100C6000D4C0853008F4AAC0863009F0F4C0EBC0C7
:100C70004C3309F0F0C081E08093A1054883E2E1A4
:100C8000F1E0E491E093A005E6C0842F90E0E091CC
:100C9000A005F0E0E827F927EA52FF4FE491E0933E
:100CA000A005887F9070809741F582E08093A10530
:100CB000498329C0242F30E0E091A005F0E0E2272D
:100CC000F327EA52FF4FE491E093A00580919F053E
:100CD0008F5F80939F05823018F43B832A83BBC0CB
:100CE000922F88272A813B81820F931F9B838A83BF
:100CF0000A978F3F910521F018F01092A105ABC023
:100D000083E08093A10510929F05A5C0E42FF0E039
:100D10008091A00590E0E827F927EA52FF4FE4917F
:100D2000E093A00560919F056F5F60939F0562301F
:100D300089F0633020F4613009F08DC006C0633063
:100D400091F0643009F087C022C0842F90E0A0E0C9
:100D5000B0E018C0242F30E040E050E0542F432F83
:100D6000322F222707C0242F30E040E050E0A901B5
:100D7000332722278C819D81AE81BF81820F931FF3
:100D8000A41FB51F8C839D83AE83BF8364C0242FB3
:100D900030E040E050E0522F4427332722278C8157
:100DA0009D81AE81BF81820F931FA41FB51F8C83CD
:100DB0009D83AE83BF836093A105A5CF242F30E030
:100DC000E091A005F0E0E227F327EA52FF4FE4911B
:100DD000E093A00560919F056F5F60939F05613070
:100DE00019F06230C1F503C03987288734C0922FCB
:100DF000882728853985280F391F398728878A81D0
:100E00009B810A97F1F085E07CCFE42FF0E08091A0
:100E1000A00590E0E827F927EA52FF4FE491E0931C
:100E2000A00520919F052F5F20939F0530E0FB01D7
:100E3000E20FF31F41878A819B810A9728173907A0
:100E400050F086E05ECFC75FDE4F4883C950D14087
:100E500087E08093A1058091A105873069F4109205
:100E6000A105C75FDE4F9091A0058881C950D14090
:100E7000981711F48A8101C080E0DF91CF91089525
:100E80008F92AF92CF92EF92FF920F931F938AE2CD
:100E900094E060E045EC50E024EC30E000EC10E041
:100EA000B1ECEB2EF12CCC24C394A8E9AA2EF0E2ED
:100EB0008F2E0E94852C87E494E00E94FE031F91F0
:100EC0000F91FF90EF90CF90AF908F900895AF92D9
:100ED000BF92CF92DF92EF92FF920F931F93DF9317
:100EE000CF93CDB7DEB72A970FB6F894DEBF0FBE0B
:100EF000CDBF03E0A02EB12CAC0EBD1E17E0C12E5D
:100F0000D12CCC0EDD1EA4C20E94A53460527E44BA
:100F10008040904098F40E94A53469587341804005
:100F2000904060F01A3011F01D3031F480919E0530
:100F30008F5F80939E0502C010929E05812F64E909
:100F400074E00E941E06882309F482C280919804EE
:100F500090919904A0919A04B0919B048A3BE7EC8C
:100F60009E07E1E2AE07E4E7BE0709F449C08B3B08
:100F7000F7EC9F07F1E2AF07F4E7BF07C8F48E373D
:100F800029EA92072BE5A20726E2B20709F4D6C0A8
:100F9000863AEEE09E07E2E1AE07E8E4BE0709F418
:100FA000E6C188529E45A24DB44209F051C2B9C073
:100FB0008E3F26EB920729E2A20725EAB20709F441
:100FC000FCC08F3FE6EB9E07E9E2AE07E5EABE070D
:100FD00038F486549340A24CB54809F039C225C272
:100FE0008C3628E6920723E4A20722ECB20709F424
:100FF000A3C186589B43A04AB44C09F029C20CC235
:101000000E94A53460935A0470935B0480935C043F
:1010100090935D0483E0809359048091AE04909195
:10102000AF04A091B004B091B1048F839887A987D1
:10103000BA876F81788589859A850E946E3770930B
:101040005F0460935E048091B2049091B304A09118
:10105000B404B091B5048F839887A987BA876F814C
:10106000788589859A850E946E37709361046093B4
:1010700060048091B6049091B704A091B804B09137
:10108000B9048F839887A987BA876F817885898506
:101090009A850E946E378B0170936304609362049B
:1010A0006091640470916504809166049091670476
:1010B00020E030E040E050E00E94FF36882331F02D
:1010C00080916C048150833008F0BFC1B80188273B
:1010D00077FD8095982F0E94A1377B018C0160934A
:1010E00068047093690480936A0490936B0420E011
:1010F00030E040E050E00E94FF3688230CF0A5C1AC
:10110000C801B70120E030E044EB53E40E943936D7
:10111000609368047093690480936A0490936B04ED
:1011200094C180919E0480936D048091A00480936B
:101130006E0480919F0480936F048AC180919E0405
:1011400090919F04A091A004B091A104F601808326
:101150009183A283B3836F81788589859A8520E006
:1011600030E048EC52E40E94D4380E946E3770930D
:10117000710460937004693C710520F01092710451
:10118000109270048091B8049091B9049093730404
:10119000809372048091BA049091BB04909375047B
:1011A000809374048091C4049091C5049A838983C8
:1011B00090934B0380934A034BC160919E047091BE
:1011C0009F048091A0049091A1040E94A13720E87F
:1011D00036E948E15BE40E9406376093640470934B
:1011E000650480936604909367046091A2047091F3
:1011F000A3048091A4049091A504D5016C93119649
:101200007C93119712968C93129713969C930E943D
:10121000A13720E836E948E15BE40E940637609395
:101220007604709377048093780490937904809186
:10123000C30480937A048091C20480937B048091DC
:101240006C048150833068F560916204709163048E
:10125000882777FD8095982F0E94A1377B018C010C
:10126000609368047093690480936A0490936B049C
:1012700020E030E040E050E00E94FF36882354F543
:10128000C801B70120E030E044EB53E40E94393656
:10129000609368047093690480936A0490936B046C
:1012A00019C08091AE049091AF04A091B004B091A8
:1012B000B104F60180839183A283B3838F819885E3
:1012C000A985BA858093680490936904A0936A0401
:1012D000B0936B048091A6049091A704A091A804F8
:1012E000B091A904F60180839183A283B3838F8197
:1012F0009885A985BA8580937C0490937D04A093FA
:101300007E04B0937F048091B2049091B304A091C5
:10131000B404B091B50480839183A283B3838F8199
:101320009885A985BA858093800490938104A093C1
:101330008204B09383048CC08091A6049091A7048A
:10134000A091A804B091A904F60180839183A2839F
:10135000B3838F819885A985BA85B058809384041A
:1013600090938504A0938604B093870471C0809104
:101370009E0490919F04A091A004B091A104F60155
:1013800080839183A283B3836F81788589859A85D1
:101390000E946E37882777FD8095982F0E94A1378D
:1013A0007B018C01609388047093890480938A0484
:1013B00090938B0460914C0370914D0380914E0388
:1013C00090914F0320E03CE34CE156EC0E94FF3645
:1013D000882341F4E0924C03F0924D0300934E03B6
:1013E00010934F038091A2049091A304A091A404B0
:1013F000B091A504F60180839183A283B3838F818A
:101400009885A985BA8580938C0490938D04A093C8
:101410008E04B0938F041CC08091F80480939004D4
:101420008091AC048093910413C02091A804209370
:1014300092049091AD04909393048091AB048093B7
:101440006C04913011F4213019F0DD24D3942AC0BA
:101450008AE294E00E94D72C1816190614F58AE245
:1014600094E00E94072D182F80915904882309F0D9
:1014700065CD4ACD10925904DD24D3948D2D90E092
:101480002A960FB6F894DEBF0FBECDBFCF91DF9185
:101490001F910F91FF90EF90DF90CF90BF90AF9092
:1014A0000895DD24E0905A04F0905B0400915C0400
:1014B00010915D0480E197E2A0E0B0E0E80EF91E33
:1014C0000A1F1B1F0E94A534E616F7060807190716
:1014D00088F2D4CF609168047091690480916A04A5
:1014E00090916B0420E030E040E152E40E94D43857
:1014F00020E030E044EB53E40E9406370E94373985
:101500000E946E379B012550304037FF03C09B017E
:10151000215E3F4FA1EBB5E0F901E258FC4F80811D
:101520008C932F5F3F4F2432310514F020E030E0E0
:10153000119685E0AC3BB80779F71C9208952F927D
:101540003F924F925F926F927F928F929F92AF9253
:10155000BF92CF92DF92EF92FF920F931F93DF9390
:10156000CF9300D000D000D0CDB7DEB7182F662EB5
:1015700020915E0430915F042A35310530F0C901B5
:101580008D549F4F89359105E8F437FF02C02D54E3
:101590003F4FC90137FF03C0909581959F4F8A3116
:1015A00091053CF094E4892E912C89ED282E312C64
:1015B0001DC00A975CF10BE3802E912CB2ED2B2E0F
:1015C000312C20C02B35310514F0235B3040C9018C
:1015D00037FF03C0909581959F4F8A31910554F054
:1015E000A6E58A2E912CFCED2F2E312CE7E0AE2EB5
:1015F000B12C15C00A9754F07DE4872E912C64ED30
:10160000262E312C58E0A52EB12C09C045E0842EA1
:10161000912C38E3232E312C29E0A22EB12C60919D
:10162000600470916104882777FD8095982F0E944F
:10163000A13727EA32E94BE25CEB0E94D4380E94E2
:10164000A83920E030E040EA50E40E94D43820E09D
:1016500030E040E951E40E94D4380E94373920E05C
:1016600030E044E352E40E9439360E946E37712E16
:101670009EEBC92E9FEFD92E9B01442737FD409545
:10168000542F29833A834B835C8387E4482E84E07C
:10169000582E4AEF5FEF240E351E60915E04709164
:1016A0005F04882777FD8095982F0E94A13725E356
:1016B0003AEF4EE85CE30E94D4380E94A8397B01DF
:1016C0008C01B601882777FD8095982F0E94A1375D
:1016D0009B01AC01C801B7010E94D4387B018C0189
:1016E00069817A818B819C810E94A1379B01AC0129
:1016F000C801B7010E9439360E946E379B01CB01A9
:1017000001978A35910508F071C062E170E00E948E
:10171000193A8B012F5F3F4FAEEEBFEF6A9FC001BA
:101720006B9F900D7A9F900D1124820F931F62E0A2
:1017300070E00E94193A6D837E83E62CE01A4E2DEC
:101740004C5F87E494E0672D0E94BD0400D000D078
:1017500000D0EDB7FEB73196ADB7BEB712965C922A
:101760004E92119720E031E0338322838D819E8158
:10177000880D991D958384830E94642C4DB75EB7B4
:101780004A5F5F4F0FB6F8945EBF0FBE4DBF8D81AD
:101790009E818A159B0554F1043011053CF593E0B8
:1017A000E90EC201672D4E2D0E94BD0400D000D06D
:1017B00000D0EDB7FEB73196ADB7BEB712965C92CA
:1017C0004E92119720E031E0338322834D815E8178
:1017D000420D531D558344830E94642C8DB79EB7E0
:1017E00006960FB6F8949EBF0FBE8DBFACE0B0E07A
:1017F000CA0EDB1E7394BEE4CB16D10409F04DCFA4
:1018000026960FB6F894DEBF0FBECDBFCF91DF9105
:101810001F910F91FF90EF90DF90CF90BF90AF900E
:101820009F908F907F906F905F904F903F902F9000
:101830000895CF92DF92EF92FF920F931F93823021
:1018400010F402E002C0082F000F6091A205709111
:10185000A3058091A4059091A5050E94A1376B0175
:101860007C0120E030E44CE156E40E94FF36202F5A
:1018700030E047E454E0882334F58DB79EB70E97E7
:101880000FB6F8949EBF0FBE8DBFEDB7FEB7319671
:10189000ADB7BEB712965C934E93119783E091E07B
:1018A0009383828322573F4F358324832F5F3F4F9B
:1018B00037832683C086D186E286F3868DE890E062
:1018C0009587848734C08DB79EB70E970FB6F8946E
:1018D0009EBF0FBE8DBF0DB71EB70F5F1F4FADB7B9
:1018E000BEB712965C934E9311978FE091E0F8018A
:1018F0009383828322573F4F358324832F5F3F4F4B
:1019000037832683C701B60120E030E04AE754E47C
:101910000E940637D80118966D937D938D939C9302
:101920001B978DEF90E01D969C938E931C970E94C1
:10193000642CEDB7FEB73E960FB6F894FEBF0FBE0F
:10194000EDBF1F910F91FF90EF90DF90CF90089522
:10195000CF93DF93AC01E0917204F0917304209176
:10196000A6053091A705C9018C599F4F8E179F0777
:101970001CF4EA01219609C024563040E217F3070F
:1019800014F0EA0102C0EA012197842F90E0C81701
:10199000D90729F08DE396E04C2F0E941C33CE012D
:1019A000DF91CF910895CF92DF92EF92FF920F9344
:1019B0001F93CF93DF937C016B01EA0100D000D02D
:1019C00007E414E0EDB7FEB7128301838FED91E0D9
:1019D000948383830E94532C0F900F900F900F904D
:1019E000CA30D10581F0C436D10521F0C130D1050E
:1019F00019F512C000D000D0EDB7FEB712830183F5
:101A00008DED91E011C000D000D0EDB7FEB712838C
:101A100001838AED91E008C000D000D0EDB7FEB799
:101A20001283018386ED91E0948383830E94532C7B
:101A30000F900F900F900F9040917204509173048B
:101A40002091A6053091A705C9018C599F4F841795
:101A500095071CF4CE0DDF1D0BC0245630404217F5
:101A6000530714F0E70116C0C7018C1B9D0BEC0156
:101A7000CE15DF0579F08DE396E0B6014C2F0E947C
:101A80001C330894C11CD11C8DE396E0B6014D2F88
:101A90000E941C33CE01DF91CF911F910F91FF90D7
:101AA000EF90DF90CF900895CF92DF92EF92FF9268
:101AB0000F931F937C01D62EC72E07E414E0C801B4
:101AC0006E2D4D2D0E94980400D000D0EDB7FEB7CA
:101AD0001283018383E392E0948383830E94532CD7
:101AE000EDB7FEB71283018383E292E09483838390
:101AF0000E94532CEDB7FEB71283018383E192E07D
:101B0000948383830E94532CEDB7FEB71283018325
:101B100083E092E0948383830E94532CEDB7FEB759
:101B20001283018384EF91E0948383830E94532C7A
:101B30000F900F900F900F90C8010E944C04C701A6
:101B400001966D2D7C2D0E949F0A1F910F91FF9091
:101B5000EF90DF90CF9008950F931F93282F462F7B
:101B600007E414E0C801622F0E9498042091A805A0
:101B70003091A9058DB79EB70C970FB6F8949EBF0C
:101B80000FBE8DBFEDB7FEB73196ADB7BEB712969B
:101B90001C930E9311978BE191E09383828383EBE7
:101BA00090E095838483C9016CE370E00E94193A48
:101BB000CB016CE370E00E94193A978386838AE335
:101BC00090E091878087C9016CE370E00E94193A28
:101BD000938782870E94642C8DB79EB70C960FB6B0
:101BE000F8949EBF0FBE8DBFC8010E944C041F9188
:101BF0000F9108950F931F93282F462F07E414E0A9
:101C0000C801622F0E9498048DB79EB70C970FB63B
:101C1000F8949EBF0FBE8DBFEDB7FEB73196ADB73E
:101C2000BEB712961C930E93119787E291E09383AF
:101C3000828383EE90E09583848380918C049091DD
:101C40008D04A0918E04B0918F0486839783A08722
:101C5000B18780EB90E0938782870E94642C8DB7D8
:101C60009EB70C960FB6F8949EBF0FBE8DBFC801ED
:101C70000E944C041F910F9108950F931F93282FDA
:101C8000462F07E414E0C801622F0E9498048DB724
:101C90009EB70C970FB6F8949EBF0FBE8DBFEDB7E1
:101CA000FEB73196ADB7BEB712961C930E9311973F
:101CB00081E391E09383828387EB90E09583848333
:101CC0008091500390915103A0915203B09153031E
:101CD00086839783A087B18785E290E09387828788
:101CE0000E94642C8DB79EB70C960FB6F8949EBFD9
:101CF0000FBE8DBFC8010E944C041F910F91089523
:101D0000EF92FF920F931F93282F462F37E4E32E75
:101D100034E0F32EC701622F0E9498048DB79EB75E
:101D20000C970FB6F8949EBF0FBE8DBF0DB71EB7B0
:101D30000F5F1F4FEDB7FEB7F282E1828BE391E0B8
:101D4000F8019383828384EE90E09583848360918D
:101D5000AA057091AB05882777FD8095982F0E9482
:101D6000A1372AE037ED43E25CE30E94D438F80162
:101D700066837783808791878FE890E09387828757
:101D80000E94642C8DB79EB70C960FB6F8949EBF38
:101D90000FBE8DBFC7010E944C041F910F91FF9091
:101DA000EF900895CF92DF92EF92FF920F931F93DF
:101DB000CF93DF93282F462F87E494E0622F0E9471
:101DC0009804C090AC05D090AD05E090AE05F090C1
:101DD000AF05C0915403D09155038091B00590E0B8
:101DE000805D9E4F8C9FB0018D9F700D9C9F700DEC
:101DF0001124882777FD8095982F0E94A13720E035
:101E000030E048EC52E40E9406379B01AC01C70168
:101E1000B6010E94FF36181614F428EB01C024EB1B
:101E20008DB79EB740970FB6F8949EBF0FBE8DBF7B
:101E3000EDB7FEB7319607E414E0ADB7BEB7129622
:101E40001C930E93119785E491E093838283D5834D
:101E5000C48380E890E097838683822F992787FD4B
:101E6000909591878087C286D386E486F5868EE832
:101E700090E0978786870E94642C8DB79EB7409626
:101E80000FB6F8949EBF0FBE8DBFC8010E944C04D0
:101E9000DF91CF911F910F91FF90EF90DF90CF9046
:101EA00008950F931F93CF93DF93282F462F87E436
:101EB00094E0622F0E94980480916F04882319F4A3
:101EC000C3E5D1E057C0813019F4C7E5D1E052C075
:101ED000823019F4CBE5D1E04DC0833019F4CFE561
:101EE000D1E048C0843019F4C3E6D1E043C0853066
:101EF00019F4C7E6D1E03EC0863019F4CBE6D1E054
:101F000039C0873019F4CFE6D1E034C0883019F4F5
:101F1000C3E7D1E02FC0893019F4C7E7D1E02AC068
:101F20008A3019F4CBE7D1E025C08B3019F4CFE724
:101F3000D1E020C08C3019F4C3E8D1E01BC08D3053
:101F400019F4C7E8D1E016C08E3019F4CBE8D1E01F
:101F500011C08F3019F4CFE8D1E00CC0803119F4F2
:101F6000C3E9D1E007C0813119F0C7E9D1E002C06F
:101F7000C8E9D1E08150863090F480916E048823C6
:101F800071F00E94A5342CE231E040E050E00E9464
:101F90002C3A20FF02C024E003C020E201C020EE62
:101FA0008DB79EB708970FB6F8949EBF0FBE8DBF32
:101FB000EDB7FEB7319607E414E0ADB7BEB71296A1
:101FC0001C930E9311978CE991E093838283822F67
:101FD000992787FD909595838483D783C6830E9434
:101FE000642C8DB79EB708960FB6F8949EBF0FBEAF
:101FF0008DBFC8010E944C04DF91CF911F910F91BA
:1020000008950F931F93282F462F07E414E0C8016B
:10201000622F0E9498048DB79EB70A970FB6F89466
:102020009EBF0FBE8DBFEDB7FEB73196ADB7BEB741
:1020300012961C930E93119781EA91E09383828309
:1020400087E890E095838483809170049091710477
:102050009783868385E290E0918780870E94642C35
:102060008DB79EB70A960FB6F8949EBF0FBE8DBF70
:10207000C8010E944C041F910F9108950F931F9364
:10208000282F462F07E414E0C801622F0E9498040D
:102090008DB79EB708970FB6F8949EBF0FBE8DBF41
:1020A000EDB7FEB73196ADB7BEB712961C930E933F
:1020B00011978BEA91E093838283809160049091E1
:1020C00061049583848381EB90E0978386830E94EB
:1020D000642C8DB79EB708960FB6F8949EBF0FBEBE
:1020E0008DBFC8010E944C041F910F9108950F935A
:1020F0001F93282F462F07E414E0C801622F0E9487
:1021000098048DB79EB708970FB6F8949EBF0FBE80
:102110008DBFEDB7FEB73196ADB7BEB712961C9323
:102120000E9311978BEA91E09383828380915E04F2
:1021300090915F049583848382EB90E097838683FC
:102140000E94642C8DB79EB708960FB6F8949EBF78
:102150000FBE8DBFC8010E944C041F910F910895BE
:102160000F931F93282F462F07E414E0C801622F16
:102170000E9498048DB79EB70E970FB6F8949EBF35
:102180000FBE8DBFEDB7FEB73196ADB7BEB7129695
:102190001C930E93119781EB91E09383828381EEE0
:1021A00090E09583848380919004992787FD909592
:1021B000978386838CE890E0918780878091910453
:1021C000828713868BE890E0958784870E94642C31
:1021D0008DB79EB70E960FB6F8949EBF0FBE8DBFFB
:1021E000C8010E944C041F910F9108950F931F93F3
:1021F000282F462F07E414E0C801622F0E9498049C
:102200008DB79EB742970FB6F8949EBF0FBE8DBF95
:10221000EDB7FEB73196ADB7BEB712961C930E93CD
:1022200011978FEB91E09383828380ED91E095830A
:1022300084838091680490916904A0916A04B091AC
:102240006B0486839783A087B18780EB90E09387A8
:10225000828780ED90E09587848781EB95E0978772
:10226000868781ED90E0918B808B0E94642C8DB7E6
:102270009EB742960FB6F8949EBF0FBE8DBFC801A1
:102280000E944C041F910F9108950F931F93282FC4
:10229000462F07E414E0C801622F0E9498048DB70E
:1022A0009EB70C970FB6F8949EBF0FBE8DBFEDB7CB
:1022B000FEB73196ADB7BEB712961C930E93119729
:1022C00087E291E09383828386E190E09583848323
:1022D0008091840490918504A0918604B091870434
:1022E00086839783A087B18788E890E09387828769
:1022F0000E94642C8DB79EB70C960FB6F8949EBFC3
:102300000FBE8DBFC8010E944C041F910F9108950C
:10231000CF92DF92EF92FF920F931F93CF93DF93B1
:10232000282F462FC7E4D4E0CE01622F0E949804E4
:10233000C090BD05D090BE05E090BF05F090C005EF
:10234000C701B6010E946E37695E734080409040BD
:102350008CF18DB79EB70C970FB6F8949EBF0FBE49
:102360008DBF0DB71EB70F5F1F4FADB7BEB712962B
:10237000DC93CE9311978BE391E0F80193838283F2
:102380008EEF90E095838483C701B60120E030E0B2
:102390004AE754E40E940637D80116966D937D9360
:1023A0008D939C9319978DEF90E01B969C938E9341
:1023B0001A9721C08DB79EB70C970FB6F8949EBFA1
:1023C0000FBE8DBFEDB7FEB73196ADB7BEB7129653
:1023D000DC93CE9311978AED91E0938382838EEF05
:1023E00090E095838483C682D782E086F1868DE86B
:1023F00090E0938782870E94642CEDB7FEB73C96ED
:102400000FB6F894FEBF0FBEEDBF87E494E00E94C4
:102410004C04DF91CF911F910F91FF90EF90DF90CF
:10242000CF900895EF92FF920F931F93282F462F7E
:1024300057E4E52E54E0F52EC701622F0E94980460
:102440008DB79EB70C970FB6F8949EBF0FBE8DBF89
:102450000DB71EB70F5F1F4FEDB7FEB7F282E182D7
:1024600087E291E0F8019383828388EE90E0958380
:1024700084836091C1057091C2058091C3059091DC
:10248000C40526E636E646E650E40E94D438F80154
:10249000668377838087918781E890E0938782873E
:1024A0000E94642C8DB79EB70C960FB6F8949EBF11
:1024B0000FBE8DBFC7010E944C041F910F91FF906A
:1024C000EF900895EF92FF920F931F93282F462FBE
:1024D00067E4E62E64E0F62EC701622F0E9498049E
:1024E0008DB79EB70C970FB6F8949EBF0FBE8DBFE9
:1024F0000DB71EB70F5F1F4FEDB7FEB7F282E18237
:1025000087E291E0F8019383828389EE90E09583DE
:102510008483609180047091810480918204909101
:10252000830426E636E646E650E40E94D438F801F5
:10253000668377838087918781E890E0938782879D
:102540000E94642C8DB79EB70C960FB6F8949EBF70
:102550000FBE8DBFC7010E944C041F910F91FF90C9
:10256000EF900895CF92DF92EF92FF920F931F9317
:10257000282F462FB7E4CB2EB4E0DB2EC601622F06
:102580000E94980460917C0470917D0480917E0487
:1025900090917F042DB73EB7245130400FB6F89488
:1025A0003EBF0FBE2DBF0DB71EB70F5F1F4FEDB75C
:1025B000FEB7D282C18224EE31E0F8013383228358
:1025C00025E830E03583248366837783808791878D
:1025D000ADE8EA2EF12CF386E28627EE30E035876F
:1025E00024872091C5053091C6054091C7055091BB
:1025F000C8050E943836F80166877787808B918BF3
:10260000F38AE28A0E94642C2DB73EB72C5E3F4FBE
:102610000FB6F8943EBF0FBE2DBFC6010E944C04FA
:102620001F910F91FF90EF90DF90CF900895EF9260
:10263000FF920F931F93282F462F17E4E12E14E0EB
:10264000F12EC701622F0E9498048DB79EB70C9798
:102650000FB6F8949EBF0FBE8DBF0DB71EB70F5FAC
:102660001F4FEDB7FEB7F282E18288EF91E0F801EB
:102670009383828386EE90E09583848360918804BF
:102680007091890480918A0490918B0420914C036D
:1026900030914D0340914E0350914F030E943836C4
:1026A000F80166837783808791878DE890E0938730
:1026B00082870E94642C8DB79EB70C960FB6F89453
:1026C0009EBF0FBE8DBFC7010E944C041F910F918A
:1026D000FF90EF9008950F931F93282F462F07E444
:1026E00014E0C801622F0E9498048091C9050E94DD
:1026F000190CC8010E944C041F910F910895CF92AC
:10270000DF92EF92FF920F931F93CF93DF93282FC7
:10271000462FC7E4D4E0CE01622F0E949804609156
:10272000CA057091CB058091CC059091CD050E9492
:10273000A1376B017C0120E030E44CE156E40E94BB
:10274000FF36882314F58DB79EB70C970FB6F89413
:102750009EBF0FBE8DBFEDB7FEB73196ADB7BEB70A
:102760001296DC93CE93119788EF91E09383828346
:1027700082E190E095838483C682D782E086F186E9
:102780008DE890E09387828730C08DB79EB70C9715
:102790000FB6F8949EBF0FBE8DBF0DB71EB70F5F6B
:1027A0001F4FADB7BEB71296DC93CE93119782E060
:1027B00092E0F8019383828382E190E095838483A1
:1027C000C701B60120E030E04AE754E40E94063732
:1027D000D80116966D937D938D939C9319978DEFE9
:1027E00090E01B969C938E931A970E94642CEDB7F1
:1027F000FEB73C960FB6F894FEBF0FBEEDBF87E460
:1028000094E00E944C04DF91CF911F910F91FF90B3
:10281000EF90DF90CF900895BF92CF92DF92EF922A
:10282000FF920F931F93CF93DF93282F462F87E4B8
:1028300094E0622F0E9498042091CE053091CF053C
:1028400037FF02C04AE801C047EFC091D005D091E0
:10285000D105D7FF03C06AE8B62E02C058EFB52EE7
:102860008DB79EB74C970FB6F8949EBF0FBE8DBF25
:102870000DB71EB70F5F1F4F97E4C92E94E0D92EF6
:10288000EDB7FEB7D282C1828CE092E0F80193836B
:102890008283842F992787FD909595838483B9013E
:1028A000882777FD8095982F0E94A137F8016683CD
:1028B0007783808791878DE8E82EF12CF386E28676
:1028C0008B2D992787FD909595878487BE01882752
:1028D00077FD8095982F0E94A137F801668777874A
:1028E000808B918BF38AE28A8BEF90E0958B848BBF
:1028F0006091D2057091D3058091D4059091D50552
:1029000020E030E04AE754E40E940637F801668B85
:10291000778B808F918F84EF90E0938F828F0E94CE
:10292000642C8DB79EB74C960FB6F8949EBF0FBE21
:102930008DBFC6010E944C04DF91CF911F910F9172
:10294000FF90EF90DF90CF90BF9008950F931F936B
:10295000282F462F07E414E0C801622F0E94980434
:102960008DB79EB70C970FB6F8949EBF0FBE8DBF64
:10297000EDB7FEB73196ADB7BEB712961C930E9366
:1029800011978AE292E0938382838091640490910C
:102990006504A0916604B091670484839583A6833F
:1029A000B7838091760490917704A0917804B091D8
:1029B000790480879187A287B3870E94642C8DB7A2
:1029C0009EB70C960FB6F8949EBF0FBE8DBFC80180
:1029D0000E944C041F910F9108950F931F93282F6D
:1029E000462F87E494E0622F0E94980480917B0434
:1029F000282F30E0823030F474E0220F331F7A95B4
:102A0000E1F702C02150304000D000D000D0EDB737
:102A1000FEB7319607E414E0ADB7BEB712961C932B
:102A20000E93119780E091E0938382833583248312
:102A30000E94642C8DB79EB706960FB6F8949EBF81
:102A40000FBE8DBFC8010E944C041F910F910895C5
:102A50000F931F93282F462F07E414E0C801622F1D
:102A60000E9498048DB79EB708970FB6F8949EBF42
:102A70000FBE8DBFEDB7FEB73196ADB7BEB712969C
:102A80001C930E93119786E392E0938382838FE0E9
:102A900090E09583848380917A04868317820E94D4
:102AA000642C8DB79EB708960FB6F8949EBF0FBEE4
:102AB0008DBFC8010E944C041F910F9108950F9380
:102AC0001F93282F462F07E414E0C801622F0E94AD
:102AD000980400D000D0EDB7FEB71283018383E4E1
:102AE00092E0948383830E94532C0F900F900F9059
:102AF0000F90C8010E944C041F910F910895EF920E
:102B0000FF920F931F93CF93DF930E94A5342091E0
:102B1000DF053091E0054091E1055091E20526176F
:102B200037074807590708F0E6C20E94A5346C50E1
:102B30007E4F8F4F9F4F6093DF057093E00580932A
:102B4000E1059093E20507E414E0C8010E94E20465
:102B5000C80165E043E00E94980400D000D0ADB702
:102B6000BEB712961C930E93119788ED92E01496BF
:102B70009C938E9313970E94532C0F900F900F905D
:102B80000F908091A6059091A705892B31F0809137
:102B9000D6059091D705892B81F48091720490918C
:102BA00073049093A7058093A60580917404909177
:102BB00075049093D7058093D605209174043091C5
:102BC00075044091D6055091D705C90184569040AF
:102BD0004817590724F48091DE058F5F08C02C59EF
:102BE0003F4F241735072CF48091DE0581508093E8
:102BF000DE058091DE05823014F482E003C08E3061
:102C00001CF08DE08093DE058091DE05873009F4AD
:102C1000F4C088308CF4843009F494C0853034F4E6
:102C2000823091F1833009F062C222C08530E9F030
:102C3000863009F05CC225C08A3009F451C18B305E
:102C400034F4883079F0893009F051C217C08C30E3
:102C500091F08C3024F08D3009F049C2C5C1C4E632
:102C6000D0E0C9C1C4E6D0E042C1C4E6D0E0CCC0E7
:102C7000CAE0D0E00BC084E690E0B8C184E690E002
:102C800031C184E690E0BBC0C4E6D0E000D000D003
:102C9000B7E4EB2EB4E0FB2EEDB7FEB7F282E18293
:102CA00089EC92E0948383830E94532C8DB79EB766
:102CB00008970FB6F8949EBF0FBE8DBF0DB71EB715
:102CC0000F5F1F4FADB7BEB71296FC92EE921197F1
:102CD0008CE392E0F80193838283609156037091B4
:102CE0005703882777FD8095982F0E94A137D80138
:102CF00014966D937D938D939C93179782E890E043
:102D000019969C938E93189780E290E01B969C9363
:102D10008E931A970E94642CEDB7FEB73C960FB6BF
:102D2000F894FEBF0FBEEDBF8091560390915703FC
:102D30006DEF73E0AE010E94D30C90935703809324
:102D40005603D5C100D000D0A7E4EA2EA4E0FA2EA5
:102D5000ADB7BEB71296FC92EE92119789EA92E057
:102D600014969C938E9313970E94532CEDB7FEB745
:102D700038970FB6F894FEBF0FBEEDBF0DB71EB764
:102D80000F5F1F4FF282E18284E492E0D801139634
:102D90009C938E9312976091B00570E0645D7E4FB6
:102DA000882777FD8095982F0E94A13720E030E09A
:102DB00048EC52E40E940637F801648375838683E9
:102DC000978386E790E09187808780E290E0938701
:102DD00082870E94642C8DB79EB70C960FB6F8942C
:102DE0009EBF0FBE8DBF8091B00590E060E873E09C
:102DF0000E94A80C8093B0057AC18AE090E06AE056
:102E000070E00E94193AEB0100D000D007E414E012
:102E1000ADB7BEB712961C930E9311978EE892E051
:102E200014969C938E9313970E94532CEDB7FEB784
:102E300038970FB6F894FEBF0FBEEDBF3196ADB711
:102E4000BEB712961C930E9311978BE391E0938378
:102E5000828382EE90E0958384838091AC0590918B
:102E6000AD05A091AE05B091AF0586839783A0878D
:102E7000B1878EE890E0938782870E94642CEDB73B
:102E8000FEB736960FB6F894FEBF0FBEEDBF319673
:102E9000ADB7BEB712961C930E9311978CE492E0D7
:102EA000938382838091D8059091D90595838483FB
:102EB0000E94642CEDB7FEB736960FB6F894FEBFAD
:102EC0000FBEEDBF8091D8059091D90564EF73E0F6
:102ED000AE010E94D30C9093D9058093D80507C109
:102EE0008AE090E06AE070E00E94193AEB0100D0BD
:102EF00000D0F7E4EF2EF4E0FF2EADB7BEB7129688
:102F0000FC92EE92119783E792E014969C938E9335
:102F100013970E94532CEDB7FEB738970FB6F8946D
:102F2000FEBF0FBEEDBF0DB71EB70F5F1F4FF28282
:102F3000E1828BE391E0D80113969C938E931297D4
:102F400084EE90E015969C938E9314976091AA0559
:102F50007091AB05882777FD8095982F0E94A13747
:102F60002AE037ED43E25CE30E94D438F80166833F
:102F70007783808791878FE890E0938782870E948C
:102F8000642C8DB79EB706960FB6F8949EBF0FBE01
:102F90008DBFEDB7FEB73196ADB7BEB71296FC92B6
:102FA000EE92119783E692E0938382838091DA0513
:102FB0009091DB05958384830E94642CEDB7FEB766
:102FC00036960FB6F894FEBF0FBEEDBF8091DA05BE
:102FD0009091DB0568EF73E0AE010E94D30C9093F3
:102FE000DB058093DA0583C08AE090E06AE070E058
:102FF0000E94193AEB0100D000D0E7E4EE2EE4E0A5
:10300000FE2EADB7BEB71296FC92EE92119788E5F0
:1030100092E014969C938E9313970E94532CEDB7D5
:10302000FEB738970FB6F894FEBF0FBEEDBF0DB7D1
:103030001EB70F5F1F4FF282E1828BE391E0D80150
:1030400013969C938E93129784EE90E015969C9322
:103050008E9314976091AA057091AB05882777FD30
:103060008095982F0E94A1372AE037ED43E25CE378
:103070000E94D438F80166837783808791878FE830
:1030800090E0938782870E94642C8DB79EB7069646
:103090000FB6F8949EBF0FBE8DBFEDB7FEB7319649
:1030A000ADB7BEB71296FC92EE9211978AE792E006
:1030B000938382838091DC059091DD0595838483E1
:1030C0000E94642CEDB7FEB736960FB6F894FEBF9B
:1030D0000FBEEDBF8091DC059091DD0566EF73E0DA
:1030E000AE010E94D30C9093DD058093DC0587E44C
:1030F00094E00E944C04DF91CF911F910F91FF90BB
:10310000EF9008952F923F924F925F926F927F922D
:103110008F929F92AF92BF92CF92DF92EF92FF92E7
:103120000F931F93DF93CF93CDB7DEB72F970FB6D3
:10313000F894DEBF0FBECDBF8C876D870E94A5348B
:103140002091E3053091E4054091E5055091E605B5
:10315000261737074807590708F0EBC18091E705A4
:103160008823C9F0809358031092E70581E992E023
:103170009093F6058093F5050E94A534625A7E4F20
:103180008F4F9F4F6093E3057093E4058093E505AF
:103190009093E60588C180915803282E3324C0906F
:1031A0006D04209192042B87309193043A87D0903C
:1031B0006C04E090E905F090EA050091F5051091A6
:1031C000F60540915904498350917B0459878091B9
:1031D000E80588874090AC055090AD056090AE053D
:1031E0007090AF058091B00590E0845D9E4F209176
:1031F000540330915503DC01A29FC001A39F900DA1
:10320000B29F900D1124B0919004BF83E09191047E
:10321000EE832091CE053091CF053D832C834091E4
:10322000D0055091D1055B834A833F862E864C01A1
:10323000AA2497FCA094BA2C8E859F8501969F871F
:103240008E8709972CF0A1E0B0E0BF87AE8727C03A
:10325000EE85FF85E430F10509F454C0E530F10551
:103260005CF4E230F105D1F1E330F1050CF03EC041
:10327000319709F09BC013C02E853F85263031055C
:1032800009F461C0263031050CF453C027303105F4
:1032900009F465C02830310509F088C078C031E0F4
:1032A0003C15A0F0C31619F40EE912E015C04B85C9
:1032B000413049F45A85513031F482E08D1518F0CF
:1032C0000BEA12E009C008EB12E006C09A859130C3
:1032D00009F46CC005EC12E081E06FC0A981A33055
:1032E00009F464C002ED12E082E067C0B985B23033
:1032F00008F05CC0E885EE2309F458C00FED12E039
:1033000083E05BC0C501B4010E94A13720E030E03A
:1033100048EC52E40E9406379B01AC01C301B201A4
:103320000E94FF3688230CF041C00CEE12E084E0CE
:1033300044C0F1E0EF16F104C9F509EF12E0EE2404
:10334000FF2485E03AC02F812C3A2CF03E8139369B
:1033500068F5222359F106E013E086E02EC041E033
:103360004C1520F14D1510F552E0D51619F403E176
:1033700013E005C083E0D81621F400E213E087E0F3
:103380001CC094E0D916D9F70DE213E0F8CFA1E004
:10339000AC1560F4EC81FD81F7FD04C02A813B810E
:1033A00037FF04C00AE313E088E007C04E855F855D
:1033B0004215530509F040CFA1C0F092EA05E09212
:1033C000E9051093F6050093F5058093E70581E084
:1033D0008093EB050E94A53464547D4F8F4F9F4F1F
:1033E0006093E3057093E4058093E5059093E6050B
:1033F0000E94A5346854744F8F4F9F4F6093F1051E
:103400007093F2058093F3059093F4058091EC0599
:103410009091ED05A091EE05B091EF050097A10503
:10342000B10571F40E94A5346059784E8F4F9F4FBB
:103430006093EC057093ED058093EE059093EF0596
:103440008091F005882379F40E94A5342091EC0541
:103450003091ED054091EE055091EF0526173707A5
:103460004807590720F087E494E00E94E2040E9494
:10347000A5342091EC053091ED054091EE05509179
:10348000EF05261737074807590768F01092F0052F
:103490000AC01092EB051092EC051092ED05109207
:1034A000EE051092EF0507E414E0C8016C854D8528
:1034B0000E94980400D000D000D0EDB7FEB731963E
:1034C000ADB7BEB712961C930E93119787E493E0A5
:1034D000938382838091F5059091F605958384838B
:1034E0000E94642CEDB7FEB736960FB6F894FEBF77
:1034F0000FBEEDBFC8010E944C041BC0F092EA054C
:10350000E092E9051093F6050093F5051092E705A2
:103510000E94A5342091F1053091F2054091F30508
:103520005091F405261737074807590708F4B1CF1B
:10353000BACF2F960FB6F894DEBF0FBECDBFCF9196
:10354000DF911F910F91FF90EF90DF90CF90BF9090
:10355000AF909F908F907F906F905F904F903F9033
:103560002F90089520914A0330914B03C90189504F
:1035700097408F5A9440D0F580916D04882321F4B0
:1035800081E08093F7052EC08091F705882351F5DF
:103590008091EB05882311F10E94A5342091EC0560
:1035A0003091ED054091EE055091EF052617370754
:1035B00048075907B8F40E94A5342091E3053091DB
:1035C000E4054091E5055091E605261737074807C1
:1035D000590740F48091E705882321F487E494E0BB
:1035E0000E94E20482E08093F005089584E0203B8D
:1035F000380768F48091F005882349F01092F705A8
:1036000087E494E00E94E2041092F0050895205BA4
:1036100034402955324000F58091F0058130E1F0C9
:103620008091EB05882379F00E94A5342091EC0568
:103630003091ED054091EE055091EF0526173707C3
:103640004807590748F41092F70587E494E00E9470
:10365000E20481E08093F0050895EF92FF920F93CA
:103660001F938091F705882309F060C080916D0455
:10367000823008F05BC08091E805813009F056C0C7
:103680008091720490917304895097400CF44EC05D
:103690008091740490917504805B94400CF046C056
:1036A0008091640490916504A0916604B0916704D0
:1036B0008093F8059093F905A093FA05B093FB0564
:1036C0008091760490917704A0917804B091790468
:1036D0008093FC059093FD05A093FE05B093FF0534
:1036E00080917C0490917D04A0917E04B0917F0430
:1036F0008093C5059093C605A093C705B093C805F0
:103700008091880490918904A0918A04B0918B04DF
:1037100080934C0390934D03A0934E03B0934F03BB
:1037200081E090E09093EA058093E905809100069E
:1037300090910106A0910206B09103060097A105A1
:10374000B10509F04EC08091700490917104079703
:1037500008F447C080916D04823008F442C00E9492
:10376000A53460930006709301068093020690933F
:1037700003061092050610920406809106069091A9
:103780000706909309068093080680915003909154
:103790005103A0915203B091530380935903909326
:1037A0005A03A0935B03B0935C0380E090E0A0E039
:1037B000B0E08093BD059093BE05A093BF05B09384
:1037C000C0058091880490918904A0918A04B091E9
:1037D0008B0480934C0390934D03A0934E03B093BE
:1037E0004F038091000690910106A0910206B091CE
:1037F00003060097A105B10509F462C08091700429
:1038000090917104079720F480916E04882359F1F8
:1038100080916D04823038F10E94A5342091000619
:10382000309101064091020650910306621B730B12
:10383000840B950B28EE33E040E050E00E942C3AD8
:103840003093A9052093A80580910606909107065C
:103850002091080630910906821B930B9093050670
:10386000809304064DC00E94A5347B018C016091B9
:10387000A8057091A905882777FD8095982F28E1E4
:103880003CEF4FEF5FEF0E94FA39E60EF71E081F7C
:10389000191FE0920006F0920106009302061093B1
:1038A0000306809106069091070620910406309148
:1038B0000506821B930B909309068093080620C08F
:1038C0000E94A53428EE33E040E050E00E942C3AFC
:1038D0003093A9052093A8051092050610920406BE
:1038E0008091500390915103A0915203B0915303E2
:1038F0008093590390935A03A0935B03B0935C03A6
:103900000E94B21A8091F705882319F00E947F1552
:1039100049C28091C20380FF08C060911804809161
:10392000160490E070E00E9482188091F0058230C9
:10393000A8F08091EB05882309F434C20E94A534D5
:103940002091EC053091ED054091EE055091EF0589
:10395000261737074807590708F424C28091F00555
:1039600080930A06823011F41092F0058091F005E0
:10397000A82FB0E0FD01E454FC4F808185FF0BC00F
:10398000FD01EC52FC4F6081AE52BC4F8C9190E037
:1039900070E00E9428158091F005A82FB0E0FD018D
:1039A000E454FC4F808186FF0BC0FD01E852FC4FC0
:1039B0006081AA52BC4F8C9190E070E00E94ED149F
:1039C0008091F005A82FB0E0FD01EE53FC4F8081FF
:1039D00083FF0BC0FD01E45EFB4F6081A65EBB4F21
:1039E0008C9190E070E00E9445118091E805882359
:1039F00009F454C08091F005A82FB0E0FD01E45413
:103A0000FC4F808187FF0BC0FD01E452FC4F6081B9
:103A1000A652BC4F8C9190E070E00E94A614809159
:103A2000F005A82FB0E0FD01E254FC4F808184FF37
:103A30000BC0FD01E451FC4F6081A651BC4F8C913D
:103A400090E070E00E947F138091F005A82FB0E015
:103A5000FD01E254FC4F808183FF0BC0FD01E85162
:103A6000FC4F6081AA51BC4F8C9190E070E00E94A5
:103A70006B138091F005A82FB0E0FD01E254FC4FDC
:103A8000808186FF0BC0FD01E051FC4F6081A25197
:103A9000BC4F8C9190E070E00E940C148091F00576
:103AA000A82FB0E0FD01E054FC4F808187FF0BC0E0
:103AB000FD01E050FC4F6081A250BC4F8C9190E022
:103AC00070E00E9417138091E805882309F459C01B
:103AD00080917B04823008F454C08091F005A82FB7
:103AE000B0E0FD01EC53FC4F808182FF0BC0FD0173
:103AF000EC5DFB4F6081AE5DBB4F8C9190E070E060
:103B00000E9488118091F005A82FB0E0FD01E054DB
:103B1000FC4F808182FF0BC0FD01E450FC4F6081AF
:103B2000A650BC4F8C9190E070E00E94B212809140
:103B3000F005A82FB0E0FD01E054FC4F808183FF29
:103B40000BC0FD01EC5FFB4F6081AE5FBB4F8C9102
:103B500090E070E00E9462128091F005A82FB0E022
:103B6000FD01E054FC4F808181FF0BC0FD01E85F47
:103B7000FB4F6081AA5FBB4F8C9190E070E00E9488
:103B800012128091E805882321F080917B04823015
:103B900028F480916C0481508330A8F48091F00562
:103BA000A82FB0E0FD01E254FC4F808180FF0BC0E4
:103BB000FD01EC51FC4F6081AE51BC4F8C9190E007
:103BC00070E00E94F6108091F005A82FB0E0FD0192
:103BD000EE53FC4F808186FF0FC0809190048823B4
:103BE00059F0FD01E05EFB4F6081A25EBB4F8C91FE
:103BF00090E070E00E94B0108091F005A82FB0E036
:103C0000FD01E454FC4F808182FF0BC0FD01E453B1
:103C1000FC4F6081A653BC4F8C9190E070E00E94F5
:103C200077108091F005A82FB0E0FD01E454FC4F1F
:103C3000808181FF0BC0FD01E853FC4F6081AA53D6
:103C4000BC4F8C9190E070E00E943E108091F00596
:103C5000A82FB0E0FD01E054FC4F808184FF0BC031
:103C6000FD01E45FFB4F6081A65FBB4F8C9190E04C
:103C700070E00E9401108091F005A82FB0E0FD01D6
:103C8000E054FC4F808185FF0BC0FD01E05FFB4FDE
:103C90006081A25FBB4F8C9190E070E00E94510F59
:103CA0008091F005A82FB0E0FD01E454FC4F808125
:103CB00083FF0BC0FD01E053FC4F6081A253BC4F5A
:103CC0008C9190E070E00E94D20E8091F005A82FB8
:103CD000B0E0FD01E054FC4F808180FF0BC0FD018E
:103CE000E850FC4F6081AA50BC4F8C9190E070E08E
:103CF0000E94800E8091F005A82FB0E0FD01E454F1
:103D0000FC4F808184FF0BC0FD01E052FC4F6081BD
:103D1000A252BC4F8C9190E070E00E943D0E8091C9
:103D2000F005A82FB0E0FD01EC53FC4F808181FF2E
:103D30000BC0FD01E85DFB4F6081AA5DBB4F8C911C
:103D400090E070E00E94FA0D8091F005A82FB0E09D
:103D5000FD01E254FC4F808187FF0BC0FD01EC5058
:103D6000FC4F6081AE50BC4F8C9190E070E00E949F
:103D7000AC0D8091F005A82FB0E0FD01E054FC4FA0
:103D8000808186FF0BC0FD01EC5EFB4F6081AE5E63
:103D9000BB4F8C9190E070E00E94540D80910A0618
:103DA0008093F0051F910F91FF90EF90089587E4A5
:103DB00094E00E94E2040895CF93DF93EC0187E43E
:103DC00094E00E941904C817D9073CF087E494E0F6
:103DD0000E940E04892B09F42397CE01DF91CF9125
:103DE0000895FF920F931F930DE316E0C80160E85A
:103DF00073E00E9415338093B005C8016DEF73E046
:103E00000E941533F82EC8016EEF73E00E9415333F
:103E1000382F20E02F0D311D309357032093560388
:103E2000C80164EF73E00E941533F82EC80165EFF6
:103E300073E00E941533382F20E02F0D311D309391
:103E4000D9052093D805C80166EF73E00E941533A9
:103E5000F82EC80167EF73E00E941533382F20E079
:103E60002F0D311D3093DD052093DC05C80168EF6F
:103E700073E00E941533F82EC80169EF73E00E94C9
:103E80001533382F20E02F0D311D3093DB052093A3
:103E9000DA051F910F91FF900895BC018DE396E024
:103EA0000E9415330895EF92FF920F931F93CF93C3
:103EB000DF930091F00510E08AEF90E0089F700119
:103EC000099FF00C189FF00C1124C70188569F4FD2
:103ED0000E944D1FF801E454FC4F882319F08081A3
:103EE000806102C080818F7E80838091F005C82F21
:103EF000D0E0C70186569F4F0E944D1FC252DC4F33
:103F000088838091F005C82FD0E0C70184569F4F69
:103F10000E944D1F90E00E94DC1EC052DC4F88833F
:103F20000091F00510E0C70106960E944D1FF801B0
:103F3000E454FC4F882319F08081826002C08081A4
:103F40008D7F80838091F005C82FD0E0C70108964F
:103F50000E944D1FCA53DC4F88838091F005C82F03
:103F6000D0E0C7010A960E944D1F90E00E94DC1E1F
:103F7000C853DC4F88830091F00510E0C7010C9610
:103F80000E944D1FF801E454FC4F882319F08081F2
:103F9000846002C080818B7F80838091F005C82F70
:103FA000D0E0C7010E960E944D1FC653DC4F888398
:103FB0008091F005C82FD0E0C70140960E944D1FA8
:103FC00090E00E94DC1EC453DC4F88830091F00512
:103FD00010E0C70142960E944D1FF801E454FC4FC7
:103FE000882319F08081886002C08081877F808368
:103FF0008091F005C82FD0E0C70144960E944D1F64
:10400000C253DC4F88838091F005C82FD0E0C701F0
:1040100046960E944D1F90E00E94DC1EC053DC4F6C
:1040200088830091F00510E0C7014E960E944D1F55
:10403000F801E454FC4F882319F08081806202C0AB
:1040400080818F7D80838091F005C82FD0E0C701EB
:1040500080960E944D1FCE52DC4F88838091F005E0
:10406000C82FD0E0C70182960E944D1F90E00E94A9
:10407000DC1ECC52DC4F88830091F00510E0C701B4
:1040800084960E944D1FF801E454FC4F882319F0D8
:104090008081806402C080818F7B80838091F00565
:1040A000C82FD0E0C70186960E944D1FCA52DC4F30
:1040B00088838091F005C82FD0E0C70188960E94C0
:1040C0004D1F90E00E94DC1EC852DC4F8883009197
:1040D000F00510E0C7018A960E944D1FF801E454D4
:1040E000FC4F882319F08081806802C080818F771F
:1040F00080838091F005C82FD0E0C7018C960E9484
:104100004D1FC652DC4F88838091F005C82FD0E048
:10411000C7018E960E944D1F90E00E94DC1EC45283
:10412000DC4F88830091F00510E0C701C0960E9423
:104130004D1FF801E254FC4F882319F08081816003
:1041400002C080818E7F80838091F005C82FD0E0EF
:10415000C701C2960E944D1FCE51DC4F88838091CB
:10416000F005C82FD0E0C701C4960E944D1F90E013
:104170000E94DC1ECC51DC4F88830091F00510E0DA
:10418000C701885B9F4F0E944D1FF801E254FC4F0E
:10419000882319F08081806102C080818F7E8083B6
:1041A0008091F005C82FD0E0C701865B9F4F0E9429
:1041B0004D1FC651DC4F88838091F005C82FD0E099
:1041C000C701845B9F4F0E944D1F90E00E94DC1E40
:1041D000C451DC4F88830091F00510E0C7018E5B6D
:1041E0009F4F0E944D1FF801E254FC4F882319F0A5
:1041F0008081886002C08081877F80838091F00504
:10420000C82FD0E0C7018C5B9F4F0E944D1FCA5141
:10421000DC4F88838091F005C82FD0E0C7018A5B0E
:104220009F4F0E944D1F90E00E94DC1EC851DC4F42
:1042300088830091F00510E0C7018A5A9F4F0E94C1
:104240004D1FF801E254FC4F882319F080818064EF
:1042500002C080818F7B80838091F005C82FD0E0E1
:10426000C701885A9F4F0E944D1FC251DC4F88835F
:104270008091F005C82FD0E0C701865A9F4F0E9459
:104280004D1F90E00E94DC1EC051DC4F88830091DE
:10429000F00510E0C70182569F4F0E944D1FF801A4
:1042A000E254FC4F882319F08081806802C080812D
:1042B0008F7780838091F005C82FD0E0C7018056AA
:1042C0009F4F0E944D1FCE50DC4F88838091F00598
:1042D000C82FD0E0C7018E559F4F0E944D1F90E020
:1042E0000E94DC1ECC50DC4F88830091F00510E06A
:1042F000C7018E599F4F0E944D1FF801E054FC4F9B
:10430000882319F08081816002C080818E7F808344
:104310008091F005C82FD0E0C7018C599F4F0E94B3
:104320004D1FCA50DC4F88838091F005C82FD0E024
:10433000C7018A599F4F0E944D1F90E00E94DC1ECA
:10434000C850DC4F88830091F00510E0C701825906
:104350009F4F0E944D1FF801E054FC4F882319F035
:104360008081846002C080818B7F80838091F00592
:10437000C82FD0E0C70180599F4F0E944D1FC650E3
:10438000DC4F88838091F005C82FD0E0C7018E589C
:104390009F4F0E944D1F90E00E94DC1EC450DC4FD6
:1043A00088830091F00510E0C70184579F4F0E9459
:1043B0004D1FF801E054FC4F882319F0808180687C
:1043C00002C080818F7780838091F005C82FD0E074
:1043D000C70182579F4F0E944D1FC250DC4F8883F8
:1043E0008091F005C82FD0E0C70180579F4F0E94F1
:1043F0004D1F90E00E94DC1EC050DC4F888300916E
:10440000F00510E0C7018E569F4F0E944D1FF80126
:10441000E054FC4F882319F08081826002C08081C3
:104420008D7F80838091F005C82FD0E0C7018C5626
:104430009F4F0E944D1FCA5FDB4F88838091F0051C
:10444000C82FD0E0C7018A569F4F0E944D1F90E0B1
:104450000E94DC1EC85FDB4F88830091F00510E0EE
:10446000C7018C589F4F0E944D1FF801E054FC4F2C
:10447000882319F08081886002C08081877F8083D3
:104480008091F005C82FD0E0C7018A589F4F0E9445
:104490004D1FCE5FDB4F88838091F005C82FD0E0A1
:1044A000C70188589F4F0E944D1F90E00E94DC1E5C
:1044B000CC5FDB4F88830091F00510E0C701865880
:1044C0009F4F0E944D1FF801E054FC4F882319F0C4
:1044D0008081806102C080818F7E80838091F00521
:1044E000C82FD0E0C70184589F4F0E944D1FC65F60
:1044F000DB4F88838091F005C82FD0E0C701825838
:104500009F4F0E944D1F90E00E94DC1EC45FDB4F56
:1045100088830091F00510E0C70180589F4F0E94EA
:104520004D1FF801E054FC4F882319F08081806210
:1045300002C080818F7D80838091F005C82FD0E0FC
:10454000C7018E579F4F0E944D1FC25FDB4F88836C
:104550008091F005C82FD0E0C7018C579F4F0E9473
:104560004D1F90E00E94DC1EC05FDB4F88830091EE
:10457000F00510E0C7018A579F4F0E944D1FF801B8
:10458000E054FC4F882319F08081806402C0808150
:104590008F7B80838091F005C82FD0E0C7018857BA
:1045A0009F4F0E944D1FCE5EDB4F88838091F005A8
:1045B000C82FD0E0C70186579F4F0E944D1F90E043
:1045C0000E94DC1ECC5EDB4F88830091F00510E07A
:1045D000C7018C559F4F0E944D1FF801EE53FC4FB1
:1045E000882319F08081816002C080818E7F808362
:1045F0008091F005C82FD0E0C7018A559F4F0E94D7
:104600004D1FCA5EDB4F88838091F005C82FD0E034
:10461000C70188559F4F0E944D1F90E00E94DC1EED
:10462000C85EDB4F88830091F00510E0C7018A5413
:104630009F4F0E944D1FF801EE53FC4F882319F045
:104640008081886002C08081877F80838091F005AF
:10465000C82FD0E0C70188549F4F0E944D1FC65EEF
:10466000DB4F88838091F005C82FD0E0C7018654C6
:104670009F4F0E944D1F90E00E94DC1EC45EDB4FE6
:1046800088830091F00510E0C701845A9F4F0E9473
:104690004D1FF801EE53FC4F882319F08081806490
:1046A00002C080818F7B80838091F005C82FD0E08D
:1046B000C701825A9F4F0E944D1FC25EDB4F888305
:1046C0008091F005C82FD0E0C701805A9F4F0E940B
:1046D0004D1F90E00E94DC1EC05EDB4F888300917E
:1046E000F00510E0C70180529F4F0E944D1FF80156
:1046F000EC53FC4F882319F08081846002C08081D4
:104700008B7F80838091F005C82FD0E0C7018E5148
:104710009F4F0E944D1FCE5DDB4F88838091F00537
:10472000C82FD0E0C7018C519F4F0E944D1F90E0D1
:104730000E94DC1ECC5DDB4F88830091F00510E009
:10474000C7018C529F4F0E944D1FF801EC53FC4F44
:10475000882319F08081826002C080818D7F8083F0
:104760008091F005C82FD0E0C7018A529F4F0E9468
:104770004D1FCA5DDB4F88838091F005C82FD0E0C4
:10478000C70188529F4F0E944D1F90E00E94DC1E7F
:10479000C85DDB4F8883DF91CF911F910F91FF9010
:1047A000EF90089583E00E94473508952F923F923D
:1047B0004F925F926F927F928F929F92AF92BF9231
:1047C000CF92DF92EF92FF920F931F93E0900C062F
:1047D000F0900D0600910E0610910F068FE590E007
:1047E000A0E0B0E0E80EF91E0A1F1B1F0E94A534CE
:1047F0006E157F058007910708F4B9C20E94A534A1
:104800001B012C0160900C0670900D0680900E0626
:1048100090900F060E94A53460930C0670930D06CD
:1048200080930E0690930F0683E00E94473586E042
:104830000E944A35AA2797FDA095BA2FBC01CD0149
:104840000E94A1372DEC3CEC4CE85FE30E94D43889
:1048500020E030E040E85AE30E94D4387B018C012C
:104860006091D8057091D905882777FD8095982F9C
:104870000E94A13720E030E048EC52E40E94063765
:104880009B01AC01C801B7010E94D4387B018C01A7
:10489000A0906103B0906203C0906303D090640362
:1048A000C601B50120E030E040E85FEB0E94FF3632
:1048B000882349F4E0926103F0926203009363035A
:1048C0001093640339C0C801B701A60195010E9485
:1048D000FF3618168CF0C801B7012DEC3CEC4CECFF
:1048E0005DE30E94D4387B018C01C601B50126E648
:1048F00036E646E65FE310C0C801B7012AE939E9A8
:1049000049E95EE30E94D4387B018C01C601B50100
:1049100023E333E343E35FE30E94D4389B01AC011C
:10492000C801B7010E943936609361037093620336
:104930008093630390936403E0906103F0906203BB
:104940000091630310916403C801B70126E636E6BF
:104950004EEA51E40E94C93818161CF486E090E033
:104960004BC0C801B7012AE939E94BE851E40E947C
:10497000C93818164CF4809154039091550305974B
:104980001CF485E090E038C0C801B70123E333E3AD
:1049900043E551E40E94C93818164CF48091540341
:1049A0009091550304971CF484E090E025C0C80161
:1049B000B7012DEC3CEC4CE051E40E94C9381816CC
:1049C0004CF4809154039091550303971CF483E0B9
:1049D00090E012C0C801B70120E030E040EA50E4A6
:1049E0000E94C938181664F48091540390915503BD
:1049F000029734F482E090E090935503809354033F
:104A000080910B068823C9F4DD24609154037091D2
:104A10005503882777FD8095982F0E94A1379B0129
:104A2000AC01C801B7010E94063721EE3AE748E819
:104A300050E40E94C938181614F4DD24D394D0929F
:104A40000B06DD2029F088E49DE7A5EEB2E404C062
:104A500087E894E1A9E0B3E480935D0390935E035B
:104A6000A0935F03B0936003E092AC05F092AD05B4
:104A70000093AE051093AF05209154033091550378
:104A8000DD2029F1B901882777FD8095982F0E94B4
:104A9000A1379B01AC01C801B7010E9406372CEF7A
:104AA00039EA4DE550E40E94383620915D0330919B
:104AB0005E0340915F03509160030E94D4380E94CE
:104AC0007337E62FF0E0E851FD4F649124C0B9013F
:104AD000882777FD8095982F0E94A1379B01AC0114
:104AE000C801B7010E9406372CEF39EA4DE550E4C2
:104AF0000E94383620915D0330915E0340915F0340
:104B0000509160030E94D4380E947337E62FF0E082
:104B1000E45BFC4F649170E080E090E00E949F377E
:104B20007B018C01A0905003B0905103C0905203C0
:104B3000D0905303C601B50120E030E040E85FEBC0
:104B40000E94FF36882349F4E0925003F09251030B
:104B5000009352031093530339C0C801B701A60153
:104B600095010E94FF3618168CF0C801B7012DEC94
:104B70003CEC4CE45DE30E94D4387B018C01C6011F
:104B8000B50123E333E343E75FE310C0C801B70196
:104B90002AE939E949E95EE30E94D4387B018C01B6
:104BA000C601B50123E333E343E35FE30E94D43856
:104BB0009B01AC01C801B7010E94393660935003D4
:104BC0007093510380935203909353036091500369
:104BD00070915103809152039091530320E030E093
:104BE00046EC52E40E94C938181664F480E090E064
:104BF000A6ECB2E48093500390935103A093520328
:104C0000B09353038091DC059091DD0518161906C9
:104C10000CF0ADC081E00E94473581E00E944A352A
:104C2000AA2797FDA095BA2FBC01CD010E94A137FC
:104C300029E23CE54FE950E40E94D43820E030E01E
:104C400040E85AE30E94D4387B018C016091DA0578
:104C50007091DB05882777FD8095982F0E94A137FA
:104C600020E030E44CE156EC0E9406379B01AC0199
:104C7000C801B7010E9439367B018C016091DC05C7
:104C80007091DD05882777FD8095982F0E94A137C8
:104C900020E030E048EC52E40E9406379B01AC0172
:104CA000C801B7010E94D4382DEC3CEC4CE45EE323
:104CB0000E94D4387B018C01609114067091150616
:104CC00080911606909117062DEC3CEC4CE45FE3C6
:104CD0000E94D4389B01AC01C801B7010E9439364B
:104CE0007B018C0160931406709315068093160661
:104CF00090931706B1016619770980E090E00E9451
:104D00009F379B01AC01C801B7010E94D4382FEA3C
:104D100035EA41E959E30E94D438209110063091D8
:104D2000110640911206509113060E9439365B011C
:104D30006C01609310067093110680931206909395
:104D40001306C801B70120E030E048EC52E40E94AD
:104D5000D4380E946E377093AB056093AA05C601E4
:104D6000B5010E94733770930706609306061F9182
:104D70000F91FF90EF90DF90CF90BF90AF909F90FA
:104D80008F907F906F905F904F903F902F900895FD
:104D90001F93CF93DF9385E090E06CE070E00E947A
:104DA0005F1568EE73E080E090E00E94B3348AE221
:104DB00094E00E94542DC0E0D0E010E0CE016DE1FF
:104DC00071E00E94193A892B89F41F5E87E494E010
:104DD000612F4CE00E94980487E494E06EEE0E94FC
:104DE000A00487E494E00E944C04105161E070E05C
:104DF00080E090E00E94B334219687E0C13DD8075F
:104E0000E9F6DF91CF911F91089586E061E00E945D
:104E1000AB35089586E061E00E946C358AE294E04B
:104E200040E051EE60E070E00E94752C0E94052782
:104E300087E494E00E9421050E94D71E68EE73E08B
:104E400080E090E00E94B3340E94F11E1092F005C1
:104E500007C00E94531F8091F0058F5F8093F0057B
:104E60008091F0058230A8F31092F0050E94C826C8
:104E70000E94D22387E494E00E94E2040E94A534B9
:104E8000609318067093190680931A0690931B0678
:104E900008952F923F924F925F926F927F928F92DE
:104EA0009F92AF92BF92CF92DF92EF92FF920F93B9
:104EB0001F93DF93CF9300D000D0CDB7DEB7E09043
:104EC0002706F09028060091290610912A068FE502
:104ED00090E0A0E0B0E0E80EF91E0A1F1B1F0E9440
:104EE000A5346E157F058007910708F481C12091D4
:104EF0008004309181044091820450918304E090B9
:104F00008404F09085040091860410918704CA01FE
:104F1000B9010E94D4385B016C01C801B701A80136
:104F200097010E94D4389B01AC01C601B5010E94D3
:104F300039360E945B396093C1057093C205809336
:104F4000C3059093C40520E030E040E050E00E94AB
:104F5000C93818160CF042C10E94A53420912706CA
:104F6000309128064091290650912A06621B730B46
:104F7000840B950B0E949F373B014C01E090C105CB
:104F8000F090C2050091C3051091C40520918004E2
:104F90003091810440918204509183040E94D4385E
:104FA00020E030E04AE754E40E9406379B01AC0160
:104FB0006091BD057091BE058091BF059091C005BF
:104FC0000E9439366093BD057093BE058093BF057E
:104FD0009093C0058091040690910506892B09F4F1
:104FE0009AC0C801B701A40193010E94D43820E0FF
:104FF00030E04AE754E40E9406371B012C0160911F
:10500000AA057091AB05882777FD8095982F0E949F
:10501000A13769837A838B839C8360912306709187
:10502000240680912506909126062DEC3CEC4CE45C
:105030005FE30E94D4387B018C01C201B10120E002
:1050400030EA4CE857E40E94D43829813A814B81F8
:105050005C810E940637A40193010E9406379B01E0
:10506000AC01C801B7010E9439365B016C01609345
:10507000230670932406809325069093260660915C
:10508000560370915703882777FD8095982F0E94CB
:10509000A1372DEC3CEC4CE45FE30E94D4387B015B
:1050A0008C01609106067091070680E090E00E94F6
:1050B0009F379B01AC01C801B7010E943836A60199
:1050C00095010E94D4387B018C016091A2057091FA
:1050D000A3058091A4059091A5050E94A1379B018D
:1050E000AC01C801B7010E94383620E030E040E052
:1050F0005FE30E94D4380E946E377093D1056093AD
:10510000D005615F784D64F481EF98ED9093D105FF
:105110008093D00505C01092D1051092D00552C0E1
:10512000C201B10120E030E040E050E00E94C93807
:1051300018160CF047C06091D2057091D30580918C
:10514000D4059091D5052DEC3CEC4CE45FE30E9436
:10515000D4387B018C0169817A818B819C8120917B
:10516000AC053091AD054091AE055091AF050E9460
:10517000D438A40193010E94D43820E030E041EEFD
:1051800054E40E940637A20191010E9406379B0158
:10519000AC01C801B7010E9439366093D205709303
:1051A000D3058093D4059093D50520E03BE443ECF0
:1051B00057E40E94C93818168CF480E09BE4A3ECF5
:1051C000B7E404C080E090E0A0E0B0E08093D205B6
:1051D0009093D305A093D405B093D5050E94A53430
:1051E00060932706709328068093290690932A06D9
:1051F0000F900F900F900F90CF91DF911F910F9113
:10520000FF90EF90DF90CF90BF90AF909F908F90E6
:105210007F906F905F904F903F902F9008952F92C6
:105220003F924F925F926F927F928F929F92AF9236
:10523000BF92CF92DF92EF92FF920F931F93DF9373
:10524000CF9300D000D0CDB7DEB78091E80588239A
:1052500009F438C2E090F805F090F9050091FA05DC
:105260001091FB05C801B7019F7725E33AEF4EE89F
:105270005CE30E94D4380E94033769837A838B836E
:105280009C83C801B701209164043091650440916A
:105290006604509167040E9438369F7720EC3BE605
:1052A00049ED57E40E94D4385B016C016091FC0524
:1052B0007091FD058091FE059091FF052091760487
:1052C0003091770440917804509179040E943836E7
:1052D0009F7720EC3BE649ED57E40E94D4382981C2
:1052E0003A814B815C810E94D4387B018C01C601DC
:1052F000B501A60195010E94D4385B016C01C8017B
:10530000B701A80197010E94D4389B01AC01C601E6
:10531000B5010E9439360E945B390E946E37609356
:10532000A2057093A3058093A4059093A505809191
:10533000040690910506892B09F4E9C060911C06CA
:1053400070911D0680E090E00E949F372DEC3CECB0
:105350004CE45FE30E94D4383B014C01609156035A
:1053600070915703882777FD8095982F0E94A13769
:105370002DEC3CEC4CE45FE30E94D4387B018C01C3
:10538000609106067091070680E090E00E949F37CA
:105390009B01AC01C801B7010E9438365B016C016A
:1053A0000E94A5347B018C01609104067091050672
:1053B00080E090E00E949F371B012C018091000645
:1053C00090910106A0910206B0910306E81AF90A2D
:1053D0000A0B1B0BC801B7010E949F37A201910164
:1053E0000E9406379B01AC01C601B5010E94D4386A
:1053F00020E030E04AE754E40E9406372DEC3CEC14
:105400004CE45EE30E94D4389B01AC01C401B301BB
:105410000E9439360E946E3770931D0660931C06F9
:10542000609106067091070680E090E00E949F3729
:105430005B016C016091560370915703882777FDDB
:105440008095982F0E94A1372DEC3CEC4CE45FE353
:105450000E94D4387B018C01C601B501A8019701D7
:105460000E94C938181624F410921D0610921C06CA
:1054700080911C0690911D068057974130F08FE671
:1054800097E190931D0680931C06C801B701A60101
:1054900095010E9438367B018C016091BD057091A9
:1054A000BE058091BF059091C005A20191010E94A7
:1054B00006379B01AC01C801B7010E94D4387B01BB
:1054C0008C016091A2057091A3058091A405909133
:1054D000A5050E94A1379B01AC01C801B7010E943C
:1054E000383620E030E040E05FE30E94D4380E948C
:1054F0006E377093CF056093CE05615F784D7CF475
:1055000081EF98ED9093CF058093CE0508C010925F
:105510001D0610921C061092CF051092CE056091C8
:105520007C0470917D0480917E0490917F04209191
:10553000C5053091C6054091C7055091C8050E9428
:1055400038365B016C012091A2053091A305409192
:10555000A4055091A505CA01B9010E94FA390E941B
:10556000A1377B018C01C601B501A60195010E94FE
:10557000D4389B01AC01C801B7010E9439360E94A2
:105580005B390E946E376093CA057093CB05809398
:10559000CC059093CD056091F8057091F905809147
:1055A000FA059091FB0520916404309165044091C7
:1055B0006604509167040E9438367B018C0160E0DC
:1055C00070E080E89FE329813A814B815C810E94F1
:1055D00006379B01AC01C801B7010E94D4387B019A
:1055E0008C016091FC057091FD058091FE05909104
:1055F000FF05209176043091770440917804509112
:1056000079040E9438369B01AC015058C801B7019B
:105610000E94AC3620EE3EE245E652E40E94D438C9
:1056200020E030E044EB52E40E9439360E946E37AD
:105630009B01AC0197FF04C028593E4F4F4F5F4F6D
:10564000CA01B901645B70408040904097FF06C07A
:10565000CA01B9016C547F4F8F4F9F4F0E94A137F1
:10566000209168043091690440916A0450916B0460
:105670000E9438360E946E3797FF04C068597E4FEB
:105680008F4F9F4F0E94A13720E030E044EB53E45E
:105690000E94063720E030E040E851E40E94D43810
:1056A0000E94373920E030E040E85FE30E9439365D
:1056B0000E9473376093C905613108F47CC0109271
:1056C000C90579C080917B04823008F474C0809150
:1056D0007A04853008F46FC0D0901E06FDE1FD15F8
:1056E00008F469C0E0907C04F0907D0400917E0491
:1056F00010917F0460911F06709120068091210611
:1057000090912206A80197010E9438369F7720E0E9
:1057100030E040E05FE30E94C93818165CF4109254
:105720001E06E0921F06F0922006009321061093B9
:10573000220641C08D2D8F5F80931E068E31D9F5D4
:105740008091640490916504A0916604B09167040F
:105750008093F8059093F905A093FA05B093FB05A3
:105760008091760490917704A0917804B0917904A7
:105770008093FC059093FD05A093FE05B093FF0573
:10578000E092C505F092C6050093C7051093C805C1
:105790008091880490918904A0918A04B0918B042F
:1057A00080934C0390934D03A0934E03B0934F030B
:1057B00081E08093E8050F900F900F900F90CF91AC
:1057C000DF911F910F91FF90EF90DF90CF90BF90EE
:1057D000AF909F908F907F906F905F904F903F9091
:1057E0002F9008950E94D6230E9449270E946A0A9A
:1057F00087E494E00E940F290E942D1B0895EF92E8
:10580000FF920F931F930E946707892BB9F4E090D2
:105810001806F090190600911A0610911B0684E6EE
:1058200090E0A0E0B0E0E80EF91E0A1F1B1F0E94E6
:10583000A534E616F7060807190760F40E94A53498
:10584000609318067093190680931A0690931B06AE
:105850000E94F22B1F910F91FF90EF9008956EBD63
:105860000DB407FEFDCF8EB508958DE061E00E9476
:105870006C358BE061E00E946C358CE060E00E944A
:105880006C358AE061E00E946C351CBC80E58CBD03
:105890008DB58EB508958BE296E00E94352C089563
:1058A0008FEF9FE70895DF93CF93CDB7DEB7FE016B
:1058B00039968D819E8161E04F8158859F010E94BC
:1058C000F42ECF91DF910895DF93CF93CDB7DEB75C
:1058D000FE0139968D819E8160E04F8158859F0140
:1058E0000E94F42ECF91DF9108950F931F93DC0156
:1058F000ED91FC910288F389E02D20E030E000E09A
:1059000010E009951F910F9108958F92AF92CF9259
:10591000EF92FF920F931F93DF93CF93CDB7DEB734
:10592000FC011382128288EE93E0A0E0B0E0848351
:105930009583A683B78386EA93E091838083558716
:10594000448737872687118B008BF38AE28AC48AC3
:10595000A58A868A70E0CB0123E0880F991F2A95DB
:10596000E1F79C01245D394F308F278B8C5C994F78
:10597000928F818F81E090E002C0880F991F6A9515
:10598000E2F720913C06282B20933C06CF0140E013
:1059900051EE60E070E00E94752CCF91DF911F9175
:1059A0000F91FF90EF90CF90AF908F900895FC01F2
:1059B000838D882319F42FEF3FEF0DC00788F08DFA
:1059C000E02D2081318182819381281B390B8481D4
:1059D000958128233923C9010895FC01838D8823EB
:1059E00019F42FEF3FEF11C0018CF28DE02D2081D3
:1059F000318182819381281B390B209530958481D8
:105A00009581282339232F5F3F4FC9010895FC0159
:105A1000838D882361F0A789B08D2D913C911197DA
:105A200012968D919C9113972817390721F44FEF07
:105A30005FEFCA01089512968D919C911397169667
:105A4000ED91FC911797E80FF91F408112968D9107
:105A50009C911397019614962D913C911597822352
:105A6000932313969C938E93129750E0E2CFFC0100
:105A7000838D882351F00788F08DE02D20813181BE
:105A8000828193812817390721F42FEF3FEFC90155
:105A90000895828193810680F781E02DE80FF91F38
:105AA0008081282F30E0F3CFDC015796ED91FC91F7
:105AB000589782819381918380835996ED91FC91CF
:105AC0005A9780819181938382830895DC015B964C
:105AD0008C915B978823A9F15996ED91FC915A9787
