:100000000C9473020C949B020C949B020C949B0224
:100010000C949B020C949B020C949B020C949B02EC
:100020000C949B020C949B020C949B020C949B02DC
:100030000C949B020C949B020C949B020C949B02CC
:100040000C9459330C949B020C94E1050C941D06FE
:100050000C949B020C949B020C949B020C949B02AC
:100060000C949B020C949B02084AD73B3BCE016E3A
:1000700084BCBFFDC12F3D6C74319ABD56833DDAFF
:100080003D00C77F11BED9E4BB4C3E916BAAAABE0E
:10009000000000803F05A84CCDB2D44EB93836A937
:1000A000020C50B9918688083CA6AAAA2ABE000074
:1000B00000803F0664EC1B3C04BC163E3BE5B93CAB
:1000C000C93C37C29E5A3D660498083EEA69AAAA0E
:1000D0003E000000803F0000000000000000000023
:1000E000000000010A0F1315191D202123252729BF
:1000F0002B2D2F3031333537393A3C3E4042434483
:100100004445464748494A4B4D4E4F505051525234
:100110005354555658595A5B5B5C5D5D5E5E5E5F3D
:100120005F5F6060606161616262626363636363B9
:1001300063636363636363636363000000000000E1
:1001400000000000000002070A0C0D0E101214152A
:100150001617191A1B1E2126282A2B2D2F3133344E
:1001600037393C3D3E3F4041424446494A4B4C4D65
:100170004E4F4F5051515252535454555556575853
:10018000595A5B5C5C5D5D5E5F5F5F606060606094
:100190006161616161616262626262626263000701
:1001A0000E091C1B1215383F363124232A2D707777
:1001B0007E796C6B6265484F464154535A5DE0E767
:1001C000EEE9FCFBF2F5D8DFD6D1C4C3CACD9097D7
:1001D0009E998C8B8285A8AFA6A1B4B3BABDC7C0C7
:1001E000C9CEDBDCD5D2FFF8F1F6E3E4EDEAB7B037
:1001F000B9BEABACA5A28F88818693949D9A272027
:10020000292E3B3C35321F18111603040D0A575096
:10021000595E4B4C45426F68616673747D7A898E76
:10022000878095929B9CB1B6BFB8ADAAA3A4F9FEF6
:10023000F7F0E5E2EBECC1C6CFC8DDDAD3D4696EE6
:10024000676075727B7C51565F584D4A4344191E56
:10025000171005020B0C21262F283D3A33344E4946
:10026000404752555C5B7671787F6A6D64633E39B6
:10027000303722252C2B0601080F1A1D1413AEA9A6
:10028000A0A7B2B5BCBB9691989F8A8D8483DED916
:10029000D0D7C2C5CCCBE6E1E8EFFAFDF4F32020DD
:1002A000BF0020BF00BF007C202020202020202075
:1002B000202020202020202020202000C8202020B6
:1002C000202020202020202020C900C820202020FD
:1002D0002020202020202020C97C00D82020202081
:1002E0002020202020202020D97C00C82020202071
:1002F0002020202020202020C97C00C82020202071
:100300002020202020202020C97C006D696E6F7085
:100310006F7364206A646C20322E3531006C697012
:100320006F20626174742063656C6C7C7C77617291
:100330006E696E67206C6576656C3A200062617448
:10034000742063617061636974793A0073657475D0
:10035000702073637265656E7C7C7C00436861729B
:1003600020446F6E650A00526561647920666F7281
:1003700020466F6E740A007570646174652063684E
:1003800061727365740000407A10F35A00A0724ED7
:1003900018090010A5D4E80000E87648170000E42A
:1003A0000B54020000CA9A3B000000E1F505000072
:1003B00080969800000040420F000000A0860100D7
:1003C0000000102700000000E803000000006400A7
:1003D000000000000A000000000001000000000012
:1003E0002C76D888DC674F0823DFC1DFAE59E1B136
:1003F000B796E5E3E453C63AE651997696E8E6C245
:100400008426EB898C9B62ED407C6FFCEFBC9C9F4B
:1004100040F2BAA56FA5F490055A2AF75C936B6C6D
:10042000F9676DC11BFCE0E40D47FEF520E6B50061
:10043000D0ED902E0300943577050080841E0800CF
:1004400000204E0A000000C80C333333330F986E7F
:1004500012831141EF8D2114893BE65516CFFEE63C
:10046000DB18D1844B381BF77C1D901DA4BBE42402
:10047000203284725E228100C9F124ECA1E53D277F
:100480006E616E00696E66000000000024002700A7
:100490002A0000000000250028002B0000000000BA
:1004A00023002600290004040404040404040202B6
:1004B00002020202030303030303010204081020E3
:1004C00040800102040810200102040810200000EE
:1004D0000007000201000003040600000000000005
:1004E00000008D07472B11241FBECFEFD8E0DEBFE1
:1004F000CDBF13E0A0E0B1E0E8EBF2E702C0059069
:100500000D92AC38B107D9F716E0ACE8B3E001C002
:100510001D92AB30B107E1F714E0C6EED4E004C0A1
:100520002297FE010E945639C23ED107C9F70E94A8
:10053000D6340C945A390C940000283008F027E087
:100540003327DA01990F311D87FD9160009661050F
:10055000710539F432602E5F3D9330E32A95E1F75F
:1005600008959F3F30F080387105610509F03C5FC8
:100570003C5F3D93913008F08068911DDF93CF93ED
:100580001F930F93FF92EF92192F987F9695E92F63
:1005900096959695E90FFF27E052FC4F9927332750
:1005A000EE24FF24A701E70105900894079428F49E
:1005B000360FE71EF81E491F511D660F771F881F53
:1005C000991F0694A1F70590079428F4E70EF81EEA
:1005D000491F561FC11D770F881F991F661F06945C
:1005E000A1F70590079428F4F80E491F561FC71F5E
:1005F000D11D880F991F661F771F0694A1F70590DC
:10060000079420F4490F561FC71FD81F990F661F64
:10061000771F881F0694A9F784911095177041F0F1
:10062000D695C79557954795F794E7941A95C1F7CE
:10063000E6E8F3E0689415901591359165919591F0
:1006400005907FE27395E118F10A430B560BC90B35
:10065000D009C0F7E10CF11E431F561FC91FD01D62
:100660007EF4703311F48A95E6CFE894015030F0AF
:10067000080F0AF40027021708F4202F2395022FF1
:100680007A3328F079E37D932A95E9F710C07D93BA
:100690002A9589F606949795679537951795179437
:1006A000E118F10A430B560BC90BD00998F02395BA
:1006B0007E9173957A3308F070E37C932013B8F73A
:1006C0007E9170617D9330F0839571E37D9370E34B
:1006D0002A95E1F71124EF90FF900F911F91CF9190
:1006E000DF91992787FD90950895FA01AA27283070
:1006F00051F1203181F1E8946F936E7F6E5F7F4FEF
:100700008F4F9F4FAF4FB1E03ED0B4E03CD0670F6A
:10071000781F891F9A1FA11D680F791F8A1F911DBD
:10072000A11D6A0F711D811D911DA11D20D009F40D
:1007300068943F912AE0269F11243019305D31934F
:10074000DEF6CF010895462F4770405D4193B3E038
:100750000FD0C9F7F6CF462F4F70405D4A3318F0DF
:10076000495D31FD4052419302D0A9F7EACFB4E090
:10077000A6959795879577956795BA95C9F7009748
:100780006105710508959B01AC010A2E06945795E9
:10079000479537952795BA95C9F7620F731F841F40
:1007A000951FA01D0895FC01059061507040011037
:1007B000D8F7809590958E0F9F1F0895FC0161508A
:1007C000704001900110D8F7809590958E0F9F1F73
:1007D0000895FC011382128288EE93E0A0E0B0E05D
:1007E00084839583A683B78381E493E09183808398
:1007F0000895FC018089803419F421E030E002C0C2
:1008000020E030E0C9010895FC01818990E008955D
:1008100080E090E0089580E090E0089580E090E02E
:1008200008950895EF92FF921F93CF93DF93162FB1
:100830007A0186E060E00E9482348BEE95E060E011
:100840000E942B2B8BEE95E060E00E942B2B8BEE11
:1008500095E069E00E942B2B8BEE95E0612F0E94C2
:100860002B2BC0E0D0E0F701EC0FFD1F10818BEEC9
:1008700095E06AE00E942B2B8BEE95E06C2F0E9496
:100880002B2B8BEE95E06BE00E942B2B8BEE95E0F3
:10089000612F0E942B2B2196C633D10521F78BEEB9
:1008A00095E068E00E942B2B8BEE95E060EA0E94B9
:1008B0002B2B8BEE95E060EA0E942B2B85FDF9CF68
:1008C0008BEE95E060E00E942B2B8BEE95E06CE0C8
:1008D0000E942B2B86E061E00E948234DF91CF9151
:1008E0001F91FF90EF9008951F93CF93DF93EC013A
:1008F000162F86E060E00E9482348BEE95E060E087
:100900000E942B2B112319F0113059F404C08BEEE7
:1009100095E0688904C068896C618BEE95E00E945F
:100920002B2B86E061E00E948234DF91CF911F91F2
:100930000895EF92FF920F931F937C010BEE15E049
:10094000C80167E00E942B2BC8016FEF0E942B2B80
:1009500086E061E00E948234F70187858F5F878798
:100960001F910F91FF90EF900895EF92FF920F93D8
:100970001F93FC01E7848EE1E89E700111248685B7
:10098000E80EF11C86E060E00E9482340BEE15E078
:10099000C80164E00E942B2BC80163E00E942B2B4E
:1009A000C80165E00E942B2BC8016F2D0E942B2BE4
:1009B000C80166E00E942B2BC8016E2D0E942B2BD4
:1009C0001F910F91FF90EF900895FC016487458778
:1009D000668747870E94B50408951F93CF93DF93DE
:1009E000EC01162F6C3731F40E949904CE010E945D
:1009F000B5040AC08BEE95E067E00E942B2B8BEECE
:100A000095E0612F0E942B2B81E090E0DF91CF9148
:100A10001F910895EF92FF920F931F938EE1489FCD
:100A200070011124E60EF11C86E060E00E94823421
:100A30000BEE15E0C80165E00E942B2BC8016F2D5D
:100A40000E942B2BC80166E00E942B2BC8016E2D43
:100A50000E942B2B1F910F91FF90EF9008950F9301
:100A60001F9386E060E00E9482340BEE15E0C8011F
:100A700064E00E942B2BC80164E00E942B2B61E0F4
:100A800070E080E090E00E94AF3386E061E00E9479
:100A900082341F910F9108951F93CF93DF93EC0140
:100AA000188A16E0198B8DEF95E060E973E00E94DB
:100AB0001132813049F480E4888B88E0898B86E0AC
:100AC00060E00E94823402C0188A198B86E060E0E0
:100AD0000E948234DF91CF911F9108950F931F934D
:100AE000CF93DF93EC0186E061E00E94433482E023
:100AF00060E00E94433482E061E00E948234CE01D3
:100B00000E944C0586E060E00E9482348BEE95E006
:100B10006CEE0E942B2B8BEE95E06FEF0E942B2B3F
:100B2000182F8BEE95E060E00E942B2B68896260A5
:100B30008BEE95E00E942B2B62E370E080E090E06A
:100B40000E94AF338BEE95E06CE60E942B2B1F7E4C
:100B50008BEE95E0612F0E942B2B8889803419F051
:100B60000DE010E002C000E110E010928D03109241
:100B70008C0317C060918C0370918D03605F8BEEC6
:100B800095E00E942B2B8BEE95E069E00E942B2BC9
:100B900080918C0390918D03019690938D038093A7
:100BA0008C0380918C0390918D038017910714F32F
:100BB000CE0161E00E947404DF91CF911F910F91EB
:100BC00008951F920F920FB60F9211242F933F9307
:100BD0004F938F939F93EF93FF934091C600209183
:100BE000EC053091ED052F5F3F4F8091F00590911E
:100BF000F105282339238091EE059091EF05281700
:100C0000390779F08091EC059091ED05E091F205BE
:100C1000F091F305E80FF91F40833093ED05209321
:100C2000EC05FF91EF919F918F914F913F912F9103
:100C30000F900FBE0F901F9018951F920F920FB636
:100C40000F9211242F933F938F939F93EF93FF93D2
:100C50002091F6053091F7058091F4059091F50506
:100C600028173907E9F08091F6059091F705E09192
:100C7000FA05F091FB05E80FF91F80818093C6000B
:100C80008091F6059091F70501962091F805309135
:100C9000F905822393239093F7058093F60510C0FE
:100CA0002091F4053091F5058091F6059091F705B6
:100CB0002817390729F48091C1008F7D8093C100E6
:100CC000FF91EF919F918F913F912F910F900FBEC8
:100CD0000F901F901895CF93DF93482FEB018091D1
:100CE0007C05833009F45FC0843028F48130D1F072
:100CF000823068F50AC0853009F4D4C0853008F424
:100D0000AAC0863009F0F4C0EBC04C3309F0F0C043
:100D100081E080937C054883EAEDF1E0E491E09383
:100D20007B05E6C0842F90E0E0917B05F0E0E827AA
:100D3000F927E256FE4FE491E0937B05887F90709F
:100D4000809741F582E080937C05498329C0242F58
:100D500030E0E0917B05F0E0E227F327E256FE4F1A
:100D6000E491E0937B0580917A058F5F80937A050B
:100D7000823018F43B832A83BBC0922F88272A81B4
:100D80003B81820F931F9B838A830A978F3F910534
:100D900021F018F010927C05ABC083E080937C05B5
:100DA00010927A05A5C0E42FF0E080917B0590E0D9
:100DB000E827F927E256FE4FE491E0937B05609126
:100DC0007A056F5F60937A05623089F0633020F4B2
:100DD000613009F08DC006C0633091F0643009F0D5
:100DE00087C022C0842F90E0A0E0B0E018C0242F7C
:100DF00030E040E050E0542F432F322F222707C02D
:100E0000242F30E040E050E0A901332722278C81D5
:100E10009D81AE81BF81820F931FA41FB51F8C835C
:100E20009D83AE83BF8364C0242F30E040E050E058
:100E3000522F4427332722278C819D81AE81BF8189
:100E4000820F931FA41FB51F8C839D83AE83BF8326
:100E500060937C05A5CF242F30E0E0917B05F0E086
:100E6000E227F327E256FE4FE491E0937B05609181
:100E70007A056F5F60937A05613019F06230C1F5D1
:100E800003C03987288734C0922F88272885398561
:100E9000280F391F398728878A819B810A97F1F0AB
:100EA00085E07CCFE42FF0E080917B0590E0E8279F
:100EB000F927E256FE4FE491E0937B0520917A05F5
:100EC0002F5F20937A0530E0FB01E20FF31F41878B
:100ED0008A819B810A972817390750F086E05ECFF8
:100EE000C75FDE4F4883C950D14087E080937C05BF
:100EF00080917C05873069F410927C05C75FDE4FD6
:100F000090917B058881C950D140981711F48A814E
:100F100001C080E0DF91CF9108958F92AF92CF9280
:100F2000EF92FF920F931F938CEF93E060E045ECFC
:100F300050E024EC30E000EC10E0B1ECEB2EF12CB2
:100F4000CC24C394A8E9AA2EF0E28F2E0E94812B14
:100F500089E194E00E94E9031F910F91FF90EF90C7
:100F6000CF90AF908F90089560913A0470913B04B8
:100F700080913C0490913D0420E030E040E152E457
:100F80000E94AB3720E030E044EB53E40E94DD35B3
:100F90000E940E380E9445369B012550304037FF95
:100FA00003C09B01215E3F4FA8E8B5E0F901E15B7A
:100FB000FC4F80818C932F5F3F4F2432310514F01A
:100FC00020E030E0119685E0A339B80779F71C924C
:100FD00008952F923F924F925F926F927F928F92DD
:100FE0009F92AF92BF92CF92DF92EF92FF920F93B8
:100FF0001F93DF93CF9300D000D000D0CDB7DEB7E2
:10100000182F662E20913004309131042A35310595
:1010100030F0C9018D549F4F89359105E8F437FFB1
:1010200002C02D543F4FC90137FF03C090958195F1
:101030009F4F8A3191053CF004E4802E912CB9ED4C
:101040002B2E312C1DC00A975CF1ABE38A2E912C1C
:10105000F2ED2F2E312C20C02B35310514F0235BFF
:101060003040C90137FF03C0909581959F4F8A3169
:10107000910554F0E6E58E2E912C7CED272E312C37
:1010800067E0A62EB12C15C00A9754F05DE4852EBA
:10109000912C44ED242E312C38E0A32EB12C09C024
:1010A00025E0822E912C98E3292E312C89E0A82E60
:1010B000B12C6091320470913304882777FD8095BC
:1010C000982F0E94783627EA32E94BE25CEB0E94C7
:1010D000AB370E947F3820E030E040EA50E40E94C5
:1010E000AB3720E030E040E951E40E94AB370E948A
:1010F0000E3820E030E044E352E40E9410350E94B4
:101100004536712E0EEBC02E0FEFD02E9B014427DB
:1011100037FD4095542F29833A834B835C8319E133
:10112000412E14E0512E4AEF5FEF240E351E6091E0
:10113000300470913104882777FD8095982F0E94A4
:10114000783625E33AEF4EE85CE30E94AB370E9425
:101150007F387B018C01B601882777FD8095982F19
:101160000E9478369B01AC01C801B7010E94AB37E1
:101170007B018C0169817A818B819C810E94783608
:101180009B01AC01C801B7010E9410350E94453691
:101190009B01CB0101978A35910508F071C062E18E
:1011A00070E00E9404398B012F5F3F4FAEEEBFEF1E
:1011B0006A9FC0016B9F900D7A9F900D1124820F42
:1011C000931F62E070E00E9404396D837E83E62CF9
:1011D000E01A4E2D4C5F89E194E0672D0E940A05CC
:1011E00000D000D000D0EDB7FEB73196ADB7BEB796
:1011F00012965C924E92119720E031E03383228365
:101200008D819E81880D991D958384830E94602B1A
:101210004DB75EB74A5F5F4F0FB6F8945EBF0FBE23
:101220004DBF8D819E818A159B0554F104301105B7
:101230003CF593E0E90EC201672D4E2D0E940A0590
:1012400000D000D000D0EDB7FEB73196ADB7BEB735
:1012500012965C924E92119720E031E03383228304
:101260004D815E81420D531D558344830E94602B46
:101270008DB79EB706960FB6F8949EBF0FBE8DBF72
:10128000ACE0B0E0CA0EDB1E7394BEE4CB16D10412
:1012900009F04DCF26960FB6F894DEBF0FBECDBF36
:1012A000CF91DF911F910F91FF90EF90DF90CF9042
:1012B000BF90AF909F908F907F906F905F904F9076
:1012C0003F902F900895CF92DF92EF92FF920F936D
:1012D0001F93823010F402E002C0082F000F6091CB
:1012E0007D0570917E0580917F05909180050E941B
:1012F00078366B017C0120E030E44CE156E40E943A
:10130000D635202F30E049E154E0882334F58DB7FD
:101310009EB70E970FB6F8949EBF0FBE8DBFEDB768
:10132000FEB73196ADB7BEB712965C934E93119748
:1013300083E091E09383828322573F4F3583248358
:101340002F5F3F4F37832683C086D186E286F386A0
:101350008DE890E09587848734C08DB79EB70E974F
:101360000FB6F8949EBF0FBE8DBF0DB71EB70F5FAF
:101370001F4FADB7BEB712965C934E9311978FE097
:1013800091E0F8019383828322573F4F3583248372
:101390002F5F3F4F37832683C701B60120E030E03F
:1013A0004AE754E40E94DD35D80118966D937D9389
:1013B0008D939C931B978DEF90E01D969C938E933D
:1013C0001C970E94602BEDB7FEB73E960FB6F894BF
:1013D000FEBF0FBEEDBF1F910F91FF90EF90DF900A
:1013E000CF900895CF93DF93AC01E0914404F09146
:1013F00045042091810530918205C9018C599F4F88
:101400008E179F071CF4EA01219609C0245630402C
:10141000E217F30714F0EA0102C0EA012197842FD2
:1014200090E0C817D90729F08DEF95E04C2F0E9466
:101430001832CE01DF91CF910895CF92DF92EF92D3
:10144000FF920F931F93CF93DF937C016B01EA010F
:1014500000D000D009E114E0EDB7FEB7128301839C
:1014600087EA92E0948383830E944F2B0F900F9022
:101470000F900F90CA30D10581F0C436D10521F00C
:10148000C130D10519F512C000D000D0EDB7FEB7BC
:101490001283018385EA92E011C000D000D0EDB73D
:1014A000FEB71283018382EA92E008C000D000D028
:1014B000EDB7FEB7128301838EE992E094838383B4
:1014C0000E944F2B0F900F900F900F90409144046B
:1014D000509145042091810530918205C9018C59B4
:1014E0009F4F841795071CF4CE0DDF1D0BC02456AB
:1014F00030404217530714F0E70116C0C7018C1B98
:101500009D0BEC01CE15DF0579F08DEF95E0B6016E
:101510004C2F0E9418320894C11CD11C8DEF95E00D
:10152000B6014D2F0E941832CE01DF91CF911F914D
:101530000F91FF90EF90DF90CF900895CF92DF92C0
:10154000EF92FF920F931F937C01D62EC72E09E1D5
:1015500014E0C8016E2D4D2D0E94E50400D000D08E
:10156000EDB7FEB7128301838BEF92E09483838300
:101570000E944F2BEDB7FEB7128301838BEE92E0F2
:10158000948383830E944F2BEDB7FEB712830183B0
:101590008BED92E0948383830E944F2BEDB7FEB7CF
:1015A000128301838BEC92E0948383830E944F2B00
:1015B000EDB7FEB7128301838CEB92E094838383B3
:1015C0000E944F2B0F900F900F900F90C8010E9418
:1015D0009904C70101966D2D7C2D0E94E9071F918A
:1015E0000F91FF90EF90DF90CF900895CF92DF9210
:1015F000EF92FF920F931F93282F462F09E114E0DB
:10160000C801622F0E94E504E0908305F0908405F4
:10161000C0908505D09086058DB79EB744970FB6CC
:10162000F8949EBF0FBE8DBFEDB7FEB73196ADB734
:10163000BEB712961C930E9311978BE191E09383A2
:10164000828383EB90E095838483C7016CE370E031
:101650000E940439CB016CE370E00E940439978347
:1016600086832AE330E031872087C7016CE370E08E
:101670000E9404399387828789EF90E09587848759
:10168000C6016CE370E00E94F038CB016CE370E0BF
:101690000E94043997878687318B208BC6016CE3C3
:1016A00070E00E94F038938B828B0E94602B8DB784
:1016B0009EB744960FB6F8949EBF0FBE8DBFC8016B
:1016C0000E9499041F910F91FF90EF90DF90CF90AF
:1016D00008950F931F93282F462F09E114E0C801A6
:1016E000622F0E94E5048DB79EB70C970FB6F89451
:1016F0009EBF0FBE8DBFEDB7FEB73196ADB7BEB77B
:1017000012961C930E93119783E391E09383828347
:1017100083EE90E0958384838091670490916804C0
:10172000A0916904B0916A0486839783A087B187EA
:1017300080EB90E0938782870E94602B8DB79EB7E5
:101740000C960FB6F8949EBF0FBE8DBFC8010E94C5
:1017500099041F910F9108950F931F93282F462FDF
:1017600009E114E0C801622F0E94E5048DB79EB71D
:1017700046970FB6F8949EBF0FBE8DBFEDB7FEB76C
:101780003196ADB7BEB712961C930E9311978DE3A9
:1017900091E09383828389EB90E0958384838091A9
:1017A0006004909161049783868382E890E091873A
:1017B000808787EB90E093878287809124039091C4
:1017C0002503A0912603B091270384879587A687D8
:1017D000B78786EB90E0918B808B80912A03909164
:1017E0002B03A0912C03B0912D03828B938BA48BA0
:1017F000B58B0E94602B8DB79EB746960FB6F894B6
:101800009EBF0FBE8DBFC8010E9499041F910F910A
:101810000895EF92FF920F931F93282F462F89E18F
:10182000E82E84E0F82EC701622F0E94E5048DB7F0
:101830009EB70C970FB6F8949EBF0FBE8DBF0DB725
:101840001EB70F5F1F4FEDB7FEB7F282E18285E54D
:1018500091E0F8019383828384EE90E09583848302
:1018600060915E0470915F04882777FD8095982FC2
:101870000E9478362AE037ED43E25CE30E94AB3702
:10188000F80166837783808791878FE890E093875C
:1018900082870E94602B8DB79EB70C960FB6F89486
:1018A0009EBF0FBE8DBFC7010E9499041F910F916B
:1018B000FF90EF900895CF92DF92EF92FF920F93F7
:1018C0001F93282F462F89E194E0622F0E94E504A0
:1018D000C0905A04D0905B04E0905C04F0905D04EA
:1018E0008091870590E0805D9E4F20911E0330918E
:1018F0001F03829FB001839F700D929F700D112472
:10190000882777FD8095982F0E94783620E030E078
:1019100048EC52E40E94DD359B01AC01C701B601E1
:101920000E94D635181614F428EB01C024EB8DB7AD
:101930009EB70C970FB6F8949EBF0FBE8DBFEDB744
:10194000FEB7319609E114E0ADB7BEB712961C930D
:101950000E93119785E591E093838283822F9927D7
:1019600087FD909595838483C682D782E086F18631
:101970008EE890E0938782870E94602B8DB79EB798
:101980000C960FB6F8949EBF0FBE8DBFC8010E9483
:1019900099041F910F91FF90EF90DF90CF900895E1
:1019A0000F931F93CF93DF93282F462F89E194E065
:1019B000622F0E94E50480914104882319F4CFE549
:1019C000D1E057C0813019F4C3E6D1E052C0823073
:1019D00019F4C7E6D1E04DC0833019F4CBE6D1E06D
:1019E00048C0843019F4CFE6D1E043C0853019F403
:1019F000C3E7D1E03EC0863019F4C7E7D1E039C073
:101A0000873019F4CBE7D1E034C0883019F4CFE740
:101A1000D1E02FC0893019F4C3E8D1E02AC08A3060
:101A200019F4C7E8D1E025C08B3019F4CBE8D1E038
:101A300020C08C3019F4CFE8D1E01BC08D3019F4F0
:101A4000C3E9D1E016C08E3019F4C7E9D1E011C066
:101A50008F3019F4CBE9D1E00CC0803119F4CFE913
:101A6000D1E007C0813119F0C3EAD1E002C0C4EA75
:101A7000D1E08150863090F480914004882371F049
:101A80000E94A1332CE231E040E050E00E9417397F
:101A900020FF02C024E003C020E201C020EE8DB789
:101AA0009EB708970FB6F8949EBF0FBE8DBFEDB7D7
:101AB000FEB7319609E114E0ADB7BEB712961C939C
:101AC0000E93119788EA91E093838283822F99275E
:101AD00087FD909595838483D783C6830E94602B6E
:101AE0008DB79EB708960FB6F8949EBF0FBE8DBFF8
:101AF000C8010E949904DF91CF911F910F91089521
:101B00000F931F93282F462F09E114E0C801622F7D
:101B10000E94E5048DB79EB70A970FB6F8949EBF52
:101B20000FBE8DBFEDB7FEB73196ADB7BEB71296FB
:101B30001C930E9311978DEA91E09383828387E83B
:101B400090E095838483809142049091430497832D
:101B5000868385E290E0918780870E94602B8DB715
:101B60009EB70A960FB6F8949EBF0FBE8DBFC801F0
:101B70000E9499041F910F9108950F931F93282F8E
:101B8000462F09E114E0C801622F0E94E5048DB7D9
:101B90009EB708970FB6F8949EBF0FBE8DBFEDB7E6
:101BA000FEB73196ADB7BEB712961C930E93119740
:101BB00087EB91E093838283809132049091330488
:101BC0009583848381EB90E0978386830E94602BCA
:101BD0008DB79EB708960FB6F8949EBF0FBE8DBF07
:101BE000C8010E9499041F910F9108950F931F93AC
:101BF000282F462F09E114E0C801622F0E94E50456
:101C00008DB79EB708970FB6F8949EBF0FBE8DBFD5
:101C1000EDB7FEB73196ADB7BEB712961C930E93D3
:101C2000119787EB91E093838283809130049091A8
:101C300031049583848382EB90E0978386830E94AE
:101C4000602B8DB79EB708960FB6F8949EBF0FBE57
:101C50008DBFC8010E9499041F910F910895AF9202
:101C6000BF92CF92DF92EF92FF920F931F93B82E05
:101C7000A62E09E114E0C8016B2D4A2D0E94E5044F
:101C80008DB79EB70E970FB6F8949EBF0FBE8DBF4F
:101C9000EDB7FEB73196ADB7BEB712961C930E9353
:101CA00011978DEB91E09383828321EEC22ED12C8C
:101CB000D582C48280916B04992787FD9095978384
:101CC00086839CE8E92EF12CF186E08680916C04F5
:101CD000828713868BE890E0958784870E94602B2B
:101CE0008DB79EB70E960FB6F8949EBF0FBE8DBFF0
:101CF000C8010E949904C8016B2D4A2D0E94E50479
:101D0000ADB7BEB71A970FB6F894BEBF0FBEADBF42
:101D1000EDB7FEB7319612961C930E9311978BEC8C
:101D200091E093838283D582C48280911D03992799
:101D300087FD909597838683F186E0860E94602BCD
:101D40008DB79EB70A960FB6F8949EBF0FBE8DBF93
:101D5000C8010E9499041F910F91FF90EF90DF90AE
:101D6000CF90BF90AF9008950F931F93282F462FC9
:101D700009E114E0C801622F0E94E5048DB79EB707
:101D800042970FB6F8949EBF0FBE8DBFEDB7FEB75A
:101D90003196ADB7BEB712961C930E93119783ED93
:101DA00091E09383828384EE91E095838483809194
:101DB0003A0490913B04A0913C04B0913D04868389
:101DC0009783A087B18780EB90E09387828780ED2F
:101DD00090E09587848788E895E09787868781EDEE
:101DE00090E0918B808B0E94602B8DB79EB74296BE
:101DF0000FB6F8949EBF0FBE8DBFC8010E94990414
:101E00001F910F9108950F931F93282F462F09E1DB
:101E100014E0C801622F0E94E5048DB79EB70C97AD
:101E20000FB6F8949EBF0FBE8DBFEDB7FEB73196CB
:101E3000ADB7BEB712961C930E93119783E391E052
:101E40009383828386E190E0958384838091560416
:101E500090915704A0915804B091590486839783B8
:101E6000A087B18788E890E0938782870E94602BE3
:101E70008DB79EB70C960FB6F8949EBF0FBE8DBF60
:101E8000C8010E9499041F910F910895CF92DF928B
:101E9000EF92FF920F931F93CF93DF93282F462F3C
:101EA000C9E1D4E0CE01622F0E94E504C090940500
:101EB000D0909505E0909605F0909705C701B60182
:101EC0000E944536695E7340804090408CF18DB72A
:101ED0009EB70C970FB6F8949EBF0FBE8DBF0DB77F
:101EE0001EB70F5F1F4FADB7BEB71296DC93CE93F0
:101EF000119785E591E0F801938382838EEF90E05E
:101F000095838483C701B60120E030E04AE754E4BA
:101F10000E94DD35D80116966D937D938D939C9329
:101F200019978DEF90E01B969C938E931A9721C082
:101F30008DB79EB70C970FB6F8949EBF0FBE8DBF9E
:101F4000EDB7FEB73196ADB7BEB71296DC93CE9320
:101F500011978EEE91E0938382838EEF90E09583CC
:101F60008483C682D782E086F1868DE890E09387ED
:101F700082870E94602BEDB7FEB73C960FB6F894AF
:101F8000FEBF0FBEEDBF89E194E00E949904DF918E
:101F9000CF911F910F91FF90EF90DF90CF90089518
:101FA000EF92FF920F931F93282F462F39E1E32ED4
:101FB00034E0F32EC701622F0E94E5048DB79EB76F
:101FC0000C970FB6F8949EBF0FBE8DBF0DB71EB70E
:101FD0000F5F1F4FEDB7FEB7F282E18283E391E01E
:101FE000F8019383828388EE90E0958384836091E7
:101FF00098057091990580919A0590919B0526E628
:1020000036E646E650E40E94AB37F80166837783F4
:102010008087918781E890E0938782870E94602B78
:102020008DB79EB70C960FB6F8949EBF0FBE8DBFAE
:10203000C7010E9499041F910F91FF90EF9008959E
:10204000EF92FF920F931F93282F462F59E1E52E11
:1020500054E0F52EC701622F0E94E5048DB79EB7AC
:102060000C970FB6F8949EBF0FBE8DBF0DB71EB76D
:102070000F5F1F4FEDB7FEB7F282E18283E391E07D
:10208000F8019383828389EE90E095838483609145
:10209000520470915304809154049091550426E6A3
:1020A00036E646E650E40E94AB37F8016683778354
:1020B0008087918781E890E0938782870E94602BD8
:1020C0008DB79EB70C960FB6F8949EBF0FBE8DBF0E
:1020D000C7010E9499041F910F91FF90EF900895FE
:1020E000CF92DF92EF92FF920F931F93282F462FEC
:1020F000B9E1CB2EB4E0DB2EC601622F0E94E504CD
:1021000060914E0470914F0480915004909151045D
:102110002DB73EB7245130400FB6F8943EBF0FBEE6
:102120002DBF0DB71EB70F5F1F4FEDB7FEB7D282A1
:10213000C18228EF31E0F8013383228325E830E0C3
:10214000358324836683778380879187ADE8EA2E81
:10215000F12CF386E28627EE30E035872487209144
:102160009C0530919D0540919E0550919F050E94D0
:102170000F35F80166877787808B918BF38AE28A27
:102180000E94602B2DB73EB72C5E3F4F0FB6F894E0
:102190003EBF0FBE2DBFC6010E9499041F910F9133
:1021A000FF90EF90DF90CF900895EF92FF920F9302
:1021B0001F93282F462F19E1E12E14E0F12EC701BD
:1021C000622F0E94E5048DB79EB70C970FB6F89466
:1021D0009EBF0FBE8DBF0DB71EB70F5F1F4FEDB770
:1021E000FEB7F282E1828CE092E0F8019383828371
:1021F00086EE90E09583848360916304709164041B
:10220000809165049091660420912E0330912F03F4
:1022100040913003509131030E940F35F8016683DD
:102220007783808791878DE890E0938782870E94EB
:10223000602B8DB79EB70C960FB6F8949EBF0FBE5D
:102240008DBFC7010E9499041F910F91FF90EF90DD
:1022500008950F931F93282F462F09E114E0C8011A
:10226000622F0E94E5048091A0050E946309C801C5
:102270000E9499041F910F910895CF92DF92EF92DF
:10228000FF920F931F93CF93DF93282F462FC9E11F
:10229000D4E0CE01622F0E94E5046091A105709107
:1022A000A2058091A3059091A4050E9478366B0148
:1022B0007C0120E030E44CE156E40E94D6358823CE
:1022C00014F58DB79EB70C970FB6F8949EBF0FBE4E
:1022D0008DBFEDB7FEB73196ADB7BEB71296DC93A2
:1022E000CE9311978CE092E09383828382E190E019
:1022F00095838483C682D782E086F1868DE890E05C
:102300009387828730C08DB79EB70C970FB6F8942D
:102310009EBF0FBE8DBF0DB71EB70F5F1F4FADB76E
:10232000BEB71296DC93CE93119786E192E0F80146
:102330009383828382E190E095838483C701B60111
:1023400020E030E04AE754E40E94DD35D8011696DB
:102350006D937D938D939C9319978DEF90E01B96D1
:102360009C938E931A970E94602BEDB7FEB73C9614
:102370000FB6F894FEBF0FBEEDBF89E194E00E9456
:102380009904DF91CF911F910F91FF90EF90DF9013
:10239000CF900895BF92CF92DF92EF92FF920F936A
:1023A0001F93CF93DF93282F462F89E194E0622F6C
:1023B0000E94E5042091A5053091A60537FF02C0D3
:1023C0004AE801C047EFC091A705D091A805D7FF03
:1023D00003C06AE8B62E02C058EFB52E8DB79EB77F
:1023E0004C970FB6F8949EBF0FBE8DBF0DB71EB7AA
:1023F0000F5F1F4F99E1C92E94E0D92EEDB7FEB7BC
:10240000D282C18280E292E0F80193838283842F9A
:10241000992787FD909595838483B901882777FD57
:102420008095982F0E947836F8016683778380879D
:1024300091878DE8E82EF12CF386E2868B2D992783
:1024400087FD909595878487BE01882777FD8095C5
:10245000982F0E947836F80166877787808B918B5A
:10246000F38AE28A8BEF90E0958B848B6091A905CB
:102470007091AA058091AB059091AC0520E030E009
:102480004AE754E40E94DD35F801668B778B808F34
:10249000918F84EF90E0938F828F0E94602B8DB795
:1024A0009EB74C960FB6F8949EBF0FBE8DBFC60167
:1024B0000E949904DF91CF911F910F91FF90EF90AF
:1024C000DF90CF90BF9008950F931F93282F462F32
:1024D00009E114E0C801622F0E94E5048DB79EB7A0
:1024E0000C970FB6F8949EBF0FBE8DBFEDB7FEB729
:1024F0003196ADB7BEB712961C930E9311978EE32B
:1025000092E0938382838091360490913704A09166
:102510003804B091390484839583A683B78380916E
:10252000480490914904A0914A04B0914B048087DB
:102530009187A287B3870E94602B8DB79EB70C96B8
:102540000FB6F8949EBF0FBE8DBFC8010E949904BC
:102550001F910F9108950F931F93282F462F89E104
:1025600094E0622F0E94E50480914D04282F30E012
:10257000823030F474E0220F331F7A95E1F702C005
:102580002150304000D000D000D0EDB7FEB73196DA
:1025900009E114E0ADB7BEB712961C930E931197E4
:1025A00080E091E093838283358324830E94602BB3
:1025B0008DB79EB706960FB6F8949EBF0FBE8DBF1F
:1025C000C8010E9499041F910F9108950F931F93C2
:1025D000282F462F09E114E0C801622F0E94E5046C
:1025E0008DB79EB708970FB6F8949EBF0FBE8DBFEC
:1025F000EDB7FEB73196ADB7BEB712961C930E93EA
:1026000011978AE492E0938382838FE090E0958330
:10261000848380914C04868317820E94602B8DB73F
:102620009EB708960FB6F8949EBF0FBE8DBFC80127
:102630000E9499041F910F9108950F931F9309E130
:1026400014E0C80161E047E00E94E50400D000D03A
:10265000EDB7FEB7128301838BE093E0948383830D
:102660000E944F2B0F900F900F900F90C8010E9467
:1026700099041F910F910895EF92FF920F931F936A
:10268000CF93DF930E94A1332091B0053091B10523
:102690004091B2055091B3052617370748075907EF
:1026A00008F029C10E94A1336C507E4F8F4F9F4F7D
:1026B0006093B0057093B1058093B2059093B30514
:1026C00009E114E0C8010E942F05C80165E043E05C
:1026D0000E94E50400D000D0EDB7FEB7128301835D
:1026E0008CE493E0948383830E944F2B0F900F9090
:1026F0000F900F908091810590918205892B31F088
:102700008091AD059091AE05892B81F480914404B0
:1027100090914504909382058093810580914604B1
:10272000909147049093AE058093AD0520914604A7
:10273000309147044091AD055091AE05C9018456D2
:1027400090404817590724F48091AF058F5F08C067
:102750002C593F4F241735072CF48091AF05815039
:102760008093AF058091AF05823014F482E003C0FE
:1027700085301CF084E08093AF058091AF058330F5
:1027800039F0843009F45DC0823009F0B0C003C074
:10279000CAE0D0E002C0C4E6D0E000D000D0F9E149
:1027A000EF2EF4E0FF2EEDB7FEB7F282E1828DE36B
:1027B00093E0948383830E944F2B8DB79EB7089735
:1027C0000FB6F8949EBF0FBE8DBF0DB71EB70F5F3B
:1027D0001F4FEDB7FEB7F282E18280E592E0F8018B
:1027E000938382836091280370912903882777FD62
:1027F0008095982F0E947836F801648375838683CC
:10280000978382E890E09187808780E290E09387C9
:1028100082870E94602B8DB79EB70C960FB6F894F6
:102820009EBF0FBE8DBF80912803909129036DEF4D
:1028300073E0AE010E941D0A909329038093280340
:1028400056C000D000D0E9E1EE2EE4E0FE2EEDB758
:10285000FEB7F282E1828DE193E0948383830E944C
:102860004F2B8DB79EB708970FB6F8949EBF0FBE3B
:102870008DBF0DB71EB70F5F1F4FEDB7FEB7F282CA
:10288000E18288E592E0F801938382836091870575
:1028900070E0645D7E4F882777FD8095982F0E94B9
:1028A000783620E030E048EC52E40E94DD35F80153
:1028B000648375838683978386E790E0918780871A
:1028C00080E290E0938782870E94602B8DB79EB74D
:1028D0000C960FB6F8949EBF0FBE8DBF80918705F2
:1028E00090E060E873E00E94F2098093870589E137
:1028F00094E00E949904DF91CF911F910F91FF9076
:10290000EF9008952F923F924F925F926F927F9235
:102910008F929F92AF92BF92CF92DF92EF92FF92EF
:102920000F931F93DF93CF93CDB7DEB72F970FB6DB
:10293000F894DEBF0FBECDBF8C876D870E94A13398
:102940002091B4053091B5054091B6055091B70579
:10295000261737074807590708F0EBC18091B805DB
:102960008823C9F0809332031092B80580E692E084
:102970009093C7058093C6050E94A133625A7E4F8B
:102980008F4F9F4F6093B4057093B5058093B60544
:102990009093B70588C180913203282E3324C090CC
:1029A0003F0420916D042B8730916E043A87D090BC
:1029B0003E04E090BA05F090BB050091C605109169
:1029C000C70540912B04498350914D04598780914C
:1029D000B905888740905A0450905B0460905C046D
:1029E00070905D048091870590E0845D9E4F2091FA
:1029F0001E0330911F03DC01A29FC001A39F900D15
:102A0000B29F900D1124B0916B04BF83E0916C04D0
:102A1000EE832091A5053091A6053D832C8340913E
:102A2000A7055091A8055B834A833F862E864C01FB
:102A3000AA2497FCA094BA2C8E859F8501969F8727
:102A40008E8709972CF0A1E0B0E0BF87AE8727C042
:102A5000EE85FF85E430F10509F454C0E530F10559
:102A60005CF4E230F105D1F1E330F1050CF03EC049
:102A7000319709F09BC013C02E853F852630310564
:102A800009F461C0263031050CF453C027303105FC
:102A900009F465C02830310509F088C078C031E0FC
:102AA0003C15A0F0C31619F40DE612E015C04B85D5
:102AB000413049F45A85513031F482E08D1518F0D7
:102AC0000AE712E009C007E812E006C09A859130D3
:102AD00009F46CC004E912E081E06FC0A981A33061
:102AE00009F464C001EA12E082E067C0B985B2303F
:102AF00008F05CC0E885EE2309F458C00EEA12E045
:102B000083E05BC0C501B4010E94783620E030E06C
:102B100048EC52E40E94DD359B01AC01C301B201D7
:102B20000E94D63588230CF041C00BEB12E084E004
:102B300044C0F1E0EF16F104C9F508EC12E0EE2410
:102B4000FF2485E03AC02F812C3A2CF03E813936A3
:102B500068F5222359F105ED12E086E02EC041E030
:102B60004C1520F14D1510F552E0D51619F402EE72
:102B700012E005C083E0D81621F40FEE12E087E0E2
:102B80001CC094E0D916D9F70CEF12E0F8CFA1E001
:102B9000AC1560F4EC81FD81F7FD04C02A813B8116
:102BA00037FF04C009E013E088E007C04E855F8569
:102BB0004215530509F040CFA1C0F092BB05E09249
:102BC000BA051093C7050093C6058093B80581E048
:102BD0008093BC050E94A13364547D4F8F4F9F4F5B
:102BE0006093B4057093B5058093B6059093B705CF
:102BF0000E94A1336854744F8F4F9F4F6093C2055A
:102C00007093C3058093C4059093C5058091BD055D
:102C10009091BE05A091BF05B091C0050097A10598
:102C2000B10571F40E94A1336059784E8F4F9F4FC8
:102C30006093BD057093BE058093BF059093C0055A
:102C40008091C105882379F40E94A1332091BD05AC
:102C50003091BE054091BF055091C005261737073A
:102C60004807590720F089E194E00E942F050E944F
:102C7000A1332091BD053091BE054091BF05509113
:102C8000C005261737074807590768F01092C10595
:102C90000AC01092BC051092BD051092BE0510929C
:102CA000BF051092C00509E114E0C8016C854D858F
:102CB0000E94E50400D000D000D0EDB7FEB73196F9
:102CC000ADB7BEB712961C930E93119786E193E0B1
:102CD000938382838091C6059091C70595838483F1
:102CE0000E94602BEDB7FEB736960FB6F894FEBF84
:102CF0000FBEEDBFC8010E9499041BC0F092BB0536
:102D0000E092BA051093C7050093C6051092B80566
:102D10000E94A1332091C2053091C3054091C405A2
:102D20005091C505261737074807590708F4B1CF52
:102D3000BACF2F960FB6F894DEBF0FBECDBFCF919E
:102D4000DF911F910F91FF90EF90DF90CF90BF9098
:102D5000AF909F908F907F906F905F904F903F903B
:102D60002F9008952091190330911A03C9018950B9
:102D700097408F5A9440D0F580913F04882321F4E6
:102D800081E08093C8052EC08091C805882351F545
:102D90008091BC05882311F10E94A1332091BD05CB
:102DA0003091BE054091BF055091C00526173707E9
:102DB00048075907B8F40E94A1332091B405309117
:102DC000B5054091B6055091B70526173707480756
:102DD000590740F48091B805882321F489E194E0F3
:102DE0000E942F0582E08093C105089584E0203B76
:102DF000380768F48091C105882349F01092C8050E
:102E000089E194E00E942F051092C1050895205B8E
:102E100034402955324000F58091C1058130E1F000
:102E20008091BC05882379F00E94A1332091BD05D3
:102E30003091BE054091BF055091C0052617370758
:102E40004807590748F41092C80589E194E00E94A8
:102E50002F0581E08093C1050895EF92FF920F93B3
:102E60001F938091C805882309F060C080913F04BA
:102E7000823008F05BC08091B905813009F056C0FE
:102E80008091440490914504895097400CF44EC0C1
:102E90008091460490914704805B94400CF046C0BA
:102EA0008091360490913704A0913804B091390490
:102EB0008093C9059093CA05A093CB05B093CC0528
:102EC0008091480490914904A0914A04B0914B0428
:102ED0008093CD059093CE05A093CF05B093D005F8
:102EE00080914E0490914F04A0915004B0915104F0
:102EF00080939C0590939D05A0939E05B0939F059C
:102F00008091630490916404A0916504B09166047B
:102F100080932E0390932F03A0933003B09331033B
:102F200081E090E09093BB058093BA058091D10534
:102F30009091D205A091D305B091D4050097A10539
:102F4000B10509F04EC08091420490914304079767
:102F500008F447C080913F04823008F442C00E94C8
:102F6000A1336093D1057093D2058093D3059093DC
:102F7000D4051092D6051092D505809160049091E9
:102F800061049093D8058093D70580912403909194
:102F90002503A0912603B0912703809333039093D8
:102FA0003403A0933503B093360380E090E0A0E0B3
:102FB000B0E08093940590939505A0939605B09307
:102FC00097058091630490916404A0916504B09189
:102FD000660480932E0390932F03A0933003B09345
:102FE00031038091D1059091D205A091D305B09184
:102FF000D4050097A105B10509F462C0809142048F
:1030000090914304079720F480914004882359F15C
:1030100080913F04823038F10E94A1332091D10584
:103020003091D2054091D3055091D405621B730BAA
:10303000840B950B28EE33E040E050E00E941739F6
:1030400030938405209383058091600490916104FE
:103050002091D7053091D805821B930B9093D6050C
:103060008093D5054DC00E94A1337B018C016091F6
:10307000830570918405882777FD8095982F28E136
:103080003CEF4FEF5FEF0E94D138E60EF71E081FAE
:10309000191FE092D105F092D2050093D305109349
:1030A000D40580916004909161042091D505309100
:1030B000D605821B930B9093D8058093D70520C02B
:1030C0000E94A13328EE33E040E050E00E9417391F
:1030D00030938405209383051092D6051092D50570
:1030E0008091240390912503A0912603B09127039A
:1030F0008093330390933403A0933503B093360346
:103100000E94B2168091C805882319F00E943C13D2
:1031100049C28091940380FF08C06091EA038091C6
:10312000E80390E070E00E9482148091C105823033
:10313000A8F08091BC05882309F434C20E94A13311
:103140002091BD053091BE054091BF055091C0054D
:10315000261737074807590708F424C28091C1058C
:103160008093D905823011F41092C1058091C10578
:10317000A82FB0E0FD01E257FC4F808185FF0BC016
:10318000FD01EA55FC4F6081AC55BC4F8C9190E03D
:1031900070E00E94E6128091C105A82FB0E0FD0109
:1031A000E257FC4F808186FF0BC0FD01E655FC4FC6
:1031B0006081A855BC4F8C9190E070E00E94AB12EA
:1031C0008091C105A82FB0E0FD01EC56FC4F808135
:1031D00083FF0BC0FD01E251FC4F6081A451BC4F45
:1031E0008C9190E070E00E94030F8091B9058823D4
:1031F00009F454C08091C105A82FB0E0FD01E25749
:10320000FC4F808187FF0BC0FD01E255FC4F6081C0
:10321000A455BC4F8C9190E070E00E9464128091A4
:10322000C105A82FB0E0FD01E057FC4F808184FF6D
:103230000BC0FD01E254FC4F6081A454BC4F8C9143
:1032400090E070E00E943D118091C105A82FB0E090
:10325000FD01E057FC4F808183FF0BC0FD01E65468
:10326000FC4F6081A854BC4F8C9190E070E00E94AC
:1032700029118091C105A82FB0E0FD01E057FC4F56
:10328000808186FF0BC0FD01EE53FC4F6081A0548E
:10329000BC4F8C9190E070E00E94CA118091C105F2
:1032A000A82FB0E0FD01EE56FC4F808187FF0BC0D8
:1032B000FD01EE52FC4F6081A053BC4F8C9190E019
:1032C00070E00E94D5108091B905882309F459C097
:1032D00080914D04823008F454C08091C105A82F1C
:1032E000B0E0FD01EA56FC4F808182FF0BC0FD017A
:1032F000EA50FC4F6081AC50BC4F8C9190E070E084
:103300000E94460F8091C105A82FB0E0FD01EE5646
:10331000FC4F808182FF0BC0FD01E253FC4F6081B6
:10332000A453BC4F8C9190E070E00E94701080918B
:10333000C105A82FB0E0FD01EE56FC4F808183FF50
:103340000BC0FD01EA52FC4F6081AC52BC4F8C9126
:1033500090E070E00E9420108091C105A82FB0E09D
:10336000FD01EE56FC4F808181FF0BC0FD01E6524E
:10337000FC4F6081A852BC4F8C9190E070E00E949D
:10338000D00F8091B905882321F080914D048230BF
:1033900028F480913E0481508330A8F48091C105C7
:1033A000A82FB0E0FD01E057FC4F808180FF0BC0EB
:1033B000FD01EA54FC4F6081AC54BC4F8C9190E00D
:1033C00070E00E94B40E8091C105A82FB0E0FD010D
:1033D000EC56FC4F808186FF0FC080916B048823E0
:1033E00059F0FD01EE50FC4F6081A051BC4F8C9113
:1033F00090E070E00E942F0E8091C105A82FB0E0F0
:10340000FD01E257FC4F808182FF0BC0FD01E256B7
:10341000FC4F6081A456BC4F8C9190E070E00E94FC
:10342000F60D8091C105A82FB0E0FD01E257FC4FD9
:10343000808181FF0BC0FD01E656FC4F6081A856DC
:10344000BC4F8C9190E070E00E94BD0D8091C10551
:10345000A82FB0E0FD01EE56FC4F808184FF0BC029
:10346000FD01E252FC4F6081A452BC4F8C9190E070
:1034700070E00E94800D8091C105A82FB0E0FD0191
:10348000EE56FC4F808185FF0BC0FD01EE51FC4FD5
:103490006081A052BC4F8C9190E070E00E94D00CF3
:1034A0008091C105A82FB0E0FD01E257FC4F80815B
:1034B00083FF0BC0FD01EE55FC4F6081A056BC4F51
:1034C0008C9190E070E00E945B0C8091C105A82F68
:1034D000B0E0FD01EE56FC4F808180FF0BC0FD0186
:1034E000E653FC4F6081A853BC4F8C9190E070E094
:1034F0000E94090C8091C105A82FB0E0FD01E257A0
:10350000FC4F808184FF0BC0FD01EE54FC4F6081B5
:10351000A055BC4F8C9190E070E00E94AC0B809164
:10352000C105A82FB0E0FD01EA56FC4F808181FF64
:103530000BC0FD01E650FC4F6081A850BC4F8C9140
:1035400090E070E00E94690B8091C105A82FB0E067
:10355000FD01E057FC4F808187FF0BC0FD01EA535E
:10356000FC4F6081AC53BC4F8C9190E070E00E94A6
:10357000F60A8091C105A82FB0E0FD01EE56FC4F80
:10358000808186FF0BC0FD01EA51FC4F6081AC5188
:10359000BC4F8C9190E070E00E949E0A8091D9050A
:1035A0008093C1051F910F91FF90EF90089589E1DD
:1035B00094E00E942F050E941D130895CF93DF937E
:1035C000EC0189E194E00E940404C817D9073CF09B
:1035D00089E194E00E94F903892B09F42397CE0135
:1035E000DF91CF910895FF920F931F930DEF15E098
:1035F000C80160E873E00E94113280938705C8011A
:103600006DEF73E00E941132F82EC8016EEF73E087
:103610000E941132382F20E02F0D311D30932903E5
:10362000209328031F910F91FF900895BC018DEF07
:1036300095E00E9411320895EF92FF920F931F932D
:10364000CF93DF930091C10510E08AEF90E0089FCF
:103650007001099FF00C189FF00C1124C7018856C7
:103660009F4F0E94161BF801E257FC4F882319F068
:103670008081806102C080818F7E80838091C105BE
:10368000C82FD0E0C70186569F4F0E94161BC05519
:10369000DC4F88838091C105C82FD0E0C7018456D4
:1036A0009F4F0E94161B90E00E94DE1ACE54DC4F02
:1036B00088830091C10510E0C70106960E94161B81
:1036C000F801E257FC4F882319F08081826002C024
:1036D00080818D7F80838091C105C82FD0E0C70194
:1036E00008960E94161BC856DC4F88838091C1053E
:1036F000C82FD0E0C7010A960E94161B90E00E94D6
:10370000DE1AC656DC4F88830091C10510E0C70160
:103710000C960E94161BF801E257FC4F882319F003
:103720008081846002C080818B7F80838091C1050D
:10373000C82FD0E0C7010E960E94161BC456DC4F5E
:1037400088838091C105C82FD0E0C70140960E94B0
:10375000161B90E00E94DE1AC256DC4F888300914F
:10376000C10510E0C70142960E94161BF801E257FE
:10377000FC4F882319F08081886002C08081877F98
:1037800080838091C105C82FD0E0C70144960E9474
:10379000161BC056DC4F88838091C105C82FD0E02E
:1037A000C70146960E94161B90E00E94DE1ACE5575
:1037B000DC4F88830091C10510E0C7014E960E943E
:1037C000161BF801E257FC4F882319F080818062B4
:1037D00002C080818F7D80838091C105C82FD0E099
:1037E000C70180960E94161BCC55DC4F88838091C0
:1037F000C105C82FD0E0C70182960E94161B90E039
:103800000E94DE1ACA55DC4F88830091C10510E082
:10381000C70184960E94161BF801E257FC4F8823CB
:1038200019F08081806402C080818F7B80838091C9
:10383000C105C82FD0E0C70186960E94161BC85547
:10384000DC4F88838091C105C82FD0E0C7018896DE
:103850000E94161B90E00E94DE1AC655DC4F88833A
:103860000091C10510E0C7018A960E94161BF8015D
:10387000E257FC4F882319F08081806802C0808164
:103880008F7780838091C105C82FD0E0C7018C96C7
:103890000E94161BC455DC4F88838091C105C82F38
:1038A000D0E0C7018E960E94161B90E00E94DE1A9F
:1038B000C255DC4F88830091C10510E0C701C09656
:1038C0000E94161BF801E057FC4F882319F08081F5
:1038D000816002C080818E7F80838091C105C82F66
:1038E000D0E0C701C2960E94161BCC54DC4F8883DF
:1038F0008091C105C82FD0E0C701C4960E94161B55
:1039000090E00E94DE1ACA54DC4F88830091C10502
:1039100010E0C701885B9F4F0E94161BF801E0571B
:10392000FC4F882319F08081806102C080818F7EE6
:1039300080838091C105C82FD0E0C701865B9F4F6F
:103940000E94161BC454DC4F88838091C105C82F88
:10395000D0E0C701845B9F4F0E94161B90E00E943D
:10396000DE1AC254DC4F88830091C10510E0C70104
:103970008E5B9F4F0E94161BF801E057FC4F882377
:1039800019F08081886002C08081877F8083809168
:10399000C105C82FD0E0C7018C5B9F4F0E94161B4A
:1039A000C854DC4F88838091C105C82FD0E0C7017F
:1039B0008A5B9F4F0E94161B90E00E94DE1AC6543D
:1039C000DC4F88830091C10510E0C7018A5A9F4FE0
:1039D0000E94161BF801E057FC4F882319F08081E4
:1039E000806402C080818F7B80838091C105C82F55
:1039F000D0E0C701885A9F4F0E94161BC054DC4F6D
:103A000088838091C105C82FD0E0C701865A9F4F97
:103A10000E94161B90E00E94DE1ACE53DC4F888372
:103A20000091C10510E0C70182569F4F0E94161BEE
:103A3000F801E057FC4F882319F08081806802C0AC
:103A400080818F7780838091C105C82FD0E0C70126
:103A500080569F4F0E94161BCC53DC4F8883809169
:103A6000C105C82FD0E0C7018E559F4F0E94161B7D
:103A700090E00E94DE1ACA53DC4F88830091C10592
:103A800010E0C7018E599F4F0E94161BF801EE5699
:103A9000FC4F882319F08081816002C080818E7F75
:103AA00080838091C105C82FD0E0C7018C599F4FFA
:103AB0000E94161BC853DC4F88838091C105C82F14
:103AC000D0E0C7018A599F4F0E94161B90E00E94C8
:103AD000DE1AC653DC4F88830091C10510E0C70190
:103AE00082599F4F0E94161BF801EE56FC4F882307
:103AF00019F08081846002C080818B7F80838091F7
:103B0000C105C82FD0E0C70180599F4F0E94161BE6
:103B1000C453DC4F88838091C105C82FD0E0C70112
:103B20008E589F4F0E94161B90E00E94DE1AC253CF
:103B3000DC4F88830091C10510E0C70184579F4F77
:103B40000E94161BF801EE56FC4F882319F0808165
:103B5000806802C080818F7780838091C105C82FE3
:103B6000D0E0C70182579F4F0E94161BC053DC4F05
:103B700088838091C105C82FD0E0C70180579F4F2F
:103B80000E94161B90E00E94DE1ACE52DC4F888302
:103B90000091C10510E0C7018E569F4F0E94161B71
:103BA000F801EE56FC4F882319F08081826002C034
:103BB00080818D7F80838091C105C82FD0E0C701AF
:103BC0008C569F4F0E94161BC852DC4F88838091F1
:103BD000C105C82FD0E0C7018A569F4F0E94161B0F
:103BE00090E00E94DE1AC652DC4F88830091C10526
:103BF00010E0C7018C589F4F0E94161BF801EE562B
:103C0000FC4F882319F08081886002C08081877F03
:103C100080838091C105C82FD0E0C7018A589F4F8B
:103C20000E94161BCC52DC4F88838091C105C82F9F
:103C3000D0E0C70188589F4F0E94161B90E00E9459
:103C4000DE1ACA52DC4F88830091C10510E0C7011B
:103C500086589F4F0E94161BF801EE56FC4F882392
:103C600019F08081806102C080818F7E8083809185
:103C7000C105C82FD0E0C70184589F4F0E94161B72
:103C8000C452DC4F88838091C105C82FD0E0C701A2
:103C900082589F4F0E94161B90E00E94DE1AC2526B
:103CA000DC4F88830091C10510E0C70180589F4F09
:103CB0000E94161BF801EE56FC4F882319F08081F4
:103CC000806202C080818F7D80838091C105C82F72
:103CD000D0E0C7018E579F4F0E94161BC052DC4F89
:103CE00088838091C105C82FD0E0C7018C579F4FB2
:103CF0000E94161B90E00E94DE1ACE51DC4F888392
:103D00000091C10510E0C7018A579F4F0E94161B02
:103D1000F801EE56FC4F882319F08081806402C0C0
:103D200080818F7B80838091C105C82FD0E0C7013F
:103D300088579F4F0E94161BCC51DC4F888380917F
:103D4000C105C82FD0E0C70186579F4F0E94161BA0
:103D500090E00E94DE1ACA51DC4F88830091C105B1
:103D600010E0C7018C559F4F0E94161BF801EC56BE
:103D7000FC4F882319F08081816002C080818E7F92
:103D800080838091C105C82FD0E0C7018A559F4F1D
:103D90000E94161BC851DC4F88838091C105C82F33
:103DA000D0E0C70188559F4F0E94161B90E00E94EB
:103DB000DE1AC651DC4F88830091C10510E0C701AF
:103DC0008A549F4F0E94161BF801EC56FC4F882323
:103DD00019F08081886002C08081877F8083809114
:103DE000C105C82FD0E0C70188549F4F0E94161B01
:103DF000C451DC4F88838091C105C82FD0E0C70132
:103E000086549F4F0E94161B90E00E94DE1AC251FA
:103E1000DC4F88830091C10510E0C701845A9F4F91
:103E20000E94161BF801EC56FC4F882319F0808184
:103E3000806402C080818F7B80838091C105C82F00
:103E4000D0E0C701825A9F4F0E94161BC051DC4F21
:103E500088838091C105C82FD0E0C701805A9F4F49
:103E60000E94161B90E00E94DE1ACE50DC4F888321
:103E70000091C10510E0C70180529F4F0E94161BA0
:103E8000F801EA56FC4F882319F08081846002C053
:103E900080818B7F80838091C105C82FD0E0C701CE
:103EA0008E519F4F0E94161BCC50DC4F888380910F
:103EB000C105C82FD0E0C7018C519F4F0E94161B2F
:103EC00090E00E94DE1ACA50DC4F88830091C10541
:103ED00010E0C7018C529F4F0E94161BF801EA5652
:103EE000FC4F882319F08081826002C080818D7F21
:103EF00080838091C105C82FD0E0C7018A529F4FAF
:103F00000E94161BC850DC4F88838091C105C82FC2
:103F1000D0E0C70188529F4F0E94161B90E00E947C
:103F2000DE1AC650DC4F8883DF91CF911F910F912D
:103F3000FF90EF9008954F925F927F928F929F92A1
:103F4000AF92BF92CF92DF92EF92FF920F931F93A7
:103F5000DF93CF93CDB7DEB7C854D0400FB6F894F7
:103F6000DEBF0FBECDBF09E114E0C8010E942F05DE
:103F7000C80166E049E00E94E50400D000D0EDB73A
:103F8000FEB71283018387E793E0948383830E94C3
:103F90004F2B0F900F900F900F90C8010E94990423
:103FA00000D000D00CEF13E0EDB7FEB71283018311
:103FB00087E693E0948383830E944F2BBCE54B2ECE
:103FC000B3E05B2EEE24FF24CC24DD240F900F9071
:103FD0000F900F90702E012FA9E0AA2EB12CAC0EDD
:103FE000BD1E4E010894811C911C8CEF93E00E9431
:103FF000032C982F8D3031F08D30DCF180538230DE
:10400000C0F530C01830A1F59981892F80538230D6
:1040100078F5913311F490E801C090E08A81813302
:1040200009F4905C8B81813309F4905E8C8181333B
:1040300009F4905F8D81813309F4985F8E8181331B
:1040400009F49C5F8F81813309F49E5F88858133F9
:1040500009F49F5FF501EE0DFF1D90830894E11CAC
:10406000F11C06C0F401E10FF11D90831F5F01C038
:1040700010E0F0E4EF16F104C9F489E194E0B60130
:10408000A5010E9412040894C11CD11C00D000D0CC
:10409000EDB7FEB771820283548243820E944F2B98
:1040A000EE24FF240F900F900F900F90FFEFCF168C
:1040B000D10409F00CF499CFC85BDF4F0FB6F89428
:1040C000DEBF0FBECDBFCF91DF911F910F91FF904B
:1040D000EF90DF90CF90BF90AF909F908F907F90A8
:1040E0005F904F9008952F923F924F925F926F9200
:1040F0007F928F929F92AF92BF92CF92DF92EF9278
:10410000FF920F931F93DF93CF93CDB7DEB72A971C
:104110000FB6F894DEBF0FBECDBF03E0602E712C4A
:104120006C0E7D1E17E0812E912C8C0E9D1E0F2E85
:10413000F7E82F2EF4E13F2EF9E04F2EF3E45F2E47
:10414000F02D0EC50E94A13360527E448040904005
:10415000C8F40E94A133695873418040904090F0A8
:104160001A3011F01D3031F4809179058F5F809302
:10417000790502C01092790580917905833011F498
:104180000E949B1F812F6FE674E00E946B068823BC
:1041900009F4E6C48091730490917404A0917504AD
:1041A000B09176048A3BE7EC9E07E1E2AE07E4E7D4
:1041B000BE0709F458C08B3BF7EC9F07F1E2AF074D
:1041C000F4E7BF0740F58E3729EA92072BE5A207EF
:1041D00026E2B20709F4E5C08F37E9EA9E07EBE56E
:1041E000AE07E6E2BE0738F488529E45A24DB442BF
:1041F00009F0B6C4C9C0823523E2920726E9A207B6
:1042000026E2B20709F40EC2865A9E40A241B84483
:1042100009F0A6C435C48E3FF6EB9F07F9E2AF075D
:10422000F5EABF0709F424C18F3F26EB920729E284
:10423000A20725EAB20738F486549340A24CB54849
:1042400009F08EC47BC48C36F8E69F07F3E4AF0711
:10425000F2ECBF0709F4CBC186589B43A04AB44C8B
:1042600009F07EC462C40E94A13360932C04709351
:104270002D0480932E0490932F0483E080932B04CD
:104280008091890490918A04A0918B04B0918C0450
:104290008F839887A987BA876F81788589859A8562
:1042A0000E944536709331046093300480918D04F0
:1042B00090918E04A0918F04B09190048F83988781
:1042C000A987BA876F81788589859A850E94453646
:1042D000709333046093320480919104909192041E
:1042E000A0919304B09194048F839887A987BA878B
:1042F0006F81788589859A850E9445368B017093F8
:1043000035046093340460913604709137048091D1
:1043100038049091390420E030E040E050E00E9401
:10432000D635882331F080913E048150833008F0E7
:1043300061C4B801882777FD8095982F0E94783650
:104340007B018C0160933A0470933B0480933C049E
:1043500090933D0420E030E040E050E00E94D635EC
:1043600088230CF047C4C801B70120E030E044EBDB
:1043700053E40E94103560933A0470933B04809399
:104380003C0490933D0436C48091790480933F04AB
:1043900080917B048093400480917A04809341044F
:1043A000DFC38091790490917A04A0917B04B0914D
:1043B0007C04F40180839183A283B3836F81788529
:1043C00089859A8520E030E048EC52E40E94AB37C2
:1043D0000E9445367093430460934204693C710522
:1043E00020F0109243041092420480919304909123
:1043F0009404909345048093440480919504909193
:104400009604909347048093460480919F04909172
:10441000A00490931A03809319036091A5047091EE
:10442000A6047A83698370931C0360931B0380E066
:1044300090E00E94763620E030E04AEF54E40E949B
:104440000F3520E030E040E251E40E94DD3520E00D
:1044500030E040E05FE30E940F350E9445366093F4
:104460001D036D390CF07CC3FDE9F0931D0378C387
:104470006091790470917A0480917B0490917C041E
:104480000E94783620E836E948E15BE40E94DD3599
:104490006093360470933704809338049093390402
:1044A00060917D0470917E0480917F0490918004DE
:1044B000D3016C9311967C93119712968C9312975B
:1044C00013969C930E94783620E836E948E15BE435
:1044D0000E94DD35609348047093490480934A0438
:1044E00090934B0480919E0480934C0480919D0492
:1044F00080934D0480913E048150833068F5609133
:10450000340470913504882777FD8095982F0E9498
:1045100078367B018C0160933A0470933B0480935E
:104520003C0490933D0420E030E040E050E00E94E5
:10453000D635882354F5C801B70120E030E044EBBC
:1045400053E40E94103560933A0470933B048093C7
:104550003C0490933D0419C08091890490918A0491
:10456000A0918B04B0918C04F40180839183A28389
:10457000B3838F819885A985BA8580933A049093F7
:104580003B04A0933C04B0933D048091810490913E
:104590008204A0918304B0918404F4018083918308
:1045A000A283B3838F819885A985BA8580934E04B1
:1045B00090934F04A0935004B093510480918D04C4
:1045C00090918E04A0918F04B09190048083918388
:1045D000A283B3838F819885A985BA85809352047D
:1045E00090935304A0935404B0935504B9C280919E
:1045F000810490918204A0918304B0918404F40119
:1046000080839183A283B3838F819885A985BA859E
:10461000B0588093560490935704A0935804B093D5
:1046200059049EC28091790490917A04A0917B04F0
:10463000B0917C04F40180839183A283B383EF80E3
:10464000F88409851A85E0925A04F0925B0400937D
:104650005C0410935D0480917D0490917E04A09190
:104660007F04B091800480839183A283B3836F81A0
:10467000788589859A8520E030E048EC52E40E94F4
:10468000AB370E94453670935F0460935E0480915F
:104690008D0490918E04A0918F04B0919004F40148
:1046A00080839183A283B3836F81788589859A857E
:1046B0000E9445367093610460936004C801B7019D
:1046C00026E636E64EEA51E40E94A03718161CF49E
:1046D00086E090E03CC0C801B7012AE939E94BE81F
:1046E00051E40E94A03718164CF480911E0390915B
:1046F0001F0305971CF4A5E0B0E040C0C801B70156
:1047000023E333E343E551E40E94A03718166CF429
:1047100080911E0390911F0304973CF4E4E0F0E0C5
:10472000F0931F03E0931E032DC0C801B7012DECC9
:104730003CEC4CE051E40E94A03718166CF48091D8
:104740001E0390911F0303973CF483E090E0909345
:104750001F0380931E0316C0C801B70120E030E09C
:1047600040EA50E40E94A037181664F480911E03BA
:1047700090911F03029734F4A2E0B0E0B0931F03BE
:10478000A0931E03809162048823C9F4DD24609104
:104790001E0370911F03882777FD8095982F0E9434
:1047A00078369B01AC01C801B7010E94DD3521EECE
:1047B0003AE748E850E40E94A037181614F4DD24C4
:1047C000D394D0926204DD2069F088E49DE7A5EEE1
:1047D000B2E48093200390932103A0932203B0932B
:1047E000230308C020922003309221034092220329
:1047F000509223038091620420911E0330911F0385
:10480000882329F1B901882777FD8095982F0E9488
:1048100078369B01AC01C801B7010E94DD352CEF51
:1048200039EA4DE550E40E940F3520912003309184
:10483000210340912203509123030E94AB370E9431
:104840004A36E62FF0E0EA52FF4F649124C0B901E6
:10485000882777FD8095982F0E9478369B01AC01C0
:10486000C801B7010E94DD352CEF39EA4DE550E46F
:104870000E940F35209120033091210340912203A3
:10488000509123030E94AB370E944A36E62FF0E096
:10489000E65CFE4F649170E080E090E00E94763626
:1048A0007B018C01A0902403B0902503C0902603C7
:1048B000D0902703C601B50120E030E040E85FEB6F
:1048C0000E94D635882349F4E0922403F092250310
:1048D000009326031093270339C0C801B701A6012E
:1048E00095010E94D63518168CF0C801B7012DEC41
:1048F0003CEC4CE45DE30E94AB377B018C01C601CC
:10490000B50123E333E343E75FE310C0C801B70118
:104910002AE939E949E95EE30E94AB377B018C0162
:10492000C601B50123E333E343E35FE30E94AB3702
:104930009B01AC01C801B7010E94103560932403AC
:10494000709325038093260390932703609124039B
:1049500070912503809126039091270320E030E099
:1049600046EC52E40E94A037181664F480E090E010
:10497000A6ECB2E48093240390932503A09326032E
:10498000B09327036091240370912503809126033F
:104990009091270320E030E040E050E00E94D635BF
:1049A000882364F480E090E0A0E0B0E080932403EA
:1049B00090932503A0932603B0932703609160048E
:1049C0007091610480E090E00E9476367B018C015A
:1049D0006091280370912903882777FD8095982F8F
:1049E0000E9478369B01AC01C801B7010E94DD35F9
:1049F0009B01AC0160E070E080E89FE30E940F350E
:104A000020E030E048EC52E40E94AB3760932A0388
:104A100070932B0380932C0390932D0320E030E0C0
:104A200046EC52E40E94A037181664F480E090E04F
:104A3000A6ECB2E480932A0390932B03A0932C035B
:104A4000B0932D0360912A0370912B0380912C0366
:104A500090912D0320E030E040E050E00E94D635F8
:104A600088230CF07DC080E090E0A0E0B0E080936F
:104A70002A0390932B03A0932C03B0932D0370C0B3
:104A80008091790490917A04A0917B04B0917C0488
:104A9000F40180839183A283B3836F8178858985B4
:104AA0009A850E944536882777FD8095982F0E9429
:104AB00078367B018C016093630470936404809367
:104AC00065049093660460912E0370912F0380918A
:104AD00030039091310320E03CE34CE156EC0E941E
:104AE000D635882341F4E0922E03F0922F030093F1
:104AF00030031093310380917D0490917E04A09146
:104B00007F04B0918004F40180839183A283B383F6
:104B10008F819885A985BA858093670490936804EE
:104B2000A0936904B0936A041BC08091D30480935E
:104B30006B048091870480936C0412C020918304DD
:104B400020936D049091880490936E048091860464
:104B500080933E04913009F04DC0213009F04AC0E5
:104B60008CEF93E00E94D32B1816190654F58CEFA6
:104B700093E00E94032C182F80912B04882309F0C6
:104B800001CBE0CA10922B04DD24D3948D2D90E04C
:104B90002A960FB6F894DEBF0FBECDBFCF91DF913E
:104BA0001F910F91FF90EF90DF90CF90BF90AF904B
:104BB0009F908F907F906F905F904F903F902F903D
:104BC0000895DD24E0902C04F0902D0400912E0433
:104BD00010912F0480E197E2A0E0B0E0E80EF91E0A
:104BE0000A1F1B1F0E94A133E616F70608071907C4
:104BF00048F2CCCFDD24D394E5CF86E061E00E947B
:104C00008234089586E061E00E9443348CEF93E0A3
:104C100040E051EE60E070E00E94712B0E94FD25A3
:104C200089E194E00E946E050E94D71A68EE73E055
:104C300080E090E00E94AF330E94F31A1092C10509
:104C400007C00E941C1B8091C1058F5F8093C10526
:104C50008091C1058230A8F31092C1058CEF93E0DA
:104C60000E94502C68EB7BE080E090E00E94AF3324
:104C700089E194E00E942F050E94A1336093DA0538
:104C80007093DB058093DC059093DD0508952F92EA
:104C90003F924F925F926F927F928F929F92AF92CC
:104CA000BF92CF92DF92EF92FF920F931F93DF9309
:104CB000CF9300D000D0CDB7DEB7E090E705F090FD
:104CC000E8050091E9051091EA058FE590E0A0E084
:104CD000B0E0E80EF91E0A1F1B1F0E94A1336E15DB
:104CE0007F058007910708F481C12091520430911B
:104CF00053044091540450915504E0905604F090B0
:104D000057040091580410915904CA01B9010E9436
:104D1000AB375B016C01C801B701A80197010E9484
:104D2000AB379B01AC01C601B5010E9410350E9452
:104D30003238609398057093990580939A05909303
:104D40009B0520E030E040E050E00E94A0371816BC
:104D50000CF042C10E94A1332091E7053091E80593
:104D60004091E9055091EA05621B730B840B950B8A
:104D70000E9476363B014C01E0909805F090990531
:104D800000919A0510919B05209152043091530493
:104D900040915404509155040E94AB3720E030E01C
:104DA0004AE754E40E94DD359B01AC016091940513
:104DB0007091950580919605909197050E94103508
:104DC000609394057093950580939605909397054D
:104DD0008091D5059091D605892B09F49AC0C80118
:104DE000B701A40193010E94AB3720E030E04AE70D
:104DF00054E40E94DD351B012C0160915E0470912A
:104E00005F04882777FD8095982F0E947836698304
:104E10007A838B839C836091E3057091E405809194
:104E2000E5059091E6052DEC3CEC4CE45FE30E9437
:104E3000AB377B018C01C201B10120E030EA4CE8C4
:104E400057E40E94AB3729813A814B815C810E94F3
:104E5000DD35A40193010E94DD359B01AC01C80141
:104E6000B7010E9410355B016C016093E3057093FC
:104E7000E4058093E5059093E60560912803709121
:104E80002903882777FD8095982F0E9478362DEC8E
:104E90003CEC4CE45FE30E94AB377B018C016091FA
:104EA00060047091610480E090E00E9476369B017E
:104EB000AC01C801B7010E940F35A60195010E94FF
:104EC000AB377B018C0160917D0570917E058091EF
:104ED0007F05909180050E9478369B01AC01C80146
:104EE000B7010E940F3520E030E040E05FE30E9410
:104EF000AB370E9445367093A8056093A705615FA4
:104F0000784D64F481EF98ED9093A8058093A70500
:104F100005C01092A8051092A70552C0C201B101A8
:104F200020E030E040E050E00E94A03718160CF07E
:104F300047C06091A9057091AA058091AB05909139
:104F4000AC052DEC3CEC4CE45FE30E94AB377B01FD
:104F50008C0169817A818B819C8120915A043091E6
:104F60005B0440915C0450915D040E94AB37A40146
:104F700093010E94AB3720E030E041EE54E40E9400
:104F8000DD35A20191010E94DD359B01AC01C80114
:104F9000B7010E9410356093A9057093AA0580930C
:104FA000AB059093AC0520E03BE443EC57E40E9452
:104FB000A03718168CF480E09BE4A3ECB7E404C09F
:104FC00080E090E0A0E0B0E08093A9059093AA056E
:104FD000A093AB05B093AC050E94A1336093E705A5
:104FE0007093E8058093E9059093EA050F900F9080
:104FF0000F900F90CF91DF911F910F91FF90EF9045
:10500000DF90CF90BF90AF909F908F907F906F90E8
:105010005F904F903F902F9008952F923F924F9224
:105020005F926F927F928F929F92AF92BF92CF9238
:10503000DF92EF92FF920F931F93DF93CF9300D0F5
:1050400000D0CDB7DEB78091B905882309F438C206
:10505000E090C905F090CA050091CB051091CC05F0
:10506000C801B7019F7725E33AEF4EE85CE30E9461
:10507000AB370E94DA3569837A838B839C83C801BE
:10508000B701209136043091370440913804509193
:1050900039040E940F359F7720EC3BE649ED57E439
:1050A0000E94AB375B016C016091CD057091CE051C
:1050B0008091CF059091D00520914804309149040A
:1050C00040914A0450914B040E940F359F7720EC89
:1050D0003BE649ED57E40E94AB3729813A814B8189
:1050E0005C810E94AB377B018C01C601B501A60132
:1050F00095010E94AB375B016C01C801B701A801A3
:1051000097010E94AB379B01AC01C601B5010E941B
:1051100010350E9432380E94453660937D057093A9
:105120007E0580937F05909380058091D5059091B1
:10513000D605892B09F4E9C0609185057091860533
:1051400080E090E00E9476362DEC3CEC4CE45FE38E
:105150000E94AB373B014C016091280370912903F9
:10516000882777FD8095982F0E9478362DEC3CECAF
:105170004CE45FE30E94AB377B018C0160916004DB
:105180007091610480E090E00E9476369B01AC0152
:10519000C801B7010E940F355B016C010E94A13369
:1051A0007B018C016091D5057091D60580E090E07F
:1051B0000E9476361B012C018091D1059091D20579
:1051C000A091D305B091D405E81AF90A0A0B1B0B7C
:1051D000C801B7010E947636A20191010E94DD3517
:1051E0009B01AC01C601B5010E94AB3720E030E065
:1051F0004AE754E40E94DD352DEC3CEC4CE45EE3E0
:105200000E94AB379B01AC01C401B3010E94103571
:105210000E94453670938605609385056091600411
:105220007091610480E090E00E9476365B016C0131
:105230006091280370912903882777FD8095982F26
:105240000E9478362DEC3CEC4CE45FE30E94AB37D7
:105250007B018C01C601B501A80197010E94A0370E
:10526000181624F410928605109285058091850504
:10527000909186058057974130F08FE697E19093A3
:10528000860580938505C801B701A60195010E9496
:105290000F357B018C01609194057091950580918B
:1052A000960590919705A20191010E94DD359B0121
:1052B000AC01C801B7010E94AB377B018C01609142
:1052C0007D0570917E0580917F05909180050E94FB
:1052D00078369B01AC01C801B7010E940F3520E070
:1052E00030E040E05FE30E94AB370E9445367093A8
:1052F000A6056093A505615F784D7CF481EF98ED7C
:105300009093A6058093A50508C01092860510927B
:1053100085051092A6051092A50560914E04709126
:105320004F04809150049091510420919C0530913C
:105330009D0540919E0550919F050E940F355B0190
:105340006C0120917D0530917E0540917F05509143
:105350008005CA01B9010E94D1380E9478367B01CC
:105360008C01C601B501A60195010E94AB379B01D6
:10537000AC01C801B7010E9410350E9432380E946A
:1053800045366093A1057093A2058093A305909381
:10539000A4056091C9057091CA058091CB059091D3
:1053A000CC05209136043091370440913804509157
:1053B00039040E940F357B018C0160E070E080E8C9
:1053C0009FE329813A814B815C810E94DD359B01FD
:1053D000AC01C801B7010E94AB377B018C01609121
:1053E000CD057091CE058091CF059091D00520918B
:1053F00048043091490440914A0450914B040E9462
:105400000F359B01AC015058C801B7010E9483358C
:1054100020EE3EE245E652E40E94AB3720E030E069
:1054200044EB52E40E9410350E9445369B01AC01CA
:1054300097FF04C028593E4F4F4F5F4FCA01B90133
:10544000645B70408040904097FF06C0CA01B9017C
:105450006C547F4F8F4F9F4F0E94783620913A04B3
:1054600030913B0440913C0450913D040E940F3523
:105470000E94453697FF04C068597E4F8F4F9F4F5B
:105480000E94783620E030E044EB53E40E94DD35A2
:1054900020E030E040E851E40E94AB370E940E3833
:1054A00020E030E040E85FE30E9410350E944A3679
:1054B0006093A005613108F47CC01092A00579C00A
:1054C00080914D04823008F474C080914C04853082
:1054D00008F46FC0D090DE05FDE1FD1508F469C049
:1054E000E0904E04F0904F0400915004109151044C
:1054F0006091DF057091E0058091E1059091E205F2
:10550000A80197010E940F359F7720E030E040E02E
:105510005FE30E94A03718165CF41092DE05E0925B
:10552000DF05F092E0050093E1051093E20541C02C
:105530008D2D8F5F8093DE058E31D9F580913604F5
:1055400090913704A0913804B09139048093C90533
:105550009093CA05A093CB05B093CC0580914804E5
:1055600090914904A0914A04B0914B048093CD05D9
:105570009093CE05A093CF05B093D005E0929C0503
:10558000F0929D0500939E0510939F058091630402
:1055900090916404A0916504B091660480932E03F9
:1055A00090932F03A0933003B093310381E0809355
:1055B000B9050F900F900F900F90CF91DF911F9131
:1055C0000F91FF90EF90DF90CF90BF90AF909F90A2
:1055D0008F907F906F905F904F903F902F900895A5
:1055E0000E9447260E94B40789E194E00E940D289A
:1055F0000E942D170895EF92FF920F931F930E9420
:105600007320892BB9F4E090DA05F090DB05009166
:10561000DC051091DD0584E690E0A0E0B0E0E80E46
:10562000F91E0A1F1B1F0E94A133E616F706080782
:10563000190760F40E94A1336093DA057093DB05CB
:105640008093DC059093DD050E94F02A1F910F9155
:10565000FF90EF9008956EBD0DB407FEFDCF8EB59F
:1056600008958DE061E00E9443348BE061E00E9488
:1056700043348CE060E00E9443348AE061E00E94A1
:1056800043341CBC80E58CBD8DB58EB508958BEE82
:1056900095E00E94312B08958FEF9FE70895DF93E7
:1056A000CF93CDB7DEB7FE0139968D819E8161E043
:1056B0004F8158859F010E94F02DCF91DF91089571
:1056C000DF93CF93CDB7DEB7FE0139968D819E81F2
:1056D00060E04F8158859F010E94F02DCF91DF91AE
:1056E00008950F931F93DC01ED91FC910288F389DB
:1056F000E02D20E030E000E010E009951F910F91CF
:1057000008958F92AF92CF92EF92FF920F931F93D3
:10571000DF93CF93CDB7DEB7FC011382128288EE00
:1057200093E0A0E0B0E084839583A683B78387E706
:1057300093E0918380835587448737872687118B31
:10574000008BF38AE28AC48AA58A868A70E0CB013C
:1057500023E0880F991F2A95E1F79C0124513A4FC5
:10576000308F278B8C509A4F928F818F81E090E001
:1057700002C0880F991F6A95E2F72091FC05282B3B
:105780002093FC05CF0140E051EE60E070E00E9404
:10579000712BCF91DF911F910F91FF90EF90CF90E0
:1057A000AF908F900895FC01838D882319F42FEF1B
:1057B0003FEF0DC00788F08DE02D2081318182817F
:1057C0009381281B390B8481958128233923C901B2
:1057D0000895FC01838D882319F42FEF3FEF11C04A
:1057E000018CF28DE02D2081318182819381281BF3
:1057F000390B2095309584819581282339232F5F9B
:105800003F4FC9010895FC01838D882361F0A7896A
:10581000B08D2D913C91119712968D919C9113977B
:105820002817390721F44FEF5FEFCA010895129648
:105830008D919C9113971696ED91FC911797E80F17
:10584000F91F408112968D919C91139701961496A1
:105850002D913C9115978223932313969C938E93BD
:10586000129750E0E2CFFC01838D882351F0078826
:10587000F08DE02D208131818281938128173907B5
:1058800021F42FEF3FEFC9010895828193810680B3
:10589000F781E02DE80FF91F8081282F30E0F3CF4A
:1058A000DC015796ED91FC91589782819381918309
:1058B00080835996ED91FC915A97808191819383D1
:1058C00082830895DC015B968C915B978823A9F114
:1058D0005996ED91FC915A97208131812F5F3F4F6E
:1058E00084819581282339235C968C915C97882349
:1058F00029F08281938128173907F9F082819381F9
:1059000028173907D9F3808191810680F781E02D2E
:10591000E80FF91F60835996ED91FC915A973183F6
:1059200020835296ED91FC915397808156969C91DD
:10593000892B808321E030E002C020E030E0C90103
:105940000895CF93DF93EC011B821A828A819B8199
:10595000998388831D821C828E819F81009721F00C
:105960000E94C1321F821E82DF91CF9108950F9352
:105970001F938C01DC015296ED91FC91539720818D
:1059800056968C91569755969C915597892B809554
:105990008223808357968D919C9158970E94A12CC9
:1059A000F801818D928D0E94A12CD8015B961C92EA
:1059B0001F910F9108950F931F93CF93DF938C0145
:1059C000FC0113821282828193819183808341E062
:1059D000A1E0B0E001C04F5FFD01042E02C0EE0F58
:1059E000FF1F0A94E2F79B0182E06130780710F014
:1059F00020E032E0E217F30770F3C1E0D0E002C02C
:105A0000CC0FDD1F4A95E2F72197F80126813781F7
:105A10002115310541F0848195818C179D0789F00E
:105A2000C9010E94C132F801D583C483CE01019619
:105A30000E9424329C01F8019783868380E0232B07
:105A400009F081E0DF91CF911F910F910895AF92FE
:105A5000BF92CF92DF92EF92FF920F931F93CF935B
:105A6000DF937C015A016B01E901DC015B968C91AB
:105A70005B978823F1F02115310539F45796ED91A4
:105A8000FC915897C481D58121960115110549F4DF
:105A9000D7015996ED91FC915A97048115810F5FBA
:105AA0001F4FD701ED91FC910088F189E02DC701CE
:105AB0000995F7018789908D209711F4C0E8D0E00F
:105AC000BE010E94DB2C882381F0D70159968D916D
:105AD0009C915A970115110511F400E110E0B801ED
