:100000000C945E020C9486020C9486020C94860278
:100010000C9486020C9486020C9486020C94860240
:100020000C9486020C9486020C9486020C94860230
:100030000C9486020C9486020C9486020C94860220
:100040000C949E330C9486020C946A050C94A605BD
:100050000C9486020C9486020C9486020C94860200
:100060000C9486020C948602084AD73B3BCE016E64
:1000700084BCBFFDC12F3D6C74319ABD56833DDAFF
:100080003D00C77F11BED9E4BB4C3E916BAAAABE0E
:10009000000000803F05A84CCDB2D44EB93836A937
:1000A000020C50B9918688083CA6AAAA2ABE000074
:1000B00000803F0664EC1B3C04BC163E3BE5B93CAB
:1000C000C93C37C29E5A3D660498083EEA69AAAA0E
:1000D0003E000000803F0000000000000000000023
:1000E000000000010A0F1315191D202123252729BF
:1000F0002B2D2F3031333537393A3C3E4042434483
:100100004445464748494A4B4D4E4F505051525234
:100110005354555658595A5B5B5C5D5D5E5E5E5F3D
:100120005F5F6060606161616262626363636363B9
:1001300063636363636363636363000000000000E1
:1001400000000000000002070A0C0D0E101214152A
:100150001617191A1B1E2126282A2B2D2F3133344E
:1001600037393C3D3E3F4041424446494A4B4C4D65
:100170004E4F4F5051515252535454555556575853
:10018000595A5B5C5C5D5D5E5F5F5F606060606094
:100190006161616161616262626262626263000701
:1001A0000E091C1B1215383F363124232A2D707777
:1001B0007E796C6B6265484F464154535A5DE0E767
:1001C000EEE9FCFBF2F5D8DFD6D1C4C3CACD9097D7
:1001D0009E998C8B8285A8AFA6A1B4B3BABDC7C0C7
:1001E000C9CEDBDCD5D2FFF8F1F6E3E4EDEAB7B037
:1001F000B9BEABACA5A28F88818693949D9A272027
:10020000292E3B3C35321F18111603040D0A575096
:10021000595E4B4C45426F68616673747D7A898E76
:10022000878095929B9CB1B6BFB8ADAAA3A4F9FEF6
:10023000F7F0E5E2EBECC1C6CFC8DDDAD3D4696EE6
:10024000676075727B7C51565F584D4A4344191E56
:10025000171005020B0C21262F283D3A33344E4946
:10026000404752555C5B7671787F6A6D64633E39B6
:10027000303722252C2B0601080F1A1D1413AEA9A6
:10028000A0A7B2B5BCBB9691989F8A8D8483DED916
:10029000D0D7C2C5CCCBE6E1E8EFFAFDF4F32020DD
:1002A000BF0020BF00BF007C202020202020202075
:1002B000202020202020202020202000C8202020B6
:1002C000202020202020202020C900C820202020FD
:1002D0002020202020202020C97C00D82020202081
:1002E0002020202020202020D97C00C82020202071
:1002F0002020202020202020C97C00C82020202071
:100300002020202020202020C97C006D696E6F7085
:100310006F7364206A646C20322E3531006C697012
:100320006F20626174742063656C6C7C7C77617291
:100330006E696E67206C6576656C3A200062617448
:10034000742063617061636974793A0073657475D0
:10035000702073637265656E7C7C7C0000407A104F
:10036000F35A00A0724E18090010A5D4E80000E866
:100370007648170000E40B54020000CA9A3B0000C4
:1003800000E1F505000080969800000040420F0053
:100390000000A08601000000102700000000E80314
:1003A000000000006400000000000A0000000000DF
:1003B0000100000000002C76D888DC674F0823DF9E
:1003C000C1DFAE59E1B1B796E5E3E453C63AE65171
:1003D000997696E8E6C28426EB898C9B62ED407C98
:1003E0006FFCEFBC9C9F40F2BAA56FA5F490055A34
:1003F0002AF75C936B6CF9676DC11BFCE0E40D4759
:10040000FEF520E6B500D0ED902E0300943577057B
:100410000080841E080000204E0A000000C80C3333
:100420003333330F986E12831141EF8D2114893BC2
:10043000E65516CFFEE6DB18D1844B381BF77C1D42
:10044000901DA4BBE424203284725E228100C9F195
:1004500024ECA1E53D276E616E00696E6600000028
:100460000000240027002A000000000025002800CA
:100470002B000000000023002600290004040404CF
:10048000040404040202020202020303030303033E
:10049000010204081020408001020408102001021B
:1004A00004081020000000070002010000030406F9
:1004B000000000000000000016078C2B11241FBE56
:1004C000CFEFD8E0DEBFCDBF13E0A0E0B1E0E2E4C3
:1004D000F3E702C005900D92AA3BB107D9F716E0E9
:1004E000AAEBB3E001C01D92AF34B107E1F714E00D
:1004F000CCEBD4E004C02297FE010E949B39C83B9C
:10050000D107C9F70E941B350C949F390C94000049
:10051000283008F027E03327DA01990F311D87FDD5
:10052000916000966105710539F432602E5F3D934C
:1005300030E32A95E1F708959F3F30F08038710548
:10054000610509F03C5F3C5F3D93913008F08068A5
:10055000911DDF93CF931F930F93FF92EF92192F6B
:10056000987F9695E92F96959695E90FFF27EA547F
:10057000FC4F99273327EE24FF24A701E7010590BC
:100580000894079428F4360FE71EF81E491F511DE2
:10059000660F771F881F991F0694A1F7059007948F
:1005A00028F4E70EF81E491F561FC11D770F881F3C
:1005B000991F661F0694A1F70590079428F4F80E7A
:1005C000491F561FC71FD11D880F991F661F771F10
:1005D0000694A1F70590079420F4490F561FC71FF2
:1005E000D81F990F661F771F881F0694A9F784915B
:1005F0001095177041F0D695C79557954795F79484
:10060000E7941A95C1F7ECE5F3E06894159015911D
:1006100035916591959105907FE27395E118F10A06
:10062000430B560BC90BD009C0F7E10CF11E431F59
:10063000561FC91FD01D7EF4703311F48A95E6CF82
:10064000E894015030F0080F0AF40027021708F46C
:10065000202F2395022F7A3328F079E37D932A9572
:10066000E9F710C07D932A9589F6069497956795CA
:10067000379517951794E118F10A430B560BC90BE0
:10068000D00998F023957E9173957A3308F070E342
:100690007C932013B8F77E9170617D9330F0839541
:1006A00071E37D9370E32A95E1F71124EF90FF90B9
:1006B0000F911F91CF91DF91992787FD9095089514
:1006C000FA01AA27283051F1203181F1E8946F9383
:1006D0006E7F6E5F7F4F8F4F9F4FAF4FB1E03ED029
:1006E000B4E03CD0670F781F891F9A1FA11D680FC7
:1006F000791F8A1F911DA11D6A0F711D811D911DFA
:10070000A11D20D009F468943F912AE0269F11246E
:100710003019305D3193DEF6CF010895462F4770D2
:10072000405D4193B3E00FD0C9F7F6CF462F4F702D
:10073000405D4A3318F0495D31FD4052419302D08B
:10074000A9F7EACFB4E0A695979587957795679531
:10075000BA95C9F700976105710508959B01AC0131
:100760000A2E06945795479537952795BA95C9F758
:10077000620F731F841F951FA01D0895FC01059033
:10078000615070400110D8F7809590958E0F9F1F93
:100790000895FC016150704001900110D8F78095D8
:1007A00090958E0F9F1F0895FC011382128288EE90
:1007B00093E0A0E0B0E084839583A683B7838FE6BF
:1007C00093E0918380830895FC018089803419F43B
:1007D00021E030E002C020E030E0C9010895FC01D2
:1007E000818990E0089580E090E0089580E090E0B5
:1007F000089580E090E0089508951F93CF93DF93CC
:10080000EC01162F86E060E00E94C7348FE296E08C
:1008100060E00E94702B112319F0113059F404C0CC
:100820008FE296E0688904C068896C618FE296E087
:100830000E94702B86E061E00E94C734DF91CF9167
:100840001F910895EF92FF920F931F937C010FE287
:1008500016E0C80167E00E94702BC8016FEF0E948C
:10086000702B86E061E00E94C734F70187858F5FB7
:1008700087871F910F91FF90EF900895EF92FF925D
:100880000F931F93FC01E7848EE1E89E7001112411
:100890008685E80EF11C86E060E00E94C7340FE216
:1008A00016E0C80164E00E94702BC80163E00E945A
:1008B000702BC80165E00E94702BC8016F2D0E944B
:1008C000702BC80166E00E94702BC8016E2D0E943B
:1008D000702B1F910F91FF90EF900895FC0164879A
:1008E0004587668747870E943E0408951F93CF93EC
:1008F000DF93EC01162F6C3731F40E942204CE01F5
:100900000E943E040AC08FE296E067E00E94702BCE
:100910008FE296E0612F0E94702B81E090E0DF91E2
:10092000CF911F910895EF92FF920F931F938EE145
:10093000489F70011124E60EF11C86E060E00E94E1
:10094000C7340FE216E0C80165E00E94702BC801B1
:100950006F2D0E94702BC80166E00E94702BC801A9
:100960006E2D0E94702B1F910F91FF90EF900895B4
:100970000F931F9386E060E00E94C7340FE216E0F9
:10098000C80164E00E94702BC80164E00E94702BD3
:1009900061E070E080E090E00E94F43386E061E086
:1009A0000E94C7341F910F9108951F93CF93DF9337
:1009B000EC01188A16E0198B81E496E060E973E097
:1009C0000E945632813049F480E4888B88E0898B1C
:1009D00086E060E00E94C73402C0188A198B86E066
:1009E00060E00E94C734DF91CF911F9108950F936B
:1009F0001F93CF93DF93EC0186E061E00E9488347F
:100A000082E060E00E94883482E061E00E94C734A6
:100A1000CE010E94D50486E060E00E94C7348FE2D8
:100A200096E06CEE0E94702B8FE296E06FEF0E94D2
:100A3000702B182F8FE296E060E00E94702B68897F
:100A400062608FE296E00E94702B62E370E080E0CB
:100A500090E00E94F4338FE296E06CE60E94702BE7
:100A60001F7E8FE296E0612F0E94702B8889803470
:100A700019F00DE010E002C000E110E01092BB039D
:100A80001092BA0317C06091BA037091BB03605F04
:100A90008FE296E00E94702B8FE296E069E00E9460
:100AA000702B8091BA039091BB0301969093BB0386
:100AB0008093BA038091BA039091BB03801791078A
:100AC00014F3CE0161E00E94FD03DF91CF911F91ED
:100AD0000F9108951F920F920FB60F9211242F932A
:100AE0003F934F938F939F93EF93FF934091C60053
:100AF00020913006309131062F5F3F4F80913406B0
:100B0000909135062823392380913206909133063F
:100B10002817390779F08091300690913106E091DD
:100B20003606F0913706E80FF91F408330933106FF
:100B300020933006FF91EF919F918F914F913F91BC
:100B40002F910F900FBE0F901F9018951F920F922C
:100B50000FB60F9211242F933F938F939F93EF9390
:100B6000FF9320913A0630913B0680913806909190
:100B7000390628173907E9F080913A0690913B062B
:100B8000E0913E06F0913F06E80FF91F80818093C7
:100B9000C60080913A0690913B06019620913C0652
:100BA00030913D068223932390933B0680933A062F
:100BB00010C0209138063091390680913A06909104
:100BC0003B062817390729F48091C1008F7D809357
:100BD000C100FF91EF919F918F913F912F910F90C5
:100BE0000FBE0F901F901895CF93DF93482FEB0106
:100BF0008091C005833009F45FC0843028F48130CF
:100C0000D1F0823068F50AC0853009F4D4C085304F
:100C100008F4AAC0863009F0F4C0EBC04C3309F0E8
:100C2000F0C081E08093C0054883EAEDF1E0E491F3
:100C3000E093BF05E6C0842F90E0E091BF05F0E0AF
:100C4000E827F927E256FE4FE491E093BF05887F3D
:100C50009070809741F582E08093C005498329C058
:100C6000242F30E0E091BF05F0E0E227F327E256C1
:100C7000FE4FE491E093BF058091BE058F5F8093A6
:100C8000BE05823018F43B832A83BBC0922F88278D
:100C90002A813B81820F931F9B838A830A978F3F10
:100CA000910521F018F01092C005ABC083E080934D
:100CB000C0051092BE05A5C0E42FF0E08091BF05ED
:100CC00090E0E827F927E256FE4FE491E093BF0554
:100CD0006091BE056F5F6093BE05623089F063303E
:100CE00020F4613009F08DC006C0633091F06430AB
:100CF00009F087C022C0842F90E0A0E0B0E018C0C7
:100D0000242F30E040E050E0542F432F322F222791
:100D100007C0242F30E040E050E0A901332722270C
:100D20008C819D81AE81BF81820F931FA41FB51F4F
:100D30008C839D83AE83BF8364C0242F30E040E06A
:100D400050E0522F4427332722278C819D81AE818A
:100D5000BF81820F931FA41FB51F8C839D83AE8319
:100D6000BF836093C005A5CF242F30E0E091BF057D
:100D7000F0E0E227F327E256FE4FE491E093BF054F
:100D80006091BE056F5F6093BE05613019F06230FF
:100D9000C1F503C03987288734C0922F882728855A
:100DA0003985280F391F398728878A819B810A97BF
:100DB000F1F085E07CCFE42FF0E08091BF0590E07A
:100DC000E827F927E256FE4FE491E093BF05209112
:100DD000BE052F5F2093BE0530E0FB01E20FF31F3D
:100DE00041878A819B810A972817390750F086E04E
:100DF0005ECFC75FDE4F4883C950D14087E0809304
:100E0000C0058091C005873069F41092C005C75FA6
:100E1000DE4F9091BF058881C950D140981711F4D9
:100E20008A8101C080E0DF91CF9108958F92AF92C7
:100E3000CF92EF92FF920F931F938EE294E060E0C7
:100E400045EC50E024EC30E000EC10E0B1ECEB2E8F
:100E5000F12CCC24C394A8E9AA2EF0E28F2E0E9494
:100E6000C62B8BE494E00E94D4031F910F91FF9056
:100E7000EF90CF90AF908F900895DF93CF9300D0F5
:100E800000D0CDB7DEB7FB01E80FF91F628583857F
:100E90009485258569838A839B832C83492F5C8174
:100EA000782FCA010F900F900F900F90CF91DF9184
:100EB00008952F923F924F925F926F927F928F92FE
:100EC0009F92AF92BF92CF92DF92EF92FF920F93D9
:100ED0001F93DF93CF9300D000D000D0CDB7DEB703
:100EE00003E0802E912C8C0E9D1E0F2EF7E84F2EC6
:100EF000F4E15F2EF9E06F2EF3E47F2EF02D12E087
:100F0000212E312CF1C40E94E63360527E44804091
:100F1000904098F40E94E6336958734180409040B5
:100F200060F01A3011F01D3031F48091BD058F5FF3
:100F30008093BD0502C01092BD05812F63EB74E064
:100F40000E94F405882309F4CFC48091B7049091DE
:100F5000B804A091B904B091BA048835E6EB9E07B5
:100F6000EDEFAE07EAE4BE0709F45DC48935F6EBA0
:100F70009F07FDEFAF07FAE4BF0788F58E3729EA30
:100F800092072BE5A20726E2B20709F4E1C08F37EA
:100F9000E9EA9E07EBE5AE07E6E2BE0780F48C398E
:100FA000F1EB9F07F5EAAF07FEE1BF0709F461C463
:100FB00088529E45A24DB44209F096C4BCC0823509
:100FC000E3E29E07E6E9AE07E6E2BE0709F4C3C125
:100FD000865A9E40A241B84409F086C4E5C38E3FBC
:100FE00026EB920729E2A20725EAB20709F40CC111
:100FF0008F3FE6EB9E07E9E2AE07E5EABE0778F42D
:101000008A3BF7EC9F07F1E2AF07F4E7BF0701F176
:1010100086549340A24CB54809F066C453C48C363C
:10102000E8E69E07E3E4AE07E2ECBE0709F483C1FD
:101030008638FBE39F07F0EAAF07F4ECBF0709F43B
:101040000FC48659934BA34DBC4B09F04DC41DC42E
:101050000E94E63360935E0470935F0480936004A3
:101060009093610483E080935D0483EB94E060E1FE
:1010700070E00E943D070E948A367093630460937B
:10108000620483EB94E064E170E00E943D070E94FB
:101090008A36709365046093640483EB94E068E19E
:1010A00070E00E943D070E948A368B0170936704AE
:1010B00060936604609168047091690480916A0489
:1010C00090916B0420E030E040E050E00E941B363D
:1010D000882331F0809170048150833008F04EC431
:1010E000B801882777FD8095982F0E94BD367B0137
:1010F0008C0160936C0470936D0480936E049093E4
:101100006F0420E030E040E050E00E941B3688236E
:101110000CF034C4C801B70120E030E044EB53E4E4
:101120000E94553560936C0470936D0480936E0437
:1011300090936F0423C48091BD04809371048091C7
:10114000BF04809372048091BE0480937304CCC367
:1011500083EB94E060E070E00E943D0720E030E027
:1011600048EC52E40E94F0370E948A36709375046E
:1011700060937404693C710520F01092750410921C
:1011800074048091D7049091D8049093770480934D
:1011900076048091D9049091DA0490937904809335
:1011A00078048091E3049091E40490934803809341
:1011B00047036091E9047091EA047A83698370932C
:1011C0004A036093490380E090E00E94BB3620E030
:1011D00030E04AEF54E40E94543520E030E040E231
:1011E00051E40E94223620E030E040E05FE30E94BC
:1011F00054350E948A3660934B036D390CF074C3EA
:101200008DE980934B0370C36091BD047091BE045F
:101210008091BF049091C0040E94BD3620E836E959
:1012200048E15BE40E94223660936804709369048D
:1012300080936A0490936B046091C1047091C2041E
:101240008091C3049091C404D4016C9311967C9353
:10125000119712968C93129713969C930E94BD3609
:1012600020E836E948E15BE40E94223660937A0484
:1012700070937B0480937C0490937D048091E204BE
:1012800080937E048091E10480937F0480917004B8
:101290008150833028F56091660470916704882737
:1012A00077FD8095982F0E94BD367B018C0160935D
:1012B0006C0470936D0480936E0490936F0420E02F
:1012C00030E040E050E00E941B368823BCF4C801A7
:1012D000B70120E030E044EB53E40E94553506C0EE
:1012E00083EB94E060E170E00E943D0760936C0442
:1012F00070936D0480936E0490936F0483EB94E07D
:1013000068E070E00E943D07609380047093810460
:10131000809382049093830483EB94E064E170E013
:101320000E943D0760938404709385048093860433
:1013300090938704D9C283EB94E068E070E00E9448
:101340003D079058609388047093890480938A04C1
:1013500090938B04C9C283EB94E060E070E00E943C
:101360003D0760938C0470938D0480938E0490935A
:101370008F0483EB94E064E070E00E943D0720E07E
:1013800030E048EC52E40E94F0370E948A367093B5
:1013900091046093900483EB94E064E170E00E9418
:1013A0003D070E948A367093930460939204E09004
:1013B0008C04F0908D0400918E0410918F04C8016C
:1013C000B70126E636E64EEA51E40E94E5371816E4
:1013D0003CF4E6E0F0E0F0934D03E0934C0355C09D
:1013E000C801B7012AE939E94BE851E40E94E53721
:1013F00018164CF480914C0390914D0305971CF402
:1014000085E090E012C0C801B70123E333E343E570
:1014100051E40E94E53718166CF480914C039091CA
:101420004D0304973CF484E090E090934D03809347
:101430004C032BC0C801B7012DEC3CEC4CE051E44F
:101440000E94E53718166CF480914C0390914D037F
:1014500003973CF4A3E0B0E0B0934D03A0934C039A
:1014600014C0C801B70120E030E040EA50E40E9417
:10147000E537181654F480914C0390914D03029770
:1014800024F430924D0320924C03809194048823DD
:10149000F9F410E060914C0370914D03882777FDBB
:1014A0008095982F0E94BD369B01AC0160918C0401
:1014B00070918D0480918E0490918F040E94223649
:1014C00021EE3AE748E850E40E94E53718160CF49C
:1014D00011E010939404112369F088E49DE7A5EED0
:1014E000B2E480934E0390934F03A0935003B093C4
:1014F000510308C040924E0350924F036092500334
:10150000709251038091940420914C0330914D03CB
:10151000882359F1B901882777FD8095982F0E947B
:10152000BD369B01AC0160918C0470918D0480915B
:101530008E0490918F040E9422362CEF39EA4DE5FB
:1015400050E40E94543520914E0330914F03409156
:101550005003509151030E94F0370E948F36E62FBE
:10156000F0E0EA52FF4F64912AC0B901882777FD65
:101570008095982F0E94BD369B01AC0160918C0430
:1015800070918D0480918E0490918F040E94223678
:101590002CEF39EA4DE550E40E94543520914E037A
:1015A00030914F0340915003509151030E94F03706
:1015B0000E948F36E62FF0E0E65CFE4F649170E00B
:1015C00080E090E00E94BB367B018C01A09052032A
:1015D000B0905303C0905403D0905503C601B50199
:1015E00020E030E040E85FEB0E941B36882349F49E
:1015F000E0925203F0925303009354031093550367
:1016000039C0C801B701A60195010E941B36181602
:101610008CF0C801B7012DEC3CEC4CE45DE30E947A
:10162000F0377B018C01C601B50123E333E343E7C7
:101630005FE310C0C801B7012AE939E949E95EE36F
:101640000E94F0377B018C01C601B50123E333E32F
:1016500043E35FE30E94F0379B01AC01C801B7018F
:101660000E94553560935203709353038093540343
:1016700090935503609152037091530380915403EA
:101680009091550320E030E046EC52E40E94E537AB
:10169000181664F480E090E0A6ECB2E48093520364
:1016A00090935303A0935403B09355036091520356
:1016B00070915303809154039091550320E030E0E2
:1016C00040E050E00E941B36882364F480E090E004
:1016D000A0E0B0E08093520390935303A09354038F
:1016E000B0935503609192047091930480E090E070
:1016F0000E94BB367B018C016091560370915703A9
:10170000882777FD8095982F0E94BD369B01AC01FC
:10171000C801B7010E9422369B01AC0160E070E075
:1017200080E89FE30E94543520E030E048EC52E42A
:101730000E94F037609358037093590380935A03C3
:1017400090935B0320E030E046EC52E40E94E537E2
:10175000181664F480E090E0A6ECB2E4809358039D
:1017600090935903A0935A03B0935B03609158037D
:101770007091590380915A0390915B0320E030E00F
:1017800040E050E00E941B3688230CF0ADC080E0A2
:1017900090E0A0E0B0E08093580390935903A093A9
:1017A0005A03B0935B03A0C083EB94E060E070E069
:1017B0000E943D070E948A36882777FD8095982FE2
:1017C0000E94BD367B018C01609395047093960452
:1017D000809397049093980460915C0370915D03EB
:1017E00080915E0390915F0320E03CE34CE156EC76
:1017F0000E941B36882341F4E0925C03F0925D0363
:1018000000935E0310935F0383EB94E064E070E069
:101810000E943D076093990470939A0480939B04FF
:1018200090939C0461C083EB94E060E070E00E94C0
:101830003D0760939D0470939E0480939F04909352
:10184000A00483EB94E064E070E00E943D076093A5
:10185000A1047093A2048093A3049093A40444C0B1
:10186000809117058093A5048091CB048093A604F2
:101870003BC08091BD049091BE049A8389830196F8
:101880009093A8048093A7042FC083EB94E06CE0AE
:1018900070E00E943D076093A9047093AA048093AE
:1018A000AB049093AC0483EB94E060E170E00E94A1
:1018B0003D076093AD047093AE048093AF049093A2
:1018C000B00412C02091C7042093B1049091CC04BD
:1018D0009093B2048091CA0480937004913009F00F
:1018E0004DC0213009F04AC08EE294E00E94182CCD
:1018F0001816190654F58EE294E00E94482C182F11
:1019000080915D04882309F018CBFDCA10925D0414
:10191000DD24D3948D2D90E026960FB6F894DEBF8B
:101920000FBECDBFCF91DF911F910F91FF90EF9030
:10193000DF90CF90BF90AF909F908F907F906F90EF
:101940005F904F903F902F900895DD24E0905E04CB
:10195000F0905F04009160041091610480E197E2CF
:10196000A0E0B0E0E80EF91E0A1F1B1F0E94E6333C
:10197000E616F7060807190748F2CCCFDD24D39402
:10198000E5CF60916C0470916D0480916E0490912C
:101990006F0420E030E040E152E40E94F03720E0A4
:1019A00030E044EB53E40E9422360E9453380E94F8
:1019B0008A369B012550304037FF03C09B01215ED2
:1019C0003F4FACECB5E0F901E358FC4F80818C93BC
:1019D0002F5F3F4F2432310514F020E030E01196A4
:1019E00085E0A73DB80779F71C9208952F923F92A2
:1019F0004F925F926F927F928F929F92AF92BF921F
:101A0000CF92DF92EF92FF920F931F93DF93CF93CA
:101A100000D000D000D0CDB7DEB7182F662E2091B1
:101A20006204309163042A35310530F0C9018D54C8
:101A30009F4F89359105E8F437FF02C02D543F4F81
:101A4000C90137FF03C0909581959F4F8A31910559
:101A50003CF094E4892E912C89ED282E312C1DC068
:101A60000A975CF10BE3802E912CB2ED2B2E312CDA
:101A700020C02B35310514F0235B3040C90137FFFE
:101A800003C0909581959F4F8A31910554F0A6E54A
:101A90008A2E912CFCED2F2E312CE7E0AE2EB12CAE
:101AA00015C00A9754F07DE4872E912C64ED262E04
:101AB000312C58E0A52EB12C09C045E0842E912C84
:101AC00038E3232E312C29E0A22EB12C609164043E
:101AD00070916504882777FD8095982F0E94BD3608
:101AE00027EA32E94BE25CEB0E94F0370E94C438EF
:101AF00020E030E040EA50E40E94F03720E030E09F
:101B000040E951E40E94F0370E94533820E030E071
:101B100044E352E40E9455350E948A36712E9EEBB2
:101B2000C92E9FEFD92E9B01442737FD4095542F96
:101B300029833A834B835C838BE4482E84E0582EC0
:101B40004AEF5FEF240E351E6091620470916304CA
:101B5000882777FD8095982F0E94BD3625E33AEFC0
:101B60004EE85CE30E94F0370E94C4387B018C0190
:101B7000B601882777FD8095982F0E94BD369B017E
:101B8000AC01C801B7010E94F0377B018C0169816B
:101B90007A818B819C810E94BD369B01AC01C8017A
:101BA000B7010E9455350E948A369B01CB010197EF
:101BB0008A35910508F071C062E170E00E944939F0
:101BC0008B012F5F3F4FAEEEBFEF6A9FC0016B9F4F
:101BD000900D7A9F900D1124820F931F62E070E0A8
:101BE0000E9449396D837E83E62CE01A4E2D4C5FAE
:101BF0008BE494E0672D0E94930400D000D000D0C5
:101C0000EDB7FEB73196ADB7BEB712965C924E9265
:101C1000119720E031E0338322838D819E81880DEE
:101C2000991D958384830E94A52B4DB75EB74A5FAB
:101C30005F4F0FB6F8945EBF0FBE4DBF8D819E8182
:101C40008A159B0554F1043011053CF593E0E90E2B
:101C5000C201672D4E2D0E94930400D000D000D009
:101C6000EDB7FEB73196ADB7BEB712965C924E9205
:101C7000119720E031E0338322834D815E81420D54
:101C8000531D558344830E94A52B8DB79EB706969E
:101C90000FB6F8949EBF0FBE8DBFACE0B0E0CA0E89
:101CA000DB1E7394BEE4CB16D10409F04DCF26960B
:101CB0000FB6F894DEBF0FBECDBFCF91DF911F915D
:101CC0000F91FF90EF90DF90CF90BF90AF909F90DB
:101CD0008F907F906F905F904F903F902F900895DE
:101CE000CF92DF92EF92FF920F931F93823010F406
:101CF00002E002C0082F000F6091C1057091C2057B
:101D00008091C3059091C4050E94BD366B017C0192
:101D100020E030E44CE156E40E941B36202F30E0F6
:101D20004BE454E0882334F58DB79EB70E970FB679
:101D3000F8949EBF0FBE8DBFEDB7FEB73196ADB71D
:101D4000BEB712965C934E93119783E091E0938314
:101D5000828322573F4F358324832F5F3F4F378342
:101D60002683C086D186E286F3868DE890E095874B
:101D7000848734C08DB79EB70E970FB6F8949EBF78
:101D80000FBE8DBF0DB71EB70F5F1F4FADB7BEB7EC
:101D900012965C934E9311978FE091E0F801938334
:101DA000828322573F4F358324832F5F3F4F3783F2
:101DB0002683C701B60120E030E04AE754E40E94E0
:101DC0002236D80118966D937D938D939C931B9723
:101DD0008DEF90E01D969C938E931C970E94A52BEF
:101DE000EDB7FEB73E960FB6F894FEBF0FBEEDBF3F
:101DF0001F910F91FF90EF90DF90CF900895CF93B8
:101E0000DF93AC01E0917604F09177042091C50551
:101E10003091C605C9018C599F4F8E179F071CF43E
:101E2000EA01219609C024563040E217F30714F066
:101E3000EA0102C0EA012197842F90E0C817D90770
:101E400029F081E496E04C2F0E945D32CE01DF91B3
:101E5000CF910895CF92DF92EF92FF920F931F934D
:101E6000CF93DF937C016B01EA0100D000D00BE43B
:101E700014E0EDB7FEB71283018387EA92E0948302
:101E800083830E94942B0F900F900F900F90CA3075
:101E9000D10581F0C436D10521F0C130D10519F545
:101EA00012C000D000D0EDB7FEB71283018385EADF
:101EB00092E011C000D000D0EDB7FEB712830183CD
:101EC00082EA92E008C000D000D0EDB7FEB71283DE
:101ED00001838EE992E0948383830E94942B0F9078
:101EE0000F900F900F9040917604509177042091BD
:101EF000C5053091C605C9018C599F4F84179507B8
:101F00001CF4CE0DDF1D0BC0245630404217530782
:101F100014F0E70116C0C7018C1B9D0BEC01CE1518
:101F2000DF0579F081E496E0B6014C2F0E945D3226
:101F30000894C11CD11C81E496E0B6014D2F0E948B
:101F40005D32CE01DF91CF911F910F91FF90EF9005
:101F5000DF90CF900895CF92DF92EF92FF920F9390
:101F60001F937C01D62EC72E0BE414E0C8016E2D02
:101F70004D2D0E946E0400D000D0EDB7FEB7128345
:101F800001838BEF92E0948383830E94942BEDB7BF
:101F9000FEB7128301838BEE92E0948383830E94C9
:101FA000942BEDB7FEB7128301838BED92E09483FF
:101FB00083830E94942BEDB7FEB7128301838BECD1
:101FC00092E0948383830E94942BEDB7FEB7128333
:101FD00001838CEB92E0948383830E94942B0F9077
:101FE0000F900F900F90C8010E942204C701019624
:101FF0006D2D7C2D0E94F60C1F910F91FF90EF909C
:10200000DF90CF900895CF92DF92EF92FF920F93DF
:102010001F93282F462F0BE414E0C801622F0E9463
:102020006E04E090C705F090C805C090C905D09037
:10203000CA058DB79EB744970FB6F8949EBF0FBEE2
:102040008DBFEDB7FEB73196ADB7BEB712961C93F4
:102050000E9311978BE191E09383828383EB90E061
:1020600095838483C7016CE370E00E944939CB01FA
:102070006CE370E00E944939978386832AE330E05D
:1020800031872087C7016CE370E00E94493993874C
:10209000828789EF90E095878487C6016CE370E0C2
:1020A0000E943539CB016CE370E00E944939978773
:1020B0008687318B208BC6016CE370E00E94353936
:1020C000938B828B0E94A52B8DB79EB744960FB63B
:1020D000F8949EBF0FBE8DBFC8010E9422041F91BD
:1020E0000F91FF90EF90DF90CF9008950F931F9383
:1020F000282F462F0BE414E0C801622F0E946E04C3
:102100008DB79EB70C970FB6F8949EBF0FBE8DBFCC
:10211000EDB7FEB73196ADB7BEB712961C930E93CE
:10212000119783E391E09383828383EE90E095831C
:1021300084838091990490919A04A0919B04B0911A
:102140009C0486839783A087B18780EB90E0938778
:1021500082870E94A52B8DB79EB70C960FB6F89478
:102160009EBF0FBE8DBFC8010E9422041F910F9118
:1021700008950F931F93282F462F0BE414E0C801F6
:10218000622F0E946E048DB79EB746970FB6F894E3
:102190009EBF0FBE8DBFEDB7FEB73196ADB7BEB7D0
:1021A00012961C930E9311978DE391E09383828393
:1021B00089EB90E0958384838091920490919304BD
:1021C0009783868382E890E09187808787EB90E011
:1021D000938782878091520390915303A091540377
:1021E000B091550384879587A687B78786EB90E0E3
:1021F000918B808B8091580390915903A0915A0341
:10220000B0915B03828B938BA48BB58B0E94A52B23
:102210008DB79EB746960FB6F8949EBF0FBE8DBF82
:10222000C8010E9422041F910F910895EF92FF921E
:102230000F931F93282F462F3BE4E32E34E0F32E19
:10224000C701622F0E946E048DB79EB70C970FB620
:10225000F8949EBF0FBE8DBF0DB71EB70F5F1F4F07
:10226000EDB7FEB7F282E18285E591E0F801938354
:10227000828384EE90E095838483609190047091D2
:102280009104882777FD8095982F0E94BD362AE01B
:1022900037ED43E25CE30E94F037F8016683778311
:1022A000808791878FE890E0938782870E94A52B93
:1022B0008DB79EB70C960FB6F8949EBF0FBE8DBF1C
:1022C000C7010E9422041F910F91FF90EF90089583
:1022D000CF92DF92EF92FF920F931F93282F462FFA
:1022E0008BE494E0622F0E946E04C0908C04D09026
:1022F0008D04E0908E04F0908F048091CB0590E0E7
:10230000805D9E4F20914C0330914D03829FB00120
:10231000839F700D929F700D1124882777FD809503
:10232000982F0E94BD3620E030E048EC52E40E9435
:1023300022369B01AC01C701B6010E941B3618165C
:1023400014F428EB01C024EB8DB79EB70C970FB6A1
:10235000F8949EBF0FBE8DBFEDB7FEB731960BE46C
:1023600014E0ADB7BEB712961C930E93119785E596
:1023700091E093838283822F992787FD909595839F
:102380008483C682D782E086F1868EE890E09387C8
:1023900082870E94A52B8DB79EB70C960FB6F89436
:1023A0009EBF0FBE8DBFC8010E9422041F910F91D6
:1023B000FF90EF90DF90CF9008950F931F93CF93EE
:1023C000DF93282F462F8BE494E0622F0E946E0447
:1023D00080917304882319F4CFE5D1E057C0813090
:1023E00019F4C3E6D1E052C0823019F4C7E6D1E057
:1023F0004DC0833019F4CBE6D1E048C0843019F4E5
:10240000CFE6D1E043C0853019F4C3E7D1E03EC048
:10241000863019F4C7E7D1E039C0873019F4CBE72B
:10242000D1E034C0883019F4CFE7D1E02FC0893033
:1024300019F4C3E8D1E02AC08A3019F4C7E8D1E022
:1024400025C08B3019F4CBE8D1E020C08C3019F4D2
:10245000CFE8D1E01BC08D3019F4C3E9D1E016C03C
:102460008E3019F4C7E9D1E011C08F3019F4CBE9EF
:10247000D1E00CC0803119F4CFE9D1E007C081313F
:1024800019F0C3EAD1E002C0C4EAD1E0815086303D
:1024900090F480917204882371F00E94E6332CE25C
:1024A00031E040E050E00E945C3920FF02C024E0AF
:1024B00003C020E201C020EE8DB79EB708970FB68B
:1024C000F8949EBF0FBE8DBFEDB7FEB731960BE4FB
:1024D00014E0ADB7BEB712961C930E93119788EA1D
:1024E00091E093838283822F992787FD909595832E
:1024F0008483D783C6830E94A52B8DB79EB7089689
:102500000FB6F8949EBF0FBE8DBFC8010E94220473
:10251000DF91CF911F910F9108950F931F93282F53
:10252000462F0BE414E0C801622F0E946E048DB7A1
:102530009EB70A970FB6F8949EBF0FBE8DBFEDB73A
:10254000FEB73196ADB7BEB712961C930E93119796
:102550008DEA91E09383828387E890E0958384837A
:1025600080917404909175049783868385E290E04E
:10257000918780870E94A52B8DB79EB70A960FB6CC
:10258000F8949EBF0FBE8DBFC8010E9422041F9108
:102590000F9108950F931F93282F462F0BE414E0FB
:1025A000C801622F0E946E048DB79EB708970FB6C0
:1025B000F8949EBF0FBE8DBFEDB7FEB73196ADB795
:1025C000BEB712961C930E93119787EB91E09383FD
:1025D000828380916404909165049583848381EB68
:1025E00090E0978386830E94A52B8DB79EB70896AF
:1025F0000FB6F8949EBF0FBE8DBFC8010E94220483
:102600001F910F9108950F931F93282F462F0BE4CE
:1026100014E0C801622F0E946E048DB79EB7089720
:102620000FB6F8949EBF0FBE8DBFEDB7FEB73196C3
:10263000ADB7BEB712961C930E93119787EB91E03E
:102640009383828380916204909163049583848351
:1026500082EB90E0978386830E94A52B8DB79EB76F
:1026600008960FB6F8949EBF0FBE8DBFC8010E949A
:1026700022041F910F910895AF92BF92CF92DF92E3
:10268000EF92FF920F931F93B82EA62E0BE414E047
:10269000C8016B2D4A2D0E946E048DB79EB70E9710
:1026A0000FB6F8949EBF0FBE8DBFEDB7FEB7319643
:1026B000ADB7BEB712961C930E9311978DEB91E0B8
:1026C0009383828351EEC52ED12CD582C482809112
:1026D000A504992787FD9095978386834CE8E42E7F
:1026E000F12CF186E0868091A604828713868BE820
:1026F00090E0958784870E94A52B8DB79EB70E9694
:102700000FB6F8949EBF0FBE8DBFC8010E94220471
:10271000C8016B2D4A2D0E946E04ADB7BEB71A9743
:102720000FB6F894BEBF0FBEADBFEDB7FEB7319682
:1027300012961C930E9311978BEC91E093838283F6
:10274000D582C48280914B03992787FD909597830A
:102750008683F186E0860E94A52B8DB79EB70A96E8
:102760000FB6F8949EBF0FBE8DBFC8010E94220411
:102770001F910F91FF90EF90DF90CF90BF90AF909F
:1027800008950F931F93282F462F0BE414E0C801E0
:10279000622F0E946E048DB79EB742970FB6F894D1
:1027A0009EBF0FBE8DBFEDB7FEB73196ADB7BEB7BA
:1027B00012961C930E93119783ED91E0938382837D
:1027C00084EE91E09583848380916C0490916D04F4
:1027D000A0916E04B0916F0486839783A087B18720
:1027E00080EB90E09387828780ED90E095878487E7
:1027F0008CEC95E09787868781ED90E0918B808BBC
:102800000E94A52B8DB79EB742960FB6F8949EBF37
:102810000FBE8DBFC8010E9422041F910F91089521
:102820000F931F93282F462F0BE414E0C801622F4B
:102830000E946E048DB79EB70C970FB6F8949EBF9A
:102840000FBE8DBFEDB7FEB73196ADB7BEB71296CE
:102850001C930E93119783E391E09383828386E127
:1028600090E0958384838091880490918904A0915D
:102870008A04B0918B0486839783A087B18788E808
:1028800090E0938782870E94A52B8DB79EB70C9608
:102890000FB6F8949EBF0FBE8DBFC8010E942204E0
:1028A0001F910F910895CF92DF92EF92FF920F93B5
:1028B0001F93CF93DF93282F462FCBE4D4E0CE0194
:1028C000622F0E946E04C090D805D090D905E09088
:1028D000DA05F090DB05C701B6010E948A36695E11
:1028E0007340804090408CF18DB79EB70C970FB627
:1028F000F8949EBF0FBE8DBF0DB71EB70F5F1F4F61
:10290000ADB7BEB71296DC93CE93119785E591E0F3
:10291000F801938382838EEF90E095838483C701CF
:10292000B60120E030E04AE754E40E942236D801A4
:1029300016966D937D938D939C9319978DEF90E0F0
:102940001B969C938E931A9721C08DB79EB70C97B8
:102950000FB6F8949EBF0FBE8DBFEDB7FEB7319690
:10296000ADB7BEB71296DC93CE9311978EEE91E081
:10297000938382838EEF90E095838483C682D7828F
:10298000E086F1868DE890E0938782870E94A52BF0
:10299000EDB7FEB73C960FB6F894FEBF0FBEEDBF85
:1029A0008BE494E00E942204DF91CF911F910F915C
:1029B000FF90EF90DF90CF900895EF92FF920F93EA
:1029C0001F93282F462F6BE4E62E64E0F62EC701F6
:1029D000622F0E946E048DB79EB70C970FB6F894C5
:1029E0009EBF0FBE8DBF0DB71EB70F5F1F4FEDB758
:1029F000FEB7F282E18283E391E0F8019383828360
:102A000088EE90E0958384836091DC057091DD050C
:102A10008091DE059091DF0526E636E646E650E435
:102A20000E94F037F801668377838087918781E879
:102A300090E0938782870E94A52B8DB79EB70C9656
:102A40000FB6F8949EBF0FBE8DBFC7010E9422042F
:102A50001F910F91FF90EF900895EF92FF920F93C7
:102A60001F93282F462F7BE4E72E74E0F72EC70133
:102A7000622F0E946E048DB79EB70C970FB6F89424
:102A80009EBF0FBE8DBF0DB71EB70F5F1F4FEDB7B7
:102A9000FEB7F282E18283E391E0F80193838283BF
:102AA00089EE90E09583848360918404709185041D
:102AB000809186049091870426E636E646E650E447
:102AC0000E94F037F801668377838087918781E8D9
:102AD00090E0938782870E94A52B8DB79EB70C96B6
:102AE0000FB6F8949EBF0FBE8DBFC7010E9422048F
:102AF0001F910F91FF90EF900895CF92DF92EF9288
:102B0000FF920F931F93282F462FBBE4CB2EB4E0E8
:102B1000DB2EC601622F0E946E04609180047091CA
:102B2000810480918204909183042DB73EB7245193
:102B300030400FB6F8943EBF0FBE2DBF0DB71EB785
:102B40000F5F1F4FEDB7FEB7D282C18228EF31E091
:102B5000F8013383228325E830E0358324836683BC
:102B6000778380879187ADE8EA2EF12CF386E286A1
:102B700027EE30E0358724872091E0053091E1058C
:102B80004091E2055091E3050E945435F8016687B3
:102B90007787808B918BF38AE28A0E94A52B2DB7D1
:102BA0003EB72C5E3F4F0FB6F8943EBF0FBE2DBF11
:102BB000C6010E9422041F910F91FF90EF90DF90B9
:102BC000CF900895EF92FF920F931F93282F462FD7
:102BD0001BE4E12E14E0F12EC701622F0E946E0467
:102BE0008DB79EB70C970FB6F8949EBF0FBE8DBFE2
:102BF0000DB71EB70F5F1F4FEDB7FEB7F282E18230
:102C00008CE092E0F8019383828386EE90E09583D6
:102C100084836091950470919604809197049091BB
:102C2000980420915C0330915D0340915E035091C4
:102C30005F030E945435F80166837783808791870C
:102C40008DE890E0938782870E94A52B8DB79EB771
:102C50000C960FB6F8949EBF0FBE8DBFC7010E94A1
:102C600022041F910F91FF90EF9008950F931F93EF
:102C7000282F462F0BE414E0C801622F0E946E0437
:102C80008091E4050E94700EC8010E9422041F91E9
:102C90000F910895CF92DF92EF92FF920F931F93BF
:102CA000CF93DF93282F462FCBE4D4E0CE01622FC1
:102CB0000E946E046091E5057091E6058091E7053C
:102CC0009091E8050E94BD366B017C0120E030E464
:102CD0004CE156E40E941B36882314F58DB79EB74D
:102CE0000C970FB6F8949EBF0FBE8DBFEDB7FEB721
:102CF0003196ADB7BEB71296DC93CE9311978CE0A8
:102D000092E09383828382E190E095838483C682FC
:102D1000D782E086F1868DE890E09387828730C085
:102D20008DB79EB70C970FB6F8949EBF0FBE8DBFA0
:102D30000DB71EB70F5F1F4FADB7BEB71296DC932E
:102D4000CE93119786E192E0F8019383828382E12A
:102D500090E095838483C701B60120E030E04AE724
:102D600054E40E942236D80116966D937D938D937C
:102D70009C9319978DEF90E01B969C938E931A97D6
:102D80000E94A52BEDB7FEB73C960FB6F894FEBF98
:102D90000FBEEDBF8BE494E00E942204DF91CF913F
:102DA0001F910F91FF90EF90DF90CF900895BF9209
:102DB000CF92DF92EF92FF920F931F93CF93DF9307
:102DC000282F462F8BE494E0622F0E946E042091FE
:102DD000E9053091EA0537FF02C04AE801C047EF34
:102DE000C091EB05D091EC05D7FF03C06AE8B62E81
:102DF00002C058EFB52E8DB79EB74C970FB6F8941A
:102E00009EBF0FBE8DBF0DB71EB70F5F1F4F9BE458
:102E1000C92E94E0D92EEDB7FEB7D282C18280E2EE
:102E200092E0F80193838283842F992787FD909500
:102E300095838483B901882777FD8095982F0E9418
:102E4000BD36F80166837783808791878DE8E82E09
:102E5000F12CF386E2868B2D992787FD9095958737
:102E60008487BE01882777FD8095982F0E94BD3604
:102E7000F80166877787808B918BF38AE28A8BEFE4
:102E800090E0958B848B6091ED057091EE058091BB
:102E9000EF059091F00520E030E04AE754E40E940D
:102EA0002236F801668B778B808F918F84EF90E0CC
:102EB000938F828F0E94A52B8DB79EB74C960FB62D
:102EC000F8949EBF0FBE8DBFC6010E942204DF9101
:102ED000CF911F910F91FF90EF90DF90CF90BF9017
:102EE00008950F931F93282F462F0BE414E0C80179
:102EF000622F0E946E048DB79EB70C970FB6F894A0
:102F00009EBF0FBE8DBFEDB7FEB73196ADB7BEB752
:102F100012961C930E9311978EE392E09383828313
:102F20008091680490916904A0916A04B0916B0447
:102F300084839583A683B78380917A0490917B04E0
:102F4000A0917C04B0917D0480879187A287B3878C
:102F50000E94A52B8DB79EB70C960FB6F8949EBF16
:102F60000FBE8DBFC8010E9422041F910F910895CA
:102F70000F931F93282F462F8BE494E0622F0E941B
:102F80006E0480917F04282F30E0823030F474E0AA
:102F9000220F331F7A95E1F702C02150304000D054
:102FA00000D000D0EDB7FEB731960BE414E0ADB71A
:102FB000BEB712961C930E93119780E091E0938315
:102FC0008283358324830E94A52B8DB79EB70696F6
:102FD0000FB6F8949EBF0FBE8DBFC8010E94220499
:102FE0001F910F9108950F931F93282F462F0BE4E5
:102FF00014E0C801622F0E946E048DB79EB7089737
:103000000FB6F8949EBF0FBE8DBFEDB7FEB73196D9
:10301000ADB7BEB712961C930E9311978AE492E057
:10302000938382838FE090E09583848380917E04F4
:10303000868317820E94A52B8DB79EB708960FB680
:10304000F8949EBF0FBE8DBFC8010E9422041F913D
:103050000F9108950F931F930BE414E0C80161E0F2
:1030600047E00E946E0400D000D0EDB7FEB7128397
:1030700001838BE093E0948383830E94942B0F90D1
:103080000F900F900F90C8010E9422041F910F9182
:1030900008959F92AF92BF92CF92DF92EF92FF92EC
:1030A0000F931F93CF93DF93282F462FCBE4D4E0C9
:1030B000CE01622F0E946E04909073048EE09816E9
:1030C00021F09CE0991609F008C16091AD0470915F
:1030D000AE048091AF049091B0042091A10430918E
:1030E000A2044091A3045091A4040E9454357B0192
:1030F0008C016091A9047091AA048091AB04909115
:10310000AC0420919D0430919E0440919F04509105
:10311000A0040E9454355B016C01C801B701A801ED
:1031200097010E94F0377B018C01C601B501A60111
:1031300095010E94F0379B01AC01C801B7010E94C4
:1031400055350E9477385B016C01E0908404F09063
:1031500085040091860410918704C801B70120E01E
:1031600030E040E050E00E94E53718161CF000E027
:1031700010E009C0C601B501A80197010E942236DE
:103180000E948F368B01C601B50120E83FE443EC75
:1031900057E40E94E537181654F40F2EF0E8AF2ECE
:1031A000FFE4BF2EF3ECCF2EF7E4DF2EF02DE80185
:1031B000A7E100371A0710F0CFE6D7E18091A70406
:1031C0009091A8048436910530F083E690E09093C6
:1031D000A8048093A704C601B50120E03CE34CE1BC
:1031E00056E40E94E53718163CF4FDEFFF2E2FE65B
:1031F00032E143E85AE306C0EDE8FE2E20E030E07D
:1032000040E85FE3BCE09B1621F41092A804109202
:10321000A704EDB7FEB77A970FB6F894FEBF0FBEBE
:10322000EDBF0DB71EB70F5F1F4F8BE494E0928385
:10323000818380E592E0D80113969C938E93129738
:1032400083E190E015969C938E93149784E190E02F
:1032500017969C938E93169789E190E019969C930C
:103260008E931897C601B5010E94F037F801628766
:103270007387848795878F2D992787FD90959787EA
:1032800086878091A7049091A804918B808B8AE116
:1032900090E0938B828BCE016CE370E00E94353915
:1032A000CB016CE370E00E944939958B848B8AE3F3
:1032B00090E0978B868BCE016CE370E00E943539ED
:1032C000918F808F0E94A52B8DB79EB74A960FB61F
:1032D000F8949EBF0FBE8DBF23C02FE632E0ADB77E
:1032E000BEB718970FB6F894BEBF0FBEADBFEDB70F
:1032F000FEB731961296DC93CE93119788E792E051
:103300009383828335832483378326830E94A52B6E
:10331000EDB7FEB738960FB6F894FEBF0FBEEDBFFF
:103320008BE494E00E942204DF91CF911F910F91D2
:10333000FF90EF90DF90CF90BF90AF909F90089557
:103340002F923F924F925F926F927F928F929F92B5
:10335000AF92BF92CF92DF92EF92FF920F931F93A3
:10336000DF93CF9300D000D0CDB7DEB7E0902B062F
:10337000F0902C0600912D0610912E068FE590E01E
:10338000A0E0B0E0E80EF91E0A1F1B1F0E94E63302
:103390006E157F058007910708F481C12091840490
:1033A000309185044091860450918704E090880410
:1033B000F090890400918A0410918B04CA01B9012C
:1033C0000E94F0375B016C01C801B701A8019701A9
:1033D0000E94F0379B01AC01C601B5010E94553532
:1033E0000E9477386093DC057093DD058093DE05DD
:1033F0009093DF0520E030E040E050E00E94E537A8
:1034000018160CF042C10E94E63320912B06309131
:103410002C0640912D0650912E06621B730B840BD7
:10342000950B0E94BB363B014C01E090DC05F0900F
:10343000DD050091DE051091DF05209184043091B7
:10344000850440918604509187040E94F03720E063
:1034500030E04AE754E40E9422369B01AC016091BF
:10346000D8057091D9058091DA059091DB050E940D
:1034700055356093D8057093D9058093DA059093FC
:10348000DB058091190690911A06892B09F49AC0E0
:10349000C801B701A40193010E94F03720E030E099
:1034A0004AE754E40E9422361B012C0160919004EB
:1034B00070919104882777FD8095982F0E94BD36E2
:1034C00069837A838B839C83609127067091280699
:1034D0008091290690912A062DEC3CEC4CE45FE3A8
:1034E0000E94F0377B018C01C201B10120E030EA7B
:1034F0004CE857E40E94F03729813A814B815C8186
:103500000E942236A40193010E9422369B01AC0145
:10351000C801B7010E9455355B016C016093270615
:10352000709328068093290690932A06609156038B
:1035300070915703882777FD8095982F0E94BD369C
:103540002DEC3CEC4CE45FE30E94F0377B018C01F6
:10355000609192047091930480E090E00E94BB36E9
:103560009B01AC01C801B7010E945435A601950129
:103570000E94F0377B018C016091C1057091C205FA
:103580008091C3059091C4050E94BD369B01AC019A
:10359000C801B7010E94543520E030E040E05FE30D
:1035A0000E94F0370E948A367093EC056093EB0519
:1035B000615F784D64F481EF98ED9093EC05809312
:1035C000EB0505C01092EC051092EB0552C0C2014C
:1035D000B10120E030E040E050E00E94E5371816ED
:1035E0000CF047C06091ED057091EE058091EF05FC
:1035F0009091F0052DEC3CEC4CE45FE30E94F03739
:103600007B018C0169817A818B819C8120918C0462
:1036100030918D0440918E0450918F040E94F037B8
:10362000A40193010E94F03720E030E041EE54E421
:103630000E942236A20191010E9422369B01AC0118
:10364000C801B7010E9455356093ED057093EE05F2
:103650008093EF059093F00520E03BE443EC57E4C2
:103660000E94E53718168CF480E09BE4A3ECB7E4E5
:1036700004C080E090E0A0E0B0E08093ED0590937E
:10368000EE05A093EF05B093F0050E94E63360933A
:103690002B0670932C0680932D0690932E060F9088
:1036A0000F900F900F90CF91DF911F910F91FF908E
:1036B000EF90DF90CF90BF90AF909F908F907F90D2
:1036C0006F905F904F903F902F900895EF92FF92F0
:1036D0000F931F93CF93DF930E94E6332091F4055D
:1036E0003091F5054091F6055091F70526173707FB
:1036F0004807590708F029C10E94E6336C507E4FF5
:103700008F4F9F4F6093F4057093F5058093F605F6
:103710009093F7050BE414E0C8010E94B804C801B7
:1037200065E043E00E946E0400D000D0EDB7FEB724
:10373000128301838CE493E0948383830E94942B0F
:103740000F900F900F900F908091C5059091C60536
:10375000892B31F08091F1059091F205892B81F44C
:1037600080917604909177049093C6058093C50567
:1037700080917804909179049093F2058093F105FB
:1037800020917804309179044091F1055091F2052F
:10379000C901845690404817590724F48091F305D5
:1037A0008F5F08C02C593F4F241735072CF48091A8
:1037B000F30581508093F3058091F305823014F472
:1037C00082E003C085301CF084E08093F305809193
:1037D000F305833039F0843009F45DC0823009F09C
:1037E000B0C003C0CAE0D0E002C0C4E6D0E000D060
:1037F00000D0BBE4EB2EB4E0FB2EEDB7FEB7F282B7
:10380000E1828DE393E0948383830E94942B8DB7B0
:103810009EB708970FB6F8949EBF0FBE8DBF0DB729
:103820001EB70F5F1F4FEDB7FEB7F282E1828EE742
:1038300092E0F8019383828360915603709157035D
:10384000882777FD8095982F0E94BD36F801648304
:1038500075838683978382E890E09187808780E2F2
:1038600090E0938782870E94A52B8DB79EB70C9618
:103870000FB6F8949EBF0FBE8DBF809156039091F6
:1038800057036DEF73E0AE010E942A0F9093570328
:103890008093560356C000D000D0ABE4EA2EA4E0DB
:1038A000FA2EEDB7FEB7F282E1828DE193E09483C8
:1038B00083830E94942B8DB79EB708970FB6F89418
:1038C0009EBF0FBE8DBF0DB71EB70F5F1F4FEDB769
:1038D000FEB7F282E18286E892E0F8019383828368
:1038E0006091CB0570E0645D7E4F882777FD809501
:1038F000982F0E94BD3620E030E048EC52E40E9450
:103900002236F801648375838683978386E790E087
:103910009187808780E290E0938782870E94A52B21
:103920008DB79EB70C960FB6F8949EBF0FBE8DBF95
:103930008091CB0590E060E873E00E94FF0E8093D9
:10394000CB058BE494E00E942204DF91CF911F917C
:103950000F91FF90EF9008952F923F924F925F92B8
:103960006F927F928F929F92AF92BF92CF92DF928F
:10397000EF92FF920F931F93DF93CF93CDB7DEB7F4
:103980002F970FB6F894DEBF0FBECDBF8C876D8723
:103990000E94E6332091F8053091F9054091FA052F
:1039A0005091FB05261737074807590708F0EBC168
:1039B0008091FC058823C9F0809360031092FC0578
:1039C0008EE892E090930B0680930A060E94E633FD
:1039D000625A7E4F8F4F9F4F6093F8057093F905A1
:1039E0008093FA059093FB0588C180916003282E8F
:1039F0003324C09071042091B1042B873091B2041C
:103A00003A87D0907004E090FE05F090FF05009199
:103A10000A0610910B0640915D04498350917F0482
:103A200059878091FD05888740908C0450908D04C3
:103A300060908E0470908F048091CB0590E0845D3F
:103A40009E4F20914C0330914D03DC01A29FC00199
:103A5000A39F900DB29F900D1124B091A504BF8338
:103A6000E091A604EE832091E9053091EA053D83BB
:103A70002C834091EB055091EC055B834A833F8694
:103A80002E864C01AA2497FCA094BA2C8E859F8583
:103A900001969F878E8709972CF0A1E0B0E0BF8741
:103AA000AE8727C0EE85FF85E430F10509F454C0E8
:103AB000E530F1055CF4E230F105D1F1E330F105D8
:103AC0000CF03EC0319709F09BC013C02E853F8596
:103AD0002630310509F461C0263031050CF453C09D
:103AE0002730310509F465C02830310509F088C058
:103AF00078C031E03C15A0F0C31619F40BE912E0D0
:103B000015C04B85413049F45A85513031F482E07B
:103B10008D1518F008EA12E009C005EB12E006C0A6
:103B20009A85913009F46CC002EC12E081E06FC01C
:103B3000A981A33009F464C00FEC12E082E067C0F1
:103B4000B985B23008F05CC0E885EE2309F458C0AE
:103B50000CED12E083E05BC0C501B4010E94BD36EC
:103B600020E030E048EC52E40E9422369B01AC0198
:103B7000C301B2010E941B3688230CF041C009EE3C
:103B800012E084E044C0F1E0EF16F104C9F506EF5D
:103B900012E0EE24FF2485E03AC02F812C3A2CF06D
:103BA0003E81393668F5222359F103E013E086E0BF
:103BB0002EC041E04C1520F14D1510F552E0D51600
:103BC00019F400E113E005C083E0D81621F40DE1FB
:103BD00013E087E01CC094E0D916D9F70AE213E09D
:103BE000F8CFA1E0AC1560F4EC81FD81F7FD04C0D5
:103BF0002A813B8137FF04C007E313E088E007C058
:103C00004E855F854215530509F040CFA1C0F09263
:103C1000FF05E092FE0510930B0600930A068093C1
:103C2000FC0581E0809300060E94E63364547D4FDA
:103C30008F4F9F4F6093F8057093F9058093FA05B5
:103C40009093FB050E94E6336854744F8F4F9F4F4B
:103C50006093060670930706809308069093090602
:103C60008091010690910206A0910306B09104068E
:103C70000097A105B10571F40E94E6336059784EB2
:103C80008F4F9F4F60930106709302068093030647
:103C90009093040680910506882379F40E94E63308
:103CA00020910106309102064091030650910406CE
:103CB000261737074807590720F08BE494E00E9445
:103CC000B8040E94E633209101063091020640912B
:103CD000030650910406261737074807590768F06E
:103CE000109205060AC0109200061092010610926A
:103CF000020610920306109204060BE414E0C801B9
:103D00006C854D850E946E0400D000D000D0EDB7C8
:103D1000FEB73196ADB7BEB712961C930E931197AE
:103D200084E493E09383828380910A0690910B064A
:103D3000958384830E94A52BEDB7FEB736960FB608
:103D4000F894FEBF0FBEEDBFC8010E9422041BC045
:103D5000F092FF05E092FE0510930B0600930A0611
:103D60001092FC050E94E63320910606309107066A
:103D7000409108065091090626173707480759074A
:103D800008F4B1CFBACF2F960FB6F894DEBF0FBEAE
:103D9000CDBFCF91DF911F910F91FF90EF90DF90FA
:103DA000CF90BF90AF909F908F907F906F905F90DB
:103DB0004F903F902F9008952091470330914803F2
:103DC000C901895097408F5A9440D0F58091710471
:103DD000882321F481E080930C062EC080910C068C
:103DE000882351F580910006882311F10E94E63363
:103DF000209101063091020640910306509104067D
:103E00002617370748075907B8F40E94E633209170
:103E1000F8053091F9054091FA055091FB052617F8
:103E200037074807590740F48091FC05882321F49F
:103E30008BE494E00E94B80482E080930506089524
:103E400084E0203B380768F480910506882349F018
:103E500010920C068BE494E00E94B80410920506C0
:103E60000895205B34402955324000F580910506C5
:103E70008130E1F080910006882379F00E94E633DA
:103E800020910106309102064091030650910406EC
:103E9000261737074807590748F410920C068BE499
:103EA00094E00E94B80481E0809305060895EF92A3
:103EB000FF920F931F9380910C06882309F060C036
:103EC00080917104823008F05BC08091FD058130E3
:103ED00009F056C0809176049091770489509740FC
:103EE0000CF44EC08091780490917904805B9440EA
:103EF0000CF046C08091680490916904A0916A0416
:103F0000B0916B0480930D0690930E06A0930F065C
:103F1000B093100680917A0490917B04A0917C0468
:103F2000B0917D048093110690931206A09313061E
:103F3000B09314068091800490918104A091820432
:103F4000B09183048093E0059093E105A093E2058E
:103F5000B093E3058091950490919604A091970405
:103F6000B091980480935C0390935D03A0935E03EB
:103F7000B0935F0381E090E09093FF058093FE058E
:103F80008091150690911606A0911706B09118061B
:103F90000097A105B10509F04EC08091740490917D
:103FA0007504079708F447C080917104823008F4C3
:103FB00042C00E94E6336093150670931606809304
:103FC00017069093180610921A06109219068091FF
:103FD00092049091930490931C0680931B06809109
:103FE000520390915303A0915403B09155038093D1
:103FF000610390936203A0936303B093640380E032
:1040000090E0A0E0B0E08093D8059093D905A0930C
:10401000DA05B093DB058091950490919604A09108
:104020009704B091980480935C0390935D03A093F0
:104030005E03B0935F038091150690911606A091E0
:104040001706B09118060097A105B10509F462C0E2
:104050008091740490917504079720F48091720404
:10406000882359F180917104823038F10E94E6333F
:1040700020911506309116064091170650911806AA
:10408000621B730B840B950B28EE33E040E050E08D
:104090000E945C393093C8052093C7058091920433
:1040A0009091930420911B0630911C06821B930B68
:1040B00090931A06809319064DC00E94E6337B0147
:1040C0008C016091C7057091C805882777FD8095A0
:1040D000982F28E13CEF4FEF5FEF0E941639E60E74
:1040E000F71E081F191FE0921506F092160600939E
:1040F00017061093180680919204909193042091D2
:10410000190630911A06821B930B90931C0680931C
:104110001B0620C00E94E63328EE33E040E050E06A
:104120000E945C393093C8052093C70510921A0687
:10413000109219068091520390915303A091540359
:10414000B09155038093610390936203A09363033E
:10415000B09364030E94DC1E80910C06882319F042
:104160000E94661B5EC28091C20380FF08C06091FE
:104170001C0480911A0490E070E00E94AC1C8091B5
:1041800005068230A8F080910006882309F449C210
:104190000E94E63320910106309102064091030609
:1041A00050910406261737074807590708F439C203
:1041B0008091050680931D06823011F41092050649
:1041C00080910506A82FB0E0FD01E454FC4F8081EA
:1041D00085FF0BC0FD01EC52FC4F6081AE52BC4F1D
:1041E0008C9190E070E00E94F31780910506A82F53
:1041F000B0E0FD01E454FC4F808186FF0BC0FD015F
:10420000E852FC4F6081AA52BC4F8C9190E070E064
:104210000E94B81780910506A82FB0E0FD01EE536B
:10422000FC4F808183FF0BC0FD01E05EFB4F60818E
:10423000A25EBB4F8C9190E070E00E9410148091C0
:10424000FD05882309F469C080910506A82FB0E018
:10425000FD01E454FC4F808187FF0BC0FD01E45257
:10426000FC4F6081A652BC4F8C9190E070E00E94A0
:10427000711780910506A82FB0E0FD01E254FC4FB4
:10428000808184FF0BC0FD01E451FC4F6081A65189
:10429000BC4F8C9190E070E00E944A168091050618
:1042A000A82FB0E0FD01E254FC4F808183FF0BC0DA
:1042B000FD01E851FC4F6081AA51BC4F8C9190E008
:1042C00070E00E94361680910506A82FB0E0FD012F
:1042D000E254FC4F808185FF0BC0FD01E051FC4F93
:1042E0006081A251BC4F8C9190E070E00E9449180F
:1042F00080910506A82FB0E0FD01E254FC4F8081BB
:1043000086FF0BC0FD01EC50FC4F6081AE50BC4FEE
:104310008C9190E070E00E94D71680910506A82F3E
:10432000B0E0FD01E054FC4F808187FF0BC0FD0130
:10433000EC5FFB4F6081AE5FBB4F8C9190E070E013
:104340000E94E2158091FD05882309F459C08091EF
:104350007F04823008F454C080910506A82FB0E095
:10436000FD01EC53FC4F808182FF0BC0FD01E85D35
:10437000FB4F6081AA5DBB4F8C9190E070E00E9482
:10438000531480910506A82FB0E0FD01E054FC4FC6
:10439000808182FF0BC0FD01E050FC4F6081A25084
:1043A000BC4F8C9190E070E00E947D1580910506D5
:1043B000A82FB0E0FD01E054FC4F808183FF0BC0CB
:1043C000FD01E85FFB4F6081AA5FBB4F8C9190E0DD
:1043D00070E00E942D1580910506A82FB0E0FD0128
:1043E000E054FC4F808181FF0BC0FD01E45FFB4F77
:1043F0006081A65FBB4F8C9190E070E00E94DD145D
:104400008091FD05882321F080917F04823028F47B
:104410008091700481508330A8F480910506A82F04
:10442000B0E0FD01E254FC4F808180FF0BC0FD0134
:10443000EC51FC4F6081AE51BC4F8C9190E070E02C
:104440000E94C11380910506A82FB0E0FD01EE5334
:10445000FC4F808186FF0FC08091A504882359F00E
:10446000FD01EC5DFB4F6081AE5DBB4F8C9190E038
:1044700070E00E943C1380910506A82FB0E0FD017A
:10448000E454FC4F808182FF0BC0FD01E453FC4FDC
:104490006081A653BC4F8C9190E070E00E940313A2
:1044A00080910506A82FB0E0FD01E454FC4F808107
:1044B00081FF0BC0FD01E853FC4F6081AA53BC4F44
:1044C0008C9190E070E00E94CA1280910506A82F9E
:1044D000B0E0FD01E054FC4F808184FF0BC0FD0182
:1044E000E05FFB4F6081A25FBB4F8C9190E070E07A
:1044F0000E948D1280910506A82FB0E0FD01E054C6
:10450000FC4F808185FF0BC0FD01EC5EFB4F60819D
:10451000AE5EBB4F8C9190E070E00E94DD11809107
:104520000506A82FB0E0FD01E454FC4F808183FF15
:104530000BC0FD01E053FC4F6081A253BC4F8C9136
:1045400090E070E00E94681180910506A82FB0E00D
:10455000FD01E054FC4F808180FF0BC0FD01E45061
:10456000FC4F6081A650BC4F8C9190E070E00E949F
:10457000161180910506A82FB0E0FD01E454FC4F10
:10458000808184FF0BC0FD01E052FC4F6081A2528C
:10459000BC4F8C9190E070E00E94B91080910506AC
:1045A000A82FB0E0FD01EC53FC4F808181FF0BC0D0
:1045B000FD01E45DFB4F6081A65DBB4F8C9190E0F7
:1045C00070E00E94761080910506A82FB0E0FD01F2
:1045D000E254FC4F808187FF0BC0FD01E850FC4F87
:1045E0006081AA50BC4F8C9190E070E00E94031053
:1045F00080910506A82FB0E0FD01E054FC4F8081BA
:1046000086FF0BC0FD01E85EFB4F6081AA5EBB4FD9
:104610008C9190E070E00E94AB0F80911D0680931A
:1046200005061F910F91FF90EF9008958BE494E0A1
:104630000E94B8040E942A180895CF93DF93EC01DA
:104640008BE494E00E94EF03C817D9073CF08BE499
:1046500094E00E94E403892B09F42397CE01DF91B3
:10466000CF910895FF920F931F9301E416E0C801C4
:1046700060E873E00E9456328093CB05C8016DEF6D
:1046800073E00E945632F82EC8016EEF73E00E946C
:104690005632382F20E02F0D311D309357032093D1
:1046A00056031F910F91FF900895BC0181E496E09D
:1046B0000E9456320895EF92FF920F931F93CF936B
:1046C000DF930091050610E08AEF90E0089F7001EB
:1046D000099FF00C189FF00C1124C70188569F4FBA
:1046E0000E945523F801E454FC4F882319F080817F
:1046F000806102C080818F7E808380910506C82FF3
:10470000D0E0C70186569F4F0E945523C252DC4F0E
:10471000888380910506C82FD0E0C70184569F4F3B
:104720000E94552390E00E941D23C052DC4F8883D5
:104730000091050610E0C70106960E945523F80176
:10474000E454FC4F882319F08081826002C080818C
:104750008D7F808380910506C82FD0E0C701089621
:104760000E945523CA53DC4F888380910506C82FC9
:10477000D0E0C7010A960E94552390E00E941D23B5
:10478000C853DC4F88830091050610E0C7010C96E2
:104790000E945523F801E454FC4F882319F08081CE
:1047A000846002C080818B7F808380910506C82F42
:1047B000D0E0C7010E960E945523C653DC4F888374
:1047C00080910506C82FD0E0C70140960E9455236E
:1047D00090E00E941D23C453DC4F8883009105069E
:1047E00010E0C70142960E945523F801E454FC4FA3
:1047F000882319F08081886002C08081877F808350
:1048000080910506C82FD0E0C70144960E94552329
:10481000C253DC4F888380910506C82FD0E0C701C2
:1048200046960E94552390E00E941D23C053DC4F02
:1048300088830091050610E0C7014E960E9455231B
:10484000F801E454FC4F882319F08081806202C093
:1048500080818F7D808380910506C82FD0E0C701BD
:1048600080960E945523CE52DC4F888380910506A6
:10487000C82FD0E0C70182960E94552390E00E9485
:104880001D23CC52DC4F88830091050610E0C70140
:1048900084960E945523F801E454FC4F882319F0B4
:1048A0008081806402C080818F7B80838091050637
:1048B000C82FD0E0C70186960E945523CA52DC4F0C
:1048C000888380910506C82FD0E0C70188960E9492
:1048D000552390E00E941D23C852DC4F888300912D
:1048E000050610E0C7018A960E945523F801E4549A
:1048F000FC4F882319F08081806802C080818F7707
:10490000808380910506C82FD0E0C7018C960E9455
:104910005523C652DC4F888380910506C82FD0E00E
:10492000C7018E960E94552390E00E941D23C45219
:10493000DC4F88830091050610E0C701C0960E94F5
:104940005523F801E254FC4F882319F080818160DF
:1049500002C080818E7F808380910506C82FD0E0C1
:10496000C701C2960E945523CE51DC4F88838091A7
:104970000506C82FD0E0C701C4960E94552390E0D9
:104980000E941D23CC51DC4F88830091050610E066
:10499000C701885B9F4F0E945523F801E254FC4FEA
:1049A000882319F08081806102C080818F7E80839E
:1049B00080910506C82FD0E0C701865B9F4F0E94FB
:1049C0005523C651DC4F888380910506C82FD0E05F
:1049D000C701845B9F4F0E94552390E00E941D23D6
:1049E000C451DC4F88830091050610E0C7018E5B3F
:1049F0009F4F0E945523F801E254FC4F882319F081
:104A00008081886002C08081877F808380910506D5
:104A1000C82FD0E0C7018C5B9F4F0E945523CA511D
:104A2000DC4F888380910506C82FD0E0C7018A5BE0
:104A30009F4F0E94552390E00E941D23C851DC4FD8
:104A400088830091050610E0C701805B9F4F0E949C
:104A50005523F801E254FC4F882319F080818062CD
:104A600002C080818F7D808380910506C82FD0E0B1
:104A7000C7018E5A9F4F0E945523C251DC4F888335
:104A800080910506C82FD0E0C7018C5A9F4F0E9425
:104A9000552390E00E941D23C051DC4F8883009174
:104AA000050610E0C7018A5A9F4F0E945523F8015E
:104AB000E254FC4F882319F08081806402C0808119
:104AC0008F7B808380910506C82FD0E0C701885A6C
:104AD0009F4F0E945523CE50DC4F8883809105065E
:104AE000C82FD0E0C701865A9F4F0E94552390E0FF
:104AF0000E941D23CC50DC4F88830091050610E0F6
:104B0000C70182569F4F0E945523F801E254FC4F83
:104B1000882319F08081806802C080818F7780832C
:104B200080910506C82FD0E0C70180569F4F0E9494
:104B30005523CA50DC4F888380910506C82FD0E0EA
:104B4000C7018E559F4F0E94552390E00E941D2360
:104B5000C850DC4F88830091050610E0C7018E59CC
:104B60009F4F0E945523F801E054FC4F882319F011
:104B70008081816002C080818E7F80838091050664
:104B8000C82FD0E0C7018C599F4F0E945523C650B3
:104B9000DC4F888380910506C82FD0E0C7018A5971
:104BA0009F4F0E94552390E00E941D23C450DC4F6C
:104BB00088830091050610E0C70182599F4F0E942B
:104BC0005523F801E054FC4F882319F0808184605C
:104BD00002C080818B7F808380910506C82FD0E042
:104BE000C70180599F4F0E945523C250DC4F8883D4
:104BF00080910506C82FD0E0C7018E589F4F0E94B4
:104C0000552390E00E941D23C050DC4F8883009103
:104C1000050610E0C70184579F4F0E945523F801F5
:104C2000E054FC4F882319F08081806802C08081A5
:104C30008F77808380910506C82FD0E0C701825707
:104C40009F4F0E945523CE5FDB4F888380910506DE
:104C5000C82FD0E0C70180579F4F0E94552390E096
:104C60000E941D23CC5FDB4F88830091050610E076
:104C7000C7018E569F4F0E945523F801E054FC4F08
:104C8000882319F08081826002C080818D7F8083BB
:104C900080910506C82FD0E0C7018C569F4F0E9417
:104CA0005523C65FDB4F888380910506C82FD0E06F
:104CB000C7018A569F4F0E94552390E00E941D23F2
:104CC000C45FDB4F88830091050610E0C7018C5854
:104CD0009F4F0E945523F801E054FC4F882319F0A0
:104CE0008081886002C08081877F808380910506F3
:104CF000C82FD0E0C7018A589F4F0E945523CA5F32
:104D0000DB4F888380910506C82FD0E0C701885803
:104D10009F4F0E94552390E00E941D23C85FDB4FE8
:104D200088830091050610E0C70186589F4F0E94B6
:104D30005523F801E054FC4F882319F080818061ED
:104D400002C080818F7E808380910506C82FD0E0CD
:104D5000C70184589F4F0E945523C25FDB4F888351
:104D600080910506C82FD0E0C70182589F4F0E944E
:104D7000552390E00E941D23C05FDB4F8883009184
:104D8000050610E0C70180589F4F0E945523F80187
:104D9000E054FC4F882319F08081806202C080813A
:104DA0008F7D808380910506C82FD0E0C7018E5784
:104DB0009F4F0E945523CE5EDB4F8883809105066E
:104DC000C82FD0E0C7018C579F4F0E94552390E019
:104DD0000E941D23CC5EDB4F88830091050610E006
:104DE000C7018A579F4F0E945523F801E054FC4F9A
:104DF000882319F08081806402C080818F7B80834A
:104E000080910506C82FD0E0C70188579F4F0E94A8
:104E10005523CA5EDB4F888380910506C82FD0E0FA
:104E2000C70186579F4F0E94552390E00E941D2383
:104E3000C85EDB4F88830091050610E0C7018C55E2
:104E40009F4F0E945523F801EE53FC4F882319F021
:104E50008081816002C080818E7F80838091050681
:104E6000C82FD0E0C7018A559F4F0E945523C65EC8
:104E7000DB4F888380910506C82FD0E0C701885595
:104E80009F4F0E94552390E00E941D23C45EDB4F7C
:104E900088830091050610E0C7018A549F4F0E9445
:104EA0005523F801EE53FC4F882319F08081886068
:104EB00002C08081877F808380910506C82FD0E063
:104EC000C70188549F4F0E945523C25EDB4F8883E1
:104ED00080910506C82FD0E0C70186549F4F0E94DD
:104EE000552390E00E941D23C05EDB4F8883009114
:104EF000050610E0C701845A9F4F0E945523F80110
:104F0000EE53FC4F882319F08081806402C08081B9
:104F10008F7B808380910506C82FD0E0C701825A1D
:104F20009F4F0E945523CE5DDB4F888380910506FD
:104F3000C82FD0E0C701805A9F4F0E94552390E0B0
:104F40000E941D23CC5DDB4F88830091050610E095
:104F5000C70180529F4F0E945523F801EC53FC4F2C
:104F6000882319F08081846002C080818B7F8083D8
:104F700080910506C82FD0E0C7018E519F4F0E9437
:104F80005523CA5DDB4F888380910506C82FD0E08A
:104F9000C7018C519F4F0E94552390E00E941D2312
:104FA000C85DDB4F88830091050610E0C7018C5275
:104FB0009F4F0E945523F801EC53FC4F882319F0B2
:104FC0008081826002C080818D7F80838091050610
:104FD000C82FD0E0C7018A529F4F0E945523C65D5B
:104FE000DB4F888380910506C82FD0E0C701885227
:104FF0009F4F0E94552390E00E941D23C45DDB4F0C
:105000008883DF91CF911F910F91FF90EF900895CA
:1050100086E061E00E94C734089586E061E00E9466
:1050200088348EE294E040E051EE60E070E00E944F
:10503000B62B0E9408288BE494E00E94F7040E949B
:10504000162368EE73E080E090E00E94F4330E9443
:1050500032231092050607C00E945B23809105064B
:105060008F5F80930506809105068230A8F3109229
:1050700005068EE294E00E94952C68EB7BE080E0D0
:1050800090E00E94F4338BE494E00E94B8040E9404
:10509000E63360931E0670931F068093200690935C
:1050A000210608952F923F924F925F926F927F92C6
:1050B0008F929F92AF92BF92CF92DF92EF92FF9228
:1050C0000F931F93DF93CF9300D000D0CDB7DEB7FF
:1050D0008091FD05882309F438C2E0900D06F09018
:1050E0000E0600910F0610911006C801B7019F77B8
:1050F00025E33AEF4EE85CE30E94F0370E941F364A
:1051000069837A838B839C83C801B70120916804EB
:105110003091690440916A0450916B040E945435A7
:105120009F7720EC3BE649ED57E40E94F0375B01A6
:105130006C01609111067091120680911306909196
:10514000140620917A0430917B0440917C045091A4
:105150007D040E9454359F7720EC3BE649ED57E4EF
:105160000E94F03729813A814B815C810E94F0379F
:105170007B018C01C601B501A60195010E94F037A3
:105180005B016C01C801B701A80197010E94F037CB
:105190009B01AC01C601B5010E9455350E947738CC
:1051A0000E948A366093C1057093C2058093C3053F
:1051B0009093C4058091190690911A06892B09F4E1
:1051C000E9C06091C9057091CA0580E090E00E9435
:1051D000BB362DEC3CEC4CE45FE30E94F0373B0126
:1051E0004C016091560370915703882777FD809595
:1051F000982F0E94BD362DEC3CEC4CE45FE30E94FE
:10520000F0377B018C01609192047091930480E0EF
:1052100090E00E94BB369B01AC01C801B7010E941F
:1052200054355B016C010E94E6337B018C01609177
:10523000190670911A0680E090E00E94BB361B01AF
:105240002C018091150690911606A0911706B09139
:105250001806E81AF90A0A0B1B0BC801B7010E94CD
:10526000BB36A20191010E9422369B01AC01C6010E
:10527000B5010E94F03720E030E04AE754E40E9494
:1052800022362DEC3CEC4CE45EE30E94F0379B01AF
:10529000AC01C401B3010E9455350E948A36709357
:1052A000CA056093C905609192047091930480E0EF
:1052B00090E00E94BB365B016C01609156037091D7
:1052C0005703882777FD8095982F0E94BD362DECD7
:1052D0003CEC4CE45FE30E94F0377B018C01C6019B
:1052E000B501A80197010E94E537181624F4109221
:1052F000CA051092C9058091C9059091CA058057C9
:10530000974130F08FE697E19093CA058093C905E5
:10531000C801B701A60195010E9454357B018C019B
:105320006091D8057091D9058091DA059091DB05DF
:10533000A20191010E9422369B01AC01C801B70174
:105340000E94F0377B018C016091C1057091C2050C
:105350008091C3059091C4050E94BD369B01AC01AC
:10536000C801B7010E94543520E030E040E05FE31F
:105370000E94F0370E948A367093EA056093E9052F
:10538000615F784D7CF481EF98ED9093EA0580930E
:10539000E90508C01092CA051092C9051092EA05E5
:1053A0001092E905609180047091810480918204DB
:1053B000909183042091E0053091E1054091E20550
:1053C0005091E3050E9454355B016C012091C105A9
:1053D0003091C2054091C3055091C405CA01B9017D
:1053E0000E9416390E94BD367B018C01C601B501B1
:1053F000A60195010E94F0379B01AC01C801B701DD
:105400000E9455350E9477380E948A366093E505E0
:105410007093E6058093E7059093E80560910D068B
:1054200070910E0680910F069091100620916804ED
:105430003091690440916A0450916B040E94543584
:105440007B018C0160E070E080E89FE329813A8174
:105450004B815C810E9422369B01AC01C801B701DF
:105460000E94F0377B018C01609111067091120649
:10547000809113069091140620917A0430917B0458
:1054800040917C0450917D040E9454359B01AC01F5
:105490005058C801B7010E94C83520EE3EE245E6EB
:1054A00052E40E94F03720E030E044EB52E40E94E6
:1054B00055350E948A369B01AC0197FF04C02859DC
:1054C0003E4F4F4F5F4FCA01B901645B704080404F
:1054D000904097FF06C0CA01B9016C547F4F8F4FAF
:1054E0009F4F0E94BD3620916C0430916D04409115
:1054F0006E0450916F040E9454350E948A3697FFC3
:1055000004C068597E4F8F4F9F4F0E94BD3620E0E8
:1055100030E044EB53E40E94223620E030E040E8E3
:1055200051E40E94F0370E94533820E030E040E818
:105530005FE30E9455350E948F366093E405613128
:1055400008F47CC01092E40579C080917F04823019
:1055500008F474C080917E04853008F46FC0D09048
:105560002206FDE1FD1508F469C0E0908004F0908A
:10557000810400918204109183046091230670914C
:1055800024068091250690912606A80197010E9485
:1055900054359F7720E030E040E05FE30E94E5373C
:1055A00018165CF410922206E0922306F09224066C
:1055B000009325061093260641C08D2D8F5F8093A2
:1055C00022068E31D9F58091680490916904A091EA
:1055D0006A04B0916B0480930D0690930E06A0931D
:1055E0000F06B093100680917A0490917B04A091ED
:1055F0007C04B0917D048093110690931206A093D1
:105600001306B0931406E092E005F092E1050093D2
:10561000E2051093E3058091950490919604A09182
:105620009704B091980480935C0390935D03A093DA
:105630005E03B0935F0381E08093FD050F900F90B0
:105640000F900F90CF91DF911F910F91FF90EF90EE
:10565000DF90CF90BF90AF909F908F907F906F9092
:105660005F904F903F902F9008950E94A0190E9444
:10567000C10C8BE494E00E9452280E94571F0895A9
:10568000EF92FF920F931F930E945907892BB9F451
:10569000E0901E06F0901F06009120061091210652
:1056A00084E690E0A0E0B0E0E80EF91E0A1F1B1FA0
:1056B0000E94E633E616F7060807190760F40E9411
:1056C000E63360931E0670931F0680932006909326
:1056D00021060E94352B1F910F91FF90EF900895A6
:1056E0006EBD0DB407FEFDCF8EB508958DE061E06F
:1056F0000E9488348BE061E00E9488348CE060E096
:105700000E9488348AE061E00E9488341CBC80E5F5
:105710008CBD8DB58EB508958FE296E00E94762BF4
:1057200008958FEF9FE70895DF93CF93CDB7DEB74E
:10573000FE0139968D819E8161E04F8158859F01E0
:105740000E94352ECF91DF910895DF93CF93CDB78F
:10575000DEB7FE0139968D819E8160E04F815885CC
:105760009F010E94352ECF91DF9108950F931F93D3
:10577000DC01ED91FC910288F389E02D20E030E01E
:1057800000E010E009951F910F9108958F92AF925C
:10579000CF92EF92FF920F931F93DF93CF93CDB7EA
:1057A000DEB7FC011382128288EE93E0A0E0B0E045
:1057B00084839583A683B78385EA93E0918380836E
:1057C0005587448737872687118B008BF38AE28AB7
:1057D000C48AA58A868A70E0CB0123E0880F991FCE
:1057E0002A95E1F79C01205D394F308F278B885C2B
:1057F000994F928F818F81E090E002C0880F991FAE
:105800006A95E2F720914006282B20934006CF01AD
:1058100040E051EE60E070E00E94B62BCF91DF9146
:105820001F910F91FF90EF90CF90AF908F900895C0
:10583000FC01838D882319F42FEF3FEF0DC00788FB
:10584000F08DE02D2081318182819381281B390BDD
:105850008481958128233923C9010895FC01838D12
:10586000882319F42FEF3FEF11C0018CF28DE02D4A
:105870002081318182819381281B390B20953095BD
:1058800084819581282339232F5F3F4FC9010895D3
:10589000FC01838D882361F0A789B08D2D913C9107
:1058A000119712968D919C9113972817390721F41F
:1058B0004FEF5FEFCA01089512968D919C91139757
:1058C0001696ED91FC911797E80FF91F40811296FB
:1058D0008D919C911397019614962D913C9115975B
:1058E0008223932313969C938E93129750E0E2CFDA
:1058F000FC01838D882351F00788F08DE02D2081F5
:105900003181828193812817390721F42FEF3FEFEE
:10591000C9010895828193810680F781E02DE80F07
:10592000F91F8081282F30E0F3CFDC015796ED91ED
:10593000FC91589782819381918380835996ED9150
:10594000FC915A9780819181938382830895DC0131
:105950005B968C915B978823A9F15996ED91FC9108
:105960005A97208131812F5F3F4F84819581282371
:1059700039235C968C915C97882329F082819381EE
:1059800028173907F9F08281938128173907D9F34D
:10599000808191810680F781E02DE80FF91F6083F7
:1059A0005996ED91FC915A97318320835296ED914F
:1059B000FC915397808156969C91892B808321E09E
:1059C00030E002C020E030E0C9010895CF93DF93BA
:1059D000EC011B821A828A819B81998388831D82B4
:1059E0001C828E819F81009721F00E9406331F82C6
:1059F0001E82DF91CF9108950F931F938C01DC01DC
:105A00005296ED91FC915397208156968C91569722
:105A100055969C915597892B809582238083579624
:105A20008D919C9158970E94E62CF801818D928D62
:105A30000E94E62CD8015B961C921F910F9108954D
:105A40000F931F93CF93DF938C01FC01138212827B
:105A5000828193819183808341E0A1E0B0E001C025
:105A60004F5FFD01042E02C0EE0FFF1F0A94E2F704
:105A70009B0182E06130780710F020E032E0E2170D
:105A8000F30770F3C1E0D0E002C0CC0FDD1F4A95F0
:105A9000E2F72197F801268137812115310541F080
:105AA000848195818C179D0789F0C9010E94063376
:105AB000F801D583C483CE0101960E9469329C010E
:105AC000F8019783868380E0232B09F081E0DF9142
:105AD000CF911F910F910895AF92BF92CF92DF9215
