:100000000C9473020C949B020C949B020C949B0224
:100010000C949B020C949B020C949B020C949B02EC
:100020000C949B020C949B020C949B020C949B02DC
:100030000C949B020C949B020C949B020C949B02CC
:100040000C94F2320C949B020C94E1050C941D0666
:100050000C949B020C949B020C949B020C949B02AC
:100060000C949B020C949B02084AD73B3BCE016E3A
:1000700084BCBFFDC12F3D6C74319ABD56833DDAFF
:100080003D00C77F11BED9E4BB4C3E916BAAAABE0E
:10009000000000803F05A84CCDB2D44EB93836A937
:1000A000020C50B9918688083CA6AAAA2ABE000074
:1000B00000803F0664EC1B3C04BC163E3BE5B93CAB
:1000C000C93C37C29E5A3D660498083EEA69AAAA0E
:1000D0003E000000803F0000000000000000000023
:1000E000000000010A0F1315191D202123252729BF
:1000F0002B2D2F3031333537393A3C3E4042434483
:100100004445464748494A4B4D4E4F505051525234
:100110005354555658595A5B5B5C5D5D5E5E5E5F3D
:100120005F5F6060606161616262626363636363B9
:1001300063636363636363636363000000000000E1
:1001400000000000000002070A0C0D0E101214152A
:100150001617191A1B1E2126282A2B2D2F3133344E
:1001600037393C3D3E3F4041424446494A4B4C4D65
:100170004E4F4F5051515252535454555556575853
:10018000595A5B5C5C5D5D5E5F5F5F606060606094
:100190006161616161616262626262626263000701
:1001A0000E091C1B1215383F363124232A2D707777
:1001B0007E796C6B6265484F464154535A5DE0E767
:1001C000EEE9FCFBF2F5D8DFD6D1C4C3CACD9097D7
:1001D0009E998C8B8285A8AFA6A1B4B3BABDC7C0C7
:1001E000C9CEDBDCD5D2FFF8F1F6E3E4EDEAB7B037
:1001F000B9BEABACA5A28F88818693949D9A272027
:10020000292E3B3C35321F18111603040D0A575096
:10021000595E4B4C45426F68616673747D7A898E76
:10022000878095929B9CB1B6BFB8ADAAA3A4F9FEF6
:10023000F7F0E5E2EBECC1C6CFC8DDDAD3D4696EE6
:10024000676075727B7C51565F584D4A4344191E56
:10025000171005020B0C21262F283D3A33344E4946
:10026000404752555C5B7671787F6A6D64633E39B6
:10027000303722252C2B0601080F1A1D1413AEA9A6
:10028000A0A7B2B5BCBB9691989F8A8D8483DED916
:10029000D0D7C2C5CCCBE6E1E8EFFAFDF4F32020DD
:1002A000BF0020BF00BF007C202020202020202075
:1002B000202020202020202020202000C8202020B6
:1002C000202020202020202020C900C820202020FD
:1002D0002020202020202020C97C00D82020202081
:1002E0002020202020202020D97C00C82020202071
:1002F0002020202020202020C97C00C82020202071
:100300002020202020202020C97C006D696E6F7085
:100310006F7364206A646C20322E3531006C697012
:100320006F20626174742063656C6C7C7C77617291
:100330006E696E67206C6576656C3A200062617448
:10034000742063617061636974793A0073657475D0
:10035000702073637265656E7C7C7C00436861729B
:1003600020446F6E650A00526561647920666F7281
:1003700020466F6E740A007570646174652063684E
:1003800061727365740000407A10F35A00A0724ED7
:1003900018090010A5D4E80000E87648170000E42A
:1003A0000B54020000CA9A3B000000E1F505000072
:1003B00080969800000040420F000000A0860100D7
:1003C0000000102700000000E803000000006400A7
:1003D000000000000A000000000001000000000012
:1003E0002C76D888DC674F0823DFC1DFAE59E1B136
:1003F000B796E5E3E453C63AE651997696E8E6C245
:100400008426EB898C9B62ED407C6FFCEFBC9C9F4B
:1004100040F2BAA56FA5F490055A2AF75C936B6C6D
:10042000F9676DC11BFCE0E40D47FEF520E6B50061
:10043000D0ED902E0300943577050080841E0800CF
:1004400000204E0A000000C80C333333330F986E7F
:1004500012831141EF8D2114893BE65516CFFEE63C
:10046000DB18D1844B381BF77C1D901DA4BBE42402
:10047000203284725E228100C9F124ECA1E53D277F
:100480006E616E00696E66000000000024002700A7
:100490002A0000000000250028002B0000000000BA
:1004A00023002600290004040404040404040202B6
:1004B00002020202030303030303010204081020E3
:1004C00040800102040810200102040810200000EE
:1004D0000007000201000003040600000000000005
:1004E00000008D07E02A11241FBECFEFD8E0DEBF49
:1004F000CDBF13E0A0E0B1E0EAEEF1E702C0059065
:100500000D92A038B107D9F715E0A0E8B3E001C01B
:100510001D92AF3FB107E1F714E0C6EED4E004C08E
:100520002297FE010E94EF38C23ED107C9F70E9410
:100530006F340C94F3380C940000283008F027E056
:100540003327DA01990F311D87FD9160009661050F
:10055000710539F432602E5F3D9330E32A95E1F75F
:1005600008959F3F30F080387105610509F03C5FC8
:100570003C5F3D93913008F08068911DDF93CF93ED
:100580001F930F93FF92EF92192F987F9695E92F63
:1005900096959695E90FFF27E052FC4F9927332750
:1005A000EE24FF24A701E70105900894079428F49E
:1005B000360FE71EF81E491F511D660F771F881F53
:1005C000991F0694A1F70590079428F4E70EF81EEA
:1005D000491F561FC11D770F881F991F661F06945C
:1005E000A1F70590079428F4F80E491F561FC71F5E
:1005F000D11D880F991F661F771F0694A1F70590DC
:10060000079420F4490F561FC71FD81F990F661F64
:10061000771F881F0694A9F784911095177041F0F1
:10062000D695C79557954795F794E7941A95C1F7CE
:10063000E6E8F3E0689415901591359165919591F0
:1006400005907FE27395E118F10A430B560BC90B35
:10065000D009C0F7E10CF11E431F561FC91FD01D62
:100660007EF4703311F48A95E6CFE894015030F0AF
:10067000080F0AF40027021708F4202F2395022FF1
:100680007A3328F079E37D932A95E9F710C07D93BA
:100690002A9589F606949795679537951795179437
:1006A000E118F10A430B560BC90BD00998F02395BA
:1006B0007E9173957A3308F070E37C932013B8F73A
:1006C0007E9170617D9330F0839571E37D9370E34B
:1006D0002A95E1F71124EF90FF900F911F91CF9190
:1006E000DF91992787FD90950895FA01AA27283070
:1006F00051F1203181F1E8946F936E7F6E5F7F4FEF
:100700008F4F9F4FAF4FB1E03ED0B4E03CD0670F6A
:10071000781F891F9A1FA11D680F791F8A1F911DBD
:10072000A11D6A0F711D811D911DA11D20D009F40D
:1007300068943F912AE0269F11243019305D31934F
:10074000DEF6CF010895462F4770405D4193B3E038
:100750000FD0C9F7F6CF462F4F70405D4A3318F0DF
:10076000495D31FD4052419302D0A9F7EACFB4E090
:10077000A6959795879577956795BA95C9F7009748
:100780006105710508959B01AC010A2E06945795E9
:10079000479537952795BA95C9F7620F731F841F40
:1007A000951FA01D0895FC01059061507040011037
:1007B000D8F7809590958E0F9F1F0895FC0161508A
:1007C000704001900110D8F7809590958E0F9F1F73
:1007D0000895FC011382128288EE93E0A0E0B0E05D
:1007E00084839583A683B78386E393E09183808394
:1007F0000895FC018089803419F421E030E002C0C2
:1008000020E030E0C9010895FC01818990E008955D
:1008100080E090E0089580E090E0089580E090E02E
:1008200008950895EF92FF921F93CF93DF93162FB1
:100830007A0186E060E00E941B348FED95E060E075
:100840000E94C42A8FED95E060E00E94C42A8FEDDB
:1008500095E069E00E94C42A8FED95E0612F0E9427
:10086000C42AC0E0D0E0F701EC0FFD1F10818FED2E
:1008700095E06AE00E94C42A8FED95E06C2F0E94FB
:10088000C42A8FED95E06BE00E94C42A8FED95E0BD
:10089000612F0E94C42A2196C633D10521F78FED1E
:1008A00095E068E00E94C42A8FED95E060EA0E941E
:1008B000C42A8FED95E060EA0E94C42A85FDF9CF35
:1008C0008FED95E060E00E94C42A8FED95E06CE02A
:1008D0000E94C42A86E061E00E941B34DF91CF9120
:1008E0001F91FF90EF9008951F93CF93DF93EC013A
:1008F000162F86E060E00E941B348FED95E060E0EB
:100900000E94C42A112319F0113059F404C08FED4C
:1009100095E0688904C068896C618FED95E00E945C
:10092000C42A86E061E00E941B34DF91CF911F91C1
:100930000895EF92FF920F931F937C010FED15E046
:10094000C80167E00E94C42AC8016FEF0E94C42A50
:1009500086E061E00E941B34F70187858F5F8787FF
:100960001F910F91FF90EF900895EF92FF920F93D8
:100970001F93FC01E7848EE1E89E700111248685B7
:10098000E80EF11C86E060E00E941B340FED15E0DC
:10099000C80164E00E94C42AC80163E00E94C42A1E
:1009A000C80165E00E94C42AC8016F2D0E94C42AB4
:1009B000C80166E00E94C42AC8016E2D0E94C42AA4
:1009C0001F910F91FF90EF900895FC016487458778
:1009D000668747870E94B50408951F93CF93DF93DE
:1009E000EC01162F6C3731F40E949904CE010E945D
:1009F000B5040AC08FED95E067E00E94C42A8FED30
:100A000095E0612F0E94C42A81E090E0DF91CF91B0
:100A10001F910895EF92FF920F931F938EE1489FCD
:100A200070011124E60EF11C86E060E00E941B3488
:100A30000FED15E0C80165E00E94C42AC8016F2DC2
:100A40000E94C42AC80166E00E94C42AC8016E2D13
:100A50000E94C42A1F910F91FF90EF9008950F9369
:100A60001F9386E060E00E941B340FED15E0C80183
:100A700064E00E94C42AC80164E00E94C42A61E0C4
:100A800070E080E090E00E94483386E061E00E94E0
:100A90001B341F910F9108951F93CF93DF93EC01A7
:100AA000188A16E0198B81EF95E060E973E00E94E7
:100AB000AA31813049F480E4888B88E0898B86E014
:100AC00060E00E941B3402C0188A198B86E060E047
:100AD0000E941B34DF91CF911F9108950F931F93B4
:100AE000CF93DF93EC0186E061E00E94DC3382E08B
:100AF00060E00E94DC3382E061E00E941B34CE01A2
:100B00000E944C0586E060E00E941B348FED95E06A
:100B10006CEE0E94C42A8FED95E06FEF0E94C42A0C
:100B2000182F8FED95E060E00E94C42A688962600A
:100B30008FED95E00E94C42A62E370E080E090E0CF
:100B40000E9448338FED95E06CE60E94C42A1F7E18
:100B50008FED95E0612F0E94C42A8889803419F0B6
:100B60000DE010E002C000E110E01092810310924D
:100B7000800317C06091800370918103605F8FEDE7
:100B800095E00E94C42A8FED95E069E00E94C42A96
:100B900080918003909181030196909381038093CB
:100BA000800380918003909181038017910714F353
:100BB000CE0161E00E947404DF91CF911F910F91EB
:100BC00008951F920F920FB60F9211242F933F9307
:100BD0004F938F939F93EF93FF934091C600209183
:100BE000E0053091E1052F5F3F4F8091E405909142
:100BF000E505282339238091E2059091E305281724
:100C0000390779F08091E0059091E105E091E605E2
:100C1000F091E705E80FF91F40833093E105209339
:100C2000E005FF91EF919F918F914F913F912F910F
:100C30000F900FBE0F901F9018951F920F920FB636
:100C40000F9211242F933F938F939F93EF93FF93D2
:100C50002091EA053091EB058091E8059091E90536
:100C600028173907E9F08091EA059091EB05E091AA
:100C7000EE05F091EF05E80FF91F80818093C60023
:100C80008091EA059091EB0501962091EC05309159
:100C9000ED05822393239093EB058093EA0510C022
:100CA0002091E8053091E9058091EA059091EB05E6
:100CB0002817390729F48091C1008F7D8093C100E6
:100CC000FF91EF919F918F913F912F910F900FBEC8
:100CD0000F901F901895CF93DF93482FEB018091D1
:100CE0007005833009F45FC0843028F48130D1F07E
:100CF000823068F50AC0853009F4D4C0853008F424
:100D0000AAC0863009F0F4C0EBC04C3309F0F0C043
:100D100081E0809370054883EAEDF1E0E491E0938F
:100D20006F05E6C0842F90E0E0916F05F0E0E827C2
:100D3000F927E256FE4FE491E0936F05887F9070AB
:100D4000809741F582E080937005498329C0242F64
:100D500030E0E0916F05F0E0E227F327E256FE4F26
:100D6000E491E0936F0580916E058F5F80936E052F
:100D7000823018F43B832A83BBC0922F88272A81B4
:100D80003B81820F931F9B838A830A978F3F910534
:100D900021F018F010927005ABC083E080937005CD
:100DA00010926E05A5C0E42FF0E080916F0590E0F1
:100DB000E827F927E256FE4FE491E0936F05609132
:100DC0006E056F5F60936E05623089F0633020F4CA
:100DD000613009F08DC006C0633091F0643009F0D5
:100DE00087C022C0842F90E0A0E0B0E018C0242F7C
:100DF00030E040E050E0542F432F322F222707C02D
:100E0000242F30E040E050E0A901332722278C81D5
:100E10009D81AE81BF81820F931FA41FB51F8C835C
:100E20009D83AE83BF8364C0242F30E040E050E058
:100E3000522F4427332722278C819D81AE81BF8189
:100E4000820F931FA41FB51F8C839D83AE83BF8326
:100E500060937005A5CF242F30E0E0916F05F0E09E
:100E6000E227F327E256FE4FE491E0936F0560918D
:100E70006E056F5F60936E05613019F06230C1F5E9
:100E800003C03987288734C0922F88272885398561
:100E9000280F391F398728878A819B810A97F1F0AB
:100EA00085E07CCFE42FF0E080916F0590E0E827AB
:100EB000F927E256FE4FE491E0936F0520916E050D
:100EC0002F5F20936E0530E0FB01E20FF31F418797
:100ED0008A819B810A972817390750F086E05ECFF8
:100EE000C75FDE4F4883C950D14087E080937005CB
:100EF00080917005873069F410927005C75FDE4FEE
:100F000090916F058881C950D140981711F48A815A
:100F100001C080E0DF91CF9108958F92AF92CF9280
:100F2000EF92FF920F931F9380EF93E060E045EC08
:100F300050E024EC30E000EC10E0B1ECEB2EF12CB2
:100F4000CC24C394A8E9AA2EF0E28F2E0E941A2B7B
:100F50008DE094E00E94E9031F910F91FF90EF90C4
:100F6000CF90AF908F90089560912E0470912F04D0
:100F7000809130049091310420E030E040E152E46F
:100F80000E94443720E030E044EB53E40E94763581
:100F90000E94A7370E94DE359B012550304037FF65
:100FA00003C09B01215E3F4FACE7B5E0F901EC5B6C
:100FB000FC4F80818C932F5F3F4F2432310514F01A
:100FC00020E030E0119685E0A738B80779F71C9249
:100FD00008952F923F924F925F926F927F928F92DD
:100FE0009F92AF92BF92CF92DF92EF92FF920F93B8
:100FF0001F93DF93CF9300D000D000D0CDB7DEB7E2
:10100000182F662E20912404309125042A353105AD
:1010100030F0C9018D549F4F89359105E8F437FFB1
:1010200002C02D543F4FC90137FF03C090958195F1
:101030009F4F8A3191053CF004E4802E912CB9ED4C
:101040002B2E312C1DC00A975CF1ABE38A2E912C1C
:10105000F2ED2F2E312C20C02B35310514F0235BFF
:101060003040C90137FF03C0909581959F4F8A3169
:10107000910554F0E6E58E2E912C7CED272E312C37
:1010800067E0A62EB12C15C00A9754F05DE4852EBA
:10109000912C44ED242E312C38E0A32EB12C09C024
:1010A00025E0822E912C98E3292E312C89E0A82E60
:1010B000B12C6091260470912704882777FD8095D4
:1010C000982F0E94113627EA32E94BE25CEB0E942E
:1010D00044370E94183820E030E040EA50E40E9493
:1010E000443720E030E040E951E40E9444370E9458
:1010F000A73720E030E044E352E40E94A9340E9484
:10110000DE35712E0EEBC02E0FEFD02E9B01442743
:1011100037FD4095542F29833A834B835C831DE030
:10112000412E14E0512E4AEF5FEF240E351E6091E0
:10113000240470912504882777FD8095982F0E94BC
:10114000113625E33AEF4EE85CE30E9444370E94F3
:1011500018387B018C01B601882777FD8095982F80
:101160000E9411369B01AC01C801B7010E944437AF
:101170007B018C0169817A818B819C810E9411366F
:101180009B01AC01C801B7010E94A9340E94DE3561
:101190009B01CB0101978A35910508F071C062E18E
:1011A00070E00E949D388B012F5F3F4FAEEEBFEF86
:1011B0006A9FC0016B9F900D7A9F900D1124820F42
:1011C000931F62E070E00E949D386D837E83E62C61
:1011D000E01A4E2D4C5F8DE094E0672D0E940A05C9
:1011E00000D000D000D0EDB7FEB73196ADB7BEB796
:1011F00012965C924E92119720E031E03383228365
:101200008D819E81880D991D958384830E94F92A82
:101210004DB75EB74A5F5F4F0FB6F8945EBF0FBE23
:101220004DBF8D819E818A159B0554F104301105B7
:101230003CF593E0E90EC201672D4E2D0E940A0590
:1012400000D000D000D0EDB7FEB73196ADB7BEB735
:1012500012965C924E92119720E031E03383228304
:101260004D815E81420D531D558344830E94F92AAE
:101270008DB79EB706960FB6F8949EBF0FBE8DBF72
:10128000ACE0B0E0CA0EDB1E7394BEE4CB16D10412
:1012900009F04DCF26960FB6F894DEBF0FBECDBF36
:1012A000CF91DF911F910F91FF90EF90DF90CF9042
:1012B000BF90AF909F908F907F906F905F904F9076
:1012C0003F902F900895CF92DF92EF92FF920F936D
:1012D0001F93823010F402E002C0082F000F6091CB
:1012E00071057091720580917305909174050E944B
:1012F00011366B017C0120E030E44CE156E40E94A1
:101300006F35202F30E04DE054E0882334F58DB761
:101310009EB70E970FB6F8949EBF0FBE8DBFEDB768
:10132000FEB73196ADB7BEB712965C934E93119748
:1013300083E091E09383828322573F4F3583248358
:101340002F5F3F4F37832683C086D186E286F386A0
:101350008DE890E09587848734C08DB79EB70E974F
:101360000FB6F8949EBF0FBE8DBF0DB71EB70F5FAF
:101370001F4FADB7BEB712965C934E9311978FE097
:1013800091E0F8019383828322573F4F3583248372
:101390002F5F3F4F37832683C701B60120E030E03F
:1013A0004AE754E40E947635D80118966D937D93F0
:1013B0008D939C931B978DEF90E01D969C938E933D
:1013C0001C970E94F92AEDB7FEB73E960FB6F89427
:1013D000FEBF0FBEEDBF1F910F91FF90EF90DF900A
:1013E000CF900895CF93DF93AC01E0913804F09152
:1013F00039042091750530917605C9018C599F4FAC
:101400008E179F071CF4EA01219609C0245630402C
:10141000E217F30714F0EA0102C0EA012197842FD2
:1014200090E0C817D90729F081EF95E04C2F0E9472
:10143000B131CE01DF91CF910895CF92DF92EF923B
:10144000FF920F931F93CF93DF937C016B01EA010F
:1014500000D000D00DE014E0EDB7FEB71283018399
:1014600087EA92E0948383830E94E82A0F900F908A
:101470000F900F90CA30D10581F0C436D10521F00C
:10148000C130D10519F512C000D000D0EDB7FEB7BC
:101490001283018385EA92E011C000D000D0EDB73D
:1014A000FEB71283018382EA92E008C000D000D028
:1014B000EDB7FEB7128301838EE992E094838383B4
:1014C0000E94E82A0F900F900F900F9040913804DF
:1014D000509139042091750530917605C9018C59D8
:1014E0009F4F841795071CF4CE0DDF1D0BC02456AB
:1014F00030404217530714F0E70116C0C7018C1B98
:101500009D0BEC01CE15DF0579F081EF95E0B6017A
:101510004C2F0E94B1310894C11CD11C81EF95E081
:10152000B6014D2F0E94B131CE01DF91CF911F91B5
:101530000F91FF90EF90DF90CF900895CF92DF92C0
:10154000EF92FF920F931F937C01D62EC72E0DE0D2
:1015500014E0C8016E2D4D2D0E94E50400D000D08E
:10156000EDB7FEB7128301838BEF92E09483838300
:101570000E94E82AEDB7FEB7128301838BEE92E05A
:10158000948383830E94E82AEDB7FEB71283018318
:101590008BED92E0948383830E94E82AEDB7FEB737
:1015A000128301838BEC92E0948383830E94E82A68
:1015B000EDB7FEB7128301838CEB92E094838383B3
:1015C0000E94E82A0F900F900F900F90C8010E9480
:1015D0009904C70101966D2D7C2D0E94E9071F918A
:1015E0000F91FF90EF90DF90CF900895CF92DF9210
:1015F000EF92FF920F931F93282F462F0DE014E0D8
:10160000C801622F0E94E504E0907705F09078050C
:10161000C0907905D0907A058DB79EB744970FB6E4
:10162000F8949EBF0FBE8DBFEDB7FEB73196ADB734
:10163000BEB712961C930E9311978BE191E09383A2
:10164000828383EB90E095838483C7016CE370E031
:101650000E949D38CB016CE370E00E949D38978317
:1016600086832AE330E031872087C7016CE370E08E
:101670000E949D389387828789EF90E095878487C1
:10168000C6016CE370E00E948938CB016CE370E026
:101690000E949D3897878687318B208BC6016CE32B
:1016A00070E00E948938938B828B0E94F92A8DB753
:1016B0009EB744960FB6F8949EBF0FBE8DBFC8016B
:1016C0000E9499041F910F91FF90EF90DF90CF90AF
:1016D00008950F931F93282F462F0DE014E0C801A3
:1016E000622F0E94E5048DB79EB70C970FB6F89451
:1016F0009EBF0FBE8DBFEDB7FEB73196ADB7BEB77B
:1017000012961C930E93119783E391E09383828347
:1017100083EE90E09583848380915B0490915C04D8
:10172000A0915D04B0915E0486839783A087B18702
:1017300080EB90E0938782870E94F92A8DB79EB74D
:101740000C960FB6F8949EBF0FBE8DBFC8010E94C5
:1017500099041F910F9108950F931F93282F462FDF
:101760000DE014E0C801622F0E94E5048DB79EB71A
:1017700046970FB6F8949EBF0FBE8DBFEDB7FEB76C
:101780003196ADB7BEB712961C930E9311978DE3A9
:1017900091E09383828389EB90E0958384838091A9
:1017A0005404909155049783868382E890E0918752
:1017B000808787EB90E093878287809119039091CF
:1017C0001A03A0911B03B0911C0384879587A687F9
:1017D000B78786EB90E0918B808B80911F0390916F
:1017E0002003A0912103B0912203828B938BA48BC1
:1017F000B58B0E94F92A8DB79EB746960FB6F8941E
:101800009EBF0FBE8DBFC8010E9499041F910F910A
:101810000895EF92FF920F931F93282F462F8DE08C
:10182000E82E84E0F82EC701622F0E94E5048DB7F0
:101830009EB70C970FB6F8949EBF0FBE8DBF0DB725
:101840001EB70F5F1F4FEDB7FEB7F282E18285E54D
:1018500091E0F8019383828384EE90E09583848302
:101860006091520470915304882777FD8095982FDA
:101870000E9411362AE037ED43E25CE30E944437D0
:10188000F80166837783808791878FE890E093875C
:1018900082870E94F92A8DB79EB70C960FB6F894EE
:1018A0009EBF0FBE8DBFC7010E9499041F910F916B
:1018B000FF90EF900895CF92DF92EF92FF920F93F7
:1018C0001F93282F462F8DE094E0622F0E94E5049D
:1018D000C0904E04D0904F04E0905004F09051041A
:1018E00080917B0590E0805D9E4F209113033091A5
:1018F0001403829FB001839F700D929F700D11247D
:10190000882777FD8095982F0E94113620E030E0DF
:1019100048EC52E40E9476359B01AC01C701B60148
:101920000E946F35181614F428EB01C024EB8DB714
:101930009EB70C970FB6F8949EBF0FBE8DBFEDB744
:10194000FEB731960DE014E0ADB7BEB712961C930A
:101950000E93119785E591E093838283822F9927D7
:1019600087FD909595838483C682D782E086F18631
:101970008EE890E0938782870E94F92A8DB79EB700
:101980000C960FB6F8949EBF0FBE8DBFC8010E9483
:1019900099041F910F91FF90EF90DF90CF900895E1
:1019A0000F931F93CF93DF93282F462F8DE094E062
:1019B000622F0E94E50480913504882319F4CFE555
:1019C000D1E057C0813019F4C3E6D1E052C0823073
:1019D00019F4C7E6D1E04DC0833019F4CBE6D1E06D
:1019E00048C0843019F4CFE6D1E043C0853019F403
:1019F000C3E7D1E03EC0863019F4C7E7D1E039C073
:101A0000873019F4CBE7D1E034C0883019F4CFE740
:101A1000D1E02FC0893019F4C3E8D1E02AC08A3060
:101A200019F4C7E8D1E025C08B3019F4CBE8D1E038
:101A300020C08C3019F4CFE8D1E01BC08D3019F4F0
:101A4000C3E9D1E016C08E3019F4C7E9D1E011C066
:101A50008F3019F4CBE9D1E00CC0803119F4CFE913
:101A6000D1E007C0813119F0C3EAD1E002C0C4EA75
:101A7000D1E08150863090F480913404882371F055
:101A80000E943A332CE231E040E050E00E94B0384E
:101A900020FF02C024E003C020E201C020EE8DB789
:101AA0009EB708970FB6F8949EBF0FBE8DBFEDB7D7
:101AB000FEB731960DE014E0ADB7BEB712961C9399
:101AC0000E93119788EA91E093838283822F99275E
:101AD00087FD909595838483D783C6830E94F92AD6
:101AE0008DB79EB708960FB6F8949EBF0FBE8DBFF8
:101AF000C8010E949904DF91CF911F910F91089521
:101B00000F931F93282F462F0DE014E0C801622F7A
:101B10000E94E5048DB79EB70A970FB6F8949EBF52
:101B20000FBE8DBFEDB7FEB73196ADB7BEB71296FB
:101B30001C930E9311978DEA91E09383828387E83B
:101B400090E0958384838091360490913704978345
:101B5000868385E290E0918780870E94F92A8DB77D
:101B60009EB70A960FB6F8949EBF0FBE8DBFC801F0
:101B70000E9499041F910F9108950F931F93282F8E
:101B8000462F0DE014E0C801622F0E94E5048DB7D6
:101B90009EB708970FB6F8949EBF0FBE8DBFEDB7E6
:101BA000FEB73196ADB7BEB712961C930E93119740
:101BB00087EB91E0938382838091260490912704A0
:101BC0009583848381EB90E0978386830E94F92A32
:101BD0008DB79EB708960FB6F8949EBF0FBE8DBF07
:101BE000C8010E9499041F910F9108950F931F93AC
:101BF000282F462F0DE014E0C801622F0E94E50453
:101C00008DB79EB708970FB6F8949EBF0FBE8DBFD5
:101C1000EDB7FEB73196ADB7BEB712961C930E93D3
:101C2000119787EB91E093838283809124049091B4
:101C300025049583848382EB90E0978386830E94BA
:101C4000F92A8DB79EB708960FB6F8949EBF0FBEBF
:101C50008DBFC8010E9499041F910F9108950F93A1
:101C60001F93282F462F0DE014E0C801622F0E9419
:101C7000E5048DB79EB70E970FB6F8949EBF0FBEC2
:101C80008DBFEDB7FEB73196ADB7BEB712961C93B8
:101C90000E9311978DEB91E09383828381EE90E018
:101CA0009583848380915F04992787FD909597831E
:101CB00086838CE890E0918780878091600482879A
:101CC00013868BE890E0958784870E94F92A8DB768
:101CD0009EB70E960FB6F8949EBF0FBE8DBFC8017B
:101CE0000E9499041F910F9108950F931F93282F1D
:101CF000462F0DE014E0C801622F0E94E5048DB765
:101D00009EB742970FB6F8949EBF0FBE8DBFEDB73A
:101D1000FEB73196ADB7BEB712961C930E931197CE
:101D20008BEC91E0938382838CED91E095838483A7
:101D300080912E0490912F04A0913004B091310431
:101D400086839783A087B18780EB90E09387828713
:101D500080ED90E0958784878CE795E0978786876C
:101D600081ED90E0918B808B0E94F92A8DB79EB710
:101D700042960FB6F8949EBF0FBE8DBFC8010E9459
:101D800099041F910F9108950F931F93282F462FA9
:101D90000DE014E0C801622F0E94E5048DB79EB7E4
:101DA0000C970FB6F8949EBF0FBE8DBFEDB7FEB770
:101DB0003196ADB7BEB712961C930E93119783E37D
:101DC00091E09383828386E190E095838483809180
:101DD0004A0490914B04A0914C04B0914D04868329
:101DE0009783A087B18788E890E0938782870E94D5
:101DF000F92A8DB79EB70C960FB6F8949EBF0FBE0A
:101E00008DBFC8010E9499041F910F910895CF9230
:101E1000DF92EF92FF920F931F93CF93DF93282FC0
:101E2000462FCDE0D4E0CE01622F0E94E504C090A1
:101E30008805D0908905E0908A05F0908B05C70150
:101E4000B6010E94DE35695E7340804090408CF19F
:101E50008DB79EB70C970FB6F8949EBF0FBE8DBF7F
:101E60000DB71EB70F5F1F4FADB7BEB71296DC930D
:101E7000CE93119785E591E0F801938382838EEFED
:101E800090E095838483C701B60120E030E04AE703
:101E900054E40E947635D80116966D937D938D9308
:101EA0009C9319978DEF90E01B969C938E931A97B5
:101EB00021C08DB79EB70C970FB6F8949EBF0FBE8A
:101EC0008DBFEDB7FEB73196ADB7BEB71296DC93B6
:101ED000CE93119786EE91E0938382838EEF90E00C
:101EE00095838483C682D782E086F1868DE890E070
:101EF000938782870E94F92AEDB7FEB73C960FB60A
:101F0000F894FEBF0FBEEDBF8DE094E00E949904EF
:101F1000DF91CF911F910F91FF90EF90DF90CF90C5
:101F20000895EF92FF920F931F93282F462F9DE065
:101F3000E92E94E0F92EC701622F0E94E5048DB7C7
:101F40009EB70C970FB6F8949EBF0FBE8DBF0DB70E
:101F50001EB70F5F1F4FEDB7FEB7F282E18283E33A
:101F600091E0F8019383828388EE90E095838483E7
:101F700060918C0570918D0580918E0590918F05F3
:101F800026E636E646E650E40E944437F8016683CA
:101F900077838087918781E890E0938782870E948A
:101FA000F92A8DB79EB70C960FB6F8949EBF0FBE58
:101FB0008DBFC7010E9499041F910F91FF90EF9070
:101FC0000895EF92FF920F931F93282F462F3DE025
:101FD000E32E34E0F32EC701622F0E94E5048DB793
:101FE0009EB70C970FB6F8949EBF0FBE8DBF0DB76E
:101FF0001EB70F5F1F4FEDB7FEB7F282E18283E39A
:1020000091E0F8019383828389EE90E09583848345
:10201000609146047091470480914804909149046E
:1020200026E636E646E650E40E944437F801668329
:1020300077838087918781E890E0938782870E94E9
:10204000F92A8DB79EB70C960FB6F8949EBF0FBEB7
:102050008DBFC7010E9499041F910F91FF90EF90CF
:102060000895CF92DF92EF92FF920F931F93282F44
:10207000462F5DE0C52E54E0D52EC601622F0E948A
:10208000E50460914204709143048091440490916E
:1020900045042DB73EB7245130400FB6F8943EBFEB
:1020A0000FBE2DBF0DB71EB70F5F1F4FEDB7FEB7A9
:1020B000D282C18220EF31E0F8013383228325E808
:1020C00030E03583248366837783808791874DE86A
:1020D000E42EF12CF386E28627EE30E03587248764
:1020E0002091900530919105409192055091930572
:1020F0000E94A834F80166877787808B918BF38ADA
:10210000E28A0E94F92A2DB73EB72C5E3F4F0FB6E8
:10211000F8943EBF0FBE2DBFC6010E9499041F91C7
:102120000F91FF90EF90DF90CF900895EF92FF9284
:102130000F931F93282F462F6DE0E62E64E0F62EB6
:10214000C701622F0E94E5048DB79EB70C970FB6AA
:10215000F8949EBF0FBE8DBF0DB71EB70F5F1F4F08
:10216000EDB7FEB7F282E18284E092E0F80193835A
:10217000828386EE90E0958384836091570470910A
:1021800058048091590490915A042091230330916E
:10219000240340912503509126030E94A834F8019E
:1021A00066837783808791878DE890E09387828725
:1021B0000E94F92A8DB79EB70C960FB6F8949EBF71
:1021C0000FBE8DBFC7010E9499041F910F91FF9010
:1021D000EF9008950F931F93282F462F0DE014E0E2
:1021E000C801622F0E94E504809194050E94630952
:1021F000C8010E9499041F910F910895CF92DF9218
:10220000EF92FF920F931F93CF93DF93282F462FC8
:10221000CDE0D4E0CE01622F0E94E50460919505E7
:102220007091960580919705909198050E941136BE
:102230006B017C0120E030E44CE156E40E946F35F4
:10224000882314F58DB79EB70C970FB6F8949EBFF0
:102250000FBE8DBFEDB7FEB73196ADB7BEB71296C4
:10226000DC93CE93119784E092E09383828382E1A2
:1022700090E095838483C682D782E086F1868DE8DC
:1022800090E09387828730C08DB79EB70C970FB6CA
:10229000F8949EBF0FBE8DBF0DB71EB70F5F1F4FC7
:1022A000ADB7BEB71296DC93CE9311978EE092E055
:1022B000F8019383828382E190E095838483C70150
:1022C000B60120E030E04AE754E40E947635D801B8
:1022D00016966D937D938D939C9319978DEF90E057
:1022E0001B969C938E931A970E94F92AEDB7FEB71E
:1022F0003C960FB6F894FEBF0FBEEDBF8DE094E0A4
:102300000E949904DF91CF911F910F91FF90EF9060
:10231000DF90CF900895BF92CF92DF92EF92FF921D
:102320000F931F93CF93DF93282F462F8DE094E0D8
:10233000622F0E94E5042091990530919A0537FF9C
:1023400002C04AE801C047EFC0919B05D0919C05AF
:10235000D7FF03C0AAE8BA2E02C0F8EFBF2E8DB790
:102360009EB74C970FB6F8949EBF0FBE8DBF0DB7AA
:102370001EB70F5F1F4FEDE0CE2EE4E0DE2EEDB76F
:10238000FEB7D282C18288E192E0F8019383828312
:10239000842F992787FD909595838483B901882799
:1023A00077FD8095982F0E941136F8016683778318
:1023B000808791877DE8E72EF12CF386E2868B2DCE
:1023C000992787FD909595878487BE01882777FD9B
:1023D0008095982F0E941136F80166877787808B49
:1023E000918BF38AE28A8BEF90E0958B848B6091DE
:1023F0009D0570919E0580919F059091A00520E01C
:1024000030E04AE754E40E947635F801668B778B1A
:10241000808F918F84EF90E0938F828F0E94F92AB2
:102420008DB79EB74C960FB6F8949EBF0FBE8DBF6A
:10243000C6010E949904DF91CF911F910F91FF90E7
:10244000EF90DF90CF90BF9008950F931F93282FA8
:10245000462F0DE014E0C801622F0E94E5048DB7FD
:102460009EB70C970FB6F8949EBF0FBE8DBFEDB709
:10247000FEB73196ADB7BEB712961C930E93119767
:1024800086E392E09383828380912A0490912B04C7
:10249000A0912C04B0912D0484839583A683B783E7
:1024A00080913C0490913D04A0913E04B0913F0482
:1024B00080879187A287B3870E94F92A8DB79EB73C
:1024C0000C960FB6F8949EBF0FBE8DBFC8010E9438
:1024D00099041F910F9108950F931F93282F462F52
:1024E0008DE094E0622F0E94E50480914104282F42
:1024F00030E0823030F4B4E0220F331FBA95E1F7B8
:1025000002C02150304000D000D000D0EDB7FEB75F
:1025100031960DE014E0ADB7BEB712961C930E9342
:10252000119780E091E093838283358324830E9416
:10253000F92A8DB79EB706960FB6F8949EBF0FBEC8
:102540008DBFC8010E9499041F910F9108950F93A8
:102550001F93282F462F0DE014E0C801622F0E9420
:10256000E5048DB79EB708970FB6F8949EBF0FBECF
:102570008DBFEDB7FEB73196ADB7BEB712961C93BF
:102580000E93119782E492E0938382838FE090E030
:102590009583848380914004868317820E94F92A60
:1025A0008DB79EB708960FB6F8949EBF0FBE8DBF2D
:1025B000C8010E9499041F910F9108950F931F93D2
:1025C0000DE014E0C80161E047E00E94E50400D09E
:1025D00000D0EDB7FEB7128301838BE093E09483C4
:1025E00083830E94E82A0F900F900F900F90C801EC
:1025F0000E9499041F910F910895EF92FF920F93FB
:102600001F93CF93DF930E943A332091A40530911A
:10261000A5054091A6055091A7052617370748073D
:10262000590708F029C10E943A336C507E4F8F4FF2
:102630009F4F6093A4057093A5058093A605909382
:10264000A7050DE014E0C8010E942F05C80165E050
:1026500043E00E94E50400D000D0EDB7FEB712833E
:1026600001838CE493E0948383830E94E82A0F9093
:102670000F900F900F908091750590917605892BA2
:1026800031F08091A1059091A205892B81F4809170
:102690003804909139049093760580937505809164
:1026A0003A0490913B049093A2058093A105209158
:1026B0003A0430913B044091A1055091A205C90113
:1026C000845690404817590724F48091A3058F5FE2
:1026D00008C02C593F4F241735072CF48091A305CF
:1026E00081508093A3058091A305823014F482E089
:1026F00003C085301CF084E08093A3058091A3057E
:10270000833039F0843009F45DC0823009F0B0C004
:1027100003C0CAE0D0E002C0C4E6D0E000D000D0E0
:102720000DE0E02E04E0F02EEDB7FEB7F282E1827C
:102730008DE393E0948383830E94E82A8DB79EB74C
:1027400008970FB6F8949EBF0FBE8DBF0DB71EB78A
:102750000F5F1F4FEDB7FEB7F282E18288E492E08F
:10276000F8019383828360911D0370911E03882773
:1027700077FD8095982F0E941136F8016483758348
:102780008683978382E890E09187808780E290E05B
:10279000938782870E94F92A8DB79EB70C960FB651
:1027A000F8949EBF0FBE8DBF80911D0390911E03B4
:1027B0006DEF73E0AE010E941D0A90931E0380939B
:1027C0001D0356C000D000D01DE0E12E14E0F12E14
:1027D000EDB7FEB7F282E1828DE193E094838383CB
:1027E0000E94E82A8DB79EB708970FB6F8949EBF4F
:1027F0000FBE8DBF0DB71EB70F5F1F4FEDB7FEB7F2
:10280000F282E18280E592E0F80193838283609115
:102810007B0570E0645D7E4F882777FD8095982F5B
:102820000E94113620E030E048EC52E40E947635F8
:10283000F801648375838683978386E790E09187A8
:10284000808780E290E0938782870E94F92A8DB783
:102850009EB70C960FB6F8949EBF0FBE8DBF8091A9
:102860007B0590E060E873E00E94F20980937B05AD
:102870008DE094E00E949904DF91CF911F910F9118
:10288000FF90EF9008952F923F924F925F926F9238
:102890007F928F929F92AF92BF92CF92DF92EF92F0
:1028A000FF920F931F93DF93CF93CDB7DEB72F9790
:1028B0000FB6F894DEBF0FBECDBF8C876D870E9428
:1028C0003A332091A8053091A9054091AA0550916D
:1028D000AB05261737074807590708F0EBC1809169
:1028E000AC058823C9F0809327031092AC0588E5D6
:1028F00092E09093BB058093BA050E943A33625AE6
:102900007E4F8F4F9F4F6093A8057093A9058093CA
:10291000AA059093AB0588C180912703282E332404
:10292000C0903304209161042B87309162043A8770
:10293000D0903204E090AE05F090AF050091BA055A
:102940001091BB0540911F04498350914104598760
:102950008091AD05888740904E0450904F04609060
:1029600050047090510480917B0590E0845D9E4FEF
:102970002091130330911403DC01A29FC001A39F97
:10298000900DB29F900D1124B0915F04BF83E09130
:102990006004EE832091990530919A053D832C8344
:1029A00040919B0550919C055B834A833F862E8610
:1029B0004C01AA2497FCA094BA2C8E859F85019681
:1029C0009F878E8709972CF0A1E0B0E0BF87AE8784
:1029D00027C0EE85FF85E430F10509F454C0E530E9
:1029E000F1055CF4E230F105D1F1E330F1050CF0D2
:1029F0003EC0319709F09BC013C02E853F8526301D
:102A0000310509F461C0263031050CF453C027307C
:102A1000310509F465C02830310509F088C078C057
:102A200031E03C15A0F0C31619F405E612E015C01C
:102A30004B85413049F45A85513031F482E08D158F
:102A400018F002E712E009C00FE712E006C09A850D
:102A5000913009F46CC00CE812E081E06FC0A981EC
:102A6000A33009F464C009E912E082E067C0B985C7
:102A7000B23008F05CC0E885EE2309F458C006EADD
:102A800012E083E05BC0C501B4010E94113620E072
:102A900030E048EC52E40E9476359B01AC01C30162
:102AA000B2010E946F3588230CF041C003EB12E0A5
:102AB00084E044C0F1E0EF16F104C9F500EC12E047
:102AC000EE24FF2485E03AC02F812C3A2CF03E8181
:102AD000393668F5222359F10DEC12E086E02EC05C
:102AE00041E04C1520F14D1510F552E0D51619F4C2
:102AF0000AED12E005C083E0D81621F407EE12E0DB
:102B000087E01CC094E0D916D9F704EF12E0F8CFA3
:102B1000A1E0AC1560F4EC81FD81F7FD04C02A81D1
:102B20003B8137FF04C001E013E088E007C04E8519
:102B30005F854215530509F040CFA1C0F092AF0563
:102B4000E092AE051093BB050093BA058093AC05E7
:102B500081E08093B0050E943A3364547D4F8F4FDB
:102B60009F4F6093A8057093A9058093AA05909341
:102B7000AB050E943A336854744F8F4F9F4F609358
:102B8000B6057093B7058093B8059093B905809109
:102B9000B1059091B205A091B305B091B40500972D
:102BA000A105B10571F40E943A336059784E8F4FF8
:102BB0009F4F6093B1057093B2058093B3059093D6
:102BC000B4058091B505882379F40E943A332091A9
:102BD000B1053091B2054091B3055091B405261767
:102BE00037074807590720F08DE094E00E942F0531
:102BF0000E943A332091B1053091B2054091B3055E
:102C00005091B405261737074807590768F0109206
:102C1000B5050AC01092B0051092B1051092B20528
:102C20001092B3051092B4050DE014E0C8016C8554
:102C30004D850E94E50400D000D000D0EDB7FEB76E
:102C40003196ADB7BEB712961C930E9311978EE0D6
:102C500093E0938382838091BA059091BB0595831D
:102C600084830E94F92AEDB7FEB736960FB6F89422
:102C7000FEBF0FBEEDBFC8010E9499041BC0F092B9
:102C8000AF05E092AE051093BB050093BA05109214
:102C9000AC050E943A332091B6053091B7054091BA
:102CA000B8055091B905261737074807590708F4A2
:102CB000B1CFBACF2F960FB6F894DEBF0FBECDBFFF
:102CC000CF91DF911F910F91FF90EF90DF90CF9008
:102CD000BF90AF909F908F907F906F905F904F903C
:102CE0003F902F9008952091110330911203C90154
:102CF000895097408F5A9440D0F5809133048823AF
:102D000021F481E08093BC052EC08091BC0588230E
:102D100051F58091B005882311F10E943A3320913A
:102D2000B1053091B2054091B3055091B405261715
:102D3000370748075907B8F40E943A332091A8058D
:102D40003091A9054091AA055091AB052617370788
:102D50004807590740F48091AC05882321F48DE0A1
:102D600094E00E942F0582E08093B505089584E0E9
:102D7000203B380768F48091B505882349F010920C
:102D8000BC058DE094E00E942F051092B5050895D2
:102D9000205B34402955324000F58091B5058130E3
:102DA000E1F08091B005882379F00E943A332091B8
:102DB000B1053091B2054091B3055091B405261785
:102DC00037074807590748F41092BC058DE094E096
:102DD0000E942F0581E08093B5050895EF92FF9240
:102DE0000F931F938091BC05882309F060C08091E8
:102DF0003304823008F05BC08091AD05813009F06A
:102E000056C08091380490913904895097400CF451
:102E10004EC080913A0490913B04805B94400CF04A
:102E200046C080912A0490912B04A0912C04B0916B
:102E30002D048093BD059093BE05A093BF05B0936C
:102E4000C00580913C0490913D04A0913E04B09156
:102E50003F048093C1059093C205A093C305B0932E
:102E6000C4058091420490914304A0914404B09120
:102E700045048093900590939105A0939205B0939B
:102E800093058091570490915804A0915904B091F2
:102E90005A048093230390932403A0932503B093B3
:102EA000260381E090E09093AF058093AE0580917A
:102EB000C5059091C605A091C705B091C8050097BA
:102EC000A105B10509F04EC08091360490913704F8
:102ED000079708F447C080913304823008F442C059
:102EE0000E943A336093C5057093C6058093C70569
:102EF0009093C8051092CA051092C9058091540498
:102F0000909155049093CC058093CB058091190343
:102F100090911A03A0911B03B0911C038093280386
:102F200090932903A0932A03B0932B0380E090E0B1
:102F3000A0E0B0E08093880590938905A0938A056E
:102F4000B0938B058091570490915804A091590437
:102F5000B0915A048093230390932403A0932503F4
:102F6000B09326038091C5059091C605A091C70531
:102F7000B091C8050097A105B10509F462C0809120
:102F8000360490913704079720F480913404882305
:102F900059F180913304823038F10E943A33209104
:102FA000C5053091C6054091C7055091C805621B03
:102FB000730B840B950B28EE33E040E050E00E9449
:102FC000B038309378052093770580915404909120
:102FD00055042091CB053091CC05821B930B909327
:102FE000CA058093C9054DC00E943A337B018C010C
:102FF0006091770570917805882777FD8095982FE7
:1030000028E13CEF4FEF5FEF0E946A38E60EF71EB3
:10301000081F191FE092C505F092C6050093C70569
:103020001093C80580915404909155042091C905CE
:103030003091CA05821B930B9093CC058093CB05EE
:1030400020C00E943A3328EE33E040E050E00E9476
:10305000B03830937805209377051092CA05109206
:10306000C9058091190390911A03A0911B03B09197
:103070001C038093280390932903A0932A03B09301
:103080002B030E9473168091BC05882319F00E94BF
:10309000FD1249C28091880380FF08C06091DE0361
:1030A0008091DC0390E070E00E9443148091B505AC
:1030B0008230A8F08091B005882309F434C20E94C0
:1030C0003A332091B1053091B2054091B30550914A
:1030D000B405261737074807590708F424C280911A
:1030E000B5058093CD05823011F41092B50580911D
:1030F000B505A82FB0E0FD01EE57FC4F808185FF9C
:103100000BC0FD01E656FC4F6081A856BC4F8C9168
:1031100090E070E00E94A7128091B505A82FB0E062
:10312000FD01EE57FC4F808186FF0BC0FD01E2568A
:10313000FC4F6081A456BC4F8C9190E070E00E94DF
:103140006C128091B505A82FB0E0FD01E857FC4F47
:10315000808183FF0BC0FD01EE51FC4F6081A052C6
:10316000BC4F8C9190E070E00E94C40E8091AD0540
:10317000882309F454C08091B505A82FB0E0FD0163
:10318000EE57FC4F808187FF0BC0FD01EE55FC4FD1
:103190006081A056BC4F8C9190E070E00E94251297
:1031A0008091B505A82FB0E0FD01EC57FC4F808160
:1031B00084FF0BC0FD01EE54FC4F6081A055BC4F55
:1031C0008C9190E070E00E94FE108091B505A82FD0
:1031D000B0E0FD01EC57FC4F808183FF0BC0FD0187
:1031E000E255FC4F6081A455BC4F8C9190E070E09B
:1031F0000E94EA108091B505A82FB0E0FD01EC57C0
:10320000FC4F808186FF0BC0FD01EA54FC4F6081BA
:10321000AC54BC4F8C9190E070E00E948B11809177
:10322000B505A82FB0E0FD01EA57FC4F808187FF6C
:103230000BC0FD01EA53FC4F6081AC53BC4F8C9135
:1032400090E070E00E9496108091AD05882309F40B
:1032500059C080914104823008F454C08091B50572
:10326000A82FB0E0FD01E657FC4F808182FF0BC024
:10327000FD01E651FC4F6081A851BC4F8C9190E05C
:1032800070E00E94070F8091B505A82FB0E0FD0106
:10329000EA57FC4F808182FF0BC0FD01EE53FC4FCB
:1032A0006081A054BC4F8C9190E070E00E9431107E
:1032B0008091B505A82FB0E0FD01EA57FC4F808151
:1032C00083FF0BC0FD01E653FC4F6081A853BC4F48
:1032D0008C9190E070E00E94E10F8091B505A82FDD
:1032E000B0E0FD01EA57FC4F808181FF0BC0FD017A
:1032F000E253FC4F6081A453BC4F8C9190E070E08E
:103300000E94910F8091AD05882321F080914104A6
:10331000823028F48091320481508330A8F4809167
:10332000B505A82FB0E0FD01EC57FC4F808180FF70
:103330000BC0FD01E655FC4F6081A855BC4F8C9138
:1033400090E070E00E94750E8091B505A82FB0E066
:10335000FD01E857FC4F808186FF0FC080915F041C
:10336000882359F0FD01EA51FC4F6081AC51BC4FFC
:103370008C9190E070E00E942F0E8091B505A82FEF
:10338000B0E0FD01EE57FC4F808182FF0BC0FD01D4
:10339000EE56FC4F6081A057BC4F8C9190E070E0DE
:1033A0000E94F60D8091B505A82FB0E0FD01EE5703
:1033B000FC4F808181FF0BC0FD01E257FC4F608113
:1033C000A457BC4F8C9190E070E00E94BD0D80919D
:1033D000B505A82FB0E0FD01EA57FC4F808184FFBE
:1033E0000BC0FD01EE52FC4F6081A053BC4F8C918D
:1033F00090E070E00E94800D8091B505A82FB0E0AC
:10340000FD01EA57FC4F808185FF0BC0FD01EA52A8
:10341000FC4F6081AC52BC4F8C9190E070E00E94F8
:10342000D00C8091B505A82FB0E0FD01EE57FC4F00
:10343000808183FF0BC0FD01EA56FC4F6081AC56D2
:10344000BC4F8C9190E070E00E945B0C8091B505C0
:10345000A82FB0E0FD01EA57FC4F808180FF0BC030
:10346000FD01E254FC4F6081A454BC4F8C9190E06C
:1034700070E00E94090C8091B505A82FB0E0FD0115
:10348000EE57FC4F808184FF0BC0FD01EA55FC4FD5
:103490006081AC55BC4F8C9190E070E00E94AC0B09
:1034A0008091B505A82FB0E0FD01E657FC4F808163
:1034B00081FF0BC0FD01E251FC4F6081A451BC4F64
:1034C0008C9190E070E00E94690B8091B505A82F67
:1034D000B0E0FD01EC57FC4F808187FF0BC0FD0180
:1034E000E654FC4F6081A854BC4F8C9190E070E092
:1034F0000E94F60A8091B505A82FB0E0FD01EA57B9
:10350000FC4F808186FF0BC0FD01E652FC4F6081BD
:10351000A852BC4F8C9190E070E00E949E0A80916E
:10352000CD058093B5051F910F91FF90EF90089501
:103530008DE094E00E942F050E94DE120895CF9343
:10354000DF93EC018DE094E00E940404C817D907D2
:103550003CF08DE094E00E94F903892B09F4239755
:10356000CE01DF91CF910895FF920F931F9301EF4A
:1035700015E0C80160E873E00E94AA3180937B05E2
:10358000C8016DEF73E00E94AA31F82EC8016EEFFA
:1035900073E00E94AA31382F20E02F0D311D3093A7
:1035A0001E0320931D031F910F91FF900895BC01EE
:1035B00081EF95E00E94AA310895EF92FF920F9358
:1035C0001F93CF93DF930091B50510E08AEF90E051
:1035D000089F7001099FF00C189FF00C1124C7017F
:1035E00088569F4F0E94D71AF801EE57FC4F882348
:1035F00019F08081806102C080818F7E80838091FC
:10360000B505C82FD0E0C70186569F4F0E94D71A34
:10361000CC55DC4F88838091B505C82FD0E0C70119
:1036200084569F4F0E94D71A90E00E949F1ACA5555
:10363000DC4F88830091B50510E0C70106960E9413
:10364000D71AF801EE57FC4F882319F08081826069
:1036500002C080818D7F80838091B505C82FD0E026
:10366000C70108960E94D71AC457DC4F88838091FF
:10367000B505C82FD0E0C7010A960E94D71A90E07E
:103680000E949F1AC257DC4F88830091B50510E055
:10369000C7010C960E94D71AF801EE57FC4F8823F9
:1036A00019F08081846002C080818B7F808380914B
:1036B000B505C82FD0E0C7010E960E94D71AC05793
:1036C000DC4F88838091B505C82FD0E0C7014096B4
:1036D0000E94D71A90E00E949F1ACE56DC4F888332
:1036E0000091B50510E0C70142960E94D71AF80173
:1036F000EE57FC4F882319F08081886002C08081DA
:10370000877F80838091B505C82FD0E0C70144969C
:103710000E94D71ACC56DC4F88838091B505C82FFC
:10372000D0E0C70146960E94D71A90E00E949F1AE7
:10373000CA56DC4F88830091B50510E0C7014E964C
:103740000E94D71AF801EE57FC4F882319F08081A8
:10375000806202C080818F7D80838091B505C82FF3
:10376000D0E0C70180960E94D71AC856DC4F8883E4
:103770008091B505C82FD0E0C70182960E94D71A64
:1037800090E00E949F1AC656DC4F88830091B505D1
:1037900010E0C70184960E94D71AF801EE57FC4F3B
:1037A000882319F08081806402C080818F7B8083B0
:1037B0008091B505C82FD0E0C70186960E94D71A20
:1037C000C456DC4F88838091B505C82FD0E0C7016F
:1037D00088960E94D71A90E00E949F1AC256DC4F2A
:1037E00088830091B50510E0C7018A960E94D71A18
:1037F000F801EE57FC4F882319F08081806802C0E1
:1038000080818F7780838091B505C82FD0E0C70174
:103810008C960E94D71AC056DC4F88838091B505DC
:10382000C82FD0E0C7018E960E94D71A90E00E9460
:103830009F1ACE55DC4F88830091B50510E0C70173
:10384000C0960E94D71AF801EC57FC4F882319F054
:103850008081816002C080818E7F80838091B505E8
:10386000C82FD0E0C701C2960E94D71AC855DC4FB6
:1038700088838091B505C82FD0E0C701C4960E9407
:10388000D71A90E00E949F1AC655DC4F888300919A
:10389000B50510E0C701885B9F4F0E94D71AF80159
:1038A000EC57FC4F882319F08081806102C0808131
:1038B0008F7E80838091B505C82FD0E0C701865BDD
:1038C0009F4F0E94D71AC055DC4F88838091B50561
:1038D000C82FD0E0C701845B9F4F0E94D71A90E0A9
:1038E0000E949F1ACE54DC4F88830091B50510E0EA
:1038F000C7018E5B9F4F0E94D71AF801EC57FC4F0F
:10390000882319F08081886002C08081877F80834E
:103910008091B505C82FD0E0C7018C5B9F4F0E94F6
:10392000D71AC455DC4F88838091B505C82FD0E0E5
:10393000C7018A5B9F4F0E94D71A90E00E949F1A8E
:10394000C255DC4F88830091B50510E0C7018A5A43
:103950009F4F0E94D71AF801EC57FC4F882319F0AB
:103960008081806402C080818F7B80838091B505D7
:10397000C82FD0E0C701885A9F4F0E94D71ACC5455
:10398000DC4F88838091B505C82FD0E0C701865AE7
:103990009F4F0E94D71A90E00E949F1ACA54DC4F92
:1039A00088830091B50510E0C70182569F4F0E94A1
:1039B000D71AF801EC57FC4F882319F080818068F2
:1039C00002C080818F7780838091B505C82FD0E0B9
:1039D000C70180569F4F0E94D71AC854DC4F888376
:1039E0008091B505C82FD0E0C7018E559F4F0E942A
:1039F000D71A90E00E949F1AC654DC4F888300912A
:103A0000B50510E0C7018E599F4F0E94D71AF801E3
:103A1000EA57FC4F882319F08081816002C08081C1
:103A20008E7F80838091B505C82FD0E0C7018C5967
:103A30009F4F0E94D71AC454DC4F88838091B505EC
:103A4000C82FD0E0C7018A599F4F0E94D71A90E033
:103A50000E949F1AC254DC4F88830091B50510E084
:103A6000C70182599F4F0E94D71AF801EA57FC4FAD
:103A7000882319F08081846002C080818B7F8083DD
:103A80008091B505C82FD0E0C70180599F4F0E9493
:103A9000D71AC054DC4F88838091B505C82FD0E079
:103AA000C7018E589F4F0E94D71A90E00E949F1A1C
:103AB000CE53DC4F88830091B50510E0C7018457D1
:103AC0009F4F0E94D71AF801EA57FC4F882319F03C
:103AD0008081806802C080818F7780838091B50566
:103AE000C82FD0E0C70182579F4F0E94D71ACC53EE
:103AF000DC4F88838091B505C82FD0E0C70180577F
:103B00009F4F0E94D71A90E00E949F1ACA53DC4F21
:103B100088830091B50510E0C7018E569F4F0E9423
:103B2000D71AF801EA57FC4F882319F08081826088
:103B300002C080818D7F80838091B505C82FD0E041
:103B4000C7018C569F4F0E94D71AC453DC4F8883FD
:103B50008091B505C82FD0E0C7018A569F4F0E94BB
:103B6000D71A90E00E949F1AC253DC4F88830091BD
:103B7000B50510E0C7018C589F4F0E94D71AF80175
:103B8000EA57FC4F882319F08081886002C0808149
:103B9000877F80838091B505C82FD0E0C7018A5800
:103BA0009F4F0E94D71AC853DC4F88838091B50578
:103BB000C82FD0E0C70188589F4F0E94D71A90E0C5
:103BC0000E949F1AC653DC4F88830091B50510E010
:103BD000C70186589F4F0E94D71AF801EA57FC4F39
:103BE000882319F08081806102C080818F7E80836C
:103BF0008091B505C82FD0E0C70184589F4F0E941F
:103C0000D71AC053DC4F88838091B505C82FD0E008
:103C1000C70182589F4F0E94D71A90E00E949F1AB6
:103C2000CE52DC4F88830091B50510E0C701805863
:103C30009F4F0E94D71AF801EA57FC4F882319F0CA
:103C40008081806202C080818F7D80838091B505F4
:103C5000C82FD0E0C7018E579F4F0E94D71ACC5271
:103C6000DC4F88838091B505C82FD0E0C7018C5701
:103C70009F4F0E94D71A90E00E949F1ACA52DC4FB1
:103C800088830091B50510E0C7018A579F4F0E94B5
:103C9000D71AF801EA57FC4F882319F08081806415
:103CA00002C080818F7B80838091B505C82FD0E0D2
:103CB000C70188579F4F0E94D71AC852DC4F88838C
:103CC0008091B505C82FD0E0C70186579F4F0E944D
:103CD000D71A90E00E949F1AC652DC4F8883009149
:103CE000B50510E0C7018C559F4F0E94D71AF80107
:103CF000E857FC4F882319F08081816002C08081E1
:103D00008E7F80838091B505C82FD0E0C7018A558A
:103D10009F4F0E94D71AC452DC4F88838091B5050B
:103D2000C82FD0E0C70188559F4F0E94D71A90E056
:103D30000E949F1AC252DC4F88830091B50510E0A3
:103D4000C7018A549F4F0E94D71AF801E857FC4FC9
:103D5000882319F08081886002C08081877F8083FA
:103D60008091B505C82FD0E0C70188549F4F0E94AD
:103D7000D71AC052DC4F88838091B505C82FD0E098
:103D8000C70186549F4F0E94D71A90E00E949F1A45
:103D9000CE51DC4F88830091B50510E0C701845AED
:103DA0009F4F0E94D71AF801E857FC4F882319F05B
:103DB0008081806402C080818F7B80838091B50583
:103DC000C82FD0E0C701825A9F4F0E94D71ACC510A
:103DD000DC4F88838091B505C82FD0E0C701805A99
:103DE0009F4F0E94D71A90E00E949F1ACA51DC4F41
:103DF00088830091B50510E0C70180529F4F0E9453
:103E0000D71AF801E657FC4F882319F080818460A7
:103E100002C080818B7F80838091B505C82FD0E060
:103E2000C7018E519F4F0E94D71AC851DC4F88831B
:103E30008091B505C82FD0E0C7018C519F4F0E94DB
:103E4000D71A90E00E949F1AC651DC4F88830091D8
:103E5000B50510E0C7018C529F4F0E94D71AF80198
:103E6000E657FC4F882319F08081826002C0808170
:103E70008D7F80838091B505C82FD0E0C7018A521D
:103E80009F4F0E94D71AC451DC4F88838091B5059B
:103E9000C82FD0E0C70188529F4F0E94D71A90E0E8
:103EA0000E949F1AC251DC4F8883DF91CF911F91EE
:103EB0000F91FF90EF9008954F925F927F928F92B3
:103EC0009F92AF92BF92CF92DF92EF92FF920F93A9
:103ED0001F93DF93CF93CDB7DEB7C854D0400FB652
:103EE000F894DEBF0FBECDBF0DE014E0C8010E9404
:103EF0002F05C80166E049E00E94E50400D000D02B
:103F0000EDB7FEB71283018387E793E09483838341
:103F10000E94E82A0F900F900F900F90C8010E9406
:103F2000990400D000D000EF13E0EDB7FEB7128384
:103F3000018387E693E0948383830E94E82A9CE5CB
:103F4000492E93E0592EEE24FF24CC24DD240F903B
:103F50000F900F900F90702E012F89E0A82EB12C9A
:103F6000AC0EBD1E4E010894811C911C80EF93E0A5
:103F70000E949C2B982F8D3031F08D30DCF18053D6
:103F80008230C0F530C01830A1F59981892F805357
:103F9000823078F5913311F490E801C090E08A8185
:103FA000813309F4905C8B81813309F4905E8C81BC
:103FB000813309F4905F8D81813309F4985F8E819C
:103FC000813309F49C5F8F81813309F49E5F88857A
:103FD000813309F49F5FF501EE0DFF1D9083089476
:103FE000E11CF11C06C0F401E10FF11D90831F5F7D
:103FF00001C010E0F0E4EF16F104C9F48DE094E0A4
:10400000B601A5010E9412040894C11CD11C00D065
:1040100000D0EDB7FEB771820283548243820E94C2
:10402000E82AEE24FF240F900F900F900F90FFEFDF
:10403000CF16D10409F00CF499CFC85BDF4F0FB64F
:10404000F894DEBF0FBECDBFCF91DF911F910F91CE
:10405000FF90EF90DF90CF90BF90AF909F908F90A8
:104060007F905F904F9008952F923F924F925F9272
:104070006F927F928F929F92AF92BF92CF92DF9278
:10408000EF92FF920F931F93DF93CF93CDB7DEB7DD
:104090002A970FB6F894DEBF0FBECDBF33E0632E74
:1040A000712C6C0E7D1E27E0822E912C8C0E9D1E95
:1040B0000F2EF7E82F2EF4E13F2EF9E04F2EF3E418
:1040C0005F2EF02DE6C40E943A3360527E44804059
:1040D0009040C8F40E943A33695873418040904040
:1040E00090F01A3011F01D3031F480916D058F5F22
:1040F00080936D0502C010926D0580916D0583302F
:1041000011F40E945C1F812F63E674E00E946B062D
:10411000882309F4BEC48091670490916804A0913B
:104120006904B0916A048A3BE7EC9E07E1E2AE07BE
:10413000E4E7BE0709F458C08B3BF7EC9F07F1E2B8
:10414000AF07F4E7BF0740F58E3729EA92072BE562
:10415000A20726E2B20709F4E5C08F37E9EA9E0715
:10416000EBE5AE07E6E2BE0738F488529E45A24D65
:10417000B44209F08EC4C9C0823523E2920726E911
:10418000A20726E2B20709F4E6C1865A9E40A24180
:10419000B84409F07EC40DC48E3FF6EB9F07F9E2E8
:1041A000AF07F5EABF0709F4FCC08F3F26EB920783
:1041B00029E2A20725EAB20738F486549340A24CBC
:1041C000B54809F066C453C48C36F8E69F07F3E49B
:1041D000AF07F2ECBF0709F4A3C186589B43A04A7E
:1041E000B44C09F056C43AC40E943A336093200498
:1041F00070932104809322049093230483E080939E
:104200001F0480917D0490917E04A0917F04B09161
:1042100080048F839887A987BA876F81788589857D
:104220009A850E94DE357093250460932404809162
:10423000810490918204A0918304B09184048F83BF
:104240009887A987BA876F81788589859A850E9422
:10425000DE35709327046093260480918504909145
:104260008604A0918704B09188048F839887A987DA
:10427000BA876F81788589859A850E94DE358B01A2
:10428000709329046093280460912A0470912B0490
:1042900080912C0490912D0420E030E040E050E02B
:1042A0000E946F35882331F0809132048150833031
:1042B00008F039C4B801882777FD8095982F0E94AF
:1042C00011367B018C0160932E0470932F04809330
:1042D00030049093310420E030E040E050E00E9450
:1042E0006F3588230CF01FC4C801B70120E030E00F
:1042F00044EB53E40E94A93460932E0470932F047E
:1043000080933004909331040EC480916D048093A7
:10431000330480916F048093340480916E04809301
:104320003504B7C380916D0490916E04A0916F0421
:10433000B0917004F40180839183A283B3836F8171
:10434000788589859A8520E030E048EC52E40E9427
:1043500044370E94DE357093370460933604693C1D
:10436000710520F010923704109236048091870472
:104370009091880490933904809338048091890443
:1043800090918A0490933B0480933A048091930423
:10439000909194049A8389839093120380931103DC
:1043A00078C360916D0470916E0480916F04909158
:1043B00070040E94113620E836E948E15BE40E946F
:1043C000763560932A0470932B0480932C04909389
:1043D0002D04609171047091720480917304909126
:1043E0007404D3016C9311967C93119712968C935D
:1043F000129713969C930E94113620E836E948E103
:104400005BE40E94763560933C0470933D04809396
:104410003E0490933F0480919204809340048091E5
:10442000910480934104809132048150833068F577
:104430006091280470912904882777FD8095982F32
:104440000E9411367B018C0160932E0470932F041F
:10445000809330049093310420E030E040E050E05D
:104460000E946F35882354F5C801B70120E030E081
:1044700044EB53E40E94A93460932E0470932F04FC
:10448000809330049093310419C080917D04909101
:104490007E04A0917F04B0918004F4018083918315
:1044A000A283B3838F819885A985BA8580932E04D2
:1044B00090932F04A0933004B0933104809175043D
:1044C00090917604A0917704B0917804F4018083F0
:1044D0009183A283B3838F819885A985BA858093C0
:1044E000420490934304A0934404B0934504809104
:1044F000810490918204A0918304B091840480830C
:104500009183A283B3838F819885A985BA8580938F
:10451000460490934704A0934804B0934904B9C259
:104520008091750490917604A0917704B0917804FD
:10453000F40180839183A283B3838F819885A985B9
:10454000BA85B05880934A0490934B04A0934C04CE
:10455000B0934D049EC280916D0490916E04A09121
:104560006F04B0917004F40180839183A283B383BC
:10457000EF80F88409851A85E0924E04F0924F048A
:10458000009350041093510480917104909172042F
:10459000A0917304B091740480839183A283B38348
:1045A0006F81788589859A8520E030E048EC52E477
:1045B0000E9444370E94DE35709353046093520486
:1045C0008091810490918204A0918304B09184042D
:1045D000F40180839183A283B3836F817885898579
:1045E0009A850E94DE357093550460935404C80187
:1045F000B70126E636E64EEA51E40E94393718162E
:104600001CF486E090E03CC0C801B7012AE939E912
:104610004BE851E40E94393718164CF4809113038B
:104620009091140305971CF4A5E0B0E040C0C801C8
:10463000B70123E333E343E551E40E943937181609
:104640006CF4809113039091140304973CF4E4E01C
:10465000F0E0F0931403E09313032DC0C801B701F9
:104660002DEC3CEC4CE051E40E94393718166CF408
:10467000809113039091140303973CF483E090E03E
:10468000909314038093130316C0C801B70120E070
:1046900030E040EA50E40E943937181664F4809103
:1046A000130390911403029734F4A2E0B0E0B093A6
:1046B0001403A0931303809156048823C9F4DD24C6
:1046C0006091130370911403882777FD8095982FCC
:1046D0000E9411369B01AC01C801B7010E947635DA
:1046E00021EE3AE748E850E40E943937181614F4EE
:1046F000DD24D394D0925604DD2069F088E49DE750
:10470000A5EEB2E48093150390931603A0931703CC
:10471000B093180308C020921503309216034092FC
:10472000170350921803809156042091130330917F
:104730001403882329F1B901882777FD8095982FE4
:104740000E9411369B01AC01C801B7010E94763569
:104750002CEF39EA4DE550E40E94A834209115036E
:104760003091160340911703509118030E9444376B
:104770000E94E335E62FF0E0EA52FF4F649124C037
:10478000B901882777FD8095982F0E9411369B01EB
:10479000AC01C801B7010E9476352CEF39EA4DE52E
:1047A00050E40E94A83420911503309116034091E3
:1047B0001703509118030E9444370E94E335E62FF7
:1047C000F0E0E65CFE4F649170E080E090E00E94D3
:1047D0000F367B018C01A0901903B0901A03C09092
:1047E0001B03D0901C03C601B50120E030E040E877
:1047F0005FEB0E946F35882349F4E0921903F09231
:104800001A0300931B0310931C0339C0C801B7019E
:10481000A60195010E946F3518168CF0C801B701EA
:104820002DEC3CEC4CE45DE30E9444377B018C01B1
:10483000C601B50123E333E343E75FE310C0C801DA
:10484000B7012AE939E949E95EE30E9444377B016F
:104850008C01C601B50123E333E343E35FE30E9428
:1048600044379B01AC01C801B7010E94A934609391
:10487000190370931A0380931B0390931C03609198
:10488000190370911A0380911B0390911C0320E07F
:1048900030E046EC52E40E943937181664F480E0A8
:1048A00090E0A6ECB2E48093190390931A03A093CE
:1048B0001B03B0931C036091190370911A0380913C
:1048C0001B0390911C0320E030E040E050E00E9488
:1048D0006F35882364F480E090E0A0E0B0E080933E
:1048E000190390931A03A0931B03B0931C036091C8
:1048F00054047091550480E090E00E940F367B01D3
:104900008C0160911D0370911E03882777FD8095AF
:10491000982F0E9411369B01AC01C801B7010E947B
:1049200076359B01AC0160E070E080E89FE30E9477
:10493000A83420E030E048EC52E40E944437609311
:104940001F0370932003809321039093220320E0A0
:1049500030E046EC52E40E943937181664F480E0E7
:1049600090E0A6ECB2E480931F0390932003A09301
:104970002103B093220360911F0370912003809163
:1049800021039091220320E030E040E050E00E94BB
:104990006F3588230CF07DC080E090E0A0E0B0E0AF
:1049A00080931F0390932003A0932103B0932203CD
:1049B00070C080916D0490916E04A0916F04B091CD
:1049C0007004F40180839183A283B3836F8178851F
:1049D00089859A850E94DE35882777FD8095982FF6
:1049E0000E9411367B018C01609357047093580428
:1049F0008093590490935A04609123037091240387
:104A0000809125039091260320E03CE34CE156EC95
:104A10000E946F35882341F4E0922303F09224032F
:104A200000932503109326038091710490917204E2
:104A3000A0917304B0917404F40180839183A283E4
:104A4000B3838F819885A985BA8580935B04909301
:104A50005C04A0935D04B0935E041BC08091C70406
:104A600080935F0480917B048093600412C0209146
:104A700077042093610490917C0490936204809168
:104A80007A0480933204913009F04DC0213009F04E
:104A90004AC080EF93E00E946C2B1816190654F55B
:104AA00080EF93E00E949C2B182F80911F04882395
:104AB00009F029CB08CB10921F04DD24D3948D2D4F
:104AC00090E02A960FB6F894DEBF0FBECDBFCF910F
:104AD000DF911F910F91FF90EF90DF90CF90BF90EB
:104AE000AF909F908F907F906F905F904F903F908E
:104AF0002F900895DD24E0902004F090210400918F
:104B000022041091230480E197E2A0E0B0E0E80ED7
:104B1000F91E0A1F1B1F0E943A33E616F706080704
:104B2000190748F2CCCFDD24D394E5CF86E061E0CD
:104B30000E941B34089586E061E00E94DC3380EF20
:104B400093E040E051EE60E070E00E940A2B0E948A
:104B500096258DE094E00E946E050E94981A68EEFA
:104B600073E080E090E00E9448330E94B41A1092F3
:104B7000B50507C00E94DD1A8091B5058F5F80934F
:104B8000B5058091B5058230A8F31092B50580EF88
:104B900093E00E94E92B68EB7BE080E090E00E94CC
:104BA00048338DE094E00E942F050E943A336093D1
:104BB000CE057093CF058093D0059093D1050895CD
:104BC0002F923F924F925F926F927F928F929F921D
:104BD000AF92BF92CF92DF92EF92FF920F931F930B
:104BE000DF93CF9300D000D0CDB7DEB7E090DB05E8
:104BF000F090DC050091DD051091DE058FE590E079
:104C0000A0E0B0E0E80EF91E0A1F1B1F0E943A3315
:104C10006E157F058007910708F481C12091460435
:104C2000309147044091480450914904E0904A046F
:104C3000F0904B0400914C0410914D04CA01B9014D
:104C40000E9444375B016C01C801B701A8019701BC
:104C50000E9444379B01AC01C601B5010E94A934F2
:104C60000E94CB3760938C0570938D0580938E05E1
:104C700090938F0520E030E040E050E00E9439370B
:104C800018160CF042C10E943A332091DB05309196
:104C9000DC054091DD055091DE05621B730B840B32
:104CA000950B0E940F363B014C01E0908C05F09073
:104CB0008D0500918E0510918F052091460430914D
:104CC000470440914804509149040E94443720E031
:104CD00030E04AE754E40E9476359B01AC016091D4
:104CE00088057091890580918A0590918B050E94B5
:104CF000A934609388057093890580938A05909301
:104D00008B058091C9059091CA05892B09F49AC039
:104D1000C801B701A40193010E94443720E030E0AC
:104D20004AE754E40E9476351B012C01609152043D
:104D300070915304882777FD8095982F0E94113633
:104D400069837A838B839C836091D7057091D805A2
:104D50008091D9059091DA052DEC3CEC4CE45FE3B1
:104D60000E9444377B018C01C201B10120E030EA8E
:104D70004CE857E40E94443729813A814B815C8199
:104D80000E947635A40193010E9476359B01AC0107
:104D9000C801B7010E94A9345B016C016093D7057B
:104DA0007093D8058093D9059093DA0560911D031F
:104DB00070911E03882777FD8095982F0E941136E9
:104DC0002DEC3CEC4CE45FE30E9444377B018C010A
:104DD000609154047091550480E090E00E940F3679
:104DE0009B01AC01C801B7010E94A834A60195013E
:104DF0000E9444377B018C016091710570917205AE
:104E000080917305909174050E9411369B01AC014D
:104E1000C801B7010E94A83420E030E040E05FE321
:104E20000E9444370E94DE3570939C0560939B0579
:104E3000615F784D64F481EF98ED90939C058093C9
:104E40009B0505C010929C0510929B0552C0C201A3
:104E5000B10120E030E040E050E00E943937181600
:104E60000CF047C060919D0570919E0580919F0553
:104E70009091A0052DEC3CEC4CE45FE30E9444379C
:104E80007B018C0169817A818B819C8120914E0408
:104E900030914F0440915004509151040E94443786
:104EA000A40193010E94443720E030E041EE54E435
:104EB0000E947635A20191010E9476359B01AC01DA
:104EC000C801B7010E94A93460939D0570939E05A7
:104ED00080939F059093A00520E03BE443EC57E4CA
:104EE0000E94393718168CF480E09BE4A3ECB7E4F9
:104EF00004C080E090E0A0E0B0E080939D05909336
:104F00009E05A0939F05B093A0050E943A3360933D
:104F1000DB057093DC058093DD059093DE050F9033
:104F20000F900F900F90CF91DF911F910F91FF90F5
:104F3000EF90DF90CF90BF90AF909F908F907F9039
:104F40006F905F904F903F902F9008952F923F92D7
:104F50004F925F926F927F928F929F92AF92BF9289
:104F6000CF92DF92EF92FF920F931F93DF93CF9335
:104F700000D000D0CDB7DEB78091AD05882309F40D
:104F800038C2E090BD05F090BE050091BF051091BC
:104F9000C005C801B7019F7725E33AEF4EE85CE30F
:104FA0000E9444370E94733569837A838B839C8384
:104FB000C801B70120912A0430912B0440912C04A0
:104FC00050912D040E94A8349F7720EC3BE649EDD8
:104FD00057E40E9444375B016C016091C1057091F8
:104FE000C2058091C3059091C40520913C04309185
:104FF0003D0440913E0450913F040E94A8349F77A5
:1050000020EC3BE649ED57E40E94443729813A8180
:105010004B815C810E9444377B018C01C601B50144
:10502000A60195010E9444375B016C01C801B701DC
:10503000A80197010E9444379B01AC01C601B5014C
:105040000E94A9340E94CB370E94DE35609371051F
:105050007093720580937305909374058091C905D0
:105060009091CA05892B09F4E9C060917905709186
:105070007A0580E090E00E940F362DEC3CEC4CE489
:105080005FE30E9444373B014C0160911D03709126
:105090001E03882777FD8095982F0E9411362DECEE
:1050A0003CEC4CE45FE30E9444377B018C0160914F
:1050B00054047091550480E090E00E940F369B01EB
:1050C000AC01C801B7010E94A8345B016C010E94C9
:1050D0003A337B018C016091C9057091CA0580E06B
:1050E00090E00E940F361B012C018091C505909124
:1050F000C605A091C705B091C805E81AF90A0A0BC0
:105100001B0BC801B7010E940F36A20191010E943A
:1051100076359B01AC01C601B5010E94443720E001
:1051200030E04AE754E40E9476352DEC3CEC4CE448
:105130005EE30E9444379B01AC01C401B3010E94AD
:10514000A9340E94DE3570937A05609379056091E9
:1051500054047091550480E090E00E940F365B018A
:105160006C0160911D0370911E03882777FD809567
:10517000982F0E9411362DEC3CEC4CE45FE30E942A
:1051800044377B018C01C601B501A80197010E943B
:105190003937181624F410927A0510927905809107
:1051A000790590917A058057974130F08FE697E125
:1051B00090937A0580937905C801B701A6019501FE
:1051C0000E94A8347B018C0160918805709189054B
:1051D00080918A0590918B05A20191010E947635FC
:1051E0009B01AC01C801B7010E9444377B018C01CF
:1051F00060917105709172058091730590917405AD
:105200000E9411369B01AC01C801B7010E94A8346D
:1052100020E030E040E05FE30E9444370E94DE354A
:1052200070939A0560939905615F784D7CF481EFE6
:1052300098ED90939A058093990508C010927A058D
:105240001092790510929A05109299056091420486
:1052500070914304809144049091450420919005FD
:105260003091910540919205509193050E94A83488
:105270005B016C01209171053091720540917305BD
:1052800050917405CA01B9010E946A380E94113612
:105290007B018C01C601B501A60195010E9444372E
:1052A0009B01AC01C801B7010E94A9340E94CB3711
:1052B0000E94DE356093950570939605809397055F
:1052C000909398056091BD057091BE058091BF05D2
:1052D0009091C00520912A0430912B0440912C0418
:1052E00050912D040E94A8347B018C0160E070E095
:1052F00080E89FE329813A814B815C810E94763569
:105300009B01AC01C801B7010E9444377B018C01AD
:105310006091C1057091C2058091C3059091C4054B
:1053200020913C0430913D0440913E0450913F0453
:105330000E94A8349B01AC015058C801B7010E94DB
:105340001C3520EE3EE245E652E40E94443720E060
:1053500030E044EB52E40E94A9340E94DE359B0108
:10536000AC0197FF04C028593E4F4F4F5F4FCA0111
:10537000B901645B70408040904097FF06C0CA014D
:10538000B9016C547F4F8F4F9F4F0E94113620916F
:105390002E0430912F0440913004509131040E942A
:1053A000A8340E94DE3597FF04C068597E4F8F4FA6
:1053B0009F4F0E94113620E030E044EB53E40E94FE
:1053C000763520E030E040E851E40E9444370E9406
:1053D000A73720E030E040E85FE30E94A9340E9454
:1053E000E33560939405613108F47CC01092940514
:1053F00079C080914104823008F474C080914004E7
:10540000853008F46FC0D090D205FDE1FD1508F499
:1054100069C0E0904204F09043040091440410916C
:1054200045046091D3057091D4058091D505909184
:10543000D605A80197010E94A8349F7720E030E0AC
:1054400040E05FE30E94393718165CF41092D205F1
:10545000E092D305F092D4050093D5051093D605BC
:1054600041C08D2D8F5F8093D2058E31D9F580910B
:105470002A0490912B04A0912C04B0912D048093C8
:10548000BD059093BE05A093BF05B093C005809164
:105490003C0490913D04A0913E04B0913F04809360
:1054A000C1059093C205A093C305B093C405E092D3
:1054B0009005F092910500939205109393058091C9
:1054C000570490915804A0915904B0915A048093C4
:1054D000230390932403A0932503B093260381E034
:1054E0008093AD050F900F900F900F90CF91DF91AB
:1054F0001F910F91FF90EF90DF90CF90BF90AF90F2
:105500009F908F907F906F905F904F903F902F90E3
:1055100008950E94E0250E94B4078DE094E00E9467
:10552000A6270E94EE160895EF92FF920F931F9305
:105530000E943420892BB9F4E090CE05F090CF057D
:105540000091D0051091D10584E690E0A0E0B0E094
:10555000E80EF91E0A1F1B1F0E943A33E616F706D3
:105560000807190760F40E943A336093CE057093E0
:10557000CF058093D0059093D1050E94892A1F9171
:105580000F91FF90EF9008956EBD0DB407FEFDCF13
:105590008EB508958DE061E00E94DC338BE061E020
:1055A0000E94DC338CE060E00E94DC338AE061E042
:1055B0000E94DC331CBC80E58CBD8DB58EB5089592
:1055C0008FED95E00E94CA2A08958FEF9FE7089516
:1055D000DF93CF93CDB7DEB7FE0139968D819E81E3
:1055E00061E04F8158859F010E94892DCF91DF9105
:1055F0000895DF93CF93CDB7DEB7FE0139968D8145
:105600009E8160E04F8158859F010E94892DCF9136
:10561000DF9108950F931F93DC01ED91FC910288B7
:10562000F389E02D20E030E000E010E009951F91C3
:105630000F9108958F92AF92CF92EF92FF920F93B6
:105640001F93DF93CF93CDB7DEB7FC011382128295
:1056500088EE93E0A0E0B0E084839583A683B783CF
:105660008CE693E09183808355874487378726872C
:10567000118B008BF38AE28AC48AA58A868A70E03D
:10568000CB0123E0880F991F2A95E1F79C01205256
:105690003A4F308F278B88519A4F928F818F81E0BC
:1056A00090E002C0880F991F6A95E2F72091F005FB
:1056B000282B2093F005CF0140E051EE60E070E030
:1056C0000E940A2BCF91DF911F910F91FF90EF90D5
:1056D000CF90AF908F900895FC01838D882319F4AB
:1056E0002FEF3FEF0DC00788F08DE02D2081318135
:1056F00082819381281B390B84819581282339234A
:10570000C9010895FC01838D882319F42FEF3FEF21
:1057100011C0018CF28DE02D208131818281938135
:10572000281B390B209530958481958128233923B6
:105730002F5F3F4FC9010895FC01838D882361F0DD
:10574000A789B08D2D913C91119712968D919C91C6
:1057500013972817390721F44FEF5FEFCA01089517
:1057600012968D919C9113971696ED91FC91179737
:10577000E80FF91F408112968D919C911397019625
:1057800014962D913C9115978223932313969C9305
:105790008E93129750E0E2CFFC01838D882351F065
:1057A0000788F08DE02D2081318182819381281737
:1057B000390721F42FEF3FEFC901089582819381CA
:1057C0000680F781E02DE80FF91F8081282F30E057
:1057D000F3CFDC015796ED91FC915897828193812C
:1057E000918380835996ED91FC915A9780819181A4
:1057F000938382830895DC015B968C915B97882369
:10580000A9F15996ED91FC915A97208131812F5F32
:105810003F4F84819581282339235C968C915C9736
:10582000882329F08281938128173907F9F0828132
:10583000938128173907D9F3808191810680F781F8
:10584000E02DE80FF91F60835996ED91FC915A976E
:10585000318320835296ED91FC9153978081569627
:105860009C91892B808321E030E002C020E030E071
:10587000C9010895CF93DF93EC011B821A828A81BC
:105880009B81998388831D821C828E819F810097D2
:1058900021F00E945A321F821E82DF91CF9108951B
:1058A0000F931F938C01DC015296ED91FC9153975D
:1058B000208156968C91569755969C915597892B99
:1058C00080958223808357968D919C9158970E9452
:1058D0003A2CF801818D928D0E943A2CD8015B966A
:1058E0001C921F910F9108950F931F93CF93DF93F5
:1058F0008C01FC01138212828281938191838083C7
:1059000041E0A1E0B0E001C04F5FFD01042E02C004
:10591000EE0FFF1F0A94E2F79B0182E061307807E7
:1059200010F020E032E0E217F30770F3C1E0D0E0BE
:1059300002C0CC0FDD1F4A95E2F72197F8012681BE
:1059400037812115310541F0848195818C179D07A0
:1059500089F0C9010E945A32F801D583C483CE016F
:1059600001960E94BD319C01F8019783868380E0F7
:10597000232B09F081E0DF91CF911F910F910895C2
:10598000AF92BF92CF92DF92EF92FF920F931F934D
:10599000CF93DF937C015A016B01E901DC015B9637
:1059A0008C915B978823F1F02115310539F45796D6
:1059B000ED91FC915897C481D5812196011511056F
:1059C00049F4D7015996ED91FC915A9704811581BC
:1059D0000F5F1F4FD701ED91FC910088F189E02DF9
:1059E000C7010995F7018789908D209711F4C0E8C8
:1059F000D0E0BE010E94742C882381F0D701599613
:105A00008D919C915A970115110511F400E110E058
:105A1000B8010E94742C882309F04DC0D701ED9184
:105A2000FC910088F189E02DC701099567C0D70175
:105A30005096ED91FC915197B0E0AB16B1EEBB06DC
:105A4000B0E0CB06B0E0DB0609F454C081E090E0A2
:105A5000D70154960C9002C0880F991F0A94E2F760
:105A6000808360E079E08DE390E0A60195010E94DB
:105A7000D2382150304040405040CA01B90122E0A4
:105A800030E040E050E00E94D238D7011C96ED9102
:105A9000FC911D9730831E96ED91FC911F972083FA
:105AA000D7015296ED91FC915397808155969C9128
:105AB000892B808323C0D7015996ED91FC915A9789
:105AC0001382128282819381918380835796ED9114
:105AD000FC915897138212828281938191838083F3
