:100000000C9438020C9460020C9460020C94600210
:100010000C9460020C9460020C9460020C946002D8
:100020000C9460020C9460020C9460020C946002C8
:100030000C9460020C9460020C9460020C946002B8
:100040000C948F340C9460020C94D7050C94130616
:100050000C9460020C9460020C9460020C94600298
:100060000C9460020C946002084AD73B3BCE016EB0
:1000700084BCBFFDC12F3D6C74319ABD56833DDAFF
:100080003D00C77F11BED9E4BB4C3E916BAAAABE0E
:10009000000000803F05A84CCDB2D44EB93836A937
:1000A000020C50B9918688083CA6AAAA2ABE000074
:1000B00000803F0664EC1B3C04BC163E3BE5B93CAB
:1000C000C93C37C29E5A3D660498083EEA69AAAA0E
:1000D0003E000000803F0000000000000000000023
:1000E000000002070A0C0D0E101214151617191A2B
:1000F0001B1E2126282A2B2D2F31333437393C3D26
:100100003E3F4041424446494A4B4C4D4E4F4F5072
:10011000515152525354545555565758595A5B5C85
:100120005C5D5D5E5F5F5F606060606061616161DA
:100130006161626262626262626300070E091C1B97
:100140001215383F363124232A2D70777E796C6B57
:100150006265484F464154535A5DE0E7EEE9FCFBC7
:10016000F2F5D8DFD6D1C4C3CACD90979E998C8BB7
:100170008285A8AFA6A1B4B3BABDC7C0C9CEDBDC27
:10018000D5D2FFF8F1F6E3E4EDEAB7B0B9BEABAC17
:10019000A5A28F88818693949D9A2720292E3B3C87
:1001A00035321F18111603040D0A5750595E4B4C77
:1001B00045426F68616673747D7A898E87809592F7
:1001C0009B9CB1B6BFB8ADAAA3A4F9FEF7F0E5E2D7
:1001D000EBECC1C6CFC8DDDAD3D4696E6760757247
:1001E0007B7C51565F584D4A4344191E1710050237
:1001F0000B0C21262F283D3A33344E4940475255A7
:100200005C5B7671787F6A6D64633E393037222596
:100210002C2B0601080F1A1D1413AEA9A0A7B2B506
:10022000BCBB9691989F8A8D8483DED9D0D7C2C5F6
:10023000CCCBE6E1E8EFFAFDF4F32020BF0020BFCD
:1002400000BF007C202020202020202020202020F3
:100250002020202020202000C82020202020202016
:100260002020202020C900C820202020202020205D
:1002700020202020C97C00D82020202020202020E1
:1002800020202020D97C00C82020202020202020D1
:1002900020202020C97C00C82020202020202020D1
:1002A00020202020C97C006C69706F20626174740A
:1002B0002063656C6C7C7C7761726E696E67206C04
:1002C0006576656C3A2000626174742063617061C8
:1002D000636974793A00736574757020736372652D
:1002E000656E7C7C7C004368617220446F6E650A99
:1002F00000526561647920666F7220466F6E740AE1
:100300000075706461746520636861727365740060
:1003100000407A10F35A00A0724E18090010A5D4BC
:10032000E80000E87648170000E40B54020000CA19
:100330009A3B000000E1F50500008096980000005F
:1003400040420F000000A0860100000010270000BE
:100350000000E803000000006400000000000A0044
:10036000000000000100000000002C76D888DC6747
:100370004F0823DFC1DFAE59E1B1B796E5E3E4539F
:10038000C63AE651997696E8E6C28426EB898C9BBC
:1003900062ED407C6FFCEFBC9C9F40F2BAA56FA55C
:1003A000F490055A2AF75C936B6CF9676DC11BFCDE
:1003B000E0E40D47FEF520E6B500D0ED902E0300F9
:1003C000943577050080841E080000204E0A000046
:1003D00000C80C333333330F986E12831141EF8D05
:1003E0002114893BE65516CFFEE6DB18D1844B3845
:1003F0001BF77C1D901DA4BBE424203284725E2276
:100400008100C9F124ECA1E53D276E616E00696EA3
:10041000660000000000240027002A000000000001
:10042000250028002B0000000000230026002900E2
:10043000040404040404040402020202020203038A
:100440000303030301020408102040800102040892
:100450001020010204081020000000070002010023
:1004600000030406000000000000000083077D2C4C
:1004700011241FBECFEFD8E0DEBFCDBF13E0A0E058
:10048000B1E0E4E2F5E702C005900D92AA3CB107A5
:10049000D9F716E0AAECB3E001C01D92A036B1076F
:1004A000E1F714E0C0E7D4E004C02297FE010E9407
:1004B0008C3ACC36D107C9F70E940C360C94903A8E
:1004C0000C940000283008F027E03327DA01990F58
:1004D000311D87FD916000966105710539F4326028
:1004E0002E5F3D9330E32A95E1F708959F3F30F06A
:1004F00080387105610509F03C5F3C5F3D939130A8
:1005000008F08068911DDF93CF931F930F93FF92A4
:10051000EF92192F987F9695E92F96959695E90F6A
:10052000FF27E659FC4F99273327EE24FF24A70124
:10053000E70105900894079428F4360FE71EF81E8B
:10054000491F511D660F771F881F991F0694A1F739
:100550000590079428F4E70EF81E491F561FC11D89
:10056000770F881F991F661F0694A1F705900794BF
:1005700028F4F80E491F561FC71FD11D880F991F59
:10058000661F771F0694A1F70590079420F4490F82
:10059000561FC71FD81F990F661F771F881F069405
:1005A000A9F784911095177041F0D695C795579586
:1005B0004795F794E7941A95C1F7E0E1F3E0689462
:1005C0001590159135916591959105907FE2739500
:1005D000E118F10A430B560BC90BD009C0F7E10C27
:1005E000F11E431F561FC91FD01D7EF4703311F436
:1005F0008A95E6CFE894015030F0080F0AF40027FE
:10060000021708F4202F2395022F7A3328F079E37C
:100610007D932A95E9F710C07D932A9589F6069473
:1006200097956795379517951794E118F10A430B3D
:10063000560BC90BD00998F023957E9173957A33A8
:1006400008F070E37C932013B8F77E9170617D937E
:1006500030F0839571E37D9370E32A95E1F71124DF
:10066000EF90FF900F911F91CF91DF91992787FD18
:1006700090950895FA01AA27283051F1203181F18F
:10068000E8946F936E7F6E5F7F4F8F4F9F4FAF4F9A
:10069000B1E03ED0B4E03CD0670F781F891F9A1FAD
:1006A000A11D680F791F8A1F911DA11D6A0F711D61
:1006B000811D911DA11D20D009F468943F912AE06D
:1006C000269F11243019305D3193DEF6CF01089555
:1006D000462F4770405D4193B3E00FD0C9F7F6CF86
:1006E000462F4F70405D4A3318F0495D31FD40524E
:1006F000419302D0A9F7EACFB4E0A69597958795E4
:1007000077956795BA95C9F70097610571050895C2
:100710009B01AC010A2E069457954795379527956E
:10072000BA95C9F7620F731F841F951FA01D089506
:10073000FC010590615070400110D8F780959095AC
:100740008E0F9F1F0895FC016150704001900110B1
:10075000D8F7809590958E0F9F1F0895FB019F01FC
:10076000E8944230C4F04532B4F44A3029F497FB9F
:100770001EF4909581959F4F642F77270E94263A0B
:10078000805D8A330CF0895D8193CB010097A1F7DE
:1007900016F45DE251931082C9010C94CF03DC0181
:1007A000FC01672F71917723E1F7329704C07C91A8
:1007B0006D9370836291AE17BF07C8F30895FC0173
:1007C0001382128288EE93E0A0E0B0E084839583E8
:1007D000A683B78380E893E0918380830895FC012A
:1007E0008089803419F421E030E002C020E030E05C
:1007F000C9010895FC01818990E0089580E090E0AE
:10080000089580E090E0089580E090E008950895D4
:10081000EF92FF921F93CF93DF93162F7A0186E01A
:1008200060E00E94B83580E496E060E00E94612CB0
:1008300080E496E060E00E94612C80E496E069E04C
:100840000E94612C80E496E0612F0E94612CC0E040
:10085000D0E0F701EC0FFD1F108180E496E06AE024
:100860000E94612C80E496E06C2F0E94612C80E451
:1008700096E06BE00E94612C80E496E0612F0E947C
:10088000612C2196C633D10521F780E496E068E01B
:100890000E94612C80E496E060EA0E94612C80E472
:1008A00096E060EA0E94612C85FDF9CF80E496E035
:1008B00060E00E94612C80E496E06CE00E94612C74
:1008C00086E061E00E94B835DF91CF911F91FF90E3
:1008D000EF9008951F93CF93DF93EC01162F86E0DE
:1008E00060E00E94B83580E496E060E00E94612CF0
:1008F000112319F0113059F404C080E496E068899E
:1009000004C068896C6180E496E00E94612C86E0F6
:1009100061E00E94B835DF91CF911F910895EF9269
:10092000FF920F931F937C0100E416E0C80167E07B
:100930000E94612CC8016FEF0E94612C86E061E08B
:100940000E94B835F70187858F5F87871F910F91C8
:10095000FF90EF900895EF92FF920F931F93FC0189
:10096000E7848EE1E89E700111248685E80EF11C73
:1009700086E060E00E94B83500E416E0C80164E05B
:100980000E94612CC80163E00E94612CC80165E0EF
:100990000E94612CC8016F2D0E94612CC80166E085
:1009A0000E94612CC8016E2D0E94612C1F910F9135
:1009B000FF90EF900895FC0164874587668747871D
:1009C0000E94AB0408951F93CF93DF93EC01162F81
:1009D0006C3731F40E948F04CE010E94AB040AC030
:1009E00080E496E067E00E94612C80E496E0612F4D
:1009F0000E94612C81E090E0DF91CF911F910895DA
:100A0000EF92FF920F931F938EE1489F7001112484
:100A1000E60EF11C86E060E00E94B83500E416E0C6
:100A2000C80165E00E94612CC8016F2D0E94612CF5
:100A3000C80166E00E94612CC8016E2D0E94612CE5
:100A40001F910F91FF90EF9008950F931F9386E0F1
:100A500060E00E94B83500E416E0C80164E00E943E
:100A6000612CC80164E00E94612C61E070E080E0CC
:100A700090E00E94E53486E061E00E94B8351F9165
:100A80000F9108951F93CF93DF93EC01188A16E01E
:100A9000198B82E596E060E973E00E94473381306C
:100AA00049F480E4888B88E0898B86E060E00E94CE
:100AB000B83502C0188A198B86E060E00E94B8350C
:100AC000DF91CF911F9108950F931F93CF93DF93E1
:100AD000EC0186E061E00E94793582E060E00E94EE
:100AE000793582E061E00E94B835CE010E9442056E
:100AF00086E060E00E94B83580E496E06CEE0E94EB
:100B0000612C80E496E06FEF0E94612C182F80E446
:100B100096E060E00E94612C6889626080E496E063
:100B20000E94612C62E370E080E090E00E94E53476
:100B300080E496E06CE60E94612C1F7E80E496E0E3
:100B4000612F0E94612C8889803419F00DE010E03B
:100B500002C000E110E01092CB031092CA0317C04C
:100B60006091CA037091CB03605F80E496E00E94BD
:100B7000612C80E496E069E00E94612C8091CA03B8
:100B80009091CB0301969093CB038093CA038091FD
:100B9000CA039091CB038017910714F3CE0161E053
:100BA0000E946A04DF91CF911F910F9108951F92C7
:100BB0000F920FB60F9211242F933F934F938F9361
:100BC0009F93EF93FF934091C6002091410630918F
:100BD00042062F5F3F4F809145069091460628239D
:100BE000392380914306909144062817390779F0FC
:100BF0008091410690914206E0914706F0914806A7
:100C0000E80FF91F40833093420620934106FF917D
:100C1000EF919F918F914F913F912F910F900FBE28
:100C20000F901F9018951F920F920FB60F921124DC
:100C30002F933F938F939F93EF93FF9320914B06B6
:100C400030914C068091490690914A062817390741
:100C5000E9F080914B0690914C06E0914F06F0919F
:100C60005006E80FF91F80818093C60080914B06E3
:100C700090914C06019620914D0630914E068223AC
:100C8000932390934C0680934B0610C02091490605
:100C900030914A0680914B0690914C0628173907EF
:100CA00029F48091C1008F7D8093C100FF91EF9165
:100CB0009F918F913F912F910F900FBE0F901F909A
:100CC0001895CF93DF93482FEB018091D3058330A4
:100CD00009F45FC0843028F48130D1F0823068F5A7
:100CE0000AC0853009F4D4C0853008F4AAC0863023
:100CF00009F0F4C0EBC04C3309F0F0C081E0809300
:100D0000D3054883E6E7F1E0E491E093D205E6C03D
:100D1000842F90E0E091D205F0E0E827F927E65C27
:100D2000FE4FE491E093D205887F9070809741F563
:100D300082E08093D305498329C0242F30E0E091DD
:100D4000D205F0E0E227F327E65CFE4FE491E09362
:100D5000D2058091D1058F5F8093D105823018F440
:100D60003B832A83BBC0922F88272A813B81820F35
:100D7000931F9B838A830A978F3F910521F018F078
:100D80001092D305ABC083E08093D3051092D105B8
:100D9000A5C0E42FF0E08091D20590E0E827F92784
:100DA000E65CFE4FE491E093D2056091D1056F5F60
:100DB0006093D105623089F0633020F4613009F02E
:100DC0008DC006C0633091F0643009F087C022C046
:100DD000842F90E0A0E0B0E018C0242F30E040E085
:100DE00050E0542F432F322F222707C0242F30E00A
:100DF00040E050E0A901332722278C819D81AE81FC
:100E0000BF81820F931FA41FB51F8C839D83AE8368
:100E1000BF8364C0242F30E040E050E0522F4427CD
:100E2000332722278C819D81AE81BF81820F931F42
:100E3000A41FB51F8C839D83AE83BF836093D305AE
:100E4000A5CF242F30E0E091D205F0E0E227F32790
:100E5000E65CFE4FE491E093D2056091D1056F5FAF
:100E60006093D105613019F06230C1F503C0398754
:100E7000288734C0922F882728853985280F391F65
:100E8000398728878A819B810A97F1F085E07CCF9A
:100E9000E42FF0E08091D20590E0E827F927E65CA6
:100EA000FE4FE491E093D2052091D1052F5F20936E
:100EB000D10530E0FB01E20FF31F41878A819B815E
:100EC0000A972817390750F086E05ECFC75FDE4FDC
:100ED0004883C950D14087E08093D3058091D305E2
:100EE000873069F41092D305C75FDE4F9091D20529
:100EF0008881C950D140981711F48A8101C080E0DF
:100F0000DF91CF9108958F92AF92CF92EF92FF929F
:100F10000F931F938EE394E060E045EC50E024ECE7
:100F200030E000EC10E0B1ECEB2EF12CCC24C394BB
:100F3000A8E9AA2EF0E28F2E0E94B72C8BE594E050
:100F40000E94DF031F910F91FF90EF90CF90AF9021
:100F50008F900895DF93CF9300D000D0CDB7DEB748
:100F6000FB01E80FF91F62858385948525856983D8
:100F70008A839B832C83492F5C81782FCA010F9031
:100F80000F900F900F90CF91DF91089560917C04A6
:100F900070917D0480917E0490917F0420E030E088
:100FA00040E152E40E94E13820E030E044EB53E4B9
:100FB0000E9413370E9444390E947B379B012550C1
:100FC000304037FF03C09B01215E3F4FAFEDB5E0DE
:100FD000F901E257FC4F80818C932F5F3F4F243201
:100FE000310514F020E030E0119685E0AA3EB80704
:100FF00079F71C9208952F923F924F925F926F92D1
:101000007F928F929F92AF92BF92CF92DF92EF9298
:10101000FF920F931F93DF93CF9300D000D000D0A7
:10102000CDB7DEB7182F662E20917204309173046D
:101030002A35310530F0C9018D549F4F893591050E
:10104000E8F437FF02C02D543F4FC90137FF03C0FA
:10105000909581959F4F8A3191053CF004E4802E54
:10106000912CB9ED2B2E312C1DC00A975CF1ABE30E
:101070008A2E912CF2ED2F2E312C20C02B353105EC
:1010800014F0235B3040C90137FF03C09095819570
:101090009F4F8A31910554F0E6E58E2E912C7CED20
:1010A000272E312C67E0A62EB12C15C00A9754F0DC
:1010B0005DE4852E912C44ED242E312C38E0A32EB6
:1010C000B12C09C025E0822E912C98E3292E312CD9
:1010D00089E0A82EB12C6091740470917504882762
:1010E00077FD8095982F0E94AE3727EA32E94BE2D0
:1010F0005CEB0E94E1380E94B53920E030E040EA24
:1011000050E40E94E13820E030E040E951E40E94E0
:10111000E1380E94443920E030E044E352E40E9488
:1011200046360E947B37712E0EEBC02E0FEFD02E6D
:101130009B01442737FD4095542F29833A834B83E5
:101140005C831BE5412E14E0512E4AEF5FEF240E25
:10115000351E6091720470917304882777FD809525
:10116000982F0E94AE3725E33AEF4EE85CE30E94E9
:10117000E1380E94B5397B018C01B601882777FDE3
:101180008095982F0E94AE379B01AC01C801B70132
:101190000E94E1387B018C0169817A818B819C817D
:1011A0000E94AE379B01AC01C801B7010E944636D0
:1011B0000E947B379B01CB0101978A35910508F08E
:1011C00071C062E170E00E943A3A8B012F5F3F4F9D
:1011D000AEEEBFEF6A9FC0016B9F900D7A9F900D9E
:1011E0001124820F931F62E070E00E943A3A6D83EF
:1011F0007E83E62CE01A4E2D4C5F8BE594E0672D44
:101200000E94000500D000D000D0EDB7FEB73196A7
:10121000ADB7BEB712965C924E92119720E031E0C6
:10122000338322838D819E81880D991D95838483CC
:101230000E94962C4DB75EB74A5F5F4F0FB6F89489
:101240005EBF0FBE4DBF8D819E818A159B0554F1F7
:10125000043011053CF593E0E90EC201672D4E2DD7
:101260000E94000500D000D000D0EDB7FEB7319647
:10127000ADB7BEB712965C924E92119720E031E066
:10128000338322834D815E81420D531D55834483F8
:101290000E94962C8DB79EB706960FB6F8949EBF07
:1012A0000FBE8DBFACE0B0E0CA0EDB1E7394BEE48F
:1012B000CB16D10409F04DCF26960FB6F894DEBFB9
:1012C0000FBECDBFCF91DF911F910F91FF90EF9097
:1012D000DF90CF90BF90AF909F908F907F906F9056
:1012E0005F904F903F902F900895CF92DF92EF92B2
:1012F000FF920F931F93823010F402E002C0082F78
:10130000000F6091D4057091D5058091D60590911C
:10131000D7050E94AE376B017C0120E030E44CE140
:1013200056E40E940C37202F30E04BE554E0882330
:1013300034F58DB79EB70E970FB6F8949EBF0FBECB
:101340008DBFEDB7FEB73196ADB7BEB712965C93C1
:101350004E93119783E091E09383828322573F4F0E
:10136000358324832F5F3F4F37832683C086D18602
:10137000E286F3868DE890E09587848734C08DB748
:101380009EB70E970FB6F8949EBF0FBE8DBF0DB7D8
:101390001EB70F5F1F4FADB7BEB712965C934E934B
:1013A00011978FE091E0F8019383828322573F4F9A
:1013B000358324832F5F3F4F37832683C701B601D0
:1013C00020E030E04AE754E40E941337D801189631
:1013D0006D937D938D939C931B978DEF90E01D965D
:1013E0009C938E931C970E94962CEDB7FEB73E9669
:1013F0000FB6F894FEBF0FBEEDBF1F910F91FF9087
:10140000EF90DF90CF900895CF93DF93AC01E09100
:101410008604F09187042091D8053091D905C9013F
:101420008C599F4F8E179F071CF4EA01219609C023
:1014300024563040E217F30714F0EA0102C0EA0133
:101440002197842F90E0C817D90729F082E596E00C
:101450004C2F0E944E33CE01DF91CF910895CF9251
:10146000DF92EF92FF920F931F93CF93DF937C0154
:101470006B01EA0100D000D00BE514E0EDB7FEB738
:101480001283018383E492E0948383830E94852CFA
:101490000F900F900F900F90CA30D10581F0C43695
:1014A000D10521F0C130D10519F512C000D000D00E
:1014B000EDB7FEB71283018381E492E011C000D042
:1014C00000D0EDB7FEB7128301838EE392E008C02F
:1014D00000D000D0EDB7FEB7128301838AE392E01B
:1014E000948383830E94852C0F900F900F900F9010
:1014F00040918604509187042091D8053091D905F8
:10150000C9018C599F4F841795071CF4CE0DDF1D20
:101510000BC0245630404217530714F0E70116C0A1
:10152000C7018C1B9D0BEC01CE15DF0579F082E520
:1015300096E0B6014C2F0E944E330894C11CD11C7A
:1015400082E596E0B6014D2F0E944E33CE01DF9129
:10155000CF911F910F91FF90EF90DF90CF90089562
:10156000CF92DF92EF92FF920F931F937C01D62EC2
:10157000C72E0BE514E0C8016E2D4D2D0E94DB0433
:1015800000D000D0EDB7FEB71283018387E992E067
:10159000948383830E94852CEDB7FEB71283018369
:1015A00087E892E0948383830E94852CEDB7FEB791
:1015B0001283018387E792E0948383830E94852CC2
:1015C000EDB7FEB71283018387E692E094838383AD
:1015D0000E94852CEDB7FEB71283018388E592E067
:1015E000948383830E94852C0F900F900F900F900F
:1015F000C8010E948F04C70101966D2D7C2D0E94A9
:10160000FB071F910F91FF90EF90DF90CF9008950F
:10161000CF92DF92EF92FF920F931F93282F462FC6
:101620000BE514E0C801622F0E94DB04E090DA05AC
:10163000F090DB05C090DC05D090DD058DB79EB73E
:1016400044970FB6F8949EBF0FBE8DBFEDB7FEB79F
:101650003196ADB7BEB712961C930E9311978BE1DE
:1016600091E09383828383EB90E095838483C70129
:101670006CE370E00E943A3ACB016CE370E00E94A8
:101680003A3A978386832AE330E031872087C7017F
:101690006CE370E00E943A3A9387828789EF90E08A
:1016A00095878487C6016CE370E00E94263ACB01DF
:1016B0006CE370E00E943A3A97878687318B208BE3
:1016C000C6016CE370E00E94263A938B828B0E94E5
:1016D000962C8DB79EB744960FB6F8949EBF0FBE5A
:1016E0008DBFC8010E948F041F910F91FF90EF9052
:1016F000DF90CF9008950F931F93282F462F0BE56F
:1017000014E0C801622F0E94DB048DB79EB70C97CE
:101710000FB6F8949EBF0FBE8DBFEDB7FEB73196E2
:10172000ADB7BEB712961C930E93119783E391E069
:101730009383828383EE90E0958384838091A804D1
:101740009091A904A091AA04B091AB0486839783D9
:10175000A087B18780EB90E0938782870E94962CC8
:101760008DB79EB70C960FB6F8949EBF0FBE8DBF77
:10177000C8010E948F041F910F9108950F931F932A
:10178000282F462F0BE514E0C801622F0E94DB04CE
:101790008DB79EB746970FB6F8949EBF0FBE8DBF0C
:1017A000EDB7FEB73196ADB7BEB712961C930E9348
:1017B00011978DE391E09383828389EB90E0958389
:1017C00084838091A2049091A3049783868382E806
:1017D00090E09187808787EB90E093878287809164
:1017E0005F0390916003A0916103B09162038487CD
:1017F0009587A687B78786EB90E0918B808B809149
:10180000650390916603A0916703B0916803828B92
:10181000938BA48BB58B0E94962C8DB79EB7469662
:101820000FB6F8949EBF0FBE8DBFC8010E948F04F3
:101830001F910F910895EF92FF920F931F93282FFE
:10184000462F8BE5E82E84E0F82EC701622F0E9418
:10185000DB048DB79EB70C970FB6F8949EBF0FBEF2
:101860008DBF0DB71EB70F5F1F4FEDB7FEB7F282EA
:10187000E18285E591E0F8019383828384EE90E034
:10188000958384836091A0047091A104882777FDDB
:101890008095982F0E94AE372AE037ED43E25CE353
:1018A0000E94E138F80166837783808791878FE80B
:1018B00090E0938782870E94962C8DB79EB70C96F6
:1018C0000FB6F8949EBF0FBE8DBFC7010E948F0454
:1018D0001F910F91FF90EF900895CF92DF92EF92BA
:1018E000FF920F931F93282F462F8BE594E0622FD2
:1018F0000E94DB04C0909C04D0909D04E0909E0464
:10190000F0909F048091DE0590E0805D9E4F2091D5
:101910005D0330915E03829FB001839F700D929FA3
:10192000700D1124882777FD8095982F0E94AE377F
:1019300020E030E048EC52E40E9413379B01AC01F8
:10194000C701B6010E940C37181614F428EB01C029
:1019500024EB8DB79EB70C970FB6F8949EBF0FBEC1
:101960008DBFEDB7FEB731960BE514E0ADB7BEB74E
:1019700012961C930E93119785E591E093838283D1
:10198000822F992787FD909595838483C682D7827D
:10199000E086F1868EE890E0938782870E94962CFD
:1019A0008DB79EB70C960FB6F8949EBF0FBE8DBF35
:1019B000C8010E948F041F910F91FF90EF90DF905C
:1019C000CF9008950F931F93282F462F8BE594E017
:1019D000622F0E94DB0480918304882319F42FE591
:1019E00031E057C0813019F423E631E052C0823033
:1019F00019F427E631E04DC0833019F42BE631E0CD
:101A000048C0843019F42FE631E043C0853019F422
:101A100023E731E03EC0863019F427E731E039C0D2
:101A2000873019F42BE731E034C0883019F42FE700
:101A300031E02FC0893019F423E831E02AC08A3020
:101A400019F427E831E025C08B3019F42BE831E098
:101A500020C08C3019F42FE831E01BC08D3019F410
:101A600023E931E016C08E3019F427E931E011C0C6
:101A70008F3019F42BE931E00CC0803119F42FE9D3
:101A800031E007C0813119F023EA31E002C024EAD5
:101A900031E08150863030F480918204882311F047
:101AA00044E001C040EE8DB79EB708970FB6F8949A
:101AB0009EBF0FBE8DBFEDB7FEB731960BE514E0AC
:101AC000ADB7BEB712961C930E93119788EA91E0BA
:101AD00093838283842F992787FD909595838483B0
:101AE000378326830E94962C8DB79EB708960FB633
:101AF000F8949EBF0FBE8DBFC8010E948F041F9136
:101B00000F9108950F931F93282F462F0BE514E094
:101B1000C801622F0E94DB048DB79EB70A970FB6EB
:101B2000F8949EBF0FBE8DBFEDB7FEB73196ADB72F
:101B3000BEB712961C930E9311978DEA91E0938392
:101B4000828387E890E095838483809184049091D8
:101B500085049783868385E290E0918780870E9441
:101B6000962C8DB79EB70A960FB6F8949EBF0FBEFF
:101B70008DBFC8010E948F041F910F9108950F938C
:101B80001F93282F462F0BE514E0C801622F0E94F7
:101B9000DB048DB79EB708970FB6F8949EBF0FBEB3
:101BA0008DBFEDB7FEB73196ADB7BEB712961C9399
:101BB0000E93119787EB91E0938382838091740455
:101BC000909175049583848381EB90E0978386835D
:101BD0000E94962C8DB79EB708960FB6F8949EBFBC
:101BE0000FBE8DBFC8010E948F041F910F910895F1
:101BF0000F931F93282F462F0BE514E0C801622F87
:101C00000E94DB048DB79EB708970FB6F8949EBF6D
:101C10000FBE8DBFEDB7FEB73196ADB7BEB712960A
:101C20001C930E93119787EB91E0938382838091AD
:101C30007204909173049583848382EB90E0978380
:101C400086830E94962C8DB79EB708960FB6F8949F
:101C50009EBF0FBE8DBFC8010E948F041F910F91C0
:101C600008950F931F93282F462F0BE514E0C8010A
:101C7000622F0E94DB048DB79EB70E970FB6F894C3
:101C80009EBF0FBE8DBFEDB7FEB73196ADB7BEB7E5
:101C900012961C930E9311978DEB91E093838283A0
:101CA00081EE90E0958384838091B404992787FD29
:101CB0009095978386838CE890E0918780878091C8
:101CC000B504828713868BE890E0958784870E940D
:101CD000962C8DB79EB70E960FB6F8949EBF0FBE8A
:101CE0008DBFC8010E948F041F910F9108950F931B
:101CF0001F93282F462F0BE514E0C801622F0E9486
:101D0000DB048DB79EB742970FB6F8949EBF0FBE07
:101D10008DBFEDB7FEB73196ADB7BEB712961C9327
:101D20000E9311978BEC91E0938382838CED91E07D
:101D30009583848380917C0490917D04A0917E049E
:101D4000B0917F0486839783A087B18780EB90E072
:101D50009387828780ED90E0958784878FED95E06B
:101D60009787868781ED90E0918B808B0E94962CDF
:101D70008DB79EB742960FB6F8949EBF0FBE8DBF2B
:101D8000C8010E948F041F910F910895EF92FF9256
:101D90000F931F93CF93DF93282F462F8BE594E06B
:101DA000622F0E94DB04E0909804F0909904009167
:101DB0009A0410919B04C801B70120E030E040E094
:101DC00050E00E94D638181614F42BE701C02DE716
:101DD0008DB79EB70C970FB6F8949EBF0FBE8DBF00
:101DE000CDB7DEB721968BE594E0EDB7FEB79283D1
:101DF000818386EE91E09B838A832C831D82C801B8
:101E0000B70120E030E040E752E40E94E1380E9450
:101E10007B379B0177FF03C0309521953F4FB90178
:101E2000882777FD8095982F0E94AE376E837F8339
:101E3000888799878FE790E09B878A870E94962CF6
:101E40008DB79EB70C960FB6F8949EBF0FBE8DBF90
:101E50008BE594E00E948F04DF91CF911F910F9149
:101E6000FF90EF900895CF92DF92EF92FF920F9341
:101E70001F93CF93DF93282F462FCBE5D4E0CE01DD
:101E8000622F0E94DB04C090EB05D090EC05E0903F
:101E9000ED05F090EE05C701B6010E947B37695E43
:101EA0007340804090408CF18DB79EB70C970FB671
:101EB000F8949EBF0FBE8DBF0DB71EB70F5F1F4FAB
:101EC000ADB7BEB71296DC93CE93119785E591E03E
:101ED000F801938382838EEF90E095838483C7011A
:101EE000B60120E030E04AE754E40E941337D801FD
:101EF00016966D937D938D939C9319978DEF90E03B
:101F00001B969C938E931A9721C08DB79EB70C9702
:101F10000FB6F8949EBF0FBE8DBFEDB7FEB73196DA
:101F2000ADB7BEB71296DC93CE93119780EF91E0D8
:101F3000938382838EEF90E095838483C682D782D9
:101F4000E086F1868DE890E0938782870E94962C48
:101F5000EDB7FEB73C960FB6F894FEBF0FBEEDBFCF
:101F60008BE594E00E948F04DF91CF911F910F9138
:101F7000FF90EF90DF90CF900895EF92FF920F9334
:101F80001F93282F462F9BE5E92E94E0F92EC701D9
:101F9000622F0E94DB048DB79EB70C970FB6F894A2
:101FA0009EBF0FBE8DBF0DB71EB70F5F1F4FEDB7A2
:101FB000FEB7F282E18283E391E0F80193838283AA
:101FC00089EE90E0958384836091940470919504E8
:101FD000809196049091970426E636E646E650E412
:101FE0000E94E138F801668377838087918781E8D2
:101FF00090E0938782870E94962C8DB79EB70C96AF
:102000000FB6F8949EBF0FBE8DBFC7010E948F040C
:102010001F910F91FF90EF900895CF92DF92EF9272
:10202000FF920F931F93282F462F3BE5C32E34E0DA
:10203000D32EC601622F0E94DB0460919004709140
:10204000910480919204909193042DB73EB724514E
:1020500030400FB6F8943EBF0FBE2DBF0DB71EB770
:102060000F5F1F4FEDB7FEB7D282C1822AEF31E07A
:10207000F8013383228325E830E0358324836683A7
:102080007783808791872DE8E22EF12CF386E28614
:1020900027EE30E0358724872091F7053091F80549
:1020A0004091F9055091FA050E944536F80166877E
:1020B0007787808B918BF38AE28A0E94962C2DB7CA
:1020C0003EB72C5E3F4F0FB6F8943EBF0FBE2DBFFC
:1020D000C6010E948F041F910F91FF90EF90DF9037
:1020E000CF900895EF92FF920F931F93282F462FC2
:1020F0005BE5E52E54E0F52EC701622F0E94DB045C
:102100008DB79EB70C970FB6F8949EBF0FBE8DBFCC
:102110000DB71EB70F5F1F4FEDB7FEB7F282E1821A
:1021200086EE91E0F8019383828386EE90E09583BA
:1021300084836091A4047091A5048091A604909179
:10214000A7042091690330916A0340916B03509179
:102150006C030E944536F8016683778380879187F8
:102160008DE890E0938782870E94962C8DB79EB76A
:102170000C960FB6F8949EBF0FBE8DBFC7010E948C
:102180008F041F910F91FF90EF9008950F931F936D
:10219000282F462F0BE514E0C801622F0E94DB04B4
:1021A0008091FB050E947509C8010E948F041F9150
:1021B0000F910895CF92DF92EF92FF920F931F93AA
:1021C000CF93DF93282F462FCBE5D4E0CE01622FAB
:1021D0000E94DB046091FC057091FD058091FE0575
:1021E0009091FF050E94AE376B017C0120E030E446
:1021F0004CE156E40E940C37882314F58DB79EB746
:102200000C970FB6F8949EBF0FBE8DBFEDB7FEB70B
:102210003196ADB7BEB71296DC93CE93119786EE8A
:1022200091E09383828382E190E095838483C682E8
:10223000D782E086F1868DE890E09387828730C070
:102240008DB79EB70C970FB6F8949EBF0FBE8DBF8B
:102250000DB71EB70F5F1F4FADB7BEB71296DC9319
:10226000CE9311978EE092E0F8019383828382E10E
:1022700090E095838483C701B60120E030E04AE70F
:1022800054E40E941337D80116966D937D938D9375
:102290009C9319978DEF90E01B969C938E931A97C1
:1022A0000E94962CEDB7FEB73C960FB6F894FEBF91
:1022B0000FBEEDBF8BE594E00E948F04DF91CF91BC
:1022C0001F910F91FF90EF90DF90CF9008956F9244
:1022D0007F928F929F92AF92BF92CF92DF92EF92B6
:1022E000FF920F931F93CF93DF93282F462F8BE5F9
:1022F00094E0622F0E94DB04C0910006D091010699
:10230000D7FF02C00AE801C007EF80900206909054
:102310000306A0900406B090050680918404909175
:102320008504069708F05AC0C501B4010E947B37A6
:1023300016161706180619060CF050C0C09098041F
:10234000D0909904E0909A04F0909B04C701B601E4
:1023500020E030E040E050E00E940C3788230CF091
:102360003DC0809183048730C8F560916903709106
:102370006A0380916B0390916C032091A4043091C7
:10238000A5044091A6045091A7040E9445362091CF
:1023900094043091950440919604509197040E94C2
:1023A000E138A70196010E9413374B015C0120E838
:1023B0003FE443EC57E40E94D638181654F40F2E2D
:1023C000F0E88F2EFFE49F2EF3ECAF2EF7E4BF2E44
:1023D000F02DFEE77F2EEDE86E2E04C07BEF772E0A
:1023E0006CEF662EBE01882777FD8095982F0E949E
:1023F000AE376B017C010E947B374BE554E0202F08
:10240000332727FD30956051774280409040CCF1D2
:10241000EDB7FEB774970FB6F894FEBF0FBEEDBFD1
:102420000DB71EB70F5F1F4F5283418388E192E0C3
:10243000D80113969C938E93129715963C932E93E6
:102440001497C701B60120E030E04AE754E40E9447
:102450001337F80166837783808791878DEF90E04B
:102460009387828774861586D8011E968D929D92D9
:10247000AD92BC92519752966C92529753961C9281
:1024800027C08DB79EB744970FB6F8949EBF0FBE76
:102490008DBFEDB7FEB73196ADB7BEB712965C9360
:1024A0004E9311978CE292E0938382833583248349
:1024B000C682D782E086F1868DE890E09387828796
:1024C0007486158686869786A08AB18A628A138A60
:1024D0000E94962CEDB7FEB774960FB6F894FEBF27
:1024E0000FBEEDBF8BE594E00E948F04DF91CF918A
:1024F0001F910F91FF90EF90DF90CF90BF90AF9022
:102500009F908F907F906F9008950F931F93282F27
:10251000462F0BE514E0C801622F0E94DB048DB743
:102520009EB70C970FB6F8949EBF0FBE8DBFEDB748
:10253000FEB73196ADB7BEB712961C930E931197A6
:1025400080E492E09383828380917804909179046F
:10255000A0917A04B0917B0484839583A683B7838A
:1025600080918A0490918B04A0918C04B0918D0489
:1025700080879187A287B3870E94962C8DB79EB7DC
:102580000C960FB6F8949EBF0FBE8DBFC8010E9477
:102590008F041F910F9108950F931F93282F462F9B
:1025A0008BE594E0622F0E94DB0480918F04282F3A
:1025B00030E0823030F4A4E0220F331FAA95E1F717
:1025C00002C02150304000D000D000D0EDB7FEB79F
:1025D00031960BE514E0ADB7BEB712961C930E937F
:1025E000119780E091E093838283358324830E9456
:1025F000962C8DB79EB706960FB6F8949EBF0FBE69
:102600008DBFC8010E948F041F910F9108950F93F1
:102610001F93282F462F0BE514E0C801622F0E945C
:10262000DB048DB79EB708970FB6F8949EBF0FBE18
:102630008DBFEDB7FEB73196ADB7BEB712961C93FE
:102640000E9311978CE492E0938382838FE090E065
:102650009583848380918E04868317820E94962CB2
:102660008DB79EB708960FB6F8949EBF0FBE8DBF6C
:10267000C8010E948F041F910F910895EF92FF925D
:102680000F931F93282F462F8BE594E0622F0E9413
:10269000DB046091C2047091C3048091C4049091E2
:1026A000C50426E636E646E650E40E94E1380E947C
:1026B0007B37DC01CB0163EF75E04AE050E00E941C
:1026C000AE0380918104823058F160916D03709166
:1026D0006E0380916F039091700324EE38E34EE80F
:1026E0005FE30E9446369B01AC016091C204709189
:1026F000C3048091C4049091C5040E940C3718163D
:102700007CF00E94D73428EC30E040E050E00E949A
:102710004D3A20FF05C080E28093F3051092F40546
:102720008DB79EB742970FB6F8949EBF0FBE8DBF70
:102730000DB71EB70F5F1F4FBBE5EB2EB4E0FB2EAE
:10274000EDB7FEB7F282E18282E592E0F801938371
:10275000828388EE90E0958384836091EF05709189
:10276000F0058091F1059091F20526E636E646E601
:1027700050E40E94E138F80166837783808791876F
:1027800021E830E03387228789E890E095878487C5
:1027900083EF95E097878687318B208B0E94962C5C
:1027A0008DB79EB742960FB6F8949EBF0FBE8DBFF1
:1027B000C7010E948F041F910F91FF90EF90089521
:1027C0009F92AF92BF92CF92DF92EF92FF920F93C0
:1027D0001F93CF93DF93282F462FCBE5D4E0CE0174
:1027E000622F0E94DB04909083048EE0981621F003
:1027F0009CE0991609F008C16091BC047091BD0479
:102800008091BE049091BF042091B0043091B10436
:102810004091B2045091B3040E9445367B018C0173
:102820006091B8047091B9048091BA049091BB048E
:102830002091AC043091AD044091AE045091AF04AE
:102840000E9445365B016C01C801B701A8019701E0
:102850000E94E1387B018C01C601B501A6019501FA
:102860000E94E1389B01AC01C801B7010E944636C5
:102870000E9468395B016C01E0909404F09095042B
:102880000091960410919704C801B70120E030E050
:1028900040E050E00E94D63818161CF000E010E02E
:1028A00009C0C601B501A80197010E9413370E9413
:1028B00080378B01C601B50120E83FE443EC57E4C3
:1028C0000E94D638181654F40F2EF0E8AF2EFFE40D
:1028D000BF2EF3ECCF2EF7E4DF2EF02DE801A7E1B9
:1028E00000371A0710F0CFE6D7E18091B604909137
:1028F000B7048436910530F083E690E09093B704F6
:102900008093B604C601B50120E03CE34CE156E4F7
:102910000E94D63818163CF40DEFF02E2FE632E167
:1029200043E85AE306C01DE8F12E20E030E040E81D
:102930005FE3BCE09B1621F41092B7041092B6043A
:10294000EDB7FEB77A970FB6F894FEBF0FBEEDBF96
:102950000DB71EB70F5F1F4F8BE594E09283818305
:1029600084E692E0D80113969C938E93129783E1AC
:1029700090E015969C938E93149784E190E01796BF
:102980009C938E93169789E190E019969C938E9371
:102990001897C601B5010E94E138F8016287738774
:1029A000848795878F2D992787FD909597878687B0
:1029B0008091B6049091B704918B808B8AE190E06E
:1029C000938B828BCE016CE370E00E94263ACB01A0
:1029D0006CE370E00E943A3A958B848B8AE390E036
:1029E000978B868BCE016CE370E00E94263A918F24
:1029F000808F0E94962C8DB79EB74A960FB6F8949A
:102A00009EBF0FBE8DBF23C023E832E0ADB7BEB777
:102A100018970FB6F894BEBF0FBEADBFEDB7FEB7A7
:102A200031961296DC93CE9311978CE892E09383C3
:102A3000828335832483378326830E94962CEDB7C7
:102A4000FEB738960FB6F894FEBF0FBEEDBF8BE50C
:102A500094E00E948F04DF91CF911F910F91FF901E
:102A6000EF90DF90CF90BF90AF909F9008956F92BE
:102A70007F928F929F92AF92BF92CF92DF92EF920E
:102A8000FF920F931F93E0903C06F0903D0600915B
:102A90003E0610913F068FE590E0A0E0B0E0E80E22
:102AA000F91E0A1F1B1F0E94D7346E157F05800771
:102AB000910708F4F4C0209194043091950440915A
:102AC000960450919704E0909804F0909904009136
:102AD0009A0410919B04CA01B9010E94E1385B017C
:102AE0006C01C801B701A80197010E94E1389B0160
:102AF000AC01C601B5010E9446360E946839609358
:102B0000EF057093F0058093F1059093F20520E0B6
:102B100030E040E050E00E94D63818160CF0B5C006
:102B20000E94D73420913C0630913D0640913E06EC
:102B300050913F06621B730B840B950B0E94AC37C0
:102B40005B016C01E090EF05F090F0050091F1055C
:102B50001091F205209194043091950440919604CF
:102B6000509197040E94E13820E030E04AE754E4B5
:102B70000E9413379B01AC016091EB057091EC054D
:102B80008091ED059091EE050E9446366093EB052D
:102B90007093EC058093ED059093EE0580912E06E1
:102BA00090912F06892B09F464C0C801B701A601D2
:102BB00095010E94E13820E030E04AE754E40E94A9
:102BC00013373B014C0120E030E040E050E00E9430
:102BD000D63818160CF04DC06091020670910306AD
:102BE00080910406909105062DEC3CEC4CE45FE3EB
:102BF0000E94E1387B018C016091A0047091A104D6
:102C0000882777FD8095982F0E94AE3720919C04ED
:102C100030919D0440919E0450919F040E94E138A0
:102C2000A60195010E94E13820E030E041EE54E435
:102C30000E941337A40193010E9413379B01AC013A
:102C4000C801B7010E9446366093020670930306DE
:102C5000809304069093050620E03BE443EC57E4A0
:102C60000E94D63818168CF480E09BE4A3ECB7E4FD
:102C700004C080E090E0A0E0B0E080930206909372
:102C80000306A0930406B09305060E94D734609310
:102C90003C0670933D0680933E0690933F061F913D
:102CA0000F91FF90EF90DF90CF90BF90AF909F90EB
:102CB0008F907F906F900895EF92FF920F931F93E4
:102CC000CF93DF930E94D7342091090630910A06F2
:102CD00040910B0650910C062617370748075907F5
:102CE00008F029C10E94D7346C507E4F8F4F9F4F00
:102CF0006093090670930A0680930B0690930C0666
:102D00000BE514E0C8010E942505C80165E043E019
:102D10000E94DB0400D000D0EDB7FEB71283018320
:102D200086ED92E0948383830E94852C0F900F9010
:102D30000F900F908091D8059091D905892B31F093
:102D40008091060690910706892B81F48091860474
:102D5000909187049093D9058093D8058091880439
:102D60009091890490930706809306062091880429
:102D7000309189044091060650910706C901845696
:102D800090404817590724F4809108068F5F08C0C7
:102D90002C593F4F241735072CF480910806815099
:102DA0008093080680910806823014F482E003C004
:102DB00085301CF084E080930806809108068330FB
:102DC00039F0843009F45DC0823009F0B0C003C02E
:102DD000CAE0D0E002C0C4E6D0E000D000D09BE55D
:102DE000E92E94E0F92EEDB7FEB7F282E18287EC8E
:102DF00092E0948383830E94852C8DB79EB70897B9
:102E00000FB6F8949EBF0FBE8DBF0DB71EB70F5FF4
:102E10001F4FEDB7FEB7F282E18282E992E0F8013E
:102E2000938382836091630370916403882777FDA5
:102E30008095982F0E94AE37F8016483758386834E
:102E4000978382E890E09187808780E290E0938783
:102E500082870E94962C8DB79EB70C960FB6F89479
:102E60009EBF0FBE8DBF80916303909164036DEF91
:102E700073E0AE010E942F0A909364038093630372
:102E800056C000D000D08BE5E82E84E0F82EEDB7D8
:102E9000FEB7F282E18287EA92E0948383830E9404
:102EA000852C8DB79EB708970FB6F8949EBF0FBEBE
:102EB0008DBF0DB71EB70F5F1F4FEDB7FEB7F28284
:102EC000E1828AE992E0F801938382836091DE05D2
:102ED00070E0645D7E4F882777FD8095982F0E9473
:102EE000AE3720E030E048EC52E40E941337F8019E
:102EF000648375838683978386E790E091878087D4
:102F000080E290E0938782870E94962C8DB79EB7CF
:102F10000C960FB6F8949EBF0FBE8DBF8091DE0554
:102F200090E060E873E00E94040A8093DE058BE580
:102F300094E00E948F04DF91CF911F910F91FF9039
:102F4000EF9008952F923F924F925F926F927F92EF
:102F50008F929F92AF92BF92CF92DF92EF92FF92A9
:102F60000F931F93DF93CF93CDB7DEB768970FB65C
:102F7000F894DEBF0FBECDBF8D8B6E8B0E94D73411
:102F800020910D0630910E0640910F0650911006CB
:102F9000261737074807590708F01BC2809111060A
:102FA0008823C9F0809371031092110682EA92E09F
:102FB0009093200680931F060E94D734625A7E4F5A
:102FC0008F4F9F4F60930D0670930E0680930F06F0
:102FD00090931006B8C180917103282E3324D090AD
:102FE00081042091C0042C8B3091C1043B8BC09094
:102FF0008004E0901306F090140600911F061091D3
:1030000020066091EB057091EC058091ED059091A3
:10301000EE050E947B376F87788B898B9A8B809126
:10302000C2049091C304A091C404B091C5048B87DD
:103030009C87AD87BE8720916D0330916E034091D0
:103040006F03509170032F83388749875A873091D7
:103050008F043E83409112064D8340909C04509013
:103060009D0460909E0470909F048091DE0590E026
:10307000845D9E4F20915D0330915E03DC01A29F31
:10308000C001A39F900DB29F900D1124B091B40484
:10309000BC83E091B504EB832091000630910106DA
:1030A0003A832983388E2F8A4C01AA2497FCA09456
:1030B000BA2C4F89588D4F5F5F4F588F4F8B4930D7
:1030C00051052CF081E090E0988F8F8B26C0AF895E
:1030D000B88DA430B10509F46AC0A530B1055CF41F
:1030E000A230B105C9F1A330B1050CF054C011975D
:1030F00009F0ACC012C0EF89F88DE630F10509F493
:1031000076C0E630F1050CF468C0E730F10509F44B
:103110007AC0389709F09AC08EC0F1E0FD15A0F092
:10312000DF1619F40FEA12E015C02C89213049F49A
:103130003B89313031F442E04C1518F00CEB12E0D1
:1031400009C009EC12E006C05B89513009F47EC069
:1031500006ED12E081E081C081E08D1508F076C0B7
:103160002F85388949895A8923333105410551050D
:103170000CF46CC06B857C858D859E852F81388590
:1031800049855A850E940C3788230CF05FC003EEF6
:1031900012E082E062C03E81323008F057C04D81BB
:1031A000442309F453C000EF12E083E056C0C50188
:1031B000B4010E94AE3720E030E048EC52E40E94B7
:1031C00013379B01AC01C301B2010E940C37882365
:1031D000ECF50DEF12E084E040C051E0E516F1049B
:1031E000A9F50AE013E0EE24FF2485E036C08C81C7
:1031F0008C3A2CF09B81993648F5882339F107E108
:1032000013E086E02AC0A1E0AD1500F1AC15F0F4A2
:10321000B2E0CB1619F404E213E005C0E3E0CE16E9
:1032200021F401E313E087E018C0F4E0CF16D9F7EA
:103230000EE313E0F8CF21E02D1540F449815A81C7
:1032400057FF04C00BE413E088E007C08F89988D16
:103250008215930509F02DCFA1C0F0921406E092DB
:1032600013061093200600931F068093110681E039
:10327000809315060E94D73464547D4F8F4F9F4F23
:1032800060930D0670930E0680930F0690931006C0
:103290000E94D7346854744F8F4F9F4F60931B0622
:1032A00070931C0680931D0690931E06809116064F
:1032B00090911706A0911806B09119060097A105E4
:1032C000B10571F40E94D7346059784E8F4F9F4FEB
:1032D000609316067093170680931806909319064C
:1032E00080911A06882379F40E94D734209116061B
:1032F0003091170640911806509119062617370786
:103300004807590720F08BE594E00E9425050E94AC
:10331000D734209116063091170640911806509127
:103320001906261737074807590768F010921A063A
:103330000AC01092150610921606109217061092E7
:103340001806109219060BE514E0C8016D894E8924
:103350000E94DB0400D000D000D0EDB7FEB731965C
:10336000ADB7BEB712961C930E93119788E593E004
:103370009383828380911F06909120069583848396
:103380000E94962CEDB7FEB736960FB6F894FEBFA6
:103390000FBEEDBFC8010E948F041BC0F09214063F
:1033A000E09213061093200600931F061092110658
:1033B0000E94D73420911B0630911C0640911D06B7
:1033C00050911E06261737074807590708F4B1CF52
:1033D000BACF68960FB6F894DEBF0FBECDBFCF91BF
:1033E000DF911F910F91FF90EF90DF90CF90BF90F2
:1033F000AF909F908F907F906F905F904F903F9095
:103400002F90089520915B0330915C03C90189508E
:1034100097408F5A9440D0F580918104882321F4FD
:1034200081E0809321062EC080912106882351F5EA
:1034300080911506882311F10E94D7342091160639
:103440003091170640911806509119062617370734
:1034500048075907B8F40E94D73420910D063091DF
:103460000E0640910F0650911006261737074807A1
:10347000590740F480911106882321F48BE594E0EC
:103480000E94250582E080931A06089584E0203B7F
:10349000380768F480911A06882349F010922106B3
:1034A0008BE594E00E94250510921A060895205B92
:1034B00034402955324000F580911A068130E1F000
:1034C00080911506882379F00E94D7342091160642
:1034D00030911706409118065091190626173707A4
:1034E0004807590748F4109221068BE594E00E94A2
:1034F000250581E080931A060895EF92FF920F93BD
:103500001F9380912106882309F060C08091810477
:10351000823008F05BC080911206813009F056C0FD
:103520008091860490918704895097400CF44EC096
:103530008091880490918904805B94400CF046C08F
:103540008091780490917904A0917A04B0917B04E1
:103550008093220690932306A0932406B093250619
:1035600080918A0490918B04A0918C04B0918D0479
:103570008093260690932706A0932806B0932906E9
:103580008091900490919104A0919204B091930441
:103590008093F7059093F805A093F905B093FA0589
:1035A0008091A4049091A504A091A604B091A704D1
:1035B0008093690390936A03A0936B03B0936C03A9
:1035C00081E090E0909314068093130680912A0680
:1035D00090912B06A0912C06B0912D060097A10585
:1035E000B10509F04EC08091840490918504CD9777
:1035F00008F447C080918104823008F442C00E94E0
:10360000D73460932A0670932B0680932C069093F0
:103610002D0610922F0610922E068091A2049091F2
:10362000A304909331068093300680915F039091BC
:103630006003A0916103B091620380937203909341
:103640007303A0937403B093750380E090E0A0E04F
:10365000B0E08093EB059093EC05A093ED05B0935B
:10366000EE058091A4049091A504A091A604B091C8
:10367000A7048093690390936A03A0936B03B093AC
:103680006C0380912A0690912B06A0912C06B09194
:103690002D060097A105B10509F458C08091810459
:1036A000823038F10E94D73420912A0630912B06BF
:1036B00040912C0650912D06621B730B840B950BC9
:1036C00028EE33E040E050E00E944D3A3093DB05B5
:1036D0002093DA058091A2049091A30420913006F2
:1036E00030913106821B930B90932F0680932E0608
:1036F0004DC00E94D7347B018C016091DA05709136
:10370000DB05882777FD8095982F28E13CEF4FEF68
:103710005FEF0E94073AE60EF71E081F191FE0929E
:103720002A06F0922B0600932C0610932D0680910A
:10373000A2049091A30420912E0630912F06821BA3
:10374000930B909331068093300620C00E94D734AB
:1037500028EE33E040E050E00E944D3A3093DB0524
:103760002093DA0510922F0610922E0680915F03A7
:1037700090916003A0916103B09162038093720302
:1037800090937303A0937403B09375030E94021A7D
:1037900080912106882319F00E945C165EC28091F8
:1037A000D20380FF08C060912C0480912A0490E02D
:1037B00070E00E94A21780911A068230A8F08091D2
:1037C0001506882309F449C20E94D73420911606B1
:1037D00030911706409118065091190626173707A1
:1037E0004807590708F439C280911A0680933206B7
:1037F000823011F410921A0680911A06A82FB0E0B8
:10380000FD01E453FC4F808185FF0BC0FD01EC51AD
:10381000FC4F6081AE51BC4F8C9190E070E00E94F3
:10382000071380911A06A82FB0E0FD01E453FC4F66
:10383000808186FF0BC0FD01E851FC4F6081AA51D9
:10384000BC4F8C9190E070E00E94CC1280911A06DF
:10385000A82FB0E0FD01EE52FC4F808183FF0BC02A
:10386000FD01E05DFB4F6081A25DBB4F8C9190E05C
:1038700070E00E94C60E80911206882309F469C088
:1038800080911A06A82FB0E0FD01E453FC4F80811F
:1038900087FF0BC0FD01E451FC4F6081A651BC4F76
:1038A0008C9190E070E00E94851280911A06A82FFA
:1038B000B0E0FD01E253FC4F808184FF0BC0FD01AD
:1038C000E450FC4F6081A650BC4F8C9190E070E0BA
:1038D0000E94DA1080911A06A82FB0E0FD01E25391
:1038E000FC4F808183FF0BC0FD01E850FC4F6081DD
:1038F000AA50BC4F8C9190E070E00E94C61080915D
:103900001A06A82FB0E0FD01E253FC4F808185FF2D
:103910000BC0FD01E050FC4F6081A250BC4F8C9168
:1039200090E070E00E94E01380911A06A82FB0E0AA
:10393000FD01E253FC4F808186FF0BC0FD01EC5F6F
:10394000FB4F6081AE5FBB4F8C9190E070E00E94B6
:10395000671180911A06A82FB0E0FD01E053FC4FDB
:10396000808187FF0BC0FD01EC5EFB4F6081AE5E86
:10397000BB4F8C9190E070E00E94721080911A060B
:10398000A82FB0E0FD01E053FC4F808181FF0BC008
:10399000FD01E45EFB4F6081A65EBB4F8C9190E021
:1039A00070E00E943E1380911206882309F444C0FF
:1039B00080918F04823008F43FC080911A06A82FAE
:1039C000B0E0FD01EC52FC4F808182FF0BC0FD0195
:1039D000E85CFB4F6081AA5CBB4F8C9190E070E08B
:1039E0000E94330F80911A06A82FB0E0FD01E0532A
:1039F000FC4F808182FF0BC0FD01E05FFB4F6081C7
:103A0000A25FBB4F8C9190E070E00E940D108091FE
:103A10001A06A82FB0E0FD01E053FC4F808183FF20
:103A20000BC0FD01E85EFB4F6081AA5EBB4F8C912D
:103A300090E070E00E94BD0F80911206882321F073
:103A400080918F04823028F48091800481508330EB
:103A5000A8F480911A06A82FB0E0FD01E253FC4FB4
:103A6000808180FF0BC0FD01EC50FC4F6081AE50A7
:103A7000BC4F8C9190E070E00E94770E80911A0606
:103A8000A82FB0E0FD01EE52FC4F808186FF0FC0F1
:103A90008091B404882359F0FD01EC5CFB4F6081F8
:103AA000AE5CBB4F8C9190E070E00E94310E809133
:103AB0001A06A82FB0E0FD01E453FC4F808182FF7D
:103AC0000BC0FD01E452FC4F6081A652BC4F8C91AB
:103AD00090E070E00E94F80D80911A06A82FB0E0E7
:103AE000FD01E453FC4F808181FF0BC0FD01E852D2
:103AF000FC4F6081AA52BC4F8C9190E070E00E9414
:103B0000BF0D80911A06A82FB0E0FD01E053FC4FD5
:103B1000808184FF0BC0FD01E05EFB4F6081A25EEF
:103B2000BB4F8C9190E070E00E94820D80911A064C
:103B3000A82FB0E0FD01E053FC4F808185FF0BC052
:103B4000FD01EC5DFB4F6081AE5DBB4F8C9190E061
:103B500070E00E94E20C80911A06A82FB0E0FD01EF
:103B6000E453FC4F808183FF0BC0FD01E052FC4F0A
:103B70006081A252BC4F8C9190E070E00E946D0C6D
:103B800080911A06A82FB0E0FD01E053FC4F808120
:103B900080FF0BC0FD01E45FFB4F6081A65FBB4F60
:103BA0008C9190E070E00E941B0C80911A06A82F67
:103BB000B0E0FD01E453FC4F808184FF0BC0FD01A8
:103BC000E051FC4F6081A251BC4F8C9190E070E0BD
:103BD0000E94BE0B80911A06A82FB0E0FD01EC52A6
:103BE000FC4F808181FF0BC0FD01E45CFB4F6081D5
:103BF000A65CBB4F8C9190E070E00E947B0B8091A3
:103C00001A06A82FB0E0FD01E253FC4F808187FF28
:103C10000BC0FD01E85FFB4F6081AA5FBB4F8C9139
:103C200090E070E00E94080B80911A06A82FB0E087
:103C3000FD01E053FC4F808186FF0BC0FD01E85D74
:103C4000FB4F6081AA5DBB4F8C9190E070E00E94B9
:103C5000B00A8091320680931A061F910F91FF904F
:103C6000EF9008958BE594E00E9425050895CF9389
:103C7000DF93EC018BE594E00E94FA03C817D907A3
:103C80003CF08BE594E00E94EF03892B09F4239725
:103C9000CE01DF91CF910895FF920F931F9302E51C
:103CA00016E0C8016EE773E00E94473390E0A0E0A1
:103CB000B0E0BC01CD010E94AC3726E636E646E610
:103CC00050E40E94133760936D0370936E038093EA
:103CD0006F0390937003C80160E873E00E9447335C
:103CE0008093DE05C8016DEF73E00E944733F82E24
:103CF000C8016EEF73E00E944733382F20E02F0D8C
:103D0000311D30936403209363031F910F91FF9043
:103D10000895BC0182E596E00E9447330895EF9232
:103D2000FF920F931F93CF93DF9300911A0610E039
:103D30008AEF90E0089F7001099FF00C189FF00C2B
:103D40001124C70188569F4F0E94891EF801E45331
:103D5000FC4F882319F08081806102C080818F7EB2
:103D6000808380911A06C82FD0E0C70186569F4FE6
:103D70000E94891EC251DC4F888380911A06C82F89
:103D8000D0E0C70184569F4F0E94891E90E00E9498
:103D9000371EC051DC4F888300911A0610E0C7011E
:103DA00006960E94891EF801E453FC4F882319F0FF
:103DB0008081826002C080818D7F808380911A061D
:103DC000C82FD0E0C70108960E94891ECA52DC4F56
:103DD000888380911A06C82FD0E0C7010A960E94F6
:103DE000891E90E00E94371EC852DC4F88830091E4
:103DF0001A0610E0C7010C960E94891EF801E453D0
:103E0000FC4F882319F08081846002C080818B7F01
:103E1000808380911A06C82FD0E0C7010E960E94B9
:103E2000891EC652DC4F888380911A06C82FD0E0C5
:103E3000C70140960E94891E90E00E94371EC4521E
:103E4000DC4F888300911A0610E0C70142960E9459
:103E5000891EF801E453FC4F882319F080818860A3
:103E600002C08081877F808380911A06C82FD0E0AE
:103E7000C70144960E94891EC252DC4F88838091FC
:103E80001A06C82FD0E0C70146960E94891E90E00E
:103E90000E94371EC052DC4F888300911A0610E042
:103EA000C7014E960E94891EF801E453FC4F8823F7
:103EB00019F08081806202C080818F7D8083809133
:103EC0001A06C82FD0E0C70180960E94891ECE51E5
:103ED000DC4F888380911A06C82FD0E0C7018296F4
:103EE0000E94891E90E00E94371ECC51DC4F8883CF
:103EF00000911A0610E0C70184960E94891EF801FD
:103F0000E453FC4F882319F08081806402C08081D3
:103F10008F7B808380911A06C82FD0E0C7018696D8
:103F20000E94891ECA51DC4F888380911A06C82FCF
:103F3000D0E0C70188960E94891E90E00E94371E3B
:103F4000C851DC4F888300911A0610E0C7018A9699
:103F50000E94891EF801E453FC4F882319F08081E8
:103F6000806802C080818F77808380911A06C82F75
:103F7000D0E0C7018C960E94891EC651DC4F888311
:103F800080911A06C82FD0E0C7018E960E94891E24
:103F900090E00E94371EC451DC4F888300911A06BE
:103FA00010E0C701C0960E94891EF801E253FC4F41
:103FB000882319F08081816002C080818E7F808398
:103FC00080911A06C82FD0E0C701C2960E94891EB0
:103FD000CE50DC4F888380911A06C82FD0E0C701ED
:103FE000C4960E94891E90E00E94371ECC50DC4F80
:103FF000888300911A0610E0C701885B9F4F0E94DA
:10400000891EF801E253FC4F882319F080818061FA
:1040100002C080818F7E808380911A06C82FD0E0F5
:10402000C701865B9F4F0E94891EC650DC4F888364
:1040300080911A06C82FD0E0C701845B9F4F0E9471
:10404000891E90E00E94371EC450DC4F8883009187
:104050001A0610E0C7018E5B9F4F0E94891EF8016F
:10406000E253FC4F882319F08081886002C0808170
:10407000877F808380911A06C82FD0E0C7018C5BB0
:104080009F4F0E94891ECA50DC4F888380911A0678
:10409000C82FD0E0C7018A5B9F4F0E94891E90E025
:1040A0000E94371EC850DC4F888300911A0610E02A
:1040B000C701805B9F4F0E94891EF801E253FC4FAD
:1040C000882319F08081806202C080818F7D808387
:1040D00080911A06C82FD0E0C7018E5A9F4F0E94C8
:1040E000891EC250DC4F888380911A06C82FD0E009
:1040F000C7018C5A9F4F0E94891E90E00E94371E74
:10410000C050DC4F888300911A0610E0C7018A5A1C
:104110009F4F0E94891EF801E253FC4F882319F03B
:104120008081806402C080818F7B808380911A06A9
:10413000C82FD0E0C701885A9F4F0E94891ECE5FCA
:10414000DB4F888380911A06C82FD0E0C701865ABA
:104150009F4F0E94891E90E00E94371ECC5FDB4F6C
:10416000888300911A0610E0C70182569F4F0E9473
:10417000891EF801E253FC4F882319F08081806882
:1041800002C080818F77808380911A06C82FD0E08B
:10419000C70180569F4F0E94891ECA5FDB4F8883EC
:1041A00080911A06C82FD0E0C7018E559F4F0E94FC
:1041B000891E90E00E94371EC85FDB4F8883009104
:1041C0001A0610E0C7018E599F4F0E94891EF80100
:1041D000E053FC4F882319F08081816002C0808108
:1041E0008E7F808380911A06C82FD0E0C7018C593A
:1041F0009F4F0E94891EC65FDB4F888380911A06FD
:10420000C82FD0E0C7018A599F4F0E94891E90E0B5
:104210000E94371EC45FDB4F888300911A0610E0AE
:10422000C70182599F4F0E94891EF801E053FC4F3D
:10423000882319F08081846002C080818B7F808315
:1042400080911A06C82FD0E0C70180599F4F0E9465
:10425000891EC25FDB4F888380911A06C82FD0E089
:10426000C7018E589F4F0E94891E90E00E94371E02
:10427000C05FDB4F888300911A0610E0C7018457A6
:104280009F4F0E94891EF801E053FC4F882319F0CC
:104290008081806802C080818F77808380911A0638
:1042A000C82FD0E0C70182579F4F0E94891ECE5E63
:1042B000DB4F888380911A06C82FD0E0C701805752
:1042C0009F4F0E94891E90E00E94371ECC5EDB4FFC
:1042D000888300911A0610E0C7018E569F4F0E94F6
:1042E000891EF801E053FC4F882319F08081826019
:1042F00002C080818D7F808380911A06C82FD0E014
:10430000C7018C569F4F0E94891EC65EDB4F888373
:1043100080911A06C82FD0E0C7018A569F4F0E948D
:10432000891E90E00E94371EC45EDB4F8883009197
:104330001A0610E0C7018C589F4F0E94891EF80191
:10434000E053FC4F882319F08081886002C080818F
:10435000877F808380911A06C82FD0E0C7018A58D2
:104360009F4F0E94891ECA5EDB4F888380911A0688
:10437000C82FD0E0C70188589F4F0E94891E90E047
:104380000E94371EC85EDB4F888300911A0610E03A
:10439000C70186589F4F0E94891EF801E053FC4FC9
:1043A000882319F08081806102C080818F7E8083A4
:1043B00080911A06C82FD0E0C70184589F4F0E94F1
:1043C000891EC25EDB4F888380911A06C82FD0E019
:1043D000C70182589F4F0E94891E90E00E94371E9D
:1043E000C05EDB4F888300911A0610E0C701805839
:1043F0009F4F0E94891EF801E053FC4F882319F05B
:104400008081806202C080818F7D808380911A06C6
:10441000C82FD0E0C7018E579F4F0E94891ECE5DE6
:10442000DB4F888380911A06C82FD0E0C7018C57D4
:104430009F4F0E94891E90E00E94371ECC5DDB4F8B
:10444000888300911A0610E0C7018A579F4F0E9487
:10445000891EF801E053FC4F882319F080818064A5
:1044600002C080818F7B808380911A06C82FD0E0A4
:10447000C70188579F4F0E94891ECA5DDB4F888302
:1044800080911A06C82FD0E0C70186579F4F0E941F
:10449000891E90E00E94371EC85DDB4F8883009123
:1044A0001A0610E0C7018C559F4F0E94891EF80123
:1044B000EE52FC4F882319F08081816002C0808118
:1044C0008E7F808380911A06C82FD0E0C7018A555D
:1044D0009F4F0E94891EC65DDB4F888380911A061C
:1044E000C82FD0E0C70188559F4F0E94891E90E0D9
:1044F0000E94371EC45DDB4F888300911A0610E0CE
:10450000C7018A549F4F0E94891EF801EE52FC4F4A
:10451000882319F08081886002C08081877F808332
:1045200080911A06C82FD0E0C70188549F4F0E947F
:10453000891EC25DDB4F888380911A06C82FD0E0A8
:10454000C70186549F4F0E94891E90E00E94371E2B
:10455000C05DDB4F888300911A0610E0C701845AC2
:104560009F4F0E94891EF801EE52FC4F882319F0DC
:104570008081806402C080818F7B808380911A0655
:10458000C82FD0E0C701825A9F4F0E94891ECE5C7F
:10459000DB4F888380911A06C82FD0E0C701805A6C
:1045A0009F4F0E94891E90E00E94371ECC5CDB4F1B
:1045B000888300911A0610E0C70180529F4F0E9425
:1045C000891EF801EC52FC4F882319F08081846029
:1045D00002C080818B7F808380911A06C82FD0E033
:1045E000C7018E519F4F0E94891ECA5CDB4F888392
:1045F00080911A06C82FD0E0C7018C519F4F0E94AE
:10460000891E90E00E94371EC85CDB4F88830091B2
:104610001A0610E0C7018C529F4F0E94891EF801B4
:10462000EC52FC4F882319F08081826002C08081A7
:104630008D7F808380911A06C82FD0E0C7018A52EF
:104640009F4F0E94891EC65CDB4F888380911A06AB
:10465000C82FD0E0C70188529F4F0E94891E90E06A
:104660000E94371EC45CDB4F8883DF91CF911F917E
:104670000F91FF90EF9008954F925F927F928F92EB
:104680009F92AF92BF92CF92DF92EF92FF920F93E1
:104690001F93DF93CF93CDB7DEB7C854D0400FB68A
:1046A000F894DEBF0FBECDBF0BE514E0C8010E9439
:1046B0002505C80166E049E00E94DB0400D000D077
:1046C000EDB7FEB71283018381E093E09483838387
:1046D0000E94852C0F900F900F900F90C8010E94A0
:1046E0008F0400D000D00EE314E0EDB7FEB71283C4
:1046F000018381EF92E0948383830E94852C36EEC0
:10470000432E32E0532EEE24FF24CC24DD240F90E0
:104710000F900F900F90702E012F29E0A22EB12C38
:10472000AC0EBD1E4E010894811C911C8EE394E0DA
:104730000E94392D982F8D3031F08D30DCF180536F
:104740008230C0F530C01830A1F59981892F80538F
:10475000823078F5913311F490E801C090E08A81BD
:10476000813309F4905C8B81813309F4905E8C81F4
:10477000813309F4905F8D81813309F4985F8E81D4
:10478000813309F49C5F8F81813309F49E5F8885B2
:10479000813309F49F5FF501EE0DFF1D90830894AE
:1047A000E11CF11C06C0F401E10FF11D90831F5FB5
:1047B00001C010E0F0E4EF16F104C9F48BE594E0D9
:1047C000B601A5010E9408040894C11CD11C00D0A8
:1047D00000D0EDB7FEB771820283548243820E94FB
:1047E000852CEE24FF240F900F900F900F90FFEF79
:1047F000CF16D10409F00CF499CFC85BDF4F0FB688
:10480000F894DEBF0FBECDBFCF91DF911F910F9106
:10481000FF90EF90DF90CF90BF90AF909F908F90E0
:104820007F905F904F9008952F923F924F925F92AA
:104830006F927F928F929F92AF92BF92CF92DF92B0
:10484000EF92FF920F931F93DF93CF9300D000D08E
:1048500000D0CDB7DEB773E0872E912C8C0E9D1E55
:1048600062E0662E712C53E0452E512C45E0242E3B
:10487000312C72C40E94D73460527E4480409040F4
:10488000C8F40E94D734695873418040904090F03A
:104890001A3011F01D3031F48091D0058F5F809374
:1048A000D00502C01092D0058091D005833011F45C
:1048B0000E943C23812F66EC74E00E9461068823ED
:1048C00009F44AC48091CA049091CB04A091CC040D
:1048D000B091CD048A3BE7EC9E07E1E2AE07E4E746
:1048E000BE0709F47DC08B3BF7EC9F07F1E2AF07F1
:1048F000F4E7BF0708F03AC08E3729EA92072BE5A4
:10490000A20726E2B20709F4EBC08F37E9EA9E0757
:10491000EBE5AE07E6E2BE0780F48C39F1EB9F07CA
:10492000F5EAAF07FEE1BF0709F4CCC388529E4504
:10493000A24DB44209F010C4C6C0863AEEE09E070C
:10494000E2E1AE07E8E4BE0709F457C38835F6EBA9
:104950009F07FDEFAF07FAE4BF0709F48DC3825547
:104960009342A649B64209F0F7C395C18639E3EBF5
:104970009E07E3EDAE07ECEBBE0709F4AFC3873942
:10498000F3EB9F07F3EDAF07FCEBBF0780F4863432
:1049900023E0920722ECA20725E8B20709F4BBC383
:1049A0008E5F964BA942B54A09F0D6C3CDC0863872
:1049B000FBE39F07F0EAAF07F4ECBF0709F479C304
:1049C00088322FE9920720E0A20727ECB20709F40A
:1049D000B5C38C569846A344B24C09F0BDC34BC135
:1049E0000E94D73460936E0470936F0480937004B8
:1049F0009093710483E080936D0486EC94E060E111
:104A000070E00E94AA070E947B3770937304609342
:104A1000720486EC94E064E170E00E94AA070E94B0
:104A20007B37709375046093740486EC94E068E1BE
:104A300070E00E94AA070E947B378B017093770475
:104A400060937604609178047091790480917A047F
:104A500090917B0420E030E040E050E00E940C3771
:104A6000882331F0809180048150833008F0BEC3E8
:104A7000B801882777FD8095982F0E94AE377B017B
:104A80008C0160937C0470937D0480937E049093EA
:104A90007F0420E030E040E050E00E940C378823A3
:104AA0000CF0A4C3C801B70120E030E044EB53E4AC
:104AB0000E94463660937C0470937D0480937E044C
:104AC00090937F0493C38091D0048093810480915C
:104AD000D204809382048091D104809383043CC3E8
:104AE00086EC94E060E070E00E94AA0720E030E0ED
:104AF00048EC52E40E94E1380E947B3770938504B1
:104B000060938404693C710520F010928504109232
:104B100084048091EA049091EB049093870480933D
:104B200086048091EC049091ED0490938904809325
:104B300088048091F6049091F7049A838983909376
:104B40005C0380935B0308C36091D0047091D1042F
:104B50008091D2049091D3040E94AE3720E836E9C8
:104B600048E15BE40E941337609378047093790402
:104B700080937A0490937B046091D4047091D5045F
:104B80008091D6049091D704D4016C9311967C93B4
:104B9000119712968C93129713969C930E94AE379E
:104BA00020E836E948E15BE40E94133760938A0409
:104BB00070938B0480938C0490938D048091F50402
:104BC00080938E048091F40480938F0480918004FC
:104BD0008150833028F5609176047091770488279E
:104BE00077FD8095982F0E94AE377B018C016093F2
:104BF0007C0470937D0480937E0490937F0420E076
:104C000030E040E050E00E940C378823BCF4C8013B
:104C1000B70120E030E044EB53E40E94463606C082
:104C200086EC94E060E170E00E94AA0760937C0447
:104C300070937D0480937E0490937F0486EC94E0CF
:104C400068E070E00E94AA0760939004709391045A
:104C5000809392049093930486EC94E064E170E076
:104C60000E94AA076093940470939504809396041D
:104C70009093970471C286EC94E068E070E00E9423
:104C8000AA079058609398047093990480939A04AB
:104C900090939B0461C286EC94E060E070E00E9417
:104CA000AA0760939C0470939D0480939E04909344
:104CB0009F0486EC94E064E070E00E94AA0720E084
:104CC00030E048EC52E40E94E1380E947B37709358
:104CD000A1046093A00486EC94E064E170E00E947B
:104CE000AA070E947B377093A3046093A204E0900C
:104CF0009C04F0909D0400919E0410919F04C801B3
:104D0000B70126E636E64EEA51E40E94D638181678
:104D10003CF4E6E0F0E0F0935E03E0935D0355C001
:104D2000C801B7012AE939E94BE851E40E94D638B5
:104D300018165CF480915D0390915E0305972CF446
:104D400030925E0320925D0340C0C801B70123E3A7
:104D500033E343E551E40E94D63818166CF4809191
:104D60005D0390915E0304973CF484E090E090939F
:104D70005E0380935D0329C0C801B7012DEC3CECB4
:104D80004CE051E40E94D63818165CF480915D0323
:104D900090915E0303972CF450925E0340925D0362
:104DA00014C0C801B70120E030E040EA50E40E949E
:104DB000D638181654F480915D0390915E030297E3
:104DC00024F470925E0360925D0360915D037091C4
:104DD0005E03882777FD8095982F0E94AE379B0150
:104DE000AC01C801B7010E9413372CEF39EA4DE539
:104DF00050E40E94453627E834E149E053E40E943C
:104E0000E1380E948037E62FF0E0EA52FF4F6491CC
:104E100070E080E090E00E94AC377B018C01A090B4
:104E20005F03B0906003C0906103D0906203C6013D
:104E3000B50120E030E040E85FEB0E940C378823AA
:104E400049F4E0925F03F0926003009361031093D2
:104E5000620339C0C801B701A60195010E940C3751
:104E600018168CF0C801B7012DEC3CEC4CE45DE366
:104E70000E94E1387B018C01C601B50123E333E3D5
:104E800043E75FE310C0C801B7012AE939E949E9FE
:104E90005EE30E94E1387B018C01C601B50123E38A
:104EA00033E343E35FE30E94E1389B01AC01C801B7
:104EB000B7010E94463660935F037093600380934E
:104EC00061039093620360915F037091600380912E
:104ED00061039091620320E030E046EC52E40E94CE
:104EE000D638181664F480E090E0A6ECB2E4809323
:104EF0005F0390936003A0936103B093620360919A
:104F00005F0370916003809161039091620320E0E0
:104F100030E040E050E00E940C37882364F480E0E9
:104F200090E0A0E0B0E080935F0390936003A093D3
:104F30006103B09362036091A2047091A30480E0C6
:104F400090E00E94AC377B018C016091630370910B
:104F50006403882777FD8095982F0E94AE379B01C8
:104F6000AC01C801B7010E9413379B01AC0160E09E
:104F700070E080E89FE30E94453620E030E048EC96
:104F800052E40E94E1386093650370936603809356
:104F900067039093680320E030E046EC52E40E94FF
:104FA000D638181664F480E090E0A6ECB2E4809362
:104FB000650390936603A0936703B09368036091C1
:104FC000650370916603809167039091680320E008
:104FD00030E040E050E00E940C3788230CF0BCC069
:104FE00080E090E0A0E0B0E08093650390936603DA
:104FF000A0936703B0936803AFC086EC94E060E0D1
:1050000070E00E94AA070E947B37882777FD809571
:10501000982F0E94AE377B018C016093A40470939B
:10502000A5048093A6049093A704609169037091EE
:105030006A0380916B0390916C0320E03CE34CE1A8
:1050400056EC0E940C37882341F4E0926903F092F9
:105050006A0300936B0310936C0386EC94E064E0A6
:1050600070E00E94AA076093A8047093A90480933B
:10507000AA049093AB0470C086EC94E060E070E00A
:105080000E94AA076093AC047093AD048093AE04B1
:105090009093AF0486EC94E064E070E00E94AA076D
:1050A0006093B0047093B1048093B2049093B304FE
:1050B00053C080912A058093B4048091DE048093CC
:1050C000B5044AC08091D0049091D1049A83898319
:1050D00001969093B7048093B6043EC086EC94E0AA
:1050E0006CE070E00E94AA076093B8047093B90462
:1050F0008093BA049093BB0486EC94E060E170E086
:105100000E94AA076093BC047093BD048093BE0400
:105110009093BF0421C02091DA042093C0049091A1
:10512000DF049093C1048091DD048093800491306A
:1051300009F05CC0213009F059C00EC086EC94E043
:1051400060E070E00E94AA076093C2047093C304F9
:105150008093C4049093C5048EE394E00E94092DCB
:105160001816190654F58EE394E00E94392D182F75
:1051700080916D04882309F09DCB7CCB10926D0447
:10518000DD24D3948D2D90E026960FB6F894DEBFE3
:105190000FBECDBFCF91DF911F910F91FF90EF9088
:1051A000DF90CF90BF90AF909F908F907F906F9047
:1051B0005F904F903F902F900895DD24E0906E0413
:1051C000F0906F04009170041091710480E197E2F7
:1051D000A0E0B0E0E80EF91E0A1F1B1F0E94D734A2
:1051E000E616F7060807190748F2CCCFDD24D3945A
:1051F000E5CF86E061E00E94B835089586E061E081
:105200000E9479358EE394E040E051EE60E070E07A
:105210000E94A72C0E94F9288BE594E00E94640567
:105220000E94321E68EE73E080E090E00E94E53458
:105230000E944C1E10921A0607C00E948F1E809179
:105240001A068F5F80931A0680911A068230A8F39F
:1052500010921A068EE394E00E94862D68EB7BE0A4
:1052600080E090E00E94E5348BE594E00E94250503
:105270000E94D734609333067093340680933506CA
:105280009093360608952F923F924F925F926F92BD
:105290007F928F929F92AF92BF92CF92DF92EF92C6
:1052A000FF920F931F93DF93CF9300D000D0CDB721
:1052B000DEB780911206882309F438C2E0902206F6
:1052C000F09023060091240610912506C801B7012D
:1052D0009F7725E33AEF4EE85CE30E94E1380E94B5
:1052E000103769837A838B839C83C801B70120912F
:1052F00078043091790440917A0450917B040E94A3
:1053000045369F7720EC3BE649ED57E40E94E138B3
:105310005B016C016091260670912706809128063A
:105320009091290620918A0430918B0440918C043D
:1053300050918D040E9445369F7720EC3BE649ED65
:1053400057E40E94E13829813A814B815C810E94B7
:10535000E1387B018C01C601B501A60195010E94CF
:10536000E1385B016C01C801B701A80197010E94F7
:10537000E1389B01AC01C601B5010E9446360E948E
:1053800068390E947B376093D4057093D50580936C
:10539000D6059093D70580912E0690912F06892BE4
:1053A00009F4E9C06091DC057091DD0580E090E0D2
:1053B0000E94AC372DEC3CEC4CE45FE30E94E138FA
:1053C0003B014C016091630370916403882777FD72
:1053D0008095982F0E94AE372DEC3CEC4CE45FE3B7
:1053E0000E94E1387B018C016091A2047091A304BA
:1053F00080E090E00E94AC379B01AC01C801B7018E
:105400000E9445365B016C010E94D7347B018C0100
:1054100060912E0670912F0680E090E00E94AC37DC
:105420001B012C0180912A0690912B06A0912C063D
:10543000B0912D06E81AF90A0A0B1B0BC801B70137
:105440000E94AC37A20191010E9413379B01AC016D
:10545000C601B5010E94E13820E030E04AE754E49B
:105460000E9413372DEC3CEC4CE45EE30E94E138E3
:105470009B01AC01C401B3010E9446360E947B37F8
:105480007093DD056093DC056091A2047091A30424
:1054900080E090E00E94AC375B016C016091630397
:1054A00070916403882777FD8095982F0E94AE370E
:1054B0002DEC3CEC4CE45FE30E94E1387B018C0175
:1054C000C601B501A80197010E94D638181624F428
:1054D0001092DD051092DC058091DC059091DD05D0
:1054E0008057974130F08FE697E19093DD058093E8
:1054F000DC05C801B701A60195010E9445367B0174
:105500008C016091EB057091EC058091ED05909117
:10551000EE05A20191010E9413379B01AC01C80165
:10552000B7010E94E1387B018C016091D405709134
:10553000D5058091D6059091D7050E94AE379B0185
:10554000AC01C801B7010E94453620E030E040E0E0
:105550005FE30E94E1380E947B37709301066093FD
:105560000006615F784D7CF481EF98ED9093010621
:105570008093000608C01092DD051092DC051092A1
:105580000106109200066091900470919104809140
:105590009204909193042091F7053091F805409181
:1055A000F9055091FA050E9445365B016C01209186
:1055B000D4053091D5054091D6055091D705CA0143
:1055C000B9010E94073A0E94AE377B018C01C601E7
:1055D000B501A60195010E94E1389B01AC01C8010B
:1055E000B7010E9446360E9468390E947B3760935B
:1055F000FC057093FD058093FE059093FF05609177
:105600002206709123068091240690912506209110
:1056100078043091790440917A0450917B040E947F
:1056200045367B018C0160E070E080E89FE32981D2
:105630003A814B815C810E9413379B01AC01C80108
:10564000B7010E94E1387B018C01609126067091C0
:105650002706809128069091290620918A0430918E
:105660008B0440918C0450918D040E9445369B011F
:10567000AC015058C801B7010E94B93620EE3EE295
:1056800045E652E40E94E13820E030E044EB52E489
:105690000E9446360E947B379B01AC0197FF04C0F5
:1056A00028593E4F4F4F5F4FCA01B901645B7040AC
:1056B0008040904097FF06C0CA01B9016C547F4FEB
:1056C0008F4F9F4F0E94AE3720917C0430917D0414
:1056D00040917E0450917F040E9445360E947B37A2
:1056E00097FF04C068597E4F8F4F9F4F0E94AE377F
:1056F00020E030E044EB53E40E94133720E030E038
:1057000040E851E40E94E1380E94443920E030E052
:1057100040E85FE30E9446360E9480376093FB05B5
:10572000613108F47CC01092FB0579C080918F0430
:10573000823008F474C080918E04853008F46FC004
:10574000D0903706FDE1FD1508F469C0E0909004A3
:10575000F0909104009192041091930460913806A6
:105760007091390680913A0690913B06A801970105
:105770000E9445369F7720E030E040E05FE30E94E2
:10578000D63818165CF410923706E0923806F0927C
:10579000390600933A0610933B0641C08D2D8F5F6A
:1057A000809337068E31D9F58091780490917904F1
:1057B000A0917A04B0917B048093220690932306F3
:1057C000A0932406B093250680918A0490918B04BF
:1057D000A0918C04B0918D048093260690932706A7
:1057E000A0932806B0932906E092F705F092F805F9
:1057F0000093F9051093FA058091A4049091A504F3
:10580000A091A604B091A7048093690390936A03C2
:10581000A0936B03B0936C0381E0809312060F900A
:105820000F900F900F90CF91DF911F910F91FF90EC
:10583000EF90DF90CF90BF90AF909F908F907F9030
:105840006F905F904F903F902F9008950E94371572
:105850000E94C6078BE594E00E9443290E947D1AAE
:105860000895EF92FF920F931F930E941424892BA7
:10587000B9F4E0903306F0903406009135061091AB
:10588000360684E690E0A0E0B0E0E80EF91E0A1FBC
:105890001B1F0E94D734E616F7060807190760F4A5
:1058A0000E94D73460933306709334068093350694
:1058B000909336060E94262C1F910F91FF90EF9037
:1058C00008956EBD0DB407FEFDCF8EB508958DE031
:1058D00061E00E9479358BE061E00E9479358CE0CF
:1058E00060E00E9479358AE061E00E9479351CBC55
:1058F00080E58CBD8DB58EB5089580E496E00E945C
:10590000672C08958FEF9FE70895DF93CF93CDB76E
:10591000DEB7FE0139968D819E8161E04F81588509
:105920009F010E94262FCF91DF910895DF93CF939F
:10593000CDB7DEB7FE0139968D819E8160E04F8143
:1059400058859F010E94262FCF91DF9108950F93D4
:105950001F93DC01ED91FC910288F389E02D20E09A
:1059600030E000E010E009951F910F9108958F92AB
:10597000AF92CF92EF92FF920F931F93DF93CF934B
:10598000CDB7DEB7FC011382128288EE93E0A0E06F
:10599000B0E084839583A683B78386EB93E09183FD
:1059A00080835587448737872687118B008BF38A3E
:1059B000E28AC48AA58A868A70E0CB0123E0880F38
:1059C000991F2A95E1F79C012F5B394F308F278B68
:1059D000875B994F928F818F81E090E002C0880FA2
:1059E000991F6A95E2F720915106282B20935106C2
:1059F000CF0140E051EE60E070E00E94A72CCF9113
:105A0000DF911F910F91FF90EF90CF90AF908F900B
:105A10000895FC01838D882319F42FEF3FEF0DC00B
:105A20000788F08DE02D2081318182819381281BB0
:105A3000390B8481958128233923C9010895FC01FC
:105A4000838D882319F42FEF3FEF11C0018CF28D65
:105A5000E02D2081318182819381281B390B209593
:105A6000309584819581282339232F5F3F4FC901C9
:105A70000895FC01838D882361F0A789B08D2D9155
:105A80003C91119712968D919C9113972817390785
:105A900021F44FEF5FEFCA01089512968D919C910A
:105AA00013971696ED91FC911797E80FF91F408117
:105AB00012968D919C911397019614962D913C917D
:105AC00015978223932313969C938E93129750E0FD
:105AD000E2CFFC01838D882351F00788F08DE02D03
