:100000000C943B020C9463020C9463020C94630204
:100010000C9463020C9463020C9463020C946302CC
:100020000C9463020C9463020C9463020C946302BC
:100030000C9463020C9463020C9463020C946302AC
:100040000C9416340C9463020C9478050C94B4054B
:100050000C9463020C9463020C9463020C9463028C
:100060000C9463020C946302084AD73B3BCE016EAA
:1000700084BCBFFDC12F3D6C74319ABD56833DDAFF
:100080003D00C77F11BED9E4BB4C3E916BAAAABE0E
:10009000000000803F05A84CCDB2D44EB93836A937
:1000A000020C50B9918688083CA6AAAA2ABE000074
:1000B00000803F0664EC1B3C04BC163E3BE5B93CAB
:1000C000C93C37C29E5A3D660498083EEA69AAAA0E
:1000D0003E000000803F0000000000000000000023
:1000E000000002070A0C0D0E101214151617191A2B
:1000F0001B1E2126282A2B2D2F31333437393C3D26
:100100003E3F4041424446494A4B4C4D4E4F4F5072
:10011000515152525354545555565758595A5B5C85
:100120005C5D5D5E5F5F5F606060606061616161DA
:100130006161626262626262626300070E091C1B97
:100140001215383F363124232A2D70777E796C6B57
:100150006265484F464154535A5DE0E7EEE9FCFBC7
:10016000F2F5D8DFD6D1C4C3CACD90979E998C8BB7
:100170008285A8AFA6A1B4B3BABDC7C0C9CEDBDC27
:10018000D5D2FFF8F1F6E3E4EDEAB7B0B9BEABAC17
:10019000A5A28F88818693949D9A2720292E3B3C87
:1001A00035321F18111603040D0A5750595E4B4C77
:1001B00045426F68616673747D7A898E87809592F7
:1001C0009B9CB1B6BFB8ADAAA3A4F9FEF7F0E5E2D7
:1001D000EBECC1C6CFC8DDDAD3D4696E6760757247
:1001E0007B7C51565F584D4A4344191E1710050237
:1001F0000B0C21262F283D3A33344E4940475255A7
:100200005C5B7671787F6A6D64633E393037222596
:100210002C2B0601080F1A1D1413AEA9A0A7B2B506
:10022000BCBB9691989F8A8D8483DED9D0D7C2C5F6
:10023000CCCBE6E1E8EFFAFDF4F32020BF0020BFCD
:1002400000BF007C202020202020202020202020F3
:100250002020202020202000C82020202020202016
:100260002020202020C900C820202020202020205D
:1002700020202020C97C00D82020202020202020E1
:1002800020202020D97C00C82020202020202020D1
:1002900020202020C97C00C82020202020202020D1
:1002A00020202020C97C006D696E6F706F73642000
:1002B0006A646C20322E3531006C69706F20626187
:1002C00074742063656C6C7C7C7761726E696E6798
:1002D000206C6576656C3A200062617474206361FD
:1002E0007061636974793A003473206C69696F6E68
:1002F000006C69706F20202020006261747420748B
:100300007970653A20007365747570207363726547
:10031000656E7C7C7C0000407A10F35A00A0724E1F
:1003200018090010A5D4E80000E87648170000E49A
:100330000B54020000CA9A3B000000E1F5050000E2
:1003400080969800000040420F000000A086010047
:100350000000102700000000E80300000000640017
:10036000000000000A000000000001000000000082
:100370002C76D888DC674F0823DFC1DFAE59E1B1A6
:10038000B796E5E3E453C63AE651997696E8E6C2B5
:100390008426EB898C9B62ED407C6FFCEFBC9C9FBC
:1003A00040F2BAA56FA5F490055A2AF75C936B6CDE
:1003B000F9676DC11BFCE0E40D47FEF520E6B500D2
:1003C000D0ED902E0300943577050080841E080040
:1003D00000204E0A000000C80C333333330F986EF0
:1003E00012831141EF8D2114893BE65516CFFEE6AD
:1003F000DB18D1844B381BF77C1D901DA4BBE42473
:10040000203284725E228100C9F124ECA1E53D27EF
:100410006E616E00696E6600000000002400270017
:100420002A0000000000250028002B00000000002A
:100430002300260029000404040404040404020226
:100440000202020203030303030301020408102053
:10045000408001020408102001020408102000005E
:100460000007000201000003040600000000000075
:1004700000002407042C11241FBECFEFD8E0DEBFFC
:10048000CDBF13E0A0E0B1E0E2E3F4E702C00590E5
:100490000D92AC3CB107D9F716E0ACECB3E001C06B
:1004A0001D92A236B107E1F714E0C6E7D4E004C01C
:1004B0002297FE010E94133AC237D107C9F70E9462
:1004C00093350C94173A0C940000283008F027E07C
:1004D0003327DA01990F311D87FD91600096610580
:1004E000710539F432602E5F3D9330E32A95E1F7D0
:1004F00008959F3F30F080387105610509F03C5F39
:100500003C5F3D93913008F08068911DDF93CF935D
:100510001F930F93FF92EF92192F987F9695E92FD3
:1005200096959695E90FFF27E059FC4F99273327B9
:10053000EE24FF24A701E70105900894079428F40E
:10054000360FE71EF81E491F511D660F771F881FC3
:10055000991F0694A1F70590079428F4E70EF81E5A
:10056000491F561FC11D770F881F991F661F0694CC
:10057000A1F70590079428F4F80E491F561FC71FCE
:10058000D11D880F991F661F771F0694A1F705904C
:10059000079420F4490F561FC71FD81F990F661FD5
:1005A000771F881F0694A9F784911095177041F062
:1005B000D695C79557954795F794E7941A95C1F73F
:1005C000E6E1F3E068941590159135916591959168
:1005D00005907FE27395E118F10A430B560BC90BA6
:1005E000D009C0F7E10CF11E431F561FC91FD01DD3
:1005F0007EF4703311F48A95E6CFE894015030F020
:10060000080F0AF40027021708F4202F2395022F61
:100610007A3328F079E37D932A95E9F710C07D932A
:100620002A9589F6069497956795379517951794A7
:10063000E118F10A430B560BC90BD00998F023952A
:100640007E9173957A3308F070E37C932013B8F7AA
:100650007E9170617D9330F0839571E37D9370E3BB
:100660002A95E1F71124EF90FF900F911F91CF9100
:10067000DF91992787FD90950895FA01AA272830E0
:1006800051F1203181F1E8946F936E7F6E5F7F4F5F
:100690008F4F9F4FAF4FB1E03ED0B4E03CD0670FDB
:1006A000781F891F9A1FA11D680F791F8A1F911D2E
:1006B000A11D6A0F711D811D911DA11D20D009F47E
:1006C00068943F912AE0269F11243019305D3193C0
:1006D000DEF6CF010895462F4770405D4193B3E0A9
:1006E0000FD0C9F7F6CF462F4F70405D4A3318F050
:1006F000495D31FD4052419302D0A9F7EACFB4E001
:10070000A6959795879577956795BA95C9F70097B8
:100710006105710508959B01AC010A2E0694579559
:10072000479537952795BA95C9F7620F731F841FB0
:10073000951FA01D0895FC010590615070400110A7
:10074000D8F7809590958E0F9F1F0895FC016150FA
:10075000704001900110D8F7809590958E0F9F1FE3
:100760000895FB019F01E8944230C4F04532B4F48F
:100770004A3029F497FB1EF4909581959F4F642F82
:1007800077270E94AD39805D8A330CF0895D8193B3
:10079000CB010097A1F716F45DE251931082C901D5
:1007A0000C94D203DC01FC01672F71917723E1F7F0
:1007B000329704C07C916D9370836291AE17BF072E
:1007C000C8F30895FC011382128288EE93E0A0E042
:1007D000B0E084839583A683B78381E893E0918317
:1007E00080830895FC018089803419F421E030E091
:1007F00002C020E030E0C9010895FC01818990E049
:10080000089580E090E0089580E090E0089580E011
:1008100090E0089508951F93CF93DF93EC01162F76
:1008200086E060E00E943F3582E496E060E00E944E
:10083000E82B112319F0113059F404C082E496E03A
:10084000688904C068896C6182E496E00E94E82BA4
:1008500086E061E00E943F35DF91CF911F910895BE
:10086000EF92FF920F931F937C0102E416E0C80100
:1008700067E00E94E82BC8016FEF0E94E82B86E03A
:1008800061E00E943F35F70187858F5F87871F9161
:100890000F91FF90EF900895EF92FF920F931F93A7
:1008A000FC01E7848EE1E89E700111248685E80E44
:1008B000F11C86E060E00E943F3502E416E0C801CA
:1008C00064E00E94E82BC80163E00E94E82BC801A5
:1008D00065E00E94E82BC8016F2D0E94E82BC8013B
:1008E00066E00E94E82BC8016E2D0E94E82B1F9144
:1008F0000F91FF90EF900895FC016487458766870C
:1009000047870E944C0408951F93CF93DF93EC0117
:10091000162F6C3731F40E943004CE010E944C0433
:100920000AC082E496E067E00E94E82B82E496E049
:10093000612F0E94E82B81E090E0DF91CF911F9121
:100940000895EF92FF920F931F938EE1489F7001DD
:100950001124E60EF11C86E060E00E943F3502E4BF
:1009600016E0C80165E00E94E82BC8016F2D0E94C7
:10097000E82BC80166E00E94E82BC8016E2D0E949A
:10098000E82B1F910F91FF90EF9008950F931F9305
:1009900086E060E00E943F3502E416E0C80164E0B2
:1009A0000E94E82BC80164E00E94E82B61E070E03F
:1009B00080E090E00E946C3486E061E00E943F3568
:1009C0001F910F9108951F93CF93DF93EC01188A25
:1009D00016E0198B84E596E060E973E00E94CE3260
:1009E000813049F480E4888B88E0898B86E060E080
:1009F0000E943F3502C0188A198B86E060E00E9491
:100A00003F35DF91CF911F9108950F931F93CF939F
:100A1000DF93EC0186E061E00E94003582E060E057
:100A20000E94003582E061E00E943F35CE010E94C5
:100A3000E30486E060E00E943F3582E496E06CEEDD
:100A40000E94E82B82E496E06FEF0E94E82B182FBB
:100A500082E496E060E00E94E82B6889626082E4AC
:100A600096E00E94E82B62E370E080E090E00E9454
:100A70006C3482E496E06CE60E94E82B1F7E82E4F0
:100A800096E0612F0E94E82B8889803419F00DE0F0
:100A900010E002C000E110E01092CD031092CC03F0
:100AA00017C06091CC037091CD03605F82E496E043
:100AB0000E94E82B82E496E069E00E94E82B809196
:100AC000CC039091CD0301969093CD038093CC03FA
:100AD0008091CC039091CD038017910714F3CE0140
:100AE00061E00E940B04DF91CF911F910F91089557
:100AF0001F920F920FB60F9211242F933F934F9393
:100B00008F939F93EF93FF934091C60020914306EC
:100B1000309144062F5F3F4F8091470690914806E1
:100B200028233923809145069091460628173907D6
:100B300079F08091430690914406E0914906F09146
:100B40004A06E80FF91F408330934406209343067A
:100B5000FF91EF919F918F914F913F912F910F9026
:100B60000FBE0F901F9018951F920F920FB60F9205
:100B700011242F933F938F939F93EF93FF93209193
:100B80004D0630914E0680914B0690914C062817E9
:100B90003907E9F080914D0690914E06E09151069B
:100BA000F0915206E80FF91F80818093C600809172
:100BB0004D0690914E06019620914F0630915006B9
:100BC0008223932390934E0680934D0610C020916C
:100BD0004B0630914C0680914D0690914E06281799
:100BE000390729F48091C1008F7D8093C100FF9166
:100BF000EF919F918F913F912F910F900FBE0F908A
:100C00001F901895CF93DF93482FEB018091D50566
:100C1000833009F45FC0843028F48130D1F0823011
:100C200068F50AC0853009F4D4C0853008F4AAC03C
:100C3000863009F0F4C0EBC04C3309F0F0C081E01D
:100C40008093D5054883E6E7F1E0E491E093D4058D
:100C5000E6C0842F90E0E091D405F0E0E827F92782
:100C6000E65CFE4FE491E093D405887F9070809716
:100C700041F582E08093D505498329C0242F30E0D7
:100C8000E091D405F0E0E227F327E65CFE4FE49123
:100C9000E093D4058091D3058F5F8093D305823094
:100CA00018F43B832A83BBC0922F88272A813B817B
:100CB000820F931F9B838A830A978F3F910521F0B0
:100CC00018F01092D505ABC083E08093D505109243
:100CD000D305A5C0E42FF0E08091D40590E0E8278B
:100CE000F927E65CFE4FE491E093D4056091D305CB
:100CF0006F5F6093D305623089F0633020F4613018
:100D000009F08DC006C0633091F0643009F087C0EF
:100D100022C0842F90E0A0E0B0E018C0242F30E083
:100D200040E050E0542F432F322F222707C0242FBA
:100D300030E040E050E0A901332722278C819D81DB
:100D4000AE81BF81820F931FA41FB51F8C839D832B
:100D5000AE83BF8364C0242F30E040E050E0522FC8
:100D60004427332722278C819D81AE81BF81820F4A
:100D7000931FA41FB51F8C839D83AE83BF83609395
:100D8000D505A5CF242F30E0E091D405F0E0E2278F
:100D9000F327E65CFE4FE491E093D4056091D30520
:100DA0006F5F6093D305613019F06230C1F503C005
:100DB0003987288734C0922F882728853985280FBE
:100DC000391F398728878A819B810A97F1F085E04E
:100DD0007CCFE42FF0E08091D40590E0E827F9275C
:100DE000E65CFE4FE491E093D4052091D3052F5F9C
:100DF0002093D30530E0FB01E20FF31F41878A8186
:100E00009B810A972817390750F086E05ECFC75FAD
:100E1000DE4F4883C950D14087E08093D50580914B
:100E2000D505873069F41092D505C75FDE4F9091E4
:100E3000D4058881C950D140981711F48A8101C026
:100E400080E0DF91CF9108958F92AF92CF92EF9291
:100E5000FF920F931F9380E494E060E045EC50E034
:100E600024EC30E000EC10E0B1ECEB2EF12CCC24C3
:100E7000C394A8E9AA2EF0E28F2E0E943E2C8DE5A5
:100E800094E00E94E2031F910F91FF90EF90CF90AA
:100E9000AF908F900895DF93CF9300D000D0CDB75F
:100EA000DEB7FB01E80FF91F6285838594852585F0
:100EB00069838A839B832C83492F5C81782FCA01A5
:100EC0000F900F900F900F90CF91DF9108952F9278
:100ED0003F924F925F926F927F928F929F92AF92CA
:100EE000BF92CF92DF92EF92FF920F931F93DF9307
:100EF000CF9300D000D000D0CDB7DEB793E0892EDD
:100F0000912C8C0E9D1E82E0682E712C03E0402EE9
:100F1000512C15E0212E312C9CC40E945E3460526D
:100F20007E448040904098F40E945E34695873413A
:100F30008040904060F01A3011F01D3031F4809103
:100F4000D2058F5F8093D20502C01092D205812F07
:100F500068EC74E00E940206882309F47AC4809148
:100F6000CC049091CD04A091CE04B091CF048A3BE3
:100F7000E7EC9E07E1E2AE07E4E7BE0709F47DC0B7
:100F80008B3BF7EC9F07F1E2AF07F4E7BF0708F0F0
:100F90003AC08E3729EA92072BE5A20726E2B2076C
:100FA00009F4EBC08F37E9EA9E07EBE5AE07E6E20E
:100FB000BE0780F48C39F1EB9F07F5EAAF07FEE13D
:100FC000BF0709F4FCC388529E45A24DB44209F004
:100FD00040C4C6C0863AEEE09E07E2E1AE07E8E410
:100FE000BE0709F487C38835F6EB9F07FDEFAF070F
:100FF000FAE4BF0709F4BDC382559342A649B6423D
:1010000009F027C495C18639E3EB9E07E3EDAE07EF
:10101000ECEBBE0709F4DFC38739F3EB9F07F3ED71
:10102000AF07FCEBBF0780F4863423E0920722EC85
:10103000A20725E8B20709F4EBC38E5F964BA942DD
:10104000B54A09F006C4CDC08638FBE39F07F0EA35
:10105000AF07F4ECBF0709F4A9C388322FE9920760
:1010600020E0A20727ECB20709F4E5C38C569846A6
:10107000A344B24C09F0EDC34BC10E945E346093AF
:10108000700470937104809372049093730483E0EE
:1010900080936F0488EC94E060E170E00E944B075D
:1010A0000E940237709375046093740488EC94E096
:1010B00064E170E00E944B070E940237709377044E
:1010C0006093760488EC94E068E170E00E944B073E
:1010D0000E9402378B0170937904609378046091C9
:1010E0007A0470917B0480917C0490917D0420E0CF
:1010F00030E040E050E00E949336882331F0809148
:1011000082048150833008F0EEC3B801882777FD50
:101110008095982F0E9435377B018C0160937E0467
:1011200070937F04809380049093810420E030E0EA
:1011300040E050E00E94933688230CF0D4C3C801ED
:10114000B70120E030E044EB53E40E94CD356093DA
:101150007E0470937F048093800490938104C3C3C2
:101160008091D204809383048091D404809384047A
:101170008091D304809385046CC388EC94E060E094
:1011800070E00E944B0720E030E048EC52E40E94FF
:1011900068380E9402377093870460938604693C24
:1011A000710520F010928704109286048091EC045F
:1011B0009091ED0490938904809388048091EE04CB
:1011C0009091EF0490938B0480938A048091F804AB
:1011D0009091F9049A83898390935C0380935B03D5
:1011E00038C36091D2047091D3048091D40490915B
:1011F000D5040E94353720E836E948E15BE40E94D7
:101200009A3660937A0470937B0480937C04909365
:101210007D046091D6047091D7048091D804909198
:10122000D904D4016C9311967C93119712968C93E8
:10123000129713969C930E94353720E836E948E1CF
:101240005BE40E949A3660938C0470938D048093C3
:101250008E0490938F048091F70480939004809182
:10126000F60480939104809182048150833028F5A4
:101270006091780470917904882777FD8095982F84
:101280000E9435377B018C0160937E0470937F044C
:10129000809380049093810420E030E040E050E0AF
:1012A0000E9493368823BCF4C801B70120E030E0E7
:1012B00044EB53E40E94CD3506C088EC94E060E135
:1012C00070E00E944B0760937E0470937F048093CC
:1012D00080049093810488EC94E068E070E00E94C0
:1012E0004B076093920470939304809394049093BB
:1012F000950488EC94E064E170E00E944B076093F1
:101300009604709397048093980490939904A1C2D3
:1013100088EC94E068E070E00E944B07905860937E
:101320009A0470939B0480939C0490939D0491C2B3
:1013300088EC94E060E070E00E944B0760939E04AC
:1013400070939F048093A0049093A10488EC94E090
:1013500064E070E00E944B0720E030E048EC52E48B
:101360000E9468380E9402377093A3046093A2041D
:1013700088EC94E064E170E00E944B070E94023721
:101380007093A5046093A40480915D03882309F4FD
:1013900068C0E0909E04F0909F040091A00410911A
:1013A000A104C801B70126E636E64EEA51E40E94E0
:1013B0005D3818163CF4E6E0F0E0F0935F03E0934C
:1013C0005E0355C0C801B7012AE939E94BE851E489
:1013D0000E945D3818165CF480915E0390915F0363
:1013E00005972CF430925F0320925E0340C0C80141
:1013F000B70123E333E343E551E40E945D38181657
:1014000034F480915E0390915F03049754F1C80116
:10141000B7012DEC3CEC4CE051E40E945D3818160D
:101420005CF480915E0390915F0303972CF45092DB
:101430005F0340925E031BC0C801B70120E030E0AB
:1014400040EA50E40E945D3818168CF480915E03E7
:1014500090915F0302975CF470925F0360925E0369
:1014600006C084E090E090935F0380935E038091D8
:101470005D0320915E0330915F03882361F1B90120
:10148000882777FD8095982F0E9435379B01AC0106
:1014900060919E0470919F048091A0049091A1049A
:1014A0000E949A362CEF39EA4DE550E40E94CC3583
:1014B00027E834E149E053E40E9468380E94073786
:1014C000E62FF0E0EA52FF4F649170E080E090E098
:1014D0000E9433371FC0B901882777FD8095982F68
:1014E0000E9435379B01AC0160919E0470919F046E
:1014F0008091A0049091A1040E949A3620E030E0EF
:1015000040E450E40E94CC3528E63FE249EB52E447
:101510000E9468387B018C01A0906003B090610349
:10152000C0906203D0906303C601B50120E030E0B3
:1015300040E85FEB0E949336882349F4E092600311
:10154000F0926103009362031093630339C0C801F2
:10155000B701A60195010E94933618168CF0C801B8
:10156000B7012DEC3CEC4CE45DE30E9468387B0154
:101570008C01C601B50123E333E343E75FE310C009
:10158000C801B7012AE939E949E95EE30E946838F0
:101590007B018C01C601B50123E333E343E35FE341
:1015A0000E9468389B01AC01C801B7010E94CD358B
:1015B000609360037093610380936203909363036D
:1015C0006091600370916103809162039091630365
:1015D00020E030E046EC52E40E945D38181664F4D6
:1015E00080E090E0A6ECB2E4809360039093610306
:1015F000A0936203B09363036091600370916103F1
:10160000809162039091630320E030E040E050E07D
:101610000E949336882364F480E090E0A0E0B0E07C
:101620008093600390936103A0936203B09363037C
:101630006091A4047091A50480E090E00E9433378B
:101640007B018C016091640370916503882777FDAD
:101650008095982F0E9435379B01AC01C801B701D6
:101660000E949A369B01AC0160E070E080E89FE345
:101670000E94CC3520E030E048EC52E40E9468380B
:101680006093660370936703809368039093690384
:1016900020E030E046EC52E40E945D38181664F415
:1016A00080E090E0A6ECB2E4809366039093670339
:1016B000A0936803B0936903609166037091670318
:1016C000809168039091690320E030E040E050E0B1
:1016D0000E94933688230CF0BCC080E090E0A0E02C
:1016E000B0E08093660390936703A0936803B09380
:1016F0006903AFC088EC94E060E070E00E944B07A3
:101700000E940237882777FD8095982F0E943537F1
:101710007B018C016093A6047093A7048093A804B6
:101720009093A90460916A0370916B0380916C039C
:1017300090916D0320E03CE34CE156EC0E9493361F
:10174000882341F4E0926A03F0926B0300936C03E8
:1017500010936D0388EC94E064E070E00E944B0706
:101760006093AA047093AB048093AC049093AD048F
:1017700070C088EC94E060E070E00E944B076093DA
:10178000AE047093AF048093B0049093B10488ECDE
:1017900094E064E070E00E944B076093B2047093A1
:1017A000B3048093B4049093B50453C080912C0586
:1017B0008093B6048091E0048093B7044AC080917E
:1017C000D2049091D3049A83898301969093B904AB
:1017D0008093B8043EC088EC94E06CE070E00E9416
:1017E0004B076093BA047093BB048093BC0490933E
:1017F000BD0488EC94E060E170E00E944B076093C8
:10180000BE047093BF048093C0049093C10421C0B0
:101810002091DC042093C2049091E1049093C304CE
:101820008091DF0480938204913009F05CC0213004
:1018300009F059C00EC088EC94E060E070E00E94AE
:101840004B076093C4047093C5048093C6049093BF
:10185000C70480E494E00E94902C1816190654F5F1
:1018600080E494E00E94C02C182F80916F0488239C
:1018700009F06DCB52CB10926F04DD24D3948D2DE3
:1018800090E026960FB6F894DEBF0FBECDBFCF9185
:10189000DF911F910F91FF90EF90DF90CF90BF905D
:1018A000AF909F908F907F906F905F904F903F9000
:1018B0002F900895DD24E0907004F0907104009161
:1018C00072041091730480E197E2A0E0B0E0E80EAA
:1018D000F91E0A1F1B1F0E945E34E616F706080752
:1018E000190748F2CCCFDD24D394E5CF60917E0474
:1018F00070917F04809180049091810420E030E019
:1019000040E152E40E94683820E030E044EB53E4C8
:101910000E949A360E94CB380E9402379B012550C4
:10192000304037FF03C09B01215E3F4FA1EEB5E081
:10193000F901E157FC4F80818C932F5F3F4F243298
:10194000310514F020E030E0119685E0AC3EB80798
:1019500079F71C9208952F923F924F925F926F9267
:101960007F928F929F92AF92BF92CF92DF92EF922F
:10197000FF920F931F93DF93CF9300D000D000D03E
:10198000CDB7DEB7182F662E209174043091750400
:101990002A35310530F0C9018D549F4F89359105A5
:1019A000E8F437FF02C02D543F4FC90137FF03C091
:1019B000909581959F4F8A3191053CF034E4832EB8
:1019C000912C29ED222E312C1DC00A975CF19BE34E
:1019D000892E912C82ED282E312C20C02B353105FB
:1019E00014F0235B3040C90137FF03C09095819507
:1019F0009F4F8A31910554F006E5802E912CBCED65
:101A00002B2E312CA7E0AA2EB12C15C00A9754F02A
:101A1000FDE48F2E912CE4ED2E2E312C78E0A72EB4
:101A2000B12C09C065E0862E912C58E3252E312C6F
:101A300049E0A42EB12C6091760470917704882738
:101A400077FD8095982F0E94353727EA32E94BE2DF
:101A50005CEB0E9468380E943C3920E030E040EAAC
:101A600050E40E94683820E030E040E951E40E94F0
:101A700068380E94CB3820E030E044E352E40E9412
:101A8000CD350E940237712E3EEBC32E3FEFD32E91
:101A90009B01442737FD4095542F29833A834B837C
:101AA0005C832DE5422E24E0522E4AEF5FEF240E98
:101AB000351E6091740470917504882777FD8095B8
:101AC000982F0E94353725E33AEF4EE85CE30E94F9
:101AD00068380E943C397B018C01B601882777FD6C
:101AE0008095982F0E9435379B01AC01C801B70142
:101AF0000E9468387B018C0169817A818B819C818D
:101B00000E9435379B01AC01C801B7010E94CD3559
:101B10000E9402379B01CB0101978A35910508F09D
:101B200071C062E170E00E94C1398B012F5F3F4FAD
:101B3000AEEEBFEF6A9FC0016B9F900D7A9F900D34
:101B40001124820F931F62E070E00E94C1396D83FF
:101B50007E83E62CE01A4E2D4C5F8DE594E0672DD8
:101B60000E94A10400D000D000D0EDB7FEB731969E
:101B7000ADB7BEB712965C924E92119720E031E05D
:101B8000338322838D819E81880D991D9583848363
:101B90000E941D2C4DB75EB74A5F5F4F0FB6F89499
:101BA0005EBF0FBE4DBF8D819E818A159B0554F18E
:101BB000043011053CF593E0E90EC201672D4E2D6E
:101BC0000E94A10400D000D000D0EDB7FEB731963E
:101BD000ADB7BEB712965C924E92119720E031E0FD
:101BE000338322834D815E81420D531D558344838F
:101BF0000E941D2C8DB79EB706960FB6F8949EBF17
:101C00000FBE8DBFACE0B0E0CA0EDB1E7394BEE425
:101C1000CB16D10409F04DCF26960FB6F894DEBF4F
:101C20000FBECDBFCF91DF911F910F91FF90EF902D
:101C3000DF90CF90BF90AF909F908F907F906F90EC
:101C40005F904F903F902F900895CF92DF92EF9248
:101C5000FF920F931F93823010F402E002C0082F0E
:101C6000000F6091D6057091D7058091D8059091AD
:101C7000D9050E9435376B017C0120E030E44CE14E
:101C800056E40E949336202F30E04DE554E088233F
:101C900034F58DB79EB70E970FB6F8949EBF0FBE62
:101CA0008DBFEDB7FEB73196ADB7BEB712965C9358
:101CB0004E93119783E091E09383828322573F4FA5
:101CC000358324832F5F3F4F37832683C086D18699
:101CD000E286F3868DE890E09587848734C08DB7DF
:101CE0009EB70E970FB6F8949EBF0FBE8DBF0DB76F
:101CF0001EB70F5F1F4FADB7BEB712965C934E93E2
:101D000011978FE091E0F8019383828322573F4F30
:101D1000358324832F5F3F4F37832683C701B60166
:101D200020E030E04AE754E40E949A36D801189641
:101D30006D937D938D939C931B978DEF90E01D96F3
:101D40009C938E931C970E941D2CEDB7FEB73E9678
:101D50000FB6F894FEBF0FBEEDBF1F910F91FF901D
:101D6000EF90DF90CF900895CF93DF93AC01E09197
:101D70008804F09189042091DA053091DB05C901CE
:101D80008C599F4F8E179F071CF4EA01219609C0BA
:101D900024563040E217F30714F0EA0102C0EA01CA
:101DA0002197842F90E0C817D90729F084E596E0A1
:101DB0004C2F0E94D532CE01DF91CF910895CF9262
:101DC000DF92EF92FF920F931F93CF93DF937C01EB
:101DD0006B01EA0100D000D00DE514E0EDB7FEB7CD
:101DE0001283018383E492E0948383830E940C2C0A
:101DF0000F900F900F900F90CA30D10581F0C4362C
:101E0000D10521F0C130D10519F512C000D000D0A4
:101E1000EDB7FEB71283018381E492E011C000D0D8
:101E200000D0EDB7FEB7128301838EE392E008C0C5
:101E300000D000D0EDB7FEB7128301838AE392E0B1
:101E4000948383830E940C2C0F900F900F900F901F
:101E500040918804509189042091DA053091DB0586
:101E6000C9018C599F4F841795071CF4CE0DDF1DB7
:101E70000BC0245630404217530714F0E70116C038
:101E8000C7018C1B9D0BEC01CE15DF0579F084E5B5
:101E900096E0B6014C2F0E94D5320894C11CD11C8B
:101EA00084E596E0B6014D2F0E94D532CE01DF9138
:101EB000CF911F910F91FF90EF90DF90CF900895F9
:101EC000CF92DF92EF92FF920F931F937C01D62E59
:101ED000C72E0DE514E0C8016E2D4D2D0E947C0427
:101EE00000D000D0EDB7FEB71283018387E992E0FE
:101EF000948383830E940C2CEDB7FEB71283018379
:101F000087E892E0948383830E940C2CEDB7FEB7A0
:101F10001283018387E792E0948383830E940C2CD1
:101F2000EDB7FEB71283018387E692E09483838343
:101F30000E940C2CEDB7FEB71283018388E592E076
:101F4000948383830E940C2C0F900F900F900F901E
:101F5000C8010E943004C70101966D2D7C2D0E949E
:101F6000AB0C1F910F91FF90EF90DF90CF900895F1
:101F7000CF92DF92EF92FF920F931F93282F462F5D
:101F80000DE514E0C801622F0E947C04E090DC059E
:101F9000F090DD05C090DE05D090DF058DB79EB7CF
:101FA00044970FB6F8949EBF0FBE8DBFEDB7FEB736
:101FB0003196ADB7BEB712961C930E9311978BE175
:101FC00091E09383828383EB90E095838483C701C0
:101FD0006CE370E00E94C139CB016CE370E00E94B9
:101FE000C139978386832AE330E031872087C70190
:101FF0006CE370E00E94C1399387828789EF90E09B
:1020000095878487C6016CE370E00E94AD39CB01EF
:102010006CE370E00E94C13997878687318B208BF3
:10202000C6016CE370E00E94AD39938B828B0E94F5
:102030001D2C8DB79EB744960FB6F8949EBF0FBE69
:102040008DBFC8010E9430041F910F91FF90EF9047
:10205000DF90CF9008950F931F93282F462F0DE503
:1020600014E0C801622F0E947C048DB79EB70C97C4
:102070000FB6F8949EBF0FBE8DBFEDB7FEB7319679
:10208000ADB7BEB712961C930E93119783E391E000
:102090009383828383EE90E0958384838091AA0466
:1020A0009091AB04A091AC04B091AD04868397836A
:1020B000A087B18780EB90E0938782870E941D2CD8
:1020C0008DB79EB70C960FB6F8949EBF0FBE8DBF0E
:1020D000C8010E9430041F910F9108950F931F9320
:1020E000282F462F0DE514E0C801622F0E947C04C2
:1020F0008DB79EB746970FB6F8949EBF0FBE8DBFA3
:10210000EDB7FEB73196ADB7BEB712961C930E93DE
:1021100011978DE391E09383828389EB90E095831F
:1021200084838091A4049091A5049783868382E898
:1021300090E09187808787EB90E0938782878091FA
:10214000600390916103A0916203B091630384875F
:102150009587A687B78786EB90E0918B808B8091DF
:10216000660390916703A0916803B0916903828B25
:10217000938BA48BB58B0E941D2C8DB79EB7469672
:102180000FB6F8949EBF0FBE8DBFC8010E943004E9
:102190001F910F910895EF92FF920F931F93282F95
:1021A000462F5DE5E52E54E0F52EC701622F0E9413
:1021B0007C048DB79EB70C970FB6F8949EBF0FBEE8
:1021C0008DBF0DB71EB70F5F1F4FEDB7FEB7F28281
:1021D000E18285E591E0F8019383828384EE90E0CB
:1021E000958384836091A2047091A304882777FD6E
:1021F0008095982F0E9435372AE037ED43E25CE363
:102200000E946838F80166837783808791878FE81A
:1022100090E0938782870E941D2C8DB79EB70C9605
:102220000FB6F8949EBF0FBE8DBFC7010E94300449
:102230001F910F91FF90EF900895CF92DF92EF9250
:10224000FF920F931F93282F462F8DE594E0622F66
:102250000E947C04C0909E04D0909F04E090A00453
:10226000F090A10480915D032091E005829FC00160
:102270001124805D9E4F20915E0330915F03829F09
:10228000B001839F700D929F700D1124882777FDF8
:102290008095982F0E94353720E030E048EC52E4DA
:1022A0000E949A369B01AC01C701B6010E94933689
:1022B000181614F428EB01C024EB8DB79EB70C97C9
:1022C0000FB6F8949EBF0FBE8DBFEDB7FEB7319627
:1022D0000DE514E0ADB7BEB712961C930E9311979F
:1022E00085E591E093838283822F992787FD9095DE
:1022F00095838483C682D782E086F1868EE890E05B
:10230000938782870E941D2C8DB79EB70C960FB6BF
:10231000F8949EBF0FBE8DBFC8010E9430041F916C
:102320000F91FF90EF90DF90CF9008950F931F9340
:10233000282F462F8DE594E0622F0E947C04809127
:102340008504882319F42FE531E057C0813019F452
:1023500023E631E052C0823019F427E631E04DC067
:10236000833019F42BE631E048C0843019F42FE6AD
:1023700031E043C0853019F423E731E03EC08630B8
:1023800019F427E731E039C0873019F42BE731E041
:1023900034C0883019F42FE731E02FC0893019F4A8
:1023A00023E831E02AC08A3019F427E831E025C05B
:1023B0008B3019F42BE831E020C08C3019F42FE871
:1023C00031E01BC08D3019F423E931E016C08E30A6
:1023D00019F427E931E011C08F3019F42BE931E00D
:1023E0000CC0803119F42FE931E007C0813119F0B8
:1023F00023EA31E002C024EA31E08150863030F433
:1024000080918404882311F044E001C040EE8DB730
:102410009EB708970FB6F8949EBF0FBE8DBFEDB75D
:10242000FEB731960DE514E0ADB7BEB712961C931A
:102430000E93119788EA91E093838283842F9927E2
:1024400087FD909595838483378326830E941D2C76
:102450008DB79EB708960FB6F8949EBF0FBE8DBF7E
:10246000C8010E9430041F910F9108950F931F938C
:10247000282F462F0DE514E0C801622F0E947C042E
:102480008DB79EB70A970FB6F8949EBF0FBE8DBF4B
:10249000EDB7FEB73196ADB7BEB712961C930E934B
:1024A00011978DEA91E09383828387E890E095838A
:1024B000848380918604909187049783868385E244
:1024C00090E0918780870E941D2C8DB79EB70A9659
:1024D0000FB6F8949EBF0FBE8DBFC8010E94300496
:1024E0001F910F9108950F931F93282F462F0DE5ED
:1024F00014E0C801622F0E947C048DB79EB7089734
:102500000FB6F8949EBF0FBE8DBFEDB7FEB73196E4
:10251000ADB7BEB712961C930E93119787EB91E05F
:10252000938382838091760490917704958384834A
:1025300081EB90E0978386830E941D2C8DB79EB718
:1025400008960FB6F8949EBF0FBE8DBFC8010E94BB
:1025500030041F910F9108950F931F93282F462F3A
:102560000DE514E0C801622F0E947C048DB79EB770
:1025700008970FB6F8949EBF0FBE8DBFEDB7FEB79C
:102580003196ADB7BEB712961C930E93119787EB99
:1025900091E0938382838091740490917504958374
:1025A000848382EB90E0978386830E941D2C8DB7F5
:1025B0009EB708960FB6F8949EBF0FBE8DBFC80198
:1025C0000E9430041F910F9108950F931F93282F9D
:1025D000462F0DE514E0C801622F0E947C048DB7E0
:1025E0009EB70E970FB6F8949EBF0FBE8DBFEDB786
:1025F000FEB73196ADB7BEB712961C930E931197E6
:102600008DEB91E09383828381EE90E095838483C8
:102610008091B604992787FD9095978386838CE8EF
:1026200090E0918780878091B704828713868BE83A
:1026300090E0958784870E941D2C8DB79EB70E96DB
:102640000FB6F8949EBF0FBE8DBFC8010E94300424
:102650001F910F9108950F931F93282F462F0DE57B
:1026600014E0C801622F0E947C048DB79EB7429788
:102670000FB6F8949EBF0FBE8DBFEDB7FEB7319673
:10268000ADB7BEB712961C930E9311978BEC91E0E9
:10269000938382838CED91E09583848380917E0483
:1026A00090917F04A0918004B091810486839783E8
:1026B000A087B18780EB90E09387828780ED90E0E0
:1026C0009587848781EE95E09787868781ED90E0F6
:1026D000918B808B0E941D2C8DB79EB742960FB6B2
:1026E000F8949EBF0FBE8DBFC8010E9430041F9199
:1026F0000F910895EF92FF920F931F93CF93DF9363
:10270000282F462F8DE594E0622F0E947C04E090F4
:102710009A04F0909B0400919C0410919D04C801C0
:10272000B70120E030E040E050E00E945D3818162C
:1027300014F42BE701C02DE78DB79EB70C970FB6A9
:10274000F8949EBF0FBE8DBFCDB7DEB721968DE545
:1027500094E0EDB7FEB79283818386EE91E09B8390
:102760008A832C831D82C801B70120E030E040E756
:1027700052E40E9468380E9402379B0177FF03C031
:10278000309521953F4FB901882777FD8095982F87
:102790000E9435376E837F83888799878FE790E023
:1027A0009B878A870E941D2C8DB79EB70C960FB60B
:1027B000F8949EBF0FBE8DBF8DE594E00E9430045B
:1027C000DF91CF911F910F91FF90EF900895CF92DD
:1027D000DF92EF92FF920F931F93CF93DF93282FF7
:1027E000462FCDE5D4E0CE01622F0E947C04C0903C
:1027F000ED05D090EE05E090EF05F090F005C701F3
:10280000B6010E940237695E7340804090408CF1AF
:102810008DB79EB70C970FB6F8949EBF0FBE8DBFB5
:102820000DB71EB70F5F1F4FADB7BEB71296DC9343
:10283000CE93119785E591E0F801938382838EEF23
:1028400090E095838483C701B60120E030E04AE739
:1028500054E40E949A36D80116966D937D938D9319
:102860009C9319978DEF90E01B969C938E931A97EB
:1028700021C08DB79EB70C970FB6F8949EBF0FBEC0
:102880008DBFEDB7FEB73196ADB7BEB71296DC93EC
:10289000CE93119780EF91E0938382838EEF90E047
:1028A00095838483C682D782E086F1868DE890E0A6
:1028B000938782870E941D2CEDB7FEB73C960FB61A
:1028C000F894FEBF0FBEEDBF8DE594E00E9430048A
:1028D000DF91CF911F910F91FF90EF90DF90CF90FC
:1028E0000895EF92FF920F931F93282F462F6DE5C7
:1028F000E62E64E0F62EC701622F0E947C048DB79D
:102900009EB70C970FB6F8949EBF0FBE8DBF0DB744
:102910001EB70F5F1F4FEDB7FEB7F282E18283E370
:1029200091E0F8019383828389EE90E0958384831C
:102930006091960470919704809198049091990405
:1029400026E636E646E650E40E946838F8016683DB
:1029500077838087918781E890E0938782870E94C0
:102960001D2C8DB79EB70C960FB6F8949EBF0FBE68
:102970008DBFC7010E9430041F910F91FF90EF900F
:102980000895CF92DF92EF92FF920F931F93282F1B
:10299000462FBDE5CB2EB4E0DB2EC601622F0E9490
:1029A0007C046091920470919304809194049091BE
:1029B00095042DB73EB7245130400FB6F8943EBF72
:1029C0000FBE2DBF0DB71EB70F5F1F4FEDB7FEB780
:1029D000D282C1822AEF31E0F8013383228325E8D5
:1029E00030E0358324836683778380879187ADE8E1
:1029F000EA2EF12CF386E28627EE30E03587248735
:102A00002091F9053091FA054091FB055091FC05A4
:102A10000E94CC35F80166877787808B918BF38A8B
:102A2000E28A0E941D2C2DB73EB72C5E3F4F0FB699
:102A3000F8943EBF0FBE2DBFC6010E9430041F9107
:102A40000F91FF90EF90DF90CF900895EF92FF925B
:102A50000F931F93282F462F1DE5E12E14E0F12E32
:102A6000C701622F0E947C048DB79EB70C970FB6EA
:102A7000F8949EBF0FBE8DBF0DB71EB70F5F1F4FDF
:102A8000EDB7FEB7F282E18286EE91E0F801938322
:102A9000828386EE90E0958384836091A604709192
:102AA000A7048091A8049091A90420916A03309111
:102AB0006B0340916C0350916D030E94CC35F8017B
:102AC00066837783808791878DE890E093878287FC
:102AD0000E941D2C8DB79EB70C960FB6F8949EBF22
:102AE0000FBE8DBFC7010E9430041F910F91FF9050
:102AF000EF9008950F931F93282F462F0DE514E0B4
:102B0000C801622F0E947C048091FD050E94250E61
:102B1000C8010E9430041F910F910895CF92DF9257
:102B2000EF92FF920F931F93CF93DF93282F462F9F
:102B3000CDE5D4E0CE01622F0E947C046091FE05B9
:102B40007091FF0580910006909101060E94353733
:102B50006B017C0120E030E44CE156E40E949336A6
:102B6000882314F58DB79EB70C970FB6F8949EBFC7
:102B70000FBE8DBFEDB7FEB73196ADB7BEB712969B
:102B8000DC93CE93119786EE91E09383828382E16A
:102B900090E095838483C682D782E086F1868DE8B3
:102BA00090E09387828730C08DB79EB70C970FB6A1
:102BB000F8949EBF0FBE8DBF0DB71EB70F5F1F4F9E
:102BC000ADB7BEB71296DC93CE9311978EE092E02C
:102BD000F8019383828382E190E095838483C70127
:102BE000B60120E030E04AE754E40E949A36D8016A
:102BF00016966D937D938D939C9319978DEF90E02E
:102C00001B969C938E931A970E941D2CEDB7FEB7CE
:102C10003C960FB6F894FEBF0FBEEDBF8DE594E075
:102C20000E943004DF91CF911F910F91FF90EF90A0
:102C3000DF90CF9008956F927F928F929F92AF9284
:102C4000BF92CF92DF92EF92FF920F931F93CF9399
:102C5000DF93282F462F8DE594E0622F0E947C049D
:102C6000C0910206D0910306D7FF02C00AE801C056
:102C700007EF8090040690900506A0900606B0909D
:102C800007068091860490918704069708F05AC041
:102C9000C501B4010E940237161617061806190658
:102CA0000CF050C0C0909A04D0909B04E0909C041B
:102CB000F0909D04C701B60120E030E040E050E014
:102CC0000E94933688230CF03DC0809185048730A4
:102CD000C8F560916A0370916B0380916C039091C9
:102CE0006D032091A6043091A7044091A80450914F
:102CF000A9040E94CC35209196043091970440910C
:102D00009804509199040E946838A70196010E9486
:102D10009A364B015C0120E83FE443EC57E40E9403
:102D20005D38181654F40F2EF0E88F2EFFE49F2E16
:102D3000F3ECAF2EF7E4BF2EF02D3EE7732E2DE817
:102D4000622E04C09BEF792E8CEF682EBE0188277F
:102D500077FD8095982F0E9435376B017C010E948A
:102D600002374DE554E0202F332727FD3095605181
:102D7000774280409040CCF1EDB7FEB774970FB624
:102D8000F894FEBF0FBEEDBF0DB71EB70F5F1F4F0C
:102D90005283418388E192E0D80113969C938E93ED
:102DA000129715963C932E931497C701B60120E015
:102DB00030E04AE754E40E949A36F801668377834C
:102DC000808791878DEF90E0938782877486158640
:102DD000D8011E968D929D92AD92BC9251975296BB
:102DE0006C92529753961C9227C08DB79EB744970A
:102DF0000FB6F8949EBF0FBE8DBFEDB7FEB73196EC
:102E0000ADB7BEB712965C934E9311978CE292E0E9
:102E10009383828335832483C682D782E086F186BA
:102E20008DE890E0938782877486158686869786DC
:102E3000A08AB18A628A138A0E941D2CEDB7FEB760
:102E400074960FB6F894FEBF0FBEEDBF8DE594E00B
:102E50000E943004DF91CF911F910F91FF90EF906E
:102E6000DF90CF90BF90AF909F908F907F906F90AA
:102E700008950F931F93282F462F0DE514E0C801E6
:102E8000622F0E947C048DB79EB70C970FB6F89402
:102E90009EBF0FBE8DBFEDB7FEB73196ADB7BEB7C3
:102EA00012961C930E93119780E492E09383828391
:102EB00080917A0490917B04A0917C04B0917D0470
:102EC00084839583A683B78380918C0490918D042D
:102ED000A0918E04B0918F0480879187A287B387D9
:102EE0000E941D2C8DB79EB70C960FB6F8949EBF0E
:102EF0000FBE8DBFC8010E9430041F910F9108952D
:102F00000F931F93282F462F8DE594E0622F0E9488
:102F10007C0480919104282F30E0823030F444E02A
:102F2000220F331F4A95E1F702C02150304000D0F4
:102F300000D000D0EDB7FEB731960DE514E0ADB787
:102F4000BEB712961C930E93119780E091E0938385
:102F50008283358324830E941D2C8DB79EB70696ED
:102F60000FB6F8949EBF0FBE8DBFC8010E943004FB
:102F70001F910F9108950F931F93282F462F0DE552
:102F800014E0C801622F0E947C048DB79EB7089799
:102F90000FB6F8949EBF0FBE8DBFEDB7FEB731964A
:102FA000ADB7BEB712961C930E9311978CE492E0C6
:102FB000938382838FE090E0958384838091900453
:102FC000868317820E941D2C8DB79EB708960FB678
:102FD000F8949EBF0FBE8DBFC8010E9430041F91A0
:102FE0000F9108950F931F930DE514E0C80161E060
:102FF00047E00E947C0400D000D0EDB7FEB71283FA
:10300000018387EA92E0948383830E940C2C0F90C3
:103010000F900F900F90C8010E9430041F910F91E4
:103020000895EF92FF920F931F93282F462F8DE55F
:1030300094E0622F0E947C046091C4047091C504E6
:103040008091C6049091C70426E636E646E650E431
:103050000E9468380E940237DC01CB0165EF75E001
:103060004AE050E00E94B10380918304823058F11D
:1030700060916E0370916F03809170039091710362
:1030800024EE38E34EE85FE30E94CD359B01AC01AE
:103090006091C4047091C5048091C6049091C704E6
:1030A0000E94933618167CF00E945E3428EC30E0C3
:1030B00040E050E00E94D43920FF05C080E28093B8
:1030C000F5051092F6058DB79EB742970FB6F894A6
:1030D0009EBF0FBE8DBF0DB71EB70F5F1F4F5DE5C3
:1030E000E52E54E0F52EEDB7FEB7F282E18282E5DF
:1030F00092E0F8019383828388EE90E09583848345
:103100006091F1057091F2058091F3059091F405BD
:1031100026E636E646E650E40E946838F801668303
:1031200077838087918721E830E03387228789E899
:1031300090E09587848785EF95E097878687318B28
:10314000208B0E941D2C8DB79EB742960FB6F89427
:103150009EBF0FBE8DBFC7010E9430041F910F910B
:10316000FF90EF9008959F92AF92BF92CF92DF921F
:10317000EF92FF920F931F93CF93DF93282F462F49
:10318000CDE5D4E0CE01622F0E947C0490908504AE
:103190008EE0981621F09CE0991609F008C1609124
:1031A000BE047091BF048091C0049091C10420912D
:1031B000B2043091B3044091B4045091B5040E941C
:1031C000CC357B018C016091BA047091BB04809175
:1031D000BC049091BD042091AE043091AF044091A5
:1031E000B0045091B1040E94CC355B016C01C80160
:1031F000B701A80197010E9468387B018C01C601C4
:10320000B501A60195010E9468389B01AC01C80177
:10321000B7010E94CD350E94EF385B016C01E09050
:103220009604F09097040091980410919904C801B5
:10323000B70120E030E040E050E00E945D38181611
:103240001CF000E010E009C0C601B501A80197011B
:103250000E949A360E9407378B01C601B50120E80B
:103260003FE443EC57E40E945D38181654F40F2EE7
:10327000F0E8AF2EFFE4BF2EF3ECCF2EF7E4DF2E05
:10328000F02DE801A7E100371A0710F0CFE6D7E1EB
:103290008091B8049091B9048436910530F083E6AA
:1032A00090E09093B9048093B804C601B50120E082
:1032B0003CE34CE156E40E945D3818163CF47DEF87
:1032C000F72E2FE632E143E85AE306C06DE8F62E0A
:1032D00020E030E040E85FE3BCE09B1621F4109270
:1032E000B9041092B804EDB7FEB77A970FB6F89408
:1032F000FEBF0FBEEDBF0DB71EB70F5F1F4F8DE5B1
:1033000094E09283818384E692E0D80113969C93A3
:103310008E93129783E190E015969C938E93149769
:1033200084E190E017969C938E93169789E190E044
:1033300019969C938E931897C601B5010E94683820
:10334000F80162877387848795878F2D992787FD7A
:103350009095978786878091B8049091B904918B56
:10336000808B8AE190E0938B828BCE016CE370E0DE
:103370000E94AD39CB016CE370E00E94C139958B9E
:10338000848B8AE390E0978B868BCE016CE370E0B0
:103390000E94AD39918F808F0E941D2C8DB79EB7F2
:1033A0004A960FB6F8949EBF0FBE8DBF23C023E888
:1033B00032E0ADB7BEB718970FB6F894BEBF0FBED8
:1033C000ADBFEDB7FEB731961296DC93CE93119751
:1033D0008CE892E09383828335832483378326832A
:1033E0000E941D2CEDB7FEB738960FB6F894FEBFBD
:1033F0000FBEEDBF8DE594E00E943004DF91CF91C8
:103400001F910F91FF90EF90DF90CF90BF90AF9002
:103410009F9008956F927F928F929F92AF92BF92EA
:10342000CF92DF92EF92FF920F931F93E0903E06B0
:10343000F0903F0600914006109141068FE590E024
:10344000A0E0B0E0E80EF91E0A1F1B1F0E945E34C8
:103450006E157F058007910708F4F4C0209196044B
:10346000309197044091980450919904E0909A0407
:10347000F0909B0400919C0410919D04CA01B90135
:103480000E9468385B016C01C801B701A80197016F
:103490000E9468389B01AC01C601B5010E94CD3580
:1034A0000E94EF386093F1057093F2058093F30565
:1034B0009093F40520E030E040E050E00E945D3859
:1034C00018160CF0B5C00E945E3420913E06309173
:1034D0003F064091400650914106621B730B840BDE
:1034E000950B0E9433375B016C01E090F105F09081
:1034F000F2050091F3051091F405209196043091A6
:10350000970440919804509199040E94683820E0F3
:1035100030E04AE754E40E949A369B01AC01609186
:10352000ED057091EE058091EF059091F0050E94F8
:10353000CD356093ED057093EE058093EF05909384
:10354000F0058091300690913106892B09F464C012
:10355000C801B701A60195010E94683820E030E05B
:103560004AE754E40E949A363B014C0120E030E0E7
:1035700040E050E00E945D3818160CF04DC060919C
:1035800004067091050680910606909107062DECC1
:103590003CEC4CE45FE30E9468387B018C01609155
:1035A000A2047091A304882777FD8095982F0E942C
:1035B000353720919E0430919F044091A004509192
:1035C000A1040E946838A60195010E94683820E095
:1035D00030E041EE54E40E949A36A40193010E9427
:1035E0009A369B01AC01C801B7010E94CD356093AA
:1035F000040670930506809306069093070620E064
:103600003BE443EC57E40E945D3818168CF480E0EC
:103610009BE4A3ECB7E404C080E090E0A0E0B0E05D
:103620008093040690930506A0930606B0930706C0
:103630000E945E3460933E0670933F06809340067E
:10364000909341061F910F91FF90EF90DF90CF90E4
:10365000BF90AF909F908F907F906F900895EF9262
:10366000FF920F931F93CF93DF930E945E342091BC
:103670000B0630910C0640910D0650910E06261750
:1036800037074807590708F08DC10E945E346C5017
:103690007E4F8F4F9F4F60930B0670930C06809365
:1036A0000D0690930E060DE514E0C8010E94C604B5
:1036B000C80165E043E00E947C0400D000D0EDB773
:1036C000FEB71283018386E093E0948383830E9494
:1036D0000C2C0F900F900F900F908091DA05909125
:1036E000DB05892B31F08091080690910906892B22
:1036F00081F480918804909189049093DB058093F4
:10370000DA0580918A0490918B0490930906809346
:10371000080620918A0430918B044091080650914C
:103720000906C901845690404817590724F480912E
:103730000A068F5F08C02C593F4F241735072CF419
:1037400080910A06815080930A0680910A06181615
:1037500014F081E003C085301CF084E080930A06F9
:1037600000910A06023069F0033024F4013009F0B8
:1037700015C10AC0033009F465C0043009F00EC158
:10378000B7C0C4E6D0E060C000D000D0CDE5D4E042
:10379000EDB7FEB7D283C1838AEF92E0948383832F
:1037A0000E940C2C0F900F900F900F9080915D0352
:1037B000882301F100D000D0EDB7FEB7D283C183DA
:1037C00081EF92E0948383830E940C2C8091DA0530
:1037D0009091DB05845690400F900F900F900F90C2
:1037E00020918804309189042817390714F5109224
:1037F0005D031FC000D000D0EDB7FEB7D283C183F8
:1038000088EE92E0948383830E940C2C8091DA05E9
:103810009091DB058C599F4F0F900F900F900F9058
:1038200020918804309189048217930714F400933F
:103830005D0384E596E06CEF73E040915D030E94C8
:10384000D532ACC0CAE0D0E000D000D0FDE5EF2E0C
:10385000F4E0FF2EEDB7FEB7F282E18289ED92E04F
:10386000948383830E940C2C8DB79EB708970FB664
:10387000F8949EBF0FBE8DBF0DB71EB70F5F1F4FD1
:10388000EDB7FEB7F282E18282E992E0F80193831C
:1038900082836091640370916503882777FD80952A
:1038A000982F0E943537F801648375838683978348
:1038B00082E890E09187808780E290E0938782871A
:1038C0000E941D2C8DB79EB70C960FB6F8949EBF24
:1038D0000FBE8DBF80916403909165036DEF73E01F
:1038E000AE010E94DF0E909365038093640356C07F
:1038F00000D000D0EDE5EE2EE4E0FE2EEDB7FEB7F1
:10390000F282E18289EB92E0948383830E940C2C03
:103910008DB79EB708970FB6F8949EBF0FBE8DBFA8
:103920000DB71EB70F5F1F4FEDB7FEB7F282E182F2
:103930008AE992E0F801938382836091E00570E068
:10394000645D7E4F882777FD8095982F0E943537DC
:1039500020E030E048EC52E40E949A36F80164839B
:1039600075838683978386E790E09187808780E2DE
:1039700090E0938782870E941D2C8DB79EB70C968E
:103980000FB6F8949EBF0FBE8DBF8091E00590E00A
:1039900060E873E00E94B40E8093E0058DE594E04A
:1039A0000E943004DF91CF911F910F91FF90EF9013
:1039B00008952F923F924F925F926F927F928F92D3
:1039C0009F92AF92BF92CF92DF92EF92FF920F93AE
:1039D0001F93DF93CF93CDB7DEB768970FB6F894F8
:1039E000DEBF0FBECDBF8D8B6E8B0E945E342091EB
:1039F0000F063091100640911106509112062617BD
:103A000037074807590708F01FC28091130688231B
:103A1000C9F0809372031092130682EA92E09093A9
:103A20002206809321060E945E34625A7E4F8F4F99
:103A30009F4F60930F06709310068093110690932A
:103A40001206BCC180917203282E3324D0908304C7
:103A50002091C2042C8B3091C3043B8BC090820414
:103A6000E0901506F09016060091210610912206AE
:103A70006091ED057091EE058091EF059091F00554
:103A80000E9402376F87788B898B9A8B8091C40450
:103A90009091C504A091C604B091C7048B879C8700
:103AA000AD87BE8720916E0330916F034091700304
:103AB000509171032F83388749875A873091910439
:103AC0003E83409114064D8340909E0450909F0485
:103AD0006090A0047090A10480915D032091E005A6
:103AE000829FC0011124845D9E4F20915E0330911E
:103AF0005F03DC01A29FC001A39F900DB29F900DB8
:103B00001124B091B604BC83E091B704EB832091FB
:103B10000206309103063A832983388E2F8A4C019E
:103B2000AA2497FCA094BA2C4F89588D4F5F5F4F01
:103B3000588F4F8B493051052CF081E090E0988FE1
:103B40008F8B26C0AF89B88DA430B10509F46AC047
:103B5000A530B1055CF4A230B105C9F1A330B105BF
:103B60000CF054C0119709F0ACC012C0EF89F88D69
:103B7000E630F10509F476C0E630F1050CF468C0D2
:103B8000E730F10509F47AC0389709F09AC08EC081
:103B9000F1E0FD15A0F0DF1619F40FEA12E015C0F0
:103BA0002C89213049F43B89313031F442E04C1505
:103BB00018F00CEB12E009C009EC12E006C05B89BA
:103BC000513009F47EC006ED12E081E081C081E051
:103BD0008D1508F076C02F85388949895A89233395
:103BE0003105410551050CF46CC06B857C858D85D4
:103BF0009E852F81388549855A850E949336882372
:103C00000CF05FC003EE12E082E062C03E81323011
:103C100008F057C04D81442309F453C000EF12E06F
:103C200083E056C0C501B4010E94353720E030E082
:103C300048EC52E40E949A369B01AC01C301B201E8
:103C40000E9493368823ECF50DEF12E084E040C02B
:103C500051E0E516F104A9F50AE013E0EE24FF2493
:103C600085E036C08C818C3A2CF09B81993648F5E2
:103C7000882339F107E113E086E02AC0A1E0AD1501
:103C800000F1AC15F0F4B2E0CB1619F404E213E045
:103C900005C0E3E0CE1621F401E313E087E018C08D
:103CA000F4E0CF16D9F70EE313E0F8CF21E02D159D
:103CB00040F449815A8157FF04C00BE413E088E0C7
:103CC00007C08F89988D8215930509F02DCFA1C06B
:103CD000F0921606E0921506109322060093210634
:103CE0008093130681E0809317060E945E3464542B
:103CF0007D4F8F4F9F4F60930F06709310068093F8
:103D00001106909312060E945E346854744F8F4FD0
:103D10009F4F60931D0670931E0680931F0690931D
:103D200020068091180690911906A0911A06B0916C
:103D30001B060097A105B10571F40E945E3460591D
:103D4000784E8F4F9F4F609318067093190680939B
:103D50001A0690931B0680911C06882379F40E9412
:103D60005E34209118063091190640911A06509140
:103D70001B06261737074807590720F08DE594E002
:103D80000E94C6040E945E342091180630911906E4
:103D900040911A0650911B06261737074807590706
:103DA00068F010921C060AC01092170610921806AE
:103DB0001092190610921A0610921B060DE514E0D7
:103DC000C8016D894E890E947C0400D000D000D0CB
:103DD000EDB7FEB73196ADB7BEB712961C930E93F2
:103DE000119788E593E093838283809121069091D7
:103DF0002206958384830E941D2CEDB7FEB736966C
:103E00000FB6F894FEBF0FBEEDBFC8010E9430048C
:103E10001BC0F0921606E09215061093220600933E
:103E20002106109213060E945E3420911D063091E7
:103E30001E0640911F065091200626173707480797
:103E4000590708F4B1CFBACF68960FB6F894DEBF21
:103E50000FBECDBFCF91DF911F910F91FF90EF90DB
:103E6000DF90CF90BF90AF909F908F907F906F909A
:103E70005F904F903F902F90089520915B03309179
:103E80005C03C901895097408F5A9440D0F58091C6
:103E90008304882321F481E0809323062EC080913F
:103EA0002306882351F580911706882311F10E947B
:103EB0005E34209118063091190640911A065091EF
:103EC0001B062617370748075907B8F40E945E34C7
:103ED00020910F0630911006409111065091120664
:103EE000261737074807590740F48091130688239F
:103EF00021F48DE594E00E94C60482E080931C06C4
:103F0000089584E0203B380768F480911C068823DC
:103F100049F0109223068DE594E00E94C6041092A9
:103F20001C060895205B34402955324000F58091ED
:103F30001C068130E1F080911706882379F00E94F9
:103F40005E34209118063091190640911A0650915E
:103F50001B06261737074807590748F4109223060F
:103F60008DE594E00E94C60481E080931C060895CC
:103F7000EF92FF920F931F9380912306882309F0FD
:103F800060C080918304823008F05BC08091140689
:103F9000813009F056C0809188049091890489503D
:103FA00097400CF44EC080918A0490918B04805B02
:103FB00094400CF046C080917A0490917B04A091CB
:103FC0007C04B0917D048093240690932506A093F1
:103FD0002606B093270680918C0490918D04A091C1
:103FE0008E04B0918F048093280690932906A093A5
:103FF0002A06B0932B068091920490919304A0918D
:104000009404B09195048093F9059093FA05A093D8
:10401000FB05B093FC058091A6049091A704A091A4
:10402000A804B091A90480936A0390936B03A093B2
:104030006C03B0936D0381E090E09093160680933B
:10404000150680912C0690912D06A0912E06B09118
:104050002F060097A105B10509F04EC08091860496
:1040600090918704CD9708F447C0809183048230F3
:1040700008F442C00E945E3460932C0670932D06B3
:1040800080932E0690932F061092310610923006E0
:104090008091A4049091A5049093330680933206F6
:1040A0008091600390916103A0916203B0916303DA
:1040B0008093730390937403A0937503B093760376
:1040C00080E090E0A0E0B0E08093ED059093EE05F5
:1040D000A093EF05B093F0058091A6049091A704FA
:1040E000A091A804B091A90480936A0390936B03F4
:1040F000A0936C03B0936D0380912C0690912D06D4
:10410000A0912E06B0912F060097A105B10509F4E4
:1041100058C080918304823038F10E945E3420912F
:104120002C0630912D0640912E0650912F06621BD1
:10413000730B840B950B28EE33E040E050E00E94B7
:10414000D4393093DD052093DC058091A40490914F
:10415000A5042091320630913306821B930B909375
:104160003106809330064DC00E945E347B018C0185
:104170006091DC057091DD05882777FD8095982F8B
:1041800028E13CEF4FEF5FEF0E948E39E60EF71EFD
:10419000081F191FE0922C06F0922D0600932E06A0
:1041A00010932F068091A4049091A50420913006CD
:1041B00030913106821B930B909333068093320625
:1041C00020C00E945E3428EE33E040E050E00E94C0
:1041D000D4393093DD052093DC051092310610921E
:1041E00030068091600390916103A0916203B091C9
:1041F00063038093730390937403A0937503B09348
:1042000076030E943D1F80912306882319F00E94A7
:104210002F1B5EC28091D40380FF08C060912E04E2
:1042200080912C0490E070E00E94D91C80911C06C3
:104230008230A8F080911706882309F449C20E94B1
:104240005E34209118063091190640911A0650915B
:104250001B06261737074807590708F439C280910B
:104260001C0680933406823011F410921C06809153
:104270001C06A82FB0E0FD01E253FC4F808185FFB2
:104280000BC0FD01EA51FC4F6081AC51BC4F8C91D9
:1042900090E070E00E94BB1780911C06A82FB0E050
:1042A000FD01E253FC4F808186FF0BC0FD01E6510A
:1042B000FC4F6081A851BC4F8C9190E070E00E944F
:1042C000801780911C06A82FB0E0FD01EC52FC4F36
:1042D000808183FF0BC0FD01EE5CFB4F6081A05D20
:1042E000BB4F8C9190E070E00E947A13809114068D
:1042F000882309F469C080911C06A82FB0E0FD0155
:10430000E253FC4F808187FF0BC0FD01E251FC4F5F
:104310006081A451BC4F8C9190E070E00E943917ED
:1043200080911C06A82FB0E0FD01E053FC4F808176
:1043300084FF0BC0FD01E250FC4F6081A450BC4FD4
:104340008C9190E070E00E948E1580911C06A82F41
:10435000B0E0FD01E053FC4F808183FF0BC0FD0105
:10436000E650FC4F6081A850BC4F8C9190E070E00B
:104370000E947A1580911C06A82FB0E0FD01E05341
:10438000FC4F808185FF0BC0FD01EE5FFB4F60811C
:10439000A050BC4F8C9190E070E00E94B3188091C7
:1043A0001C06A82FB0E0FD01E053FC4F808186FF82
:1043B0000BC0FD01EA5FFB4F6081AC5FBB4F8C918E
:1043C00090E070E00E941B1680911C06A82FB0E0C0
:1043D000FD01EE52FC4F808187FF0BC0FD01EA5EBC
:1043E000FB4F6081AC5EBB4F8C9190E070E00E940F
:1043F000261580911C06A82FB0E0FD01EE52FC4F5F
:10440000808181FF0BC0FD01E25EFB4F6081A45EF5
:10441000BB4F8C9190E070E00E94111880911406BF
:10442000882309F444C080919104823008F43FC08D
:1044300080911C06A82FB0E0FD01EA52FC4F80815C
:1044400082FF0BC0FD01E65CFB4F6081A85CBB4FA7
:104450008C9190E070E00E94E71380911C06A82FD9
:10446000B0E0FD01EE52FC4F808182FF0BC0FD01E8
:10447000EE5EFB4F6081A05FBB4F8C9190E070E0DF
:104480000E94C11480911C06A82FB0E0FD01EE52DD
:10449000FC4F808183FF0BC0FD01E65EFB4F608116
:1044A000A85EBB4F8C9190E070E00E9471148091E7
:1044B0001406882321F080919104823028F48091A1
:1044C000820481508330A8F480911C06A82FB0E0AC
:1044D000FD01E053FC4F808180FF0BC0FD01EA50DD
:1044E000FC4F6081AC50BC4F8C9190E070E00E941A
:1044F0002B1380911C06A82FB0E0FD01EC52FC4F5D
:10450000808186FF0FC08091B604882359F0FD0199
:10451000EA5CFB4F6081AC5CBB4F8C9190E070E03B
:104520000E94E51280911C06A82FB0E0FD01E25325
:10453000FC4F808182FF0BC0FD01E252FC4F608185
:10454000A452BC4F8C9190E070E00E94AC1280911C
:104550001C06A82FB0E0FD01E253FC4F808181FFD3
:104560000BC0FD01E652FC4F6081A852BC4F8C91FC
:1045700090E070E00E94731280911C06A82FB0E0BA
:10458000FD01EE52FC4F808184FF0BC0FD01EE5D0A
:10459000FB4F6081A05EBB4F8C9190E070E00E9469
:1045A000361280911C06A82FB0E0FD01EE52FC4FA0
:1045B000808185FF0BC0FD01EA5DFB4F6081AC5D32
:1045C000BB4F8C9190E070E00E94961180911C0688
:1045D000A82FB0E0FD01E253FC4F808183FF0BC0A8
:1045E000FD01EE51FC4F6081A052BC4F8C9190E0D8
:1045F00070E00E941D1180911C06A82FB0E0FD0103
:10460000EE52FC4F808180FF0BC0FD01E25FFB4F4B
:104610006081A45FBB4F8C9190E070E00E94CB1052
:1046200080911C06A82FB0E0FD01E253FC4F808171
:1046300084FF0BC0FD01EE50FC4F6081A051BC4FC8
:104640008C9190E070E00E946E1080911C06A82F63
:10465000B0E0FD01EA52FC4F808181FF0BC0FD01FB
:10466000E25CFB4F6081A45CBB4F8C9190E070E0FA
:104670000E942B1080911C06A82FB0E0FD01E05392
:10468000FC4F808187FF0BC0FD01E65FFB4F60811F
:10469000A85FBB4F8C9190E070E00E94B80F8091B2
:1046A0001C06A82FB0E0FD01EE52FC4F808186FF72
:1046B0000BC0FD01E65DFB4F6081A85DBB4F8C9197
:1046C00090E070E00E94600F8091340680931C0699
:1046D0001F910F91FF90EF9008958DE594E00E9457
:1046E000C6040E94F2170895CF93DF93EC018DE585
:1046F00094E00E94FD03C817D9073CF08DE594E0D3
:104700000E94F203892B09F42397CE01DF91CF9108
:104710000895FF920F931F9304E516E0C8016EE71A
:1047200073E00E94CE3290E0A0E0B0E0BC01CD0189
:104730000E94333726E636E646E650E40E949A3673
:1047400060936E0370936F03809370039093710373
:10475000C80160E873E00E94CE328093E005C80192
:104760006CEF73E00E94CE3280935D03C8016DEF61
:1047700073E00E94CE32F82EC8016EEF73E00E9403
:10478000CE32382F20E02F0D311D3093650320935A
:1047900064031F910F91FF900895BC0184E596E09A
:1047A0000E94CE320895EF92FF920F931F93CF9302
:1047B000DF9300911C0610E08AEF90E0089F7001E3
:1047C000099FF00C189FF00C1124C70188569F4FC9
:1047D0000E94CD23F801E253FC4F882319F0808119
:1047E000806102C080818F7E808380911C06C82FEB
:1047F000D0E0C70186569F4F0E94CD23C051DC4FA9
:10480000888380911C06C82FD0E0C70184569F4F33
:104810000E94CD2390E00E947423CE50DC4F888309
:1048200000911C0610E0C70106960E94CD23F801F6
:10483000E253FC4F882319F08081826002C080819E
:104840008D7F808380911C06C82FD0E0C701089619
:104850000E94CD23C852DC4F888380911C06C82F4C
:10486000D0E0C7010A960E94CD2390E00E947423F5
:10487000C652DC4F888300911C0610E0C7010C96DD
:104880000E94CD23F801E253FC4F882319F0808168
:10489000846002C080818B7F808380911C06C82F3A
:1048A000D0E0C7010E960E94CD23C452DC4F88830E
:1048B00080911C06C82FD0E0C70140960E94CD23EE
:1048C00090E00E947423C252DC4F888300911C0642
:1048D00010E0C70142960E94CD23F801E253FC4F3D
:1048E000882319F08081886002C08081877F80835F
:1048F00080911C06C82FD0E0C70144960E94CD23AA
:10490000C052DC4F888380911C06C82FD0E0C701BD
:1049100046960E94CD2390E00E947423CE51DC4F36
:10492000888300911C0610E0C7014E960E94CD239B
:10493000F801E253FC4F882319F08081806202C0A5
:1049400080818F7D808380911C06C82FD0E0C701B5
:1049500080960E94CD23CC51DC4F888380911C0629
:10496000C82FD0E0C70182960E94CD2390E00E941C
:104970007423CA51DC4F888300911C0610E0C701E4
:1049800084960E94CD23F801E253FC4F882319F04E
:104990008081806402C080818F7B808380911C062F
:1049A000C82FD0E0C70186960E94CD23C851DC4FA6
:1049B000888380911C06C82FD0E0C70188960E948A
:1049C000CD2390E00E947423C651DC4F8883009170
:1049D0001C0610E0C7018A960E94CD23F801E2531D
:1049E000FC4F882319F08081806802C080818F7716
:1049F000808380911C06C82FD0E0C7018C960E944E
:104A0000CD23C451DC4F888380911C06C82FD0E091
:104A1000C7018E960E94CD2390E00E947423C2515C
:104A2000DC4F888300911C0610E0C701C0960E94ED
:104A3000CD23F801E053FC4F882319F08081816079
:104A400002C080818E7F808380911C06C82FD0E0B9
:104A5000C701C2960E94CD23CC50DC4F8883809141
:104A60001C06C82FD0E0C701C4960E94CD2390E059
:104A70000E947423CA50DC4F888300911C0610E00A
:104A8000C701885B9F4F0E94CD23F801E053FC4F84
:104A9000882319F08081806102C080818F7E8083AD
:104AA00080911C06C82FD0E0C701865B9F4F0E94F3
:104AB000CD23C450DC4F888380911C06C82FD0E0E2
:104AC000C701845B9F4F0E94CD2390E00E94742316
:104AD000C250DC4F888300911C0610E0C7018E5B3A
:104AE0009F4F0E94CD23F801E053FC4F882319F01B
:104AF0008081886002C08081877F808380911C06CE
:104B0000C82FD0E0C7018C5B9F4F0E94CD23C850B7
:104B1000DC4F888380911C06C82FD0E0C7018A5BD8
:104B20009F4F0E94CD2390E00E947423C650DC4F1B
:104B3000888300911C0610E0C701805B9F4F0E9494
:104B4000CD23F801E053FC4F882319F08081806267
:104B500002C080818F7D808380911C06C82FD0E0A9
:104B6000C7018E5A9F4F0E94CD23C050DC4F8883CF
:104B700080911C06C82FD0E0C7018C5A9F4F0E941D
:104B8000CD2390E00E947423CE5FDB4F8883009199
:104B90001C0610E0C7018A5A9F4F0E94CD23F801DE
:104BA000E053FC4F882319F08081806402C080812B
:104BB0008F7B808380911C06C82FD0E0C701885A64
:104BC0009F4F0E94CD23CC5FDB4F888380911C06D2
:104BD000C82FD0E0C701865A9F4F0E94CD2390E096
:104BE0000E947423CA5FDB4F888300911C0610E08B
:104BF000C70182569F4F0E94CD23F801E053FC4F1E
:104C0000882319F08081806802C080818F7780833B
:104C100080911C06C82FD0E0C70180569F4F0E948C
:104C2000CD23C85FDB4F888380911C06C82FD0E05E
:104C3000C7018E559F4F0E94CD2390E00E947423A0
:104C4000C65FDB4F888300911C0610E0C7018E59B8
:104C50009F4F0E94CD23F801EE52FC4F882319F09C
:104C60008081816002C080818E7F808380911C065C
:104C7000C82FD0E0C7018C599F4F0E94CD23C45F3D
:104C8000DB4F888380911C06C82FD0E0C7018A596A
:104C90009F4F0E94CD2390E00E947423C25FDB4FA0
:104CA000888300911C0610E0C70182599F4F0E9423
:104CB000CD23F801EE52FC4F882319F080818460E7
:104CC00002C080818B7F808380911C06C82FD0E03A
:104CD000C70180599F4F0E94CD23C05FDB4F88835F
:104CE00080911C06C82FD0E0C7018E589F4F0E94AC
:104CF000CD2390E00E947423CE5EDB4F8883009129
:104D00001C0610E0C70184579F4F0E94CD23F80175
:104D1000EE52FC4F882319F08081806802C08081A8
:104D20008F77808380911C06C82FD0E0C7018257FF
:104D30009F4F0E94CD23CC5EDB4F888380911C0661
:104D4000C82FD0E0C70180579F4F0E94CD2390E02D
:104D50000E947423CA5EDB4F888300911C0610E01A
:104D6000C7018E569F4F0E94CD23F801EE52FC4F93
:104D7000882319F08081826002C080818D7F8083CA
:104D800080911C06C82FD0E0C7018C569F4F0E940F
:104D9000CD23C45EDB4F888380911C06C82FD0E0F2
:104DA000C7018A569F4F0E94CD2390E00E94742332
:104DB000C25EDB4F888300911C0610E0C7018C584F
:104DC0009F4F0E94CD23F801EE52FC4F882319F02B
:104DD0008081886002C08081877F808380911C06EB
:104DE000C82FD0E0C7018A589F4F0E94CD23C85ECC
:104DF000DB4F888380911C06C82FD0E0C7018858FC
:104E00009F4F0E94CD2390E00E947423C65EDB4F2B
:104E1000888300911C0610E0C70186589F4F0E94AE
:104E2000CD23F801EE52FC4F882319F08081806178
:104E300002C080818F7E808380911C06C82FD0E0C5
:104E4000C70184589F4F0E94CD23C05EDB4F8883EB
:104E500080911C06C82FD0E0C70182589F4F0E9446
:104E6000CD2390E00E947423CE5DDB4F88830091B8
:104E70001C0610E0C70180589F4F0E94CD23F80107
:104E8000EE52FC4F882319F08081806202C080813D
:104E90008F7D808380911C06C82FD0E0C7018E577C
:104EA0009F4F0E94CD23CC5DDB4F888380911C06F1
:104EB000C82FD0E0C7018C579F4F0E94CD2390E0B0
:104EC0000E947423CA5DDB4F888300911C0610E0AA
:104ED000C7018A579F4F0E94CD23F801EE52FC4F25
:104EE000882319F08081806402C080818F7B808359
:104EF00080911C06C82FD0E0C70188579F4F0E94A1
:104F0000CD23C85DDB4F888380911C06C82FD0E07D
:104F1000C70186579F4F0E94CD2390E00E947423C3
:104F2000C65DDB4F888300911C0610E0C7018C55DD
:104F30009F4F0E94CD23F801EC52FC4F882319F0BB
:104F40008081816002C080818E7F808380911C0679
:104F5000C82FD0E0C7018A559F4F0E94CD23C45D62
:104F6000DB4F888380911C06C82FD0E0C70188558D
:104F70009F4F0E94CD2390E00E947423C25DDB4FBF
:104F8000888300911C0610E0C7018A549F4F0E943D
:104F9000CD23F801EC52FC4F882319F08081886002
:104FA00002C08081877F808380911C06C82FD0E05B
:104FB000C70188549F4F0E94CD23C05DDB4F88837B
:104FC00080911C06C82FD0E0C70186549F4F0E94D5
:104FD000CD2390E00E947423CE5CDB4F8883009148
:104FE0001C0610E0C701845A9F4F0E94CD23F80190
:104FF000EC52FC4F882319F08081806402C08081CC
:105000008F7B808380911C06C82FD0E0C701825A15
:105010009F4F0E94CD23CC5CDB4F888380911C0680
:10502000C82FD0E0C701805A9F4F0E94CD2390E047
:105030000E947423CA5CDB4F888300911C0610E039
:10504000C70180529F4F0E94CD23F801EA52FC4FC6
:10505000882319F08081846002C080818B7F8083E7
:1050600080911C06C82FD0E0C7018E519F4F0E942F
:10507000CD23C85CDB4F888380911C06C82FD0E00D
:10508000C7018C519F4F0E94CD2390E00E94742352
:10509000C65CDB4F888300911C0610E0C7018C5270
:1050A0009F4F0E94CD23F801EA52FC4F882319F04C
:1050B0008081826002C080818D7F808380911C0608
:1050C000C82FD0E0C7018A529F4F0E94CD23C45CF5
:1050D000DB4F888380911C06C82FD0E0C70188521F
:1050E0009F4F0E94CD2390E00E947423C25CDB4F4F
:1050F0008883DF91CF911F910F91FF90EF900895DA
:1051000086E061E00E943F35089586E061E00E94FC
:10511000003580E494E040E051EE60E070E00E94F1
:105120002E2C0E9480288DE594E00E9405050E94A7
:105130006D2368EE73E080E090E00E946C340E9482
:10514000892310921C0607C00E94D32380911C065D
:105150008F5F80931C0680911C068230A8F310920A
:105160001C0680E494E00E940D2D68EB7BE080E05B
:1051700090E00E946C348DE594E00E94C6040E9489
:105180005E346093350670933606809337069093AD
:10519000380608952F923F924F925F926F927F92BE
:1051A0008F929F92AF92BF92CF92DF92EF92FF9237
:1051B0000F931F93DF93CF9300D000D0CDB7DEB70E
:1051C00080911406882309F438C2E0902406F090F8
:1051D00025060091260610912706C801B7019F7782
:1051E00025E33AEF4EE85CE30E9468380E94973668
:1051F00069837A838B839C83C801B70120917A04E9
:1052000030917B0440917C0450917D040E94CC3508
:105210009F7720EC3BE649ED57E40E9468385B013C
:105220006C01609128067091290680912A06909160
:105230002B0620918C0430918D0440918E04509166
:105240008F040E94CC359F7720EC3BE649ED57E474
:105250000E94683829813A814B815C810E946838BC
:105260007B018C01C601B501A60195010E94683839
:105270005B016C01C801B701A80197010E94683861
:105280009B01AC01C601B5010E94CD350E94EF38EB
:105290000E9402376093D6057093D7058093D80596
:1052A0009093D9058091300690913106892B09F4AD
:1052B000E9C06091DE057091DF0580E090E00E941A
:1052C00033372DEC3CEC4CE45FE30E9468383B0143
:1052D0004C016091640370916503882777FD809588
:1052E000982F0E9435372DEC3CEC4CE45FE30E9494
:1052F00068387B018C016091A4047091A50480E062
:1053000090E00E9433379B01AC01C801B7010E94B5
:10531000CC355B016C010E945E347B018C01609195
:1053200030067091310680E090E00E9433371B0117
:105330002C0180912C0690912D06A0912E06B09103
:105340002F06E81AF90A0A0B1B0BC801B7010E94C5
:105350003337A20191010E949A369B01AC01C6012C
:10536000B5010E94683820E030E04AE754E40E942A
:105370009A362DEC3CEC4CE45EE30E9468389B01CD
:10538000AC01C401B3010E94CD350E940237709375
:10539000DF056093DE056091A4047091A50480E0B0
:1053A00090E00E9433375B016C016091640370915F
:1053B0006503882777FD8095982F0E9435372DEC5F
:1053C0003CEC4CE45FE30E9468387B018C01C60131
:1053D000B501A80197010E945D38181624F41092B7
:1053E000DF051092DE058091DE059091DF05805784
:1053F000974130F08FE697E19093DF058093DE05CB
:10540000C801B701A60195010E94CC357B018C0132
:105410006091ED057091EE058091EF059091F0059A
:10542000A20191010E949A369B01AC01C801B7010B
:105430000E9468387B018C016091D6057091D70578
:105440008091D8059091D9050E9435379B01AC0118
:10545000C801B7010E94CC3520E030E040E05FE3B6
:105460000E9468380E940237709303066093020618
:10547000615F784D7CF481EF98ED90930306809303
:10548000020608C01092DF051092DE051092030696
:10549000109202066091920470919304809194049A
:1054A000909195042091F9053091FA054091FB0502
:1054B0005091FC050E94CC355B016C012091D60512
:1054C0003091D7054091D8055091D905CA01B9014D
:1054D0000E948E390E9435377B018C01C601B501CF
:1054E000A60195010E9468389B01AC01C801B70173
:1054F0000E94CD350E94EF380E9402376093FE056E
:105500007093FF0580930006909301066091240636
:1055100070912506809126069091270620917A04A5
:1055200030917B0440917C0450917D040E94CC35E5
:105530007B018C0160E070E080E89FE329813A8183
:105540004B815C810E949A369B01AC01C801B70176
:105550000E9468387B018C016091280670912906B1
:1055600080912A0690912B0620918C0430918D0415
:1055700040918E0450918F040E94CC359B01AC0168
:105580005058C801B7010E94403620EE3EE245E681
:1055900052E40E94683820E030E044EB52E40E947C
:1055A000CD350E9402379B01AC0197FF04C02859FA
:1055B0003E4F4F4F5F4FCA01B901645B704080405E
:1055C000904097FF06C0CA01B9016C547F4F8F4FBE
:1055D0009F4F0E94353720917E0430917F04409187
:1055E0008004509181040E94CC350E94023797FFBD
:1055F00004C068597E4F8F4F9F4F0E94353720E07F
:1056000030E044EB53E40E949A3620E030E040E87A
:1056100051E40E9468380E94CB3820E030E040E836
:105620005FE30E94CD350E9407376093FD0561312D
:1056300008F47CC01092FD0579C0809191048230FD
:1056400008F474C080919004853008F46FC0D09045
:105650003906FDE1FD1508F469C0E0909204F09070
:105660009304009194041091950460913A0670910E
:105670003B0680913C0690913D06A80197010E944F
:10568000CC359F7720E030E040E05FE30E945D385A
:1056900018165CF410923906E0923A06F0923B0636
:1056A00000933C0610933D0641C08D2D8F5F809383
:1056B00039068E31D9F580917A0490917B04A091BE
:1056C0007C04B0917D048093240690932506A093DA
:1056D0002606B093270680918C0490918D04A091AA
:1056E0008E04B0918F048093280690932906A0938E
:1056F0002A06B0932B06E092F905F092FA05009382
:10570000FB051093FC058091A6049091A704A0913D
:10571000A804B091A90480936A0390936B03A093AB
:105720006C03B0936D0381E0809314060F900F908B
:105730000F900F90CF91DF911F910F91FF90EF90FD
:10574000DF90CF90BF90AF909F908F907F906F90A1
:105750005F904F903F902F9008950E940A1A0E94E8
:10576000760C8DE594E00E94CA280E94B81F089527
:10577000EF92FF920F931F930E946707892BB9F452
:10578000E0903506F0903606009137061091380605
:1057900084E690E0A0E0B0E0E80EF91E0A1F1B1FAF
:1057A0000E945E34E616F7060807190760F40E94A7
:1057B0005E34609335067093360680933706909377
:1057C00038060E94AD2B1F910F91FF90EF90089526
:1057D0006EBD0DB407FEFDCF8EB508958DE061E07E
:1057E0000E9400358BE061E00E9400358CE060E0B3
:1057F0000E9400358AE061E00E9400351CBC80E513
:105800008CBD8DB58EB5089582E496E00E94EE2B96
:1058100008958FEF9FE70895DF93CF93CDB7DEB75D
:10582000FE0139968D819E8161E04F8158859F01EF
:105830000E94AD2ECF91DF910895DF93CF93CDB726
:10584000DEB7FE0139968D819E8160E04F815885DB
:105850009F010E94AD2ECF91DF9108950F931F936A
:10586000DC01ED91FC910288F389E02D20E030E02D
:1058700000E010E009951F910F9108958F92AF926B
:10588000CF92EF92FF920F931F93DF93CF93CDB7F9
:10589000DEB7FC011382128288EE93E0A0E0B0E054
:1058A00084839583A683B78387EB93E0918380837A
:1058B0005587448737872687118B008BF38AE28AC6
:1058C000C48AA58A868A70E0CB0123E0880F991FDD
:1058D0002A95E1F79C012D5B394F308F278B855B33
:1058E000994F928F818F81E090E002C0880F991FBD
:1058F0006A95E2F720915306282B20935306CF0197
:1059000040E051EE60E070E00E942E2CCF91DF91DC
:105910001F910F91FF90EF90CF90AF908F900895CF
:10592000FC01838D882319F42FEF3FEF0DC007880A
:10593000F08DE02D2081318182819381281B390BEC
:105940008481958128233923C9010895FC01838D21
:10595000882319F42FEF3FEF11C0018CF28DE02D59
:105960002081318182819381281B390B20953095CC
:1059700084819581282339232F5F3F4FC9010895E2
:10598000FC01838D882361F0A789B08D2D913C9116
:10599000119712968D919C9113972817390721F42E
:1059A0004FEF5FEFCA01089512968D919C91139766
:1059B0001696ED91FC911797E80FF91F408112960A
:1059C0008D919C911397019614962D913C9115976A
:1059D0008223932313969C938E93129750E0E2CFE9
:1059E000FC01838D882351F00788F08DE02D208104
:1059F0003181828193812817390721F42FEF3FEFFE
:105A0000C9010895828193810680F781E02DE80F16
:105A1000F91F8081282F30E0F3CFDC015796ED91FC
:105A2000FC91589782819381918380835996ED915F
:105A3000FC915A9780819181938382830895DC0140
:105A40005B968C915B978823A9F15996ED91FC9117
:105A50005A97208131812F5F3F4F84819581282380
:105A600039235C968C915C97882329F082819381FD
:105A700028173907F9F08281938128173907D9F35C
:105A8000808191810680F781E02DE80FF91F608306
:105A90005996ED91FC915A97318320835296ED915E
:105AA000FC915397808156969C91892B808321E0AD
:105AB00030E002C020E030E0C9010895CF93DF93C9
:105AC000EC011B821A828A819B81998388831D82C3
:105AD0001C828E819F81009721F00E947E331F825D
