:100000000C9451020C9479020C9479020C947902AC
:100010000C9479020C9479020C9479020C94790274
:100020000C9479020C9479020C9479020C94790264
:100030000C9479020C9479020C9479020C94790254
:100040000C9450340C9479020C94BF050C94FB056D
:100050000C9479020C9479020C9479020C94790234
:100060000C9479020C947902084AD73B3BCE016E7E
:1000700084BCBFFDC12F3D6C74319ABD56833DDAFF
:100080003D00C77F11BED9E4BB4C3E916BAAAABE0E
:10009000000000803F05A84CCDB2D44EB93836A937
:1000A000020C50B9918688083CA6AAAA2ABE000074
:1000B00000803F0664EC1B3C04BC163E3BE5B93CAB
:1000C000C93C37C29E5A3D660498083EEA69AAAA0E
:1000D0003E000000803F00070E091C1B1215383F30
:1000E000363124232A2D70777E796C6B6265484FF8
:1000F000464154535A5DE0E7EEE9FCFBF2F5D8DFE8
:10010000D6D1C4C3CACD90979E998C8B8285A8AF57
:10011000A6A1B4B3BABDC7C0C9CEDBDCD5D2FFF847
:10012000F1F6E3E4EDEAB7B0B9BEABACA5A28F88B7
:10013000818693949D9A2720292E3B3C35321F18A7
:10014000111603040D0A5750595E4B4C45426F6817
:10015000616673747D7A898E878095929B9CB1B617
:10016000BFB8ADAAA3A4F9FEF7F0E5E2EBECC1C677
:10017000CFC8DDDAD3D4696E676075727B7C515667
:100180005F584D4A4344191E171005020B0C2126D7
:100190002F283D3A33344E49404752555C5B7671C7
:1001A000787F6A6D64633E39303722252C2B060137
:1001B000080F1A1D1413AEA9A0A7B2B5BCBB969127
:1001C000989F8A8D8483DED9D0D7C2C5CCCBE6E197
:1001D000E8EFFAFDF4F32020BF0020BF00BF007C51
:1001E000202020202020202020202020202020200F
:1001F00020202000C8202020202020202020202077
:1002000020C900C8202020202020202020202020BD
:10021000C97C00D820202020202020202020202041
:10022000D97C00C820202020202020202020202031
:10023000C97C00C820202020202020202020202031
:10024000C97C006D696E6F706F7364206A646C2086
:10025000322E353300626F6F74696E672075703AA5
:10026000EDF2F2F2F2F2F2F2F30063616C696272A3
:100270006174657C7C6D6561737572656420616D08
:10028000703A20200063616C6962726174657C7CE5
:100290006D6561737572656420616D703A20200030
:1002A00063616C6962726174657C7C6D6561737594
:1002B00072656420766F6C743A20006C69706F20F0
:1002C000626174742063656C6C7C7C7761726E69AA
:1002D0006E67206C6576656C3A20006261747420EC
:1002E00063617061636974793A003473206C696981
:1002F0006F6E006C69706F20202020006261747442
:1003000020747970653A200073657475702073638A
:100310007265656E7C7C7C004368617220446F6E00
:10032000650A00526561647920666F7220466F6EBF
:10033000740A007570646174652063686172736526
:10034000740000407A10F35A00A0724E1809001091
:10035000A5D4E80000E87648170000E40B5402003A
:1003600000CA9A3B000000E1F50500008096980065
:10037000000040420F000000A0860100000010278E
:1003800000000000E803000000006400000000001E
:100390000A00000000000100000000002C76D88850
:1003A000DC674F0823DFC1DFAE59E1B1B796E5E363
:1003B000E453C63AE651997696E8E6C28426EB897C
:1003C0008C9B62ED407C6FFCEFBC9C9F40F2BAA519
:1003D0006FA5F490055A2AF75C936B6CF9676DC1B1
:1003E0001BFCE0E40D47FEF520E6B500D0ED902EB5
:1003F0000300943577050080841E080000204E0A13
:10040000000000C80C333333330F986E1283114150
:10041000EF8D2114893BE65516CFFEE6DB18D1841B
:100420004B381BF77C1D901DA4BBE4242032847242
:100430005E228100C9F124ECA1E53D276E616E00CA
:10044000696E660000000000240027002A000000FA
:100450000000250028002B000000000023002600DB
:100460002900040404040404040402020202020237
:100470000303030303030102040810204080010268
:1004800004081020010204081020000000070002E8
:1004900001000003040600000000000000006B07DC
:1004A0003E2C11241FBECFEFD8E0DEBFCDBF13E03E
:1004B000A0E0B1E0E0EFF4E702C005900D92A03DAE
:1004C000B107D9F716E0A0EDB3E001C01D92A63543
:1004D000B107E1F714E0C2EAD4E004C02297FE01BC
:1004E0000E94723ACE39D107C9F70E94F2350C94B6
:1004F000763A0C940000283008F027E03327DA0120
:10050000990F311D87FD916000966105710539F4E1
:1005100032602E5F3D9330E32A95E1F708959F3FC7
:1005200030F080387105610509F03C5F3C5F3D9318
:10053000913008F08068911DDF93CF931F930F9344
:10054000FF92EF92192F987F9695E92F96959695A1
:10055000E90FFF27E456FC4F99273327EE24FF24A9
:10056000A701E70105900894079428F4360FE71EC9
:10057000F81E491F511D660F771F881F991F06948B
:10058000A1F70590079428F4E70EF81E491F561F9F
:10059000C11D770F881F991F661F0694A1F705904C
:1005A000079428F4F80E491F561FC71FD11D880F46
:1005B000991F661F771F0694A1F70590079420F4F2
:1005C000490F561FC71FD81F990F661F771F881F17
:1005D0000694A9F784911095177041F0D695C795A8
:1005E00057954795F794E7941A95C1F7E2E4F3E03D
:1005F00068941590159135916591959105907FE2DC
:100600007395E118F10A430B560BC90BD009C0F7DB
:10061000E10CF11E431F561FC91FD01D7EF470331D
:1006200011F48A95E6CFE894015030F0080F0AF4EF
:100630000027021708F4202F2395022F7A3328F081
:1006400079E37D932A95E9F710C07D932A9589F681
:10065000069497956795379517951794E118F10AC1
:10066000430B560BC90BD00998F023957E917395D7
:100670007A3308F070E37C932013B8F77E917061B1
:100680007D9330F0839571E37D9370E32A95E1F7D4
:100690001124EF90FF900F911F91CF91DF91992737
:1006A00087FD90950895FA01AA27283051F120314D
:1006B00081F1E8946F936E7F6E5F7F4F8F4F9F4FF6
:1006C000AF4FB1E03ED0B4E03CD0670F781F891F38
:1006D0009A1FA11D680F791F8A1F911DA11D6A0F06
:1006E000711D811D911DA11D20D009F468943F91B9
:1006F0002AE0269F11243019305D3193DEF6CF01B8
:100700000895462F4770405D4193B3E00FD0C9F77D
:10071000F6CF462F4F70405D4A3318F0495D31FDEA
:100720004052419302D0A9F7EACFB4E0A69597953D
:10073000879577956795BA95C9F700976105710513
:1007400008959B01AC010A2E06945795479537955D
:100750002795BA95C9F7620F731F841F951FA01DB7
:100760000895FC010590615070400110D8F7809504
:1007700090958E0F9F1F0895FC016150704001906D
:100780000110D8F7809590958E0F9F1F0895FC015A
:100790001382128288EE93E0A0E0B0E08483958318
:1007A000A683B78381E793E0918380830895FC015A
:1007B0008089803419F421E030E002C020E030E08C
:1007C000C9010895FC01818990E0089580E090E0DE
:1007D000089580E090E0089580E090E00895089505
:1007E000EF92FF921F93CF93DF93162F7A0186E04B
:1007F00060E00E949E3586E396E060E00E94222C35
:1008000086E396E060E00E94222C86E396E069E0B1
:100810000E94222C86E396E0612F0E94222CC0E0E9
:10082000D0E0F701EC0FFD1F108186E396E06AE04F
:100830000E94222C86E396E06C2F0E94222C86E3F5
:1008400096E06BE00E94222C86E396E0612F0E94E6
:10085000222C2196C633D10521F786E396E068E085
:100860000E94222C86E396E060EA0E94222C86E316
:1008700096E060EA0E94222C85FDF9CF86E396E09F
:1008800060E00E94222C86E396E06CE00E94222C1D
:1008900086E061E00E949E35DF91CF911F91FF902D
:1008A000EF9008951F93CF93DF93EC01162F86E00E
:1008B00060E00E949E3586E396E060E00E94222C74
:1008C000112319F0113059F404C086E396E06889C9
:1008D00004C068896C6186E396E00E94222C86E061
:1008E00061E00E949E35DF91CF911F910895EF92B4
:1008F000FF920F931F937C0106E316E0C80167E0A7
:100900000E94222CC8016FEF0E94222C86E061E039
:100910000E949E35F70187858F5F87871F910F9112
:10092000FF90EF900895EF92FF920F931F93FC01B9
:10093000E7848EE1E89E700111248685E80EF11CA3
:1009400086E060E00E949E3506E316E0C80164E0A0
:100950000E94222CC80163E00E94222CC80165E09D
:100960000E94222CC8016F2D0E94222CC80166E033
:100970000E94222CC8016E2D0E94222C1F910F91E3
:10098000FF90EF900895FC0164874587668747874D
:100990000E94930408951F93CF93DF93EC01162FC9
:1009A0006C3731F40E947704CE010E9493040AC090
:1009B00086E396E067E00E94222C86E396E0612FB2
:1009C0000E94222C81E090E0DF91CF911F91089549
:1009D000EF92FF920F931F938EE1489F70011124B5
:1009E000E60EF11C86E060E00E949E3506E316E00C
:1009F000C80165E00E94222CC8016F2D0E94222CA4
:100A0000C80166E00E94222CC8016E2D0E94222C93
:100A10001F910F91FF90EF9008950F931F9386E021
:100A200060E00E949E3506E316E0C80164E00E9483
:100A3000222CC80164E00E94222C61E070E080E07A
:100A400090E00E94A63486E061E00E949E351F91EE
:100A50000F9108951F93CF93DF93EC01188A16E04E
:100A6000198B88E496E060E973E00E9408338130D6
:100A700049F480E4888B88E0898B86E060E00E94FE
:100A80009E3502C0188A198B86E060E00E949E3570
:100A9000DF91CF911F9108950F931F93CF93DF9311
:100AA000EC0186E061E00E945F3582E060E00E9438
:100AB0005F3582E061E00E949E35CE010E942A05EA
:100AC00086E060E00E949E3586E396E06CEE0E9430
:100AD000222C86E396E06FEF0E94222C182F86E3EB
:100AE00096E060E00E94222C6889626086E396E0CE
:100AF0000E94222C62E370E080E090E00E94A63425
:100B000086E396E06CE60E94222C1F7E86E396E048
:100B1000612F0E94222C8889803419F00DE010E0AA
:100B200002C000E110E01092D1031092D00317C070
:100B30006091D0037091D103605F86E396E00E94DC
:100B4000222C86E396E069E00E94222C8091D0035B
:100B50009091D10301969093D1038093D00380911B
:100B6000D0039091D1038017910714F3CE0161E077
:100B70000E945204DF91CF911F910F9108951F920F
:100B80000F920FB60F9211242F933F934F938F9391
:100B90009F93EF93FF934091C600209137063091C9
:100BA00038062F5F3F4F80913B0690913C062823EB
:100BB00039238091390690913A062817390779F040
:100BC0008091370690913806E0913D06F0913E06FF
:100BD000E80FF91F40833093380620933706FF91C2
:100BE000EF919F918F914F913F912F910F900FBE59
:100BF0000F901F9018951F920F920FB60F9211240D
:100C00002F933F938F939F93EF93FF9320914106F0
:100C10003091420680913F0690914006281739078F
:100C2000E9F08091410690914206E0914506F091ED
:100C30004606E80FF91F80818093C6008091410627
:100C400090914206019620914306309144068223FA
:100C50009323909342068093410610C020913F0653
:100C6000309140068091410690914206281739073D
:100C700029F48091C1008F7D8093C100FF91EF9195
:100C80009F918F913F912F910F900FBE0F901F90CA
:100C90001895CF93DF93482FEB018091B3058330F4
:100CA00009F45FC0843028F48130D1F0823068F5D7
:100CB0000AC0853009F4D4C0853008F4AAC0863053
:100CC00009F0F4C0EBC04C3309F0F0C081E0809330
:100CD000B3054883E2E1F1E0E491E093B205E6C0B8
:100CE000842F90E0E091B205F0E0E827F927EA527E
:100CF000FF4FE491E093B205887F9070809741F5B3
:100D000082E08093B305498329C0242F30E0E0912D
:100D1000B205F0E0E227F327EA52FF4FE491E093B7
:100D2000B2058091B1058F5F8093B105823018F4D0
:100D30003B832A83BBC0922F88272A813B81820F65
:100D4000931F9B838A830A978F3F910521F018F0A8
:100D50001092B305ABC083E08093B3051092B10548
:100D6000A5C0E42FF0E08091B20590E0E827F927D4
:100D7000EA52FF4FE491E093B2056091B1056F5FD5
:100D80006093B105623089F0633020F4613009F07E
:100D90008DC006C0633091F0643009F087C022C076
:100DA000842F90E0A0E0B0E018C0242F30E040E0B5
:100DB00050E0542F432F322F222707C0242F30E03A
:100DC00040E050E0A901332722278C819D81AE812C
:100DD000BF81820F931FA41FB51F8C839D83AE8399
:100DE000BF8364C0242F30E040E050E0522F4427FE
:100DF000332722278C819D81AE81BF81820F931F73
:100E0000A41FB51F8C839D83AE83BF836093B305FE
:100E1000A5CF242F30E0E091B205F0E0E227F327E0
:100E2000EA52FF4FE491E093B2056091B1056F5F24
:100E30006093B105613019F06230C1F503C03987A4
:100E4000288734C0922F882728853985280F391F95
:100E5000398728878A819B810A97F1F085E07CCFCA
:100E6000E42FF0E08091B20590E0E827F927EA52FC
:100E7000FF4FE491E093B2052091B1052F5F2093DD
:100E8000B10530E0FB01E20FF31F41878A819B81AE
:100E90000A972817390750F086E05ECFC75FDE4F0C
:100EA0004883C950D14087E08093B3058091B30552
:100EB000873069F41092B305C75FDE4F9091B20599
:100EC0008881C950D140981711F48A8101C080E00F
:100ED000DF91CF9108958F92AF92CF92EF92FF92D0
:100EE0000F931F9380E494E060E045EC50E024EC25
:100EF00030E000EC10E0B1ECEB2EF12CCC24C394EC
:100F0000A8E9AA2EF0E28F2E0E94782C8DE594E0BD
:100F10000E94C7031F910F91FF90EF90CF90AF9069
:100F20008F90089560917E0470917F048091800479
:100F30009091810420E030E040E152E40E94C73803
:100F400020E030E044EB53E40E94F9360E942A3955
:100F50000E9461379B012550304037FF03C09B0141
:100F6000215E3F4FA3ECB5E0F901ED56FC4F8081C7
:100F70008C932F5F3F4F2432310514F020E030E096
:100F8000119685E0AE3CB80779F71C9208952F9230
:100F90003F924F925F926F927F928F929F92AF9209
:100FA000BF92CF92DF92EF92FF920F931F93DF9346
:100FB000CF9300D000D000D0CDB7DEB7182F662E6B
:100FC00020917404309175042A35310530F0C9013F
:100FD0008D549F4F89359105E8F437FF02C02D5499
:100FE0003F4FC90137FF03C0909581959F4F8A31CC
:100FF00091053CF004E4802E912CB9ED2B2E312C80
:101000001DC00A975CF1ABE38A2E912CF2ED2F2ED6
:10101000312C20C02B35310514F0235B3040C90141
:1010200037FF03C0909581959F4F8A31910554F009
:10103000E6E58E2E912C7CED272E312C67E0A62E36
:10104000B12C15C00A9754F05DE4852E912C44ED27
:10105000242E312C38E0A32EB12C09C025E0822E9D
:10106000912C98E3292E312C89E0A82EB12C609187
:10107000760470917704882777FD8095982F0E94D9
:10108000943727EA32E94BE25CEB0E94C7380E94B2
:101090009B3920E030E040EA50E40E94C73820E06D
:1010A00030E040E951E40E94C7380E942A3920E02C
:1010B00030E044E352E40E942C360E946137712EE6
:1010C0000EEBC02E0FEFD02E9B01442737FD40952D
:1010D000542F29833A834B835C831DE5412E14E012
:1010E000512E4AEF5FEF240E351E6091740470910B
:1010F0007504882777FD8095982F0E94943725E303
:101100003AEF4EE85CE30E94C7380E949B397B01AE
:101110008C01B601882777FD8095982F0E9494371F
:101120009B01AC01C801B7010E94C7387B018C014B
:1011300069817A818B819C810E9494379B01AC01EB
:10114000C801B7010E942C360E9461379B01CB0178
:1011500001978A35910508F071C062E170E00E9444
:101160000C3A8B012F5F3F4FAEEEBFEF6A9FC0017D
:101170006B9F900D7A9F900D1124820F931F62E058
:1011800070E00E940C3A6D837E83E62CE01A4E2DAF
:101190004C5F8DE594E0672D0E94E80400D000D0FC
:1011A00000D0EDB7FEB73196ADB7BEB712965C92E0
:1011B0004E92119720E031E0338322838D819E810E
:1011C000880D991D958384830E94572C4DB75EB777
:1011D0004A5F5F4F0FB6F8945EBF0FBE4DBF8D8163
:1011E0009E818A159B0554F1043011053CF593E06E
:1011F000E90EC201672D4E2D0E94E80400D000D0F8
:1012000000D0EDB7FEB73196ADB7BEB712965C927F
:101210004E92119720E031E0338322834D815E812D
:10122000420D531D558344830E94572C8DB79EB7A2
:1012300006960FB6F8949EBF0FBE8DBFACE0B0E02F
:10124000CA0EDB1E7394BEE4CB16D10409F04DCF59
:1012500026960FB6F894DEBF0FBECDBFCF91DF91BB
:101260001F910F91FF90EF90DF90CF90BF90AF90C4
:101270009F908F907F906F905F904F903F902F90B6
:101280000895CF92DF92EF92FF920F931F938230D7
:1012900010F402E002C0082F000F6091B4057091B5
:1012A000B5058091B6059091B7050E9494376B0102
:1012B0007C0120E030E44CE156E40E94F236202F1D
:1012C00030E04DE554E0882334F58DB79EB70E9796
:1012D0000FB6F8949EBF0FBE8DBFEDB7FEB7319627
:1012E000ADB7BEB712965C934E93119783E091E031
:1012F0009383828322573F4F358324832F5F3F4F51
:1013000037832683C086D186E286F3868DE890E017
:101310009587848734C08DB79EB70E970FB6F89423
:101320009EBF0FBE8DBF0DB71EB70F5F1F4FADB76E
:10133000BEB712965C934E9311978FE091E0F8013F
:101340009383828322573F4F358324832F5F3F4F00
:1013500037832683C701B60120E030E04AE754E432
:101360000E94F936D80118966D937D938D939C93C6
:101370001B978DEF90E01D969C938E931C970E9477
:10138000572CEDB7FEB73E960FB6F894FEBF0FBED2
:10139000EDBF1F910F91FF90EF90DF90CF900895D8
:1013A000CF93DF93AC01E0918704F0918804209102
:1013B000B8053091B905C9018C599F4F8E179F0709
:1013C0001CF4EA01219609C024563040E217F307C5
:1013D00014F0EA0102C0EA012197842F90E0C817B7
:1013E000D90729F088E496E04C2F0E940F33CE01F4
:1013F000DF91CF910895CF92DF92EF92FF920F93FA
:101400001F93CF93DF937C016B01EA0100D000D0E2
:101410000DE514E0EDB7FEB7128301838FED91E087
:10142000948383830E94462C0F900F900F900F900F
:10143000CA30D10581F0C436D10521F0C130D105C3
:1014400019F512C000D000D0EDB7FEB712830183AA
:101450008DED91E011C000D000D0EDB7FEB7128342
:1014600001838AED91E008C000D000D0EDB7FEB74F
:101470001283018386ED91E0948383830E94462C3E
:101480000F900F900F900F90409187045091880417
:101490002091B8053091B905C9018C599F4F841727
:1014A00095071CF4CE0DDF1D0BC0245630404217AB
:1014B000530714F0E70116C0C7018C1B9D0BEC010C
:1014C000CE15DF0579F088E496E0B6014C2F0E9436
:1014D0000F330894C11CD11C88E496E0B6014D2F4F
:1014E0000E940F33CE01DF91CF911F910F91FF909A
:1014F000EF90DF90CF900895CF92DF92EF92FF921E
:101500000F931F937C01D62EC72E0DE514E0C80162
:101510006E2D4D2D0E94C30400D000D0EDB7FEB754
:101520001283018383E392E0948383830E94462C99
:10153000EDB7FEB71283018383E292E09483838345
:101540000E94462CEDB7FEB71283018383E192E03F
:10155000948383830E94462CEDB7FEB712830183E8
:1015600083E092E0948383830E94462CEDB7FEB71C
:101570001283018384EF91E0948383830E94462C3D
:101580000F900F900F900F90C8010E947704C70131
:1015900001966D2D7C2D0E94C7071F910F91FF9022
:1015A000EF90DF90CF9008950F931F93282F462F31
:1015B0000DE514E0C801622F0E94C3042091BA0512
:1015C0003091BB058DB79EB70C970FB6F8949EBFB0
:1015D0000FBE8DBFEDB7FEB73196ADB7BEB7129651
:1015E0001C930E9311978BE191E09383828383EB9D
:1015F00090E095838483C9016CE370E00E940C3A0B
:10160000CB016CE370E00E940C3A978386838AE3F7
:1016100090E091878087C9016CE370E00E940C3AEA
:10162000938782870E94572C8DB79EB70C960FB672
:10163000F8949EBF0FBE8DBFC8010E9477041F9112
:101640000F9108950F931F93282F462F0DE514E057
:10165000C801622F0E94C30400D000D0EDB7FEB7CE
:101660001283018387E291E0948383830E94572C45
:101670000F900F900F900F90C8010E9477041F9158
:101680000F9108950F931F93282F462F0DE514E017
:10169000C801622F0E94C3048DB79EB70C970FB686
:1016A000F8949EBF0FBE8DBFEDB7FEB73196ADB7B4
:1016B000BEB712961C930E9311978FE291E093831D
:1016C000828387EB90E0958384838091540390918B
:1016D0005503A0915603B091570386839783A08743
:1016E000B18785E290E0938782870E94572C8DB75F
:1016F0009EB70C960FB6F8949EBF0FBE8DBFC80163
:101700000E9477041F910F910895EF92FF920F931B
:101710001F93282F462F8DE5E82E84E0F82EC70171
:10172000622F0E94C3048DB79EB70C970FB6F89432
:101730009EBF0FBE8DBF0DB71EB70F5F1F4FEDB71A
:10174000FEB7F282E18289E391E0F801938382831C
:1017500084EE90E0958384836091BC057091BD0513
:10176000882777FD8095982F0E9494372AE037EDDF
:1017700043E25CE30E94C738F80166837783808781
:1017800091878FE890E0938782870E94572C8DB7CE
:101790009EB70C960FB6F8949EBF0FBE8DBFC701C3
:1017A0000E9477041F910F91FF90EF900895CF92C0
:1017B000DF92EF92FF920F931F93CF93DF93282F27
:1017C000462F8DE594E0622F0E94C304C090BE05B1
:1017D000D090BF05E090C005F090C105C0915903BD
:1017E000D0915A03809158032091C205829FC00175
:1017F0001124805D9E4F8C9FB0018D9F700D9C9F2A
:10180000700D1124882777FD8095982F0E949437BA
:1018100020E030E048EC52E40E94F9369B01AC0134
:10182000C701B6010E94F236181614F428EB01C065
:1018300024EB8DB79EB740970FB6F8949EBF0FBEAE
:101840008DBFEDB7FEB731960DE514E0ADB7BEB76D
:1018500012961C930E93119783E491E093838283F5
:10186000D583C48380E890E097838683822F99276D
:1018700087FD909591878087C286D386E486F5861A
:101880008EE890E0978786870E94572C8DB79EB789
:1018900040960FB6F8949EBF0FBE8DBFC8010E9440
:1018A0007704DF91CF911F910F91FF90EF90DF9020
:1018B000CF9008950F931F93282F462F8DE594E026
:1018C000622F0E94C30480918404882319F421E5C7
:1018D00031E057C0813019F425E531E052C0823043
:1018E00019F429E531E04DC0833019F42DE531E0DC
:1018F00048C0843019F421E631E043C0853019F442
:1019000025E631E03EC0863019F429E631E039C0E1
:10191000873019F42DE631E034C0883019F421E71E
:1019200031E02FC0893019F425E731E02AC08A3030
:1019300019F429E731E025C08B3019F42DE731E0A7
:1019400020C08C3019F421E831E01BC08D3019F42F
:1019500025E831E016C08E3019F429E831E011C0D5
:101960008F3019F42DE831E00CC0803119F421E9F1
:1019700031E007C0813119F025E931E002C026E9E4
:1019800031E08150863030F480918304882311F057
:1019900044E001C040EE8DB79EB708970FB6F894AB
:1019A0009EBF0FBE8DBFEDB7FEB731960DE514E0BB
:1019B000ADB7BEB712961C930E9311978AE991E0CA
:1019C00093838283842F992787FD909595838483C1
:1019D000378326830E94572C8DB79EB708960FB683
:1019E000F8949EBF0FBE8DBFC8010E9477041F915F
:1019F0000F9108950F931F93282F462F0DE514E0A4
:101A0000C801622F0E94C3048DB79EB70A970FB614
:101A1000F8949EBF0FBE8DBFEDB7FEB73196ADB740
:101A2000BEB712961C930E9311978FE991E09383A2
:101A3000828387E890E095838483809185049091E8
:101A400086049783868385E290E0918780870E9451
:101A5000572C8DB79EB70A960FB6F8949EBF0FBE4F
:101A60008DBFC8010E9477041F910F9108950F93B5
:101A70001F93282F462F0DE514E0C801622F0E9406
:101A8000C3048DB79EB708970FB6F8949EBF0FBEDC
:101A90008DBFEDB7FEB73196ADB7BEB712961C93AA
:101AA0000E93119789EA91E0938382838091760463
:101AB000909177049583848381EB90E0978386836C
:101AC0000E94572C8DB79EB708960FB6F8949EBF0C
:101AD0000FBE8DBFC8010E9477041F910F9108951A
:101AE0000F931F93282F462F0DE514E0C801622F96
:101AF0000E94C3048DB79EB708970FB6F8949EBF97
:101B00000FBE8DBFEDB7FEB73196ADB7BEB712961B
:101B10001C930E93119789EA91E0938382838091BD
:101B20007404909175049583848382EB90E097838D
:101B300086830E94572C8DB79EB708960FB6F894EF
:101B40009EBF0FBE8DBFC8010E9477041F910F91E9
:101B500008950F931F93282F462F0DE514E0C80119
:101B6000622F0E94C3048DB79EB70A970FB6F894F0
:101B70009EBF0FBE8DBFEDB7FEB73196ADB7BEB7F6
:101B800012961C930E9311978FEA91E093838283B0
:101B900081EE90E09583848380915303992787FD9C
:101BA0009095978386838CE890E0918780870E9448
:101BB000572C8DB79EB70A960FB6F8949EBF0FBEEE
:101BC0008DBFC8010E9477041F910F9108950F9354
:101BD0001F93282F462F0DE514E0C801622F0E94A5
:101BE000C3048DB79EB742970FB6F8949EBF0FBE41
:101BF0008DBFEDB7FEB73196ADB7BEB712961C9349
:101C00000E93119787EB91E09383828388EC91E0A8
:101C10009583848380917E0490917F04A0918004B9
:101C2000B091810486839783A087B18780EB90E091
:101C30009387828780ED90E09587848783EC95E099
:101C40009787868781ED90E0918B808B0E94572C3F
:101C50008DB79EB742960FB6F8949EBF0FBE8DBF4C
:101C6000C8010E9477041F910F910895EF92FF928F
:101C70000F931F93CF93DF93282F462F8DE594E08A
:101C8000622F0E94C304E0909904F0909A0400919E
:101C90009B0410919C04C801B70120E030E040E0B3
:101CA00050E00E94BC38181614F42BE701C02DE751
:101CB0008DB79EB70C970FB6F8949EBF0FBE8DBF21
:101CC000CDB7DEB721968DE594E0EDB7FEB79283F0
:101CD000818382ED91E09B838A832C831D82C801DE
:101CE000B70120E030E040E752E40E94C7380E948C
:101CF00061379B0177FF03C0309521953F4FB901B4
:101D0000882777FD8095982F0E9494376E837F8374
:101D1000888799878FE790E09B878A870E94572C56
:101D20008DB79EB70C960FB6F8949EBF0FBE8DBFB1
:101D30008DE594E00E947704DF91CF911F910F9180
:101D4000FF90EF900895CF92DF92EF92FF920F9362
:101D50001F93CF93DF93282F462FCDE5D4E0CE01FC
:101D6000622F0E94C304C090CF05D090D005E090B0
:101D7000D105F090D205C701B6010E946137695EB6
:101D80007340804090408CF18DB79EB70C970FB692
:101D9000F8949EBF0FBE8DBF0DB71EB70F5F1F4FCC
:101DA000ADB7BEB71296DC93CE93119789E391E05D
:101DB000F801938382838EEF90E095838483C7013B
:101DC000B60120E030E04AE754E40E94F936D80139
:101DD00016966D937D938D939C9319978DEF90E05C
:101DE0001B969C938E931A9721C08DB79EB70C9724
:101DF0000FB6F8949EBF0FBE8DBFEDB7FEB73196FC
:101E0000ADB7BEB71296DC93CE9311978CED91E0EF
:101E1000938382838EEF90E095838483C682D782FA
:101E2000E086F1868DE890E0938782870E94572CA8
:101E3000EDB7FEB73C960FB6F894FEBF0FBEEDBFF0
:101E40008DE594E00E947704DF91CF911F910F916F
:101E5000FF90EF90DF90CF900895CF92DF92EF92B6
:101E6000FF920F931F93282F462F3DE5C32E34E09A
:101E7000D32EC601622F0E94C3048DB79EB744972C
:101E80000FB6F8949EBF0FBE8DBF0DB71EB70F5F84
:101E90001F4FEDB7FEB7D282C18286EE91E0F80106
:101EA0009383828388EE90E0958384836091D30549
:101EB0007091D4058091D5059091D60526E636E639
:101EC00046E650E40E94C738F8016683778380872E
:101ED000918791E8E92EF12CF386E28689E890E07B
:101EE000958784876091A2047091A3048091A404D3
:101EF0009091A50426E636E646E650E40E94C738EF
:101F0000F80166877787808B918BF38AE28A0E943B
:101F1000572C8DB79EB744960FB6F8949EBF0FBE50
:101F20008DBFC6010E9477041F910F91FF90EF9023
:101F3000DF90CF900895EF92FF920F931F93282F79
:101F4000462F5DE5E52E54E0F52EC701622F0E9475
:101F5000C3048DB79EB70C970FB6F8949EBF0FBE03
:101F60008DBF0DB71EB70F5F1F4FEDB7FEB7F282E3
:101F7000E1828AEF91E0F8019383828389EE90E019
:101F80009583848360919504709196048091970461
:101F90009091980426E636E646E650E40E94C7385B
:101FA000F801668377838087918781E890E0938743
:101FB00082870E94572C8DB79EB70C960FB6F89467
:101FC0009EBF0FBE8DBFC7010E9477041F910F9166
:101FD000FF90EF9008950F931F93282F462F0DE544
:101FE00014E0C801622F0E94C3048DB79EB70C97FE
:101FF0000FB6F8949EBF0FBE8DBFEDB7FEB73196FA
:10200000ADB7BEB712961C930E9311978CED91E06D
:102010009383828385E890E0958384838091910403
:1020200090919204A0919304B09194048683978335
:10203000A087B1878DE890E0938782870E94572C14
:102040008DB79EB70C960FB6F8949EBF0FBE8DBF8E
:10205000C8010E9477041F910F910895EF92FF929B
:102060000F931F93282F462F8091D705882309F4BB
:102070004EC080919004823008F449C06DE5E62E90
:1020800064E0F62EC701622F0E94C3048DB79EB78D
:102090000C970FB6F8949EBF0FBE8DBF0DB71EB73D
:1020A0000F5F1F4FEDB7FEB7F282E18282ED91E044
:1020B000F8019383828387EE90E095838483609117
:1020C00091047091920480919304909194042091D2
:1020D000D8053091D9054091DA055091DB050E9471
:1020E0002B36F80166837783808791878DE890E0AF
:1020F000938782870E94572C8DB79EB70C960FB698
:10210000F8949EBF0FBE8DBFC7010E9477041F9138
:102110000F91FF90EF9008950F931F93282F462F54
:102120000DE514E0C801622F0E94C3048091DC0514
:102130000E944109C8010E9477041F910F910895E0
:10214000CF92DF92EF92FF920F931F93CF93DF9383
:10215000282F462FCDE5D4E0CE01622F0E94C30484
:102160006091DD057091DE058091DF059091E005BD
:102170000E9494376B017C0120E030E44CE156E48E
:102180000E94F236882314F58DB79EB70C970FB6D0
:10219000F8949EBF0FBE8DBFEDB7FEB73196ADB7B9
:1021A000BEB71296DC93CE93119782ED91E09383A4
:1021B000828382E190E095838483C682D782E08621
:1021C000F1868DE890E09387828730C08DB79EB707
:1021D0000C970FB6F8949EBF0FBE8DBF0DB71EB7FC
:1021E0000F5F1F4FADB7BEB71296DC93CE9311971A
:1021F00084E092E0F8019383828382E190E095830A
:102200008483C701B60120E030E04AE754E40E942D
:10221000F936D80116966D937D938D939C931997FB
:102220008DEF90E01B969C938E931A970E94572CEB
:10223000EDB7FEB73C960FB6F894FEBF0FBEEDBFEC
:102240008DE594E00E947704DF91CF911F910F916B
:10225000FF90EF90DF90CF900895EF92FF920F9351
:102260001F93282F462F8DE594E0622F0E94C30410
:102270002091E1053091E20537FF02C04AE801C034
:1022800047EF8DB79EB744970FB6F8949EBF0FBE29
:102290008DBF0DB71EB70F5F1F4F7DE5E72E74E0B2
:1022A000F72EEDB7FEB7F282E1828EE092E0F80100
:1022B00093838283842F992787FD909595838483C8
:1022C000B901882777FD8095982F0E949437F801EF
:1022D00066837783808791878DE890E093878287F4
:1022E0008BEF90E0958784878091E3059091E405DA
:1022F000A091E505B091E60586879787A08BB18B05
:102300008CEF90E0938B828B0E94572C8DB79EB7F9
:1023100044960FB6F8949EBF0FBE8DBFC7010E94B2
:1023200077041F910F91FF90EF9008950F931F93E3
:10233000282F462F0DE514E0C801622F0E94C30428
:102340008DB79EB70C970FB6F8949EBF0FBE8DBF8A
:10235000EDB7FEB73196ADB7BEB712961C930E938C
:10236000119782E292E09383828380917A04909124
:102370007B04A0917C04B0917D0484839583A68323
:10238000B78380918B0490918C04A0918D04B091BF
:102390008E0480879187A287B3870E94572C8DB7C0
:1023A0009EB70C960FB6F8949EBF0FBE8DBFC801A6
:1023B0000E9477041F910F9108950F931F93282F68
:1023C000462F8DE594E0622F0E94C3048091900413
:1023D000282F30E0823030F4E4E0220F331FEA95FA
:1023E000E1F702C02150304000D000D000D0EDB75E
:1023F000FEB731960DE514E0ADB7BEB712961C934B
:102400000E93119780E091E0938382833583248338
:102410000E94572C8DB79EB706960FB6F8949EBFB4
:102420000FBE8DBFC8010E9477041F910F910895C0
:102430000F931F93282F462F0DE514E0C801622F3C
:102440000E94C3048DB79EB708970FB6F8949EBF3D
:102450000FBE8DBFEDB7FEB73196ADB7BEB71296C2
:102460001C930E9311978EE292E0938382838FE008
:1024700090E09583848380918F04868317820E94E5
:10248000572C8DB79EB708960FB6F8949EBF0FBE17
:102490008DBFC8010E9477041F910F9108950F937B
:1024A0001F930DE514E0C80161E047E00E94C304FA
:1024B00000D000D0EDB7FEB71283018383E492E031
:1024C000948383830E94462C0F900F900F900F905F
:1024D000C8010E9477041F910F9108950F931F93D5
:1024E000282F462F0DE514E0C801622F0E94C30477
:1024F00000D000D0EDB7FEB71283018385E592E0EE
:10250000948383830E94462C0F900F900F900F901E
:10251000C8010E9477041F910F910895EF92FF92D6
:102520000F931F93CF93DF930E9498342091F0056F
:102530003091F1054091F2055091F30526173707C8
:102540004807590708F043C30E9498346C507E4FE7
:102550008F4F9F4F6093F0057093F1058093F205C4
:102560009093F3050DE514E0C8010E940D05C80124
:1025700065E043E00E94C30400D000D0ADB7BEB711
:1025800012961C930E93119788E093E014969C93F7
:102590008E9313970E94462C0F900F900F900F90E0
:1025A0008091B8059091B905892B31F08091E705AC
:1025B0009091E805892B81F480918704909188049B
:1025C0009093B9058093B8058091890490918A040D
:1025D0009093E8058093E7052091890430918A045F
:1025E0004091E7055091E805C9018456904048178D
:1025F000590724F48091EF058F5F08C02C593F4F95
:10260000241735072CF48091EF0581508093EF0556
:102610008091EF05181614F081E003C08E301CF095
:102620008DE08093EF050091EF05073009F451C16B
:10263000083084F4033009F497C0043034F40130D6
:1026400089F1023009F0BFC22AC00530E1F006303E
:102650001CF5E4C00A3009F4AFC10B3034F4083083
:1026600079F0093009F0AFC214C00C3079F00C30A9
:1026700024F00D3009F0A7C223C2C4E6D0E027C27F
:10268000C4E6D0E0A0C1C4E6D0E02AC184E690E070
:1026900019C284E690E092C184E690E01CC1C4E6D1
:1026A000D0E064C000D000D0CDE5D4E0EDB7FEB7F7
:1026B000D283C1838CEF92E0948383830E94462C63
:1026C0000F900F900F900F9080915803882321F165
:1026D00000D000D0ADB7BEB71296DC93CE93119761
:1026E00083EF92E014969C938E9313970E94462C4E
:1026F0008091B8059091B905845690400F900F9045
:102700000F900F9020918704309188042817390783
:1027100014F5109258031FC000D000D0EDB7FEB7DB
:10272000D283C1838AEE92E0948383830E94462CF5
:102730008091B8059091B9058C599F4F0F900F90DB
:102740000F900F902091870430918804821793078F
:1027500014F40093580388E496E06CEF73E0409122
:1027600058030E940F332FC2CAE0D0E000D000D03F
:102770001DE5E12E14E0F12EADB7BEB71296FC9226
:10278000EE9211978BED92E014969C938E93139793
:102790000E94462CEDB7FEB738970FB6F894FEBFEF
:1027A0000FBEEDBF0DB71EB70F5F1F4FF282E18264
:1027B00084E392E0D80113969C938E9312976091D4
:1027C0005B0370915C03882777FD8095982F0E94AA
:1027D0009437F801648375838683978382E890E059
:1027E0009187808780E290E0938782870E94572CB0
:1027F0008DB79EB70C960FB6F8949EBF0FBE8DBFD7
:1028000080915B0390915C036DEF73E0AE010E94D9
:10281000FB0990935C0380935B03D5C100D000D08B
:10282000BDE5EB2EB4E0FB2EADB7BEB71296FC9221
:10283000EE9211978BEB92E014969C938E931397E4
:102840000E94462CEDB7FEB738970FB6F894FEBF3E
:102850000FBEEDBF0DB71EB70F5F1F4FF282E182B3
:102860008CE392E0D80113969C938E93129760911B
:10287000C20570E0645D7E4F882777FD8095982FB4
:102880000E94943720E030E048EC52E40E94F93690
:10289000F801648375838683978386E790E0918748
:1028A000808780E290E0938782870E94572C8DB7C3
:1028B0009EB70C960FB6F8949EBF0FBE8DBF809149
:1028C000C20590E060E873E00E94D0098093C205E1
:1028D0007AC18AE090E06AE070E00E940C3AEB0175
:1028E00000D000D00DE514E0ADB7BEB712961C9332
:1028F0000E93119780EA92E014969C938E9313970F
:102900000E94462CEDB7FEB738970FB6F894FEBF7D
:102910000FBEEDBF3196ADB7BEB712961C930E93A6
:10292000119789E391E09383828382EE90E095830F
:1029300084838091BE059091BF05A091C005B091A0
:10294000C10586839783A087B1878EE890E093873F
:1029500082870E94572CEDB7FEB736960FB6F894D3
:10296000FEBF0FBEEDBF3196ADB7BEB712961C933A
:102970000E93119784E492E0938382838091E9051A
:102980009091EA05958384830E94572CEDB7FEB79A
:1029900036960FB6F894FEBF0FBEEDBF8091E905E5
:1029A0009091EA0564EF73E0AE010E94FB099093F9
:1029B000EA058093E90507C18AE090E06AE070E0EB
:1029C0000E940C3AEB0100D000D0ADE5EA2EA4E065
:1029D000FA2EADB7BEB71296FC92EE92119785E82B
:1029E00092E014969C938E9313970E94462CEDB719
:1029F000FEB738970FB6F894FEBF0FBEEDBF0DB708
:102A00001EB70F5F1F4FF282E18289E391E0D80188
:102A100013969C938E93129784EE90E015969C9358
:102A20008E9314976091BC057091BD05882777FD42
:102A30008095982F0E9494372AE037ED43E25CE3BB
:102A40000E94C738F80166837783808791878FE873
:102A500090E0938782870E94572C8DB79EB7069689
:102A60000FB6F8949EBF0FBE8DBFEDB7FEB731967F
:102A7000ADB7BEB71296FC92EE9211978BE592E03D
:102A8000938382838091EB059091EC0595838483F9
:102A90000E94572CEDB7FEB736960FB6F894FEBFDE
:102AA0000FBEEDBF8091EB059091EC0568EF73E0F0
:102AB000AE010E94FB099093EC058093EB0583C067
:102AC0008AE090E06AE070E00E940C3AEB0100D0EE
:102AD00000D0FDE5EF2EF4E0FF2EADB7BEB71296A5
:102AE000FC92EE9211978AE692E014969C938E9354
:102AF00013970E94462CEDB7FEB738970FB6F8949F
:102B0000FEBF0FBEEDBF0DB71EB70F5F1F4FF282A6
:102B1000E18289E391E0D80113969C938E931297FA
:102B200084EE90E015969C938E9314976091BC056B
:102B30007091BD05882777FD8095982F0E94943766
:102B40002AE037ED43E25CE30E94C738F801668370
:102B50007783808791878FE890E0938782870E94B0
:102B6000572C8DB79EB706960FB6F8949EBF0FBE32
:102B70008DBFEDB7FEB73196ADB7BEB71296FC92DA
:102B8000EE92119782E792E0938382838091ED0524
:102B90009091EE05958384830E94572CEDB7FEB784
:102BA00036960FB6F894FEBF0FBEEDBF8091ED05CF
:102BB0009091EE0566EF73E0AE010E94FB099093E1
:102BC000EE058093ED058DE594E00E947704DF919A
:102BD000CF911F910F91FF90EF9008952F923F9208
:102BE0004F925F926F927F928F929F92AF92BF921D
:102BF000CF92DF92EF92FF920F931F93DF93CF93C9
:102C0000CDB7DEB760970FB6F894DEBF0FBECDBF6D
:102C10008D876E870E9498342091F4053091F505D8
:102C20004091F6055091F7052617370748075907D1
:102C300008F016C28091F8058823C9F080935D03DF
:102C40001092F80589E892E09093060680930506B5
:102C50000E949834625A7E4F8F4F9F4F6093F405C5
:102C60007093F5058093F6059093F705B1C18091B7
:102C70005D03282F30E03A832983909082043091BD
:102C80009D043C8740919E044B8770909F04509117
:102C9000A0045A878091A1048987E090F905F090FB
:102CA000FA05A0910506B0910606B88BAF87B091E2
:102CB0006F04BB83E0919004E887F091D705FF8310
:102CC0002090BE053090BF054090C0055090C105D2
:102CD000809158032091C205829FC0011124845D18
:102CE0009E4F2091590330915A03AC01429FC0017D
:102CF000439F900D529F900D11246090D80350E493
:102D000065228090D9038522A0915303AE83E09180
:102D1000E105F091E205FD83EC8309811A815C01F4
:102D2000CC24B7FCC094DC2C0F5F1F4F0930110579
:102D30001CF001E010E021C00430110509F460C06E
:102D4000053011056CF40230110509F441C003305F
:102D500011050CF047C00130110509F0BAC00DC0D3
:102D60000630110509F472C0063011050CF461C07B
:102D70000830110509F0ADC09DC0F1E0F915F8F07B
:102D80009F1619F426E932E020C03C85313089F4E1
:102D90004B85413071F451E0751659F48A858130C4
:102DA00041F49985913029F4A3EAB2E0B88BAF875A
:102DB00097C0E0EBF2E0F88BEF8781E091C0FB85F4
:102DC000F13009F486C02DEB32E0388B2F87F5CF38
:102DD0003B81333009F47DC04AEC52E0588B4F8779
:102DE00082E07EC05885523008F073C08F818823FE
:102DF00009F46FC0A7EDB2E0B88BAF8783E070C075
:102E0000C601B5010E94943720E030E048EC52E45E
:102E10000E94F9369B01AC01C201B1010E94F23659
:102E200088230CF056C0E4EEF2E0F88BEF8784E0E4
:102E300057C0F1E0EF16F10409F04BC021EF32E08A
:102E4000388B2F87EE24FF2485E04AC031E0371508
:102E500098F442E0741639F4391570F08EEF92E070
:102E6000988B8F8707C093E0791631F4ABE0B3E01D
:102E7000B88BAF8786E001C080E0B985B23028F01A
:102E8000E8E1F3E0F88BEF8786E0FA85F23028F08E
:102E900025E233E0388B2F8786E0662011F4882006
:102EA000B1F03E81393B9CF442E353E0588B4F87AD
:102EB00086E016C051E0591560F48C819D8197FF22
:102EC00008C0AFE3B3E0B88BAF8788E009C08823C0
:102ED00039F4E981FA810E171F0709F025CFA3C045
:102EE000F092FA05E092F9052F85388930930606AD
:102EF000209305068093F80581E08093FB050E94EE
:102F0000983464547D4F8F4F9F4F6093F4057093B6
:102F1000F5058093F6059093F7050E949834685460
:102F2000744F8F4F9F4F60930106709302068093FA
:102F30000306909304068091FC059091FD05A091F5
:102F4000FE05B091FF050097A105B10571F40E943F
:102F500098346059784E8F4F9F4F6093FC05709363
:102F6000FD058093FE059093FF0580910006882360
:102F700079F40E9498342091FC053091FD05409130
:102F8000FE055091FF05261737074807590720F01F
:102F90008DE594E00E940D050E9498342091FC0577
:102FA0003091FD054091FE055091FF05261737072A
:102FB0004807590768F0109200060AC01092FB05F6
:102FC0001092FC051092FD051092FE051092FF056F
:102FD0000DE514E0C8016D854E850E94C30400D044
:102FE00000D000D0EDB7FEB73196ADB7BEB71296A0
:102FF0001C930E9311978CE493E0938382838091CA
:10300000050690910606958384830E94572CEDB7A0
:10301000FEB736960FB6F894FEBF0FBEEDBFC801DF
:103020000E9477041DC0F092FA05E092F9052F8501
:10303000388930930606209305061092F8050E9401
:103040009834209101063091020640910306509178
:103050000406261737074807590708F4AFCFB8CF3B
:1030600060960FB6F894DEBF0FBECDBFCF91DF9153
:103070001F910F91FF90EF90DF90CF90BF90AF9096
:103080009F908F907F906F905F904F903F902F9088
:10309000089520914F0330915003C9018950974002
:1030A0008F5A9440D0F580918204882321F481E0E6
:1030B000809307062EC080910706882351F58091E2
:1030C000FB05882311F10E9498342091FC05309172
:1030D000FD054091FE055091FF052617370748076B
:1030E0005907B8F40E9498342091F4053091F50501
:1030F0004091F6055091F7052617370748075907FD
:1031000040F48091F805882321F48DE594E00E9435
:103110000D0582E080930006089584E0203B380787
:1031200068F480910006882349F0109207068DE527
:1031300094E00E940D05109200060895205B344033
:103140002955324000F5809100068130E1F08091F0
:10315000FB05882379F00E9498342091FC0530917A
:10316000FD054091FE055091FF05261737074807DA
:10317000590748F4109207068DE594E00E940D056A
:1031800081E0809300060895EF92FF920F931F93C2
:1031900080910706882309F04EC080918204823016
:1031A00008F049C08091D705813009F044C0809172
:1031B00087049091880489509740ECF180918904AC
:1031C00090918A04805B9440B4F580917A04909148
:1031D0007B04A0917C04B0917D04809308069093B9
:1031E0000906A0930A06B0930B0680918B04909178
:1031F0008C04A0918D04B0918E0480930C06909362
:103200000D06A0930E06B0930F0680919104909145
:103210009204A0919304B09194048093D805909364
:10322000D905A093DA05B093DB0581E090E0909397
:10323000FA058093F9058091100690911106A091EE
:103240001206B09113060097A105B105E1F5809132
:10325000850490918604CD97B0F1809182048230EC
:1032600090F10E9498346093100670931106809339
:103270001206909313061092150610921406809170
:103280001606909117069093190680931806809160
:10329000540390915503A0915603B0915703809326
:1032A0005E0390935F03A0936003B093610380E09B
:1032B00090E0A0E0B0E08093CF059093D005A0937C
:1032C000D105B093D2058091100690911106A0917E
:1032D0001206B09113060097A105B10509F458C074
:1032E00080918204823038F10E9498342091100637
:1032F000309111064091120650911306621B730B18
:10330000840B950B28EE33E040E050E00E941F3A1A
:103310003093BB052093BA0580911606909117064D
:103320002091180630911906821B930B9093150675
:10333000809314064DC00E9498347B018C016091EB
:10334000BA057091BB05882777FD8095982F28E1F5
:103350003CEF4FEF5FEF0E94ED39E60EF71E081FBE
:10336000191FE0921006F0921106009312061093B6
:10337000130680911606909117062091140630913D
:103380001506821B930B909319068093180620C094
:103390000E94983428EE33E040E050E00E941F3A4B
:1033A0003093BB052093BA051092150610921406AF
:1033B0008091540390915503A0915603B091570307
:1033C00080935E0390935F03A0936003B0936103C7
:1033D0000E94491880910706882319F00E948E12D6
:1033E00040C28091D80380FF08C060912E04809174
:1033F0002C0490E070E00E94EE158091000682306F
:10340000A8F08091FB05882309F42BC20E94983410
:103410002091FC053091FD054091FE055091FF057E
:10342000261737074807590708F41BC28091000682
:1034300080931A06823011F41092000680910006E3
:10344000A82FB0E0FD01EE52FC4F808185FF0BC03C
:10345000FD01E651FC4F6081A851BC4F8C9190E07A
:1034600070E00E94181280910006A82FB0E0FD01C4
:10347000EE52FC4F808186FF0BC0FD01E251FC4FF4
:103480006081A451BC4F8C9190E070E00E94DD11EE
:103490008091D705882309F454C080910006A82F95
:1034A000B0E0FD01EE52FC4F808187FF0BC0FD01B3
:1034B000EE50FC4F6081A051BC4F8C9190E070E0C9
:1034C0000E94961180910006A82FB0E0FD01EC52F9
:1034D000FC4F808184FF0BC0FD01EE5FFB4F6081DC
:1034E000A050BC4F8C9190E070E00E94A0108091A1
:1034F0000006A82FB0E0FD01EC52FC4F808183FF55
:103500000BC0FD01E250FC4F6081A450BC4F8C9178
:1035100090E070E00E948C1080910006A82FB0E02F
:10352000FD01EC52FC4F808186FF0BC0FD01EA5F7C
:10353000FB4F6081AC5FBB4F8C9190E070E00E94CC
:103540002D1180910006A82FB0E0FD01EA52FC4F3A
:10355000808181FF0BC0FD01E25EFB4F6081A45EB4
:10356000BB4F8C9190E070E00E942D0F8091D705A9
:10357000882309F46EC080919004823008F469C0F9
:1035800080910006A82FB0E0FD01EA52FC4F808137
:1035900087FF0BC0FD01EA5EFB4F6081AC5EBB4F55
:1035A0008C9190E070E00E942E1080910006A82F70
:1035B000B0E0FD01E852FC4F808183FF0BC0FD01AC
:1035C000EE5CFB4F6081A05DBB4F8C9190E070E0A2
:1035D0000E94360E80910006A82FB0E0FD01E65251
:1035E000FC4F808182FF0BC0FD01E65CFB4F6081D8
:1035F000A85CBB4F8C9190E070E00E94A30E80917C
:103600000006A82FB0E0FD01EA52FC4F808182FF46
:103610000BC0FD01EE5EFB4F6081A05FBB4F8C9144
:1036200090E070E00E94EB0F80910006A82FB0E0C0
:10363000FD01EA52FC4F808183FF0BC0FD01E65E75
:10364000FB4F6081A85EBB4F8C9190E070E00E94C0
:103650009B0F8091D7058823C9F080919004823018
:10366000A8F080910006A82FB0E0FD01EC52FC4FBD
:10367000808180FF0BC0FD01E650FC4F6081A850A7
:10368000BC4F8C9190E070E00E94E70D80910006A5
:10369000A82FB0E0FD01E852FC4F808186FF0BC0EF
:1036A000FD01EA5CFB4F6081AC5CBB4F8C9190E00C
:1036B00070E00E94A90D80910006A82FB0E0FD01E6
:1036C000EE52FC4F808182FF0BC0FD01EE51FC4F9A
:1036D0006081A052BC4F8C9190E070E00E94700D10
:1036E00080910006A82FB0E0FD01EE52FC4F8081D2
:1036F00081FF0BC0FD01E252FC4F6081A452BC4F20
:103700008C9190E070E00E94370D80910006A82F08
:10371000B0E0FD01EA52FC4F808184FF0BC0FD0147
:10372000EE5DFB4F6081A05EBB4F8C9190E070E03E
:103730000E94FA0C80910006A82FB0E0FD01EA5229
:10374000FC4F808185FF0BC0FD01EA5DFB4F60816E
:10375000AC5DBB4F8C9190E070E00E945A0C809160
:103760000006A82FB0E0FD01EE52FC4F808183FFE0
:103770000BC0FD01EA51FC4F6081AC51BC4F8C91F4
:1037800090E070E00E94D70B80910006A82FB0E077
:10379000FD01EA52FC4F808180FF0BC0FD01E25F1A
:1037A000FB4F6081A45FBB4F8C9190E070E00E9462
:1037B000850B80910006A82FB0E0FD01EE52FC4F72
:1037C000808184FF0BC0FD01EA50FC4F6081AC504A
:1037D000BC4F8C9190E070E00E94420B80910006FB
:1037E000A82FB0E0FD01E652FC4F808181FF0BC0A5
:1037F000FD01E25CFB4F6081A45CBB4F8C9190E0CB
:1038000070E00E94220B80910006A82FB0E0FD011D
:10381000EC52FC4F808187FF0BC0FD01E65FFB4F40
:103820006081A85FBB4F8C9190E070E00E94D40A49
:1038300080910006A82FB0E0FD01EA52FC4F808184
:1038400086FF0BC0FD01E65DFB4F6081A85DBB4FAD
:103850008C9190E070E00E947C0A80911A0680931F
:1038600000061F910F91FF90EF9008958DE594E071
:103870000E940D050E944F120895CF93DF93EC0133
:103880008DE594E00E94E203C817D9073CF08DE56E
:1038900094E00E94D703892B09F42397CE01DF918E
:1038A000CF910895FF920F931F9308E416E0C8018B
:1038B00060E873E00E9408338093C205C8016CEF92
:1038C00073E00E94083380935803C8016DEF73E0E2
:1038D0000E940833F82EC8016EEF73E00E9408338F
:1038E000382F20E02F0D311D30935C0320935B03B4
:1038F000C80164EF73E00E940833F82EC80165EF39
:1039000073E00E940833382F20E02F0D311D3093D3
:10391000EA052093E905C80166EF73E00E940833C9
:10392000F82EC80167EF73E00E940833382F20E0BB
:103930002F0D311D3093EE052093ED05C80168EF82
:1039400073E00E940833F82EC80169EF73E00E940B
:103950000833382F20E02F0D311D3093EC052093D4
:10396000EB051F910F91FF900895BC0188E496E04C
:103970000E9408330895EF92FF920F931F93CF9305
:10398000DF930091000610E08AEF90E0089F70013D
:10399000099FF00C189FF00C1124C70188569F4F07
:1039A0000E94B51CF801EE52FC4F882319F080816B
:1039B000806102C080818F7E808380910006C82F45
:1039C000D0E0C70186569F4F0E94B51CCC50DC4FFB
:1039D000888380910006C82FD0E0C70184569F4F8E
:1039E0000E94B51C90E00E943D1CCA50DC4F8883A9
:1039F0000091000610E0C70106960E94B51CF80170
:103A0000EE52FC4F882319F08081826002C08081D1
:103A10008D7F808380910006C82FD0E0C701089673
:103A20000E94B51CC452DC4F888380910006C82FC9
:103A3000D0E0C7010A960E94B51C90E00E943D1C90
:103A4000C252DC4F88830091000610E0C7010C963B
:103A50000E94B51CF801EE52FC4F882319F08081BA
:103A6000846002C080818B7F808380910006C82F94
:103A7000D0E0C7010E960E94B51CC052DC4F88836F
:103A800080910006C82FD0E0C70140960E94B51C67
:103A900090E00E943D1CCE51DC4F888300910006CF
:103AA00010E0C70142960E94B51CF801EE52FC4F8F
:103AB000882319F08081886002C08081877F80839D
:103AC00080910006C82FD0E0C70144960E94B51C23
:103AD000CC51DC4F888380910006C82FD0E0C7010D
:103AE00046960E94B51C90E00E943D1CCA51DC4FD6
:103AF00088830091000610E0C7014E960E94B51C15
:103B0000F801EE52FC4F882319F08081806202C0D8
:103B100080818F7D808380910006C82FD0E0C7010F
:103B200080960E94B51CC851DC4F888380910006A6
:103B3000C82FD0E0C70182960E94B51C90E00E9479
:103B40003D1CC651DC4F88830091000610E0C70180
:103B500084960E94B51CF801EE52FC4F882319F0A0
:103B60008081806402C080818F7B80838091000689
:103B7000C82FD0E0C70186960E94B51CC451DC4F07
:103B8000888380910006C82FD0E0C70188960E94E4
:103B9000B51C90E00E943D1CC251DC4F888300910F
:103BA000000610E0C7018A960E94B51CF801EE528B
:103BB000FC4F882319F08081806802C080818F7754
:103BC000808380910006C82FD0E0C7018C960E94A8
:103BD000B51CC051DC4F888380910006C82FD0E00F
:103BE000C7018E960E94B51C90E00E943D1CCE50ED
:103BF000DC4F88830091000610E0C701C0960E9448
:103C0000B51CF801EC52FC4F882319F080818160CB
:103C100002C080818E7F808380910006C82FD0E013
:103C2000C701C2960E94B51CC850DC4F88838091A2
:103C30000006C82FD0E0C701C4960E94B51C90E0D2
:103C40000E943D1CC650DC4F88830091000610E0A6
:103C5000C701885B9F4F0E94B51CF801EC52FC4FD6
:103C6000882319F08081806102C080818F7E8083EB
:103C700080910006C82FD0E0C701865B9F4F0E944D
:103C8000B51CC050DC4F888380910006C82FD0E05F
:103C9000C701845B9F4F0E94B51C90E00E943D1CB1
:103CA000CE5FDB4F88830091000610E0C7018E5B7A
:103CB0009F4F0E94B51CF801EC52FC4F882319F06D
:103CC0008081886002C08081877F80838091000628
:103CD000C82FD0E0C7018C5B9F4F0E94B51CC45019
:103CE000DC4F888380910006C82FD0E0C7018A5B33
:103CF0009F4F0E94B51C90E00E943D1CC250DC4FBB
:103D000088830091000610E0C7018A5A9F4F0E94E5
:103D1000B51CF801EC52FC4F882319F080818064B7
:103D200002C080818F7B808380910006C82FD0E005
:103D3000C701885A9F4F0E94B51CCC5FDB4F888318
:103D400080910006C82FD0E0C701865A9F4F0E947D
:103D5000B51C90E00E943D1CCA5FDB4F8883009138
:103D6000000610E0C70182569F4F0E94B51CF80163
:103D7000EC52FC4F882319F08081806802C080815A
:103D80008F77808380910006C82FD0E0C7018056CE
:103D90009F4F0E94B51CC85FDB4F8883809100064F
:103DA000C82FD0E0C7018E559F4F0E94B51C90E0F0
:103DB0000E943D1CC65FDB4F88830091000610E027
:103DC000C7018E599F4F0E94B51CF801EA52FC4F63
:103DD000882319F08081816002C080818E7F80837A
:103DE00080910006C82FD0E0C7018C599F4F0E94D8
:103DF000B51CC45FDB4F888380910006C82FD0E0DC
:103E0000C7018A599F4F0E94B51C90E00E943D1C3B
:103E1000C25FDB4F88830091000610E0C701825922
:103E20009F4F0E94B51CF801EA52FC4F882319F0FD
:103E30008081846002C080818B7F808380910006B6
:103E4000C82FD0E0C70180599F4F0E94B51CC05FAA
:103E5000DB4F888380910006C82FD0E0C7018E58C1
:103E60009F4F0E94B51C90E00E943D1CCE5EDB4F30
:103E700088830091000610E0C70184579F4F0E947D
:103E8000B51CF801EA52FC4F882319F08081806844
:103E900002C080818F77808380910006C82FD0E098
:103EA000C70182579F4F0E94B51CCC5EDB4F8883B1
:103EB00080910006C82FD0E0C70180579F4F0E9415
:103EC000B51C90E00E943D1CCA5EDB4F88830091C8
:103ED000000610E0C7018E569F4F0E94B51CF801E6
:103EE000EA52FC4F882319F08081826002C08081F1
:103EF0008D7F808380910006C82FD0E0C7018C564B
:103F00009F4F0E94B51CC45EDB4F888380910006E2
:103F1000C82FD0E0C7018A569F4F0E94B51C90E081
:103F20000E943D1CC25EDB4F88830091000610E0BA
:103F3000C7018C589F4F0E94B51CF801EA52FC4FF4
:103F4000882319F08081886002C08081877F808308
:103F500080910006C82FD0E0C7018A589F4F0E9469
:103F6000B51CC85EDB4F888380910006C82FD0E067
:103F7000C70188589F4F0E94B51C90E00E943D1CCD
:103F8000C65EDB4F88830091000610E0C7018658AB
:103F90009F4F0E94B51CF801EA52FC4F882319F08C
:103FA0008081806102C080818F7E80838091000645
:103FB000C82FD0E0C70184589F4F0E94B51CC05E37
:103FC000DB4F888380910006C82FD0E0C70182585C
:103FD0009F4F0E94B51C90E00E943D1CCE5DDB4FC0
:103FE00088830091000610E0C70180589F4F0E940F
:103FF000B51CF801EA52FC4F882319F080818062D9
:1040000002C080818F7D808380910006C82FD0E020
:10401000C7018E579F4F0E94B51CCC5DDB4F888334
:1040200080910006C82FD0E0C7018C579F4F0E9497
:10403000B51C90E00E943D1CCA5DDB4F8883009157
:10404000000610E0C7018A579F4F0E94B51CF80177
:10405000EA52FC4F882319F08081806402C080817D
:104060008F7B808380910006C82FD0E0C7018857DE
:104070009F4F0E94B51CC85DDB4F8883809100066E
:10408000C82FD0E0C70186579F4F0E94B51C90E013
:104090000E943D1CC65DDB4F88830091000610E046
:1040A000C7018C559F4F0E94B51CF801E852FC4F88
:1040B000882319F08081816002C080818E7F808397
:1040C00080910006C82FD0E0C7018A559F4F0E94FB
:1040D000B51CC45DDB4F888380910006C82FD0E0FB
:1040E000C70188559F4F0E94B51C90E00E943D1C5F
:1040F000C25DDB4F88830091000610E0C7018A543F
:104100009F4F0E94B51CF801E852FC4F882319F01C
:104110008081886002C08081877F808380910006D3
:10412000C82FD0E0C70188549F4F0E94B51CC05DC6
:10413000DB4F888380910006C82FD0E0C7018654EA
:104140009F4F0E94B51C90E00E943D1CCE5CDB4F4F
:1041500088830091000610E0C701845A9F4F0E9497
:10416000B51CF801E852FC4F882319F08081806467
:1041700002C080818F7B808380910006C82FD0E0B1
:10418000C701825A9F4F0E94B51CCC5CDB4F8883CD
:1041900080910006C82FD0E0C701805A9F4F0E942F
:1041A000B51C90E00E943D1CCA5CDB4F88830091E7
:1041B000000610E0C70180529F4F0E94B51CF80115
:1041C000E652FC4F882319F08081846002C0808110
:1041D0008B7F808380910006C82FD0E0C7018E516D
:1041E0009F4F0E94B51CC85CDB4F888380910006FE
:1041F000C82FD0E0C7018C519F4F0E94B51C90E0A2
:104200000E943D1CC65CDB4F88830091000610E0D5
:10421000C7018C529F4F0E94B51CF801E652FC4F1B
:10422000882319F08081826002C080818D7F808325
:1042300080910006C82FD0E0C7018A529F4F0E948C
:10424000B51CC45CDB4F888380910006C82FD0E08A
:10425000C70188529F4F0E94B51C90E00E943D1CF0
:10426000C25CDB4F8883DF91CF911F910F91FF904C
:10427000EF9008954F925F927F928F929F92AF92AC
:10428000BF92CF92DF92EF92FF920F931F93DF9333
:10429000CF93CDB7DEB7C854D0400FB6F894DEBF89
:1042A0000FBECDBF0DE514E0C8010E940D05C80189
:1042B00066E049E00E94C30400D000D0EDB7FEB72D
:1042C0001283018383E393E0948383830E94462CCB
:1042D0000F900F900F900F90C8010E94770400D0AC
:1042E00000D000E414E0EDB7FEB71283018383E24F
:1042F00093E0948383830E94462C98E1492E93E0B7
:10430000592EEE24FF24CC24DD240F900F900F9023
:104310000F90702E012F89E0A82EB12CAC0EBD1E7F
:104320004E010894811C911C80E494E00E94FA2CB8
:10433000982F8D3031F08D30DCF180538230C0F514
:1043400030C01830A1F59981892F8053823078F5DB
:10435000913311F490E801C090E08A81813309F42F
:10436000905C8B81813309F4905E8C81813309F4F8
:10437000905F8D81813309F4985F8E81813309F4D8
:104380009C5F8F81813309F49E5F8885813309F4B6
:104390009F5FF501EE0DFF1D90830894E11CF11C59
:1043A00006C0F401E10FF11D90831F5F01C010E012
:1043B000F0E4EF16F104C9F48DE594E0B601A5012F
:1043C0000E94F0030894C11CD11C00D000D0EDB7AE
:1043D000FEB771820283548243820E94462CEE24EF
:1043E000FF240F900F900F900F90FFEFCF16D10486
:1043F00009F00CF499CFC85BDF4F0FB6F894DEBF1D
:104400000FBECDBFCF91DF911F910F91FF90EF9025
:10441000DF90CF90BF90AF909F908F907F905F90F4
:104420004F900895CF92DF92EF92FF920F931F93D8
:10443000DF93CF93CDB7DEB72A970FB6F894DEBFE0
:104440000FBECDBF33E0C32ED12CCC0EDD1E27E036
:10445000E22EF12CEC0EFD1E0DE956C20E9498349E
:1044600060527E4480409040C8F40E94983469585D
:1044700073418040904090F01A3011F01D3031F4BB
:104480008091B0058F5F8093B00502C01092B00597
:104490008091B005833011F40E943A21812F66EAA1
:1044A00074E00E944906882309F42EC28091AA0470
:1044B0009091AB04A091AC04B091AD048A3BE7ECC1
:1044C0009E07E1E2AE07E4E7BE0709F43AC08B3B82
:1044D000F7EC9F07F1E2AF07F4E7BF07C8F48832B3
:1044E0002EE5920722EDA20724E2B20709F4B5C037
:1044F0008E37E9EA9E07EBE5AE07E6E2BE0709F470
:10450000B9C084559447A54CBB4009F0FDC1A4C176
:104510008E3F26EB920729E2A20725EAB20709F4AB
:104520000FC18832EFE99E07E0E0AE07E7ECBE0777
:1045300009F4D1C186549340A24CB54809F0E4C1B6
:10454000A6C10E94983460937004709371048093A4
:1045500072049093730483E080936F048091C0048D
:104560009091C104A091C204B091C3048F83988735
:10457000A987BA876F81788589859A850E94613776
:1045800070937504609374048091C4049091C50481
:10459000A091C604B091C7048F839887A987BA8772
:1045A0006F81788589859A850E9461377093770439
:1045B000609376048091C8049091C904A091CA04C4
:1045C000B091CB048F839887A987BA876F8178854C
:1045D00089859A850E9461378B0170937904609375
:1045E000780460917A0470917B0480917C049091AE
:1045F0007D0420E030E040E050E00E94F236882365
:1046000009F0C2C1B801882777FD8095982F0E94D4
:1046100094377B018C0160937E0470937F048093B8
:1046200080049093810420E030E040E050E00E945C
:10463000F23688230CF0A8C1C801B70120E030E0B1
:1046400044EB53E40E942C3660937E0470937F0405
:10465000809380049093810497C18091B0048093EB
:1046600082048091B204809383048091B10480938A
:1046700084044AC18091B0049091B104A091B20425
:10468000B091B304F70180839183A283B3836F81D8
:10469000788589859A8520E030E048EC52E40E94D4
:1046A000C7380E9461377093860460938504693C23
:1046B000710520F010928604109285048091CA043E
:1046C0009091CB0490938804809387048091CC04CC
:1046D0009091CD0490938A04809389048091D604AC
:1046E0009091D7049093500380934F036091DC0422
:1046F0007091DD047A836983709352036093510350
:1047000080E090E00E94923720E030E04AEF54E4ED
:104710000E942B3620E030E040E251E40E94F9365E
:1047200020E030E040E05FE30E942B360E946137DA
:10473000609353036D390CF0E7C000935303E4C05A
:104740006091B0047091B1048091B2049091B3046F
:104750000E94943720E836E948E15BE40E94F9368C
:1047600060937A0470937B0480937C0490937D041F
:104770006091B4047091B5048091B6049091B7042F
:10478000D6016C9311967C93119712968C93129785
:1047900013969C930E94943720E836E948E15BE445
:1047A0000E94F93660938B0470938C0480938D047F
:1047B00090938E048091D50480938F048091D404CB
:1047C000809390048091C0049091C104A091C20490
:1047D000B091C304F70180839183A283B3838F8157
:1047E0009885A985BA8580937E0490937F04A093D1
:1047F0008004B09381048091B8049091B904A09191
:10480000BA04B091BB0480839183A283B3838F8168
:104810009885A985BA858093910490939204A0937A
:104820009304B09394048091C4049091C504A09122
:10483000C604B091C70480839183A283B3838F8120
:104840009885A985BA858093950490939604A09342
:104850009704B093980458C08091B8049091B9041B
:10486000A091BA04B091BB04F70180839183A28325
:10487000B3838F819885A985BA85B05880939904B0
:1048800090939A04A0939B04B0939C043DC04091E4
:10489000BA0440939D048091BF0480939E0430919C
:1048A000B40430939F042091B3042093A00490910A
:1048B000B2049093A104813009F066C0413009F040
:1048C00063C0313009F060C0213009F05DC0913023
:1048D00009F05AC019C08091B0049091B104A09120
:1048E000B204B091B304F70180839183A283B383B0
:1048F0008F819885A985BA858093A2049093A3049B
:10490000A093A404B093A50480E494E00E94CA2C70
:104910001816190604F580E494E00E94FA2C182F6A
:1049200080916F04882309F0B9CD98CD10926F045F
:10493000DD24D3948D2D90E02A960FB6F894DEBF37
:104940000FBECDBFCF91DF911F910F91FF90EF90E0
:10495000DF90CF900895DD24E0907004F090710412
:10496000009172041091730480E197E2A0E0B0E03E
:10497000E80EF91E0A1F1B1F0E949834E616F70660
:104980000807190798F2D6CFDD24D394E5CF83E04A
:104990000E943A3508952F923F924F925F926F9204
:1049A0007F929F92AF92BF92CF92DF92EF92FF924F
:1049B0000F931F93DF93CF9300D000D0CDB7DEB716
:1049C000E0901B06F0901C0600911D0610911E063B
:1049D0008FE590E0A0E0B0E0E80EF91E0A1F1B1F73
:1049E0000E9498346E157F058007910708F45EC217
:1049F0000E94983469837A838B839C8340901B0642
:104A000050901C0660901D0670901E060E949834FF
:104A100060931B0670931C0680931D0690931E06E0
:104A200083E00E943A3580E10E943D35AA2797FD38
:104A3000A095BA2FBC01CD010E9494372DEC3CEC1F
:104A40004CE85FE30E94C73820E030E040E85AE3DA
:104A50000E94C7387B018C016091E9057091EA05DD
:104A6000882777FD8095982F0E94943720E030E0CA
:104A700048EC52E40E94F9369B01AC01C801B70131
:104A80000E94C7387B018C01A0906203B090630341
:104A9000C0906403D0906503C601B50120E030E00A
:104AA00040E85FEB0E94F236882349F4E09262030B
:104AB000F0926303009364031093650339C0C80147
:104AC000B701A60195010E94F23618168CF0C801B4
:104AD000B7012DEC3CEC4CEC5DE30E94C7387B0148
:104AE0008C01C601B50126E636E646E65FE310C056
:104AF000C801B7012AE939E949E95EE30E94C738EC
:104B00007B018C01C601B50123E333E343E35FE39B
:104B10000E94C7389B01AC01C801B7010E942C3626
:104B200060936203709363038093640390936503BF
:104B300090905803992079F1C0906203D09063035C
:104B4000E0906403F0906503A0905903B0905A037D
:104B50004FE8242E43E0342E06E010E0C701B601F2
:104B6000D1012D913D914D915C910E94BC38181658
:104B700044F40A151B052CF010935A0300935903B3
:104B800010C001501040ECEFFFEF2E0E3F1E013021
:104B9000110521F706C084E090E090935A038093BA
:104BA0005903E0906203F090630300916403109155
:104BB0006503E092BE05F092BF050093C005109317
:104BC000C1052091590330915A039920C1F0B901D0
:104BD000882777FD8095982F0E9494379B01AC0120
:104BE000C801B7010E94F9362CEF39EA4DE550E4CF
:104BF0000E942B3627E834E149E053E417C0B9019D
:104C0000882777FD8095982F0E9494379B01AC01EF
:104C1000C801B7010E94F93620E030E040E450E4DA
:104C20000E942B3628E63FE249EB52E40E94C73847
:104C30007B018C0120E030E040E050E00E94F23641
:104C400088235CF40F2EF0E0EF2EF0E0FF2EF0E072
:104C50000F2FF0E01F2FF02D14C0C801B70120E086
:104C600030E046EC52E40E94BC38181654F40F2E83
:104C7000F0E0EF2EF0E0FF2EF6EC0F2FF2E41F2F06
:104C8000F02DC801B7010E94663770E080E090E027
:104C90000E9492377B018C01A0905403B090550381
:104CA000C0905603D0905703C601B50120E030E014
:104CB00040E85FEB0E94F236882349F4E092540307
:104CC000F0925503009356031093570339C0C8015F
:104CD000B701A60195010E94F23618168CF0C801A2
:104CE000B7012DEC3CEC4CE45DE30E94C7387B013E
:104CF0008C01C601B50123E333E343E75FE310C052
:104D0000C801B7012AE939E949E95EE30E94C738D9
:104D10007B018C01C601B50123E333E343E35FE389
:104D20000E94C7389B01AC01C801B7010E942C3614
:104D300060935403709355038093560390935703E5
:104D40008091ED059091EE05181619060CF0AEC095
:104D500081E00E943A358FE00E943D35AA2797FDF9
:104D6000A095BA2FBC01CD010E94943729E23CE501
:104D70004FE950E40E94C73820E030E040E85AE3B1
:104D80000E94C7387B018C016091EB057091EC05A6
:104D9000882777FD8095982F0E94943720E030E493
:104DA0004CE156EC0E94F9369B01AC01C801B701F9
:104DB0000E942C367B018C016091ED057091EE050F
:104DC000882777FD8095982F0E94943720E030E067
:104DD00048EC52E40E94F9369B01AC01C801B701CE
:104DE0000E94C7382DEC3CEC4CE45EE30E94C738CF
:104DF0007B018C0160912306709124068091250629
:104E0000909126062DEC3CEC4CE45FE30E94C73801
:104E10009B01AC01C801B7010E942C367B018C01BB
:104E200060932306709324068093250690932606AC
:104E300069817A816419750980E090E00E94923757
:104E40009B01AC01C801B7010E94C7382FEA35EABF
:104E500041E959E30E94C73820911F06309120068E
:104E600040912106509122060E942C365B016C0174
:104E700060931F067093200680932106909322066C
:104E8000C801B70120E030E048EC52E40E94C73886
:104E90000E9461377093BD056093BC05C601B501E2
:104EA0000E94663770931706609316060F900F9056
:104EB0000F900F90CF91DF911F910F91FF90EF9086
:104EC000DF90CF90BF90AF909F907F906F905F905A
:104ED0004F903F902F9008951F93CF93DF9385E0DD
:104EE00090E06CE070E00E946E1268EE73E080E08B
:104EF00090E00E94A63480E494E00E94472DC0E038
:104F0000D0E010E0CE016DE171E00E940C3A892BF7
:104F100089F41F5E8DE594E0612F4CE00E94C3048C
:104F20008DE594E06EEE0E94CB048DE594E00E9446
:104F30007704105161E070E080E090E00E94A634B8
:104F4000219687E0C13DD807E9F6DF91CF911F9107
:104F5000089586E061E00E949E35089586E061E054
:104F60000E945F3580E494E040E051EE60E070E044
:104F70000E94682C0E94A9278DE594E00E944C05B0
:104F80000E94361C68EE73E080E090E00E94A63438
:104F90000E94521C1092000607C00E94BB1C809108
:104FA00000068F5F80930006809100068230A8F390
:104FB000109200060E946C270E94C7248DE594E0A1
:104FC0000E940D050E94983460932706709328066E
:104FD0008093290690932A0608956F927F928F926C
:104FE0009F92AF92BF92CF92DF92EF92FF920F9378
:104FF0001F93E0903206F090330600913406109132
:1050000035068FE590E0A0E0B0E0E80EF91E0A1F3B
:105010001B1F0E9498346E157F058007910708F4C6
:10502000F4C02091950430919604409197045091DA
:105030009804E0909904F0909A0400919B041091D8
:105040009C04CA01B9010E94C7385B016C01C80108
:10505000B701A80197010E94C7389B01AC01C601A6
:10506000B5010E942C360E944E396093D30570938F
:10507000D4058093D5059093D60520E030E040E03C
:1050800050E00E94BC3818160CF0B5C00E9498344D
:105090002091320630913306409134065091350606
:1050A000621B730B840B950B0E9492375B016C01A2
:1050B000E090D305F090D4050091D5051091D60568
:1050C0002091950430919604409197045091980452
:1050D0000E94C73820E030E04AE754E40E94F936E5
:1050E0009B01AC016091CF057091D0058091D105F5
:1050F0009091D2050E942C366093CF057093D00515
:105100008093D1059093D205809114069091150655
:10511000892B09F464C0C801B701A60195010E945A
:10512000C73820E030E04AE754E40E94F9363B01FA
:105130004C0120E030E040E050E00E94BC381816FE
:105140000CF04DC06091E3057091E4058091E50598
:105150009091E6052DEC3CEC4CE45FE30E94C738EF
:105160007B018C016091BC057091BD05882777FD9E
:105170008095982F0E9494372091BE053091BF05ED
:105180004091C0055091C1050E94C738A601950104
:105190000E94C73820E030E041EE54E40E94F93626
:1051A000A40193010E94F9369B01AC01C801B7012B
:1051B0000E942C366093E3057093E4058093E50527
:1051C0009093E60520E03BE443EC57E40E94BC38B2
:1051D00018168CF480E09BE4A3ECB7E404C080E0F4
:1051E00090E0A0E0B0E08093E3059093E405A09305
:1051F000E505B093E6050E949834609332067093FB
:10520000330680933406909335061F910F91FF90DB
:10521000EF90DF90CF90BF90AF909F908F907F9056
:105220006F9008952F923F924F925F926F927F926C
:105230008F929F92AF92BF92CF92DF92EF92FF92A6
:105240000F931F93DF93CF9300D000D0CDB7DEB77D
:105250008091D705882309F438C2E0900806F090C1
:10526000090600910A0610910B06C801B7019F7745
:1052700025E33AEF4EE85CE30E94C7380E94F63619
:1052800069837A838B839C83C801B70120917A0458
:1052900030917B0440917C0450917D040E942B3618
:1052A0009F7720EC3BE649ED57E40E94C7385B014D
:1052B0006C0160910C0670910D0680910E06909124
:1052C0000F0620918B0430918C0440918D045091F5
:1052D0008E040E942B369F7720EC3BE649ED57E485
:1052E0000E94C73829813A814B815C810E94C7386E
:1052F0007B018C01C601B501A60195010E94C7384A
:105300005B016C01C801B701A80197010E94C73871
:105310009B01AC01C601B5010E942C360E944E399A
:105320000E9461376093B4057093B5058093B6050C
:105330009093B7058091140690911506892B09F476
:10534000E9C060912B0670912C0680E090E00E94ED
:1053500092372DEC3CEC4CE45FE30E94C7383B01F4
:105360004C0160915B0370915C03882777FD809509
:10537000982F0E9494372DEC3CEC4CE45FE30E94A4
:10538000C7387B018C01609116067091170680E08A
:1053900090E00E9492379B01AC01C801B7010E94C6
:1053A0002B365B016C010E9498347B018C0160916B
:1053B00014067091150680E090E00E9492371B0160
:1053C0002C018091100690911106A0911206B091C7
:1053D0001306E81AF90A0A0B1B0BC801B7010E9451
:1053E0009237A20191010E94F9369B01AC01C601DE
:1053F000B5010E94C73820E030E04AE754E40E943B
:10540000F9362DEC3CEC4CE45EE30E94C7389B017E
:10541000AC01C401B3010E942C360E946137709325
:105420002C0660932B06609116067091170680E09B
:1054300090E00E9492375B016C0160915B03709178
:105440005C03882777FD8095982F0E9494372DEC78
:105450003CEC4CE45FE30E94C7387B018C01C60141
:10546000B501A80197010E94BC38181624F41092C7
:105470002C0610922B0680912B0690912C068057BB
:10548000974130F08FE697E190932C0680932B069E
:10549000C801B701A60195010E942B367B018C0142
:1054A0006091CF057091D0058091D1059091D20582
:1054B000A20191010E94F9369B01AC01C801B7011C
:1054C0000E94C7387B018C016091B4057091B505CD
:1054D0008091B6059091B7050E9494379B01AC016D
:1054E000C801B7010E942B3620E030E040E05FE3C6
:1054F0000E94C7380E9461377093E2056093E1050E
:10550000615F784D7CF481EF98ED9093E205809394
:10551000E10508C010922C0610922B061092E205AD
:105520001092E1056091910470919204809193042E
:10553000909194042091D8053091D9054091DA05D5
:105540005091DB050E942B365B016C012091B40564
:105550003091B5054091B6055091B705CA01B90122
:105560000E94ED390E9494377B018C01C601B50180
:10557000A60195010E94C7389B01AC01C801B70183
:105580000E942C360E944E390E9461376093DD05DF
:105590007093DE058093DF059093E0056091080627
:1055A0007091090680910A0690910B0620917A0469
:1055B00030917B0440917C0450917D040E942B36F5
:1055C0007B018C0160E070E080E89FE329813A81F3
:1055D0004B815C810E94F9369B01AC01C801B70187
:1055E0000E94C7387B018C0160910C0670910D06FA
:1055F00080910E0690910F0620918B0430918C04BF
:1056000040918D0450918E040E942B369B01AC0179
:105610005058C801B7010E949F3620EE3EE245E691
:1056200052E40E94C73820E030E044EB52E40E948C
:105630002C360E9461379B01AC0197FF04C02859AA
:105640003E4F4F4F5F4FCA01B901645B70408040CD
:10565000904097FF06C0CA01B9016C547F4F8F4F2D
:105660009F4F0E94943720917E0430917F04409197
:105670008004509181040E942B360E94613797FF6D
:1056800004C068597E4F8F4F9F4F0E94943720E08F
:1056900030E044EB53E40E94F93620E030E040E88B
:1056A00051E40E94C7380E942A3920E030E040E8E7
:1056B0005FE30E942C360E9466376093DC056131FF
:1056C00008F46CC01092DC0569C0809190048230AF
:1056D00008F464C080918F04853008F45FC0D090D6
:1056E0002D06FDE1FD1508F459C0E0909104F090FD
:1056F0009204009193041091940460912E0670918D
:105700002F068091300690913106A80197010E94E2
:105710002B369F7720E030E040E05FE30E94BC380A
:1057200018165CF410922D06E0922E06F0922F06C9
:10573000009330061093310631C08D2D8F5F80931A
:105740002D068E3159F580917A0490917B04A091B9
:105750007C04B0917D048093080690930906A09381
:105760000A06B0930B0680918B0490918C04A09153
:105770008D04B0918E0480930C0690930D06A09337
:105780000E06B0930F06E092D805F092D90500936B
:10579000DA051093DB0581E08093D7050F900F9019
:1057A0000F900F90CF91DF911F910F91FF90EF908D
:1057B000DF90CF90BF90AF909F908F907F906F9031
:1057C0005F904F903F902F9008950E94CB240E94AD
:1057D000ED270E9492078DE594E00E9412290E9415
:1057E000C4180895EF92FF920F931F930E94122204
:1057F000892BB9F4E0902706F0902806009129063D
:1058000010912A0684E690E0A0E0B0E0E80EF91ED0
:105810000A1F1B1F0E949834E616F706080719078F
:1058200060F40E9498346093270670932806809352
:10583000290690932A060E94E52B1F910F91FF9055
:10584000EF9008956EBD0DB407FEFDCF8EB508959F
:105850008DE061E00E945F358BE061E00E945F3582
:105860008CE060E00E945F358AE061E00E945F3575
:105870001CBC80E58CBD8DB58EB5089586E396E0A1
:105880000E94282C08958FEF9FE70895DF93CF9310
:10589000CDB7DEB7FE0139968D819E8161E04F81E3
:1058A00058859F010E94E72ECF91DF910895DF93E5
:1058B000CF93CDB7DEB7FE0139968D819E8160E032
:1058C0004F8158859F010E94E72ECF91DF91089567
:1058D0000F931F93DC01ED91FC910288F389E02D79
:1058E00020E030E000E010E009951F910F9108954D
:1058F0008F92AF92CF92EF92FF920F931F93DF930D
:10590000CF93CDB7DEB7FC011382128288EE93E00D
:10591000A0E0B0E084839583A683B7838BEB93E00C
:10592000918380835587448737872687118B008B27
:10593000F38AE28AC48AA58A868A70E0CB0123E0D2
:10594000880F991F2A95E1F79C01295C394F308F08
:10595000278B815C994F928F818F81E090E002C00C
:10596000880F991F6A95E2F720914706282B20930C
:105970004706CF0140E051EE60E070E00E94682CE5
:10598000CF91DF911F910F91FF90EF90CF90AF904B
:105990008F900895FC01838D882319F42FEF3FEF3A
:1059A0000DC00788F08DE02D2081318182819381A7
:1059B000281B390B8481958128233923C901089537
:1059C000FC01838D882319F42FEF3FEF11C0018C68
:1059D000F28DE02D2081318182819381281B390B4A
:1059E0002095309584819581282339232F5F3F4F5F
:1059F000C9010895FC01838D882361F0A789B08DCA
:105A00002D913C91119712968D919C911397281787
:105A1000390721F44FEF5FEFCA01089512968D9177
:105A20009C9113971696ED91FC911797E80FF91F2B
:105A3000408112968D919C911397019614962D9109
:105A40003C9115978223932313969C938E931297E0
:105A500050E0E2CFFC01838D882351F00788F08D60
:105A6000E02D20813181828193812817390721F42B
:105A70002FEF3FEFC9010895828193810680F7815E
:105A8000E02DE80FF91F8081282F30E0F3CFDC01F3
:105A90005796ED91FC9158978281938191838083F1
:105AA0005996ED91FC915A978081918193838283DD
:105AB0000895DC015B968C915B978823A9F1599638
:105AC000ED91FC915A97208131812F5F3F4F848166
:105AD0009581282339235C968C915C97882329F043
