:100000000C9491020C94B9020C94B9020C94B902AC
:100010000C94B9020C94B9020C94B9020C94B90274
:100020000C94B9020C94B9020C94B9020C94B90264
:100030000C94B9020C94B9020C94B9020C94B90254
:100040000C941D340C94B9020C949D050C94D905A4
:100050000C94B9020C94B9020C94B9020C94B90234
:100060000C94B9020C94B902084AD73B3BCE016EFE
:1000700084BCBFFDC12F3D6C74319ABD56833DDAFF
:100080003D00C77F11BED9E4BB4C3E916BAAAABE0E
:10009000000000803F05A84CCDB2D44EB93836A937
:1000A000020C50B9918688083CA6AAAA2ABE000074
:1000B00000803F0664EC1B3C04BC163E3BE5B93CAB
:1000C000C93C37C29E5A3D660498083EEA69AAAA0E
:1000D0003E000000803F00070E091C1B1215383F30
:1000E000363124232A2D70777E796C6B6265484FF8
:1000F000464154535A5DE0E7EEE9FCFBF2F5D8DFE8
:10010000D6D1C4C3CACD90979E998C8B8285A8AF57
:10011000A6A1B4B3BABDC7C0C9CEDBDCD5D2FFF847
:10012000F1F6E3E4EDEAB7B0B9BEABACA5A28F88B7
:10013000818693949D9A2720292E3B3C35321F18A7
:10014000111603040D0A5750595E4B4C45426F6817
:10015000616673747D7A898E878095929B9CB1B617
:10016000BFB8ADAAA3A4F9FEF7F0E5E2EBECC1C677
:10017000CFC8DDDAD3D4696E676075727B7C515667
:100180005F584D4A4344191E171005020B0C2126D7
:100190002F283D3A33344E49404752555C5B7671C7
:1001A000787F6A6D64633E39303722252C2B060137
:1001B000080F1A1D1413AEA9A0A7B2B5BCBB969127
:1001C000989F8A8D8483DED9D0D7C2C5CCCBE6E197
:1001D000E8EFFAFDF4F32020BF0020BF00BF007C51
:1001E000202020202020202020202020202020200F
:1001F00020202000C8202020202020202020202077
:1002000020C900C8202020202020202020202020BD
:10021000C97C00D820202020202020202020202041
:10022000D97C00C820202020202020202020202031
:10023000C97C00C820202020202020202020202031
:10024000C97C006D696E6F706F7364206A646C2086
:10025000322E353300626F6F74696E672075703AA5
:10026000EDF2F2F2F2F2F2F2F30063616C696272A3
:100270006174657C7C6D6561737572656420616D08
:10028000703A20200063616C6962726174657C7CE5
:100290006D6561737572656420616D703A20200030
:1002A00063616C6962726174657C7C6D6561737594
:1002B00072656420766F6C743A20006C69706F20F0
:1002C000626174742063656C6C7C7C7761726E69AA
:1002D0006E67206C6576656C3A20006261747420EC
:1002E00063617061636974793A0073657475702035
:1002F00073637265656E7C7C7C000000000000000A
:1003000000000000000000010A0F1315191D202134
:10031000232527292B2D2F3031333537393A3C3ED1
:10032000404243444445464748494A4B4D4E4F504E
:10033000505152525354555658595A5B5B5C5D5D4F
:100340005E5E5E5F5F5F60606061616162626263AA
:100350006363636363636363636363636363000033
:100360000000000000000000000002070A0C0D0E53
:10037000101214151617191A1B1E2126282A2B2DA8
:100380002F31333437393C3D3E3F404142444649AA
:100390004A4B4C4D4E4F4F5051515252535454555D
:1003A00055565758595A5B5C5C5D5D5E5F5F5F6098
:1003B000606060606161616161616262626262622B
:1003C000626300407A10F35A00A0724E18090010C0
:1003D000A5D4E80000E87648170000E40B540200BA
:1003E00000CA9A3B000000E1F505000080969800E5
:1003F000000040420F000000A0860100000010270E
:1004000000000000E803000000006400000000009D
:100410000A00000000000100000000002C76D888CF
:10042000DC674F0823DFC1DFAE59E1B1B796E5E3E2
:10043000E453C63AE651997696E8E6C28426EB89FB
:100440008C9B62ED407C6FFCEFBC9C9F40F2BAA598
:100450006FA5F490055A2AF75C936B6CF9676DC130
:100460001BFCE0E40D47FEF520E6B500D0ED902E34
:100470000300943577050080841E080000204E0A92
:10048000000000C80C333333330F986E12831141D0
:10049000EF8D2114893BE65516CFFEE6DB18D1849B
:1004A0004B381BF77C1D901DA4BBE42420328472C2
:1004B0005E228100C9F124ECA1E53D276E616E004A
:1004C000696E660000000000240027002A0000007A
:1004D0000000250028002B0000000000230026005B
:1004E00029000404040404040404020202020202B7
:1004F00003030303030301020408102040800102E8
:100500000408102001020408102000000007000267
:10051000010000030406000000000000000049077D
:100520000B2C11241FBECFEFD8E0DEBFCDBF13E0F0
:10053000A0E0B1E0EAE8F4E702C005900D92A03D2A
:10054000B107D9F716E0A0EDB3E001C01D92AD35BB
:10055000B107E1F715E0C2E2D5E004C02297FE0141
:100560000E943F3ACE31D107C9F70E94BF350C94A3
:10057000433A0C940000283008F027E03327DA01D2
:10058000990F311D87FD916000966105710539F461
:1005900032602E5F3D9330E32A95E1F708959F3F47
:1005A00030F080387105610509F03C5F3C5F3D9398
:1005B000913008F08068911DDF93CF931F930F93C4
:1005C000FF92EF92192F987F9695E92F9695969521
:1005D000E90FFF27E45EFB4F99273327EE24FF2422
:1005E000A701E70105900894079428F4360FE71E49
:1005F000F81E491F511D660F771F881F991F06940B
:10060000A1F70590079428F4E70EF81E491F561F1E
:10061000C11D770F881F991F661F0694A1F70590CB
:10062000079428F4F80E491F561FC71FD11D880FC5
:10063000991F661F771F0694A1F70590079420F471
:10064000490F561FC71FD81F990F661F771F881F96
:100650000694A9F784911095177041F0D695C79527
:1006600057954795F794E7941A95C1F7E2ECF3E0B4
:1006700068941590159135916591959105907FE25B
:100680007395E118F10A430B560BC90BD009C0F75B
:10069000E10CF11E431F561FC91FD01D7EF470339D
:1006A00011F48A95E6CFE894015030F0080F0AF46F
:1006B0000027021708F4202F2395022F7A3328F001
:1006C00079E37D932A95E9F710C07D932A9589F601
:1006D000069497956795379517951794E118F10A41
:1006E000430B560BC90BD00998F023957E91739557
:1006F0007A3308F070E37C932013B8F77E91706131
:100700007D9330F0839571E37D9370E32A95E1F753
:100710001124EF90FF900F911F91CF91DF919927B6
:1007200087FD90950895FA01AA27283051F12031CC
:1007300081F1E8946F936E7F6E5F7F4F8F4F9F4F75
:10074000AF4FB1E03ED0B4E03CD0670F781F891FB7
:100750009A1FA11D680F791F8A1F911DA11D6A0F85
:10076000711D811D911DA11D20D009F468943F9138
:100770002AE0269F11243019305D3193DEF6CF0137
:100780000895462F4770405D4193B3E00FD0C9F7FD
:10079000F6CF462F4F70405D4A3318F0495D31FD6A
:1007A0004052419302D0A9F7EACFB4E0A6959795BD
:1007B000879577956795BA95C9F700976105710593
:1007C00008959B01AC010A2E0694579547953795DD
:1007D0002795BA95C9F7620F731F841F951FA01D37
:1007E0000895FC010590615070400110D8F7809584
:1007F00090958E0F9F1F0895FC01615070400190ED
:100800000110D8F7809590958E0F9F1F0895FC01D9
:100810001382128288EE93E0A0E0B0E08483958397
:10082000A683B78381E793E0918380830895FC01D9
:100830008089803419F421E030E002C020E030E00B
:10084000C9010895FC01818990E0089580E090E05D
:10085000089580E090E0089580E090E00895089584
:100860001F93CF93DF93EC01162F86E060E00E9488
:100870006B358DE396E060E00E94EF2B112319F0B9
:10088000113059F404C08DE396E0688904C068898A
:100890006C618DE396E00E94EF2B86E061E00E94A0
:1008A0006B35DF91CF911F910895EF92FF920F93D7
:1008B0001F937C010DE316E0C80167E00E94EF2B57
:1008C000C8016FEF0E94EF2B86E061E00E946B355C
:1008D000F70187858F5F87871F910F91FF90EF90BA
:1008E0000895EF92FF920F931F93FC01E7848EE12E
:1008F000E89E700111248685E80EF11C86E060E018
:100900000E946B350DE316E0C80164E00E94EF2BF6
:10091000C80163E00E94EF2BC80165E00E94EF2B45
:10092000C8016F2D0E94EF2BC80166E00E94EF2BDB
:10093000C8016E2D0E94EF2B1F910F91FF90EF9039
:100940000895FC0164874587668747870E94710484
:1009500008951F93CF93DF93EC01162F6C3731F47A
:100960000E945504CE010E9471040AC08DE396E0F6
:1009700067E00E94EF2B8DE396E0612F0E94EF2B42
:1009800081E090E0DF91CF911F910895EF92FF9267
:100990000F931F938EE1489F70011124E60EF11C06
:1009A00086E060E00E946B350DE316E0C80165E06B
:1009B0000E94EF2BC8016F2D0E94EF2BC80166E04B
:1009C0000E94EF2BC8016E2D0E94EF2B1F910F91FB
:1009D000FF90EF9008950F931F9386E060E00E94D0
:1009E0006B350DE316E0C80164E00E94EF2BC801EF
:1009F00064E00E94EF2B61E070E080E090E00E94F4
:100A0000733486E061E00E946B351F910F91089569
:100A10001F93CF93DF93EC01188A16E0198B8FE4B4
:100A200096E060E973E00E94D532813049F480E4B9
:100A3000888B88E0898B86E060E00E946B3502C07D
:100A4000188A198B86E060E00E946B35DF91CF91A8
:100A50001F9108950F931F93CF93DF93EC0186E0CE
:100A600061E00E942C3582E060E00E942C3582E03B
:100A700061E00E946B35CE010E94080586E060E0CF
:100A80000E946B358DE396E06CEE0E94EF2B8DE3B8
:100A900096E06FEF0E94EF2B182F8DE396E060E059
:100AA0000E94EF2B688962608DE396E00E94EF2B35
:100AB00062E370E080E090E00E9473348DE396E0A2
:100AC0006CE60E94EF2B1F7E8DE396E0612F0E9463
:100AD000EF2B8889803419F00DE010E002C000E1AE
:100AE00010E01092D1031092D00317C06091D00390
:100AF0007091D103605F8DE396E00E94EF2B8DE350
:100B000096E069E00E94EF2B8091D0039091D10391
:100B100001969093D1038093D0038091D00390915C
:100B2000D1038017910714F3CE0161E00E943004D5
:100B3000DF91CF911F910F9108951F920F920FB6E1
:100B40000F9211242F933F934F938F939F93EF9383
:100B5000FF934091C60020913E0630913F062F5FE3
:100B60003F4F80914206909143062823392380917C
:100B70004006909141062817390779F080913E068A
:100B800090913F06E0914406F0914506E80FF91F69
:100B9000408330933F0620933E06FF91EF919F9153
:100BA0008F914F913F912F910F900FBE0F901F90FB
:100BB00018951F920F920FB60F9211242F933F9307
:100BC0008F939F93EF93FF932091480630914906AE
:100BD000809146069091470628173907E9F08091E1
:100BE000480690914906E0914C06F0914D06E80FB9
:100BF000F91F80818093C600809148069091490634
:100C0000019620914A0630914B06822393239093BC
:100C100049068093480610C0209146063091470649
:100C200080914806909149062817390729F4809148
:100C3000C1008F7D8093C100FF91EF919F918F91B3
:100C40003F912F910F900FBE0F901F901895CF934B
:100C5000DF93482FEB018091B705833009F45FC023
:100C6000843028F48130D1F0823068F50AC08530B4
:100C700009F4D4C0853008F4AAC0863009F0F4C065
:100C8000EBC04C3309F0F0C081E08093B705488396
:100C9000E2E1F1E0E491E093B605E6C0842F90E054
:100CA000E091B605F0E0E827F927EA52FF4FE4911A
:100CB000E093B605887F9070809741F582E080933D
:100CC000B705498329C0242F30E0E091B605F0E054
:100CD000E227F327EA52FF4FE491E093B6058091B3
:100CE000B5058F5F8093B505823018F43B832A8366
:100CF000BBC0922F88272A813B81820F931F9B8341
:100D00008A830A978F3F910521F018F01092B7055A
:100D1000ABC083E08093B7051092B505A5C0E42F62
:100D2000F0E08091B60590E0E827F927EA52FF4FFE
:100D3000E491E093B6056091B5056F5F6093B505EA
:100D4000623089F0633020F4613009F08DC006C054
:100D5000633091F0643009F087C022C0842F90E0A6
:100D6000A0E0B0E018C0242F30E040E050E0542F65
:100D7000432F322F222707C0242F30E040E050E0DD
:100D8000A901332722278C819D81AE81BF81820FEB
:100D9000931FA41FB51F8C839D83AE83BF8364C044
:100DA000242F30E040E050E0522F44273327222701
:100DB0008C819D81AE81BF81820F931FA41FB51FBF
:100DC0008C839D83AE83BF836093B705A5CF242F0B
:100DD00030E0E091B605F0E0E227F327EA52FF4F5A
:100DE000E491E093B6056091B5056F5F6093B5053A
:100DF000613019F06230C1F503C03987288734C0EB
:100E0000922F882728853985280F391F3987288709
:100E10008A819B810A97F1F085E07CCFE42FF0E096
:100E20008091B60590E0E827F927EA52FF4FE49158
:100E3000E093B6052091B5052F5F2093B50530E00E
:100E4000FB01E20FF31F41878A819B810A972817D4
:100E5000390750F086E05ECFC75FDE4F4883C95048
:100E6000D14087E08093B7058091B705873069F45A
:100E70001092B705C75FDE4F9091B6058881C950C3
:100E8000D140981711F48A8101C080E0DF91CF91A1
:100E900008958F92AF92CF92EF92FF920F931F938C
:100EA00080E494E060E045EC50E024EC30E000ECBD
:100EB00010E0B1ECEB2EF12CCC24C394A8E9AA2EBF
:100EC000F0E28F2E0E94452C8DE594E00E940704ED
:100ED0001F910F91FF90EF90CF90AF908F9008955A
:100EE0009F92AF92BF92CF92DF92EF92FF920F93B9
:100EF0001F93DF93CF93CDB7DEB72A970FB6F89441
:100F0000DEBF0FBECDBF83E0A82EB12CAC0EBD1E40
:100F100007E0C02ED12CCC0EDD1E1DE9912ECAC2D9
:100F20000E94653460527E448040904098F40E9454
:100F30006534695873418040904060F01A3011F078
:100F40001D3031F48091B4058F5F8093B40502C0E9
:100F50001092B405812F6AEA74E00E942706882364
:100F600009F4A8C28091AE049091AF04A091B0049E
:100F7000B091B1048A3BE7EC9E07E1E2AE07E4E7FB
:100F8000BE0709F449C08B3BF7EC9F07F1E2AF07BE
:100F9000F4E7BF07C8F48E3729EA92072BE5A207CA
:100FA00026E2B20709F4D6C0863AEEE09E07E2E1F7
:100FB000AE07E8E4BE0709F40DC288529E45A24D73
:100FC000B44209F077C2B9C08E3F26EB920729E2FE
:100FD000A20725EAB20709F423C18F3FE6EB9E077B
:100FE000E9E2AE07E5EABE0738F486549340A24C26
:100FF000B54809F05FC24CC28C3628E6920723E45C
:10100000A20722ECB20709F4CAC186589B43A04A42
:10101000B44C09F04FC233C20E946534609370042F
:1010200070937104809372049093730483E08093AF
:101030006F048091C4049091C504A091C604B0913E
:10104000C7048F839887A987BA876F817885898538
:101050009A850E942E377093750460937404809172
:10106000C8049091C904A091CA04B091CB048F83A5
:101070009887A987BA876F81788589859A850E9424
:101080002E3770937704609376048091CC0490910E
:10109000CD04A091CE04B091CF048F839887A98707
:1010A000BA876F81788589859A850E942E378B0152
:1010B000709379046093780460917A0470917B0452
:1010C00080917C0490917D0420E030E040E050E08D
:1010D0000E94BF36882331F0809182048150833092
:1010E00008F02BC2B801882777FD8095982F0E94C1
:1010F00061377B018C0160937E0470937F04809341
:1011000080049093810420E030E040E050E00E94B1
:10111000BF3688230CF011C2C801B70120E030E0CF
:1011200044EB53E40E94F93560937E0470937F048E
:10113000809380049093810400C28091B4048093D2
:1011400083048091B604809384048091B5048093D5
:101150008504B0C18091B4049091B504A091B60407
:10116000B091B704F60180839183A283B3836F812A
:10117000788589859A8520E030E048EC52E40E9429
:1011800094380E942E377093870460938604693CDC
:10119000710520F010928704109286048091CE048D
:1011A0009091CF0490938904809388048091D00417
:1011B0009091D10490938B0480938A048091DA04F7
:1011C0009091DB0490934903809348036091E0047D
:1011D0007091E1047A83698370934B0360934A03AF
:1011E00080E090E00E945F3720E030E04AEF54E476
:1011F0000E94F83520E030E040E251E40E94C6361B
:1012000020E030E040E05FE30E94F8350E942E3796
:1012100060934C036D390CF04DC190924C034AC160
:101220006091B4047091B5048091B6049091B704B4
:101230000E94613720E836E948E15BE40E94C63647
:1012400060937A0470937B0480937C0490937D0474
:101250006091B8047091B9048091BA049091BB0474
:10126000D5016C9311967C93119712968C931297DB
:1012700013969C930E94613720E836E948E15BE4CD
:101280000E94C63660938C0470938D0480938E0404
:1012900090938F048091D904809390048091D80416
:1012A00080939104809182048150833068F560912D
:1012B000780470917904882777FD8095982F0E9493
:1012C00061377B018C0160937E0470937F0480936F
:1012D00080049093810420E030E040E050E00E94E0
:1012E000BF36882354F5C801B70120E030E044EB55
:1012F00053E40E94F93560937E0470937F048093D9
:1013000080049093810419C08091C4049091C50415
:10131000A091C604B091C704F60180839183A28393
:10132000B3838F819885A985BA8580937E04909335
:101330007F04A0938004B09381048091BC049091B9
:10134000BD04A091BE04B091BF04F60180839183D7
:10135000A283B3838F819885A985BA8580939204EF
:1013600090939304A0939404B09395048091C8043F
:101370009091C904A091CA04B091CB048083918359
:10138000A283B3838F819885A985BA8580939604BB
:1013900090939704A0939804B09399048BC0809184
:1013A000BC049091BD04A091BE04B091BF04F601AD
:1013B00080839183A283B3838F819885A985BA8521
:1013C000B05880939A0490939B04A0939C04B0938C
:1013D0009D0470C08091B4049091B504A091B604AE
:1013E000B091B704F60180839183A283B3836F81A8
:1013F000788589859A850E942E37882777FD809584
:10140000982F0E9461377B018C0160939E0470933A
:101410009F048093A0049093A10460914D03709168
:101420004E0380914F039091500320E03CE34CE148
:1014300056EC0E94BF36882341F4E0924D03F092AF
:101440004E0300934F03109350038091B804909182
:10145000B904A091BA04B091BB04F60180839183D2
:10146000A283B3838F819885A985BA858093A204CE
:101470009093A304A093A404B093A5041BC08091EF
:101480000E058093A6048091C2048093A70412C025
:101490002091BE042093A8049091C3049093A904C2
:1014A0008091C10480938204913009F046C02130BC
:1014B00009F043C080E494E00E94972C18161906A6
:1014C0001CF580E494E00E94C72C182F80916F04D3
:1014D000882309F03FCD24CD10926F04DD24D394EE
:1014E0008D2D90E02A960FB6F894DEBF0FBECDBFCB
:1014F000CF91DF911F910F91FF90EF90DF90CF90F0
:10150000BF90AF909F900895DD24E0907004F0901C
:101510007104009172041091730480E197E2A0E0DD
:10152000B0E0E80EF91E0A1F1B1F0E946534E61684
:10153000F7060807190780F2D3CFDD24D394E5CF4F
:1015400060917E0470917F04809180049091810469
:1015500020E030E040E152E40E94943820E030E0A6
:1015600044EB53E40E94C6360E94F7380E942E379F
:101570009B012550304037FF03C09B01215E3F4F48
:10158000A7ECB5E0F901ED56FC4F80818C932F5FFD
:101590003F4F2432310514F020E030E0119685E011
:1015A000A23DB80779F71C9208952F923F924F926F
:1015B0005F926F927F928F929F92AF92BF92CF92E3
:1015C000DF92EF92FF920F931F93DF93CF9300D0A0
:1015D00000D000D0CDB7DEB7182F662E209174044E
:1015E000309175042A35310530F0C9018D549F4F73
:1015F00089359105E8F437FF02C02D543F4FC901EA
:1016000037FF03C0909581959F4F8A3191053CF03B
:1016100024E4822E912C99ED292E312C1DC00A979D
:101620005CF18BE3882E912C02ED202E312C20C012
:101630002B35310514F0235B3040C90137FF03C05F
:10164000909581959F4F8A31910554F0B6E58B2E88
:10165000912CACED2A2E312CF7E0AF2EB12C15C019
:101660000A9754F0EDE48E2E912C74ED272E312C38
:1016700068E0A62EB12C09C055E0852E912C48E3D8
:10168000242E312C39E0A32EB12C60917604709178
:101690007704882777FD8095982F0E94613727EA85
:1016A00032E94BE25CEB0E9494380E94683920E0FA
:1016B00030E040EA50E40E94943820E030E040E915
:1016C00051E40E9494380E94F73820E030E044E36F
:1016D00052E40E94F9350E942E37712E2EEBC22E55
:1016E0002FEFD22E9B01442737FD4095542F29839D
:1016F0003A834B835C839DE5492E94E0592E4AEF53
:101700005FEF240E351E6091740470917504882774
:1017100077FD8095982F0E94613725E33AEF4EE8D8
:101720005CE30E9494380E9468397B018C01B60109
:10173000882777FD8095982F0E9461379B01AC0127
:10174000C801B7010E9494387B018C0169817A81BC
:101750008B819C810E9461379B01AC01C801B7015C
:101760000E94F9350E942E379B01CB0101978A35E3
:10177000910508F071C062E170E00E94D9398B01D7
:101780002F5F3F4FAEEEBFEF6A9FC0016B9F900D82
:101790007A9F900D1124820F931F62E070E00E94E7
:1017A000D9396D837E83E62CE01A4E2D4C5F8DE592
:1017B00094E0672D0E94C60400D000D000D0EDB7A1
:1017C000FEB73196ADB7BEB712965C924E921197A6
:1017D00020E031E0338322838D819E81880D991D25
:1017E000958384830E94242C4DB75EB74A5F5F4F78
:1017F0000FB6F8945EBF0FBE4DBF8D819E818A15D6
:101800009B0554F1043011053CF593E0E90EC2014B
:10181000672D4E2D0E94C60400D000D000D0EDB739
:10182000FEB73196ADB7BEB712965C924E92119745
:1018300020E031E0338322834D815E81420D531DD0
:10184000558344830E94242C8DB79EB706960FB60D
:10185000F8949EBF0FBE8DBFACE0B0E0CA0EDB1E99
:101860007394BEE4CB16D10409F04DCF26960FB683
:10187000F894DEBF0FBECDBFCF91DF911F910F91C6
:10188000FF90EF90DF90CF90BF90AF909F908F90A0
:101890007F906F905F904F903F902F900895CF92E0
:1018A000DF92EF92FF920F931F93823010F402E0C9
:1018B00002C0082F000F6091B8057091B9058091A2
:1018C000BA059091BB050E9461376B017C0120E055
:1018D00030E44CE156E40E94BF36202F30E04DE565
:1018E00054E0882334F58DB79EB70E970FB6F89461
:1018F0009EBF0FBE8DBFEDB7FEB73196ADB7BEB779
:1019000012965C934E93119783E091E093838283C8
:1019100022573F4F358324832F5F3F4F37832683E2
:10192000C086D186E286F3868DE890E0958784872D
:1019300034C08DB79EB70E970FB6F8949EBF0FBEFA
:101940008DBF0DB71EB70F5F1F4FADB7BEB7129655
:101950005C934E9311978FE091E0F801938382831B
:1019600022573F4F358324832F5F3F4F3783268392
:10197000C701B60120E030E04AE754E40E94C636D1
:10198000D80118966D937D938D939C931B978DEF43
:1019900090E01D969C938E931C970E94242CEDB78B
:1019A000FEB73E960FB6F894FEBF0FBEEDBF1F9177
:1019B0000F91FF90EF90DF90CF900895CF93DF933A
:1019C000AC01E0918804F09189042091BC0530912C
:1019D000BD05C9018C599F4F8E179F071CF4EA0162
:1019E000219609C024563040E217F30714F0EA01AB
:1019F00002C0EA012197842F90E0C817D90729F087
:101A00008FE496E04C2F0E94DC32CE01DF91CF9123
:101A10000895CF92DF92EF92FF920F931F93CF938F
:101A2000DF937C016B01EA0100D000D00DE514E0EA
:101A3000EDB7FEB7128301838FED91E0948383832A
:101A40000E94132C0F900F900F900F90CA30D10569
:101A500081F0C436D10521F0C130D10519F512C08D
:101A600000D000D0EDB7FEB7128301838DED91E079
:101A700011C000D000D0EDB7FEB7128301838AED0C
:101A800091E008C000D000D0EDB7FEB7128301830B
:101A900086ED91E0948383830E94132C0F900F9026
:101AA0000F900F9040918804509189042091BC05BB
:101AB0003091BD05C9018C599F4F841795071CF4BF
:101AC000CE0DDF1D0BC0245630404217530714F0D3
:101AD000E70116C0C7018C1B9D0BEC01CE15DF057D
:101AE00079F08FE496E0B6014C2F0E94DC32089426
:101AF000C11CD11C8FE496E0B6014D2F0E94DC3250
:101B0000CE01DF91CF911F910F91FF90EF90DF9069
:101B1000CF900895CF92DF92EF92FF920F931F9391
:101B20007C01D62EC72E0DE514E0C8016E2D4D2D7B
:101B30000E94A10400D000D0EDB7FEB7128301834C
:101B400083E392E0948383830E94132CEDB7FEB766
:101B50001283018383E292E0948383830E94132C97
:101B6000EDB7FEB71283018383E192E09483838310
:101B70000E94132CEDB7FEB71283018383E092E03D
:101B8000948383830E94132CEDB7FEB712830183E5
:101B900084EF91E0948383830E94132C0F900F9025
:101BA0000F900F90C8010E945504C70101966D2D3A
:101BB0007C2D0E94D50A1F910F91FF90EF90DF902E
:101BC000CF9008950F931F93282F462F0DE514E013
:101BD000C801622F0E94A1042091BE053091BF056B
:101BE0008DB79EB70C970FB6F8949EBF0FBE8DBFF2
:101BF000EDB7FEB73196ADB7BEB712961C930E93F4
:101C000011978BE191E09383828383EB90E095833E
:101C10008483C9016CE370E00E94D939CB016CE385
:101C200070E00E94D939978386838AE390E0918798
:101C30008087C9016CE370E00E94D939938782875D
:101C40000E94242C8DB79EB70C960FB6F8949EBFB9
:101C50000FBE8DBFC8010E9455041F910F910895BA
:101C60000F931F93282F462F0DE514E0C801622F14
:101C70000E94A1048DB79EB70C970FB6F8949EBF33
:101C80000FBE8DBFEDB7FEB73196ADB7BEB712969A
:101C90001C930E93119787E291E09383828383EEE6
:101CA00090E0958384838091A2049091A304A091F5
:101CB000A404B091A50486839783A087B18780EBA5
:101CC00090E0938782870E94242C8DB79EB70C9654
:101CD0000FB6F8949EBF0FBE8DBFC8010E94550479
:101CE0001F910F9108950F931F93282F462F0DE5F5
:101CF00014E0C801622F0E94A1048DB79EB70C9713
:101D00000FB6F8949EBF0FBE8DBFEDB7FEB73196EC
:101D1000ADB7BEB712961C930E93119781E391E075
:101D20009383828387EB90E0958384838091510332
:101D300090915203A0915303B091540386839783EB
:101D4000A087B18785E290E0938782870E94242C48
:101D50008DB79EB70C960FB6F8949EBF0FBE8DBF81
:101D6000C8010E9455041F910F910895EF92FF92B0
:101D70000F931F93282F462F3DE5E32E34E0F32EDB
:101D8000C701622F0E94A1048DB79EB70C970FB6B2
:101D9000F8949EBF0FBE8DBF0DB71EB70F5F1F4FCC
:101DA000EDB7FEB7F282E1828BE391E0F801938315
:101DB000828384EE90E0958384836091C005709166
:101DC000C105882777FD8095982F0E9461372AE00A
:101DD00037ED43E25CE30E949438F8016683778331
:101DE000808791878FE890E0938782870E94242CD8
:101DF0008DB79EB70C960FB6F8949EBF0FBE8DBFE1
:101E0000C7010E9455041F910F91FF90EF90089514
:101E1000CF92DF92EF92FF920F931F93CF93DF93B6
:101E2000282F462F8DE594E0622F0E94A104C090D8
:101E3000C205D090C305E090C405F090C505C091DF
:101E40005503D09156038091C60590E0805D9E4F6A
:101E50008C9FB0018D9F700D9C9F700D1124882761
:101E600077FD8095982F0E94613720E030E048ECA4
:101E700052E40E94C6369B01AC01C701B6010E9424
:101E8000BF36181614F428EB01C024EB8DB79EB7AB
:101E900040970FB6F8949EBF0FBE8DBFEDB7FEB74B
:101EA00031960DE514E0ADB7BEB712961C930E93B4
:101EB000119785E491E093838283D583C48380E87E
:101EC00090E097838683822F992787FD909591874D
:101ED0008087C286D386E486F5868EE890E0978771
:101EE00086870E94242C8DB79EB740960FB6F89433
:101EF0009EBF0FBE8DBFC8010E945504DF91CF91D8
:101F00001F910F91FF90EF90DF90CF9008950F9366
:101F10001F93CF93DF93282F462F8DE594E0622FF8
:101F20000E94A10480918504882319F4C3E5D1E0BF
:101F300057C0813019F4C7E5D1E052C0823019F49E
:101F4000CBE5D1E04DC0833019F4CFE5D1E048C0F6
:101F5000843019F4C3E6D1E043C0853019F4C7E6F4
:101F6000D1E03EC0863019F4CBE6D1E039C08730ED
:101F700019F4CFE6D1E034C0883019F4C3E7D1E0DA
:101F80002FC0893019F4C7E7D1E02AC08A3019F48C
:101F9000CBE7D1E025C08B3019F4CFE7D1E020C0EA
:101FA0008C3019F4C3E8D1E01BC08D3019F4C7E8B8
:101FB000D1E016C08E3019F4CBE8D1E011C08F30DB
:101FC00019F4CFE8D1E00CC0803119F4C3E9D1E0B5
:101FD00007C0813119F0C7E9D1E002C0C8E9D1E0FA
:101FE0008150863090F480918404882371F00E949F
:101FF00065342CE231E040E050E00E94EC3920FFF3
:1020000002C024E003C020E201C020EE8DB79EB7DD
:1020100008970FB6F8949EBF0FBE8DBFEDB7FEB701
:1020200031960DE514E0ADB7BEB712961C930E9332
:1020300011978CE991E093838283822F992787FD02
:10204000909595838483D783C6830E94242C8DB773
:102050009EB708960FB6F8949EBF0FBE8DBFC801FD
:102060000E945504DF91CF911F910F9108950F9316
:102070001F93282F462F0DE514E0C801622F0E9400
:10208000A1048DB79EB70A970FB6F8949EBF0FBEF6
:102090008DBFEDB7FEB73196ADB7BEB712961C93A4
:1020A0000E93119781EA91E09383828387E890E011
:1020B0009583848380918604909187049783868397
:1020C00085E290E0918780870E94242C8DB79EB78F
:1020D0000A960FB6F8949EBF0FBE8DBFC8010E942E
:1020E00055041F910F9108950F931F93282F462F8A
:1020F0000DE514E0C801622F0E94A1048DB79EB7C0
:1021000008970FB6F8949EBF0FBE8DBFEDB7FEB710
:102110003196ADB7BEB712961C930E9311978BEA0A
:1021200091E09383828380917604909177049583E4
:10213000848381EB90E0978386830E94242C8DB763
:102140009EB708960FB6F8949EBF0FBE8DBFC8010C
:102150000E9455041F910F9108950F931F93282FEC
:10216000462F0DE514E0C801622F0E94A1048DB72F
:102170009EB708970FB6F8949EBF0FBE8DBFEDB700
:10218000FEB73196ADB7BEB712961C930E9311975A
:102190008BEA91E09383828380917404909175041B
:1021A0009583848382EB90E0978386830E94242C1E
:1021B0008DB79EB708960FB6F8949EBF0FBE8DBF21
:1021C000C8010E9455041F910F910895AF92BF92CC
:1021D000CF92DF92EF92FF920F931F93B82EA62E0D
:1021E0000DE514E0C8016B2D4A2D0E94A1048DB7A6
:1021F0009EB70E970FB6F8949EBF0FBE8DBFEDB77A
:10220000FEB73196ADB7BEB712961C930E931197D9
:1022100081EB91E09383828351EEC52ED12CD58240
:10222000C4828091A604992787FD90959783868321
:102230004CE8E42EF12CF186E0868091A704828799
:1022400013868BE890E0958784870E94242C8DB7B5
:102250009EB70E960FB6F8949EBF0FBE8DBFC801F5
:102260000E945504C8016B2D4A2D0E94A104ADB7F0
:10227000BEB71A970FB6F894BEBF0FBEADBFEDB78D
:10228000FEB7319612961C930E9311978FEB91E047
:1022900093838283D582C48280914C03992787FDE2
:1022A000909597838683F186E0860E94242C8DB7D3
:1022B0009EB70A960FB6F8949EBF0FBE8DBFC80199
:1022C0000E9455041F910F91FF90EF90DF90CF90E7
:1022D000BF90AF9008950F931F93282F462F0DE5C1
:1022E00014E0C801622F0E94A1048DB79EB74297E7
:1022F0000FB6F8949EBF0FBE8DBFEDB7FEB73196F7
:10230000ADB7BEB712961C930E93119787EC91E070
:102310009383828388ED91E09583848380917E040A
:1023200090917F04A0918004B0918104868397836B
:10233000A087B18780EB90E09387828780ED90E063
:102340009587848787EC95E09787868781ED90E075
:10235000918B808B0E94242C8DB79EB742960FB62E
:10236000F8949EBF0FBE8DBFC8010E9455041F91F7
:102370000F9108950F931F93282F462F0DE514E01A
:10238000C801622F0E94A1048DB79EB70C970FB6AB
:10239000F8949EBF0FBE8DBFEDB7FEB73196ADB7B7
:1023A000BEB712961C930E93119787E291E0938328
:1023B000828386E190E09583848380919A04909152
:1023C0009B04A0919C04B0919D0486839783A08771
:1023D000B18788E890E0938782870E94242C8DB78C
:1023E0009EB70C960FB6F8949EBF0FBE8DBFC80166
:1023F0000E9455041F910F910895CF92DF92EF92A2
:10240000FF920F931F93CF93DF93282F462FCDE595
:10241000D4E0CE01622F0E94A104C090D305D090D9
:10242000D405E090D505F090D605C701B6010E940D
:102430002E37695E7340804090408CF18DB79EB717
:102440000C970FB6F8949EBF0FBE8DBF0DB71EB789
:102450000F5F1F4FADB7BEB71296DC93CE931197A7
:102460008BE391E0F801938382838EEF90E0958374
:102470008483C701B60120E030E04AE754E40E94BB
:10248000C636D80116966D937D938D939C931997BC
:102490008DEF90E01B969C938E931A9721C08DB779
:1024A0009EB70C970FB6F8949EBF0FBE8DBFEDB7C9
:1024B000FEB73196ADB7BEB71296DC93CE931197A7
:1024C00082EE91E0938382838EEF90E09583848304
:1024D000C682D782E086F1868DE890E09387828776
:1024E0000E94242CEDB7FEB73C960FB6F894FEBFC1
:1024F0000FBEEDBF8DE594E00E945504DF91CF91B2
:102500001F910F91FF90EF90DF90CF900895EF9281
:10251000FF920F931F93282F462F6DE5E62E64E060
:10252000F62EC701622F0E94A1048DB79EB70C97AB
:102530000FB6F8949EBF0FBE8DBF0DB71EB70F5FCD
:102540001F4FEDB7FEB7F282E18287E291E0F8011A
:102550009383828388EE90E0958384836091D7058E
:102560007091D8058091D9059091DA0526E636E676
:1025700046E650E40E949438F801668377838087AA
:10258000918781E890E0938782870E94242C8DB701
:102590009EB70C960FB6F8949EBF0FBE8DBFC701B5
:1025A0000E9455041F910F91FF90EF900895EF92B4
:1025B000FF920F931F93282F462F7DE5E72E74E09F
:1025C000F72EC701622F0E94A1048DB79EB70C970A
:1025D0000FB6F8949EBF0FBE8DBF0DB71EB70F5F2D
:1025E0001F4FEDB7FEB7F282E18287E291E0F8017A
:1025F0009383828389EE90E095838483609196042F
:1026000070919704809198049091990426E636E69B
:1026100046E650E40E949438F80166837783808709
:10262000918781E890E0938782870E94242C8DB760
:102630009EB70C960FB6F8949EBF0FBE8DBFC70114
:102640000E9455041F910F91FF90EF900895CF9233
:10265000DF92EF92FF920F931F93282F462FBDE535
:10266000CB2EB4E0DB2EC601622F0E94A104609144
:1026700092047091930480919404909195042DB7E5
:102680003EB7245130400FB6F8943EBF0FBE2DBF69
:102690000DB71EB70F5F1F4FEDB7FEB7D282C182D5
:1026A0002CEE31E0F8013383228325E830E03583D6
:1026B00024836683778380879187ADE8EA2EF12CA7
:1026C000F386E28627EE30E0358724872091DB050C
:1026D0003091DC054091DD055091DE050E94F83512
:1026E000F80166877787808B918BF38AE28A0E9454
:1026F000242C2DB73EB72C5E3F4F0FB6F8943EBF4B
:102700000FBE2DBFC6010E9455041F910F91FF906F
:10271000EF90DF90CF900895EF92FF920F931F9369
:10272000282F462F1DE5E12E14E0F12EC701622F60
:102730000E94A1048DB79EB70C970FB6F8949EBF68
:102740000FBE8DBF0DB71EB70F5F1F4FEDB7FEB7A2
:10275000F282E18280E092E0F8019383828386EE48
:1027600090E09583848360919E0470919F04809192
:10277000A0049091A10420914D0330914E0340910B
:102780004F03509150030E94F835F8016683778318
:10279000808791878DE890E0938782870E94242C20
:1027A0008DB79EB70C960FB6F8949EBF0FBE8DBF27
:1027B000C7010E9455041F910F91FF90EF9008955B
:1027C0000F931F93282F462F0DE514E0C801622FA9
:1027D0000E94A1048091DF050E944F0CC8010E9455
:1027E00055041F910F910895CF92DF92EF92FF92BF
:1027F0000F931F93CF93DF93282F462FCDE5D4E07F
:10280000CE01622F0E94A1046091E0057091E10564
:102810008091E2059091E3050E9461376B017C0194
:1028200020E030E44CE156E40E94BF36882314F5E2
:102830008DB79EB70C970FB6F8949EBF0FBE8DBF95
:10284000EDB7FEB73196ADB7BEB71296DC93CE9317
:10285000119780E092E09383828382E190E09583F8
:102860008483C682D782E086F1868DE890E09387E4
:10287000828730C08DB79EB70C970FB6F8949EBF75
:102880000FBE8DBF0DB71EB70F5F1F4FADB7BEB7E1
:102890001296DC93CE9311978AE092E0F80193832D
:1028A000828382E190E095838483C701B60120E0B2
:1028B00030E04AE754E40E94C636D80116966D937C
:1028C0007D938D939C9319978DEF90E01B969C932D
:1028D0008E931A970E94242CEDB7FEB73C960FB644
:1028E000F894FEBF0FBEEDBF8DE594E00E94550445
:1028F000DF91CF911F910F91FF90EF90DF90CF90DC
:102900000895BF92CF92DF92EF92FF920F931F93A1
:10291000CF93DF93282F462F8DE594E0622F0E94FE
:10292000A1042091E4053091E50537FF02C04AE893
:1029300001C047EFC091E605D091E705D7FF03C07E
:102940006AE8B62E02C058EFB52E8DB79EB74497F1
:102950000FB6F8949EBF0FBE8DBF0DB71EB70F5FA9
:102960001F4F9DE5C92E94E0D92EEDB7FEB7D28258
:10297000C18284E192E0F80193838283842F9927B6
:1029800087FD909595838483B901882777FD80958D
:10299000982F0E946137F80166837783808791873B
:1029A0008DE8E82EF12CF386E2868B2D992787FDA2
:1029B000909595878487BE01882777FD8095982F0D
:1029C0000E946137F80166877787808B918BF38A45
:1029D000E28A0E94242C8DB79EB744960FB6F894D5
:1029E0009EBF0FBE8DBFC6010E945504DF91CF91DF
:1029F0001F910F91FF90EF90DF90CF90BF900895BF
:102A00000F931F93282F462F0DE514E0C801622F66
:102A10000E94A1048DB79EB70C970FB6F8949EBF85
:102A20000FBE8DBFEDB7FEB73196ADB7BEB71296EC
:102A30001C930E93119788E292E093838283809196
:102A40007A0490917B04A0917C04B0917D048483EE
:102A50009583A683B78380918C0490918D04A09177
:102A60008E04B0918F0480879187A287B3870E94DC
:102A7000242C8DB79EB70C960FB6F8949EBF0FBE50
:102A80008DBFC8010E9455041F910F9108950F93A7
:102A90001F93282F462F8DE594E0622F0E94A104FA
:102AA00080919104282F30E0823030F474E0220FBE
:102AB000331F7A95E1F702C02150304000D000D09A
:102AC00000D0EDB7FEB731960DE514E0ADB7BEB757
:102AD00012961C930E93119780E091E0938382836A
:102AE000358324830E94242C8DB79EB706960FB69B
:102AF000F8949EBF0FBE8DBFC8010E9455041F9160
:102B00000F9108950F931F93282F462F0DE514E082
:102B1000C801622F0E94A1048DB79EB708970FB617
:102B2000F8949EBF0FBE8DBFEDB7FEB73196ADB71F
:102B3000BEB712961C930E93119784E392E0938391
:102B400082838FE090E095838483809190048683D4
:102B500017820E94242C8DB79EB708960FB6F89462
:102B60009EBF0FBE8DBFC8010E9455041F910F91DB
:102B700008950F931F930DE514E0C80161E047E04D
:102B80000E94A10400D000D0EDB7FEB712830183EC
:102B900083E492E0948383830E94132C0F900F9020
:102BA0000F900F90C8010E9455041F910F91089536
:102BB0000F931F93282F462F0DE514E0C801622FB5
:102BC0000E94A10400D000D0EDB7FEB712830183AC
:102BD00085E592E0948383830E94132C0F900F90DD
:102BE0000F900F90C8010E9455041F910F910895F6
:102BF000EF92FF920F931F93CF93DF930E94653460
:102C00002091F1053091F2054091F3055091F405C2
:102C1000261737074807590708F0E6C20E946534AF
:102C20006C507E4F8F4F9F4F6093F1057093F2056C
:102C30008093F3059093F4050DE514E0C8010E941C
:102C4000EB04C80165E043E00E94A10400D000D07D
:102C5000ADB7BEB712961C930E9311978AEE92E011
:102C600014969C938E9313970E94132C0F900F90A1
:102C70000F900F908091BC059091BD05892B31F08C
:102C80008091E8059091E905892B81F48091880471
:102C9000909189049093BD058093BC0580918A042E
:102CA00090918B049093E9058093E80520918A0424
:102CB00030918B044091E8055091E905C901845693
:102CC00090404817590724F48091F0058F5F08C0A1
:102CD0002C593F4F241735072CF48091F005815073
:102CE0008093F0058091F005823014F482E003C0F7
:102CF0008E301CF08DE08093F0058091F0058730D8
:102D000009F4F4C088308CF4843009F494C0853020
:102D100034F4823091F1833009F062C222C08530F0
:102D2000E9F0863009F05CC225C08A3009F451C14F
:102D30008B3034F4883079F0893009F051C217C0F3
:102D40008C3091F08C3024F08D3009F049C2C5C12F
:102D5000C4E6D0E0C9C1C4E6D0E042C1C4E6D0E0D8
:102D6000CCC0CAE0D0E00BC084E690E0B8C184E6F5
:102D700090E031C184E690E0BBC0C4E6D0E000D072
:102D800000D0BDE5EB2EB4E0FB2EEDB7FEB7F2822E
:102D9000E1828BED92E0948383830E94132C8DB7A4
:102DA0009EB708970FB6F8949EBF0FBE8DBF0DB7A4
:102DB0001EB70F5F1F4FADB7BEB71296FC92EE92D3
:102DC00011978AE392E0F80193838283609157031D
:102DD00070915803882777FD8095982F0E9461375E
:102DE000D80114966D937D938D939C93179782E8E9
:102DF00090E019969C938E93189780E290E01B9632
:102E00009C938E931A970E94242CEDB7FEB73C96A4
:102E10000FB6F894FEBF0FBEEDBF8091570390919F
:102E200058036DEF73E0AE010E94090D90935803B3
:102E300080935703D5C100D000D0ADE5EA2EA4E0C1
:102E4000FA2EADB7BEB71296FC92EE9211978BEBAD
:102E500092E014969C938E9313970E94132CEDB7D7
:102E6000FEB738970FB6F894FEBF0FBEEDBF0DB793
:102E70001EB70F5F1F4FF282E18282E492E0D80119
:102E800013969C938E9312976091C60570E0645DD3
:102E90007E4F882777FD8095982F0E94613720E02C
:102EA00030E048EC52E40E94C636F8016483758332
:102EB0008683978386E790E09187808780E290E021
:102EC000938782870E94242C8DB79EB70C960FB6ED
:102ED000F8949EBF0FBE8DBF8091C60590E060E85C
:102EE00073E00E94DE0C8093C6057AC18AE090E010
:102EF0006AE070E00E94D939EB0100D000D00DE506
:102F000014E0ADB7BEB712961C930E93119780EAEA
:102F100092E014969C938E9313970E94132CEDB716
:102F2000FEB738970FB6F894FEBF0FBEEDBF3196CF
:102F3000ADB7BEB712961C930E9311978BE391E039
:102F40009383828382EE90E0958384838091C2058F
:102F50009091C305A091C405B091C5058683978360
:102F6000A087B1878EE890E0938782870E94242C07
:102F7000EDB7FEB736960FB6F894FEBF0FBEEDBFA5
:102F80003196ADB7BEB712961C930E9311978AE493
:102F900092E0938382838091EA059091EB0595837B
:102FA00084830E94242CEDB7FEB736960FB6F894B2
:102FB000FEBF0FBEEDBF8091EA059091EB0564EF77
:102FC00073E0AE010E94090D9093EB058093EA0532
:102FD00007C18AE090E06AE070E00E94D939EB0115
:102FE00000D000D0FDE5EF2EF4E0FF2EADB7BEB768
:102FF0001296FC92EE92119785E892E014969C93BB
:103000008E9313970E94132CEDB7FEB738970FB627
:10301000F894FEBF0FBEEDBF0DB71EB70F5F1F4F79
:10302000F282E1828BE391E0D80113969C938E9318
:10303000129784EE90E015969C938E93149760916E
:10304000C0057091C105882777FD8095982F0E9453
:1030500061372AE037ED43E25CE30E949438F801DF
:1030600066837783808791878FE890E09387828754
:103070000E94242C8DB79EB706960FB6F8949EBF7B
:103080000FBE8DBFEDB7FEB73196ADB7BEB7129686
:10309000FC92EE92119781E692E093838283809175
:1030A000EC059091ED05958384830E94242CEDB767
:1030B000FEB736960FB6F894FEBF0FBEEDBF8091F7
:1030C000EC059091ED0568EF73E0AE010E94090DEB
:1030D0009093ED058093EC0583C08AE090E06AE070
:1030E00070E00E94D939EB0100D000D0EDE5EE2E62
:1030F000E4E0FE2EADB7BEB71296FC92EE921197A9
:103100008AE692E014969C938E9313970E94132C58
:10311000EDB7FEB738970FB6F894FEBF0FBEEDBF00
:103120000DB71EB70F5F1F4FF282E1828BE391E074
:10313000D80113969C938E93129784EE90E0159687
:103140009C938E9314976091C0057091C105882758
:1031500077FD8095982F0E9461372AE037ED43E292
:103160005CE30E949438F8016683778380879187B7
:103170008FE890E0938782870E94242C8DB79EB7BA
:1031800006960FB6F8949EBF0FBE8DBFEDB7FEB783
:103190003196ADB7BEB71296FC92EE92119788E7C2
:1031A00092E0938382838091EE059091EF05958361
:1031B00084830E94242CEDB7FEB736960FB6F894A0
:1031C000FEBF0FBEEDBF8091EE059091EF0566EF5B
:1031D00073E0AE010E94090D9093EF058093EE0518
:1031E0008DE594E00E945504DF91CF911F910F91DE
:1031F000FF90EF9008952F923F924F925F926F92BF
:103200007F928F929F92AF92BF92CF92DF92EF9276
:10321000FF920F931F93DF93CF93CDB7DEB76097E5
:103220000FB6F894DEBF0FBECDBF8D876E870E94AC
:1032300065342091F5053091F6054091F7055091E0
:10324000F805261737074807590708F0F4C1809199
:10325000F9058823C9F0809359031092F9058FE886
:1032600092E090930806809307060E946534625AA4
:103270007E4F8F4F9F4F6093F5057093F6058093B7
:10328000F7059093F80591C180915903282F30E0FC
:103290003A832983C09083043091A8043C874091ED
:1032A000A9044B87D0908204E090FB05F090FC05C8
:1032B000009107061091080650916F045B8380917E
:1032C00091048A879091FA0599872090C2053090E1
:1032D000C3054090C4055090C5058091C60590E097
:1032E000845D9E4F2091550330915603DC01A29FCF
:1032F000C001A39F900DB29F900D11246090D80340
:10330000B0E46B227090D9037B22E0914C03E887F4
:103310002091E4053091E5053F832E834091E60539
:103320005091E7055D834C83A981BA81B88BAF8743
:103330004C01AA2497FCA094BA2CEF85F889319609
:10334000F88BEF8739972CF021E030E0388B2F870E
:1033500027C04F8558894430510509F454C0453081
:10336000510564F442305105D1F1433051050CF060
:103370003EC04130510509F099C012C08F8598892F
:103380008630910509F460C0863091050CF452C076
:103390008730910509F463C0089709F087C077C0AA
:1033A00091E09C15A0F0C91619F40CE912E015C0C3
:1033B000AC85A13049F4BB85B13031F4E2E0ED15C4
:1033C00018F009EA12E009C006EB12E006C0FB851E
:1033D000F13009F46BC003EC12E081E070C02B8186
:1033E000233009F463C000ED12E082E068C03A8542
:1033F000323008F05BC04985442309F457C00DED15
:1034000012E083E05CC0C501B4010E94613720E096
:1034100030E048EC52E40E94C6369B01AC01C20188
:10342000B1010E94BF3688230CF040C00AEE12E0C2
:1034300084E045C051E0E516F104C1F507EF12E064
:10344000EE24FF2485E03BC0662011F4772071F163
:103450008885893B5CF504E013E086E030C091E0AC
:103460009C1520F19D1510F5A2E0DA1619F401E182
:1034700013E005C0B3E0DB1621F40EE113E087E0B2
:103480001EC0E4E0DE16D9F70BE213E0F8CFF1E05E
:10349000FC1560F42E813F8137FD04C04C815D81B5
:1034A00057FF04C008E313E088E009C08F859889BE
:1034B000A981BA818A179B0709F03FCFA1C0F0927A
:1034C000FC05E092FB051093080600930706809325
:1034D000F90581E08093FD050E94653464547D4FB9
:1034E0008F4F9F4F6093F5057093F6058093F70516
:1034F0009093F8050E9465346854744F8F4F9F4F26
:103500006093030670930406809305069093060665
:103510008091FE059091FF05A0910006B0910106F3
:103520000097A105B10571F40E9465346059784E89
:103530008F4F9F4F6093FE057093FF0580930006A9
:103540009093010680910206882379F40E946534E5
:103550002091FE053091FF05409100065091010633
:10356000261737074807590720F08DE594E00E9499
:10357000EB040E9465342091FE053091FF054091D7
:10358000000650910106261737074807590768F0CB
:10359000109202060AC01092FD051092FE051092CC
:1035A000FF0510920006109201060DE514E0C80117
:1035B0006D854E850E94A10400D000D000D0EDB7EB
:1035C000FEB73196ADB7BEB712961C930E93119706
:1035D00085E493E0938382838091070690910806A7
:1035E000958384830E94242CEDB7FEB736960FB6E0
:1035F000F894FEBF0FBEEDBFC8010E9455041BC06A
:10360000F092FC05E092FB05109308060093070674
:103610001092F9050E94653420910306309104064A
:1036200040910506509106062617370748075907A7
:1036300008F4B1CFBACF60960FB6F894DEBF0FBED4
:10364000CDBFCF91DF911F910F91FF90EF90DF9051
:10365000CF90BF90AF909F908F907F906F905F9032
:103660004F903F902F900895209148033091490347
:10367000C901895097408F5A9440D0F580918304B6
:10368000882321F481E0809309062EC080910906E9
:10369000882351F58091FD05882311F10E9465343E
:1036A0002091FE053091FF054091000650910106E2
:1036B0002617370748075907B8F40E946534209148
:1036C000F5053091F6054091F7055091F80526175C
:1036D00037074807590740F48091F905882321F4FA
:1036E0008DE594E00E94EB0482E080930206089549
:1036F00084E0203B380768F480910206882349F073
:10370000109209068DE594E00E94EB0410920206E7
:103710000895205B34402955324000F5809102061F
:103720008130E1F08091FD05882379F00E946534B5
:103730002091FE053091FF05409100065091010651
:10374000261737074807590748F4109209068DE5F0
:1037500094E00E94EB0481E0809302060895EF92CA
:10376000FF920F931F9380910906882309F060C090
:1037700080918304823008F05BC08091FA0581302B
:1037800009F056C08091880490918904895097402F
:103790000CF44EC080918A0490918B04805B94401D
:1037A0000CF046C080917A0490917B04A0917C0437
:1037B000B0917D0480930A0690930B06A0930C06AB
:1037C000B0930D0680918C0490918D04A0918E048D
:1037D000B0918F0480930E0690930F06A09310066D
:1037E000B09311068091920490919304A091940457
:1037F000B09195048093DB059093DC05A093DD05E3
:10380000B093DE0580919E0490919F04A091A00446
:10381000B091A10480934D0390934E03A0934F0366
:10382000B093500381E090E09093FC058093FB05FA
:103830008091120690911306A0911406B09115067E
:103840000097A105B10509F04EC0809186049091C2
:103850008704079708F447C080918304823008F4F6
:1038600042C00E94653460931206709313068093E1
:103870001406909315061092170610921606809162
:1038800018069091190690931B0680931A06809152
:10389000510390915203A0915303B091540380932C
:1038A0005A0390935B03A0935C03B0935D0380E0A5
:1038B00090E0A0E0B0E08093D3059093D405A0936E
:1038C000D505B093D60580919E0490919F04A09158
:1038D000A004B091A10480934D0390934E03A09354
:1038E0004F03B09350038091120690911306A0915C
:1038F0001406B09115060097A105B10509F462C040
:103900008091860490918704079720F48091840425
:10391000882359F180918304823038F10E94653404
:10392000209112063091130640911406509115060D
:10393000621B730B840B950B28EE33E040E050E0E4
:103940000E94EC393093BF052093BE058091180684
:103950009091190620911A0630911B06821B930B39
:1039600090931706809316064DC00E9465347B0124
:103970008C016091BE057091BF05882777FD809509
:10398000982F28E13CEF4FEF5FEF0E94BA39E60E27
:10399000F71E081F191FE0921206F09213060093FB
:1039A000140610931506809118069091190620911F
:1039B000160630911706821B930B90931B0680937B
:1039C0001A0620C00E94653428EE33E040E050E043
:1039D0000E94EC393093BF052093BE051092170664
:1039E000109216068091510390915203A0915303B7
:1039F000B091540380935A0390935B03A0935C03AC
:103A0000B0935D030E94341B80910906882319F04E
:103A10000E94F81549C28091D80380FF08C06091C8
:103A20002E0480912C0490E070E00E94FB1880919D
:103A300002068230A8F08091FD05882309F434C283
:103A40000E9465342091FE053091FF0540910006EB
:103A500050910106261737074807590708F424C272
:103A60008091020680931C06823011F410920206A7
:103A700080910206A82FB0E0FD01EE52FC4F80813C
:103A800085FF0BC0FD01E651FC4F6081A851BC4F82
:103A90008C9190E070E00E94821580910206A82F20
:103AA000B0E0FD01EE52FC4F808186FF0BC0FD01AE
:103AB000E251FC4F6081A451BC4F8C9190E070E0CA
:103AC0000E94471580910206A82FB0E0FD01E85240
:103AD000FC4F808183FF0BC0FD01EE5CFB4F6081DA
:103AE000A05DBB4F8C9190E070E00E94BA11809174
:103AF000FA05882309F454C080910206A82FB0E08B
:103B0000FD01EE52FC4F808187FF0BC0FD01EE509E
:103B1000FC4F6081A051BC4F8C9190E070E00E94FE
:103B2000001580910206A82FB0E0FD01EC52FC4F79
:103B3000808184FF0BC0FD01EE5FFB4F6081A050D0
:103B4000BC4F8C9190E070E00E94F41380910206CB
:103B5000A82FB0E0FD01EC52FC4F808183FF0BC029
:103B6000FD01E250FC4F6081A450BC4F8C9190E06D
:103B700070E00E94E01380910206A82FB0E0FD01E2
:103B8000EC52FC4F808186FF0BC0FD01EA5FFB4FCA
:103B90006081AC5FBB4F8C9190E070E00E9481141B
:103BA00080910206A82FB0E0FD01EA52FC4F80810F
:103BB00087FF0BC0FD01EA5EFB4F6081AC5EBB4F2F
:103BC0008C9190E070E00E948C138091FA0588231C
:103BD00009F459C080919104823008F454C0809156
:103BE0000206A82FB0E0FD01E652FC4F808182FF63
:103BF0000BC0FD01E65CFB4F6081A85CBB4F8C9164
:103C000090E070E00E94FD1180910206A82FB0E0C4
:103C1000FD01EA52FC4F808182FF0BC0FD01EE5E88
:103C2000FB4F6081A05FBB4F8C9190E070E00E94E1
:103C3000271380910206A82FB0E0FD01EA52FC4F45
:103C4000808183FF0BC0FD01E65EFB4F6081A85EB3
:103C5000BB4F8C9190E070E00E94D71280910206D9
:103C6000A82FB0E0FD01EA52FC4F808181FF0BC01C
:103C7000FD01E25EFB4F6081A45EBB4F8C9190E042
:103C800070E00E9487128091FA05882321F08091CC
:103C90009104823028F48091820481508330A8F40A
:103CA00080910206A82FB0E0FD01EC52FC4F80810C
:103CB00080FF0BC0FD01E650FC4F6081A850BC4F57
:103CC0008C9190E070E00E946B1180910206A82F09
:103CD000B0E0FD01E852FC4F808186FF0FC080916B
:103CE000A604882359F0FD01EA5CFB4F6081AC5CBF
:103CF000BB4F8C9190E070E00E94E610809102062C
:103D0000A82FB0E0FD01EE52FC4F808182FF0BC076
:103D1000FD01EE51FC4F6081A052BC4F8C9190E0B0
:103D200070E00E94AD1080910206A82FB0E0FD0166
:103D3000EE52FC4F808181FF0BC0FD01E252FC4F2F
:103D40006081A452BC4F8C9190E070E00E9474108E
:103D500080910206A82FB0E0FD01EA52FC4F80815D
:103D600084FF0BC0FD01EE5DFB4F6081A05EBB4F89
:103D70008C9190E070E00E94371080910206A82F8D
:103D8000B0E0FD01EA52FC4F808185FF0BC0FD01D0
:103D9000EA5DFB4F6081AC5DBB4F8C9190E070E0C1
:103DA0000E94870F80910206A82FB0E0FD01EE521D
:103DB000FC4F808183FF0BC0FD01EA51FC4F608105
:103DC000AC51BC4F8C9190E070E00E94080F809144
:103DD0000206A82FB0E0FD01EA52FC4F808180FF6F
:103DE0000BC0FD01E25FFB4F6081A45FBB4F8C9174
:103DF00090E070E00E94B60E80910206A82FB0E01D
:103E0000FD01EE52FC4F808184FF0BC0FD01EA50A2
:103E1000FC4F6081AC50BC4F8C9190E070E00E94F0
:103E2000730E80910206A82FB0E0FD01E652FC4F10
:103E3000808181FF0BC0FD01E25CFB4F6081A45CCF
:103E4000BB4F8C9190E070E00E94300E8091020692
:103E5000A82FB0E0FD01EC52FC4F808187FF0BC022
:103E6000FD01E65FFB4F6081A85FBB4F8C9190E046
:103E700070E00E94E20D80910206A82FB0E0FD01E3
:103E8000EA52FC4F808186FF0BC0FD01E65DFB4FCF
:103E90006081A85DBB4F8C9190E070E00E948A0D1C
:103EA00080911C06809302061F910F91FF90EF9066
:103EB00008958DE594E00E94EB040E94B9150895E1
:103EC000CF93DF93EC018DE594E00E942204C817A4
:103ED000D9073CF08DE594E00E941704892B09F482
:103EE0002397CE01DF91CF910895FF920F931F93F7
:103EF0000FE416E0C80160E873E00E94D5328093B9
:103F0000C605C8016DEF73E00E94D532F82EC801D6
:103F10006EEF73E00E94D532382F20E02F0D311D57
:103F20003093580320935703C80164EF73E00E9455
:103F3000D532F82EC80165EF73E00E94D532382FD4
:103F400020E02F0D311D3093EB052093EA05C801C9
:103F500066EF73E00E94D532F82EC80167EF73E078
:103F60000E94D532382F20E02F0D311D3093EF0500
:103F70002093EE05C80168EF73E00E94D532F82E59
:103F8000C80169EF73E00E94D532382F20E02F0D71
:103F9000311D3093ED052093EC051F910F91FF909B
:103FA0000895BC018FE496E00E94D5320895EF9207
:103FB000FF920F931F93CF93DF930091020610E0BF
:103FC0008AEF90E0089F7001099FF00C189FF00C99
:103FD0001124C70188569F4F0E94D11FF801EE524D
:103FE000FC4F882319F08081806102C080818F7E20
:103FF000808380910206C82FD0E0C70186569F4F6C
:104000000E94D11FCC50DC4F888380910206C82FBC
:10401000D0E0C70184569F4F0E94D11F90E00E94BC
:10402000601FCA50DC4F88830091020610E0C70170
:1040300006960E94D11FF801EE52FC4F882319F01A
:104040008081826002C080818D7F808380910206A2
:10405000C82FD0E0C70108960E94D11FC452DC4F80
:10406000888380910206C82FD0E0C7010A960E947B
:10407000D11F90E00E94601FC252DC4F88830091E4
:10408000020610E0C7010C960E94D11FF801EE5203
:10409000FC4F882319F08081846002C080818B7F6F
:1040A000808380910206C82FD0E0C7010E960E943F
:1040B000D11FC052DC4F888380910206C82FD0E008
:1040C000C70140960E94D11F90E00E94601FCE5110
:1040D000DC4F88830091020610E0C70142960E94DF
:1040E000D11FF801EE52FC4F882319F080818860BF
:1040F00002C08081877F808380910206C82FD0E034
:10410000C70144960E94D11FCC51DC4F8883809117
:104110000206C82FD0E0C70146960E94D11F90E04A
:104120000E94601FCA51DC4F88830091020610E094
:10413000C7014E960E94D11FF801EE52FC4F882312
:1041400019F08081806202C080818F7D80838091A0
:104150000206C82FD0E0C70180960E94D11FC85127
:10416000DC4F888380910206C82FD0E0C701829679
:104170000E94D11F90E00E94601FC651DC4F8883CF
:104180000091020610E0C70184960E94D11FF80139
:10419000EE52FC4F882319F08081806402C0808138
:1041A0008F7B808380910206C82FD0E0C70186965E
:1041B0000E94D11FC451DC4F888380910206C82F12
:1041C000D0E0C70188960E94D11F90E00E94601F36
:1041D000C251DC4F88830091020610E0C7018A9625
:1041E0000E94D11FF801EE52FC4F882319F0808104
:1041F000806802C080818F77808380910206C82FFB
:10420000D0E0C7018C960E94D11FC051DC4F88833B
:1042100080910206C82FD0E0C7018E960E94D11F60
:1042200090E00E94601FCE50DC4F88830091020610
:1042300010E0C701C0960E94D11FF801EC52FC4F5C
:10424000882319F08081816002C080818E7F808305
:1042500080910206C82FD0E0C701C2960E94D11FEC
:10426000C850DC4F888380910206C82FD0E0C70178
:10427000C4960E94D11F90E00E94601FC650DC4F80
:1042800088830091020610E0C701885B9F4F0E945F
:10429000D11FF801EC52FC4F882319F08081806116
:1042A00002C080818F7E808380910206C82FD0E07B
:1042B000C701865B9F4F0E94D11FC050DC4F88838F
:1042C00080910206C82FD0E0C701845B9F4F0E94F7
:1042D000D11F90E00E94601FCE5FDB4F888300916A
:1042E000020610E0C7018E5B9F4F0E94D11FF801AC
:1042F000EC52FC4F882319F08081886002C08081D5
:10430000877F808380910206C82FD0E0C7018C5B35
:104310009F4F0E94D11FC450DC4F888380910206BA
:10432000C82FD0E0C7018A5B9F4F0E94D11F90E049
:104330000E94601FC250DC4F88830091020610E08B
:10434000C7018A5A9F4F0E94D11FF801EC52FC4FBF
:10435000882319F08081806402C080818F7B8083F4
:1043600080910206C82FD0E0C701885A9F4F0E9453
:10437000D11FCC5FDB4F888380910206C82FD0E02D
:10438000C701865A9F4F0E94D11F90E00E94601F74
:10439000CA5FDB4F88830091020610E0C701825696
:1043A0009F4F0E94D11FF801EC52FC4F882319F057
:1043B0008081806802C080818F778083809102062F
:1043C000C82FD0E0C70180569F4F0E94D11FC85F01
:1043D000DB4F888380910206C82FD0E0C7018E553D
:1043E0009F4F0E94D11F90E00E94601FC65FDB4F6D
:1043F00088830091020610E0C7018E599F4F0E94EA
:10440000D11FF801EA52FC4F882319F080818160A6
:1044100002C080818E7F808380910206C82FD0E009
:10442000C7018C599F4F0E94D11FC45FDB4F888307
:1044300080910206C82FD0E0C7018A599F4F0E9481
:10444000D11F90E00E94601FC25FDB4F8883009104
:10445000020610E0C70182599F4F0E94D11FF80148
:10446000EA52FC4F882319F08081846002C0808169
:104470008B7F808380910206C82FD0E0C7018059CE
:104480009F4F0E94D11FC05FDB4F8883809102063F
:10449000C82FD0E0C7018E589F4F0E94D11F90E0D7
:1044A0000E94601FCE5EDB4F88830091020610E001
:1044B000C70184579F4F0E94D11FF801EA52FC4F59
:1044C000882319F08081806802C080818F77808383
:1044D00080910206C82FD0E0C70182579F4F0E94EB
:1044E000D11FCC5EDB4F888380910206C82FD0E0BD
:1044F000C70180579F4F0E94D11F90E00E94601F0C
:10450000CA5EDB4F88830091020610E0C7018E5619
:104510009F4F0E94D11FF801EA52FC4F882319F0E7
:104520008081826002C080818D7F808380910206BD
:10453000C82FD0E0C7018C569F4F0E94D11FC45E88
:10454000DB4F888380910206C82FD0E0C7018A56CE
:104550009F4F0E94D11F90E00E94601FC25EDB4F00
:1045600088830091020610E0C7018C589F4F0E947B
:10457000D11FF801EA52FC4F882319F0808188602E
:1045800002C08081877F808380910206C82FD0E09F
:10459000C7018A589F4F0E94D11FC85EDB4F888396
:1045A00080910206C82FD0E0C70188589F4F0E9413
:1045B000D11F90E00E94601FC65EDB4F8883009190
:1045C000020610E0C70186589F4F0E94D11FF801D4
:1045D000EA52FC4F882319F08081806102C08081FB
:1045E0008F7E808380910206C82FD0E0C701845857
:1045F0009F4F0E94D11FC05EDB4F888380910206CF
:10460000C82FD0E0C70182589F4F0E94D11F90E071
:104610000E94601FCE5DDB4F88830091020610E090
:10462000C70180589F4F0E94D11FF801EA52FC4FEA
:10463000882319F08081806202C080818F7D808311
:1046400080910206C82FD0E0C7018E579F4F0E946D
:10465000D11FCC5DDB4F888380910206C82FD0E04C
:10466000C7018C579F4F0E94D11F90E00E94601F8E
:10467000CA5DDB4F88830091020610E0C7018A57AC
:104680009F4F0E94D11FF801EA52FC4F882319F076
:104690008081806402C080818F7B8083809102064C
:1046A000C82FD0E0C70188579F4F0E94D11FC85D17
:1046B000DB4F888380910206C82FD0E0C701865760
:1046C0009F4F0E94D11F90E00E94601FC65DDB4F8C
:1046D00088830091020610E0C7018C559F4F0E940D
:1046E000D11FF801E852FC4F882319F080818160C6
:1046F00002C080818E7F808380910206C82FD0E027
:10470000C7018A559F4F0E94D11FC45DDB4F88832C
:1047100080910206C82FD0E0C70188559F4F0E94A4
:10472000D11F90E00E94601FC25DDB4F8883009123
:10473000020610E0C7018A549F4F0E94D11FF80162
:10474000E852FC4F882319F08081886002C0808184
:10475000877F808380910206C82FD0E0C7018854EC
:104760009F4F0E94D11FC05DDB4F8883809102065E
:10477000C82FD0E0C70186549F4F0E94D11F90E000
:104780000E94601FCE5CDB4F88830091020610E020
:10479000C701845A9F4F0E94D11FF801E852FC4F75
:1047A000882319F08081806402C080818F7B8083A0
:1047B00080910206C82FD0E0C701825A9F4F0E9405
:1047C000D11FCC5CDB4F888380910206C82FD0E0DC
:1047D000C701805A9F4F0E94D11F90E00E94601F26
:1047E000CA5CDB4F88830091020610E0C70180524B
:1047F0009F4F0E94D11FF801E652FC4F882319F009
:104800008081846002C080818B7F808380910206DA
:10481000C82FD0E0C7018E519F4F0E94D11FC85CA6
:10482000DB4F888380910206C82FD0E0C7018C51EE
:104830009F4F0E94D11F90E00E94601FC65CDB4F1B
:1048400088830091020610E0C7018C529F4F0E949E
:10485000D11FF801E652FC4F882319F08081826055
:1048600002C080818D7F808380910206C82FD0E0B6
:10487000C7018A529F4F0E94D11FC45CDB4F8883BF
:1048800080910206C82FD0E0C70188529F4F0E9436
:10489000D11F90E00E94601FC25CDB4F8883DF91D4
:1048A000CF911F910F91FF90EF90089583E00E94A8
:1048B000073508952F923F924F925F926F927F92A9
:1048C0008F929F92AF92BF92CF92DF92EF92FF9220
:1048D0000F931F93CF93DF93E0901E06F0901F0677
:1048E00000912006109121068FE590E0A0E0B0E055
:1048F000E80EF91E0A1F1B1F0E9465346E157F0506
:104900008007910708F46AC20E9465341B012C01DC
:1049100060901E0670901F068090200690902106E1
:104920000E94653460931E0670931F0680932006D4
:104930009093210683E00E94073580E10E940A35AA
:10494000AA2797FDA095BA2FBC01CD010E9461371F
:104950002DEC3CEC4CE85FE30E94943820E030E022
:1049600040E85AE30E9494387B018C016091EA058B
:104970007091EB05882777FD8095982F0E9461370D
:1049800020E030E048EC52E40E94C6369B01AC01C6
:10499000C801B7010E9494387B018C01A09062038A
:1049A000B0906303C0906403D0906503C601B50165
:1049B00020E030E040E85FEB0E94BF36882349F4F6
:1049C000E0926203F0926303009364031093650323
:1049D00039C0C801B701A60195010E94BF3618165B
:1049E0008CF0C801B7012DEC3CEC4CEC5DE30E946F
:1049F00094387B018C01C601B50126E636E646E611
:104A00005FE310C0C801B7012AE939E949E95EE36B
:104A10000E9494387B018C01C601B50123E333E386
:104A200043E35FE30E9494389B01AC01C801B701E6
:104A30000E94F9356093620370936303809364036B
:104A400090936503C0906203D0906303E090640389
:104A5000F0906503A0905503B0905603CFE8D3E0E3
:104A600006E010E0C701B601288139814A815B81E7
:104A70000E948938181644F40A151B052CF010936F
:104A800056030093550306C001501040249701308F
:104A9000110541F780911D068823C9F4BB2460915C
:104AA000550370915603882777FD8095982F0E94B3
:104AB00061379B01AC01C701B6010E94C63621EEE9
:104AC0003AE748E850E40E948938181614F4BB24E9
:104AD000B394B0921D06BB2029F088E49DE7A5EEB3
:104AE000B2E404C087E894E1A9E0B3E480935E03F4
:104AF00090935F03A0936003B0936103C092C205DB
:104B0000D092C305E092C405F092C50560915503AB
:104B100070915603882777FD8095982F0E94613702
:104B20009B01AC01C701B6010E94C6362CEF39EAE1
:104B30004DE550E40E94F83520915E0330915F030B
:104B400040916003509161030E9494387B018C0175
:104B500020E030E040E050E00E94BF3688235CF463
:104B60000F2EF0E0EF2EF0E0FF2EF0E00F2FF0E040
:104B70001F2FF02D14C0C801B70120E030E046EC33
:104B800052E40E948938181654F40F2EF0E0EF2EEC
:104B9000F0E0FF2EF6EC0F2FF2E41F2FF02DC801EE
:104BA000B7010E943337E62FF0E0BB2021F0E6503A
:104BB000FD4F649103C0E25AFC4F649170E080E0C5
:104BC00090E00E945F377B018C01A0905103B09070
:104BD0005203C0905303D0905403C601B50120E0A6
:104BE00030E040E85FEB0E94BF36882349F4E09252
:104BF0005103F0925203009353031093540339C0AE
:104C0000C801B701A60195010E94BF3618168CF0A5
:104C1000C801B7012DEC3CEC4CE45DE30E949438F4
:104C20007B018C01C601B50123E333E343E75FE376
:104C300010C0C801B7012AE939E949E95EE30E94D9
:104C400094387B018C01C601B50123E333E343E3D0
:104C50005FE30E9494389B01AC01C801B7010E9438
:104C6000F9356093510370935203809353039093EB
:104C700054038091EE059091EF05181619060CF07B
:104C8000ADC081E00E9407358FE00E940A35AA2757
:104C900097FDA095BA2FBC01CD010E94613729E292
:104CA0003CE54FE950E40E94943820E030E040E8D1
:104CB0005AE30E9494387B018C016091EC0570915D
:104CC000ED05882777FD8095982F0E94613720E0B9
:104CD00030E44CE156EC0E94C6369B01AC01C801A1
:104CE000B7010E94F9357B018C016091EE0570914E
:104CF000EF05882777FD8095982F0E94613720E087
:104D000030E048EC52E40E94C6369B01AC01C80179
:104D1000B7010E9494382DEC3CEC4CE45EE30E9419
:104D200094387B018C016091260670912706809152
:104D30002806909129062DEC3CEC4CE45FE30E94A0
:104D400094389B01AC01C801B7010E94F9357B0181
:104D50008C01609326067093270680932806909313
:104D60002906B1016619770980E090E00E945F375B
:104D70009B01AC01C801B7010E9494382FEA35EAC3
:104D800041E959E30E94943820912206309123068C
:104D900040912406509125060E94F9355B016C0173
:104DA0006093220670932306809324069093250631
:104DB000C801B70120E030E048EC52E40E9494388A
:104DC0000E942E377093C1056093C005C601B501DE
:104DD0000E9433377093190660931806DF91CF91C4
:104DE0001F910F91FF90EF90DF90CF90BF90AF9009
:104DF0009F908F907F906F905F904F903F902F90FB
:104E000008951F93CF93DF9385E090E06CE070E00E
:104E10000E94D81568EE73E080E090E00E94733441
:104E200080E494E00E94142DC0E0D0E010E0CE01B8
:104E30006DE171E00E94D939892B89F41F5E8DE5FF
:104E400094E0612F4CE00E94A1048DE594E06EEEA9
:104E50000E94A9048DE594E00E945504105161E080
:104E600070E080E090E00E947334219687E0C13DBD
:104E7000D807E9F6DF91CF911F91089586E061E0B0
:104E80000E946B35089586E061E00E942C3580E435
:104E900094E040E051EE60E070E00E94352C0E940A
:104EA0003E278DE594E00E942A050E94591F68EE76
:104EB00073E080E090E00E9473340E94751F1092AE
:104EC000020607C00E94D71F809102068F5F809361
:104ED0000206809102068230A8F3109202060E9418
:104EE00001270E9456248DE594E00E94EB040E9465
:104EF000653460932A0670932B0680932C0690935A
:104F00002D0608956F927F928F929F92AF92BF92DB
:104F1000CF92DF92EF92FF920F931F93E0903906AA
:104F2000F0903A0600913B0610913C068FE590E028
:104F3000A0E0B0E0E80EF91E0A1F1B1F0E946534B6
:104F40006E157F058007910708F41CC12091960417
:104F5000309197044091980450919904E0909A04FC
:104F6000F0909B0400919C0410919D04CA01B9012A
:104F70000E9494385B016C01C801B701A801970138
:104F80000E9494389B01AC01C601B5010E94F9351D
:104F90000E941B396093D7057093D8058093D9057B
:104FA0009093DA0520E030E040E050E00E9489383C
:104FB00018160CF0DDC00E9465342091390630913E
:104FC0003A0640913B0650913C06621B730B840BE2
:104FD000950B0E945F373B014C01E090D705F090A4
:104FE000D8050091D9051091DA05209196043091E9
:104FF000970440919804509199040E94943820E0BD
:1050000030E04AE754E40E94C6369B01AC0160914F
:10501000D3057091D4058091D5059091D6050E9455
:10502000F9356093D3057093D4058093D50590939B
:10503000D6058091160690911706892B09F494C025
:10504000609135067091360680913706909138064A
:105050002DEC3CEC4CE45FE30E9494385B016C0166
:10506000C801B701A40193010E94943820E030E008
:105070004AE754E40E94C63620E030EA4CE857E4A0
:105080000E9494387B018C016091C0057091C1052C
:10509000882777FD8095982F0E9461379B01AC018E
:1050A000C801B7010E94C636A40193010E94C6360A
:1050B0009B01AC01C601B5010E94F9355B016C0191
:1050C00060933506709336068093370690933806C2
:1050D0006091570370915803882777FD8095982F2A
:1050E0000E9461372DEC3CEC4CE45FE30E94943865
:1050F0007B018C01609118067091190680E090E0A8
:105100000E945F379B01AC01C801B7010E94F835CE
:10511000A60195010E9494387B018C016091B8052D
:105120007091B9058091BA059091BB050E946137D5
:105130009B01AC01C801B7010E94F83520E030E0C6
:1051400040E05FE30E9494380E942E377093E70599
:105150006093E605615F784D5CF481EF98ED909384
:10516000E7058093E60504C01092E7051092E60576
:105170000E9465346093390670933A0680933B062B
:1051800090933C061F910F91FF90EF90DF90CF908E
:10519000BF90AF909F908F907F906F9008952F92C7
:1051A0003F924F925F926F927F928F929F92AF92B7
:1051B000BF92CF92DF92EF92FF920F931F93DF93F4
:1051C000CF9300D000D0CDB7DEB78091FA05882309
:1051D00009F438C2E0900A06F0900B0600910C0624
:1051E00010910D06C801B7019F7725E33AEF4EE80D
:1051F0005CE30E9494380E94C33669837A838B8370
:105200009C83C801B70120917A0430917B044091BE
:105210007C0450917D040E94F8359F7720EC3BE69A
:1052200049ED57E40E9494385B016C0160910E06D1
:1052300070910F06809110069091110620918C04B8
:1052400030918D0440918E0450918F040E94F83566
:105250009F7720EC3BE649ED57E40E949438298182
:105260003A814B815C810E9494387B018C01C6019C
:10527000B501A60195010E9494385B016C01C8013B
:10528000B701A80197010E9494389B01AC01C601A7
:10529000B5010E94F9350E941B390E942E37609398
:1052A000B8057093B9058093BA059093BB058091BA
:1052B000160690911706892B09F4E9C060912E0615
:1052C00070912F0680E090E00E945F372DEC3CEC5F
:1052D0004CE45FE30E9494383B014C01609157031A
:1052E00070915803882777FD8095982F0E94613729
:1052F0002DEC3CEC4CE45FE30E9494387B018C0184
:10530000609118067091190680E090E00E945F3766
:105310009B01AC01C801B7010E94F8355B016C012B
:105320000E9465347B018C0160911606709117060E
:1053300080E090E00E945F371B012C0180911206F3
:1053400090911306A0911406B0911506E81AF90A77
:105350000A0B1B0BC801B7010E945F37A201910124
:105360000E94C6369B01AC01C601B5010E9494386B
:1053700020E030E04AE754E40E94C6362DEC3CECD5
:105380004CE45EE30E9494389B01AC01C401B3017C
:105390000E94F9350E942E3770932F0660932E06D7
:1053A000609118067091190680E090E00E945F37C6
:1053B0005B016C016091570370915803882777FD5A
:1053C0008095982F0E9461372DEC3CEC4CE45FE314
:1053D0000E9494387B018C01C601B501A801970198
:1053E0000E948938181624F410922F0610922E0667
:1053F00080912E0690912F068057974130F08FE6CE
:1054000097E190932F0680932E06C801B701A6015D
:1054100095010E94F8357B018C016091D305709154
:10542000D4058091D5059091D605A20191010E94E5
:10543000C6369B01AC01C801B7010E9494387B01BC
:105440008C016091B8057091B9058091BA05909171
:10545000BB050E9461379B01AC01C801B7010E94E6
:10546000F83520E030E040E05FE30E9494380E948D
:105470002E377093E5056093E405615F784D7CF409
:1054800081EF98ED9093E5058093E40508C01092B4
:105490002F0610922E061092E5051092E4056091F9
:1054A00092047091930480919404909195042091BA
:1054B000DB053091DC054091DD055091DE050E9451
:1054C000F8355B016C012091B8053091B905409128
:1054D000BA055091BB05CA01B9010E94BA390E94B0
:1054E00061377B018C01C601B501A60195010E94BF
:1054F00094389B01AC01C801B7010E94F9350E94A4
:105500001B390E942E376093E0057093E10580936C
:10551000E2059093E30560910A0670910B06809175
:105520000C0690910D0620917A0430917B044091F5
:105530007C0450917D040E94F8357B018C0160E071
:1055400070E080E89FE329813A814B815C810E9471
:10555000C6369B01AC01C801B7010E9494387B019B
:105560008C0160910E0670910F068091100690914B
:10557000110620918C0430918D0440918E0450913D
:105580008F040E94F8359B01AC015058C801B70147
:105590000E946C3620EE3EE245E652E40E949438CA
:1055A00020E030E044EB52E40E94F9350E942E37AF
:1055B0009B01AC0197FF04C028593E4F4F4F5F4FEE
:1055C000CA01B901645B70408040904097FF06C0FB
:1055D000CA01B9016C547F4F8F4F9F4F0E946137B2
:1055E00020917E0430917F04409180045091810489
:1055F0000E94F8350E942E3797FF04C068597E4FED
:105600008F4F9F4F0E94613720E030E044EB53E41E
:105610000E94C63620E030E040E851E40E94943811
:105620000E94F73820E030E040E85FE30E94F9355F
:105630000E9433376093DF05613108F47CC010921B
:10564000DF0579C080919104823008F474C08091A4
:105650009004853008F46FC0D0903006FDE1FD1550
:1056600008F469C0E0909204F090930400919404CF
:105670001091950460913106709132068091330645
:1056800090913406A80197010E94F8359F7720E099
:1056900030E040E05FE30E94893818165CF4109215
:1056A0003006E0923106F0923206009333061093F2
:1056B000340641C08D2D8F5F809330068E31D9F531
:1056C00080917A0490917B04A0917C04B0917D0438
:1056D00080930A0690930B06A0930C06B0930D06D8
:1056E00080918C0490918D04A0918E04B0918F04D0
:1056F00080930E0690930F06A0931006B0931106A8
:10570000E092DB05F092DC050093DD051093DE05E9
:1057100080919E0490919F04A091A004B091A10457
:1057200080934D0390934E03A0934F03B093500387
:1057300081E08093FA050F900F900F900F90CF911A
:10574000DF911F910F91FF90EF90DF90CF90BF906E
:10575000AF909F908F907F906F905F904F903F9011
:105760002F9008950E945A240E9482270E94A00A26
:105770008DE594E00E94CF280E94AF1B0895EF9220
:10578000FF920F931F930E947007892BB9F4E0904A
:105790002A06F0902B0600912C0610912D0684E627
:1057A00090E0A0E0B0E0E80EF91E0A1F1B1F0E9467
:1057B0006534E616F7060807190760F40E94653499
:1057C00060932A0670932B0680932C0690932D06E7
:1057D0000E94B22B1F910F91FF90EF9008956EBD24
:1057E0000DB407FEFDCF8EB508958DE061E00E94F7
:1057F0002C358BE061E00E942C358CE060E00E944B
:105800002C358AE061E00E942C351CBC80E58CBD03
:105810008DB58EB508958DE396E00E94F52B089521
:105820008FEF9FE70895DF93CF93CDB7DEB7FE01EB
:1058300039968D819E8161E04F8158859F010E943C
:10584000B42ECF91DF910895DF93CF93CDB7DEB71C
:10585000FE0139968D819E8160E04F8158859F01C0
:105860000E94B42ECF91DF9108950F931F93DC0116
:10587000ED91FC910288F389E02D20E030E000E01A
:1058800010E009951F910F9108958F92AF92CF92DA
:10589000EF92FF920F931F93DF93CF93CDB7DEB7B5
:1058A000FC011382128288EE93E0A0E0B0E08483D2
:1058B0009583A683B7838BEB93E091838083558791
:1058C000448737872687118B008BF38AE28AC48A44
:1058D000A58A868A70E0CB0123E0880F991F2A955C
:1058E000E1F79C01225C394F308F278B8A5B994FFF
:1058F000928F818F81E090E002C0880F991F6A9596
:10590000E2F720914E06282B20934E06CF0140E06F
:1059100051EE60E070E00E94352CCF91DF911F9135
:105920000F91FF90EF90CF90AF908F900895FC0172
:10593000838D882319F42FEF3FEF0DC00788F08D7A
:10594000E02D2081318182819381281B390B848154
:10595000958128233923C9010895FC01838D88236B
:1059600019F42FEF3FEF11C0018CF28DE02D208153
:10597000318182819381281B390B20953095848158
:105980009581282339232F5F3F4FC9010895FC01DA
:10599000838D882361F0A789B08D2D913C9111975B
:1059A00012968D919C9113972817390721F44FEF88
:1059B0005FEFCA01089512968D919C9113971696E8
:1059C000ED91FC911797E80FF91F408112968D9188
:1059D0009C911397019614962D913C9115978223D3
:1059E000932313969C938E93129750E0E2CFFC0181
:1059F000838D882351F00788F08DE02D208131813F
:105A0000828193812817390721F42FEF3FEFC901D5
:105A10000895828193810680F781E02DE80FF91FB8
:105A20008081282F30E0F3CFDC015796ED91FC9177
:105A3000589782819381918380835996ED91FC914F
:105A40005A9780819181938382830895DC015B96CC
:105A50008C915B978823A9F15996ED91FC915A9707
:105A6000208131812F5F3F4F848195812823392305
:105A70005C968C915C97882329F08281938128170A
:105A80003907F9F08281938128173907D9F380818A
:105A900091810680F781E02DE80FF91F6083599608
:105AA000ED91FC915A97318320835296ED91FC91B0
:105AB0005397808156969C91892B808321E030E01A
:105AC00002C020E030E0C9010895CF93DF93EC01DC
:105AD0001B821A828A819B81998388831D821C8202
