:100000000C9441020C9469020C9469020C946902EC
:100010000C9469020C9469020C9469020C946902B4
:100020000C9469020C9469020C9469020C946902A4
:100030000C9469020C9469020C9469020C94690294
:100040000C946C340C9469020C94E0050C941C061E
:100050000C9469020C9469020C9469020C94690274
:100060000C9469020C946902084AD73B3BCE016E9E
:1000700084BCBFFDC12F3D6C74319ABD56833DDAFF
:100080003D00C77F11BED9E4BB4C3E916BAAAABE0E
:10009000000000803F05A84CCDB2D44EB93836A937
:1000A000020C50B9918688083CA6AAAA2ABE000074
:1000B00000803F0664EC1B3C04BC163E3BE5B93CAB
:1000C000C93C37C29E5A3D660498083EEA69AAAA0E
:1000D0003E000000803F0000000000000000000023
:1000E000000002070A0C0D0E101214151617191A2B
:1000F0001B1E2126282A2B2D2F31333437393C3D26
:100100003E3F4041424446494A4B4C4D4E4F4F5072
:10011000515152525354545555565758595A5B5C85
:100120005C5D5D5E5F5F5F606060606061616161DA
:100130006161626262626262626300070E091C1B97
:100140001215383F363124232A2D70777E796C6B57
:100150006265484F464154535A5DE0E7EEE9FCFBC7
:10016000F2F5D8DFD6D1C4C3CACD90979E998C8BB7
:100170008285A8AFA6A1B4B3BABDC7C0C9CEDBDC27
:10018000D5D2FFF8F1F6E3E4EDEAB7B0B9BEABAC17
:10019000A5A28F88818693949D9A2720292E3B3C87
:1001A00035321F18111603040D0A5750595E4B4C77
:1001B00045426F68616673747D7A898E87809592F7
:1001C0009B9CB1B6BFB8ADAAA3A4F9FEF7F0E5E2D7
:1001D000EBECC1C6CFC8DDDAD3D4696E6760757247
:1001E0007B7C51565F584D4A4344191E1710050237
:1001F0000B0C21262F283D3A33344E4940475255A7
:100200005C5B7671787F6A6D64633E393037222596
:100210002C2B0601080F1A1D1413AEA9A0A7B2B506
:10022000BCBB9691989F8A8D8483DED9D0D7C2C5F6
:10023000CCCBE6E1E8EFFAFDF4F32020BF0020BFCD
:1002400000BF007C202020202020202020202020F3
:100250002020202020202000C82020202020202016
:100260002020202020C900C820202020202020205D
:1002700020202020C97C00D82020202020202020E1
:1002800020202020D97C00C82020202020202020D1
:1002900020202020C97C00C82020202020202020D1
:1002A00020202020C97C006D696E6F706F73642000
:1002B0006A646C20322E3533006C69706F20626185
:1002C00074742063656C6C7C7C7761726E696E6798
:1002D000206C6576656C3A200062617474206361FD
:1002E0007061636974793A00736574757020736323
:1002F0007265656E7C7C7C004368617220446F6E21
:10030000650A00526561647920666F7220466F6EDF
:10031000740A007570646174652063686172736546
:10032000740000407A10F35A00A0724E18090010B1
:10033000A5D4E80000E87648170000E40B5402005A
:1003400000CA9A3B000000E1F50500008096980085
:10035000000040420F000000A086010000001027AE
:1003600000000000E803000000006400000000003E
:100370000A00000000000100000000002C76D88870
:10038000DC674F0823DFC1DFAE59E1B1B796E5E383
:10039000E453C63AE651997696E8E6C28426EB899C
:1003A0008C9B62ED407C6FFCEFBC9C9F40F2BAA539
:1003B0006FA5F490055A2AF75C936B6CF9676DC1D1
:1003C0001BFCE0E40D47FEF520E6B500D0ED902ED5
:1003D0000300943577050080841E080000204E0A33
:1003E000000000C80C333333330F986E1283114171
:1003F000EF8D2114893BE65516CFFEE6DB18D1843C
:100400004B381BF77C1D901DA4BBE4242032847262
:100410005E228100C9F124ECA1E53D276E616E00EA
:10042000696E660000000000240027002A0000001A
:100430000000250028002B000000000023002600FB
:100440002900040404040404040402020202020257
:100450000303030303030102040810204080010288
:100460000408102001020408102000000007000208
:1004700001000003040600000000000000008C07DB
:100480005A2C11241FBECFEFD8E0DEBFCDBF13E042
:10049000A0E0B1E0EEEDF4E702C005900D92AE3DB4
:1004A000B107D9F716E0AEEDB3E001C01D92A43755
:1004B000B107E1F714E0C2E8D4E004C02297FE01DE
:1004C0000E94693ACE37D107C9F70E94E9350C94EA
:1004D0006D3A0C940000283008F027E03327DA0149
:1004E000990F311D87FD916000966105710539F402
:1004F00032602E5F3D9330E32A95E1F708959F3FE8
:1005000030F080387105610509F03C5F3C5F3D9338
:10051000913008F08068911DDF93CF931F930F9364
:10052000FF92EF92192F987F9695E92F96959695C1
:10053000E90FFF27E458FC4F99273327EE24FF24C7
:10054000A701E70105900894079428F4360FE71EE9
:10055000F81E491F511D660F771F881F991F0694AB
:10056000A1F70590079428F4E70EF81E491F561FBF
:10057000C11D770F881F991F661F0694A1F705906C
:10058000079428F4F80E491F561FC71FD11D880F66
:10059000991F661F771F0694A1F70590079420F412
:1005A000490F561FC71FD81F990F661F771F881F37
:1005B0000694A9F784911095177041F0D695C795C8
:1005C00057954795F794E7941A95C1F7E2E2F3E05F
:1005D00068941590159135916591959105907FE2FC
:1005E0007395E118F10A430B560BC90BD009C0F7FC
:1005F000E10CF11E431F561FC91FD01D7EF470333E
:1006000011F48A95E6CFE894015030F0080F0AF40F
:100610000027021708F4202F2395022F7A3328F0A1
:1006200079E37D932A95E9F710C07D932A9589F6A1
:10063000069497956795379517951794E118F10AE1
:10064000430B560BC90BD00998F023957E917395F7
:100650007A3308F070E37C932013B8F77E917061D1
:100660007D9330F0839571E37D9370E32A95E1F7F4
:100670001124EF90FF900F911F91CF91DF91992757
:1006800087FD90950895FA01AA27283051F120316D
:1006900081F1E8946F936E7F6E5F7F4F8F4F9F4F16
:1006A000AF4FB1E03ED0B4E03CD0670F781F891F58
:1006B0009A1FA11D680F791F8A1F911DA11D6A0F26
:1006C000711D811D911DA11D20D009F468943F91D9
:1006D0002AE0269F11243019305D3193DEF6CF01D8
:1006E0000895462F4770405D4193B3E00FD0C9F79E
:1006F000F6CF462F4F70405D4A3318F0495D31FD0B
:100700004052419302D0A9F7EACFB4E0A69597955D
:10071000879577956795BA95C9F700976105710533
:1007200008959B01AC010A2E06945795479537957D
:100730002795BA95C9F7620F731F841F951FA01DD7
:100740000895FC010590615070400110D8F7809524
:1007500090958E0F9F1F0895FC016150704001908D
:100760000110D8F7809590958E0F9F1F0895FB017B
:100770009F01E8944230C4F04532B4F44A3029F481
:1007800097FB1EF4909581959F4F642F77270E94C9
:10079000033A805D8A330CF0895D8193CB01009729
:1007A000A1F716F45DE251931082C9010C94D803AD
:1007B000DC01FC01672F71917723E1F7329704C0C8
:1007C0007C916D9370836291AE17BF07C8F3089553
:1007D000FC011382128288EE93E0A0E0B0E08483F3
:1007E0009583A683B78380E893E0918380830895FF
:1007F000FC018089803419F421E030E002C020E05F
:1008000030E0C9010895FC01818990E0089580E0FD
:1008100090E0089580E090E0089580E090E00895F1
:100820000895EF92FF921F93CF93DF93162F7A01D3
:1008300086E060E00E94953584E596E060E00E94E5
:100840003E2C84E596E060E00E943E2C84E596E034
:1008500069E00E943E2C84E596E0612F0E943E2CC8
:10086000C0E0D0E0F701EC0FFD1F108184E596E0B9
:100870006AE00E943E2C84E596E06C2F0E943E2C9C
:1008800084E596E06BE00E943E2C84E596E0612FC3
:100890000E943E2C2196C633D10521F784E596E0CF
:1008A00068E00E943E2C84E596E060EA0E943E2CBF
:1008B00084E596E060EA0E943E2C85FDF9CF84E550
:1008C00096E060E00E943E2C84E596E06CE00E9499
:1008D0003E2C86E061E00E949535DF91CF911F911B
:1008E000FF90EF9008951F93CF93DF93EC01162FA5
:1008F00086E060E00E94953584E596E060E00E9425
:100900003E2C112319F0113059F404C084E596E00F
:10091000688904C068896C6184E596E00E943E2C79
:1009200086E061E00E949535DF91CF911F91089597
:10093000EF92FF920F931F937C0104E516E0C8012C
:1009400067E00E943E2CC8016FEF0E943E2C86E0BB
:1009500061E00E949535F70187858F5F87871F913A
:100960000F91FF90EF900895EF92FF920F931F93D6
:10097000FC01E7848EE1E89E700111248685E80E73
:10098000F11C86E060E00E94953504E516E0C801A0
:1009900064E00E943E2CC80163E00E943E2CC80126
:1009A00065E00E943E2CC8016F2D0E943E2CC801BC
:1009B00066E00E943E2CC8016E2D0E943E2C1F91C5
:1009C0000F91FF90EF900895FC016487458766873B
:1009D00047870E94B40408951F93CF93DF93EC01DF
:1009E000162F6C3731F40E949804CE010E94B40493
:1009F0000AC084E596E067E00E943E2C84E596E01C
:100A0000612F0E943E2C81E090E0DF91CF911F91F9
:100A10000895EF92FF920F931F938EE1489F70010C
:100A20001124E60EF11C86E060E00E94953504E595
:100A300016E0C80165E00E943E2CC8016F2D0E949F
:100A40003E2CC80166E00E943E2CC8016E2D0E941B
:100A50003E2C1F910F91FF90EF9008950F931F93DD
:100A600086E060E00E94953504E516E0C80164E088
:100A70000E943E2CC80164E00E943E2C61E070E0C0
:100A800080E090E00E94C23486E061E00E949535EB
:100A90001F910F9108951F93CF93DF93EC01188A54
:100AA00016E0198B86E696E060E973E00E94243335
:100AB000813049F480E4888B88E0898B86E060E0AF
:100AC0000E94953502C0188A198B86E060E00E946A
:100AD0009535DF91CF911F9108950F931F93CF9379
:100AE000DF93EC0186E061E00E94563582E060E031
:100AF0000E94563582E061E00E949535CE010E9449
:100B00004B0586E060E00E94953584E596E06CEE4A
:100B10000E943E2C84E596E06FEF0E943E2C182F39
:100B200084E596E060E00E943E2C6889626084E57E
:100B300096E00E943E2C62E370E080E090E00E942C
:100B4000C23484E596E06CE60E943E2C1F7E84E56C
:100B500096E0612F0E943E2C8889803419F00DE0C8
:100B600010E002C000E110E01092DF031092DE03FB
:100B700017C06091DE037091DF03605F84E596E04B
:100B80000E943E2C84E596E069E00E943E2C809114
:100B9000DE039091DF0301969093DF038093DE03E1
:100BA0008091DE039091DF038017910714F3CE014B
:100BB00061E00E947304DF91CF911F910F9108951E
:100BC0001F920F920FB60F9211242F933F934F93C2
:100BD0008F939F93EF93FF934091C600209155060A
:100BE000309156062F5F3F4F8091590690915A06DB
:100BF00028233923809157069091580628173907E2
:100C000079F08091550690915606E0915B06F0913F
:100C10005C06E80FF91F4083309356062093550673
:100C2000FF91EF919F918F914F913F912F910F9055
:100C30000FBE0F901F9018951F920F920FB60F9234
:100C400011242F933F938F939F93EF93FF932091C2
:100C50005F063091600680915D0690915E062817D0
:100C60003907E9F080915F0690916006E091630694
:100C7000F0916406E80FF91F80818093C60080918F
:100C80005F069091600601962091610630916206A0
:100C9000822393239093600680935F0610C0209177
:100CA0005D0630915E0680915F0690916006281780
:100CB000390729F48091C1008F7D8093C100FF9195
:100CC000EF919F918F913F912F910F900FBE0F90B9
:100CD0001F901895CF93DF93482FEB018091E70584
:100CE000833009F45FC0843028F48130D1F0823041
:100CF00068F50AC0853009F4D4C0853008F4AAC06C
:100D0000863009F0F4C0EBC04C3309F0F0C081E04C
:100D10008093E7054883E6E7F1E0E491E093E60598
:100D2000E6C0842F90E0E091E605F0E0E827F9279F
:100D3000E65CFE4FE491E093E605887F9070809733
:100D400041F582E08093E705498329C0242F30E0F4
:100D5000E091E605F0E0E227F327E65CFE4FE49140
:100D6000E093E6058091E5058F5F8093E50582308D
:100D700018F43B832A83BBC0922F88272A813B81AA
:100D8000820F931F9B838A830A978F3F910521F0DF
:100D900018F01092E705ABC083E08093E70510924E
:100DA000E505A5C0E42FF0E08091E60590E0E82796
:100DB000F927E65CFE4FE491E093E6056091E505D6
:100DC0006F5F6093E505623089F0633020F4613035
:100DD00009F08DC006C0633091F0643009F087C01F
:100DE00022C0842F90E0A0E0B0E018C0242F30E0B3
:100DF00040E050E0542F432F322F222707C0242FEA
:100E000030E040E050E0A901332722278C819D810A
:100E1000AE81BF81820F931FA41FB51F8C839D835A
:100E2000AE83BF8364C0242F30E040E050E0522FF7
:100E30004427332722278C819D81AE81BF81820F79
:100E4000931FA41FB51F8C839D83AE83BF836093C4
:100E5000E705A5CF242F30E0E091E605F0E0E2279A
:100E6000F327E65CFE4FE491E093E6056091E5052B
:100E70006F5F6093E505613019F06230C1F503C022
:100E80003987288734C0922F882728853985280FED
:100E9000391F398728878A819B810A97F1F085E07D
:100EA0007CCFE42FF0E08091E60590E0E827F92779
:100EB000E65CFE4FE491E093E6052091E5052F5FA7
:100EC0002093E50530E0FB01E20FF31F41878A81A3
:100ED0009B810A972817390750F086E05ECFC75FDD
:100EE000DE4F4883C950D14087E08093E705809169
:100EF000E705873069F41092E705C75FDE4F9091F0
:100F0000E6058881C950D140981711F48A8101C043
:100F100080E0DF91CF9108958F92AF92CF92EF92C0
:100F2000FF920F931F9382E594E060E045EC50E060
:100F300024EC30E000EC10E0B1ECEB2EF12CCC24F2
:100F4000C394A8E9AA2EF0E28F2E0E94942C8FE67B
:100F500094E00E94E8031F910F91FF90EF90CF90D3
:100F6000AF908F900895DF93CF9300D000D0CDB78E
:100F7000DEB7FB01E80FF91F62858385948525851F
:100F800069838A839B832C83492F5C81782FCA01D4
:100F90000F900F900F900F90CF91DF910895609177
:100FA000900470919104809192049091930420E0B8
:100FB00030E040E152E40E94BE3820E030E044EBF3
:100FC00053E40E94F0360E9421390E9458379B0159
:100FD0002550304037FF03C09B01215E3F4FA3EFF8
:100FE000B5E0F901EE55FC4F80818C932F5F3F4FA8
:100FF0002432310514F020E030E0119685E0AE3F58
:10100000B80779F71C9208952F923F924F925F9202
:101010006F927F928F929F92AF92BF92CF92DF9208
:10102000EF92FF920F931F93DF93CF9300D000D0E6
:1010300000D0CDB7DEB7182F662E209186043091F0
:1010400087042A35310530F0C9018D549F4F893509
:101050009105E8F437FF02C02D543F4FC90137FF17
:1010600003C0909581959F4F8A3191053CF004E42F
:10107000802E912CB9ED2B2E312C1DC00A975CF1DE
:10108000ABE38A2E912CF2ED2F2E312C20C02B3584
:10109000310514F0235B3040C90137FF03C0909540
:1010A00081959F4F8A31910554F0E6E58E2E912C63
:1010B0007CED272E312C67E0A62EB12C15C00A97A7
:1010C00054F05DE4852E912C44ED242E312C38E033
:1010D000A32EB12C09C025E0822E912C98E3292E55
:1010E000312C89E0A82EB12C60918804709189047C
:1010F000882777FD8095982F0E948B3727EA32E961
:101100004BE25CEB0E94BE380E94923920E030E056
:1011100040EA50E40E94BE3820E030E040E951E46B
:101120000E94BE380E94213920E030E044E352E4BE
:101130000E9423360E945837712E0EEBC02E0FEFFF
:10114000D02E9B01442737FD4095542F29833A83A5
:101150004B835C831FE6412E14E0512E4AEF5FEF74
:10116000240E351E6091860470918704882777FDD0
:101170008095982F0E948B3725E33AEF4EE85CE389
:101180000E94BE380E9492397B018C01B6018827EB
:1011900077FD8095982F0E948B379B01AC01C80189
:1011A000B7010E94BE387B018C0169817A818B81F5
:1011B0009C810E948B379B01AC01C801B7010E9442
:1011C00023360E9458379B01CB0101978A35910540
:1011D00008F071C062E170E00E94173A8B012F5F46
:1011E0003F4FAEEEBFEF6A9FC0016B9F900D7A9F9D
:1011F000900D1124820F931F62E070E00E94173A55
:101200006D837E83E62CE01A4E2D4C5F8FE694E0D2
:10121000672D0E94090500D000D000D0EDB7FEB7C1
:101220003196ADB7BEB712965C924E92119720E000
:1012300031E0338322838D819E81880D991D9583B2
:1012400084830E94732C4DB75EB74A5F5F4F0FB621
:10125000F8945EBF0FBE4DBF8D819E818A159B05A0
:1012600054F1043011053CF593E0E90EC201672DFD
:101270004E2D0E94090500D000D000D0EDB7FEB77A
:101280003196ADB7BEB712965C924E92119720E0A0
:1012900031E0338322834D815E81420D531D55839E
:1012A00044830E94732C8DB79EB706960FB6F894B0
:1012B0009EBF0FBE8DBFACE0B0E0CA0EDB1E7394C4
:1012C000BEE4CB16D10409F04DCF26960FB6F894A4
:1012D000DEBF0FBECDBFCF91DF911F910F91FF9069
:1012E000EF90DF90CF90BF90AF909F908F907F90C6
:1012F0006F905F904F903F902F900895CF92DF9224
:10130000EF92FF920F931F93823010F402E002C01D
:10131000082F000F6091E8057091E9058091EA05BA
:101320009091EB050E948B376B017C0120E030E44B
:101330004CE156E40E94E936202F30E04FE654E0BD
:10134000882334F58DB79EB70E970FB6F8949EBFDD
:101350000FBE8DBFEDB7FEB73196ADB7BEB71296D3
:101360005C934E93119783E091E09383828322579D
:101370003F4F358324832F5F3F4F37832683C086BB
:10138000D186E286F3868DE890E09587848734C025
:101390008DB79EB70E970FB6F8949EBF0FBE8DBF48
:1013A0000DB71EB70F5F1F4FADB7BEB712965C9358
:1013B0004E9311978FE091E0F80193838283225737
:1013C0003F4F358324832F5F3F4F37832683C701E9
:1013D000B60120E030E04AE754E40E94F036D8013C
:1013E00018966D937D938D939C931B978DEF90E052
:1013F0001D969C938E931C970E94732CEDB7FEB79D
:101400003E960FB6F894FEBF0FBEEDBF1F910F9131
:10141000FF90EF90DF90CF900895CF93DF93AC01D2
:10142000E0919A04F0919B042091EC053091ED0538
:10143000C9018C599F4F8E179F071CF4EA01219612
:1014400009C024563040E217F30714F0EA0102C045
:10145000EA012197842F90E0C817D90729F086E682
:1014600096E04C2F0E942B33CE01DF91CF9108954F
:10147000CF92DF92EF92FF920F931F93CF93DF9360
:101480007C016B01EA0100D000D00FE614E0EDB75B
:10149000FEB71283018383E492E0948383830E94E6
:1014A000622C0F900F900F900F90CA30D10581F0F1
:1014B000C436D10521F0C130D10519F512C000D0D4
:1014C00000D0EDB7FEB71283018381E492E011C032
:1014D00000D000D0EDB7FEB7128301838EE392E017
:1014E00008C000D000D0EDB7FEB7128301838AE3B5
:1014F00092E0948383830E94622C0F900F900F9050
:101500000F9040919A0450919B042091EC053091EA
:10151000ED05C9018C599F4F841795071CF4CE0D1A
:10152000DF1D0BC0245630404217530714F0E7016B
:1015300016C0C7018C1B9D0BEC01CE15DF0579F0A1
:1015400086E696E0B6014C2F0E942B330894C11C0E
:10155000D11C86E696E0B6014D2F0E942B33CE01BA
:10156000DF91CF911F910F91FF90EF90DF90CF907F
:101570000895CF92DF92EF92FF920F931F937C0119
:10158000D62EC72E0FE614E0C8016E2D4D2D0E94F9
:10159000E40400D000D0EDB7FEB71283018387E9E1
:1015A00092E0948383830E94622CEDB7FEB712838E
:1015B000018387E892E0948383830E94622CEDB7D5
:1015C000FEB71283018387E792E0948383830E94AE
:1015D000622CEDB7FEB71283018387E692E0948315
:1015E00083830E94622CEDB7FEB71283018388E5E6
:1015F00092E0948383830E94622C0F900F900F904F
:101600000F90C8010E949804C70101966D2D7C2D92
:101610000E9404081F910F91FF90EF90DF90CF90F0
:101620000895CF92DF92EF92FF920F931F93282F8E
:10163000462F0FE614E0C801622F0E94E404E090F8
:10164000EE05F090EF05C090F005D090F1058DB754
:101650009EB744970FB6F8949EBF0FBE8DBFEDB7EF
:10166000FEB73196ADB7BEB712961C930E93119785
:101670008BE191E09383828383EB90E09583848375
:10168000C7016CE370E00E94173ACB016CE370E095
:101690000E94173A978386832AE330E031872087B8
:1016A000C7016CE370E00E94173A9387828789EF45
:1016B00090E095878487C6016CE370E00E94033A4E
:1016C000CB016CE370E00E94173A97878687318BD5
:1016D000208BC6016CE370E00E94033A938B828BEF
:1016E0000E94732C8DB79EB744960FB6F8949EBF98
:1016F0000FBE8DBFC8010E9498041F910F91FF90EB
:10170000EF90DF90CF9008950F931F93282F462FCF
:101710000FE614E0C801622F0E94E4048DB79EB763
:101720000C970FB6F8949EBF0FBE8DBFEDB7FEB7F6
:101730003196ADB7BEB712961C930E93119783E303
:1017400091E09383828383EE90E0958384838091FC
:10175000BC049091BD04A091BE04B091BF048683E7
:101760009783A087B18780EB90E0938782870E9460
:10177000732C8DB79EB70C960FB6F8949EBF0FBE14
:101780008DBFC8010E9498041F910F9108950F9377
:101790001F93282F462F0FE614E0C801622F0E94E6
:1017A000E4048DB79EB746970FB6F8949EBF0FBE60
:1017B0008DBFEDB7FEB73196ADB7BEB712961C938D
:1017C0000E9311978DE391E09383828389EB90E0F0
:1017D000958384838091B6049091B7049783868320
:1017E00082E890E09187808787EB90E093878287FB
:1017F00080915F0390916003A0916103B0916203B7
:1018000084879587A687B78786EB90E0918B808B3E
:101810008091650390916603A0916703B09168037E
:10182000828B938BA48BB58B0E94732C8DB79EB744
:1018300046960FB6F8949EBF0FBE8DBFC8010E949A
:1018400098041F910F910895EF92FF920F931F93A9
:10185000282F462F8FE6E82E84E0F82EC701622F4E
:101860000E94E4048DB79EB70C970FB6F8949EBF04
:101870000FBE8DBF0DB71EB70F5F1F4FEDB7FEB781
:10188000F282E18285E591E0F8019383828384EE20
:1018900090E0958384836091B4047091B5048827A7
:1018A00077FD8095982F0E948B372AE037ED43E231
:1018B0005CE30E94BE38F801668377838087918756
:1018C0008FE890E0938782870E94732C8DB79EB734
:1018D0000C960FB6F8949EBF0FBE8DBFC7010E9435
:1018E00098041F910F91FF90EF900895CF92DF928F
:1018F000EF92FF920F931F93282F462F8FE694E0CD
:10190000622F0E94E404C090B004D090B104E09033
:10191000B204F090B3048091F20590E0805D9E4F98
:1019200020915D0330915E03829FB001839F700D13
:10193000929F700D1124882777FD8095982F0E9423
:101940008B3720E030E048EC52E40E94F0369B01F7
:10195000AC01C701B6010E94E936181614F428EB51
:1019600001C024EB8DB79EB70C970FB6F8949EBFBD
:101970000FBE8DBFEDB7FEB731960FE614E0ADB7E1
:10198000BEB712961C930E93119785E591E0938351
:101990008283822F992787FD909595838483C682C1
:1019A000D782E086F1868EE890E0938782870E9456
:1019B000732C8DB79EB70C960FB6F8949EBF0FBED2
:1019C0008DBFC8010E9498041F910F91FF90EF9066
:1019D000DF90CF9008950F931F93282F462F8FE607
:1019E00094E0622F0E94E40480919704882319F404
:1019F0002FE531E057C0813019F423E631E052C0C1
:101A0000823019F427E631E04DC0833019F42BE61B
:101A100031E048C0843019F42FE631E043C085300E
:101A200019F423E731E03EC0863019F427E731E0AE
:101A300039C0873019F42BE731E034C0883019F40D
:101A40002FE731E02FC0893019F423E831E02AC0B4
:101A50008A3019F427E831E025C08B3019F42BE8DF
:101A600031E020C08C3019F42FE831E01BC08D30FC
:101A700019F423E931E016C08E3019F427E931E07A
:101A800011C08F3019F42BE931E00CC0803119F40A
:101A90002FE931E007C0813119F023EA31E002C0BB
:101AA00024EA31E08150863030F480919604882316
:101AB00011F044E001C040EE8DB79EB708970FB615
:101AC000F8949EBF0FBE8DBFEDB7FEB731960FE6FF
:101AD00014E0ADB7BEB712961C930E93119788EA27
:101AE00091E093838283842F992787FD9095958336
:101AF0008483378326830E94732C8DB79EB7089604
:101B00000FB6F8949EBF0FBE8DBFC8010E94980407
:101B10001F910F9108950F931F93282F462F0FE6C3
:101B200014E0C801622F0E94E4048DB79EB70A97A3
:101B30000FB6F8949EBF0FBE8DBFEDB7FEB73196BE
:101B4000ADB7BEB712961C930E9311978DEA91E034
:101B50009383828387E890E09583848380919804BF
:101B6000909199049783868385E290E0918780879E
:101B70000E94732C8DB79EB70A960FB6F8949EBF3D
:101B80000FBE8DBFC8010E9498041F910F91089548
:101B90000F931F93282F462F0FE614E0C801622FE2
:101BA0000E94E4048DB79EB708970FB6F8949EBFC5
:101BB0000FBE8DBFEDB7FEB73196ADB7BEB712966B
:101BC0001C930E93119787EB91E09383828380910E
:101BD0008804909189049583848381EB90E09783B6
:101BE00086830E94732C8DB79EB708960FB6F89423
:101BF0009EBF0FBE8DBFC8010E9498041F910F9118
:101C000008950F931F93282F462F0FE614E0C80165
:101C1000622F0E94E4048DB79EB708970FB6F89420
:101C20009EBF0FBE8DBFEDB7FEB73196ADB7BEB745
:101C300012961C930E93119787EB91E09383828306
:101C400080918604909187049583848382EB90E051
:101C5000978386830E94732C8DB79EB708960FB624
:101C6000F8949EBF0FBE8DBFC8010E9498041F91BB
:101C70000F9108950F931F93282F462F0FE614E01E
:101C8000C801622F0E94E4048DB79EB70E970FB66D
:101C9000F8949EBF0FBE8DBFEDB7FEB73196ADB7BE
:101CA000BEB712961C930E9311978DEB91E0938320
:101CB000828381EE90E0958384838091C804992784
:101CC00087FD9095978386838CE890E09187808745
:101CD0008091C904828713868BE890E0958784877A
:101CE0000E94732C8DB79EB70E960FB6F8949EBFC8
:101CF0000FBE8DBFC8010E9498041F910F910895D7
:101D00000F931F93282F462F0FE614E0C801622F70
:101D10000E94E4048DB79EB742970FB6F8949EBF19
:101D20000FBE8DBFEDB7FEB73196ADB7BEB71296F9
:101D30001C930E9311978BEC91E0938382838CED2F
:101D400091E0958384838091900490919104A09177
:101D50009204B091930486839783A087B18780EB28
:101D600090E09387828780ED90E09587848783EF6A
:101D700095E09787868781ED90E0918B808B0E941C
:101D8000732C8DB79EB742960FB6F8949EBF0FBEC8
:101D90008DBFC8010E9498041F910F910895EF9282
:101DA000FF920F931F93CF93DF93282F462F8FE639
:101DB00094E0622F0E94E404E090AC04F090AD0443
:101DC0000091AE041091AF04C801B70120E030E0EB
:101DD00040E050E00E94B338181614F42BE701C01D
:101DE0002DE78DB79EB70C970FB6F8949EBF0FBE28
:101DF0008DBFCDB7DEB721968FE694E0EDB7FEB785
:101E00009283818386EE91E09B838A832C831D825B
:101E1000C801B70120E030E040E752E40E94BE383C
:101E20000E9458379B0177FF03C0309521953F4FA3
:101E3000B901882777FD8095982F0E948B376E8394
:101E40007F83888799878FE790E09B878A870E94A6
:101E5000732C8DB79EB70C960FB6F8949EBF0FBE2D
:101E60008DBF8FE694E00E949804DF91CF911F917F
:101E70000F91FF90EF900895CF92DF92EF92FF9233
:101E80000F931F93CF93DF93282F462FCFE6D4E0F5
:101E9000CE01622F0E94E404C090FF05D09000069E
:101EA000E0900106F0900206C701B6010E94583783
:101EB000695E7340804090408CF18DB79EB70C975F
:101EC0000FB6F8949EBF0FBE8DBF0DB71EB70F5F44
:101ED0001F4FADB7BEB71296DC93CE93119785E531
:101EE00091E0F801938382838EEF90E09583848361
:101EF000C701B60120E030E04AE754E40E94F03622
:101F0000D80116966D937D938D939C9319978DEFC1
:101F100090E01B969C938E931A9721C08DB79EB725
:101F20000C970FB6F8949EBF0FBE8DBFEDB7FEB7EE
:101F30003196ADB7BEB71296DC93CE93119780EF72
:101F400091E0938382838EEF90E095838483C682B1
:101F5000D782E086F1868DE890E0938782870E94A1
:101F6000732CEDB7FEB73C960FB6F894FEBF0FBECC
:101F7000EDBF8FE694E00E949804DF91CF911F910E
:101F80000F91FF90EF90DF90CF900895EF92FF9226
:101F90000F931F93282F462F9FE6E92E94E0F92EEA
:101FA000C701622F0E94E4048DB79EB70C970FB64D
:101FB000F8949EBF0FBE8DBF0DB71EB70F5F1F4FAA
:101FC000EDB7FEB7F282E18283E391E0F8019383FB
:101FD000828389EE90E0958384836091A804709158
:101FE000A9048091AA049091AB0426E636E646E661
:101FF00050E40E94BE38F80166837783808791871A
:1020000081E890E0938782870E94732C8DB79EB7FA
:102010000C960FB6F8949EBF0FBE8DBFC7010E94ED
:1020200098041F910F91FF90EF900895CF92DF9247
:10203000EF92FF920F931F93282F462F3FE6C32E58
:1020400034E0D32EC601622F0E94E4046091A40400
:102050007091A5048091A6049091A7042DB73EB776
:10206000245130400FB6F8943EBF0FBE2DBF0DB7C0
:102070001EB70F5F1F4FEDB7FEB7D282C1822AEFA6
:1020800031E0F8013383228325E830E0358324836F
:1020900066837783808791872DE8E22EF12CF38683
:1020A000E28627EE30E03587248720910B063091B9
:1020B0000C0640910D0650910E060E942236F80142
:1020C00066877787808B918BF38AE28A0E94732CD4
:1020D0002DB73EB72C5E3F4F0FB6F8943EBF0FBEF4
:1020E0002DBFC6010E9498041F910F91FF90EF90A1
:1020F000DF90CF900895EF92FF920F931F93282FB8
:10210000462F5FE6E52E54E0F52EC701622F0E94B0
:10211000E4048DB79EB70C970FB6F8949EBF0FBE20
:102120008DBF0DB71EB70F5F1F4FEDB7FEB7F28221
:10213000E18286EE91E0F8019383828386EE90E05F
:10214000958384836091B8047091B9048091BA0436
:102150009091BB042091690330916A0340916B0315
:1021600050916C030E942236F80166837783808742
:1021700091878DE890E0938782870E94732C8DB7BA
:102180009EB70C960FB6F8949EBF0FBE8DBFC701C9
:102190000E9498041F910F91FF90EF9008950F9364
:1021A0001F93282F462F0FE614E0C801622F0E94CC
:1021B000E40480910F060E947E09C8010E949804E1
:1021C0001F910F910895CF92DF92EF92FF920F939C
:1021D0001F93CF93DF93282F462FCFE6D4E0CE0175
:1021E000622F0E94E40460911006709111068091A4
:1021F0001206909113060E948B376B017C0120E040
:1022000030E44CE156E40E94E936882314F58DB79A
:102210009EB70C970FB6F8949EBF0FBE8DBFEDB75B
:10222000FEB73196ADB7BEB71296DC93CE93119739
:1022300086EE91E09383828382E190E095838483AC
:10224000C682D782E086F1868DE890E09387828708
:1022500030C08DB79EB70C970FB6F8949EBF0FBED7
:102260008DBF0DB71EB70F5F1F4FADB7BEB712962C
:10227000DC93CE9311978EE092E0F80193838283F2
:1022800082E190E095838483C701B60120E030E0CD
:102290004AE754E40E94F036D80116966D937D9378
:1022A0008D939C9319978DEF90E01B969C938E9342
:1022B0001A970E94732CEDB7FEB73C960FB6F894B0
:1022C000FEBF0FBEEDBF8FE694E00E949804DF9141
:1022D000CF911F910F91FF90EF90DF90CF900895D5
:1022E0006F927F928F929F92AF92BF92CF92DF9226
:1022F000EF92FF920F931F93CF93DF93282F462FD8
:102300008FE694E0622F0E94E404C0911406D091FD
:102310001506D7FF02C00AE801C007EF8090160635
:1023200090901706A0901806B09019068091980416
:1023300090919904069708F05AC0C501B4010E9413
:10234000583716161706180619060CF050C0C0901C
:10235000AC04D090AD04E090AE04F090AF04C7019F
:10236000B60120E030E040E050E00E94E9368823EA
:102370000CF03DC0809197048730C8F560916903E7
:1023800070916A0380916B0390916C032091B80463
:102390003091B9044091BA045091BB040E94223696
:1023A0002091A8043091A9044091AA045091AB0453
:1023B0000E94BE38A70196010E94F0364B015C01D5
:1023C00020E83FE443EC57E40E94B338181654F475
:1023D0000F2EF0E88F2EFFE49F2EF3ECAF2EF7E4E4
:1023E000BF2EF02DFEE77F2EEDE86E2E04C07BEFB2
:1023F000772E6CEF662EBE01882777FD8095982F8B
:102400000E948B376B017C010E9458374FE654E0E5
:10241000202F332727FD3095605177428040904030
:10242000CCF1EDB7FEB774970FB6F894FEBF0FBEB0
:10243000EDBF0DB71EB70F5F1F4F5283418388E179
:1024400092E0D80113969C938E93129715963C9325
:102450002E931497C701B60120E030E04AE754E418
:102460000E94F036F80166837783808791878DEF2D
:1024700090E09387828774861586D8011E968D9288
:102480009D92AD92BC92519752966C9252975396F0
:102490001C9227C08DB79EB744970FB6F8949EBF85
:1024A0000FBE8DBFEDB7FEB73196ADB7BEB7129672
:1024B0005C934E9311978CE292E0938382833583F1
:1024C0002483C682D782E086F1868DE890E09387E8
:1024D00082877486158686869786A08AB18A628AE4
:1024E000138A0E94732CEDB7FEB774960FB6F8945A
:1024F000FEBF0FBEEDBF8FE694E00E949804DF910F
:10250000CF911F910F91FF90EF90DF90CF90BF90F0
:10251000AF909F908F907F906F9008950F931F932F
:10252000282F462F0FE614E0C801622F0E94E40412
:102530008DB79EB70C970FB6F8949EBF0FBE8DBF98
:10254000EDB7FEB73196ADB7BEB712961C930E939A
:10255000119780E492E09383828380918C04909120
:102560008D04A0918E04B0918F0484839583A683FB
:10257000B78380919E0490919F04A091A004B09194
:10258000A10480879187A287B3870E94732C8DB79F
:102590009EB70C960FB6F8949EBF0FBE8DBFC801B4
:1025A0000E9498041F910F9108950F931F93282F55
:1025B000462F8FE694E0622F0E94E4048091A304EA
:1025C000282F30E0823030F4A4E0220F331FAA9588
:1025D000E1F702C02150304000D000D000D0EDB76C
:1025E000FEB731960FE614E0ADB7BEB712961C9356
:1025F0000E93119780E091E0938382833583248347
:102600000E94732C8DB79EB706960FB6F8949EBFA6
:102610000FBE8DBFC8010E9498041F910F910895AD
:102620000F931F93282F462F0FE614E0C801622F47
:102630000E94E4048DB79EB708970FB6F8949EBF2A
:102640000FBE8DBFEDB7FEB73196ADB7BEB71296D0
:102650001C930E9311978CE492E0938382838FE016
:1026600090E0958384838091A204868317820E94E0
:10267000732C8DB79EB708960FB6F8949EBF0FBE09
:102680008DBFC8010E9498041F910F9108950F9368
:102690001F930FE614E0C80161E047E00E94E404E4
:1026A00000D000D0EDB7FEB71283018387EA92E035
:1026B000948383830E94622C0F900F900F900F9051
:1026C000C8010E9498041F910F910895EF92FF9204
:1026D0000F931F93282F462F8FE694E0622F0E94BE
:1026E000E4046091D6047091D7048091D80490914D
:1026F000D90426E636E646E650E40E94BE380E943B
:102700005837DC01CB0167E076E04AE050E00E94F8
:10271000B70380919504823058F160916D037091F8
:102720006E0380916F039091700324EE38E34EE8BE
:102730005FE30E9423369B01AC016091D604709147
:10274000D7048091D8049091D9040E94E9361816D4
:102750007CF00E94B43428EC30E040E050E00E946D
:102760002A3A20FF05C080E28093070610920806EF
:102770008DB79EB742970FB6F8949EBF0FBE8DBF20
:102780000DB71EB70F5F1F4FBFE6EB2EB4E0FB2E59
:10279000EDB7FEB7F282E18282E592E0F801938321
:1027A000828388EE90E09583848360910306709124
:1027B0000406809105069091060626E636E646E672
:1027C00050E40E94BE38F801668377838087918742
:1027D00021E830E03387228789E890E09587848775
:1027E00087E096E097878687318B208B0E94732C39
:1027F0008DB79EB742960FB6F8949EBF0FBE8DBFA1
:10280000C7010E9498041F910F91FF90EF900895C7
:102810009F92AF92BF92CF92DF92EF92FF920F936F
:102820001F93CF93DF93282F462FCFE6D4E0CE011E
:10283000622F0E94E404909097048EE0981621F095
:102840009CE0991609F008C16091D0047091D10400
:102850008091D2049091D3042091C4043091C50496
:102860004091C6045091C7040E9422367B018C011E
:102870006091CC047091CD048091CE049091CF04EE
:102880002091C0043091C1044091C2045091C3040E
:102890000E9422365B016C01C801B701A8019701B3
:1028A0000E94BE387B018C01C601B501A6019501CD
:1028B0000E94BE389B01AC01C801B7010E942336BB
:1028C0000E9445395B016C01E090A804F090A904D6
:1028D0000091AA041091AB04C801B70120E030E0D8
:1028E00040E050E00E94B33818161CF000E010E001
:1028F00009C0C601B501A80197010E94F0360E94E7
:102900005D378B01C601B50120E83FE443EC57E495
:102910000E94B338181654F40F2EF0E8AF2EFFE4DF
:10292000BF2EF3ECCF2EF7E4DF2EF02DE801A7E168
:1029300000371A0710F0CFE6D7E18091CA049091D2
:10294000CB048436910530F083E690E09093CB047D
:102950008093CA04C601B50120E03CE34CE156E493
:102960000E94B33818163CF42FE632E143E85AE3EC
:102970000DEFF02E06C020E030E040E85FE31DE8F8
:10298000F12EBCE09B1621F41092CB041092CA04E5
:10299000EDB7FEB77A970FB6F894FEBF0FBEEDBF46
:1029A0000DB71EB70F5F1F4F8FE694E092838183B0
:1029B00084E692E0D80113969C938E93129783E15C
:1029C00090E015969C938E93149784E190E017966F
:1029D0009C938E93169789E190E019969C938E9321
:1029E0001897C601B5010E94BE38F8016287738747
:1029F000848795878F2D992787FD90959787868760
:102A00008091CA049091CB04918B808B8AE190E0F5
:102A1000938B828BCE016CE370E00E94033ACB0172
:102A20006CE370E00E94173A958B848B8AE390E008
:102A3000978B868BCE016CE370E00E94033A918FF6
:102A4000808F0E94732C8DB79EB74A960FB6F8946C
:102A50009EBF0FBE8DBF23C023E832E0ADB7BEB727
:102A600018970FB6F894BEBF0FBEADBFEDB7FEB757
:102A700031961296DC93CE9311978CE892E0938373
:102A8000828335832483378326830E94732CEDB79A
:102A9000FEB738960FB6F894FEBF0FBEEDBF8FE6B7
:102AA00094E00E949804DF91CF911F910F91FF90C5
:102AB000EF90DF90CF90BF90AF909F9008956F926E
:102AC0007F928F929F92AF92BF92CF92DF92EF92BE
:102AD000FF920F931F93E0905006F09051060091E3
:102AE0005206109153068FE590E0A0E0B0E0E80EAA
:102AF000F91E0A1F1B1F0E94B4346E157F05800744
:102B0000910708F4F4C02091A8043091A9044091E1
:102B1000AA045091AB04E090AC04F090AD04009195
:102B2000AE041091AF04CA01B9010E94BE385B0126
:102B30006C01C801B701A80197010E94BE389B0132
:102B4000AC01C601B5010E9423360E94453960934D
:102B5000030670930406809305069093060620E012
:102B600030E040E050E00E94B33818160CF0B5C0D9
:102B70000E94B43420915006309151064091520683
:102B800050915306621B730B840B950B0E9489377F
:102B90005B016C01E0900306F090040600910506CD
:102BA000109106062091A8043091A9044091AA042E
:102BB0005091AB040E94BE3820E030E04AE754E474
:102BC0000E94F0369B01AC016091FF0570910006F8
:102BD00080910106909102060E9423366093FF05C2
:102BE000709300068093010690930206809142063E
:102BF00090914306892B09F464C0C801B701A6016E
:102C000095010E94BE3820E030E04AE754E40E947B
:102C1000F0363B014C0120E030E040E050E00E9403
:102C2000B33818160CF04DC0609116067091170657
:102C300080911806909119062DEC3CEC4CE45FE372
:102C40000E94BE387B018C016091B4047091B50480
:102C5000882777FD8095982F0E948B372091B004AC
:102C60003091B1044091B2045091B3040E94BE3837
:102C7000A60195010E94BE3820E030E041EE54E408
:102C80000E94F036A40193010E94F0369B01AC0132
:102C9000C801B7010E942336609316067093170689
:102CA000809318069093190620E03BE443EC57E428
:102CB0000E94B33818168CF480E09BE4A3ECB7E4D0
:102CC00004C080E090E0A0E0B0E08093160690930E
:102CD0001706A0931806B09319060E94B4346093A7
:102CE00050067093510680935206909353061F919D
:102CF0000F91FF90EF90DF90CF90BF90AF909F909B
:102D00008F907F906F900895EF92FF920F931F9393
:102D1000CF93DF930E94B43420911D0630911E069C
:102D200040911F065091200626173707480759077C
:102D300008F029C10E94B4346C507E4F8F4F9F4FD2
:102D400060931D0670931E0680931F0690932006C5
:102D50000FE614E0C8010E942E05C80165E043E0BB
:102D60000E94E40400D000D0EDB7FEB712830183C7
:102D700088EE92E0948383830E94622C0F900F90E0
:102D80000F900F908091EC059091ED05892B31F01B
:102D900080911A0690911B06892B81F480919A04E8
:102DA00090919B049093ED058093EC0580919C0499
:102DB00090919D0490931B0680931A0620919C0489
:102DC00030919D0440911A0650911B06C90184560A
:102DD00090404817590724F480911C068F5F08C063
:102DE0002C593F4F241735072CF480911C06815035
:102DF00080931C0680911C06823014F482E003C08C
:102E000085301CF084E080931C0680911C06833082
:102E100039F0843009F45DC0823009F0B0C003C0DD
:102E2000CAE0D0E002C0C4E6D0E000D000D09FE607
:102E3000E92E94E0F92EEDB7FEB7F282E18289ED3A
:102E400092E0948383830E94622C8DB79EB708978B
:102E50000FB6F8949EBF0FBE8DBF0DB71EB70F5FA4
:102E60001F4FEDB7FEB7F282E18282E992E0F801EE
:102E7000938382836091630370916403882777FD55
:102E80008095982F0E948B37F80164837583868321
:102E9000978382E890E09187808780E290E0938733
:102EA00082870E94732C8DB79EB70C960FB6F8944C
:102EB0009EBF0FBE8DBF80916303909164036DEF41
:102EC00073E0AE010E94380A909364038093630319
:102ED00056C000D000D08FE6E82E84E0F82EEDB783
:102EE000FEB7F282E18289EB92E0948383830E94B1
:102EF000622C8DB79EB708970FB6F8949EBF0FBE91
:102F00008DBF0DB71EB70F5F1F4FEDB7FEB7F28233
:102F1000E1828AE992E0F801938382836091F2056D
:102F200070E0645D7E4F882777FD8095982F0E9422
:102F30008B3720E030E048EC52E40E94F036F80194
:102F4000648375838683978386E790E09187808783
:102F500080E290E0938782870E94732C8DB79EB7A2
:102F60000C960FB6F8949EBF0FBE8DBF8091F205F0
:102F700090E060E873E00E940D0A8093F2058FE60E
:102F800094E00E949804DF91CF911F910F91FF90E0
:102F9000EF9008952F923F924F925F926F927F929F
:102FA0008F929F92AF92BF92CF92DF92EF92FF9259
:102FB0000F931F93DF93CF93CDB7DEB76A970FB60A
:102FC000F894DEBF0FBECDBF8F8B688F0E94B434E4
:102FD000209121063091220640912306509124062B
:102FE000261737074807590708F02CC28091250695
:102FF0008823C9F0809371031092250682EA92E03B
:1030000090933406809333060E94B434625A7E4F04
:103010008F4F9F4F60932106709322068093230663
:1030200090932406C9C180917103282F30E03A8320
:103030002983D09095043091D4043E8B4091D504DF
:103040004D8BC0909404E0902706F09028060091E4
:103050003306109134066091FF057091000680914F
:103060000106909102060E945837698B7A8B8B8BF0
:103070009C8B8091D6049091D704A091D804B091F4
:10308000D9048D879E87AF87B88B20916D033091CF
:103090006E0340916F035091700329873A874B87E5
:1030A0005C873091A3043887409126064F83209097
:1030B000B0043090B1044090B2045090B3048091B9
:1030C000F20590E0845D9E4F20915D0330915E0398
:1030D000DC01A29FC001A39F900DB29F900D11240F
:1030E0006090E603B0E46B227090E7037B22E091EE
:1030F000C804EE83F091C904FD8320911406309139
:1031000015063C832B8349815A815A8F498F4C0184
:10311000AA2497FCA094BA2C898D9A8D01969A8F37
:10312000898F09972CF0A1E0B0E0BA8FA98F27C052
:10313000E98DFA8DE430F10509F46BC0E530F10555
:103140005CF4E230F105D1F1E330F1050CF055C04B
:10315000319709F0B2C013C0298D3A8D2630310560
:1031600009F478C0263031050CF46AC027303105E7
:1031700009F480C02830310509F09FC093C031E0C8
:103180003D15A0F0D31619F40FEA12E015C04E89D0
:10319000413049F45D89513031F482E08C1518F0EA
:1031A0000CEB12E009C009EC12E006C09D899130D9
:1031B00009F483C006ED12E081E088C0A1E0AD15FE
:1031C00008F07BC029893A894B895C892333310512
:1031D000410551050CF471C06D857E858F859889F8
:1031E00029853A854B855C850E94E93688230CF059
:1031F00064C003EE12E082E069C03885323008F026
:103200005CC04F81442309F458C000EF12E083E012
:103210005DC0C501B4010E948B3720E030E048EC6E
:1032200052E40E94F0369B01AC01C201B1010E9440
:10323000E93688230CF041C00DEF12E084E046C06F
:1032400051E0E516F104C9F50AE013E0EE24FF248D
:1032500085E03CC0662011F4772079F18E818C3AAC
:103260002CF09D81993648F5882339F107E113E068
:1032700086E02CC0A1E0AD1500F1AC15F0F4B2E091
:10328000CB1619F404E213E005C0E3E0CE1621F4F6
:1032900001E313E087E01AC0F4E0CF16D9F70EE39C
:1032A00013E0F8CF21E02D1540F44B815C8157FFEE
:1032B00004C00BE413E088E009C0898D9A8DA981D0
:1032C000BA818A179B0709F027CFA1C0F092280680
:1032D000E092270610933406009333068093250668
:1032E00081E0809329060E94B43464547D4F8F4F4F
:1032F0009F4F60932106709322068093230690933C
:1033000024060E94B4346854744F8F4F9F4F6093CB
:103310002F06709330068093310690933206809189
:103320002A0690912B06A0912C06B0912D060097AD
:10333000A105B10571F40E94B4346059784E8F4FE5
:103340009F4F60932A0670932B0680932C069093D0
:103350002D0680912E06882379F40E94B4342091A2
:103360002A0630912B0640912C0650912D062617E7
:1033700037074807590720F08FE694E00E942E0592
:103380000E94B43420912A0630912B0640912C06DD
:1033900050912D06261737074807590768F01092F5
:1033A0002E060AC01092290610922A0610922B06A9
:1033B00010922C0610922D060FE614E0C8016F89BA
:1033C000488D0E94E40400D000D000D0EDB7FEB7D5
:1033D0003196ADB7BEB712961C930E93119788E540
:1033E00093E0938382838091330690913406958392
:1033F00084830E94732CEDB7FEB736960FB6F8940F
:10340000FEBF0FBEEDBFC8010E9498041BC0F09222
:103410002806E09227061093340600933306109294
:1034200025060E94B43420912F0630913006409139
:10343000310650913206261737074807590708F416
:10344000B1CFBACF6A960FB6F894DEBF0FBECDBF2C
:10345000CF91DF911F910F91FF90EF90DF90CF9070
:10346000BF90AF909F908F907F906F905F904F90A4
:103470003F902F90089520915B0330915C03C90128
:10348000895097408F5A9440D0F5809195048823B5
:1034900021F481E0809335062EC080913506882383
:1034A00051F580912906882311F10E94B4342091AE
:1034B0002A0630912B0640912C0650912D06261796
:1034C000370748075907B8F40E94B4342091210601
:1034D0003091220640912306509124062617370783
:1034E0004807590740F480912506882321F48FE688
:1034F00094E00E942E0582E080932E06089584E0D9
:10350000203B380768F480912E06882349F01092FA
:1035100035068FE694E00E942E0510922E0608953F
:10352000205B34402955324000F580912E068130D1
:10353000E1F080912906882379F00E94B43420912B
:103540002A0630912B0640912C0650912D06261705
:1035500037074807590748F4109235068FE694E07C
:103560000E942E0581E080932E060895EF92FF922F
:103570000F931F9380913506882309F060C08091D6
:103580009504823008F05BC080912606813009F0F6
:1035900056C080919A0490919B04895097400CF4F6
:1035A0004EC080919C0490919D04805B94400CF0EF
:1035B00046C080918C0490918D04A0918E04B091AE
:1035C0008F048093360690933706A0933806B09305
:1035D000390680919E0490919F04A091A004B0911F
:1035E000A10480933A0690933B06A0933C06B093C7
:1035F0003D068091A4049091A504A091A604B091E9
:10360000A70480930B0690930C06A0930D06B0932D
:103610000E068091B8049091B904A091BA04B091BB
:10362000BB048093690390936A03A0936B03B093E8
:103630006C0381E090E090932806809327068091A8
:103640003E0690913F06A0914006B091410600973A
:10365000A105B10509F04EC080919804909199049C
:10366000CD9708F447C080919504823008F442C099
:103670000E94B43460933E0670933F0680934006E8
:103680009093410610924306109242068091B60430
:103690009091B704909345068093440680915F0310
:1036A00090916003A0916103B091620380937203D3
:1036B00090937303A0937403B093750380E090E03C
:1036C000A0E0B0E08093FF0590930006A093010670
:1036D000B09302068091B8049091B904A091BA0405
:1036E000B091BB048093690390936A03A0936B032A
:1036F000B0936C0380913E0690913F06A0914006E6
:10370000B09141060097A105B10509F458C0809118
:103710009504823038F10E94B43420913E063091F5
:103720003F064091400650914106621B730B840B8B
:10373000950B28EE33E040E050E00E942A3A3093A7
:10374000EF052093EE058091B6049091B704209187
:10375000440630914506821B930B90934306809359
:1037600042064DC00E94B4347B018C016091EE058D
:103770007091EF05882777FD8095982F28E13CEF21
:103780004FEF5FEF0E94E439E60EF71E081F191F86
:10379000E0923E06F0923F060093400610934106E9
:1037A0008091B6049091B70420914206309143066F
:1037B000821B930B909345068093440620C00E9481
:1037C000B43428EE33E040E050E00E942A3A3093CF
:1037D000EF052093EE051092430610924206809169
:1037E0005F0390916003A0916103B09162038093A5
:1037F000720390937303A0937403B09375030E94B4
:103800003B1A80913506882319F00E9484165EC207
:103810008091E60380FF08C06091400480913E04DF
:1038200090E070E00E94CA1780912E068230A8F0C6
:1038300080912906882309F449C20E94B43420915A
:103840002A0630912B0640912C0650912D06261702
:1038500037074807590708F439C280912E0680932C
:103860004606823011F410922E0680912E06A82F63
:10387000B0E0FD01E052FC4F808185FF0BC0FD01EF
:10388000E850FC4F6081AA50BC4F8C9190E070E0F2
:103890000E94101380912E06A82FB0E0FD01E05287
:1038A000FC4F808186FF0BC0FD01E450FC4F60811E
:1038B000A650BC4F8C9190E070E00E94D512809190
:1038C0002E06A82FB0E0FD01EA51FC4F808183FF56
:1038D0000BC0FD01EC5BFB4F6081AE5BBB4F8C917D
:1038E00090E070E00E94CF0E80912606882309F4B4
:1038F00069C080912E06A82FB0E0FD01E052FC4F78
:10390000808187FF0BC0FD01E050FC4F6081A25019
:10391000BC4F8C9190E070E00E948E1280912E0638
:10392000A82FB0E0FD01EE51FC4F808184FF0BC059
:10393000FD01E05FFB4F6081A25FBB4F8C9190E087
:1039400070E00E94E31080912E06A82FB0E0FD01E8
:10395000EE51FC4F808183FF0BC0FD01E45FFB4F04
:103960006081A65FBB4F8C9190E070E00E94CF1009
:1039700080912E06A82FB0E0FD01EE51FC4F808112
:1039800085FF0BC0FD01EC5EFB4F6081AE5EBB4F5F
:103990008C9190E070E00E94081480912E06A82F70
:1039A000B0E0FD01EE51FC4F808186FF0BC0FD01B0
:1039B000E85EFB4F6081AA5EBB4F8C9190E070E0A7
:1039C0000E94701180912E06A82FB0E0FD01EC51ED
:1039D000FC4F808187FF0BC0FD01E85DFB4F6081DC
:1039E000AA5DBB4F8C9190E070E00E947B108091AB
:1039F0002E06A82FB0E0FD01EC51FC4F808181FF25
:103A00000BC0FD01E05DFB4F6081A25DBB4F8C915F
:103A100090E070E00E94661380912606882309F4E6
:103A200044C08091A304823008F43FC080912E06E8
:103A3000A82FB0E0FD01E851FC4F808182FF0BC050
:103A4000FD01E45BFB4F6081A65BBB4F8C9190E076
:103A500070E00E943C0F80912E06A82FB0E0FD017F
:103A6000EC51FC4F808182FF0BC0FD01EC5DFB4FF0
:103A70006081AE5DBB4F8C9190E070E00E941610AB
:103A800080912E06A82FB0E0FD01EC51FC4F808103
:103A900083FF0BC0FD01E45DFB4F6081A65DBB4F62
:103AA0008C9190E070E00E94C60F809126068823DA
:103AB00021F08091A304823028F4809194048150F5
:103AC0008330A8F480912E06A82FB0E0FD01EE51BE
:103AD000FC4F808180FF0BC0FD01E85FFB4F6081E0
:103AE000AA5FBB4F8C9190E070E00E94800E8091A5
:103AF0002E06A82FB0E0FD01EA51FC4F808186FF21
:103B00000FC08091C804882359F0FD01E85BFB4F8A
:103B10006081AA5BBB4F8C9190E070E00E943A0EEE
:103B200080912E06A82FB0E0FD01E052FC4F80816D
:103B300082FF0BC0FD01E051FC4F6081A251BC4FE0
:103B40008C9190E070E00E94010E80912E06A82FCB
:103B5000B0E0FD01E052FC4F808181FF0BC0FD0110
:103B6000E451FC4F6081A651BC4F8C9190E070E015
:103B70000E94C80D80912E06A82FB0E0FD01EC51E7
:103B8000FC4F808184FF0BC0FD01EC5CFB4F60812A
:103B9000AE5CBB4F8C9190E070E00E948B0D8091E9
:103BA0002E06A82FB0E0FD01EC51FC4F808185FF6F
:103BB0000BC0FD01E85CFB4F6081AA5CBB4F8C91A0
:103BC00090E070E00E94EB0C80912E06A82FB0E0F0
:103BD000FD01E052FC4F808183FF0BC0FD01EC50E2
:103BE000FC4F6081AE50BC4F8C9190E070E00E9421
:103BF000760C80912E06A82FB0E0FD01EC51FC4F11
:103C0000808180FF0BC0FD01E05EFB4F6081A25E02
:103C1000BB4F8C9190E070E00E94240C80912E06A6
:103C2000A82FB0E0FD01E052FC4F808184FF0BC063
:103C3000FD01EC5FFB4F6081AE5FBB4F8C9190E06C
:103C400070E00E94C70B80912E06A82FB0E0FD0106
:103C5000E851FC4F808181FF0BC0FD01E05BFB4F11
:103C60006081A25BBB4F8C9190E070E00E94840B5E
:103C700080912E06A82FB0E0FD01EE51FC4F80810F
:103C800087FF0BC0FD01E45EFB4F6081A65EBB4F6A
:103C90008C9190E070E00E94110B80912E06A82F6D
:103CA000B0E0FD01EC51FC4F808186FF0BC0FD01AF
:103CB000E45CFB4F6081A65CBB4F8C9190E070E0B0
:103CC0000E94B90A8091460680932E061F910F919B
:103CD000FF90EF9008958FE694E00E942E050E94D9
:103CE00047130895CF93DF93EC018FE694E00E9491
:103CF0000304C817D9073CF08FE694E00E94F8034C
:103D0000892B09F42397CE01DF91CF910895FF927B
:103D10000F931F9306E616E0C8016EE773E00E945A
:103D2000243390E0A0E0B0E0BC01CD010E948937CF
:103D300026E636E646E650E40E94F03660936D03D0
:103D400070936E0380936F0390937003C80160E8D3
:103D500073E00E9424338093F205C8016DEF73E095
:103D60000E942433F82EC8016EEF73E00E942433C2
:103D7000382F20E02F0D311D30936403209363030F
:103D80001F910F91FF900895BC0186E696E00E9476
:103D900024330895EF92FF920F931F93CF93DF93F5
:103DA00000912E0610E08AEF90E0089F7001099FB5
:103DB000F00C189FF00C1124C70188569F4F0E94E9
:103DC000C41EF801E052FC4F882319F08081806105
:103DD00002C080818F7E808380912E06C82FD0E024
:103DE000C70186569F4F0E94C41ECE5FDB4F88835B
:103DF00080912E06C82FD0E0C70184569F4F0E94A5
:103E0000C41E90E00E94721ECC5FDB4F888300913D
:103E10002E0610E0C70106960E94C41EF801E0526B
:103E2000FC4F882319F08081826002C080818D7FE1
:103E3000808380912E06C82FD0E0C70108960E948B
:103E4000C41EC651DC4F888380912E06C82FD0E057
:103E5000C7010A960E94C41E90E00E94721EC451BF
:103E6000DC4F888300912E0610E0C7010C960E945B
:103E7000C41EF801E052FC4F882319F08081846051
:103E800002C080818B7F808380912E06C82FD0E076
:103E9000C7010E960E94C41EC251DC4F88838091D8
:103EA0002E06C82FD0E0C70140960E94C41E90E0A5
:103EB0000E94721EC051DC4F888300912E0610E0D4
:103EC000C70142960E94C41EF801E052FC4F8823AD
:103ED00019F08081886002C08081877F8083809113
:103EE0002E06C82FD0E0C70144960E94C41ECE50B3
:103EF000DC4F888380912E06C82FD0E0C7014696FC
:103F00000E94C41E90E00E94721ECC50DC4F888339
:103F100000912E0610E0C7014E960E94C41EF801C3
:103F2000E052FC4F882319F08081806202C08081BA
:103F30008F7D808380912E06C82FD0E0C7018096A8
:103F40000E94C41ECA50DC4F888380912E06C82F61
:103F5000D0E0C70182960E94C41E90E00E94721EAB
:103F6000C850DC4F888300912E0610E0C70184966C
:103F70000E94C41EF801E052FC4F882319F0808192
:103F8000806402C080818F7B808380912E06C82F41
:103F9000D0E0C70186960E94C41EC650DC4F8883BD
:103FA00080912E06C82FD0E0C70188960E94C41EBB
:103FB00090E00E94721EC450DC4F888300912E0650
:103FC00010E0C7018A960E94C41EF801E052FC4F1F
:103FD000882319F08081806802C080818F77808378
:103FE00080912E06C82FD0E0C7018C960E94C41E77
:103FF000C250DC4F888380912E06C82FD0E0C701C5
:104000008E960E94C41E90E00E94721EC050DC4F2B
:10401000888300912E0610E0C701C0960E94C41E3E
:10402000F801EE51FC4F882319F08081816002C0B5
:1040300080818E7F808380912E06C82FD0E0C701BB
:10404000C2960E94C41ECA5FDB4F888380912E06F1
:10405000C82FD0E0C701C4960E94C41E90E00E9401
:10406000721EC85FDB4F888300912E0610E0C701E7
:10407000885B9F4F0E94C41EF801EE51FC4F8823BD
:1040800019F08081806102C080818F7E8083809161
:104090002E06C82FD0E0C701865B9F4F0E94C41E2A
:1040A000C25FDB4F888380912E06C82FD0E0C70106
:1040B000845B9F4F0E94C41E90E00E94721EC05FEE
:1040C000DB4F888300912E0610E0C7018E5B9F4F67
:1040D0000E94C41EF801EE51FC4F882319F0808124
:1040E000886002C08081877F808380912E06C82FE0
:1040F000D0E0C7018C5B9F4F0E94C41EC65FDB4FA0
:10410000888380912E06C82FD0E0C7018A5B9F4F1D
:104110000E94C41E90E00E94721EC45FDB4F888321
:1041200000912E0610E0C701805B9F4F0E94C41EC5
:10413000F801EE51FC4F882319F08081806202C0A3
:1041400080818F7D808380912E06C82FD0E0C701AB
:104150008E5A9F4F0E94C41ECE5EDB4F8883809193
:104160002E06C82FD0E0C7018C5A9F4F0E94C41E54
:1041700090E00E94721ECC5EDB4F888300912E0679
:1041800010E0C7018A5A9F4F0E94C41EF801EE51E9
:10419000FC4F882319F08081806402C080818F7B6E
:1041A000808380912E06C82FD0E0C701885A9F4F88
:1041B0000E94C41ECA5EDB4F888380912E06C82FE2
:1041C000D0E0C701865A9F4F0E94C41E90E00E9413
:1041D000721EC85EDB4F888300912E0610E0C70177
:1041E00082569F4F0E94C41EF801EE51FC4F882357
:1041F00019F08081806802C080818F7780838091F0
:104200002E06C82FD0E0C70180569F4F0E94C41EC3
:10421000C65EDB4F888380912E06C82FD0E0C70191
:104220008E559F4F0E94C41E90E00E94721EC45E75
:10423000DB4F888300912E0610E0C7018E599F4FF7
:104240000E94C41EF801EC51FC4F882319F08081B4
:10425000816002C080818E7F808380912E06C82F6E
:10426000D0E0C7018C599F4F0E94C41EC25EDB4F35
:10427000888380912E06C82FD0E0C7018A599F4FAE
:104280000E94C41E90E00E94721EC05EDB4F8883B5
:1042900000912E0610E0C70182599F4F0E94C41E54
:1042A000F801EC51FC4F882319F08081846002C032
:1042B00080818B7F808380912E06C82FD0E0C7013C
:1042C00080599F4F0E94C41ECE5DDB4F8883809132
:1042D0002E06C82FD0E0C7018E589F4F0E94C41EE3
:1042E00090E00E94721ECC5DDB4F888300912E0609
:1042F00010E0C70184579F4F0E94C41EF801EC5183
:10430000FC4F882319F08081806802C080818F77FC
:10431000808380912E06C82FD0E0C70182579F4F1F
:104320000E94C41ECA5DDB4F888380912E06C82F71
:10433000D0E0C70180579F4F0E94C41E90E00E94AA
:10434000721EC85DDB4F888300912E0610E0C70106
:104350008E569F4F0E94C41EF801EC51FC4F8823DB
:1043600019F08081826002C080818D7F808380917E
:104370002E06C82FD0E0C7018C569F4F0E94C41E46
:10438000C25DDB4F888380912E06C82FD0E0C70125
:104390008A569F4F0E94C41E90E00E94721EC05D0C
:1043A000DB4F888300912E0610E0C7018C589F4F89
:1043B0000E94C41EF801EC51FC4F882319F0808143
:1043C000886002C08081877F808380912E06C82FFD
:1043D000D0E0C7018A589F4F0E94C41EC65DDB4FC4
:1043E000888380912E06C82FD0E0C70188589F4F40
:1043F0000E94C41E90E00E94721EC45DDB4F888341
:1044000000912E0610E0C70186589F4F0E94C41EDF
:10441000F801EC51FC4F882319F08081806102C0C3
:1044200080818F7E808380912E06C82FD0E0C701C7
:1044300084589F4F0E94C41ECE5CDB4F88838091BE
:104440002E06C82FD0E0C70182589F4F0E94C41E7D
:1044500090E00E94721ECC5CDB4F888300912E0698
:1044600010E0C70180589F4F0E94C41EF801EC5114
:10447000FC4F882319F08081806202C080818F7D8B
:10448000808380912E06C82FD0E0C7018E579F4FA2
:104490000E94C41ECA5CDB4F888380912E06C82F01
:1044A000D0E0C7018C579F4F0E94C41E90E00E942D
:1044B000721EC85CDB4F888300912E0610E0C70196
:1044C0008A579F4F0E94C41EF801EC51FC4F88236D
:1044D00019F08081806402C080818F7B808380910D
:1044E0002E06C82FD0E0C70188579F4F0E94C41ED8
:1044F000C65CDB4F888380912E06C82FD0E0C701B1
:1045000086579F4F0E94C41E90E00E94721EC45C9A
:10451000DB4F888300912E0610E0C7018C559F4F1A
:104520000E94C41EF801EA51FC4F882319F08081D3
:10453000816002C080818E7F808380912E06C82F8B
:10454000D0E0C7018A559F4F0E94C41EC25CDB4F5A
:10455000888380912E06C82FD0E0C70188559F4FD1
:104560000E94C41E90E00E94721EC05CDB4F8883D4
:1045700000912E0610E0C7018A549F4F0E94C41E6E
:10458000F801EA51FC4F882319F08081886002C04D
:104590008081877F808380912E06C82FD0E0C7015D
:1045A00088549F4F0E94C41ECE5BDB4F888380914E
:1045B0002E06C82FD0E0C70186549F4F0E94C41E0C
:1045C00090E00E94721ECC5BDB4F888300912E0628
:1045D00010E0C701845A9F4F0E94C41EF801EA519F
:1045E000FC4F882319F08081806402C080818F7B1A
:1045F000808380912E06C82FD0E0C701825A9F4F3A
:104600000E94C41ECA5BDB4F888380912E06C82F90
:10461000D0E0C701805A9F4F0E94C41E90E00E94C4
:10462000721EC85BDB4F888300912E0610E0C70125
:1046300080529F4F0E94C41EF801E851FC4F88230E
:1046400019F08081846002C080818B7F808380919B
:104650002E06C82FD0E0C7018E519F4F0E94C41E66
:10466000C65BDB4F888380912E06C82FD0E0C70140
:104670008C519F4F0E94C41E90E00E94721EC45B2A
:10468000DB4F888300912E0610E0C7018C529F4FAC
:104690000E94C41EF801E851FC4F882319F0808164
:1046A000826002C080818D7F808380912E06C82F1A
:1046B000D0E0C7018A529F4F0E94C41EC25BDB4FED
:1046C000888380912E06C82FD0E0C70188529F4F63
:1046D0000E94C41E90E00E94721EC05BDB4F888364
:1046E000DF91CF911F910F91FF90EF9008954F921E
:1046F0005F927F928F929F92AF92BF92CF92DF9202
:10470000EF92FF920F931F93DF93CF93CDB7DEB756
:10471000C854D0400FB6F894DEBF0FBECDBF0FE631
:1047200014E0C8010E942E05C80166E049E00E941D
:10473000E40400D000D0EDB7FEB71283018383E11B
:1047400093E0948383830E94622C0F900F900F90CC
:104750000F90C8010E94980400D000D002E514E038
:10476000EDB7FEB71283018383E093E094838383E4
:104770000E94622C38EF432E32E0532EEE24FF24A9
:10478000CC24DD240F900F900F900F90702E012FEE
:1047900029E0A22EB12CAC0EBD1E4E010894811C46
:1047A000911C82E594E00E94162D982F8D3031F0F7
:1047B0008D30DCF180538230C0F530C01830A1F567
:1047C0009981892F8053823078F5913311F490E8E4
:1047D00001C090E08A81813309F4905C8B81813340
:1047E00009F4905E8C81813309F4905F8D8181336F
:1047F00009F4985F8E81813309F49C5F8F81813346
:1048000009F49E5F8885813309F49F5FF501EE0D01
:10481000FF1D90830894E11CF11C06C0F401E10F18
:10482000F11D90831F5F01C010E0F0E4EF16F1046A
:10483000C9F48FE694E0B601A5010E941104089422
:10484000C11CD11C00D000D0EDB7FEB7718202832D
:10485000548243820E94622CEE24FF240F900F901A
:104860000F900F90FFEFCF16D10409F00CF499CF01
:10487000C85BDF4F0FB6F894DEBF0FBECDBFCF9140
:10488000DF911F910F91FF90EF90DF90CF90BF903D
:10489000AF909F908F907F905F904F9008956F9210
:1048A0007F928F929F92AF92BF92CF92DF92EF92C0
:1048B000FF920F931F93DF93CF9300D000D000D0CF
:1048C000CDB7DEB753E0652E712C6C0E7D1E25C46E
:1048D0000E94B43460527E4480409040C8F40E94EC
:1048E000B434695873418040904090F01A3011F010
:1048F0001D3031F48091E4058F5F8093E40502C0A0
:104900001092E4058091E405833011F40E9477232E
:10491000812F6AED74E00E946A06882309F4FDC3C2
:104920008091DE049091DF04A091E004B091E10455
:104930008A3BE7EC9E07E1E2AE07E4E7BE0709F435
:104940007DC08B3BF7EC9F07F1E2AF07F4E7BF07B1
:1049500008F03AC08E3729EA92072BE5A20726E233
:10496000B20709F4EBC08F37E9EA9E07EBE5AE0723
:10497000E6E2BE0780F48C39F1EB9F07F5EAAF075A
:10498000FEE1BF0709F47FC388529E45A24DB442A1
:1049900009F0C3C3C6C0863AEEE09E07E2E1AE0767
:1049A000E8E4BE0709F40AC38835F6EB9F07FDEF7C
:1049B000AF07FAE4BF0709F440C382559342A64902
:1049C000B64209F0AAC395C18639E3EB9E07E3ED31
:1049D000AE07ECEBBE0709F462C38739F3EB9F0720
:1049E000F3EDAF07FCEBBF0780F4863423E09207BA
:1049F00022ECA20725E8B20709F46EC38E5F964B3E
:104A0000A942B54A09F089C3CDC08638FBE39F07A8
:104A1000F0EAAF07F4ECBF0709F42CC388322FE9A2
:104A2000920720E0A20727ECB20709F468C38C566E
:104A30009846A344B24C09F070C34BC10E94B434F1
:104A4000609382047093830480938404909385041C
:104A500083E0809381048AED94E060E170E00E943D
:104A6000B3070E94583770938704609386048AEDD9
:104A700094E064E170E00E94B3070E94583770939D
:104A80008904609388048AED94E068E170E00E94F4
:104A9000B3070E9458378B0170938B0460938A048C
:104AA00060918C0470918D0480918E0490918F049C
:104AB00020E030E040E050E00E94E936882331F009
:104AC000809194048150833008F06DC3B801882729
:104AD00077FD8095982F0E948B377B018C01609326
:104AE000900470939104809392049093930420E037
:104AF00030E040E050E00E94E93688230CF053C3D8
:104B0000C801B70120E030E044EB53E40E942336B3
:104B10006093900470939104809392049093930413
:104B200042C38091E404809395048091E6048093CD
:104B300096048091E50480939704EFC28AED94E097
:104B400060E070E00E94B30720E030E048EC52E4FF
:104B50000E94BE380E94583770939904609398045D
:104B6000693C710520F0109299041092980480918C
:104B7000FE049091FF0490939B0480939A0480918B
:104B800000059091010590939D0480939C04809171
:104B90000A0590910B059A83898390935C03809317
:104BA0005B03BBC26091E4047091E5048091E6046C
:104BB0009091E7040E948B3720E836E948E15BE4F6
:104BC0000E94F03660938C0470938D0480938E0461
:104BD00090938F046091E8047091E9048091EA0455
:104BE0009091EB04D3016C9311967C9311971296DC
:104BF0008C93129713969C930E948B3720E836E98A
:104C000048E15BE40E94F03660939E0470939F0439
:104C10008093A0049093A104809109058093A2043D
:104C2000809108058093A30480919404815083307F
:104C300028F560918A0470918B04882777FD809510
:104C4000982F0E948B377B018C01609390047093A6
:104C50009104809392049093930420E030E040E02C
:104C600050E00E94E9368823BCF4C801B70120E077
:104C700030E044EB53E40E94233606C08AED94E012
:104C800060E170E00E94B307609390047093910418
:104C900080939204909393048AED94E068E070E02E
:104CA0000E94B3076093A4047093A5048093A604A4
:104CB0009093A7048AED94E064E170E00E94B3074A
:104CC0006093A8047093A9048093AA049093AB0402
:104CD00024C28AED94E068E070E00E94B307905827
:104CE0006093AC047093AD048093AE049093AF04D2
:104CF00014C28AED94E060E070E00E94B307609314
:104D0000B0047093B1048093B2049093B3048AED1D
:104D100094E064E070E00E94B30720E030E048ECEB
:104D200052E40E94BE380E9458377093B5046093D5
:104D3000B4048AED94E064E170E00E94B3070E943D
:104D400058377093B7046093B604A090B004B09045
:104D5000B104C090B204D090B30480905D039090F1
:104D60005E034EE9E42E43E0F42E06E010E0C601B7
:104D7000B501F70120813181428153810E94B3380E
:104D8000181644F4081519052CF010935E030093CF
:104D90005D0309C0015010408CEF9FEFE80EF91E33
:104DA0000130110521F760915D0370915E03882742
:104DB00077FD8095982F0E948B379B01AC01C6012F
:104DC000B5010E94F0362CEF39EA4DE550E40E941F
:104DD000223627E834E149E053E40E94BE387B01E3
:104DE0008C0120E030E040E050E00E94E93688236A
:104DF0005CF40F2EF0E0EF2EF0E0FF2EF0E00F2F2E
:104E0000F0E01F2FF02D14C0C801B70120E030E002
:104E100046EC52E40E94B338181654F40F2EF0E01A
:104E2000EF2EF0E0FF2EF6EC0F2FF2E41F2FF02D07
:104E3000C801B7010E945D37E62FF0E0EA52FF4F4C
:104E4000649170E080E090E00E9489377B018C01E2
:104E5000A0905F03B0906003C0906103D0906203A4
:104E6000C601B50120E030E040E85FEB0E94E93682
:104E7000882349F4E0925F03F0926003009361039A
:104E80001093620339C0C801B701A60195010E94C1
:104E9000E93618168CF0C801B7012DEC3CEC4CE457
:104EA0005DE30E94BE387B018C01C601B50123E39E
:104EB00033E343E75FE310C0C801B7012AE939E9EA
:104EC00049E95EE30E94BE387B018C01C601B50151
:104ED00023E333E343E35FE30E94BE389B01AC016D
:104EE000C801B7010E94233660935F03709360038B
:104EF00080936103909362036091B6047091B7044C
:104F000080E090E00E9489377B018C01609163030F
:104F100070916403882777FD8095982F0E948B37C6
:104F20009B01AC01C801B7010E94F0369B01AC01A6
:104F300060E070E080E89FE30E94223620E030E0ED
:104F400048EC52E40E94BE38609365037093660398
:104F5000809367039093680320E030E046EC52E4CE
:104F60000E94B338181664F480E090E0A6ECB2E436
:104F70008093650390936603A0936703B0936803DF
:104F80006091650370916603809167039091680357
:104F900020E030E040E050E00E94E93688230CF049
:104FA000BCC080E090E0A0E0B0E080936503909307
:104FB0006603A0936703B0936803AFC08AED94E0E3
:104FC00060E070E00E94B3070E945837882777FDA1
:104FD0008095982F0E948B377B018C016093B804D9
:104FE0007093B9048093BA049093BB0460916903F1
:104FF00070916A0380916B0390916C0320E03CE315
:105000004CE156EC0E94E936882341F4E0926903B2
:10501000F0926A0300936B0310936C038AED94E0A3
:1050200064E070E00E94B3076093BC047093BD0419
:105030008093BE049093BF0470C08AED94E060E05A
:1050400070E00E94B3076093C0047093C104809322
:10505000C2049093C3048AED94E064E070E00E947F
:10506000B3076093C4047093C5048093C6049093FF
:10507000C70453C080913E058093C8048091F20418
:105080008093C9044AC08091E4049091E5049A8316
:10509000898301969093CB048093CA043EC08AED25
:1050A00094E06CE070E00E94B3076093CC047093CE
:1050B000CD048093CE049093CF048AED94E060E118
:1050C00070E00E94B3076093D0047093D104809382
:1050D000D2049093D30421C02091EE042093D404F1
:1050E0009091F3049093D5048091F10480939404FB
:1050F000913009F058C0213009F055C00EC08AED3A
:1051000094E060E070E00E94B3076093D60470936F
:10511000D7048093D8049093D90482E594E00E9448
:10512000E62C1816190634F582E594E00E94162D37
:10513000182F80918104882309F0EACBC9CB109203
:105140008104DD24D3948D2D90E026960FB6F8943B
:10515000DEBF0FBECDBFCF91DF911F910F91FF90AA
:10516000EF90DF90CF90BF90AF909F908F907F9007
:105170006F900895DD24E0908204F0908304009104
:1051800084041091850480E197E2A0E0B0E0E80E8D
:10519000F91E0A1F1B1F0E94B434E616F706080703
:1051A000190768F2D0CFDD24D394E5CF86E061E023
:1051B0000E949535089586E061E00E94563582E5AB
:1051C00094E040E051EE60E070E00E94842C0E9488
:1051D000D6288FE694E00E946D050E946B1E68EE53
:1051E00073E080E090E00E94C2340E94871E10921B
:1051F0002E0607C00E94CA1E80912E068F5F8093E4
:105200002E0680912E068230A8F310922E0682E59B
:1052100094E00E94632D68EB7BE080E090E00E94C8
:10522000C2348FE694E00E942E050E94B43460934D
:105230004706709348068093490690934A0608955E
:105240002F923F924F925F926F927F928F929F9296
:10525000AF92BF92CF92DF92EF92FF920F931F9384
:10526000DF93CF9300D000D0CDB7DEB78091260674
:10527000882309F438C2E0903606F0903706009192
:10528000380610913906C801B7019F7725E33AEF38
:105290004EE85CE30E94BE380E94ED3669837A8353
:1052A0008B839C83C801B70120918C0430918D04BD
:1052B00040918E0450918F040E9422369F7720ECFB
:1052C0003BE649ED57E40E94BE385B016C016091FA
:1052D0003A0670913B0680913C0690913D062091E4
:1052E0009E0430919F044091A0045091A1040E941B
:1052F00022369F7720EC3BE649ED57E40E94BE380A
:1053000029813A814B815C810E94BE387B018C01EE
:10531000C601B501A60195010E94BE385B016C0172
:10532000C801B701A80197010E94BE389B01AC01DA
:10533000C601B5010E9423360E9445390E945837A4
:105340006093E8057093E9058093EA059093EB0577
:105350008091420690914306892B09F4E9C060913F
:10536000F0057091F10580E090E00E9489372DEC06
:105370003CEC4CE45FE30E94BE383B014C01609181
:10538000630370916403882777FD8095982F0E94AE
:105390008B372DEC3CEC4CE45FE30E94BE387B0184
:1053A0008C016091B6047091B70480E090E00E9497
:1053B00089379B01AC01C801B7010E9422365B010D
:1053C0006C010E94B4347B018C01609142067091A3
:1053D000430680E090E00E9489371B012C018091F8
:1053E0003E0690913F06A0914006B0914106E81A12
:1053F000F90A0A0B1B0BC801B7010E948937A201E9
:1054000091010E94F0369B01AC01C601B5010E94DA
:10541000BE3820E030E04AE754E40E94F0362DEC3C
:105420003CEC4CE45EE30E94BE389B01AC01C4013D
:10543000B3010E9423360E9458377093F1056093A0
:10544000F0056091B6047091B70480E090E00E948E
:1054500089375B016C016091630370916403882755
:1054600077FD8095982F0E948B372DEC3CEC4CE417
:105470005FE30E94BE387B018C01C601B501A80123
:1054800097010E94B338181624F41092F105109277
:10549000F0058091F0059091F1058057974130F02B
:1054A0008FE697E19093F1058093F005C801B7016D
:1054B000A60195010E9422367B018C016091FF05B7
:1054C000709100068091010690910206A20191015F
:1054D0000E94F0369B01AC01C801B7010E94BE38A2
:1054E0007B018C016091E8057091E9058091EA05E6
:1054F0009091EB050E948B379B01AC01C801B7016D
:105500000E94223620E030E040E05FE30E94BE3897
:105510000E9458377093150660931406615F784DAA
:105520007CF481EF98ED909315068093140608C0E3
:105530001092F1051092F0051092150610921406C3
:105540006091A4047091A5048091A6049091A70491
:1055500020910B0630910C0640910D0650910E06DD
:105560000E9422365B016C012091E8053091E9052B
:105570004091EA055091EB05CA01B9010E94E43956
:105580000E948B377B018C01C601B501A6019501F4
:105590000E94BE389B01AC01C801B7010E942336AE
:1055A0000E9445390E945837609310067093110687
:1055B0008093120690931306609136067091370619
:1055C000809138069091390620918C0430918D0499
:1055D00040918E0450918F040E9422367B018C01F1
:1055E00060E070E080E89FE329813A814B815C8133
:1055F0000E94F0369B01AC01C801B7010E94BE3881
:105600007B018C0160913A0670913B0680913C06CB
:1056100090913D0620919E0430919F044091A004FA
:105620005091A1040E9422369B01AC015058C80140
:10563000B7010E94963620EE3EE245E652E40E9413
:10564000BE3820E030E044EB52E40E9423360E9452
:1056500058379B01AC0197FF04C028593E4F4F4F6C
:105660005F4FCA01B901645B70408040904097FF72
:1056700006C0CA01B9016C547F4F8F4F9F4F0E94E3
:105680008B37209190043091910440919204509175
:1056900093040E9422360E94583797FF04C068592D
:1056A0007E4F8F4F9F4F0E948B3720E030E044EBBE
:1056B00053E40E94F03620E030E040E851E40E94DC
:1056C000BE380E94213920E030E040E85FE30E94CC
:1056D00023360E945D3760930F06613108F47CC069
:1056E00010920F0679C08091A304823008F474C030
:1056F0008091A204853008F46FC0D0904B06FDE184
:10570000FD1508F469C0E090A404F090A504009190
:10571000A6041091A70460914C0670914D068091EB
:105720004E0690914F06A80197010E9422369F775E
:1057300020E030E040E05FE30E94B33818165CF4EC
:1057400010924B06E0924C06F0924D0600934E06E6
:1057500010934F0641C08D2D8F5F80934B068E3185
:10576000D9F580918C0490918D04A0918E04B09114
:105770008F048093360690933706A0933806B09333
:10578000390680919E0490919F04A091A004B0914D
:10579000A10480933A0690933B06A0933C06B093F5
:1057A0003D06E0920B06F0920C0600930D06109356
:1057B0000E068091B8049091B904A091BA04B091FA
:1057C000BB048093690390936A03A0936B03B09327
:1057D0006C0381E0809326060F900F900F900F903E
:1057E000CF91DF911F910F91FF90EF90DF90CF90BD
:1057F000BF90AF909F908F907F906F905F904F90F1
:105800003F902F9008950E945F150E94CF078FE66A
:1058100094E00E9420290E94B61A0895EF92FF9208
:105820000F931F930E944F24892BB9F4E0904706F1
:10583000F09048060091490610914A0684E690E0EF
:10584000A0E0B0E0E80EF91E0A1F1B1F0E94B4344E
:10585000E616F7060807190760F40E94B43460934F
:105860004706709348068093490690934A060E9423
:10587000032C1F910F91FF90EF9008956EBD0DB412
:1058800007FEFDCF8EB508958DE061E00E9456358C
:105890008BE061E00E9456358CE060E00E94563556
:1058A0008AE061E00E9456351CBC80E58CBD8DB558
:1058B0008EB5089584E596E00E94442C08958FEFFC
:1058C0009FE70895DF93CF93CDB7DEB7FE013996FA
:1058D0008D819E8161E04F8158859F010E94032F39
:1058E000CF91DF910895DF93CF93CDB7DEB7FE015F
:1058F00039968D819E8160E04F8158859F010E947D
:10590000032FCF91DF9108950F931F93DC01ED9149
:10591000FC910288F389E02D20E030E000E010E007
:1059200009951F910F9108958F92AF92CF92EF92A8
:10593000FF920F931F93DF93CF93CDB7DEB7FC0198
:105940001382128288EE93E0A0E0B0E08483958316
:10595000A683B7838AEC93E091838083558744873D
:1059600037872687118B008BF38AE28AC48AA58A3F
:10597000868A70E0CB0123E0880F991F2A95E1F712
:105980009C012B5A394F308F278B835A994F928F16
:10599000818F81E090E002C0880F991F6A95E2F73D
:1059A00020916506282B20936506CF0140E051EE3B
:1059B00060E070E00E94842CCF91DF911F910F91E5
:1059C000FF90EF90CF90AF908F900895FC01838D62
:1059D000882319F42FEF3FEF0DC00788F08DE02DDD
:1059E0002081318182819381281B390B84819581AB
:1059F00028233923C9010895FC01838D882319F4D4
:105A00002FEF3FEF11C0018CF28DE02D208131810D
:105A100082819381281B390B209530958481958153
:105A2000282339232F5F3F4FC9010895FC01838D3F
:105A3000882361F0A789B08D2D913C911197129622
:105A40008D919C9113972817390721F44FEF5FEF41
:105A5000CA01089512968D919C9113971696ED9117
:105A6000FC911797E80FF91F408112968D919C9138
:105A70001397019614962D913C91159782239323A9
:105A800013969C938E93129750E0E2CFFC01838D86
:105A9000882351F00788F08DE02D208131818281AB
:105AA00093812817390721F42FEF3FEFC90108959B
:105AB000828193810680F781E02DE80FF91F8081B4
:105AC000282F30E0F3CFDC015796ED91FC915897E9
:105AD00082819381918380835996ED91FC915A97AD
