:100000000C949F020C94C7020C94C7020C94C70274
:100010000C94C7020C94C7020C94C7020C94C7023C
:100020000C94C7020C94C7020C94C7020C94C7022C
:100030000C94C7020C94C7020C94C7020C94C7021C
:100040000C9440320C94C7020C940D060C94490693
:100050000C94C7020C94C7020C94C7020C94C702FC
:100060000C94C7020C94C702084AD73B3BCE016EE2
:1000700084BCBFFDC12F3D6C74319ABD56833DDAFF
:100080003D00C77F11BED9E4BB4C3E916BAAAABE0E
:10009000000000803F05A84CCDB2D44EB93836A937
:1000A000020C50B9918688083CA6AAAA2ABE000074
:1000B00000803F0664EC1B3C04BC163E3BE5B93CAB
:1000C000C93C37C29E5A3D660498083EEA69AAAA0E
:1000D0003E000000803F00070E091C1B1215383F30
:1000E000363124232A2D70777E796C6B6265484FF8
:1000F000464154535A5DE0E7EEE9FCFBF2F5D8DFE8
:10010000D6D1C4C3CACD90979E998C8B8285A8AF57
:10011000A6A1B4B3BABDC7C0C9CEDBDCD5D2FFF847
:10012000F1F6E3E4EDEAB7B0B9BEABACA5A28F88B7
:10013000818693949D9A2720292E3B3C35321F18A7
:10014000111603040D0A5750595E4B4C45426F6817
:10015000616673747D7A898E878095929B9CB1B617
:10016000BFB8ADAAA3A4F9FEF7F0E5E2EBECC1C677
:10017000CFC8DDDAD3D4696E676075727B7C515667
:100180005F584D4A4344191E171005020B0C2126D7
:100190002F283D3A33344E49404752555C5B7671C7
:1001A000787F6A6D64633E39303722252C2B060137
:1001B000080F1A1D1413AEA9A0A7B2B5BCBB969127
:1001C000989F8A8D8483DED9D0D7C2C5CCCBE6E197
:1001D000E8EFFAFDF4F32020BF0020BF00BF007C51
:1001E000202020202020202020202020202020200F
:1001F00020202000C8202020202020202020202077
:1002000020C900C8202020202020202020202020BD
:10021000C97C00D820202020202020202020202041
:10022000D97C00C820202020202020202020202031
:10023000C97C00C820202020202020202020202031
:10024000C97C006D696E6F706F7364206A646C2086
:10025000322E353300626F6F74696E672075703AA5
:10026000EDF2F2F2F2F2F2F2F30063616C696272A3
:100270006174657C7C6D6561737572656420616D08
:10028000703A20200063616C6962726174657C7CE5
:100290006D6561737572656420616D703A20200030
:1002A00063616C6962726174657C7C6D6561737594
:1002B00072656420766F6C743A20006C69706F20F0
:1002C000626174742063656C6C7C7C7761726E69AA
:1002D0006E67206C6576656C3A2000736574757086
:1002E0002073637265656E7C7C7C0043686172205C
:1002F000446F6E650A00526561647920666F7220F2
:10030000466F6E740A00757064617465206368617D
:10031000727365740000000000000000000000001F
:100320000000010A0F1315191D2021232527292B51
:100330002D2F3031333537393A3C3E404243444427
:1003400045464748494A4B4D4E4F505051525253E3
:1003500054555658595A5B5B5C5D5D5E5E5E5F5FEF
:100360005F60606061616162626263636363636373
:100370006363636363636363630000000000000002
:10038000000000000002070A0C0D0E1012141516D2
:1003900017191A1B1E2126282A2B2D2F31333437EB
:1003A000393C3D3E3F4041424446494A4B4C4D4E0C
:1003B0004F4F505151525253545455555657585906
:1003C0005A5B5C5C5D5D5E5F5F5F6060606060614A
:1003D0006161616161626262626262626300407A6D
:1003E00010F35A00A0724E18090010A5D4E80000BE
:1003F000E87648170000E40B54020000CA9A3B005C
:100400000000E1F505000080969800000040420FD2
:10041000000000A08601000000102700000000E896
:1004200003000000006400000000000A000000005B
:10043000000100000000002C76D888DC674F0823FC
:10044000DFC1DFAE59E1B1B796E5E3E453C63AE662
:1004500051997696E8E6C28426EB898C9B62ED4042
:100460007C6FFCEFBC9C9F40F2BAA56FA5F4900591
:100470005A2AF75C936B6CF9676DC11BFCE0E40DC5
:1004800047FEF520E6B500D0ED902E0300943577B9
:10049000050080841E080000204E0A000000C80CE1
:1004A000333333330F986E12831141EF8D2114894A
:1004B0003BE65516CFFEE6DB18D1844B381BF77CA4
:1004C0001D901DA4BBE424203284725E228100C9E9
:1004D000F124ECA1E53D276E616E00696E660000B7
:1004E000000000240027002A00000000002500284A
:1004F000002B000000000023002600290004040453
:1005000004040404040202020202020303030303BC
:100510000301020408102040800102040810200199
:10052000020408102000000007000201000003047C
:1005300006000000000000000000B9072E2A112468
:100540001FBECFEFD8E0DEBFCDBF13E0A0E0B1E02B
:10055000E0EDF0E702C005900D92A43AB107D9F79B
:1005600016E0A4EAB3E001C01D92A332B107E1F79F
:1005700015E0CEE3D5E004C02297FE010E94623868
:10058000CA33D107C9F70E94E2330C9466380C9441
:100590000000283008F027E03327DA01990F311DD9
:1005A00087FD916000966105710539F432602E5F18
:1005B0003D9330E32A95E1F708959F3F30F080386E
:1005C0007105610509F03C5F3C5F3D93913008F097
:1005D0008068911DDF93CF931F930F93FF92EF924B
:1005E000192F987F9695E92F96959695E90FFF27F5
:1005F000E95CFB4F99273327EE24FF24A701E7018D
:1006000005900894079428F4360FE71EF81E491F3A
:10061000511D660F771F881F991F0694A1F705903B
:10062000079428F4E70EF81E491F561FC11D770FC7
:10063000881F991F661F0694A1F70590079428F458
:10064000F80E491F561FC71FD11D880F991F661F1F
:10065000771F0694A1F70590079420F4490F561FC1
:10066000C71FD81F990F661F771F881F0694A9F709
:1006700084911095177041F0D695C7955795479579
:10068000F794E7941A95C1F7EDEDF3E068941590AF
:10069000159135916591959105907FE27395E118DB
:1006A000F10A430B560BC90BD009C0F7E10CF11E40
:1006B000431F561FC91FD01D7EF4703311F48A9555
:1006C000E6CFE894015030F0080F0AF40027021733
:1006D00008F4202F2395022F7A3328F079E37D93B5
:1006E0002A95E9F710C07D932A9589F60694979587
:1006F0006795379517951794E118F10A430B560B38
:10070000C90BD00998F023957E9173957A3308F040
:1007100070E37C932013B8F77E9170617D9330F085
:10072000839571E37D9370E32A95E1F71124EF90AF
:10073000FF900F911F91CF91DF91992787FD9095A1
:100740000895FA01AA27283051F1203181F1E89467
:100750006F936E7F6E5F7F4F8F4F9F4FAF4FB1E0B4
:100760003ED0B4E03CD0670F781F891F9A1FA11DAF
:10077000680F791F8A1F911DA11D6A0F711D811DB0
:10078000911DA11D20D009F468943F912AE0269F75
:1007900011243019305D3193DEF6CF010895462FD4
:1007A0004770405D4193B3E00FD0C9F7F6CF462FB5
:1007B0004F70405D4A3318F0495D31FD405241931E
:1007C00002D0A9F7EACFB4E0A695979587957795DB
:1007D0006795BA95C9F700976105710508959B0162
:1007E000AC010A2E06945795479537952795BA95EB
:1007F000C9F7620F731F841F951FA01D0895FC0188
:100800000590615070400110D8F7809590958E0F3B
:100810009F1F0895FC016150704001900110D8F7AE
:10082000809590958E0F9F1F0895FC011382128270
:1008300088EE93E0A0E0B0E084839583A683B7833D
:1008400086E493E0918380830895FC01808980345D
:1008500019F421E030E002C020E030E0C901089541
:10086000FC01818990E0089580E090E0089580E0A7
:1008700090E0089580E090E008950895EF92FF924F
:100880001F93CF93DF93162F7A0186E060E00E94DA
:100890008E3383E096E060E00E94122A83E096E0C7
:1008A00060E00E94122A83E096E069E00E94122A2A
:1008B00083E096E0612F0E94122AC0E0D0E0F701A9
:1008C000EC0FFD1F108183E096E06AE00E94122A7F
:1008D00083E096E06C2F0E94122A83E096E06BE0A2
:1008E0000E94122A83E096E0612F0E94122A21962C
:1008F000C633D10521F783E096E068E00E94122A12
:1009000083E096E060EA0E94122A83E096E060EAC3
:100910000E94122A85FDF9CF83E096E060E00E94F4
:10092000122A83E096E06CE00E94122A86E061E0E1
:100930000E948E33DF91CF911F91FF90EF90089529
:100940001F93CF93DF93EC01162F86E060E00E94A7
:100950008E3383E096E060E00E94122A112319F0A2
:10096000113059F404C083E096E0688904C06889B6
:100970006C6183E096E00E94122A86E061E00E94AA
:100980008E33DF91CF911F910895EF92FF920F93D5
:100990001F937C0103E016E0C80167E00E94122A61
:1009A000C8016FEF0E94122A86E061E00E948E3338
:1009B000F70187858F5F87871F910F91FF90EF90D9
:1009C0000895EF92FF920F931F93FC01E7848EE14D
:1009D000E89E700111248685E80EF11C86E060E037
:1009E0000E948E3303E016E0C80164E00E94122AE0
:1009F000C80163E00E94122AC80165E00E94122A21
:100A0000C8016F2D0E94122AC80166E00E94122AB6
:100A1000C8016E2D0E94122A1F910F91FF90EF9036
:100A20000895FC0164874587668747870E94E10433
:100A300008951F93CF93DF93EC01162F6C3731F499
:100A40000E94C504CE010E94E1040AC083E096E042
:100A500067E00E94122A83E096E0612F0E94122A2A
:100A600081E090E0DF91CF911F910895EF92FF9286
:100A70000F931F938EE1489F70011124E60EF11C25
:100A800086E060E00E948E3303E016E0C80165E076
:100A90000E94122AC8016F2D0E94122AC80166E026
:100AA0000E94122AC8016E2D0E94122A1F910F91D6
:100AB000FF90EF9008950F931F9386E060E00E94EF
:100AC0008E3303E016E0C80164E00E94122AC801D8
:100AD00064E00E94122A61E070E080E090E00E94F1
:100AE000963286E061E00E948E331F910F91089547
:100AF0001F93CF93DF93EC01188A16E0198B85E1E1
:100B000096E060E973E00E94F830813049F480E4B7
:100B1000888B88E0898B86E060E00E948E3302C07B
:100B2000188A198B86E060E00E948E33DF91CF91A6
:100B30001F9108950F931F93CF93DF93EC0186E0ED
:100B400061E00E944F3382E060E00E944F3382E018
:100B500061E00E948E33CE010E94780586E060E05D
:100B60000E948E3383E096E06CEE0E94122A83E0AE
:100B700096E06FEF0E94122A182F83E096E060E063
:100B80000E94122A6889626083E096E00E94122A1D
:100B900062E370E080E090E00E94963283E096E0AD
:100BA0006CE60E94122A1F7E83E096E0612F0E946D
:100BB000122A8889803419F00DE010E002C000E1AB
:100BC00010E01092A5031092A40317C06091A40333
:100BD0007091A503605F83E096E00E94122A83E093
:100BE00096E069E00E94122A8091A4039091A503E7
:100BF00001969093A5038093A4038091A403909100
:100C0000A5038017910714F3CE0161E00E94A004B0
:100C1000DF91CF911F910F9108951F920F920FB600
:100C20000F9211242F933F934F938F939F93EF93A2
:100C3000FF934091C60020910406309105062F5F76
:100C40003F4F80910806909109062823392380910F
:100C50000606909107062817390779F08091040657
:100C600090910506E0910A06F0910B06E80FF91F36
:100C700040833093050620930406FF91EF919F91E6
:100C80008F914F913F912F910F900FBE0F901F901A
:100C900018951F920F920FB60F9211242F933F9326
:100CA0008F939F93EF93FF9320910E0630910F0641
:100CB00080910C0690910D0628173907E9F0809174
:100CC0000E0690910F06E0911206F0911306E80FC0
:100CD000F91F80818093C60080910E0690910F06C7
:100CE0000196209110063091110682239323909350
:100CF0000F0680930E0610C020910C0630910D0651
:100D000080910E0690910F062817390729F48091DB
:100D1000C1008F7D8093C100FF91EF919F918F91D2
:100D20003F912F910F900FBE0F901F901895CF936A
:100D3000DF93482FEB0180918705833009F45FC072
:100D4000843028F48130D1F0823068F50AC08530D3
:100D500009F4D4C0853008F4AAC0863009F0F4C084
:100D6000EBC04C3309F0F0C081E0809387054883E5
:100D7000E2E1F1E0E491E0938605E6C0842F90E0A3
:100D8000E0918605F0E0E827F927EA52FF4FE49169
:100D9000E0938605887F9070809741F582E080938C
:100DA0008705498329C0242F30E0E0918605F0E0D3
:100DB000E227F327EA52FF4FE491E0938605809102
:100DC00085058F5F80938505823018F43B832A83E5
:100DD000BBC0922F88272A813B81820F931F9B8360
:100DE0008A830A978F3F910521F018F010928705AA
:100DF000ABC083E08093870510928505A5C0E42FE2
:100E0000F0E08091860590E0E827F927EA52FF4F4D
:100E1000E491E0938605609185056F5F6093850599
:100E2000623089F0633020F4613009F08DC006C073
:100E3000633091F0643009F087C022C0842F90E0C5
:100E4000A0E0B0E018C0242F30E040E050E0542F84
:100E5000432F322F222707C0242F30E040E050E0FC
:100E6000A901332722278C819D81AE81BF81820F0A
:100E7000931FA41FB51F8C839D83AE83BF8364C063
:100E8000242F30E040E050E0522F44273327222720
:100E90008C819D81AE81BF81820F931FA41FB51FDE
:100EA0008C839D83AE83BF8360938705A5CF242F5A
:100EB00030E0E0918605F0E0E227F327EA52FF4FA9
:100EC000E491E0938605609185056F5F60938505E9
:100ED000613019F06230C1F503C03987288734C00A
:100EE000922F882728853985280F391F3987288729
:100EF0008A819B810A97F1F085E07CCFE42FF0E0B6
:100F00008091860590E0E827F927EA52FF4FE491A7
:100F1000E0938605209185052F5F2093850530E0BD
:100F2000FB01E20FF31F41878A819B810A972817F3
:100F3000390750F086E05ECFC75FDE4F4883C95067
:100F4000D14087E08093870580918705873069F4D9
:100F500010928705C75FDE4F909186058881C95042
:100F6000D140981711F48A8101C080E0DF91CF91C0
:100F700008958F92AF92CF92EF92FF920F931F93AB
:100F800080E194E060E045EC50E024EC30E000ECDF
:100F900010E0B1ECEB2EF12CCC24C394A8E9AA2EDE
:100FA000F0E28F2E0E94682A8DE294E00E941504E0
:100FB0001F910F91FF90EF90CF90AF908F90089579
:100FC00060914E0470914F048091500490915104AF
:100FD00020E030E040E152E40E94B73620E030E00B
:100FE00044EB53E40E94E9340E941A370E945135C1
:100FF0009B012550304037FF03C09B01215E3F4FCE
:10100000A7E9B5E0F901E859FC4F80818C932F5F87
:101010003F4F2432310514F020E030E0119685E096
:10102000A23AB80779F71C9208952F923F924F92F7
:101030005F926F927F928F929F92AF92BF92CF9268
:10104000DF92EF92FF920F931F93DF93CF9300D025
:1010500000D000D0CDB7DEB7182F662E2091440403
:10106000309145042A35310530F0C9018D549F4F28
:1010700089359105E8F437FF02C02D543F4FC9016F
:1010800037FF03C0909581959F4F8A3191053CF0C1
:1010900004E4802E912CB9ED2B2E312C1DC00A9723
:1010A0005CF1ABE38A2E912CF2ED2F2E312C20C077
:1010B0002B35310514F0235B3040C90137FF03C0E5
:1010C000909581959F4F8A31910554F0E6E58E2EDB
:1010D000912C7CED272E312C67E0A62EB12C15C06B
:1010E0000A9754F05DE4852E912C44ED242E312C8A
:1010F00038E0A32EB12C09C025E0822E912C98E374
:10110000292E312C89E0A82EB12C609146047091D3
:101110004704882777FD8095982F0E94843527EA19
:1011200032E94BE25CEB0E94B7360E948B3720E03D
:1011300030E040EA50E40E94B73620E030E040E979
:1011400051E40E94B7360E941A3720E030E044E3B1
:1011500052E40E941C340E945135712E0EEBC02EB9
:101160000FEFD02E9B01442737FD4095542F298344
:101170003A834B835C831DE2412E14E0512E4AEFEB
:101180005FEF240E351E609144047091450488275A
:1011900077FD8095982F0E94843525E33AEF4EE83D
:1011A0005CE30E94B7360E948B377B018C01B6014D
:1011B000882777FD8095982F0E9484359B01AC018C
:1011C000C801B7010E94B7367B018C0169817A8121
:1011D0008B819C810E9484359B01AC01C801B701C1
:1011E0000E941C340E9451359B01CB0101978A3526
:1011F000910508F071C062E170E00E94FC378B013C
:101200002F5F3F4FAEEEBFEF6A9FC0016B9F900D07
:101210007A9F900D1124820F931F62E070E00E946C
:10122000FC376D837E83E62CE01A4E2D4C5F8DE2F9
:1012300094E0672D0E94360500D000D000D0EDB7B5
:10124000FEB73196ADB7BEB712965C924E9211972B
:1012500020E031E0338322838D819E81880D991DAA
:10126000958384830E94472A4DB75EB74A5F5F4FDC
:101270000FB6F8945EBF0FBE4DBF8D819E818A155B
:101280009B0554F1043011053CF593E0E90EC201D1
:10129000672D4E2D0E94360500D000D000D0EDB74E
:1012A000FEB73196ADB7BEB712965C924E921197CB
:1012B00020E031E0338322834D815E81420D531D56
:1012C000558344830E94472A8DB79EB706960FB672
:1012D000F8949EBF0FBE8DBFACE0B0E0CA0EDB1E1F
:1012E0007394BEE4CB16D10409F04DCF26960FB609
:1012F000F894DEBF0FBECDBFCF91DF911F910F914C
:10130000FF90EF90DF90CF90BF90AF909F908F9025
:101310007F906F905F904F903F902F900895CF9265
:10132000DF92EF92FF920F931F93823010F402E04E
:1013300002C0082F000F6091880570918905809187
:101340008A0590918B050E9484356B017C0120E019
:1013500030E44CE156E40E94E234202F30E04DE2CC
:1013600054E0882334F58DB79EB70E970FB6F894E6
:101370009EBF0FBE8DBFEDB7FEB73196ADB7BEB7FE
:1013800012965C934E93119783E091E0938382834E
:1013900022573F4F358324832F5F3F4F3783268368
:1013A000C086D186E286F3868DE890E095878487B3
:1013B00034C08DB79EB70E970FB6F8949EBF0FBE80
:1013C0008DBF0DB71EB70F5F1F4FADB7BEB71296DB
:1013D0005C934E9311978FE091E0F80193838283A1
:1013E00022573F4F358324832F5F3F4F3783268318
:1013F000C701B60120E030E04AE754E40E94E93436
:10140000D80118966D937D938D939C931B978DEFC8
:1014100090E01D969C938E931C970E94472AEDB7EF
:10142000FEB73E960FB6F894FEBF0FBEEDBF1F91FC
:101430000F91FF90EF90DF90CF900895CF93DF93BF
:10144000AC01E0915804F091590420918C05309141
:101450008D05C9018C599F4F8E179F071CF4EA0117
:10146000219609C024563040E217F30714F0EA0130
:1014700002C0EA012197842F90E0C817D90729F00C
:1014800085E196E04C2F0E94FF30CE01DF91CF9195
:101490000895CF92DF92EF92FF920F931F93CF9315
:1014A000DF937C016B01EA0100D000D00DE214E073
:1014B000EDB7FEB7128301838FED91E094838383B0
:1014C0000E94362A0F900F900F900F90CA30D105CE
:1014D00081F0C436D10521F0C130D10519F512C013
:1014E00000D000D0EDB7FEB7128301838DED91E0FF
:1014F00011C000D000D0EDB7FEB7128301838AED92
:1015000091E008C000D000D0EDB7FEB71283018390
:1015100086ED91E0948383830E94362A0F900F908A
:101520000F900F90409158045091590420918C05D0
:1015300030918D05C9018C599F4F841795071CF474
:10154000CE0DDF1D0BC0245630404217530714F058
:10155000E70116C0C7018C1B9D0BEC01CE15DF0502
:1015600079F085E196E0B6014C2F0E94FF30089497
:10157000C11CD11C85E196E0B6014D2F0E94FF30C1
:10158000CE01DF91CF911F910F91FF90EF90DF90EF
:10159000CF900895CF92DF92EF92FF920F931F9317
:1015A0007C01D62EC72E0DE214E0C8016E2D4D2D04
:1015B0000E94110500D000D0EDB7FEB71283018361
:1015C00083E392E0948383830E94362AEDB7FEB7CB
:1015D0001283018383E292E0948383830E94362AFC
:1015E000EDB7FEB71283018383E192E09483838396
:1015F0000E94362AEDB7FEB71283018383E092E0A2
:10160000948383830E94362AEDB7FEB71283018349
:1016100084EF91E0948383830E94362A0F900F9089
:101620000F900F90C8010E94C504C70101966D2D4F
:101630007C2D0E9415081F910F91FF90EF90DF9075
:10164000CF9008950F931F93282F462F0DE214E09B
:10165000C801622F0E94110520918E0530918F05DF
:101660008DB79EB70C970FB6F8949EBF0FBE8DBF77
:10167000EDB7FEB73196ADB7BEB712961C930E9379
:1016800011978BE191E09383828383EB90E09583C4
:101690008483C9016CE370E00E94FC37CB016CE3EA
:1016A00070E00E94FC37978386838AE390E09187FD
:1016B0008087C9016CE370E00E94FC3793878287C2
:1016C0000E94472A8DB79EB70C960FB6F8949EBF1E
:1016D0000FBE8DBFC8010E94C5041F910F910895D0
:1016E0000F931F93282F462F0DE214E0C801622F9D
:1016F0000E9411058DB79EB70C970FB6F8949EBF48
:101700000FBE8DBFEDB7FEB73196ADB7BEB712961F
:101710001C930E93119787E291E09383828383EE6B
:1017200090E0958384838091720490917304A091DA
:101730007404B091750486839783A087B18780EB8A
:1017400090E0938782870E94472A8DB79EB70C96B8
:101750000FB6F8949EBF0FBE8DBFC8010E94C5048E
:101760001F910F9108950F931F93282F462F0DE27D
:1017700014E0C801622F0E9411058DB79EB70C9727
:101780000FB6F8949EBF0FBE8DBFEDB7FEB7319672
:10179000ADB7BEB712961C930E93119781E391E0FB
:1017A0009383828387EB90E09583848380912803E1
:1017B00090912903A0912A03B0912B0386839783EC
:1017C000A087B18785E290E0938782870E94472AAD
:1017D0008DB79EB70C960FB6F8949EBF0FBE8DBF07
:1017E000C8010E94C5041F910F910895EF92FF92C6
:1017F0000F931F93282F462F8DE2E82E84E0F82EBA
:10180000C701622F0E9411058DB79EB70C970FB6C6
:10181000F8949EBF0FBE8DBF0DB71EB70F5F1F4F51
:10182000EDB7FEB7F282E1828BE391E0F80193839A
:10183000828384EE90E0958384836091900570911B
:101840009105882777FD8095982F0E9484352AE09E
:1018500037ED43E25CE30E94B736F8016683778395
:10186000808791878FE890E0938782870E94472A3C
:101870008DB79EB70C960FB6F8949EBF0FBE8DBF66
:10188000C7010E94C5041F910F91FF90EF9008952A
:10189000CF92DF92EF92FF920F931F93CF93DF933C
:1018A000282F462F8DE294E0622F0E941105C090F0
:1018B0009205D0909305E0909405F0909505C09125
:1018C0002C03D0912D038091960590E0805D9E4F72
:1018D0008C9FB0018D9F700D9C9F700D11248827E7
:1018E00077FD8095982F0E94843520E030E048EC09
:1018F00052E40E94E9349B01AC01C701B6010E9489
:10190000E234181614F428EB01C024EB8DB79EB70F
:1019100040970FB6F8949EBF0FBE8DBFEDB7FEB7D0
:1019200031960DE214E0ADB7BEB712961C930E933C
:10193000119785E491E093838283D583C48380E803
:1019400090E097838683822F992787FD90959187D2
:101950008087C286D386E486F5868EE890E09787F6
:1019600086870E94472A8DB79EB740960FB6F89497
:101970009EBF0FBE8DBFC8010E94C504DF91CF91ED
:101980001F910F91FF90EF90DF90CF9008950F93EC
:101990001F93CF93DF93282F462F8DE294E0622F81
:1019A0000E94110580915504882319F4C3E5D1E004
:1019B00057C0813019F4C7E5D1E052C0823019F424
:1019C000CBE5D1E04DC0833019F4CFE5D1E048C07C
:1019D000843019F4C3E6D1E043C0853019F4C7E67A
:1019E000D1E03EC0863019F4CBE6D1E039C0873073
:1019F00019F4CFE6D1E034C0883019F4C3E7D1E060
:101A00002FC0893019F4C7E7D1E02AC08A3019F411
:101A1000CBE7D1E025C08B3019F4CFE7D1E020C06F
:101A20008C3019F4C3E8D1E01BC08D3019F4C7E83D
:101A3000D1E016C08E3019F4CBE8D1E011C08F3060
:101A400019F4CFE8D1E00CC0803119F4C3E9D1E03A
:101A500007C0813119F0C7E9D1E002C0C8E9D1E07F
:101A60008150863090F480915404882371F00E9454
:101A700088322CE231E040E050E00E940F3820FF35
:101A800002C024E003C020E201C020EE8DB79EB763
:101A900008970FB6F8949EBF0FBE8DBFEDB7FEB787
:101AA00031960DE214E0ADB7BEB712961C930E93BB
:101AB00011978CE991E093838283822F992787FD88
:101AC000909595838483D783C6830E94472A8DB7D8
:101AD0009EB708960FB6F8949EBF0FBE8DBFC80183
:101AE0000E94C504DF91CF911F910F9108950F932C
:101AF0001F93282F462F0DE214E0C801622F0E9489
:101B000011058DB79EB70A970FB6F8949EBF0FBE0A
:101B10008DBFEDB7FEB73196ADB7BEB712961C9329
:101B20000E93119781EA91E09383828387E890E096
:101B3000958384838091560490915704978386837C
:101B400085E290E0918780870E94472A8DB79EB7F3
:101B50000A960FB6F8949EBF0FBE8DBFC8010E94B3
:101B6000C5041F910F9108950F931F93282F462F9F
:101B70000DE214E0C801622F0E9411058DB79EB7D7
:101B800008970FB6F8949EBF0FBE8DBFEDB7FEB796
:101B90003196ADB7BEB712961C930E9311978BEA90
:101BA00091E09383828380914604909147049583CA
:101BB000848381EB90E0978386830E94472A8DB7C8
:101BC0009EB708960FB6F8949EBF0FBE8DBFC80192
:101BD0000E94C5041F910F9108950F931F93282F02
:101BE000462F0DE214E0C801622F0E9411058DB747
:101BF0009EB708970FB6F8949EBF0FBE8DBFEDB786
:101C0000FEB73196ADB7BEB712961C930E931197DF
:101C10008BEA91E093838283809144049091450400
:101C20009583848382EB90E0978386830E94472A82
:101C30008DB79EB708960FB6F8949EBF0FBE8DBFA6
:101C4000C8010E94C5041F910F910895AF92BF92E1
:101C5000CF92DF92EF92FF920F931F93B82EA62E92
:101C60000DE214E0C8016B2D4A2D0E9411058DB7BD
:101C70009EB70E970FB6F8949EBF0FBE8DBFEDB7FF
:101C8000FEB73196ADB7BEB712961C930E9311975F
:101C900081EB91E09383828321EEC22ED12CD582F9
:101CA000C48280917604992787FD909597838683D7
:101CB0009CE8E92EF12CF186E086809177048287FA
:101CC00013868BE890E0958784870E94472A8DB71A
:101CD0009EB70E960FB6F8949EBF0FBE8DBFC8017B
:101CE0000E94C504C8016B2D4A2D0E941105ADB795
:101CF000BEB71A970FB6F894BEBF0FBEADBFEDB713
:101D0000FEB7319612961C930E9311978FEB91E0CC
:101D100093838283D582C48280912303992787FD90
:101D2000909597838683F186E0860E94472A8DB737
:101D30009EB70A960FB6F8949EBF0FBE8DBFC8011E
:101D40000E94C5041F910F91FF90EF90DF90CF90FC
:101D5000BF90AF9008950F931F93282F462F0DE249
:101D600014E0C801622F0E9411058DB79EB74297FB
:101D70000FB6F8949EBF0FBE8DBFEDB7FEB731967C
:101D8000ADB7BEB712961C930E93119787EC91E0F6
:101D90009383828388ED91E09583848380914E04C0
:101DA00090914F04A0915004B09151048683978381
:101DB000A087B18780EB90E09387828780ED90E0E9
:101DC0009587848787E995E09787868781ED90E0FE
:101DD000918B808B0E94472A8DB79EB742960FB693
:101DE000F8949EBF0FBE8DBFC8010E94C5041F910D
:101DF0000F9108950F931F93282F462F0DE214E0A3
:101E0000C801622F0E9411058DB79EB70C970FB6BF
:101E1000F8949EBF0FBE8DBFEDB7FEB73196ADB73C
:101E2000BEB712961C930E93119787E291E09383AD
:101E3000828386E190E09583848380916A04909107
:101E40006B04A0916C04B0916D0486839783A08786
:101E5000B18788E890E0938782870E94472A8DB7F0
:101E60009EB70C960FB6F8949EBF0FBE8DBFC801EB
:101E70000E94C5041F910F910895CF92DF92EF92B7
:101E8000FF920F931F93CF93DF93282F462FCDE21E
:101E9000D4E0CE01622F0E941105C090A305D0901E
:101EA000A405E090A505F090A605C701B6010E9423
:101EB0005135695E7340804090408CF18DB79EB77C
:101EC0000C970FB6F8949EBF0FBE8DBF0DB71EB70F
:101ED0000F5F1F4FADB7BEB71296DC93CE9311972D
:101EE0008BE391E0F801938382838EEF90E09583FA
:101EF0008483C701B60120E030E04AE754E40E9441
:101F0000E934D80116966D937D938D939C93199720
:101F10008DEF90E01B969C938E931A9721C08DB7FE
:101F20009EB70C970FB6F8949EBF0FBE8DBFEDB74E
:101F3000FEB73196ADB7BEB71296DC93CE9311972C
:101F400082EE91E0938382838EEF90E09583848389
:101F5000C682D782E086F1868DE890E093878287FB
:101F60000E94472AEDB7FEB73C960FB6F894FEBF25
:101F70000FBEEDBF8DE294E00E94C504DF91CF91CA
:101F80001F910F91FF90EF90DF90CF900895EF9207
:101F9000FF920F931F93282F462F3DE2E32E34E04C
:101FA000F32EC701622F0E9411058DB79EB70C97C3
:101FB0000FB6F8949EBF0FBE8DBF0DB71EB70F5F53
:101FC0001F4FEDB7FEB7F282E18287E291E0F801A0
:101FD0009383828388EE90E0958384836091A70544
:101FE0007091A8058091A9059091AA0526E636E68C
:101FF00046E650E40E94B736F8016683778380870F
:10200000918781E890E0938782870E94472A8DB765
:102010009EB70C960FB6F8949EBF0FBE8DBFC7013A
:102020000E94C5041F910F91FF90EF900895EF92C9
:10203000FF920F931F93282F462F5DE2E52E54E069
:10204000F52EC701622F0E9411058DB79EB70C9720
:102050000FB6F8949EBF0FBE8DBF0DB71EB70F5FB2
:102060001F4FEDB7FEB7F282E18287E291E0F801FF
:102070009383828389EE90E09583848360916604E4
:1020800070916704809168049091690426E636E6B1
:1020900046E650E40E94B736F8016683778380876E
:1020A000918781E890E0938782870E94472A8DB7C5
:1020B0009EB70C960FB6F8949EBF0FBE8DBFC7019A
:1020C0000E94C5041F910F91FF90EF900895CF9249
:1020D000DF92EF92FF920F931F93282F462FBDE2BE
:1020E000CB2EB4E0DB2EC601622F0E941105609159
:1020F00062047091630480916404909165042DB72B
:102100003EB7245130400FB6F8943EBF0FBE2DBFEE
:102110000DB71EB70F5F1F4FEDB7FEB7D282C1825A
:102120002CEE31E0F8013383228325E830E035835B
:1021300024836683778380879187ADE8EA2EF12C2C
:10214000F386E28627EE30E0358724872091AB05C1
:102150003091AC054091AD055091AE050E941B3405
:10216000F80166877787808B918BF38AE28A0E94D9
:10217000472A2DB73EB72C5E3F4F0FB6F8943EBFAF
:102180000FBE2DBFC6010E94C5041F910F91FF9085
:10219000EF90DF90CF900895EF92FF920F931F93EF
:1021A000282F462F1DE2E12E14E0F12EC701622FE9
:1021B0000E9411058DB79EB70C970FB6F8949EBF7D
:1021C0000FBE8DBF0DB71EB70F5F1F4FEDB7FEB728
:1021D000F282E18280E092E0F8019383828386EECE
:1021E00090E09583848360916E0470916F04809178
:1021F0007004909171042091240330912503409143
:102200002603509127030E941B34F80166837783CD
:10221000808791878DE890E0938782870E94472A84
:102220008DB79EB70C960FB6F8949EBF0FBE8DBFAC
:10223000C7010E94C5041F910F91FF90EF90089570
:102240000F931F93282F462F0DE214E0C801622F31
:102250000E9411058091AF050E948F09C8010E945C
:10226000C5041F910F910895CF92DF92EF92FF92D4
:102270000F931F93CF93DF93282F462FCDE2D4E007
:10228000CE01622F0E9411056091B0057091B105D9
:102290008091B2059091B3050E9484356B017C0159
:1022A00020E030E44CE156E40E94E234882314F547
:1022B0008DB79EB70C970FB6F8949EBF0FBE8DBF1B
:1022C000EDB7FEB73196ADB7BEB71296DC93CE939D
:1022D000119780E092E09383828382E190E095837E
:1022E0008483C682D782E086F1868DE890E093876A
:1022F000828730C08DB79EB70C970FB6F8949EBFFB
:102300000FBE8DBF0DB71EB70F5F1F4FADB7BEB766
:102310001296DC93CE9311978AE092E0F8019383B2
:10232000828382E190E095838483C701B60120E037
:1023300030E04AE754E40E94E934D80116966D93E0
:102340007D938D939C9319978DEF90E01B969C93B2
:102350008E931A970E94472AEDB7FEB73C960FB6A8
:10236000F894FEBF0FBEEDBF8DE294E00E94C5045D
:10237000DF91CF911F910F91FF90EF90DF90CF9061
:1023800008950F931F93282F462F0DE214E0C801E4
:10239000622F0E9411058DB79EB70C970FB6F89467
:1023A0009EBF0FBE8DBFEDB7FEB73196ADB7BEB7BE
:1023B00012961C930E93119784E192E0938382838B
:1023C00080914A0490914B04A0914C04B0914D042B
:1023D00084839583A683B78380915C0490915D0488
:1023E000A0915E04B0915F0480879187A287B38734
:1023F0000E94472A8DB79EB70C960FB6F8949EBFE1
:102400000FBE8DBFC8010E94C5041F910F91089592
:102410000F931F93282F462F8DE294E0622F0E9486
:10242000110580916104282F30E0823030F404E0FF
:10243000220F331F0A95E1F702C02150304000D02F
:1024400000D000D0EDB7FEB731960DE214E0ADB785
:10245000BEB712961C930E93119780E091E0938380
:102460008283358324830E94472A8DB79EB70696C0
:102470000FB6F8949EBF0FBE8DBFC8010E94C50461
:102480001F910F9108950F931F93282F462F0DE250
:1024900014E0C801622F0E9411058DB79EB70897FE
:1024A0000FB6F8949EBF0FBE8DBFEDB7FEB7319645
:1024B000ADB7BEB712961C930E93119780E292E0CF
:1024C000938382838FE090E095838483809160047E
:1024D000868317820E94472A8DB79EB708960FB64B
:1024E000F8949EBF0FBE8DBFC8010E94C5041F9106
:1024F0000F9108950F931F930DE214E0C80161E05E
:1025000047E00E94110500D000D0EDB7FEB712835E
:10251000018383E492E0948383830E94362A0F90A0
:102520000F900F900F90C8010E94C5041F910F914A
:1025300008950F931F93282F462F0DE214E0C80132
:10254000622F0E94110500D000D0EDB7FEB71283B4
:10255000018385E592E0948383830E94362A0F905D
:102560000F900F900F90C8010E94C5041F910F910A
:102570000895EF92FF920F931F93CF93DF930E94E2
:1025800088322091BD053091BE054091BF05509124
:10259000C005261737074807590708F082C20E946E
:1025A00088326C507E4F8F4F9F4F6093BD05709364
:1025B000BE058093BF059093C0050DE214E0C801ED
:1025C0000E945B05C80165E043E00E94110500D050
:1025D00000D0ADB7BEB712961C930E9311978BED3A
:1025E00092E014969C938E9313970E94362A0F9034
:1025F0000F900F900F9080918C0590918D05892BF5
:1026000031F08091B4059091B505892B81F48091CA
:1026100058049091590490938D0580938C05809176
:102620005A0490915B049093B5058093B405209172
:102630005A0430915B044091B4055091B505C9012D
:10264000845690404817590724F48091BC058F5F49
:1026500008C02C593F4F241735072CF48091BC0536
:1026600081508093BC058091BC05843014F484E0D3
:1026700003C08E301CF08DE08093BC058091BC05BA
:10268000883019F1893074F4853011F1863024F4E2
:10269000843009F002C228C0863019F1873009F071
:1026A000FCC181C08B3071F08C3034F48930B1F0D2
:1026B0008A3009F0F2C1EAC08C3069F08D3009F03F
:1026C000ECC168C1C4E6D0E06CC1C4E6D0E0E5C0AE
:1026D000C4E6D0E06FC084E690E05EC184E690E09E
:1026E000D7C084E690E061C000D000D02DE2E22E99
:1026F00024E0F22EEDB7FEB7F282E1828BEB92E09E
:10270000948383830E94362A8DB79EB708970FB6AD
:10271000F8949EBF0FBE8DBF0DB71EB70F5F1F4F42
:10272000ADB7BEB71296FC92EE92119786E292E098
:10273000F801938382836091960570E0645D7E4F1B
:10274000882777FD8095982F0E94843520E030E01F
:1027500048EC52E40E94E934D80114966D937D93BD
:102760008D939C93179786E790E019969C938E9390
:10277000189780E290E01B969C938E931A970E9484
:10278000472AEDB7FEB73C960FB6F894FEBF0FBED2
:10279000EDBF8091960590E060E873E00E941E0A0C
:1027A000809396057AC18AE090E06AE070E00E942A
:1027B000FC37EB0100D000D00DE214E0ADB7BEB79E
:1027C00012961C930E93119780EA92E014969C93B4
:1027D0008E9313970E94362AEDB7FEB738970FB63F
:1027E000F894FEBF0FBEEDBF3196ADB7BEB71296DF
:1027F0001C930E9311978BE391E09383828382EE77
:1028000090E0958384838091920590919305A091A7
:102810009405B091950586839783A087B1878EE84C
:1028200090E0938782870E94472AEDB7FEB73696DD
:102830000FB6F894FEBF0FBEEDBF3196ADB7BEB771
:1028400012961C930E9311978EE292E093838283EB
:102850008091B6059091B705958384830E94472A9D
:10286000EDB7FEB736960FB6F894FEBF0FBEEDBFBC
:102870008091B6059091B70564EF73E0AE010E94B8
:10288000490A9093B7058093B60507C18AE090E0A6
:102890006AE070E00E94FC37EB0100D000D09DE2BE
:1028A000E92E94E0F92EADB7BEB71296FC92EE92E7
:1028B000119785E892E014969C938E9313970E944B
:1028C000362AEDB7FEB738970FB6F894FEBF0FBEA5
:1028D000EDBF0DB71EB70F5F1F4FF282E1828BE392
:1028E00091E0D80113969C938E93129784EE90E01A
:1028F00015969C938E931497609190057091910515
:10290000882777FD8095982F0E9484352AE037ED3F
:1029100043E25CE30E94B736F801668377838087E1
:1029200091878FE890E0938782870E94472A8DB72E
:102930009EB706960FB6F8949EBF0FBE8DBFEDB73B
:10294000FEB73196ADB7BEB71296FC92EE921197D4
:1029500085E492E0938382838091B8059091B905D4
:10296000958384830E94472AEDB7FEB736960FB64B
:10297000F894FEBF0FBEEDBF8091B8059091B905E8
:1029800068EF73E0AE010E94490A9093B905809305
:10299000B80583C08AE090E06AE070E00E94FC37EE
:1029A000EB0100D000D08DE2E82E84E0F82EADB728
:1029B000BEB71296FC92EE9211978AE692E01496B8
:1029C0009C938E9313970E94362AEDB7FEB73897E3
:1029D0000FB6F894FEBF0FBEEDBF0DB71EB70F5F69
:1029E0001F4FF282E1828BE391E0D80113969C9312
:1029F0008E93129784EE90E015969C938E93149785
:102A00006091900570919105882777FD8095982FAA
:102A10000E9484352AE037ED43E25CE30E94B7363A
:102A2000F80166837783808791878FE890E09387AA
:102A300082870E94472A8DB79EB706960FB6F894F4
:102A40009EBF0FBE8DBFEDB7FEB73196ADB7BEB717
:102A50001296FC92EE9211978CE592E0938382831A
:102A60008091BA059091BB05958384830E94472A83
:102A7000EDB7FEB736960FB6F894FEBF0FBEEDBFAA
:102A80008091BA059091BB0566EF73E0AE010E949C
:102A9000490A9093BB058093BA058DE294E00E94A9
:102AA000C504DF91CF911F910F91FF90EF90089592
:102AB0002F923F924F925F926F927F928F929F924E
:102AC000AF92BF92CF92DF92EF92FF920F931F933C
:102AD000DF93CF93CDB7DEB72C970FB6F894DEBF58
:102AE0000FBECDBF89876A870E9488322091C105B9
:102AF0003091C2054091C3055091C4052617370790
:102B00004807590708F0D4C18091C5058823C9F04A
:102B100080932E031092C50583E792E09093D4052D
:102B20008093D3050E948832625A7E4F8F4F9F4F09
:102B30006093C1057093C2058093C3059093C4054B
:102B400071C180912E03282F30E03A832983609051
:102B50005304309178043887409179044F83D090A2
:102B60005204E090C705F090C8050091D30510917C
:102B7000D40550913F045B83809161048E839091D2
:102B8000C6059D8320909205309093054090940552
:102B9000509095058091960590E0845D9E4F209120
:102BA0002C0330912D03DC01A29FC001A39F900D47
:102BB000B29F900D11247090AC03B0E47B22C090C2
:102BC000AD03CB22E0912303EC8329813A813C873A
:102BD0002B874C01AA2497FCA094BA2C4B855C85CA
:102BE0004F5F5F4F5C874B87483051052CF081E089
:102BF00090E09C878B8721C0AB85BC85A430B10554
:102C000009F44EC0A530B10554F4A230B105A1F1CC
:102C1000A330B105CCF5119709F085C00EC0EB8546
:102C2000FC85E630F10509F45BC0E630F1050CF4F3
:102C30004DC0379709F077C05EC0F1E0F615A8F0F7
:102C40006F1619F400E812E00BC02885213051F40A
:102C50003F81313039F442E04D1520F00DE812E0AB
:102C600081E06AC00AE912E0FBCF5F81513009F4CC
:102C70005AC007EA12E0F4CF8B81833009F453C0C5
:102C800004EB12E082E058C09E81923008F04BC005
:102C9000AD81AA2309F447C001EC12E083E04CC0E7
:102CA000C501B4010E94843520E030E048EC52E4D4
:102CB0000E94E9349B01AC01C201B1010E94E234DF
:102CC00088238CF50EEC12E084E036C0B1E0EB1600
:102CD000F10449F50BED12E0EE24FF2485E02CC051
:102CE000772011F4CC20F9F0EC81E93BE4F408EE14
:102CF00012E086E021C0F1E0F615A8F0FD1598F489
:102D000022E0D21619F405EF12E00BC033E0D3161F
:102D100019F402E013E005C044E0D41611F40FE00A
:102D200013E087E009C08B859C85A981BA818A1749
:102D30009B0709F053CFA1C0F092C805E092C705E8
:102D40001093D4050093D3058093C50581E080934B
:102D5000C9050E94883264547D4F8F4F9F4F609306
:102D6000C1057093C2058093C3059093C4050E946A
:102D700088326854744F8F4F9F4F6093CF05709384
:102D8000D0058093D1059093D2058091CA0590918A
:102D9000CB05A091CC05B091CD050097A105B1055B
:102DA00071F40E9488326059784E8F4F9F4F609324
:102DB000CA057093CB058093CC059093CD05809187
:102DC000CE05882379F40E9488322091CA0530917B
:102DD000CB054091CC055091CD0526173707480704
:102DE000590720F08DE294E00E945B050E94883232
:102DF0002091CA053091CB054091CC055091CD056D
:102E0000261737074807590768F01092CE050AC001
:102E10001092C9051092CA051092CB051092CC05EC
:102E20001092CD050DE214E0C80169854A850E9423
:102E3000110500D000D000D0EDB7FEB73196ADB788
:102E4000BEB712961C930E9311978CE193E0938377
:102E500082838091D3059091D405958384830E94C9
:102E6000472AEDB7FEB736960FB6F894FEBF0FBEF1
:102E7000EDBFC8010E94C5041BC0F092C805E092D6
:102E8000C7051093D4050093D3051092C5050E9481
:102E900088322091CF053091D0054091D1055091D5
:102EA000D205261737074807590708F4B1CFBACF1C
:102EB0002C960FB6F894DEBF0FBECDBFCF91DF9139
:102EC0001F910F91FF90EF90DF90CF90BF90AF9048
:102ED0009F908F907F906F905F904F903F902F903A
:102EE000089520911F0330912003C9018950974014
:102EF0008F5A9440D0F580915304882321F481E0C7
:102F00008093D5052EC08091D505882351F58091F9
:102F1000C905882311F10E9488322091CA05309199
:102F2000CB054091CC055091CD05261737074807B2
:102F30005907B8F40E9488322091C1053091C2052A
:102F40004091C3055091C405261737074807590714
:102F500040F48091C505882321F48DE294E00E941D
:102F60005B0582E08093CE05089584E0203B38071E
:102F700068F48091CE05882349F01092D5058DE242
:102F800094E00E945B051092CE050895205B3440CA
:102F90002955324000F58091CE058130E1F08091D5
:102FA000C905882379F00E9488322091CA053091A2
:102FB000CB054091CC055091CD0526173707480722
:102FC000590748F41092D5058DE294E00E945B0504
:102FD00081E08093CE050895EF92FF920F931F93A7
:102FE0008091D505882309F060C080915304823018
:102FF00008F05BC08091C605813009F056C0809111
:10300000580490915904895097400CF44EC0809117
:103010005A0490915B04805B94400CF046C0809110
:103020004A0490914B04A0914C04B0914D048093BC
:10303000D6059093D705A093D805B093D905809174
:103040005C0490915D04A0915E04B0915F04809354
:10305000DA059093DB05A093DC05B093DD05809144
:10306000620490916304A0916404B091650480931C
:10307000AB059093AC05A093AD05B093AE058091E0
:103080006E0490916F04A0917004B09171048093CC
:10309000240390932503A0932603B093270381E094
:1030A00090E09093C8058093C7058091DE059091CC
:1030B000DF05A091E005B091E1050097A105B105FC
:1030C00009F04EC08091560490915704079708F478
:1030D00047C080915304823008F442C00E94883275
:1030E0006093DE057093DF058093E0059093E10522
:1030F0001092E3051092E2058091E4059091E505B8
:103100009093E7058093E605809128039091290329
:10311000A0912A03B0912B0380932F039093300347
:10312000A0933103B093320380E090E0A0E0B0E0E0
:103130008093A3059093A405A093A505B093A6053D
:1031400080916E0490916F04A0917004B09171040D
:103150008093240390932503A0932603B093270321
:103160008091DE059091DF05A091E005B091E10529
:103170000097A105B10509F462C0809156049091B1
:103180005704079720F480915404882359F18091C3
:103190005304823038F10E9488322091DE0530914C
:1031A000DF054091E0055091E105621B730B840B34
:1031B000950B28EE33E040E050E00E940F3830934A
:1031C0008F0520938E058091E4059091E50520916F
:1031D000E6053091E705821B930B9093E3058093FE
:1031E000E2054DC00E9488327B018C0160918E0502
:1031F00070918F05882777FD8095982F28E13CEF07
:103200004FEF5FEF0E94DD37E60EF71E081F191F14
:10321000E092DE05F092DF050093E0051093E105F2
:103220008091E4059091E5052091E2053091E30558
:10323000821B930B9093E7058093E60520C00E94C4
:10324000883228EE33E040E050E00E940F3830939F
:103250008F0520938E051092E3051092E205809170
:10326000280390912903A0912A03B0912B03809306
:103270002F0390933003A0933103B09332030E9445
:1032800071178091D505882319F00E94B91234C2B4
:103290008091AC0380FF08C06091FE038091FC0325
:1032A00090E070E00E9458158091CE058230A8F021
:1032B0008091C905882309F41FC20E948832209199
:1032C000CA053091CB054091CC055091CD0526170C
:1032D00037074807590708F40FC28091CE0580933D
:1032E000E805823011F41092CE058091CE05A82F0A
:1032F000B0E0FD01EA55FC4F808185FF0BC0FD0168
:10330000E254FC4F6081A454BC4F8C9190E070E07B
:103310000E9443128091CE05A82FB0E0FD01EA552E
:10332000FC4F808186FF0BC0FD01EE53FC4F608196
:10333000A054BC4F8C9190E070E00E9408128091E4
:10334000CE05A82FB0E0FD01E455FC4F808183FF3E
:103350000BC0FD01EE5FFB4F6081A050BC4F8C9114
:1033600090E070E00E94FA0E8091C605882309F46F
:103370003FC08091CE05A82FB0E0FD01EA55FC4F7B
:10338000808187FF0BC0FD01EA53FC4F6081AC5385
:10339000BC4F8C9190E070E00E94C1118091CE05ED
:1033A000A82FB0E0FD01E855FC4F808184FF0BC0E1
:1033B000FD01EA52FC4F6081AC52BC4F8C9190E011
:1033C00070E00E9434118091CE05A82FB0E0FD017D
:1033D000E855FC4F808183FF0BC0FD01EE52FC4F8E
:1033E0006081A053BC4F8C9190E070E00E9420114E
:1033F0008091CE05A82FB0E0FD01E655FC4F8081FD
:1034000087FF0BC0FD01EA51FC4F6081AC51BC4FFE
:103410008C9190E070E00E94CC108091C6058823CA
:1034200009F459C080916104823008F454C080913D
:10343000CE05A82FB0E0FD01E255FC4F808182FF50
:103440000BC0FD01E65FFB4F6081A85FBB4F8C9115
:1034500090E070E00E943D0F8091CE05A82FB0E073
:10346000FD01E655FC4F808182FF0BC0FD01EE514E
:10347000FC4F6081A052BC4F8C9190E070E00E94A4
:1034800067108091CE05A82FB0E0FD01E655FC4FF6
:10349000808183FF0BC0FD01E651FC4F6081A85184
:1034A000BC4F8C9190E070E00E9417108091CE0587
:1034B000A82FB0E0FD01E655FC4F808181FF0BC0D5
:1034C000FD01E251FC4F6081A451BC4F8C9190E012
:1034D00070E00E94C70F8091C605882321F080917B
:1034E0006104823028F48091520481508330A8F422
:1034F0008091CE05A82FB0E0FD01E855FC4F8081FA
:1035000080FF0BC0FD01E253FC4F6081A453BC4F10
:103510008C9190E070E00E94AB0E8091CE05A82FB8
:10352000B0E0FD01E455FC4F808186FF0FC0809123
:103530007604882359F0FD01EA5FFB4F6081AC5FA0
:10354000BB4F8C9190E070E00E94260E8091CE05DA
:10355000A82FB0E0FD01EA55FC4F808182FF0BC02F
:10356000FD01EA54FC4F6081AC54BC4F8C9190E05B
:1035700070E00E94ED0D8091CE05A82FB0E0FD0116
:10358000EA55FC4F808181FF0BC0FD01EE54FC4FDA
:103590006081A055BC4F8C9190E070E00E94B40D0A
:1035A0008091CE05A82FB0E0FD01E655FC4F80814B
:1035B00084FF0BC0FD01EE50FC4F6081A051BC4F59
:1035C0008C9190E070E00E94770D8091CE05A82F3D
:1035D000B0E0FD01E655FC4F808185FF0BC0FD0189
:1035E000EA50FC4F6081AC50BC4F8C9190E070E091
:1035F0000E94C70C8091CE05A82FB0E0FD01EA55CE
:10360000FC4F808183FF0BC0FD01E654FC4F6081BD
:10361000A854BC4F8C9190E070E00E94480C8091BF
:10362000CE05A82FB0E0FD01E655FC4F808180FF5C
:103630000BC0FD01E252FC4F6081A452BC4F8C9143
:1036400090E070E00E94F60B8091CE05A82FB0E0CC
:10365000FD01EA55FC4F808184FF0BC0FD01E6535C
:10366000FC4F6081A853BC4F8C9190E070E00E94A9
:10367000B30B8091CE05A82FB0E0FD01E255FC4FC1
:10368000808181FF0BC0FD01E25FFB4F6081A45F81
:10369000BB4F8C9190E070E00E94700B8091CE0542
:1036A000A82FB0E0FD01E855FC4F808187FF0BC0DB
:1036B000FD01E652FC4F6081A852BC4F8C9190E016
:1036C00070E00E94220B8091CE05A82FB0E0FD0192
:1036D000E655FC4F808186FF0BC0FD01E650FC4F94
:1036E0006081A850BC4F8C9190E070E00E94CA0AA3
:1036F0008091E8058093CE051F910F91FF90EF9088
:1037000008958DE294E00E945B050E947A1208956C
:10371000CF93DF93EC018DE294E00E943004C81750
:10372000D9073CF08DE294E00E942504892B09F42E
:103730002397CE01DF91CF910895FF920F931F93AE
:1037400005E116E0C80160E873E00E94F83080935C
:103750009605C80164EF73E00E94F830F82EC801A6
:1037600065EF73E00E94F830382F20E02F0D311DF7
:103770003093B7052093B605C80166EF73E00E9449
:10378000F830F82EC80167EF73E00E94F830382F48
:1037900020E02F0D311D3093BB052093BA05C801E1
:1037A00068EF73E00E94F830F82EC80169EF73E00B
:1037B0000E94F830382F20E02F0D311D3093B905CD
:1037C0002093B8051F910F91FF900895BC0185E1EA
:1037D00096E00E94F8300895EF92FF920F931F93A6
:1037E000CF93DF930091CE0510E08AEF90E0089F21
:1037F0007001099FF00C189FF00C1124C701885626
:103800009F4F0E94E61BF801EA55FC4F882319F0F0
:103810008081806102C080818F7E80838091CE050F
:10382000C82FD0E0C70186569F4F0E94E61BC853A1
:10383000DC4F88838091CE05C82FD0E0C701845625
:103840009F4F0E94E61B90E00E94881BC653DC4FEE
:1038500088830091CE0510E0C70106960E94E61B02
:10386000F801EA55FC4F882319F08081826002C07C
:1038700080818D7F80838091CE05C82FD0E0C701E5
:1038800008960E94E61BC055DC4F88838091CE05C8
:10389000C82FD0E0C7010A960E94E61B90E00E9464
:1038A000881BCE54DC4F88830091CE0510E0C70101
:1038B0000C960E94E61BF801EA55FC4F882319F08C
:1038C0008081846002C080818B7F80838091CE055F
:1038D000C82FD0E0C7010E960E94E61BCC54DC4FE7
:1038E00088838091CE05C82FD0E0C70140960E9402
:1038F000E61B90E00E94881BCA54DC4F888300912D
:10390000CE0510E0C70142960E94E61BF801EA5579
:10391000FC4F882319F08081886002C08081877FF6
:1039200080838091CE05C82FD0E0C70144960E94C5
:10393000E61BC854DC4F88838091CE05C82FD0E0A9
:10394000C70146960E94E61B90E00E94881BC65461
:10395000DC4F88830091CE0510E0C7014E960E948F
:10396000E61BF801EA55FC4F882319F0808180623C
:1039700002C080818F7D80838091CE05C82FD0E0EA
:10398000C70180960E94E61BC454DC4F8883809157
:10399000CE05C82FD0E0C70182960E94E61B90E0BA
:1039A0000E94881BC254DC4F88830091CE0510E032
:1039B000C70184960E94E61BF801EA55FC4F882354
:1039C00019F08081806402C080818F7B8083809128
:1039D000CE05C82FD0E0C70186960E94E61BC054D2
:1039E000DC4F88838091CE05C82FD0E0C701889630
:1039F0000E94E61B90E00E94881BCE53DC4F888318
:103A00000091CE0510E0C7018A960E94E61BF801DE
:103A1000EA55FC4F882319F08081806802C08081BC
:103A20008F7780838091CE05C82FD0E0C7018C9618
:103A30000E94E61BCC53DC4F88838091CE05C82FB3
:103A4000D0E0C7018E960E94E61B90E00E94881B82
:103A5000CA53DC4F88830091CE0510E0C701C096A1
:103A60000E94E61BF801E855FC4F882319F080817D
:103A7000816002C080818E7F80838091CE05C82FB7
:103A8000D0E0C701C2960E94E61BC453DC4F888376
:103A90008091CE05C82FD0E0C701C4960E94E61BD6
:103AA00090E00E94881BC253DC4F88830091CE05B2
:103AB00010E0C701885B9F4F0E94E61BF801E855A4
:103AC000FC4F882319F08081806102C080818F7E45
:103AD00080838091CE05C82FD0E0C701865B9F4FC1
:103AE0000E94E61BCC52DC4F88838091CE05C82F04
:103AF000D0E0C701845B9F4F0E94E61B90E00E94CC
:103B0000881BCA52DC4F88830091CE0510E0C701A4
:103B10008E5B9F4F0E94E61BF801E855FC4F8823FF
:103B200019F08081886002C08081877F80838091C6
:103B3000CE05C82FD0E0C7018C5B9F4F0E94E61BCB
:103B4000C053DC4F88838091CE05C82FD0E0C701D9
:103B50008A5B9F4F0E94E61B90E00E94881BCE521A
:103B6000DC4F88830091CE0510E0C70182569F4F3D
:103B70000E94E61BF801E855FC4F882319F080816C
:103B8000806802C080818F7780838091CE05C82FA6
:103B9000D0E0C70180569F4F0E94E61BC852DC4F01
:103BA00088838091CE05C82FD0E0C7018E559F4FE6
:103BB0000E94E61B90E00E94881BC652DC4F88835F
:103BC0000091CE0510E0C7018E599F4F0E94E61B61
:103BD000F801E655FC4F882319F08081816002C00E
:103BE00080818E7F80838091CE05C82FD0E0C70171
:103BF0008C599F4F0E94E61BC452DC4F88838091F2
:103C0000CE05C82FD0E0C7018A599F4F0E94E61BFE
:103C100090E00E94881BC252DC4F88830091CE0541
:103C200010E0C70182599F4F0E94E61BF801E6553C
:103C3000FC4F882319F08081846002C080818B7FD3
:103C400080838091CE05C82FD0E0C70180599F4F57
:103C50000E94E61BC052DC4F88838091CE05C82F9E
:103C6000D0E0C7018E589F4F0E94E61B90E00E9453
:103C7000881BCE51DC4F88830091CE0510E0C70130
:103C800084579F4F0E94E61BF801E655FC4F88239E
:103C900019F08081806802C080818F778083809155
:103CA000CE05C82FD0E0C70182579F4F0E94E61B68
:103CB000CC51DC4F88838091CE05C82FD0E0C7015E
:103CC00080579F4F0E94E61B90E00E94881BCA51BC
:103CD000DC4F88830091CE0510E0C7018E569F4FC0
:103CE0000E94E61BF801E655FC4F882319F08081FD
:103CF000826002C080818D7F80838091CE05C82F35
:103D0000D0E0C7018C569F4F0E94E61BC451DC4F88
:103D100088838091CE05C82FD0E0C7018A569F4F77
:103D20000E94E61B90E00E94881BC251DC4F8883F2
:103D30000091CE0510E0C7018C589F4F0E94E61BF2
:103D4000F801E655FC4F882319F08081886002C095
:103D50008081877F80838091CE05C82FD0E0C70106
:103D60008A589F4F0E94E61BC851DC4F8883809180
:103D7000CE05C82FD0E0C70188589F4F0E94E61B90
:103D800090E00E94881BC651DC4F88830091CE05CD
:103D900010E0C70186589F4F0E94E61BF801E655C8
:103DA000FC4F882319F08081806102C080818F7E62
:103DB00080838091CE05C82FD0E0C70184589F4FE3
:103DC0000E94E61BC051DC4F88838091CE05C82F2E
:103DD000D0E0C70182589F4F0E94E61B90E00E94EE
:103DE000881BCE50DC4F88830091CE0510E0C701C0
:103DF00080589F4F0E94E61BF801E655FC4F882330
:103E000019F08081806202C080818F7D80838091E3
:103E1000CE05C82FD0E0C7018E579F4F0E94E61BEA
:103E2000CC50DC4F88838091CE05C82FD0E0C701ED
:103E30008C579F4F0E94E61B90E00E94881BCA503F
:103E4000DC4F88830091CE0510E0C7018A579F4F51
:103E50000E94E61BF801E655FC4F882319F080818B
:103E6000806402C080818F7B80838091CE05C82FC3
:103E7000D0E0C70188579F4F0E94E61BC850DC4F17
:103E800088838091CE05C82FD0E0C70186579F4F09
:103E90000E94E61B90E00E94881BC650DC4F88837E
:103EA0000091CE0510E0C7018C559F4F0E94E61B84
:103EB000F801E455FC4F882319F08081816002C02D
:103EC00080818E7F80838091CE05C82FD0E0C7018E
:103ED0008A559F4F0E94E61BC450DC4F8883809117
:103EE000CE05C82FD0E0C70188559F4F0E94E61B22
:103EF00090E00E94881BC250DC4F88830091CE0561
:103F000010E0C7018A549F4F0E94E61BF801E45558
:103F1000FC4F882319F08081886002C08081877FF0
:103F200080838091CE05C82FD0E0C70188549F4F71
:103F30000E94E61BC050DC4F88838091CE05C82FBD
:103F4000D0E0C70186549F4F0E94E61B90E00E947C
:103F5000881BCE5FDB4F88830091CE0510E0C70140
:103F6000845A9F4F0E94E61BF801E455FC4F8823BA
:103F700019F08081806402C080818F7B8083809172
:103F8000CE05C82FD0E0C701825A9F4F0E94E61B82
:103F9000CC5FDB4F88838091CE05C82FD0E0C7016E
:103FA000805A9F4F0E94E61B90E00E94881BCA5FC8
:103FB000DB4F88830091CE0510E0C70180529F4FF0
:103FC0000E94E61BF801E255FC4F882319F080811E
:103FD000846002C080818B7F80838091CE05C82F52
:103FE000D0E0C7018E519F4F0E94E61BC85FDB4F98
:103FF00088838091CE05C82FD0E0C7018C519F4F98
:104000000E94E61B90E00E94881BC65FDB4F8883FE
:104010000091CE0510E0C7018C529F4F0E94E61B15
:10402000F801E255FC4F882319F08081826002C0BC
:1040300080818D7F80838091CE05C82FD0E0C7011D
:104040008A529F4F0E94E61BC45FDB4F888380919A
:10405000CE05C82FD0E0C70188529F4F0E94E61BB3
:1040600090E00E94881BC25FDB4F8883DF91CF9175
:104070001F910F91FF90EF9008954F925F927F9262
:104080008F929F92AF92BF92CF92DF92EF92FF9268
:104090000F931F93DF93CF93CDB7DEB7C854D040B3
:1040A0000FB6F894DEBF0FBECDBF0DE214E0C8011D
:1040B0000E945B05C80166E049E00E94110500D03E
:1040C00000D0EDB7FEB71283018386E093E09483BE
:1040D00083830E94362A0F900F900F900F90C80193
:1040E0000E94C50400D000D000E114E0EDB7FEB797
:1040F0001283018386EF92E0948383830E94362AA1
:104100004BEE442E42E0542EEE24FF24CC24DD243A
:104110000F900F900F900F90702E012F39E0A32E6B
:10412000B12CAC0EBD1E4E010894811C911C80E187
:1041300094E00E94EA2A982F8D3031F08D30DCF126
:1041400080538230C0F530C01830A1F59981892F95
:104150008053823078F5913311F490E801C090E0FB
:104160008A81813309F4905C8B81813309F4905EFC
:104170008C81813309F4905F8D81813309F4985FDC
:104180008E81813309F49C5F8F81813309F49E5FB6
:104190008885813309F49F5FF501EE0DFF1D908343
:1041A0000894E11CF11C06C0F401E10FF11D90839D
:1041B0001F5F01C010E0F0E4EF16F104C9F48DE2D6
:1041C00094E0B601A5010E943E040894C11CD11CD4
:1041D00000D000D0EDB7FEB77182028354824382D3
:1041E0000E94362AEE24FF240F900F900F900F901C
:1041F000FFEFCF16D10409F00CF499CFC85BDF4F65
:104200000FB6F894DEBF0FBECDBFCF91DF911F91E7
:104210000F91FF90EF90DF90CF90BF90AF909F9065
:104220008F907F905F904F9008959F92AF92BF9232
:10423000CF92DF92EF92FF920F931F93DF93CF9372
:10424000CDB7DEB72A970FB6F894DEBF0FBECDBF4D
:1042500073E0A72EB12CAC0EBD1E67E0C62ED12C8C
:10426000CC0EDD1E5DE9952ECFC20E9488326052D1
:104270007E4480409040C8F40E948832695873415F
:104280008040904090F01A3011F01D3031F4809150
:1042900084058F5F8093840502C01092840580910D
:1042A0008405833011F40E943D20812F6AE774E079
:1042B0000E949706882309F4A7C280917E049091FA
:1042C0007F04A0918004B09181048A37E6EF9E07B5
:1042D000E1EFAE07EDE9BE0709F44CC18B37F6EF0D
:1042E0009F07F1EFAF07FDE9BF07C8F488322EE55D
:1042F000920722EDA20724E2B20709F4C8C0863A69
:10430000EEE09E07E2E1AE07E8E4BE0709F40CC266
:104310008C5A9A4CA64EB04209F076C263C28038DD
:1043200024E7920720E1A20724ECB20709F4BCC0FD
:104330008138E4E79E07E0E1AE07E4ECBE0738F41D
:104340008C569846A344B24C09F05EC2D2C1843662
:1043500029ED920720EEA20727EDB20739F0845726
:104360009743A44DBE4D09F04FC233C20E9488321C
:1043700060934004709341048093420490934304FB
:1043800083E080933F048091940490919504A091E0
:104390009604B09197048F839887A987BA876F8115
:1043A000788589859A850E9451357093450460937C
:1043B00044048091980490919904A0919A04B0913A
:1043C0009B048F839887A987BA876F8178858985B1
:1043D0009A850E94513570934704609346048091FA
:1043E0009C0490919D04A0919E04B0919F048F83A2
:1043F0009887A987BA876F81788589859A850E9471
:1044000051358B01709349046093480460914A04CC
:1044100070914B0480914C0490914D0420E030E069
:1044200040E050E00E94E234882331F08091520451
:104430008150833008F02BC2B801882777FD809522
:10444000982F0E9484357B018C0160934E047093F9
:104450004F04809350049093510420E030E040E0FA
:1044600050E00E94E23488230CF011C2C801B70169
:1044700020E030E044EB53E40E941C3460934E048F
:1044800070934F04809350049093510400C2809124
:104490008404809353048091860480935404809113
:1044A000850480935504B0C1809184049091850463
:1044B000A0918604B0918704F60180839183A28342
:1044C000B3836F81788589859A8520E030E048EC58
:1044D00052E40E94B7360E9451357093570460939E
:1044E0005604693C710520F010925704109256044E
:1044F00080919E0490919F04909359048093580456
:104500008091A0049091A10490935B0480935A043D
:104510008091AA049091AB049093200380931F0391
:104520006091B0047091B1047A836983709322031F
:104530006093210380E090E00E94823520E030E02B
:104540004AEF54E40E941B3420E030E040E251E4A2
:104550000E94E93420E030E040E05FE30E941B3439
:104560000E945135609323036D390CF04DC1909238
:1045700023034AC16091840470918504809186046C
:10458000909187040E94843520E836E948E15BE495
:104590000E94E93460934A0470934B0480934C0466
:1045A00090934D04609188047091890480918A04ED
:1045B00090918B04D5016C9311967C931197129670
:1045C0008C93129713969C930E94843520E836E9C9
:1045D00048E15BE40E94E93460935C0470935D04FD
:1045E00080935E0490935F048091A904809360049B
:1045F0008091A8048093610480915204815083309B
:1046000068F56091480470914904882777FD80958A
:10461000982F0E9484357B018C0160934E04709327
:104620004F04809350049093510420E030E040E028
:1046300050E00E94E234882354F5C801B70120E01D
:1046400030E044EB53E40E941C3460934E047093BA
:104650004F04809350049093510419C080919404A6
:1046600090919504A0919604B0919704F6018083EF
:104670009183A283B3838F819885A985BA8580931E
:104680004E0490934F04A0935004B0935104809132
:104690008C0490918D04A0918E04B0918F04F6014A
:1046A00080839183A283B3838F819885A985BA85FE
:1046B0008093620490936304A0936404B0936504B0
:1046C0008091980490919904A0919A04B0919B04D0
:1046D00080839183A283B3838F819885A985BA85CE
:1046E0008093660490936704A0936804B093690470
:1046F0008BC080918C0490918D04A0918E04B09118
:104700008F04F60180839183A283B3838F81988580
:10471000A985BA85B05880936A0490936B04A093DE
:104720006C04B0936D0470C08091840490918504F2
:10473000A0918604B0918704F60180839183A283BF
:10474000B3836F81788589859A850E945135882742
:1047500077FD8095982F0E9484357B018C016093B2
:104760006E0470936F048093700490937104609151
:10477000240370912503809126039091270320E064
:104780003CE34CE156EC0E94E234882341F4E09291
:104790002403F092250300932603109327038091AE
:1047A000880490918904A0918A04B0918B04F60149
:1047B00080839183A283B3838F819885A985BA85ED
:1047C0008093720490937304A0937404B09375045F
:1047D0001BC08091EA048093760480919E048093AC
:1047E000770412C020918E04209378049091920453
:1047F000909379048091900480935204913009F051
:1048000046C0213009F043C080E194E00E94BA2AFA
:10481000181619061CF580E194E00E94EA2A182F68
:1048200080913F04882309F040CD1FCD10923F04B2
:10483000DD24D3948D2D90E02A960FB6F894DEBF38
:104840000FBECDBFCF91DF911F910F91FF90EF90E1
:10485000DF90CF90BF90AF909F900895DD24E090BF
:104860004004F0904104009142041091430480E11F
:1048700097E2A0E0B0E0E80EF91E0A1F1B1F0E949D
:104880008832E616F7060807190780F2D3CFDD2431
:10489000D394E5CF83E00E942A3308952F923F926C
:1048A0004F925F926F927F928F929F92AF92BF9240
:1048B000CF92DF92EF92FF920F931F93CF93DF93EC
:1048C000E090EA05F090EB050091EC051091ED0504
:1048D0008FE590E0A0E0B0E0E80EF91E0A1F1B1F74
:1048E0000E9488326E157F058007910708F46AC21E
:1048F0000E9488321B012C016090EA057090EB0544
:104900008090EC059090ED050E9488326093EA0556
:104910007093EB058093EC059093ED0583E00E9486
:104920002A3380E10E942D33AA2797FDA095BA2F44
:10493000BC01CD010E9484352DEC3CEC4CE85FE3DA
:104940000E94B73620E030E040E85AE30E94B736D4
:104950007B018C016091B6057091B705882777FDC2
:104960008095982F0E94843520E030E048EC52E496
:104970000E94E9349B01AC01C801B7010E94B7361F
:104980007B018C01A0903703B0903803C0903903AD
:10499000D0903A03C601B50120E030E040E85FEB7B
:1049A0000E94E234882349F4E0923703F0923803FE
:1049B0000093390310933A0339C0C801B701A60127
:1049C00095010E94E23418168CF0C801B7012DEC55
:1049D0003CEC4CEC5DE30E94B7367B018C01C601D8
:1049E000B50126E636E646E65FE310C0C801B7012A
:1049F0002AE939E949E95EE30E94B7367B018C0177
:104A0000C601B50123E333E343E35FE30E94B73616
:104A10009B01AC01C801B7010E941C3460933703AD
:104A2000709338038093390390933A03C09037030F
:104A3000D0903803E0903903F0903A03A0902C0313
:104A4000B0902D03C4E6D3E006E010E0C701B60144
:104A5000288139814A815B810E94AC36181644F462
:104A60000A151B052CF010932D0300932C0306C090
:104A70000150104024970130110541F78091E9055C
:104A80008823C9F4BB2460912C0370912D038827DF
:104A900077FD8095982F0E9484359B01AC01C7015A
:104AA000B6010E94E93421EE3AE748E850E40E945A
:104AB000AC36181614F4BB24B394B092E905BB20AD
:104AC00029F088E49DE7A5EEB2E404C087E894E10C
:104AD000A9E0B3E48093330390933403A0933503A8
:104AE000B0933603C0929205D0929305E09294055C
:104AF000F092950560912C0370912D03882777FD26
:104B00008095982F0E9484359B01AC01C701B601A6
:104B10000E94E9342CEF39EA4DE550E40E941B3441
:104B20002091330330913403409135035091360383
:104B30000E94B7367B018C0120E030E040E050E07D
:104B40000E94E23488235CF40F2EF0E0EF2EF0E0B8
:104B5000FF2EF0E00F2FF0E01F2FF02D14C0C80142
:104B6000B70120E030E046EC52E40E94AC36181663
:104B700054F40F2EF0E0EF2EF0E0FF2EF6EC0F2FA6
:104B8000F2E41F2FF02DC801B7010E945635E62F21
:104B9000F0E0BB2021F0EB5EFC4F649103C0E758CE
:104BA000FC4F649170E080E090E00E9482357B01D0
:104BB0008C01A0902803B0902903C0902A03D090C4
:104BC0002B03C601B50120E030E040E85FEB0E9416
:104BD000E234882349F4E0922803F09229030093F9
:104BE0002A0310932B0339C0C801B701A601950110
:104BF0000E94E23418168CF0C801B7012DEC3CEC91
:104C00004CE45DE30E94B7367B018C01C601B5011F
:104C100023E333E343E75FE310C0C801B7012AE9A8
:104C200039E949E95EE30E94B7367B018C01C60190
:104C3000B50123E333E343E35FE30E94B7369B010F
:104C4000AC01C801B7010E941C3460932803709323
:104C5000290380932A0390932B038091BA059091A6
:104C6000BB05181619060CF0ADC081E00E942A336E
:104C70008FE00E942D33AA2797FDA095BA2FBC0183
:104C8000CD010E94843529E23CE54FE950E40E94C1
:104C9000B73620E030E040E85AE30E94B7367B01A7
:104CA0008C016091B8057091B905882777FD8095D2
:104CB000982F0E94843520E030E44CE156EC0E94AD
:104CC000E9349B01AC01C801B7010E941C347B018F
:104CD0008C016091BA057091BB05882777FD80959E
:104CE000982F0E94843520E030E048EC52E40E9486
:104CF000E9349B01AC01C801B7010E94B7362DEC25
:104D00003CEC4CE45EE30E94B7367B018C01609181
:104D1000F2057091F3058091F4059091F5052DEC65
:104D20003CEC4CE45FE30E94B7369B01AC01C80148
:104D3000B7010E941C347B018C016093F2057093D3
:104D4000F3058093F4059093F505B1016619770991
:104D500080E090E00E9482359B01AC01C801B70160
:104D60000E94B7362FEA35EA41E959E30E94B73687
:104D70002091EE053091EF054091F0055091F1053D
:104D80000E941C345B016C016093EE057093EF058B
:104D90008093F0059093F105C801B70120E030E061
:104DA00048EC52E40E94B7360E9451357093910549
:104DB00060939005C601B5010E9456357093E505D4
:104DC0006093E405DF91CF911F910F91FF90EF90D9
:104DD000DF90CF90BF90AF909F908F907F906F901B
:104DE0005F904F903F902F9008951F93CF93DF9344
:104DF00085E090E06CE070E00E94991268EE73E04C
:104E000080E090E00E94963280E194E00E94372B8F
:104E1000C0E0D0E010E0CE016DE171E00E94FC370F
:104E2000892B89F41F5E8DE294E0612F4CE00E9493
:104E300011058DE294E06EEE0E9419058DE294E07A
:104E40000E94C504105161E070E080E090E00E9493
:104E50009632219687E0C13DD807E9F6DF91CF91E0
:104E60001F91089586E061E00E948E33089586E0E8
:104E700061E00E944F3380E194E040E051EE60E059
:104E800070E00E94582A0E9432278DE294E00E942E
:104E90009A050E94811B68EE73E080E090E00E941A
:104EA00096320E949D1B1092CE0507C00E94EC1BFB
:104EB0008091CE058F5F8093CE058091CE058230A4
:104EC000A8F31092CE050E94F5260E944A248DE296
:104ED00094E00E945B050E9488326093F60570930F
:104EE000F7058093F8059093F9050895AF92BF9266
:104EF000CF92DF92EF92FF920F931F93E090FF0506
:104F0000F090000600910106109102068FE590E0F6
:104F1000A0E0B0E0E80EF91E0A1F1B1F0E948832B5
:104F20006E157F058007910708F472C02091660412
:104F3000309167044091680450916904E0906A04DC
:104F4000F0906B0400916C0410916D04CA01B901DA
:104F50000E94B7365B016C01C801B701A801970137
:104F60000E94B7369B01AC01C601B5010E941C34FA
:104F70000E943E376093A7057093A8058093A9050A
:104F80009093AA0520E030E040E050E00E94AC366B
:104F90001816A4F50E9488322091FF053091000672
:104FA0004091010650910206621B730B840B950B16
:104FB0000E94823520916604309167044091680414
:104FC000509169040E94B73620E030E04AE754E48B
:104FD0000E94E9349B01AC016091A3057091A40586
:104FE0008091A5059091A6050E941C346093A305AD
:104FF0007093A4058093A5059093A6050E9488321E
:105000006093FF057093000680930106909302065B
:105010001F910F91FF90EF90DF90CF90BF90AF90D6
:1050200008952F923F924F925F926F927F928F924C
:105030009F92AF92BF92CF92DF92EF92FF920F9327
:105040001F93DF93CF9300D000D0CDB7DEB7809110
:10505000C605882309F419C1E090D605F090D7055C
:105060000091D8051091D905C801B7019F7725E3B4
:105070003AEF4EE85CE30E94B7360E94E63469835B
:105080007A838B839C83C801B70120914A043091B5
:105090004B0440914C0450914D040E941B341B0161
:1050A0002C019F7720EC3BE649ED57E40E94B73690
:1050B0005B016C016091DA057091DB058091DC0584
:1050C0009091DD0520915C0430915D0440915E0477
:1050D00050915F040E941B343B014C019F7720ECF0
:1050E0003BE649ED57E40E94B73629813A814B816E
:1050F0005C810E94B7367B018C01C601B501A60117
:1051000095010E94B7365B016C01C801B701A80187
:1051100097010E94B7369B01AC01C601B5010E9400
:105120001C340E943E370E9451357B018C016093F4
:1051300088057093890580938A0590938B0560910B
:1051400062047091630480916404909165042091DD
:10515000AB053091AC054091AD055091AE050E9474
:105160001B345B016C01C801B701A80197010E94C3
:10517000DD370E9484357B018C01C601B501A60193
:1051800095010E94B7369B01AC01C801B7010E948E
:105190001C340E943E370E9451356093B0057093D5
:1051A000B1058093B2059093B30560E070E080E8AC
:1051B0009FE329813A814B815C810E94E9349B0104
:1051C000AC01C201B1010E94B73697FA909497F8EA
:1051D0009094A40193010E948F3420EE3EE245E6B4
:1051E00052E40E94B73620E030E044EB52E40E94E3
:1051F0001C340E9451359B01AC0197FF04C0285913
:105200003E4F4F4F5F4FCA01B901645B7040804011
:10521000904097FF06C0CA01B9016C547F4F8F4F71
:105220009F4F0E94843520914E0430914F0440914D
:105230005004509151040E941B340E94513597FF35
:1052400004C068597E4F8F4F9F4F0E94843520E0E5
:1052500030E044EB53E40E94E93420E030E040E8E1
:1052600051E40E94B7360E941A3720E030E040E84F
:105270005FE30E941C340E9456356093AF05613194
:1052800008F47CC01092AF0579C08091610482302F
:1052900008F474C080916004853008F46FC0A09059
:1052A000FA058DE18A1508F469C0E0906204F09077
:1052B000630400916404109165046091FB05709192
:1052C000FC058091FD059091FE05A80197010E94C3
:1052D0001B349F7720E030E040E05FE30E94AC3673
:1052E00018165CF41092FA05E092FB05F092FC05AA
:1052F0000093FD051093FE0541C08A2D8F5F8093BA
:10530000FA058E31D9F580914A0490914B04A09111
:105310004C04B0914D048093D6059093D705A0938B
:10532000D805B093D90580915C0490915D04A0915B
:105330005E04B0915F048093DA059093DB05A0933F
:10534000DC05B093DD05E092AB05F092AC0500936F
:10535000AD051093AE0580916E0490916F04A091FD
:105360007004B09171048093240390932503A0935B
:105370002603B093270381E08093C6050F900F901A
:105380000F900F90CF91DF911F910F91FF90EF90B1
:10539000DF90CF90BF90AF909F908F907F906F9055
:1053A0005F904F903F902F9008950E944E240E944E
:1053B00076270E94E0078DE294E00E9411280E9467
:1053C000EC170895EF92FF920F931F930E941521FF
:1053D000892BB9F4E090F605F090F7050091F805F7
:1053E0001091F90584E690E0A0E0B0E0E80EF91E27
:1053F0000A1F1B1F0E948832E616F70608071907C6
:1054000060F40E9488326093F6057093F7058093EC
:10541000F8059093F9050E94D5291F910F91FF90EF
:10542000EF9008956EBD0DB407FEFDCF8EB50895C3
:105430008DE061E00E944F338BE061E00E944F33CA
:105440008CE060E00E944F338AE061E00E944F33BD
:105450001CBC80E58CBD8DB58EB5089583E096E0CB
:105460000E94182A08958FEF9FE70895DF93CF9346
:10547000CDB7DEB7FE0139968D819E8161E04F8107
:1054800058859F010E94D72CCF91DF910895DF931B
:10549000CF93CDB7DEB7FE0139968D819E8160E056
:1054A0004F8158859F010E94D72CCF91DF9108959D
:1054B0000F931F93DC01ED91FC910288F389E02D9D
:1054C00020E030E000E010E009951F910F91089571
:1054D0008F92AF92CF92EF92FF920F931F93DF9331
:1054E000CF93CDB7DEB7FC011382128288EE93E032
:1054F000A0E0B0E084839583A683B78380E993E03E
:10550000918380835587448737872687118B008B4B
:10551000F38AE28AC48AA58A868A70E0CB0123E0F6
:10552000880F991F2A95E1F79C012C5F394F308F26
:10553000278B845F994F928F818F81E090E002C02A
:10554000880F991F6A95E2F720911406282B209363
:105550001406CF0140E051EE60E070E00E94582A4E
:10556000CF91DF911F910F91FF90EF90CF90AF906F
:105570008F900895FC01838D882319F42FEF3FEF5E
:105580000DC00788F08DE02D2081318182819381CB
:10559000281B390B8481958128233923C90108955B
:1055A000FC01838D882319F42FEF3FEF11C0018C8C
:1055B000F28DE02D2081318182819381281B390B6E
:1055C0002095309584819581282339232F5F3F4F83
:1055D000C9010895FC01838D882361F0A789B08DEE
:1055E0002D913C91119712968D919C9113972817AC
:1055F000390721F44FEF5FEFCA01089512968D919C
:105600009C9113971696ED91FC911797E80FF91F4F
:10561000408112968D919C911397019614962D912D
:105620003C9115978223932313969C938E93129704
:1056300050E0E2CFFC01838D882351F00788F08D84
:10564000E02D20813181828193812817390721F44F
:105650002FEF3FEFC9010895828193810680F78182
:10566000E02DE80FF91F8081282F30E0F3CFDC0117
:105670005796ED91FC915897828193819183808315
:105680005996ED91FC915A97808191819383828301
:105690000895DC015B968C915B978823A9F159965C
:1056A000ED91FC915A97208131812F5F3F4F84818A
:1056B0009581282339235C968C915C97882329F067
:1056C0008281938128173907F9F082819381281705
:1056D0003907D9F3808191810680F781E02DE80FA9
:1056E000F91F60835996ED91FC915A97318320837D
:1056F0005296ED91FC915397808156969C91892BFF
:10570000808321E030E002C020E030E0C90108954C
:10571000CF93DF93EC011B821A828A819B8199834C
:1057200088831D821C828E819F81009721F00E94B8
:10573000A8311F821E82DF91CF9108950F931F938E
:105740008C01DC015296ED91FC9153972081569685
:105750008C91569755969C915597892B80958223CD
:10576000808357968D919C9158970E94882BF801C1
:10577000818D928D0E94882BD8015B961C921F917F
:105780000F9108950F931F93CF93DF938C01FC012A
:1057900013821282828193819183808341E0A1E010
:1057A000B0E001C04F5FFD01042E02C0EE0FFF1FED
:1057B0000A94E2F79B0182E06130780710F020E064
:1057C00032E0E217F30770F3C1E0D0E002C0CC0F83
:1057D000DD1F4A95E2F72197F801268137812115CF
:1057E000310541F0848195818C179D0789F0C901AD
:1057F0000E94A831F801D583C483CE0101960E948E
:105800000B319C01F8019783868380E0232B09F0FC
:1058100081E0DF91CF911F910F910895AF92BF92D8
:10582000CF92DF92EF92FF920F931F93CF93DF936C
:105830007C015A016B01E901DC015B968C915B975D
:105840008823F1F02115310539F45796ED91FC913B
:105850005897C481D58121960115110549F4D701C6
:105860005996ED91FC915A97048115810F5F1F4F56
:10587000D701ED91FC910088F189E02DC7010995D0
:10588000F7018789908D209711F4C0E8D0E0BE0120
:105890000E94C22B882381F0D70159968D919C914B
:1058A0005A970115110511F400E110E0B8010E94AA
:1058B000C22B882309F04DC0D701ED91FC910088DF
:1058C000F189E02DC701099567C0D7015096ED9188
:1058D000FC915197B0E0AB16B1EEBB06B0E0CB0641
:1058E000B0E0DB0609F454C081E090E0D7015496A3
:1058F0000C9002C0880F991F0A94E2F7808360E041
:1059000079E08DE390E0A60195010E9431382150A5
:10591000304040405040CA01B90122E030E040E050
:1059200050E00E943138D7011C96ED91FC911D97F3
:1059300030831E96ED91FC911F972083D7015296DC
:10594000ED91FC915397808155969C91892B808392
:1059500023C0D7015996ED91FC915A971382128278
:1059600082819381918380835796ED91FC91589722
:1059700013821282828193819183808381E05B967E
:105980008C931A141B041C041D040CF49ECFD6CF58
:10599000108220E130E0C7CFDF91CF911F910F91AE
:1059A000FF90EF90DF90CF90BF90AF9008952F922F
:1059B0003F924F925F926F927F928F929F92AF929F
:1059C000BF92CF92DF92EF92FF920F931F93DF93DC
:1059D000CF93CDB7DEB764970FB6F894DEBF0FBE96
:1059E000CDBF3C01688B5A8B498B69011C01AE010C
:1059F0004F5F5F4F5C8B4B8BE989FA89488940FD8B
:105A0000659140FF6191FA8BE98B662309F4D7C356
:105A1000653249F440FD859140FF8191FA8BE98B15
:105A20008532B1F40CC06A3051F4D301ED91FC9190
:105A30000190F081E02DC1016DE009956AE0D3018C
:105A4000ED91FC910190F081E02DC1010995D4CF39
:105A5000982F10E0882499241032B0F49B3269F01A
:105A60009C3228F4903251F0933271F40BC09D3285
:105A700039F0903349F4116028C01260146025C0D9
:105A8000186023C0106121C017FD2BC0892F8053DF
:105A90008A3078F416FF06C0BAE09B9E902C112441
:105AA000980E13C0EAE08E9E802C1124880E10629E
:105AB0000CC09E3221F416FD82C3106406C09C36D1
:105AC00011F4106802C0983661F4E989FA894889AE
:105AD00040FD959140FF9191FA8BE98B992309F054
