:100000000C9491020C94B9020C94B9020C94B902AC
:100010000C94B9020C94B9020C94B9020C94B90274
:100020000C94B9020C94B9020C94B9020C94B90264
:100030000C94B9020C94B9020C94B9020C94B90254
:100040000C944C340C94B9020C949D050C94D90575
:100050000C94B9020C94B9020C94B9020C94B90234
:100060000C94B9020C94B902084AD73B3BCE016EFE
:1000700084BCBFFDC12F3D6C74319ABD56833DDAFF
:100080003D00C77F11BED9E4BB4C3E916BAAAABE0E
:10009000000000803F05A84CCDB2D44EB93836A937
:1000A000020C50B9918688083CA6AAAA2ABE000074
:1000B00000803F0664EC1B3C04BC163E3BE5B93CAB
:1000C000C93C37C29E5A3D660498083EEA69AAAA0E
:1000D0003E000000803F00070E091C1B1215383F30
:1000E000363124232A2D70777E796C6B6265484FF8
:1000F000464154535A5DE0E7EEE9FCFBF2F5D8DFE8
:10010000D6D1C4C3CACD90979E998C8B8285A8AF57
:10011000A6A1B4B3BABDC7C0C9CEDBDCD5D2FFF847
:10012000F1F6E3E4EDEAB7B0B9BEABACA5A28F88B7
:10013000818693949D9A2720292E3B3C35321F18A7
:10014000111603040D0A5750595E4B4C45426F6817
:10015000616673747D7A898E878095929B9CB1B617
:10016000BFB8ADAAA3A4F9FEF7F0E5E2EBECC1C677
:10017000CFC8DDDAD3D4696E676075727B7C515667
:100180005F584D4A4344191E171005020B0C2126D7
:100190002F283D3A33344E49404752555C5B7671C7
:1001A000787F6A6D64633E39303722252C2B060137
:1001B000080F1A1D1413AEA9A0A7B2B5BCBB969127
:1001C000989F8A8D8483DED9D0D7C2C5CCCBE6E197
:1001D000E8EFFAFDF4F32020BF0020BF00BF007C51
:1001E000202020202020202020202020202020200F
:1001F00020202000C8202020202020202020202077
:1002000020C900C8202020202020202020202020BD
:10021000C97C00D820202020202020202020202041
:10022000D97C00C820202020202020202020202031
:10023000C97C00C820202020202020202020202031
:10024000C97C006D696E6F706F7364206A646C2086
:10025000322E353300626F6F74696E672075703AA5
:10026000EDF2F2F2F2F2F2F2F30063616C696272A3
:100270006174657C7C6D6561737572656420616D08
:10028000703A20200063616C6962726174657C7CE5
:100290006D6561737572656420616D703A20200030
:1002A00063616C6962726174657C7C6D6561737594
:1002B00072656420766F6C743A20006C69706F20F0
:1002C000626174742063656C6C7C7C7761726E69AA
:1002D0006E67206C6576656C3A20006261747420EC
:1002E00063617061636974793A0073657475702035
:1002F00073637265656E7C7C7C000000000000000A
:1003000000000000000000010A0F1315191D202134
:10031000232527292B2D2F3031333537393A3C3ED1
:10032000404243444445464748494A4B4D4E4F504E
:10033000505152525354555658595A5B5B5C5D5D4F
:100340005E5E5E5F5F5F60606061616162626263AA
:100350006363636363636363636363636363000033
:100360000000000000000000000002070A0C0D0E53
:10037000101214151617191A1B1E2126282A2B2DA8
:100380002F31333437393C3D3E3F404142444649AA
:100390004A4B4C4D4E4F4F5051515252535454555D
:1003A00055565758595A5B5C5C5D5D5E5F5F5F6098
:1003B000606060606161616161616262626262622B
:1003C000626300407A10F35A00A0724E18090010C0
:1003D000A5D4E80000E87648170000E40B540200BA
:1003E00000CA9A3B000000E1F505000080969800E5
:1003F000000040420F000000A0860100000010270E
:1004000000000000E803000000006400000000009D
:100410000A00000000000100000000002C76D888CF
:10042000DC674F0823DFC1DFAE59E1B1B796E5E3E2
:10043000E453C63AE651997696E8E6C28426EB89FB
:100440008C9B62ED407C6FFCEFBC9C9F40F2BAA598
:100450006FA5F490055A2AF75C936B6CF9676DC130
:100460001BFCE0E40D47FEF520E6B500D0ED902E34
:100470000300943577050080841E080000204E0A92
:10048000000000C80C333333330F986E12831141D0
:10049000EF8D2114893BE65516CFFEE6DB18D1849B
:1004A0004B381BF77C1D901DA4BBE42420328472C2
:1004B0005E228100C9F124ECA1E53D276E616E004A
:1004C000696E660000000000240027002A0000007A
:1004D0000000250028002B0000000000230026005B
:1004E00029000404040404040404020202020202B7
:1004F00003030303030301020408102040800102E8
:100500000408102001020408102000000007000267
:10051000010000030406000000000000000049077D
:100520003A2C11241FBECFEFD8E0DEBFCDBF13E0C1
:10053000A0E0B1E0E8EEF4E702C005900D92AE3C19
:10054000B107D9F716E0AEECB3E001C01D92AF35AC
:10055000B107E1F715E0C2E2D5E004C02297FE0141
:100560000E946E3ACE31D107C9F70E94EE350C9445
:10057000723A0C940000283008F027E03327DA01A3
:10058000990F311D87FD916000966105710539F461
:1005900032602E5F3D9330E32A95E1F708959F3F47
:1005A00030F080387105610509F03C5F3C5F3D9398
:1005B000913008F08068911DDF93CF931F930F93C4
:1005C000FF92EF92192F987F9695E92F9695969521
:1005D000E90FFF27E45EFB4F99273327EE24FF2422
:1005E000A701E70105900894079428F4360FE71E49
:1005F000F81E491F511D660F771F881F991F06940B
:10060000A1F70590079428F4E70EF81E491F561F1E
:10061000C11D770F881F991F661F0694A1F70590CB
:10062000079428F4F80E491F561FC71FD11D880FC5
:10063000991F661F771F0694A1F70590079420F471
:10064000490F561FC71FD81F990F661F771F881F96
:100650000694A9F784911095177041F0D695C79527
:1006600057954795F794E7941A95C1F7E2ECF3E0B4
:1006700068941590159135916591959105907FE25B
:100680007395E118F10A430B560BC90BD009C0F75B
:10069000E10CF11E431F561FC91FD01D7EF470339D
:1006A00011F48A95E6CFE894015030F0080F0AF46F
:1006B0000027021708F4202F2395022F7A3328F001
:1006C00079E37D932A95E9F710C07D932A9589F601
:1006D000069497956795379517951794E118F10A41
:1006E000430B560BC90BD00998F023957E91739557
:1006F0007A3308F070E37C932013B8F77E91706131
:100700007D9330F0839571E37D9370E32A95E1F753
:100710001124EF90FF900F911F91CF91DF919927B6
:1007200087FD90950895FA01AA27283051F12031CC
:1007300081F1E8946F936E7F6E5F7F4F8F4F9F4F75
:10074000AF4FB1E03ED0B4E03CD0670F781F891FB7
:100750009A1FA11D680F791F8A1F911DA11D6A0F85
:10076000711D811D911DA11D20D009F468943F9138
:100770002AE0269F11243019305D3193DEF6CF0137
:100780000895462F4770405D4193B3E00FD0C9F7FD
:10079000F6CF462F4F70405D4A3318F0495D31FD6A
:1007A0004052419302D0A9F7EACFB4E0A6959795BD
:1007B000879577956795BA95C9F700976105710593
:1007C00008959B01AC010A2E0694579547953795DD
:1007D0002795BA95C9F7620F731F841F951FA01D37
:1007E0000895FC010590615070400110D8F7809584
:1007F00090958E0F9F1F0895FC01615070400190ED
:100800000110D8F7809590958E0F9F1F0895FC01D9
:100810001382128288EE93E0A0E0B0E08483958397
:10082000A683B78380E793E0918380830895FC01DA
:100830008089803419F421E030E002C020E030E00B
:10084000C9010895FC01818990E0089580E090E05D
:10085000089580E090E0089580E090E00895089584
:100860001F93CF93DF93EC01162F86E060E00E9488
:100870009A358FE396E060E00E941E2C112319F058
:10088000113059F404C08FE396E0688904C0688988
:100890006C618FE396E00E941E2C86E061E00E946E
:1008A0009A35DF91CF911F910895EF92FF920F93A8
:1008B0001F937C010FE316E0C80167E00E941E2C25
:1008C000C8016FEF0E941E2C86E061E00E949A35FD
:1008D000F70187858F5F87871F910F91FF90EF90BA
:1008E0000895EF92FF920F931F93FC01E7848EE12E
:1008F000E89E700111248685E80EF11C86E060E018
:100900000E949A350FE316E0C80164E00E941E2C95
:10091000C80163E00E941E2CC80165E00E941E2CE5
:10092000C8016F2D0E941E2CC80166E00E941E2C7B
:10093000C8016E2D0E941E2C1F910F91FF90EF9009
:100940000895FC0164874587668747870E94710484
:1009500008951F93CF93DF93EC01162F6C3731F47A
:100960000E945504CE010E9471040AC08FE396E0F4
:1009700067E00E941E2C8FE396E0612F0E941E2CE0
:1009800081E090E0DF91CF911F910895EF92FF9267
:100990000F931F938EE1489F70011124E60EF11C06
:1009A00086E060E00E949A350FE316E0C80165E03A
:1009B0000E941E2CC8016F2D0E941E2CC80166E0EB
:1009C0000E941E2CC8016E2D0E941E2C1F910F919B
:1009D000FF90EF9008950F931F9386E060E00E94D0
:1009E0009A350FE316E0C80164E00E941E2CC8018E
:1009F00064E00E941E2C61E070E080E090E00E94C4
:100A0000A23486E061E00E949A351F910F9108950B
:100A10001F93CF93DF93EC01188A16E0198B81E5C1
:100A200096E060E973E00E940433813049F480E489
:100A3000888B88E0898B86E060E00E949A3502C04E
:100A4000188A198B86E060E00E949A35DF91CF9179
:100A50001F9108950F931F93CF93DF93EC0186E0CE
:100A600061E00E945B3582E060E00E945B3582E0DD
:100A700061E00E949A35CE010E94080586E060E0A0
:100A80000E949A358FE396E06CEE0E941E2C8FE355
:100A900096E06FEF0E941E2C182F8FE396E060E027
:100AA0000E941E2C688962608FE396E00E941E2CD3
:100AB00062E370E080E090E00E94A2348FE396E071
:100AC0006CE60E941E2C1F7E8FE396E0612F0E9431
:100AD0001E2C8889803419F00DE010E002C000E17E
:100AE00010E01092CF031092CE0317C06091CE0396
:100AF0007091CF03605F8FE396E00E941E2C8FE31E
:100B000096E069E00E941E2C8091CE039091CF0365
:100B100001969093CF038093CE038091CE03909162
:100B2000CF038017910714F3CE0161E00E943004D7
:100B3000DF91CF911F910F9108951F920F920FB6E1
:100B40000F9211242F933F934F938F939F93EF9383
:100B5000FF934091C60020914006309141062F5FDF
:100B60003F4F809144069091450628233923809178
:100B70004206909143062817390779F08091400684
:100B800090914106E0914606F0914706E80FF91F63
:100B900040833093410620934006FF91EF919F914F
:100BA0008F914F913F912F910F900FBE0F901F90FB
:100BB00018951F920F920FB60F9211242F933F9307
:100BC0008F939F93EF93FF9320914A0630914B06AA
:100BD000809148069091490628173907E9F08091DD
:100BE0004A0690914B06E0914E06F0914F06E80FB1
:100BF000F91F80818093C60080914A0690914B0630
:100C0000019620914C0630914D06822393239093B8
:100C10004B0680934A0610C0209148063091490641
:100C200080914A0690914B062817390729F4809144
:100C3000C1008F7D8093C100FF91EF919F918F91B3
:100C40003F912F910F900FBE0F901F901895CF934B
:100C5000DF93482FEB018091B505833009F45FC025
:100C6000843028F48130D1F0823068F50AC08530B4
:100C700009F4D4C0853008F4AAC0863009F0F4C065
:100C8000EBC04C3309F0F0C081E08093B505488398
:100C9000E2E1F1E0E491E093B405E6C0842F90E056
:100CA000E091B405F0E0E827F927EA52FF4FE4911C
:100CB000E093B405887F9070809741F582E080933F
:100CC000B505498329C0242F30E0E091B405F0E058
:100CD000E227F327EA52FF4FE491E093B4058091B5
:100CE000B3058F5F8093B305823018F43B832A836A
:100CF000BBC0922F88272A813B81820F931F9B8341
:100D00008A830A978F3F910521F018F01092B5055C
:100D1000ABC083E08093B5051092B305A5C0E42F66
:100D2000F0E08091B40590E0E827F927EA52FF4F00
:100D3000E491E093B4056091B3056F5F6093B305F0
:100D4000623089F0633020F4613009F08DC006C054
:100D5000633091F0643009F087C022C0842F90E0A6
:100D6000A0E0B0E018C0242F30E040E050E0542F65
:100D7000432F322F222707C0242F30E040E050E0DD
:100D8000A901332722278C819D81AE81BF81820FEB
:100D9000931FA41FB51F8C839D83AE83BF8364C044
:100DA000242F30E040E050E0522F44273327222701
:100DB0008C819D81AE81BF81820F931FA41FB51FBF
:100DC0008C839D83AE83BF836093B505A5CF242F0D
:100DD00030E0E091B405F0E0E227F327EA52FF4F5C
:100DE000E491E093B4056091B3056F5F6093B30540
:100DF000613019F06230C1F503C03987288734C0EB
:100E0000922F882728853985280F391F3987288709
:100E10008A819B810A97F1F085E07CCFE42FF0E096
:100E20008091B40590E0E827F927EA52FF4FE4915A
:100E3000E093B4052091B3052F5F2093B30530E014
:100E4000FB01E20FF31F41878A819B810A972817D4
:100E5000390750F086E05ECFC75FDE4F4883C95048
:100E6000D14087E08093B5058091B505873069F45E
:100E70001092B505C75FDE4F9091B4058881C950C7
:100E8000D140981711F48A8101C080E0DF91CF91A1
:100E900008958F92AF92CF92EF92FF920F931F938C
:100EA0008EE394E060E045EC50E024EC30E000ECB0
:100EB00010E0B1ECEB2EF12CCC24C394A8E9AA2EBF
:100EC000F0E28F2E0E94742C8BE594E00E940704C0
:100ED0001F910F91FF90EF90CF90AF908F9008955A
:100EE000AF92BF92CF92DF92EF92FF920F931F9338
:100EF000DF93CF93CDB7DEB72A970FB6F894DEBF56
:100F00000FBECDBF03E0A02EB12CAC0EBD1E17E06E
:100F1000C12ED12CCC0EDD1EA3C20E94943460528F
:100F20007E448040904098F40E9494346958734104
:100F30008040904060F01A3011F01D3031F4809103
:100F4000B2058F5F8093B20502C01092B205812F67
:100F500068EA74E00E942706882309F481C2809120
:100F6000AC049091AD04A091AE04B091AF048A3767
:100F7000E6EF9E07E1EFAE07EDE9BE0709F425C1F4
:100F80008B37F6EF9F07F1EFAF07FDE9BF07C8F416
:100F900088322EE5920722EDA20724E2B20709F477
:100FA000C8C0863AEEE09E07E2E1AE07E8E4BE077D
:100FB00009F4E5C18C5A9A4CA64EB04209F050C2D1
:100FC0003CC2803824E7920720E1A20724ECB20754
:100FD00009F4BCC08138E4E79E07E0E1AE07E4EC29
:100FE000BE0738F48C569846A344B24C09F038C278
:100FF000ABC1843629ED920720EEA20727EDB20798
:1010000039F084579743A44DBE4D09F029C20CC254
:101010000E94943460936E0470936F048093700404
:101020009093710483E080936D048091C204909149
:10103000C304A091C404B091C5048F839887A98785
:10104000BA876F81788589859A850E945D3770930C
:101050007304609372048091C6049091C704A091B8
:10106000C804B091C9048F839887A987BA876F8114
:10107000788589859A850E945D37709375046093A1
:1010800074048091CA049091CB04A091CC04B091D7
:10109000CD048F839887A987BA876F8178858985E2
:1010A0009A850E945D378B01709377046093760474
:1010B000609178047091790480917A0490917B0416
:1010C00020E030E040E050E00E94EE36882331F02E
:1010D000809180048150833008F0BFC1B801882717
:1010E00077FD8095982F0E9490377B018C0160934B
:1010F0007C0470937D0480937E0490937F0420E0B1
:1011000030E040E050E00E94EE3688230CF0A5C1AC
:10111000C801B70120E030E044EB53E40E942836D8
:1011200060937C0470937D0480937E0490937F048D
:1011300094C18091B204809381048091B40480931F
:1011400082048091B304809383048AC18091B204A5
:101150009091B304A091B404B091B504F6018083DA
:101160009183A283B3836F81788589859A8520E0F6
:1011700030E048EC52E40E94C3380E945D3770931F
:10118000850460938404693C710520F01092850405
:10119000109284048091CC049091CD0490938704A4
:1011A000809386048091CE049091CF04909389041B
:1011B000809388048091D8049091D9049A8389837C
:1011C00090934B0380934A034BC16091B20470919A
:1011D000B3048091B4049091B5040E94903720E844
:1011E00036E948E15BE40E94F53660937804709339
:1011F000790480937A0490937B046091B604709193
:10120000B7048091B8049091B904D5016C931196FC
:101210007C93119712968C93129713969C930E942D
:10122000903720E836E948E15BE40E94F5366093A8
:101230008A0470938B0480938C0490938D04809126
:10124000D70480938E048091D60480938F0480917C
:1012500080048150833068F5609176047091770442
:10126000882777FD8095982F0E9490377B018C010D
:1012700060937C0470937D0480937E0490937F043C
:1012800020E030E040E050E00E94EE36882354F544
:10129000C801B70120E030E044EB53E40E94283657
:1012A00060937C0470937D0480937E0490937F040C
:1012B00019C08091C2049091C304A091C404B0915C
:1012C000C504F60180839183A283B3838F819885BF
:1012D000A985BA8580937C0490937D04A0937E04B5
:1012E000B0937F048091BA049091BB04A091BC0498
:1012F000B091BD04F60180839183A283B3838F8173
:101300009885A985BA858093900490939104A093C1
:101310009204B09393048091C6049091C704A09165
:10132000C804B091C90480839183A283B3838F8161
:101330009885A985BA858093940490939504A09389
:101340009604B09397048CC08091BA049091BB042A
:10135000A091BC04B091BD04F60180839183A28367
:10136000B3838F819885A985BA85B05880939804F6
:1013700090939904A0939A04B0939B0471C08091B8
:10138000B2049091B304A091B404B091B504F601F5
:1013900080839183A283B3836F81788589859A85C1
:1013A0000E945D37882777FD8095982F0E9490379F
:1013B0007B018C0160939C0470939D0480939E0438
:1013C00090939F0460914C0370914D0380914E0364
:1013D00090914F0320E03CE34CE156EC0E94EE3646
:1013E000882341F4E0924C03F0924D0300934E03A6
:1013F00010934F038091B6049091B704A091B80464
:10140000B091B904F60180839183A283B3838F8165
:101410009885A985BA858093A0049093A104A09390
:10142000A204B093A3041CC0809118058093A40467
:101430008091CC048093A50413C02091BC04209318
:10144000A6049091C0049093A7048091BE04809359
:101450008004913011F4213019F0DD24D3942AC096
:101460008EE394E00E94C62C1816190614F58EE33C
:1014700094E00E94F62C182F80916D04882309F0C7
:1014800066CD4BCD10926D04DD24D3948D2D90E06C
:101490002A960FB6F894DEBF0FBECDBFCF91DF9175
:1014A0001F910F91FF90EF90DF90CF90BF90AF9082
:1014B0000895DD24E0906E04F0906F0400917004B4
:1014C0001091710480E197E2A0E0B0E0E80EF91E0F
:1014D0000A1F1B1F0E949434E616F7060807190717
:1014E00088F2D4CF60917C0470917D0480917E0459
:1014F00090917F0420E030E040E152E40E94C33844
:1015000020E030E044EB53E40E94F5360E94263997
:101510000E945D379B012550304037FF03C09B017F
:10152000215E3F4FA5ECB5E0F901EE56FC4F8081FE
:101530008C932F5F3F4F2432310514F020E030E0D0
:10154000119685E0A03DB80779F71C9208952F9277
:101550003F924F925F926F927F928F929F92AF9243
:10156000BF92CF92DF92EF92FF920F931F93DF9380
:10157000CF9300D000D000D0CDB7DEB7182F662EA5
:1015800020917204309173042A35310530F0C9017D
:101590008D549F4F89359105E8F437FF02C02D54D3
:1015A0003F4FC90137FF03C0909581959F4F8A3106
:1015B00091053CF094E4892E912C89ED282E312C54
:1015C0001DC00A975CF10BE3802E912CB2ED2B2EFF
:1015D000312C20C02B35310514F0235B3040C9017C
:1015E00037FF03C0909581959F4F8A31910554F044
:1015F000A6E58A2E912CFCED2F2E312CE7E0AE2EA5
:10160000B12C15C00A9754F07DE4872E912C64ED1F
:10161000262E312C58E0A52EB12C09C045E0842E91
:10162000912C38E3232E312C29E0A22EB12C60918D
:10163000740470917504882777FD8095982F0E9417
:10164000903727EA32E94BE25CEB0E94C3380E94F4
:10165000973920E030E040EA50E40E94C33820E0AF
:1016600030E040E951E40E94C3380E94263920E06E
:1016700030E044E352E40E9428360E945D37712E28
:101680009EEBC92E9FEFD92E9B01442737FD409535
:10169000542F29833A834B835C838BE5482E84E067
:1016A000582E4AEF5FEF240E351E60917204709140
:1016B0007304882777FD8095982F0E94903725E343
:1016C0003AEF4EE85CE30E94C3380E9497397B01F1
:1016D0008C01B601882777FD8095982F0E9490375E
:1016E0009B01AC01C801B7010E94C3387B018C018A
:1016F00069817A818B819C810E9490379B01AC012A
:10170000C801B7010E9428360E945D379B01CB01BA
:1017100001978A35910508F071C062E170E00E947E
:10172000083A8B012F5F3F4FAEEEBFEF6A9FC001BB
:101730006B9F900D7A9F900D1124820F931F62E092
:1017400070E00E94083A6D837E83E62CE01A4E2DED
:101750004C5F8BE594E0672D0E94C60400D000D05A
:1017600000D0EDB7FEB73196ADB7BEB712965C921A
:101770004E92119720E031E0338322838D819E8148
:10178000880D991D958384830E94532C4DB75EB7B5
:101790004A5F5F4F0FB6F8945EBF0FBE4DBF8D819D
:1017A0009E818A159B0554F1043011053CF593E0A8
:1017B000E90EC201672D4E2D0E94C60400D000D054
:1017C00000D0EDB7FEB73196ADB7BEB712965C92BA
:1017D0004E92119720E031E0338322834D815E8168
:1017E000420D531D558344830E94532C8DB79EB7E1
:1017F00006960FB6F8949EBF0FBE8DBFACE0B0E06A
:10180000CA0EDB1E7394BEE4CB16D10409F04DCF93
:1018100026960FB6F894DEBF0FBECDBFCF91DF91F5
:101820001F910F91FF90EF90DF90CF90BF90AF90FE
:101830009F908F907F906F905F904F903F902F90F0
:101840000895CF92DF92EF92FF920F931F93823011
:1018500010F402E002C0082F000F6091B6057091ED
:10186000B7058091B8059091B9050E9490376B013A
:101870007C0120E030E44CE156E40E94EE36202F5B
:1018800030E04BE554E0882334F58DB79EB70E97D2
:101890000FB6F8949EBF0FBE8DBFEDB7FEB7319661
:1018A000ADB7BEB712965C934E93119783E091E06B
:1018B0009383828322573F4F358324832F5F3F4F8B
:1018C00037832683C086D186E286F3868DE890E052
:1018D0009587848734C08DB79EB70E970FB6F8945E
:1018E0009EBF0FBE8DBF0DB71EB70F5F1F4FADB7A9
:1018F000BEB712965C934E9311978FE091E0F8017A
:101900009383828322573F4F358324832F5F3F4F3A
:1019100037832683C701B60120E030E04AE754E46C
:101920000E94F536D80118966D937D938D939C9304
:101930001B978DEF90E01D969C938E931C970E94B1
:10194000532CEDB7FEB73E960FB6F894FEBF0FBE10
:10195000EDBF1F910F91FF90EF90DF90CF90089512
:10196000CF93DF93AC01E0918604F091870420913E
:10197000BA053091BB05C9018C599F4F8E179F073F
:101980001CF4EA01219609C024563040E217F307FF
:1019900014F0EA0102C0EA012197842F90E0C817F1
:1019A000D90729F081E596E04C2F0E940B33CE0138
:1019B000DF91CF910895CF92DF92EF92FF920F9334
:1019C0001F93CF93DF937C016B01EA0100D000D01D
:1019D0000BE514E0EDB7FEB7128301838FED91E0C4
:1019E000948383830E94422C0F900F900F900F904E
:1019F000CA30D10581F0C436D10521F0C130D105FE
:101A000019F512C000D000D0EDB7FEB712830183E4
:101A10008DED91E011C000D000D0EDB7FEB712837C
:101A200001838AED91E008C000D000D0EDB7FEB789
:101A30001283018386ED91E0948383830E94422C7C
:101A40000F900F900F900F90409186045091870453
:101A50002091BA053091BB05C9018C599F4F84175D
:101A600095071CF4CE0DDF1D0BC0245630404217E5
:101A7000530714F0E70116C0C7018C1B9D0BEC0146
:101A8000CE15DF0579F081E596E0B6014C2F0E9476
:101A90000B330894C11CD11C81E596E0B6014D2F93
:101AA0000E940B33CE01DF91CF911F910F91FF90D8
:101AB000EF90DF90CF900895CF92DF92EF92FF9258
:101AC0000F931F937C01D62EC72E0BE514E0C8019F
:101AD0006E2D4D2D0E94A10400D000D0EDB7FEB7B1
:101AE0001283018383E392E0948383830E94422CD8
:101AF000EDB7FEB71283018383E292E09483838380
:101B00000E94422CEDB7FEB71283018383E192E07D
:101B1000948383830E94422CEDB7FEB71283018326
:101B200083E092E0948383830E94422CEDB7FEB75A
:101B30001283018384EF91E0948383830E94422C7B
:101B40000F900F900F900F90C8010E945504C7018D
:101B500001966D2D7C2D0E94A70A1F910F91FF9079
:101B6000EF90DF90CF9008950F931F93282F462F6B
:101B70000BE514E0C801622F0E94A1042091BC056E
:101B80003091BD058DB79EB70C970FB6F8949EBFE8
:101B90000FBE8DBFEDB7FEB73196ADB7BEB712968B
:101BA0001C930E9311978BE191E09383828383EBD7
:101BB00090E095838483C9016CE370E00E94083A49
:101BC000CB016CE370E00E94083A978386838AE336
:101BD00090E091878087C9016CE370E00E94083A29
:101BE000938782870E94532C8DB79EB70C960FB6B1
:101BF000F8949EBF0FBE8DBFC8010E9455041F916F
:101C00000F9108950F931F93282F462F0BE514E093
:101C1000C801622F0E94A1048DB79EB70C970FB622
:101C2000F8949EBF0FBE8DBFEDB7FEB73196ADB72E
:101C3000BEB712961C930E93119787E291E093839F
:101C4000828383EE90E0958384838091A0049091B9
:101C5000A104A091A204B091A30486839783A087D6
:101C6000B18780EB90E0938782870E94532C8DB7D9
:101C70009EB70C960FB6F8949EBF0FBE8DBFC801DD
:101C80000E9455041F910F9108950F931F93282FC1
:101C9000462F0BE514E0C801622F0E94A1048DB706
:101CA0009EB70C970FB6F8949EBF0FBE8DBFEDB7D1
:101CB000FEB73196ADB7BEB712961C930E9311972F
:101CC00081E391E09383828387EB90E09583848323
:101CD0008091500390915103A0915203B09153030E
:101CE00086839783A087B18785E290E09387828778
:101CF0000E94532C8DB79EB70C960FB6F8949EBFDA
:101D00000FBE8DBFC8010E9455041F910F91089509
:101D1000EF92FF920F931F93282F462F3BE5E32E60
:101D200034E0F32EC701622F0E94A1048DB79EB745
:101D30000C970FB6F8949EBF0FBE8DBF0DB71EB7A0
:101D40000F5F1F4FEDB7FEB7F282E1828BE391E0A8
:101D5000F8019383828384EE90E09583848360917D
:101D6000BE057091BF05882777FD8095982F0E944A
:101D700090372AE037ED43E25CE30E94C338F80174
:101D800066837783808791878FE890E09387828747
:101D90000E94532C8DB79EB70C960FB6F8949EBF39
:101DA0000FBE8DBFC7010E9455041F910F91FF9078
:101DB000EF900895CF92DF92EF92FF920F931F93CF
:101DC000CF93DF93282F462F8BE594E0622F0E945C
:101DD000A104C090C005D090C105E090C205F0906C
:101DE000C305C0915403D09155038091C40590E080
:101DF000805D9E4F8C9FB0018D9F700D9C9F700DDC
:101E00001124882777FD8095982F0E94903720E035
:101E100030E048EC52E40E94F5369B01AC01C7016A
:101E2000B6010E94EE36181614F428EB01C024EB1C
:101E30008DB79EB740970FB6F8949EBF0FBE8DBF6B
:101E4000EDB7FEB731960BE514E0ADB7BEB712960D
:101E50001C930E93119785E491E093838283D5833D
:101E6000C48380E890E097838683822F992787FD3B
:101E7000909591878087C286D386E486F5868EE822
:101E800090E0978786870E94532C8DB79EB7409627
:101E90000FB6F8949EBF0FBE8DBFC8010E945504B7
:101EA000DF91CF911F910F91FF90EF90DF90CF9036
:101EB00008950F931F93CF93DF93282F462F8BE521
:101EC00094E0622F0E94A10480918304882319F476
:101ED000C3E5D1E057C0813019F4C7E5D1E052C065
:101EE000823019F4CBE5D1E04DC0833019F4CFE551
:101EF000D1E048C0843019F4C3E6D1E043C0853056
:101F000019F4C7E6D1E03EC0863019F4CBE6D1E043
:101F100039C0873019F4CFE6D1E034C0883019F4E5
:101F2000C3E7D1E02FC0893019F4C7E7D1E02AC058
:101F30008A3019F4CBE7D1E025C08B3019F4CFE714
:101F4000D1E020C08C3019F4C3E8D1E01BC08D3043
:101F500019F4C7E8D1E016C08E3019F4CBE8D1E00F
:101F600011C08F3019F4CFE8D1E00CC0803119F4E2
:101F7000C3E9D1E007C0813119F0C7E9D1E002C05F
:101F8000C8E9D1E08150863090F4809182048823A2
:101F900071F00E9494342CE231E040E050E00E9465
:101FA0001B3A20FF02C024E003C020E201C020EE63
:101FB0008DB79EB708970FB6F8949EBF0FBE8DBF22
:101FC000EDB7FEB731960BE514E0ADB7BEB712968C
:101FD0001C930E9311978CE991E093838283822F57
:101FE000992787FD909595838483D783C6830E9424
:101FF000532C8DB79EB708960FB6F8949EBF0FBEB0
:102000008DBFC8010E945504DF91CF911F910F91A0
:1020100008950F931F93282F462F0BE514E0C80156
:10202000622F0E94A1048DB79EB70A970FB6F8944D
:102030009EBF0FBE8DBFEDB7FEB73196ADB7BEB731
:1020400012961C930E93119781EA91E093838283F9
:1020500087E890E09583848380918404909185043F
:102060009783868385E290E0918780870E94532C36
:102070008DB79EB70A960FB6F8949EBF0FBE8DBF60
:10208000C8010E9455041F910F9108950F931F934B
:10209000282F462F0BE514E0C801622F0E94A104EF
:1020A0008DB79EB708970FB6F8949EBF0FBE8DBF31
:1020B000EDB7FEB73196ADB7BEB712961C930E932F
:1020C00011978BEA91E093838283809174049091BD
:1020D00075049583848381EB90E0978386830E94C7
:1020E000532C8DB79EB708960FB6F8949EBF0FBEBF
:1020F0008DBFC8010E9455041F910F9108950F9341
:102100001F93282F462F0BE514E0C801622F0E9471
:10211000A1048DB79EB708970FB6F8949EBF0FBE67
:102120008DBFEDB7FEB73196ADB7BEB712961C9313
:102130000E9311978BEA91E09383828380917204CE
:10214000909173049583848382EB90E097838683D8
:102150000E94532C8DB79EB708960FB6F8949EBF79
:102160000FBE8DBFC8010E9455041F910F910895A5
:102170000F931F93282F462F0BE514E0C801622F01
:102180000E94A1048DB79EB70E970FB6F8949EBF1C
:102190000FBE8DBFEDB7FEB73196ADB7BEB7129685
:1021A0001C930E93119781EB91E09383828381EED0
:1021B00090E0958384838091A404992787FD90956E
:1021C000978386838CE890E0918780878091A5042F
:1021D000828713868BE890E0958784870E94532C32
:1021E0008DB79EB70E960FB6F8949EBF0FBE8DBFEB
:1021F000C8010E9455041F910F9108950F931F93DA
:10220000282F462F0BE514E0C801622F0E94A1047D
:102210008DB79EB742970FB6F8949EBF0FBE8DBF85
:10222000EDB7FEB73196ADB7BEB712961C930E93BD
:1022300011978FEB91E09383828380ED91E09583FA
:10224000848380917C0490917D04A0917E04B09160
:102250007F0486839783A087B18780EB90E0938784
:10226000828780ED90E09587848785EC95E097875D
:10227000868781ED90E0918B808B0E94532C8DB7E7
:102280009EB742960FB6F8949EBF0FBE8DBFC80191
:102290000E9455041F910F9108950F931F93282FAB
:1022A000462F0BE514E0C801622F0E94A1048DB7F0
:1022B0009EB70C970FB6F8949EBF0FBE8DBFEDB7BB
:1022C000FEB73196ADB7BEB712961C930E93119719
:1022D00087E291E09383828386E190E09583848313
:1022E0008091980490919904A0919A04B0919B04D4
:1022F00086839783A087B18788E890E09387828759
:102300000E94532C8DB79EB70C960FB6F8949EBFC3
:102310000FBE8DBFC8010E9455041F910F910895F3
:10232000CF92DF92EF92FF920F931F93CF93DF93A1
:10233000282F462FCBE5D4E0CE01622F0E94A104C6
:10234000C090D105D090D205E090D305F090D4058F
:10235000C701B6010E945D37695E734080409040BE
:102360008CF18DB79EB70C970FB6F8949EBF0FBE39
:102370008DBF0DB71EB70F5F1F4FADB7BEB712961B
:10238000DC93CE9311978BE391E0F80193838283E2
:102390008EEF90E095838483C701B60120E030E0A2
:1023A0004AE754E40E94F536D80116966D937D9362
:1023B0008D939C9319978DEF90E01B969C938E9331
:1023C0001A9721C08DB79EB70C970FB6F8949EBF91
:1023D0000FBE8DBFEDB7FEB73196ADB7BEB7129643
:1023E000DC93CE9311978AED91E0938382838EEFF5
:1023F00090E095838483C682D782E086F1868DE85B
:1024000090E0938782870E94532CEDB7FEB73C96ED
:102410000FB6F894FEBF0FBEEDBF8BE594E00E94AF
:102420005504DF91CF911F910F91FF90EF90DF90B6
:10243000CF900895EF92FF920F931F93282F462F6E
:102440005BE5E52E54E0F52EC701622F0E94A10442
:102450008DB79EB70C970FB6F8949EBF0FBE8DBF79
:102460000DB71EB70F5F1F4FEDB7FEB7F282E182C7
:1024700087E291E0F8019383828388EE90E0958370
:1024800084836091D5057091D6058091D705909190
:10249000D80526E636E646E650E40E94C338F80141
:1024A000668377838087918781E890E0938782872E
:1024B0000E94532C8DB79EB70C960FB6F8949EBF12
:1024C0000FBE8DBFC7010E9455041F910F91FF9051
:1024D000EF900895EF92FF920F931F93282F462FAE
:1024E0006BE5E62E64E0F62EC701622F0E94A10480
:1024F0008DB79EB70C970FB6F8949EBF0FBE8DBFD9
:102500000DB71EB70F5F1F4FEDB7FEB7F282E18226
:1025100087E291E0F8019383828389EE90E09583CE
:1025200084836091940470919504809196049091B5
:10253000970426E636E646E650E40E94C338F801E2
:10254000668377838087918781E890E0938782878D
:102550000E94532C8DB79EB70C960FB6F8949EBF71
:102560000FBE8DBFC7010E9455041F910F91FF90B0
:10257000EF900895CF92DF92EF92FF920F931F9307
:10258000282F462FBBE5CB2EB4E0DB2EC601622FF1
:102590000E94A10460919004709191048091920432
:1025A000909193042DB73EB7245130400FB6F89464
:1025B0003EBF0FBE2DBF0DB71EB70F5F1F4FEDB74C
:1025C000FEB7D282C18224EE31E0F8013383228348
:1025D00025E830E03583248366837783808791877D
:1025E000ADE8EA2EF12CF386E28627EE30E035875F
:1025F00024872091D9053091DA054091DB0550916F
:10260000DC050E942736F80166877787808B918BDF
:10261000F38AE28A0E94532C2DB73EB72C5E3F4FBF
:102620000FB6F8943EBF0FBE2DBFC6010E945504E1
:102630001F910F91FF90EF90DF90CF900895EF9250
:10264000FF920F931F93282F462F1BE5E12E14E0D6
:10265000F12EC701622F0E94A1048DB79EB70C977F
:102660000FB6F8949EBF0FBE8DBF0DB71EB70F5F9C
:102670001F4FEDB7FEB7F282E18288EF91E0F801DB
:102680009383828386EE90E09583848360919C049B
:1026900070919D0480919E0490919F0420914C0321
:1026A00030914D0340914E0350914F030E942736C5
:1026B000F80166837783808791878DE890E0938720
:1026C00082870E94532C8DB79EB70C960FB6F89454
:1026D0009EBF0FBE8DBFC7010E9455041F910F9171
:1026E000FF90EF9008950F931F93282F462F0BE52F
:1026F00014E0C801622F0E94A1048091DD050E94B0
:10270000210CC8010E9455041F910F910895CF928A
:10271000DF92EF92FF920F931F93CF93DF93282FB7
:10272000462FCBE5D4E0CE01622F0E94A104609138
:10273000DE057091DF058091E0059091E1050E9432
:1027400090376B017C0120E030E44CE156E40E94BC
:10275000EE36882314F58DB79EB70C970FB6F89414
:102760009EBF0FBE8DBFEDB7FEB73196ADB7BEB7FA
:102770001296DC93CE93119788EF91E09383828336
:1027800082E190E095838483C682D782E086F186D9
:102790008DE890E09387828730C08DB79EB70C9705
:1027A0000FB6F8949EBF0FBE8DBF0DB71EB70F5F5B
:1027B0001F4FADB7BEB71296DC93CE93119782E050
:1027C00092E0F8019383828382E190E09583848391
:1027D000C701B60120E030E04AE754E40E94F53634
:1027E000D80116966D937D938D939C9319978DEFD9
:1027F00090E01B969C938E931A970E94532CEDB7F2
:10280000FEB73C960FB6F894FEBF0FBEEDBF8BE54A
:1028100094E00E945504DF91CF911F910F91FF909A
:10282000EF90DF90CF900895BF92CF92DF92EF921A
:10283000FF920F931F93CF93DF93282F462F8BE5A3
:1028400094E0622F0E94A1042091E2053091E305FB
:1028500037FF02C04AE801C047EFC091E405D091BC
:10286000E505D7FF03C06AE8B62E02C058EFB52EC3
:102870008DB79EB74C970FB6F8949EBF0FBE8DBF15
:102880000DB71EB70F5F1F4F9BE5C92E94E0D92EE1
:10289000EDB7FEB7D282C1828CE092E0F80193835B
:1028A0008283842F992787FD909595838483B9012E
:1028B000882777FD8095982F0E949037F8016683CE
:1028C0007783808791878DE8E82EF12CF386E28666
:1028D0008B2D992787FD909595878487BE01882742
:1028E00077FD8095982F0E949037F801668777874B
:1028F000808B918BF38AE28A8BEF90E0958B848BAF
:102900006091E6057091E7058091E8059091E905F1
:1029100020E030E04AE754E40E94F536F801668B87
:10292000778B808F918F84EF90E0938F828F0E94BE
:10293000532C8DB79EB74C960FB6F8949EBF0FBE22
:102940008DBFC6010E945504DF91CF911F910F9159
:10295000FF90EF90DF90CF90BF9008950F931F935B
:10296000282F462F0BE514E0C801622F0E94A10416
:102970008DB79EB70C970FB6F8949EBF0FBE8DBF54
:10298000EDB7FEB73196ADB7BEB712961C930E9356
:1029900011978AE292E093838283809178049091E8
:1029A0007904A0917A04B0917B0484839583A683F3
:1029B000B78380918A0490918B04A0918C04B0918C
:1029C0008D0480879187A287B3870E94532C8DB78F
:1029D0009EB70C960FB6F8949EBF0FBE8DBFC80170
:1029E0000E9455041F910F9108950F931F93282F54
:1029F000462F8BE594E0622F0E94A10480918F0402
:102A0000282F30E0823030F474E0220F331F7A95A3
:102A1000E1F702C02150304000D000D000D0EDB727
:102A2000FEB731960BE514E0ADB7BEB712961C9316
:102A30000E93119780E091E0938382833583248302
:102A40000E94532C8DB79EB706960FB6F8949EBF82
:102A50000FBE8DBFC8010E9455041F910F910895AC
:102A60000F931F93282F462F0BE514E0C801622F08
:102A70000E94A1048DB79EB708970FB6F8949EBF29
:102A80000FBE8DBFEDB7FEB73196ADB7BEB712968C
:102A90001C930E93119786E392E0938382838FE0D9
:102AA00090E09583848380918E04868317820E94B0
:102AB000532C8DB79EB708960FB6F8949EBF0FBEE5
:102AC0008DBFC8010E9455041F910F9108950F9367
:102AD0001F930BE514E0C80161E047E00E94A104E8
:102AE00000D000D0EDB7FEB71283018383E492E0FB
:102AF000948383830E94422C0F900F900F900F902D
:102B0000C8010E9455041F910F9108950F931F93C0
:102B1000282F462F0BE514E0C801622F0E94A10464
:102B200000D000D0EDB7FEB71283018385E592E0B7
:102B3000948383830E94422C0F900F900F900F90EC
:102B4000C8010E9455041F910F910895EF92FF92C2
:102B50000F931F93CF93DF930E9494342091F3053A
:102B60003091F4054091F5055091F6052617370789
:102B70004807590708F0E6C20E9494346C507E4F13
:102B80008F4F9F4F6093F3057093F4058093F50585
:102B90009093F6050BE514E0C8010E94EB04C80110
:102BA00065E043E00E94A10400D000D0ADB7BEB7FD
:102BB00012961C930E9311978AEE92E014969C93B2
:102BC0008E9313970E94422C0F900F900F900F90AE
:102BD0008091BA059091BB05892B31F08091EA056F
:102BE0009091EB05892B81F4809186049091870464
:102BF0009093BB058093BA058091880490918904D5
:102C00009093EB058093EA05209188043091890424
:102C10004091EA055091EB05C90184569040481750
:102C2000590724F48091F2058F5F08C02C593F4F5B
:102C3000241735072CF48091F20581508093F2051A
:102C40008091F205823014F482E003C08E301CF0D3
:102C50008DE08093F2058091F205873009F4F4C08D
:102C600088308CF4843009F494C0853034F4823098
:102C700091F1833009F062C222C08530E9F08630DC
:102C800009F05CC225C08A3009F451C18B3034F49C
:102C9000883079F0893009F051C217C08C3091F03A
:102CA0008C3024F08D3009F049C2C5C1C4E6D0E0B3
:102CB000C9C1C4E6D0E042C1C4E6D0E0CCC0CAE09D
:102CC000D0E00BC084E690E0B8C184E690E031C16A
:102CD00084E690E0BBC0C4E6D0E000D000D0BBE505
:102CE000EB2EB4E0FB2EEDB7FEB7F282E1828BED66
:102CF00092E0948383830E94422C8DB79EB70897FD
:102D00000FB6F8949EBF0FBE8DBF0DB71EB70F5FF5
:102D10001F4FADB7BEB71296FC92EE9211978CE39F
:102D200092E0F80193838283609156037091570378
:102D3000882777FD8095982F0E949037D8011496A8
:102D40006D937D938D939C93179782E890E01996ED
:102D50009C938E93189780E290E01B969C938E93A1
:102D60001A970E94532CEDB7FEB73C960FB6F89415
:102D7000FEBF0FBEEDBF80915603909157036DEFDC
:102D800073E0AE010E94DB0C9093570380935603CF
:102D9000D5C100D000D0ABE5EA2EA4E0FA2EADB745
:102DA000BEB71296FC92EE9211978BEB92E01496BE
:102DB0009C938E9313970E94422CEDB7FEB73897E1
:102DC0000FB6F894FEBF0FBEEDBF0DB71EB70F5F75
:102DD0001F4FF282E18284E492E0D80113969C9323
:102DE0008E9312976091C40570E0645D7E4F8827D2
:102DF00077FD8095982F0E94903720E030E048ECD6
:102E000052E40E94F536F8016483758386839783C4
:102E100086E790E09187808780E290E093878287C1
:102E20000E94532C8DB79EB70C960FB6F8949EBF98
:102E30000FBE8DBF8091C40590E060E873E00E94F2
:102E4000B00C8093C4057AC18AE090E06AE070E03B
:102E50000E94083AEB0100D000D00BE514E0ADB7BA
:102E6000BEB712961C930E93119780EA92E01496C7
:102E70009C938E9313970E94422CEDB7FEB7389720
:102E80000FB6F894FEBF0FBEEDBF3196ADB7BEB71B
:102E900012961C930E9311978BE391E09383828398
:102EA00082EE90E0958384838091C0059091C10566
:102EB000A091C205B091C30586839783A087B1878F
:102EC0008EE890E0938782870E94532CEDB7FEB77F
:102ED00036960FB6F894FEBF0FBEEDBF3196ADB774
:102EE000BEB712961C930E9311978CE492E09383D5
:102EF00082838091EC059091ED05958384830E94F7
:102F0000532CEDB7FEB736960FB6F894FEBF0FBE42
:102F1000EDBF8091EC059091ED0564EF73E0AE019B
:102F20000E94DB0C9093ED058093EC0507C18AE0CD
:102F300090E06AE070E00E94083AEB0100D000D017
:102F4000FBE5EF2EF4E0FF2EADB7BEB71296FC9274
:102F5000EE92119785E892E014969C938E931397C6
:102F60000E94422CEDB7FEB738970FB6F894FEBF1B
:102F70000FBEEDBF0DB71EB70F5F1F4FF282E1828C
:102F80008BE391E0D80113969C938E93129784EE75
:102F900090E015969C938E9314976091BE05709166
:102FA000BF05882777FD8095982F0E9490372AE0EB
:102FB00037ED43E25CE30E94C338F8016683778310
:102FC000808791878FE890E0938782870E94532CB7
:102FD0008DB79EB706960FB6F8949EBF0FBE8DBFF5
:102FE000EDB7FEB73196ADB7BEB71296FC92EE9232
:102FF000119783E692E0938382838091EE0590910E
:10300000EF05958384830E94532CEDB7FEB7369667
:103010000FB6F894FEBF0FBEEDBF8091EE05909104
:10302000EF0568EF73E0AE010E94DB0C9093EF05B3
:103030008093EE0583C08AE090E06AE070E00E9431
:10304000083AEB0100D000D0EBE5EE2EE4E0FE2ED6
:10305000ADB7BEB71296FC92EE9211978AE692E057
:1030600014969C938E9313970E94422CEDB7FEB753
:1030700038970FB6F894FEBF0FBEEDBF0DB71EB761
:103080000F5F1F4FF282E1828BE391E0D80113962C
:103090009C938E93129784EE90E015969C938E935A
:1030A00014976091BE057091BF05882777FD8095C4
:1030B000982F0E9490372AE037ED43E25CE30E94AC
:1030C000C338F80166837783808791878FE890E023
:1030D000938782870E94532C8DB79EB706960FB6B2
:1030E000F8949EBF0FBE8DBFEDB7FEB73196ADB75A
:1030F000BEB71296FC92EE9211978AE792E0938304
:1031000082838091F0059091F105958384830E94DC
:10311000532CEDB7FEB736960FB6F894FEBF0FBE30
:10312000EDBF8091F0059091F10566EF73E0AE017F
:103130000E94DB0C9093F1058093F0058BE594E001
:103140000E945504DF91CF911F910F91FF90EF9056
:1031500008952F923F924F925F926F927F928F923B
:103160009F92AF92BF92CF92DF92EF92FF920F9316
:103170001F93DF93CF93CDB7DEB761970FB6F89467
:10318000DEBF0FBECDBF8E876F870E949434209123
:10319000F7053091F8054091F9055091FA05261789
:1031A00037074807590708F0FCC18091FB058823C1
:1031B000C9F0809358031092FB0581E992E0909347
:1031C0000A06809309060E949434625A7E4F8F4FFC
:1031D0009F4F6093F7057093F8058093F9059093DE
:1031E000FA0599C180915803282F30E03A8329834A
:1031F000C09081043091A6043D874091A7044C877C
:10320000D0908004E090FD05F090FE050091090645
:1032100010910A0650916D045B8380918F048B8717
:103220009091FC059A872090C0053090C105409090
:10323000C2055090C3058091C40590E0845D9E4F07
:103240002091540330915503DC01A29FC001A39F3C
:10325000900DB29F900D11246090D603B0E46B22C4
:103260007090D7037B22E091A404E987F091A50434
:10327000F8872091E2053091E3053F832E8340914A
:10328000E4055091E5055D834C83A981BA81B98B32
:10329000A88B4C01AA2497FCA094BA2CE889F98940
:1032A0003196F98BE88B39972CF021E030E0398B9F
:1032B000288B27C0488959894430510509F454C0E6
:1032C0004530510564F442305105D1F14330510588
:1032D0000CF03EC04130510509F09EC012C08889F3
:1032E00099898630910509F460C0863091050CF407
:1032F00052C08730910509F468C0089709F08CC066
:103300007CC091E09C15A0F0C91619F40EE912E0FA
:1033100015C0AD85A13049F4BC85B13031F4E2E08F
:10332000ED1518F00BEA12E009C008EB12E006C038
:10333000FC85F13009F470C005EC12E081E075C045
:103340002B81233009F468C002ED12E082E06DC0E9
:103350003B85323008F060C04A85442309F45CC0E4
:103360000FED12E083E061C0C501B4010E94903707
:1033700020E030E048EC52E40E94F5369B01AC01BD
:10338000C201B1010E94EE3688230CF045C00CEE5C
:1033900012E084E04AC051E0E516F104E9F509EFD6
:1033A00012E0EE24FF2485E040C0662011F477206F
:1033B00099F189858C3A2CF09885993668F588239F
:1033C00059F106E013E086E030C0A1E0AC1520F131
:1033D000AD1510F5B2E0DB1619F403E113E005C0FA
:1033E000E3E0DE1621F400E213E087E01EC0F4E023
:1033F000DF16D9F70DE213E0F8CF21E02C1560F4C9
:103400004E815F8157FD04C08C819D8197FF04C070
:103410000AE313E088E009C0A889B989E981FA8143
:10342000AE17BF0709F03ACFA1C0F092FE05E092B7
:10343000FD0510930A06009309068093FB0581E0C1
:103440008093FF050E94943464547D4F8F4F9F4FAB
:103450006093F7057093F8058093F9059093FA054A
:103460000E9494346854744F8F4F9F4F60930506A9
:1034700070930606809307069093080680910006D5
:1034800090910106A0910206B09103060097A10554
:10349000B10571F40E9494346059784E8F4F9F4F5C
:1034A00060930006709301068093020690930306D2
:1034B00080910406882379F40E94943420910006B8
:1034C00030910106409102065091030626173707F6
:1034D0004807590720F08BE594E00E94EB040E9416
:1034E00094342091000630910106409102065091DB
:1034F0000306261737074807590768F01092040695
:103500000AC01092FF051092000610920106109258
:103510000206109203060BE514E0C8016E854F8584
:103520000E94A10400D000D000D0EDB7FEB73196C4
:10353000ADB7BEB712961C930E93119787E493E034
:10354000938382838091090690910A0695838483F0
:103550000E94532CEDB7FEB736960FB6F894FEBF17
:103560000FBEEDBFC8010E9455041BC0F092FE05BE
:10357000E092FD0510930A06009309061092FB05E0
:103580000E9494342091050630910606409107066A
:1035900050910806261737074807590708F4B1CF96
:1035A000BACF61960FB6F894DEBF0FBECDBFCF91F4
:1035B000DF911F910F91FF90EF90DF90CF90BF9020
:1035C000AF909F908F907F906F905F904F903F90C3
:1035D0002F90089520914A0330914B03C9018950DF
:1035E00097408F5A9440D0F580918104882321F42C
:1035F00081E080930B062EC080910B06882351F545
:103600008091FF05882311F10E94943420910006D7
:1036100030910106409102065091030626173707A4
:1036200048075907B8F40E9494342091F705309167
:10363000F8054091F9055091FA0526173707480714
:10364000590740F48091FB05882321F48BE594E031
:103650000E94EB0482E080930406089584E0203BFE
:10366000380768F480910406882349F010920B060D
:103670008BE594E00E94EB04109204060895205B11
:1036800034402955324000F5809104068130E1F044
:103690008091FF05882379F00E94943420910006E0
:1036A0003091010640910206509103062617370714
:1036B0004807590748F410920B068BE594E00E94E6
:1036C000EB0481E0809304060895EF92FF920F933C
:1036D0001F9380910B06882309F060C080918104BC
:1036E000823008F05BC08091FC05813009F056C043
:1036F0008091860490918704895097400CF44EC0C5
:103700008091880490918904805B94400CF046C0BD
:103710008091780490917904A0917A04B0917B040F
:1037200080930C0690930D06A0930E06B0930F069F
:1037300080918A0490918B04A0918C04B0918D04A7
:103740008093100690931106A0931206B09313066F
:103750008091900490919104A0919204B09193046F
:103760008093D9059093DA05A093DB05B093DC052F
:1037700080919C0490919D04A0919E04B0919F041F
:1037800080934C0390934D03A0934E03B0934F034B
:1037900081E090E09093FE058093FD0580911406F2
:1037A00090911506A0911606B09117060097A105F5
:1037B000B10509F04EC0809184049091850407976B
:1037C00008F447C080918104823008F442C00E940E
:1037D00094346093140670931506809316069093A4
:1037E0001706109219061092180680911A069091E9
:1037F0001B0690931D0680931C06809150039091A8
:103800005103A0915203B0915303809359039093B5
:103810005A03A0935B03B0935C0380E090E0A0E0C8
:10382000B0E08093D1059093D205A093D305B093D7
:10383000D40580919C0490919D04A0919E04B09128
:103840009F0480934C0390934D03A0934E03B09339
:103850004F038091140690911506A0911606B09121
:1038600017060097A105B10509F462C08091840490
:1038700090918504079720F480918204882359F160
:1038800080918104823038F10E9494342091140692
:10389000309115064091160650911706621B730B66
:1038A000840B950B28EE33E040E050E00E941B3A79
:1038B0003093BD052093BC0580911A0690911B069C
:1038C00020911C0630911D06821B930B90931906C4
:1038D000809318064DC00E9494347B018C01609146
:1038E000BC057091BD05882777FD8095982F28E14C
:1038F0003CEF4FEF5FEF0E94E939E60EF71E081F1D
:10390000191FE0921406F092150600931606109304
:10391000170680911A0690911B0620911806309187
:103920001906821B930B90931D0680931C0620C0E2
:103930000E94943428EE33E040E050E00E941B3AAD
:103940003093BD052093BC051092190610921806FD
:103950008091500390915103A0915203B091530371
:103960008093590390935A03A0935B03B0935C0335
:103970000E94EA1A80910B06882319F00E94A6156E
:1039800049C28091D60380FF08C060912C048091C9
:103990002A0490E070E00E94A91880910406823009
:1039A000A8F08091FF05882309F434C20E94943462
:1039B00020910006309101064091020650910306C5
:1039C000261737074807590708F424C280910406D0
:1039D00080931E06823011F4109204068091040632
:1039E000A82FB0E0FD01E053FC4F808185FF0BC0A4
:1039F000FD01E851FC4F6081AA51BC4F8C9190E0D1
:103A000070E00E94301580910406A82FB0E0FD01FF
:103A1000E053FC4F808186FF0BC0FD01E451FC4F59
:103A20006081A651BC4F8C9190E070E00E94F5142B
:103A300080910406A82FB0E0FD01EA52FC4F80817E
:103A400083FF0BC0FD01E05DFB4F6081A25DBB4FBA
:103A50008C9190E070E00E944D118091FC058823CC
:103A600009F454C080910406A82FB0E0FD01E05392
:103A7000FC4F808187FF0BC0FD01E051FC4F60814E
:103A8000A251BC4F8C9190E070E00E94AE148091E6
:103A90000406A82FB0E0FD01EE52FC4F808184FFA8
:103AA0000BC0FD01E050FC4F6081A250BC4F8C91D7
:103AB00090E070E00E94871380910406A82FB0E088
:103AC000FD01EE52FC4F808183FF0BC0FD01E450ED
:103AD000FC4F6081A650BC4F8C9190E070E00E943A
:103AE000731380910406A82FB0E0FD01EE52FC4F45
:103AF000808186FF0BC0FD01EC5FFB4F6081AE5FF4
:103B0000BB4F8C9190E070E00E94141480910406E9
:103B1000A82FB0E0FD01EC52FC4F808187FF0BC065
:103B2000FD01EC5EFB4F6081AE5EBB4F8C9190E07F
:103B300070E00E941F138091FC05882309F459C08E
:103B400080918F04823008F454C080910406A82F1D
:103B5000B0E0FD01E852FC4F808182FF0BC0FD0107
:103B6000E85CFB4F6081AA5CBB4F8C9190E070E0F9
:103B70000E94901180910406A82FB0E0FD01EC5244
:103B8000FC4F808182FF0BC0FD01E05FFB4F608135
:103B9000A25FBB4F8C9190E070E00E94BA128091BE
:103BA0000406A82FB0E0FD01EC52FC4F808183FF9A
:103BB0000BC0FD01E85EFB4F6081AA5EBB4F8C919C
:103BC00090E070E00E946A1280910406A82FB0E095
:103BD000FD01EC52FC4F808181FF0BC0FD01E45ED2
:103BE000FB4F6081A65EBB4F8C9190E070E00E941D
:103BF0001A128091FC05882321F080918F04823075
:103C000028F48091800481508330A8F480910406C8
:103C1000A82FB0E0FD01EE52FC4F808180FF0BC069
:103C2000FD01E850FC4F6081AA50BC4F8C9190E0A0
:103C300070E00E94FE1080910406A82FB0E0FD0104
:103C4000EA52FC4F808186FF0FC08091A404882334
:103C500059F0FD01EC5CFB4F6081AE5CBB4F8C9179
:103C600090E070E00E94B81080910406A82FB0E0A8
:103C7000FD01E053FC4F808182FF0BC0FD01E0524B
:103C8000FC4F6081A252BC4F8C9190E070E00E948A
:103C90007F1080910406A82FB0E0FD01E053FC4F97
:103CA000808181FF0BC0FD01E452FC4F6081A65270
:103CB000BC4F8C9190E070E00E9446108091040609
:103CC000A82FB0E0FD01EC52FC4F808184FF0BC0B7
:103CD000FD01E05EFB4F6081A25EBB4F8C9190E0E6
:103CE00070E00E94091080910406A82FB0E0FD0149
:103CF000EC52FC4F808185FF0BC0FD01EC5DFB4F5A
:103D00006081AE5DBB4F8C9190E070E00E94590FD6
:103D100080910406A82FB0E0FD01E053FC4F8081A4
:103D200083FF0BC0FD01EC51FC4F6081AE51BC4FD5
:103D30008C9190E070E00E94DA0E80910406A82F2A
:103D4000B0E0FD01EC52FC4F808180FF0BC0FD0113
:103D5000E45FFB4F6081A65FBB4F8C9190E070E009
:103D60000E94880E80910406A82FB0E0FD01E05368
:103D7000FC4F808184FF0BC0FD01EC50FC4F608143
:103D8000AE50BC4F8C9190E070E00E94450E809147
:103D90000406A82FB0E0FD01E852FC4F808181FFAE
:103DA0000BC0FD01E45CFB4F6081A65CBB4F8C91B6
:103DB00090E070E00E94020E80910406A82FB0E00F
:103DC000FD01EE52FC4F808187FF0BC0FD01E85FD3
:103DD000FB4F6081AA5FBB4F8C9190E070E00E9426
:103DE000B40D80910406A82FB0E0FD01EC52FC4F09
:103DF000808186FF0BC0FD01E85DFB4F6081AA5DFD
:103E0000BB4F8C9190E070E00E945C0D80911E068B
:103E1000809304061F910F91FF90EF9008958BE51A
:103E200094E00E94EB040E9467150895CF93DF93FE
:103E3000EC018BE594E00E942204C817D9073CF0FE
:103E40008BE594E00E941704892B09F42397CE0197
:103E5000DF91CF910895FF920F931F9301E516E034
:103E6000C80160E873E00E9404338093C405C80170
:103E70006DEF73E00E940433F82EC8016EEF73E01B
:103E80000E940433382F20E02F0D311D309357034B
:103E900020935603C80164EF73E00E940433F82EA8
:103EA000C80165EF73E00E940433382F20E02F0D26
:103EB000311D3093ED052093EC05C80166EF73E0EA
:103EC0000E940433F82EC80167EF73E00E940433A8
:103ED000382F20E02F0D311D3093F1052093F00590
:103EE000C80168EF73E00E940433F82EC80169EF3F
:103EF00073E00E940433382F20E02F0D311D3093E2
:103F0000EF052093EE051F910F91FF900895BC01DE
:103F100081E596E00E9404330895EF92FF920F939B
:103F20001F93CF93DF930091040610E08AEF90E097
:103F3000089F7001099FF00C189FF00C1124C70115
:103F400088569F4F0E94871FF801E053FC4F88233B
:103F500019F08081806102C080818F7E8083809192
:103F60000406C82FD0E0C70186569F4F0E94871FC6
:103F7000CE50DC4F888380910406C82FD0E0C70163
:103F800084569F4F0E94871F90E00E94161FCC50BE
:103F9000DC4F88830091040610E0C70106960E945A
:103FA000871FF801E053FC4F882319F0808182605D
:103FB00002C080818D7F808380910406C82FD0E06D
:103FC000C70108960E94871FC652DC4F88838091E4
:103FD0000406C82FD0E0C7010A960E94871F90E010
:103FE0000E94161FC452DC4F88830091040610E023
:103FF000C7010C960E94871FF801E053FC4F8823ED
:1040000019F08081846002C080818B7F80838091E1
:104010000406C82FD0E0C7010E960E94871FC25227
:10402000DC4F888380910406C82FD0E0C7014096FA
:104030000E94871F90E00E94161FC052DC4F8883A9
:104040000091040610E0C70142960E94871FF80104
:10405000E053FC4F882319F08081886002C0808182
:10406000877F808380910406C82FD0E0C7014496E3
:104070000E94871FCE51DC4F888380910406C82F91
:10408000D0E0C70146960E94871F90E00E94161F4D
:10409000CC51DC4F88830091040610E0C7014E9696
:1040A0000E94871FF801E053FC4F882319F080819C
:1040B000806202C080818F7D808380910406C82F3A
:1040C000D0E0C70180960E94871FCA51DC4F8883C9
:1040D00080910406C82FD0E0C70182960E94871FF6
:1040E00090E00E94161FC851DC4F8883009104069F
:1040F00010E0C70184960E94871FF801E053FC4F2F
:10410000882319F08081806402C080818F7B808346
:1041100080910406C82FD0E0C70186960E94871FB1
:10412000C651DC4F888380910406C82FD0E0C701B8
:1041300088960E94871F90E00E94161FC451DC4F92
:1041400088830091040610E0C7018A960E94871FA9
:10415000F801E053FC4F882319F08081806802C089
:1041600080818F77808380910406C82FD0E0C701BB
:104170008C960E94871FC251DC4F88838091040671
:10418000C82FD0E0C7018E960E94871F90E00E9442
:10419000161FC051DC4F88830091040610E0C70150
:1041A000C0960E94871FF801EE52FC4F882319F039
:1041B0008081816002C080818E7F8083809104062F
:1041C000C82FD0E0C701C2960E94871FCA50DC4F9B
:1041D000888380910406C82FD0E0C701C4960E944E
:1041E000871F90E00E94161FC850DC4F8883009103
:1041F000040610E0C701885B9F4F0E94871FF801EB
:10420000EE52FC4F882319F08081806102C08081CA
:104210008F7E808380910406C82FD0E0C701865B23
:104220009F4F0E94871FC250DC4F888380910406F5
:10423000C82FD0E0C701845B9F4F0E94871F90E08A
:104240000E94161FC050DC4F88830091040610E0C6
:10425000C7018E5B9F4F0E94871FF801EE52FC4FF3
:10426000882319F08081886002C08081877F8083E5
:1042700080910406C82FD0E0C7018C5B9F4F0E943D
:10428000871FC650DC4F888380910406C82FD0E07A
:10429000C7018A5B9F4F0E94871F90E00E94161FF4
:1042A000C450DC4F88830091040610E0C7018A5A8D
:1042B0009F4F0E94871FF801EE52FC4F882319F090
:1042C0008081806402C080818F7B8083809104061E
:1042D000C82FD0E0C701885A9F4F0E94871FCE5F2A
:1042E000DB4F888380910406C82FD0E0C701865A2F
:1042F0009F4F0E94871F90E00E94161FCC5FDB4FEC
:1043000088830091040610E0C70182569F4F0E94E7
:10431000871FF801EE52FC4F882319F080818068D6
:1043200002C080818F77808380910406C82FD0E0FF
:10433000C70180569F4F0E94871FCA5FDB4F88834B
:1043400080910406C82FD0E0C7018E559F4F0E9470
:10435000871F90E00E94161FC85FDB4F8883009183
:10436000040610E0C7018E599F4F0E94871FF80175
:10437000EC52FC4F882319F08081816002C080815B
:104380008E7F808380910406C82FD0E0C7018C59AE
:104390009F4F0E94871FC65FDB4F88838091040672
:1043A000C82FD0E0C7018A599F4F0E94871F90E015
:1043B0000E94161FC45FDB4F88830091040610E043
:1043C000C70182599F4F0E94871FF801EC52FC4F92
:1043D000882319F08081846002C080818B7F808374
:1043E00080910406C82FD0E0C70180599F4F0E94DA
:1043F000871FC25FDB4F888380910406C82FD0E0FF
:10440000C7018E589F4F0E94871F90E00E94161F81
:10441000C05FDB4F88830091040610E0C70184571A
:104420009F4F0E94871FF801EC52FC4F882319F020
:104430008081806802C080818F77808380910406AC
:10444000C82FD0E0C70182579F4F0E94871FCE5EC2
:10445000DB4F888380910406C82FD0E0C7018057C6
:104460009F4F0E94871F90E00E94161FCC5EDB4F7B
:1044700088830091040610E0C7018E569F4F0E946A
:10448000871FF801EC52FC4F882319F0808182606D
:1044900002C080818D7F808380910406C82FD0E088
:1044A000C7018C569F4F0E94871FC65EDB4F8883D3
:1044B00080910406C82FD0E0C7018A569F4F0E9402
:1044C000871F90E00E94161FC45EDB4F8883009117
:1044D000040610E0C7018C589F4F0E94871FF80107
:1044E000EC52FC4F882319F08081886002C08081E3
:1044F000877F808380910406C82FD0E0C7018A5847
:104500009F4F0E94871FCA5EDB4F888380910406FD
:10451000C82FD0E0C70188589F4F0E94871F90E0A6
:104520000E94161FC85EDB4F88830091040610E0CE
:10453000C70186589F4F0E94871FF801EC52FC4F1D
:10454000882319F08081806102C080818F7E808302
:1045500080910406C82FD0E0C70184589F4F0E9465
:10456000871FC25EDB4F888380910406C82FD0E08E
:10457000C70182589F4F0E94871F90E00E94161F1C
:10458000C05EDB4F88830091040610E0C7018058AD
:104590009F4F0E94871FF801EC52FC4F882319F0AF
:1045A0008081806202C080818F7D8083809104063B
:1045B000C82FD0E0C7018E579F4F0E94871FCE5D46
:1045C000DB4F888380910406C82FD0E0C7018C5749
:1045D0009F4F0E94871F90E00E94161FCC5DDB4F0B
:1045E00088830091040610E0C7018A579F4F0E94FC
:1045F000871FF801EC52FC4F882319F080818064FA
:1046000002C080818F7B808380910406C82FD0E018
:10461000C70188579F4F0E94871FCA5DDB4F888361
:1046200080910406C82FD0E0C70186579F4F0E9493
:10463000871F90E00E94161FC85DDB4F88830091A2
:10464000040610E0C7018C559F4F0E94871FF80198
:10465000EA52FC4F882319F08081816002C080817A
:104660008E7F808380910406C82FD0E0C7018A55D1
:104670009F4F0E94871FC65DDB4F88838091040691
:10468000C82FD0E0C70188559F4F0E94871F90E038
:104690000E94161FC45DDB4F88830091040610E062
:1046A000C7018A549F4F0E94871FF801EA52FC4FAE
:1046B000882319F08081886002C08081877F808391
:1046C00080910406C82FD0E0C70188549F4F0E94F4
:1046D000871FC25DDB4F888380910406C82FD0E01E
:1046E000C70186549F4F0E94871F90E00E94161FAB
:1046F000C05DDB4F88830091040610E0C701845A37
:104700009F4F0E94871FF801EA52FC4F882319F03F
:104710008081806402C080818F7B808380910406C9
:10472000C82FD0E0C701825A9F4F0E94871FCE5CDE
:10473000DB4F888380910406C82FD0E0C701805AE0
:104740009F4F0E94871F90E00E94161FCC5CDB4F9A
:1047500088830091040610E0C70180529F4F0E9499
:10476000871FF801E852FC4F882319F0808184608C
:1047700002C080818B7F808380910406C82FD0E0A7
:10478000C7018E519F4F0E94871FCA5CDB4F8883F1
:1047900080910406C82FD0E0C7018C519F4F0E9422
:1047A000871F90E00E94161FC85CDB4F8883009132
:1047B000040610E0C7018C529F4F0E94871FF8012A
:1047C000E852FC4F882319F08081826002C080810A
:1047D0008D7F808380910406C82FD0E0C7018A5264
:1047E0009F4F0E94871FC65CDB4F88838091040621
:1047F000C82FD0E0C70188529F4F0E94871F90E0CA
:104800000E94161FC45CDB4F8883DF91CF911F91FC
:104810000F91FF90EF90089583E00E943635089540
:104820002F923F924F925F926F927F928F929F92C0
:10483000AF92BF92CF92DF92EF92FF920F931F93AE
:10484000CF93DF93E0902006F0902106009122069E
:10485000109123068FE590E0A0E0B0E0E80EF91E8D
:104860000A1F1B1F0E9494346E157F058007910755
:1048700008F46AC20E9494341B012C016090200647
:104880007090210680902206909023060E94943416
:10489000609320067093210680932206909323064E
:1048A00083E00E94363580E10E943935AA2797FDC2
:1048B000A095BA2FBC01CD010E9490372DEC3CECA5
:1048C0004CE85FE30E94C33820E030E040E85AE360
:1048D0000E94C3387B018C016091EC057091ED055D
:1048E000882777FD8095982F0E94903720E030E050
:1048F00048EC52E40E94F5369B01AC01C801B701B7
:104900000E94C3387B018C01A0906103B0906203C8
:10491000C0906303D0906403C601B50120E030E08D
:1049200040E85FEB0E94EE36882349F4E092610391
:10493000F0926203009363031093640339C0C801CB
:10494000B701A60195010E94EE3618168CF0C80139
:10495000B7012DEC3CEC4CEC5DE30E94C3387B01CD
:104960008C01C601B50126E636E646E65FE310C0D7
:10497000C801B7012AE939E949E95EE30E94C33871
:104980007B018C01C601B50123E333E343E35FE31D
:104990000E94C3389B01AC01C801B7010E942836B0
:1049A0006093610370936203809363039093640345
:1049B000C0906103D0906203E0906303F0906403C1
:1049C000A0905403B0905503CEE8D3E006E010E089
:1049D000C701B601288139814A815B810E94B838BC
:1049E000181644F40A151B052CF010935503009378
:1049F000540306C00150104024970130110541F7BF
:104A000080911F068823C9F4BB24609154037091E0
:104A10005503882777FD8095982F0E9490379B013A
:104A2000AC01C701B6010E94F53621EE3AE748E82D
:104A300050E40E94B838181614F4BB24B394B09212
:104A40001F06BB2029F088E49DE7A5EEB2E404C070
:104A500087E894E1A9E0B3E480935D0390935E035B
:104A6000A0935F03B0936003C092C005D092C105CC
:104A7000E092C205F092C305609154037091550312
:104A8000882777FD8095982F0E9490379B01AC0175
:104A9000C701B6010E94F5362CEF39EA4DE550E426
:104AA0000E94273620915D0330915E0340915F03A1
:104AB000509160030E94C3387B018C0120E030E0FC
:104AC00040E050E00E94EE3688235CF40F2EF0E0C8
:104AD000EF2EF0E0FF2EF0E00F2FF0E01F2FF02D73
:104AE00014C0C801B70120E030E046EC52E40E9457
:104AF000B838181654F40F2EF0E0EF2EF0E0FF2E29
:104B0000F6EC0F2FF2E41F2FF02DC801B7010E9421
:104B10006237E62FF0E0BB2021F0E650FD4F6491B4
:104B200003C0E25AFC4F649170E080E090E00E9484
:104B30008E377B018C01A0905003B0905103C09040
:104B40005203D0905303C601B50120E030E040E8A5
:104B50005FEB0E94EE36882349F4E0925003F09216
:104B60005103009352031093530339C0C801B70196
:104B7000A60195010E94EE3618168CF0C801B70107
:104B80002DEC3CEC4CE45DE30E94C3387B018C01CE
:104B9000C601B50123E333E343E75FE310C0C80177
:104BA000B7012AE939E949E95EE30E94C3387B018C
:104BB0008C01C601B50123E333E343E35FE30E94C5
:104BC000C3389B01AC01C801B7010E94283660932D
:104BD0005003709351038093520390935303809139
:104BE000F0059091F105181619060CF0ADC081E0A2
:104BF0000E9436358FE00E943935AA2797FDA0958F
:104C0000BA2FBC01CD010E94903729E23CE54FE963
:104C100050E40E94C33820E030E040E85AE30E94AC
:104C2000C3387B018C016091EE057091EF058827F8
:104C300077FD8095982F0E94903720E030E44CE17A
:104C400056EC0E94F5369B01AC01C801B7010E94E9
:104C500028367B018C016091F0057091F105882761
:104C600077FD8095982F0E94903720E030E048EC47
:104C700052E40E94F5369B01AC01C801B7010E94C5
:104C8000C3382DEC3CEC4CE45EE30E94C3387B015E
:104C90008C01609128067091290680912A069091D6
:104CA0002B062DEC3CEC4CE45FE30E94C3389B01E7
:104CB000AC01C801B7010E9428367B018C016093CA
:104CC00028067093290680932A0690932B06B1013B
:104CD0006619770980E090E00E948E379B01AC0155
:104CE000C801B7010E94C3382FEA35EA41E959E308
:104CF0000E94C33820912406309125064091260653
:104D0000509127060E9428365B016C0160932406AF
:104D1000709325068093260690932706C801B70155
:104D200020E030E048EC52E40E94C3380E945D3736
:104D30007093BF056093BE05C601B5010E9462373E
:104D400070931B0660931A06DF91CF911F910F910C
:104D5000FF90EF90DF90CF90BF90AF909F908F909B
:104D60007F906F905F904F903F902F9008951F938A
:104D7000CF93DF9385E090E06CE070E00E948615B1
:104D800068EE73E080E090E00E94A2348EE394E04D
:104D90000E94432DC0E0D0E010E0CE016DE171E053
:104DA0000E94083A892B89F41F5E8BE594E0612FFD
:104DB0004CE00E94A1048BE594E06EEE0E94A904F1
:104DC0008BE594E00E945504105161E070E080E0B2
:104DD00090E00E94A234219687E0C13DD807E9F611
:104DE000DF91CF911F91089586E061E00E949A358E
:104DF000089586E061E00E945B358EE394E040E038
:104E000051EE60E070E00E94642C0E94F4268BE575
:104E100094E00E942A050E940F1F68EE73E080E074
:104E200090E00E94A2340E942B1F1092040607C03B
:104E30000E948D1F809104068F5F809304068091ED
:104E400004068230A8F3109204060E94B7260E943E
:104E50000C248BE594E00E94EB040E949434609350
:104E60002C0670932D0680932E0690932F0608959E
:104E70002F923F924F925F926F927F928F929F926A
:104E8000AF92BF92CF92DF92EF92FF920F931F9358
:104E9000DF93CF9300D000D0CDB7DEB7E0903B06D4
:104EA000F0903C0600913D0610913E068FE590E0A3
:104EB000A0E0B0E0E80EF91E0A1F1B1F0E94943408
:104EC0006E157F058007910708F481C12091940435
:104ED000309195044091960450919704E090980485
:104EE000F090990400919A0410919B04CA01B901B1
:104EF0000E94C3385B016C01C801B701A80197018A
:104F00000E94C3389B01AC01C601B5010E9428363E
:104F10000E944A396093D5057093D6058093D705D2
:104F20009093D80520E030E040E050E00E94B8388F
:104F300018160CF042C10E94943420913B06309127
:104F40003C0640913D0650913E06621B730B840B5C
:104F5000950B0E948E373B014C01E090D505F090F7
:104F6000D6050091D7051091D80520919404309171
:104F7000950440919604509197040E94C33820E014
:104F800030E04AE754E40E94F5369B01AC016091A1
:104F9000D1057091D2058091D3059091D4050E94DE
:104FA00028366093D1057093D2058093D3059093F2
:104FB000D4058091180690911906892B09F49AC09E
:104FC000C801B701A40193010E94C33820E030E07A
:104FD0004AE754E40E94F5361B012C016091BE059E
:104FE0007091BF05882777FD8095982F0E94903794
:104FF00069837A838B839C8360913706709138062E
:105000008091390690913A062DEC3CEC4CE45FE33C
:105010000E94C3387B018C01C201B10120E030EA5B
:105020004CE857E40E94C33829813A814B815C8166
:105030000E94F536A40193010E94F5369B01AC0154
:10504000C801B7010E9428365B016C0160933706E6
:10505000709338068093390690933A066091560310
:1050600070915703882777FD8095982F0E9490377D
:105070002DEC3CEC4CE45FE30E94C3387B018C01D7
:1050800060911A0670911B0680E090E00E948E37B6
:105090009B01AC01C801B7010E942736A60195010A
:1050A0000E94C3387B018C016091B6057091B705F1
:1050B0008091B8059091B9050E9490379B01AC0191
:1050C000C801B7010E94273620E030E040E05FE3EE
:1050D0000E94C3380E945D377093E5056093E40534
:1050E000615F784D64F481EF98ED9093E5058093CE
:1050F000E40505C01092E5051092E40552C0C20116
:10510000B10120E030E040E050E00E94B8381816CD
:105110000CF047C06091E6057091E7058091E805C5
:105120009091E9052DEC3CEC4CE45FE30E94C33820
:105130007B018C0169817A818B819C812091C005E2
:105140003091C1054091C2055091C3050E94C338FA
:10515000A40193010E94C33820E030E041EE54E402
:105160000E94F536A20191010E94F5369B01AC0127
:10517000C801B7010E9428366093E6057093E705E1
:105180008093E8059093E90520E03BE443EC57E485
:105190000E94B83818168CF480E09BE4A3ECB7E4C6
:1051A00004C080E090E0A0E0B0E08093E60590933A
:1051B000E705A093E805B093E9050E949434609355
:1051C0003B0670933C0680933D0690933E060F90FD
:1051D0000F900F900F90CF91DF911F910F91FF9043
:1051E000EF90DF90CF90BF90AF909F908F907F9087
:1051F0006F905F904F903F902F9008952F923F9225
:105200004F925F926F927F928F929F92AF92BF92D6
:10521000CF92DF92EF92FF920F931F93DF93CF9382
:1052200000D000D0CDB7DEB78091FC05882309F40B
:1052300038C2E0900C06F0900D0600910E06109119
:105240000F06C801B7019F7725E33AEF4EE85CE30C
:105250000E94C3380E94F23669837A838B839C83D1
:10526000C801B701209178043091790440917A0403
:1052700050917B040E9427369F7720EC3BE649ED56
:1052800057E40E94C3385B016C0160911006709175
:105290001106809112069091130620918A04309194
:1052A0008B0440918C0450918D040E9427369F7787
:1052B00020EC3BE649ED57E40E94C33829813A814E
:1052C0004B815C810E94C3387B018C01C601B50112
:1052D000A60195010E94C3385B016C01C801B701AA
:1052E000A80197010E94C3389B01AC01C601B5011A
:1052F0000E9428360E944A390E945D376093B605A5
:105300007093B7058093B8059093B90580911806FE
:1053100090911906892B09F4E9C0609130067091CB
:10532000310680E090E00E948E372DEC3CEC4CE49E
:105330005FE30E94C3383B014C01609156037091BA
:105340005703882777FD8095982F0E9490372DEC82
:105350003CEC4CE45FE30E94C3387B018C0160911C
:105360001A0670911B0680E090E00E948E379B0128
:10537000AC01C801B7010E9427365B016C010E9495
:1053800094347B018C01609118067091190680E0BD
:1053900090E00E948E371B012C01809114069091A1
:1053A0001506A0911606B0911706E81AF90A0A0B1D
:1053B0001B0BC801B7010E948E37A20191010E9408
:1053C000F5369B01AC01C601B5010E94C33820E04F
:1053D00030E04AE754E40E94F5362DEC3CEC4CE416
:1053E0005EE30E94C3389B01AC01C401B3010E947B
:1053F00028360E945D3770933106609330066091C5
:105400001A0670911B0680E090E00E948E375B01C7
:105410006C016091560370915703882777FD809542
:10542000982F0E9490372DEC3CEC4CE45FE30E94F7
:10543000C3387B018C01C601B501A80197010E9408
:10544000B838181624F41092310610923006809164
:105450003006909131068057974130F08FE697E102
:105460009093310680933006C801B701A6019501DB
:105470000E9427367B018C016091D1057091D20585
:105480008091D3059091D405A20191010E94F53637
:105490009B01AC01C801B7010E94C3387B018C019C
:1054A0006091B6057091B7058091B8059091B905E6
:1054B0000E9490379B01AC01C801B7010E942736BA
:1054C00020E030E040E05FE30E94C3380E945D3797
:1054D0007093E3056093E205615F784D7CF481EFA2
:1054E00098ED9093E3058093E20508C01092310691
:1054F000109230061092E3051092E205609190043C
:105500007091910480919204909193042091D90517
:105510003091DA054091DB055091DC050E94273679
:105520005B016C012091B6053091B7054091B8053B
:105530005091B905CA01B9010E94E9390E9490371A
:105540007B018C01C601B501A60195010E94C338FB
:105550009B01AC01C801B7010E9428360E944A395C
:105560000E945D376093DE057093DF058093E00550
:105570009093E10560910C0670910D0680910E06E6
:1055800090910F06209178043091790440917A042B
:1055900050917B040E9427367B018C0160E070E013
:1055A00080E89FE329813A814B815C810E94F53636
:1055B0009B01AC01C801B7010E94C3387B018C017B
:1055C0006091100670911106809112069091130659
:1055D00020918A0430918B0440918C0450918D0469
:1055E0000E9427369B01AC015058C801B7010E94A8
:1055F0009B3620EE3EE245E652E40E94C33820E0AE
:1056000030E044EB52E40E9428360E945D379B0153
:10561000AC0197FF04C028593E4F4F4F5F4FCA015E
:10562000B901645B70408040904097FF06C0CA019A
:10563000B9016C547F4F8F4F9F4F0E94903720913C
:105640007C0430917D0440917E0450917F040E943F
:1056500027360E945D3797FF04C068597E4F8F4FF1
:105660009F4F0E94903720E030E044EB53E40E94CB
:10567000F53620E030E040E851E40E94C3380E9453
:10568000263920E030E040E85FE30E9428360E949F
:1056900062376093DD05613108F47CC01092DD054E
:1056A00079C080918F04823008F474C080918E0498
:1056B000853008F46FC0D0903206FDE1FD1508F486
:1056C00069C0E0909004F0909104009192041091D0
:1056D0009304609133067091340680913506909161
:1056E0003606A80197010E9427369F7720E030E018
:1056F00040E05FE30E94B83818165CF4109232065E
:10570000E0923306F0923406009335061093360685
:1057100041C08D2D8F5F809332068E31D9F58091F7
:10572000780490917904A0917A04B0917B048093DD
:105730000C0690930D06A0930E06B0930F06809171
:105740008A0490918B04A0918C04B0918D04809375
:10575000100690931106A0931206B0931306E092E0
:10576000D905F092DA050093DB051093DC058091F2
:105770009C0490919D04A0919E04B0919F048093FD
:105780004C0390934D03A0934E03B0934F0381E0DD
:105790008093FC050F900F900F900F90CF91DF91A9
:1057A0001F910F91FF90EF90DF90CF90BF90AF903F
:1057B0009F908F907F906F905F904F903F902F9031
:1057C00008950E9410240E9438270E94720A8BE5D7
:1057D00094E00E94FE280E94651B0895EF92FF92BC
:1057E0000F931F930E947007892BB9F4E0902C0649
:1057F000F0902D0600912E0610912F0684E690E081
:10580000A0E0B0E0E80EF91E0A1F1B1F0E949434AE
:10581000E616F7060807190760F40E9494346093AF
:105820002C0670932D0680932E0690932F060E94CF
:10583000E12B1F910F91FF90EF9008956EBD0DB475
:1058400007FEFDCF8EB508958DE061E00E945B35C7
:105850008BE061E00E945B358CE060E00E945B358C
:105860008AE061E00E945B351CBC80E58CBD8DB593
:105870008EB508958FE396E00E94242C08958FEF53
:105880009FE70895DF93CF93CDB7DEB7FE0139963A
:105890008D819E8161E04F8158859F010E94E32E9A
:1058A000CF91DF910895DF93CF93CDB7DEB7FE019F
:1058B00039968D819E8160E04F8158859F010E94BD
:1058C000E32ECF91DF9108950F931F93DC01ED91AB
:1058D000FC910288F389E02D20E030E000E010E048
:1058E00009951F910F9108958F92AF92CF92EF92E9
:1058F000FF920F931F93DF93CF93CDB7DEB7FC01D9
:105900001382128288EE93E0A0E0B0E08483958356
:10591000A683B7838AEB93E091838083558744877E
:1059200037872687118B008BF38AE28AC48AA58A7F
:10593000868A70E0CB0123E0880F991F2A95E1F752
:105940009C01205C394F308F278B885B994F928F59
:10595000818F81E090E002C0880F991F6A95E2F77D
:1059600020915006282B20935006CF0140E051EEA5
:1059700060E070E00E94642CCF91DF911F910F9145
:10598000FF90EF90CF90AF908F900895FC01838DA2
:10599000882319F42FEF3FEF0DC00788F08DE02D1D
:1059A0002081318182819381281B390B84819581EB
:1059B00028233923C9010895FC01838D882319F414
:1059C0002FEF3FEF11C0018CF28DE02D208131814E
:1059D00082819381281B390B209530958481958194
:1059E000282339232F5F3F4FC9010895FC01838D80
:1059F000882361F0A789B08D2D913C911197129663
:105A00008D919C9113972817390721F44FEF5FEF81
:105A1000CA01089512968D919C9113971696ED9157
:105A2000FC911797E80FF91F408112968D919C9178
:105A30001397019614962D913C91159782239323E9
:105A400013969C938E93129750E0E2CFFC01838DC6
:105A5000882351F00788F08DE02D208131818281EB
:105A600093812817390721F42FEF3FEFC9010895DB
:105A7000828193810680F781E02DE80FF91F8081F4
:105A8000282F30E0F3CFDC015796ED91FC91589729
:105A900082819381918380835996ED91FC915A97ED
:105AA00080819181938382830895DC015B968C9140
:105AB0005B978823A9F15996ED91FC915A97208123
:105AC00031812F5F3F4F84819581282339235C9654
:105AD0008C915C97882329F082819381281739075C
