:100000000C9473020C949B020C949B020C949B0224
:100010000C949B020C949B020C949B020C949B02EC
:100020000C949B020C949B020C949B020C949B02DC
:100030000C949B020C949B020C949B020C949B02CC
:100040000C94E3320C949B020C94E1050C941D0675
:100050000C949B020C949B020C949B020C949B02AC
:100060000C949B020C949B02084AD73B3BCE016E3A
:1000700084BCBFFDC12F3D6C74319ABD56833DDAFF
:100080003D00C77F11BED9E4BB4C3E916BAAAABE0E
:10009000000000803F05A84CCDB2D44EB93836A937
:1000A000020C50B9918688083CA6AAAA2ABE000074
:1000B00000803F0664EC1B3C04BC163E3BE5B93CAB
:1000C000C93C37C29E5A3D660498083EEA69AAAA0E
:1000D0003E000000803F0000000000000000000023
:1000E000000000010A0F1315191D202123252729BF
:1000F0002B2D2F3031333537393A3C3E4042434483
:100100004445464748494A4B4D4E4F505051525234
:100110005354555658595A5B5B5C5D5D5E5E5E5F3D
:100120005F5F6060606161616262626363636363B9
:1001300063636363636363636363000000000000E1
:1001400000000000000002070A0C0D0E101214152A
:100150001617191A1B1E2126282A2B2D2F3133344E
:1001600037393C3D3E3F4041424446494A4B4C4D65
:100170004E4F4F5051515252535454555556575853
:10018000595A5B5C5C5D5D5E5F5F5F606060606094
:100190006161616161616262626262626263000701
:1001A0000E091C1B1215383F363124232A2D707777
:1001B0007E796C6B6265484F464154535A5DE0E767
:1001C000EEE9FCFBF2F5D8DFD6D1C4C3CACD9097D7
:1001D0009E998C8B8285A8AFA6A1B4B3BABDC7C0C7
:1001E000C9CEDBDCD5D2FFF8F1F6E3E4EDEAB7B037
:1001F000B9BEABACA5A28F88818693949D9A272027
:10020000292E3B3C35321F18111603040D0A575096
:10021000595E4B4C45426F68616673747D7A898E76
:10022000878095929B9CB1B6BFB8ADAAA3A4F9FEF6
:10023000F7F0E5E2EBECC1C6CFC8DDDAD3D4696EE6
:10024000676075727B7C51565F584D4A4344191E56
:10025000171005020B0C21262F283D3A33344E4946
:10026000404752555C5B7671787F6A6D64633E39B6
:10027000303722252C2B0601080F1A1D1413AEA9A6
:10028000A0A7B2B5BCBB9691989F8A8D8483DED916
:10029000D0D7C2C5CCCBE6E1E8EFFAFDF4F32020DD
:1002A000BF0020BF00BF007C202020202020202075
:1002B000202020202020202020202000C8202020B6
:1002C000202020202020202020C900C820202020FD
:1002D0002020202020202020C97C00D82020202081
:1002E0002020202020202020D97C00C82020202071
:1002F0002020202020202020C97C00C82020202071
:100300002020202020202020C97C006D696E6F7085
:100310006F7364206A646C20322E3533006C697010
:100320006F20626174742063656C6C7C7C77617291
:100330006E696E67206C6576656C3A200062617448
:10034000742063617061636974793A0073657475D0
:10035000702073637265656E7C7C7C00436861729B
:1003600020446F6E650A00526561647920666F7281
:1003700020466F6E740A007570646174652063684E
:1003800061727365740000407A10F35A00A0724ED7
:1003900018090010A5D4E80000E87648170000E42A
:1003A0000B54020000CA9A3B000000E1F505000072
:1003B00080969800000040420F000000A0860100D7
:1003C0000000102700000000E803000000006400A7
:1003D000000000000A000000000001000000000012
:1003E0002C76D888DC674F0823DFC1DFAE59E1B136
:1003F000B796E5E3E453C63AE651997696E8E6C245
:100400008426EB898C9B62ED407C6FFCEFBC9C9F4B
:1004100040F2BAA56FA5F490055A2AF75C936B6C6D
:10042000F9676DC11BFCE0E40D47FEF520E6B50061
:10043000D0ED902E0300943577050080841E0800CF
:1004400000204E0A000000C80C333333330F986E7F
:1004500012831141EF8D2114893BE65516CFFEE63C
:10046000DB18D1844B381BF77C1D901DA4BBE42402
:10047000203284725E228100C9F124ECA1E53D277F
:100480006E616E00696E66000000000024002700A7
:100490002A0000000000250028002B0000000000BA
:1004A00023002600290004040404040404040202B6
:1004B00002020202030303030303010204081020E3
:1004C00040800102040810200102040810200000EE
:1004D0000007000201000003040600000000000005
:1004E00000008D07D12A11241FBECFEFD8E0DEBF58
:1004F000CDBF13E0A0E0B1E0ECECF1E702C0059065
:100500000D92A03AB107D9F716E0A0EAB3E001C016
:100510001D92AF31B107E1F714E0C6EED4E004C09C
:100520002297FE010E94E038C23ED107C9F70E941F
:1005300060340C94E4380C940000283008F027E074
:100540003327DA01990F311D87FD9160009661050F
:10055000710539F432602E5F3D9330E32A95E1F75F
:1005600008959F3F30F080387105610509F03C5FC8
:100570003C5F3D93913008F08068911DDF93CF93ED
:100580001F930F93FF92EF92192F987F9695E92F63
:1005900096959695E90FFF27E052FC4F9927332750
:1005A000EE24FF24A701E70105900894079428F49E
:1005B000360FE71EF81E491F511D660F771F881F53
:1005C000991F0694A1F70590079428F4E70EF81EEA
:1005D000491F561FC11D770F881F991F661F06945C
:1005E000A1F70590079428F4F80E491F561FC71F5E
:1005F000D11D880F991F661F771F0694A1F70590DC
:10060000079420F4490F561FC71FD81F990F661F64
:10061000771F881F0694A9F784911095177041F0F1
:10062000D695C79557954795F794E7941A95C1F7CE
:10063000E6E8F3E0689415901591359165919591F0
:1006400005907FE27395E118F10A430B560BC90B35
:10065000D009C0F7E10CF11E431F561FC91FD01D62
:100660007EF4703311F48A95E6CFE894015030F0AF
:10067000080F0AF40027021708F4202F2395022FF1
:100680007A3328F079E37D932A95E9F710C07D93BA
:100690002A9589F606949795679537951795179437
:1006A000E118F10A430B560BC90BD00998F02395BA
:1006B0007E9173957A3308F070E37C932013B8F73A
:1006C0007E9170617D9330F0839571E37D9370E34B
:1006D0002A95E1F71124EF90FF900F911F91CF9190
:1006E000DF91992787FD90950895FA01AA27283070
:1006F00051F1203181F1E8946F936E7F6E5F7F4FEF
:100700008F4F9F4FAF4FB1E03ED0B4E03CD0670F6A
:10071000781F891F9A1FA11D680F791F8A1F911DBD
:10072000A11D6A0F711D811D911DA11D20D009F40D
:1007300068943F912AE0269F11243019305D31934F
:10074000DEF6CF010895462F4770405D4193B3E038
:100750000FD0C9F7F6CF462F4F70405D4A3318F0DF
:10076000495D31FD4052419302D0A9F7EACFB4E090
:10077000A6959795879577956795BA95C9F7009748
:100780006105710508959B01AC010A2E06945795E9
:10079000479537952795BA95C9F7620F731F841F40
:1007A000951FA01D0895FC01059061507040011037
:1007B000D8F7809590958E0F9F1F0895FC0161508A
:1007C000704001900110D8F7809590958E0F9F1F73
:1007D0000895FC011382128288EE93E0A0E0B0E05D
:1007E00084839583A683B78381E493E09183808398
:1007F0000895FC018089803419F421E030E002C0C2
:1008000020E030E0C9010895FC01818990E008955D
:1008100080E090E0089580E090E0089580E090E02E
:1008200008950895EF92FF921F93CF93DF93162FB1
:100830007A0186E060E00E940C348FEF95E060E082
:100840000E94B52A8FEF95E060E00E94B52A8FEFF5
:1008500095E069E00E94B52A8FEF95E0612F0E9434
:10086000B52AC0E0D0E0F701EC0FFD1F10818FEF3B
:1008700095E06AE00E94B52A8FEF95E06C2F0E9408
:10088000B52A8FEF95E06BE00E94B52A8FEF95E0D7
:10089000612F0E94B52A2196C633D10521F78FEF2B
:1008A00095E068E00E94B52A8FEF95E060EA0E942B
:1008B000B52A8FEF95E060EA0E94B52A85FDF9CF51
:1008C0008FEF95E060E00E94B52A8FEF95E06CE035
:1008D0000E94B52A86E061E00E940C34DF91CF913E
:1008E0001F91FF90EF9008951F93CF93DF93EC013A
:1008F000162F86E060E00E940C348FEF95E060E0F8
:100900000E94B52A112319F0113059F404C08FEF59
:1009100095E0688904C068896C618FEF95E00E945A
:10092000B52A86E061E00E940C34DF91CF911F91DF
:100930000895EF92FF920F931F937C010FEF15E044
:10094000C80167E00E94B52AC8016FEF0E94B52A6E
:1009500086E061E00E940C34F70187858F5F87870E
:100960001F910F91FF90EF900895EF92FF920F93D8
:100970001F93FC01E7848EE1E89E700111248685B7
:10098000E80EF11C86E060E00E940C340FEF15E0E9
:10099000C80164E00E94B52AC80163E00E94B52A3C
:1009A000C80165E00E94B52AC8016F2D0E94B52AD2
:1009B000C80166E00E94B52AC8016E2D0E94B52AC2
:1009C0001F910F91FF90EF900895FC016487458778
:1009D000668747870E94B50408951F93CF93DF93DE
:1009E000EC01162F6C3731F40E949904CE010E945D
:1009F000B5040AC08FEF95E067E00E94B52A8FEF3B
:100A000095E0612F0E94B52A81E090E0DF91CF91BF
:100A10001F910895EF92FF920F931F938EE1489FCD
:100A200070011124E60EF11C86E060E00E940C3497
:100A30000FEF15E0C80165E00E94B52AC8016F2DCF
:100A40000E94B52AC80166E00E94B52AC8016E2D31
:100A50000E94B52A1F910F91FF90EF9008950F9378
:100A60001F9386E060E00E940C340FEF15E0C80190
:100A700064E00E94B52AC80164E00E94B52A61E0E2
:100A800070E080E090E00E94393386E061E00E94EF
:100A90000C341F910F9108951F93CF93DF93EC01B6
:100AA000188A16E0198B81E196E060E973E00E94F4
:100AB0009B31813049F480E4888B88E0898B86E023
:100AC00060E00E940C3402C0188A198B86E060E056
:100AD0000E940C34DF91CF911F9108950F931F93C3
:100AE000CF93DF93EC0186E061E00E94CD3382E09A
:100AF00060E00E94CD3382E061E00E940C34CE01C0
:100B00000E944C0586E060E00E940C348FEF95E077
:100B10006CEE0E94B52A8FEF95E06FEF0E94B52A28
:100B2000182F8FEF95E060E00E94B52A6889626017
:100B30008FEF95E00E94B52A62E370E080E090E0DC
:100B40000E9439338FEF95E06CE60E94B52A1F7E34
:100B50008FEF95E0612F0E94B52A8889803419F0C3
:100B60000DE010E002C000E110E01092A10310922D
:100B7000A00317C06091A0037091A103605F8FEF85
:100B800095E00E94B52A8FEF95E069E00E94B52AB2
:100B90008091A0039091A10301969093A10380936B
:100BA000A0038091A0039091A1038017910714F3F3
:100BB000CE0161E00E947404DF91CF911F910F91EB
:100BC00008951F920F920FB60F9211242F933F9307
:100BD0004F938F939F93EF93FF934091C600209183
:100BE0000006309101062F5F3F4F809104069091DF
:100BF00005062823392380910206909103062817C1
:100C0000390779F08091000690910106E09106067F
:100C1000F0910706E80FF91F4083309301062093F7
:100C20000006FF91EF919F918F914F913F912F91EE
:100C30000F900FBE0F901F9018951F920F920FB636
:100C40000F9211242F933F938F939F93EF93FF93D2
:100C500020910A0630910B068091080690910906B2
:100C600028173907E9F080910A0690910B06E09168
:100C70000E06F0910F06E80FF91F80818093C600E1
:100C800080910A0690910B06019620910C063091F6
:100C90000D068223932390930B0680930A0610C0BF
:100CA000209108063091090680910A0690910B0662
:100CB0002817390729F48091C1008F7D8093C100E6
:100CC000FF91EF919F918F913F912F910F900FBEC8
:100CD0000F901F901895CF93DF93482FEB018091D1
:100CE0009005833009F45FC0843028F48130D1F05E
:100CF000823068F50AC0853009F4D4C0853008F424
:100D0000AAC0863009F0F4C0EBC04C3309F0F0C043
:100D100081E0809390054883EAEDF1E0E491E0936F
:100D20008F05E6C0842F90E0E0918F05F0E0E82782
:100D3000F927E256FE4FE491E0938F05887F90708B
:100D4000809741F582E080939005498329C0242F44
:100D500030E0E0918F05F0E0E227F327E256FE4F06
:100D6000E491E0938F0580918E058F5F80938E05CF
:100D7000823018F43B832A83BBC0922F88272A81B4
:100D80003B81820F931F9B838A830A978F3F910534
:100D900021F018F010929005ABC083E0809390058D
:100DA00010928E05A5C0E42FF0E080918F0590E0B1
:100DB000E827F927E256FE4FE491E0938F05609112
:100DC0008E056F5F60938E05623089F0633020F48A
:100DD000613009F08DC006C0633091F0643009F0D5
:100DE00087C022C0842F90E0A0E0B0E018C0242F7C
:100DF00030E040E050E0542F432F322F222707C02D
:100E0000242F30E040E050E0A901332722278C81D5
:100E10009D81AE81BF81820F931FA41FB51F8C835C
:100E20009D83AE83BF8364C0242F30E040E050E058
:100E3000522F4427332722278C819D81AE81BF8189
:100E4000820F931FA41FB51F8C839D83AE83BF8326
:100E500060939005A5CF242F30E0E0918F05F0E05E
:100E6000E227F327E256FE4FE491E0938F0560916D
:100E70008E056F5F60938E05613019F06230C1F5A9
:100E800003C03987288734C0922F88272885398561
:100E9000280F391F398728878A819B810A97F1F0AB
:100EA00085E07CCFE42FF0E080918F0590E0E8278B
:100EB000F927E256FE4FE491E0938F0520918E05CD
:100EC0002F5F20938E0530E0FB01E20FF31F418777
:100ED0008A819B810A972817390750F086E05ECFF8
:100EE000C75FDE4F4883C950D14087E080939005AB
:100EF00080919005873069F410929005C75FDE4FAE
:100F000090918F058881C950D140981711F48A813A
:100F100001C080E0DF91CF9108958F92AF92CF9280
:100F2000EF92FF920F931F9380E194E060E045EC15
:100F300050E024EC30E000EC10E0B1ECEB2EF12CB2
:100F4000CC24C394A8E9AA2EF0E28F2E0E940B2B8A
:100F50008DE294E00E94E9031F910F91FF90EF90C2
:100F6000CF90AF908F90089560914E0470914F0490
:100F7000809150049091510420E030E040E152E42F
:100F80000E94353720E030E044EB53E40E9467359F
:100F90000E9498370E94CF359B012550304037FF83
:100FA00003C09B01215E3F4FACE9B5E0F901ED596B
:100FB000FC4F80818C932F5F3F4F2432310514F01A
:100FC00020E030E0119685E0A73AB80779F71C9247
:100FD00008952F923F924F925F926F927F928F92DD
:100FE0009F92AF92BF92CF92DF92EF92FF920F93B8
:100FF0001F93DF93CF9300D000D000D0CDB7DEB7E2
:10100000182F662E20914404309145042A3531056D
:1010100030F0C9018D549F4F89359105E8F437FFB1
:1010200002C02D543F4FC90137FF03C090958195F1
:101030009F4F8A3191053CF004E4802E912CB9ED4C
:101040002B2E312C1DC00A975CF1ABE38A2E912C1C
:10105000F2ED2F2E312C20C02B35310514F0235BFF
:101060003040C90137FF03C0909581959F4F8A3169
:10107000910554F0E6E58E2E912C7CED272E312C37
:1010800067E0A62EB12C15C00A9754F05DE4852EBA
:10109000912C44ED242E312C38E0A32EB12C09C024
:1010A00025E0822E912C98E3292E312C89E0A82E60
:1010B000B12C6091460470914704882777FD809594
:1010C000982F0E94023627EA32E94BE25CEB0E943D
:1010D00035370E94093820E030E040EA50E40E94B1
:1010E000353720E030E040E951E40E9435370E9476
:1010F000983720E030E044E352E40E949A340E94A2
:10110000CF35712E0EEBC02E0FEFD02E9B01442752
:1011100037FD4095542F29833A834B835C831DE22E
:10112000412E14E0512E4AEF5FEF240E351E6091E0
:10113000440470914504882777FD8095982F0E947C
:10114000023625E33AEF4EE85CE30E9435370E9411
:1011500009387B018C01B601882777FD8095982F8F
:101160000E9402369B01AC01C801B7010E943537CD
:101170007B018C0169817A818B819C810E9402367E
:101180009B01AC01C801B7010E949A340E94CF357F
:101190009B01CB0101978A35910508F071C062E18E
:1011A00070E00E948E388B012F5F3F4FAEEEBFEF95
:1011B0006A9FC0016B9F900D7A9F900D1124820F42
:1011C000931F62E070E00E948E386D837E83E62C70
:1011D000E01A4E2D4C5F8DE294E0672D0E940A05C7
:1011E00000D000D000D0EDB7FEB73196ADB7BEB796
:1011F00012965C924E92119720E031E03383228365
:101200008D819E81880D991D958384830E94EA2A91
:101210004DB75EB74A5F5F4F0FB6F8945EBF0FBE23
:101220004DBF8D819E818A159B0554F104301105B7
:101230003CF593E0E90EC201672D4E2D0E940A0590
:1012400000D000D000D0EDB7FEB73196ADB7BEB735
:1012500012965C924E92119720E031E03383228304
:101260004D815E81420D531D558344830E94EA2ABD
:101270008DB79EB706960FB6F8949EBF0FBE8DBF72
:10128000ACE0B0E0CA0EDB1E7394BEE4CB16D10412
:1012900009F04DCF26960FB6F894DEBF0FBECDBF36
:1012A000CF91DF911F910F91FF90EF90DF90CF9042
:1012B000BF90AF909F908F907F906F905F904F9076
:1012C0003F902F900895CF92DF92EF92FF920F936D
:1012D0001F93823010F402E002C0082F000F6091CB
:1012E00091057091920580919305909194050E94CB
:1012F00002366B017C0120E030E44CE156E40E94B0
:101300006035202F30E04DE254E0882334F58DB76E
:101310009EB70E970FB6F8949EBF0FBE8DBFEDB768
:10132000FEB73196ADB7BEB712965C934E93119748
:1013300083E091E09383828322573F4F3583248358
:101340002F5F3F4F37832683C086D186E286F386A0
:101350008DE890E09587848734C08DB79EB70E974F
:101360000FB6F8949EBF0FBE8DBF0DB71EB70F5FAF
:101370001F4FADB7BEB712965C934E9311978FE097
:1013800091E0F8019383828322573F4F3583248372
:101390002F5F3F4F37832683C701B60120E030E03F
:1013A0004AE754E40E946735D80118966D937D93FF
:1013B0008D939C931B978DEF90E01D969C938E933D
:1013C0001C970E94EA2AEDB7FEB73E960FB6F89436
:1013D000FEBF0FBEEDBF1F910F91FF90EF90DF900A
:1013E000CF900895CF93DF93AC01E0915804F09132
:1013F00059042091950530919605C9018C599F4F4C
:101400008E179F071CF4EA01219609C0245630402C
:10141000E217F30714F0EA0102C0EA012197842FD2
:1014200090E0C817D90729F081E196E04C2F0E947F
:10143000A231CE01DF91CF910895CF92DF92EF924A
:10144000FF920F931F93CF93DF937C016B01EA010F
:1014500000D000D00DE214E0EDB7FEB71283018397
:1014600087EA92E0948383830E94D92A0F900F9099
:101470000F900F90CA30D10581F0C436D10521F00C
:10148000C130D10519F512C000D000D0EDB7FEB7BC
:101490001283018385EA92E011C000D000D0EDB73D
:1014A000FEB71283018382EA92E008C000D000D028
:1014B000EDB7FEB7128301838EE992E094838383B4
:1014C0000E94D92A0F900F900F900F9040915804CE
:1014D000509159042091950530919605C9018C5978
:1014E0009F4F841795071CF4CE0DDF1D0BC02456AB
:1014F00030404217530714F0E70116C0C7018C1B98
:101500009D0BEC01CE15DF0579F081E196E0B60187
:101510004C2F0E94A2310894C11CD11C81E196E09D
:10152000B6014D2F0E94A231CE01DF91CF911F91C4
:101530000F91FF90EF90DF90CF900895CF92DF92C0
:10154000EF92FF920F931F937C01D62EC72E0DE2D0
:1015500014E0C8016E2D4D2D0E94E50400D000D08E
:10156000EDB7FEB7128301838BEF92E09483838300
:101570000E94D92AEDB7FEB7128301838BEE92E069
:10158000948383830E94D92AEDB7FEB71283018327
:101590008BED92E0948383830E94D92AEDB7FEB746
:1015A000128301838BEC92E0948383830E94D92A77
:1015B000EDB7FEB7128301838CEB92E094838383B3
:1015C0000E94D92A0F900F900F900F90C8010E948F
:1015D0009904C70101966D2D7C2D0E94E9071F918A
:1015E0000F91FF90EF90DF90CF900895CF92DF9210
:1015F000EF92FF920F931F93282F462F0DE214E0D6
:10160000C801622F0E94E504E0909705F0909805CC
:10161000C0909905D0909A058DB79EB744970FB6A4
:10162000F8949EBF0FBE8DBFEDB7FEB73196ADB734
:10163000BEB712961C930E9311978BE191E09383A2
:10164000828383EB90E095838483C7016CE370E031
:101650000E948E38CB016CE370E00E948E38978335
:1016600086832AE330E031872087C7016CE370E08E
:101670000E948E389387828789EF90E095878487D0
:10168000C6016CE370E00E947A38CB016CE370E035
:101690000E948E3897878687318B208BC6016CE33A
:1016A00070E00E947A38938B828B0E94EA2A8DB771
:1016B0009EB744960FB6F8949EBF0FBE8DBFC8016B
:1016C0000E9499041F910F91FF90EF90DF90CF90AF
:1016D00008950F931F93282F462F0DE214E0C801A1
:1016E000622F0E94E5048DB79EB70C970FB6F89451
:1016F0009EBF0FBE8DBFEDB7FEB73196ADB7BEB77B
:1017000012961C930E93119783E391E09383828347
:1017100083EE90E09583848380917B0490917C0498
:10172000A0917D04B0917E0486839783A087B187C2
:1017300080EB90E0938782870E94EA2A8DB79EB75C
:101740000C960FB6F8949EBF0FBE8DBFC8010E94C5
:1017500099041F910F9108950F931F93282F462FDF
:101760000DE214E0C801622F0E94E5048DB79EB718
:1017700046970FB6F8949EBF0FBE8DBFEDB7FEB76C
:101780003196ADB7BEB712961C930E9311978DE3A9
:1017900091E09383828389EB90E0958384838091A9
:1017A0007404909175049783868382E890E0918712
:1017B000808787EB90E093878287809124039091C4
:1017C0002503A0912603B091270384879587A687D8
:1017D000B78786EB90E0918B808B80912A03909164
:1017E0002B03A0912C03B0912D03828B938BA48BA0
:1017F000B58B0E94EA2A8DB79EB746960FB6F8942D
:101800009EBF0FBE8DBFC8010E9499041F910F910A
:101810000895EF92FF920F931F93282F462F8DE28A
:10182000E82E84E0F82EC701622F0E94E5048DB7F0
:101830009EB70C970FB6F8949EBF0FBE8DBF0DB725
:101840001EB70F5F1F4FEDB7FEB7F282E18285E54D
:1018500091E0F8019383828384EE90E09583848302
:101860006091720470917304882777FD8095982F9A
:101870000E9402362AE037ED43E25CE30E943537EE
:10188000F80166837783808791878FE890E093875C
:1018900082870E94EA2A8DB79EB70C960FB6F894FD
:1018A0009EBF0FBE8DBFC7010E9499041F910F916B
:1018B000FF90EF900895CF92DF92EF92FF920F93F7
:1018C0001F93282F462F8DE294E0622F0E94E5049B
:1018D000C0906E04D0906F04E0907004F09071049A
:1018E00080919B0590E0805D9E4F20911E0330917A
:1018F0001F03829FB001839F700D929F700D112472
:10190000882777FD8095982F0E94023620E030E0EE
:1019100048EC52E40E9467359B01AC01C701B60157
:101920000E946035181614F428EB01C024EB8DB723
:101930009EB70C970FB6F8949EBF0FBE8DBFEDB744
:10194000FEB731960DE214E0ADB7BEB712961C9308
:101950000E93119785E591E093838283822F9927D7
:1019600087FD909595838483C682D782E086F18631
:101970008EE890E0938782870E94EA2A8DB79EB70F
:101980000C960FB6F8949EBF0FBE8DBFC8010E9483
:1019900099041F910F91FF90EF90DF90CF900895E1
:1019A0000F931F93CF93DF93282F462F8DE294E060
:1019B000622F0E94E50480915504882319F4CFE535
:1019C000D1E057C0813019F4C3E6D1E052C0823073
:1019D00019F4C7E6D1E04DC0833019F4CBE6D1E06D
:1019E00048C0843019F4CFE6D1E043C0853019F403
:1019F000C3E7D1E03EC0863019F4C7E7D1E039C073
:101A0000873019F4CBE7D1E034C0883019F4CFE740
:101A1000D1E02FC0893019F4C3E8D1E02AC08A3060
:101A200019F4C7E8D1E025C08B3019F4CBE8D1E038
:101A300020C08C3019F4CFE8D1E01BC08D3019F4F0
:101A4000C3E9D1E016C08E3019F4C7E9D1E011C066
:101A50008F3019F4CBE9D1E00CC0803119F4CFE913
:101A6000D1E007C0813119F0C3EAD1E002C0C4EA75
:101A7000D1E08150863090F480915404882371F035
:101A80000E942B332CE231E040E050E00E94A1386C
:101A900020FF02C024E003C020E201C020EE8DB789
:101AA0009EB708970FB6F8949EBF0FBE8DBFEDB7D7
:101AB000FEB731960DE214E0ADB7BEB712961C9397
:101AC0000E93119788EA91E093838283822F99275E
:101AD00087FD909595838483D783C6830E94EA2AE5
:101AE0008DB79EB708960FB6F8949EBF0FBE8DBFF8
:101AF000C8010E949904DF91CF911F910F91089521
:101B00000F931F93282F462F0DE214E0C801622F78
:101B10000E94E5048DB79EB70A970FB6F8949EBF52
:101B20000FBE8DBFEDB7FEB73196ADB7BEB71296FB
:101B30001C930E9311978DEA91E09383828387E83B
:101B400090E0958384838091560490915704978305
:101B5000868385E290E0918780870E94EA2A8DB78C
:101B60009EB70A960FB6F8949EBF0FBE8DBFC801F0
:101B70000E9499041F910F9108950F931F93282F8E
:101B8000462F0DE214E0C801622F0E94E5048DB7D4
:101B90009EB708970FB6F8949EBF0FBE8DBFEDB7E6
:101BA000FEB73196ADB7BEB712961C930E93119740
:101BB00087EB91E093838283809146049091470460
:101BC0009583848381EB90E0978386830E94EA2A41
:101BD0008DB79EB708960FB6F8949EBF0FBE8DBF07
:101BE000C8010E9499041F910F9108950F931F93AC
:101BF000282F462F0DE214E0C801622F0E94E50451
:101C00008DB79EB708970FB6F8949EBF0FBE8DBFD5
:101C1000EDB7FEB73196ADB7BEB712961C930E93D3
:101C2000119787EB91E09383828380914404909194
:101C300045049583848382EB90E0978386830E949A
:101C4000EA2A8DB79EB708960FB6F8949EBF0FBECE
:101C50008DBFC8010E9499041F910F910895AF9202
:101C6000BF92CF92DF92EF92FF920F931F93B82E05
:101C7000A62E0DE214E0C8016B2D4A2D0E94E5044A
:101C80008DB79EB70E970FB6F8949EBF0FBE8DBF4F
:101C9000EDB7FEB73196ADB7BEB712961C930E9353
:101CA00011978DEB91E09383828321EEC22ED12C8C
:101CB000D582C48280917F04992787FD9095978370
:101CC00086839CE8E92EF12CF186E08680918004E1
:101CD000828713868BE890E0958784870E94EA2AA2
:101CE0008DB79EB70E960FB6F8949EBF0FBE8DBFF0
:101CF000C8010E949904C8016B2D4A2D0E94E50479
:101D0000ADB7BEB71A970FB6F894BEBF0FBEADBF42
:101D1000EDB7FEB7319612961C930E9311978BEC8C
:101D200091E093838283D582C48280911D03992799
:101D300087FD909597838683F186E0860E94EA2A44
:101D40008DB79EB70A960FB6F8949EBF0FBE8DBF93
:101D5000C8010E9499041F910F91FF90EF90DF90AE
:101D6000CF90BF90AF9008950F931F93282F462FC9
:101D70000DE214E0C801622F0E94E5048DB79EB702
:101D800042970FB6F8949EBF0FBE8DBFEDB7FEB75A
:101D90003196ADB7BEB712961C930E93119783ED93
:101DA00091E09383828384EE91E095838483809194
:101DB0004E0490914F04A0915004B0915104868339
:101DC0009783A087B18780EB90E09387828780ED2F
:101DD00090E0958784878CE995E09787868781EDE9
:101DE00090E0918B808B0E94EA2A8DB79EB7429635
:101DF0000FB6F8949EBF0FBE8DBFC8010E94990414
:101E00001F910F9108950F931F93282F462F0DE2D6
:101E100014E0C801622F0E94E5048DB79EB70C97AD
:101E20000FB6F8949EBF0FBE8DBFEDB7FEB73196CB
:101E3000ADB7BEB712961C930E93119783E391E052
:101E40009383828386E190E09583848380916A0402
:101E500090916B04A0916C04B0916D04868397837C
:101E6000A087B18788E890E0938782870E94EA2A5A
:101E70008DB79EB70C960FB6F8949EBF0FBE8DBF60
:101E8000C8010E9499041F910F910895CF92DF928B
:101E9000EF92FF920F931F93CF93DF93282F462F3C
:101EA000CDE2D4E0CE01622F0E94E504C090A805E7
:101EB000D090A905E090AA05F090AB05C701B60146
:101EC0000E94CF35695E7340804090408CF18DB7A1
:101ED0009EB70C970FB6F8949EBF0FBE8DBF0DB77F
:101EE0001EB70F5F1F4FADB7BEB71296DC93CE93F0
:101EF000119785E591E0F801938382838EEF90E05E
:101F000095838483C701B60120E030E04AE754E4BA
:101F10000E946735D80116966D937D938D939C939F
:101F200019978DEF90E01B969C938E931A9721C082
:101F30008DB79EB70C970FB6F8949EBF0FBE8DBF9E
:101F4000EDB7FEB73196ADB7BEB71296DC93CE9320
:101F500011978EEE91E0938382838EEF90E09583CC
:101F60008483C682D782E086F1868DE890E09387ED
:101F700082870E94EA2AEDB7FEB73C960FB6F89426
:101F8000FEBF0FBEEDBF8DE294E00E949904DF9189
:101F9000CF911F910F91FF90EF90DF90CF90089518
:101FA000EF92FF920F931F93282F462F3DE2E32ECF
:101FB00034E0F32EC701622F0E94E5048DB79EB76F
:101FC0000C970FB6F8949EBF0FBE8DBF0DB71EB70E
:101FD0000F5F1F4FEDB7FEB7F282E18283E391E01E
:101FE000F8019383828388EE90E0958384836091E7
:101FF000AC057091AD058091AE059091AF0526E6D8
:1020000036E646E650E40E943537F801668377836A
:102010008087918781E890E0938782870E94EA2AEF
:102020008DB79EB70C960FB6F8949EBF0FBE8DBFAE
:10203000C7010E9499041F910F91FF90EF9008959E
:10204000EF92FF920F931F93282F462F5DE2E52E0C
:1020500054E0F52EC701622F0E94E5048DB79EB7AC
:102060000C970FB6F8949EBF0FBE8DBF0DB71EB76D
:102070000F5F1F4FEDB7FEB7F282E18283E391E07D
:10208000F8019383828389EE90E095838483609145
:10209000660470916704809168049091690426E653
:1020A00036E646E650E40E943537F80166837783CA
:1020B0008087918781E890E0938782870E94EA2A4F
:1020C0008DB79EB70C960FB6F8949EBF0FBE8DBF0E
:1020D000C7010E9499041F910F91FF90EF900895FE
:1020E000CF92DF92EF92FF920F931F93282F462FEC
:1020F000BDE2CB2EB4E0DB2EC601622F0E94E504C8
:10210000609162047091630480916404909165040D
:102110002DB73EB7245130400FB6F8943EBF0FBEE6
:102120002DBF0DB71EB70F5F1F4FEDB7FEB7D282A1
:10213000C18228EF31E0F8013383228325E830E0C3
:10214000358324836683778380879187ADE8EA2E81
:10215000F12CF386E28627EE30E035872487209144
:10216000B0053091B1054091B2055091B3050E9480
:102170009934F80166877787808B918BF38AE28A9E
:102180000E94EA2A2DB73EB72C5E3F4F0FB6F89457
:102190003EBF0FBE2DBFC6010E9499041F910F9133
:1021A000FF90EF90DF90CF900895EF92FF920F9302
:1021B0001F93282F462F1DE2E12E14E0F12EC701B8
:1021C000622F0E94E5048DB79EB70C970FB6F89466
:1021D0009EBF0FBE8DBF0DB71EB70F5F1F4FEDB770
:1021E000FEB7F282E1828CE092E0F8019383828371
:1021F00086EE90E0958384836091770470917804F3
:102200008091790490917A0420912E0330912F03CC
:1022100040913003509131030E949934F801668354
:102220007783808791878DE890E0938782870E94EB
:10223000EA2A8DB79EB70C960FB6F8949EBF0FBED4
:102240008DBFC7010E9499041F910F91FF90EF90DD
:1022500008950F931F93282F462F0DE214E0C80115
:10226000622F0E94E5048091B4050E946309C801B1
:102270000E9499041F910F910895CF92DF92EF92DF
:10228000FF920F931F93CF93DF93282F462FCDE21A
:10229000D4E0CE01622F0E94E5046091B5057091F3
:1022A000B6058091B7059091B8050E9402366B0182
:1022B0007C0120E030E44CE156E40E946035882344
:1022C00014F58DB79EB70C970FB6F8949EBF0FBE4E
:1022D0008DBFEDB7FEB73196ADB7BEB71296DC93A2
:1022E000CE9311978CE092E09383828382E190E019
:1022F00095838483C682D782E086F1868DE890E05C
:102300009387828730C08DB79EB70C970FB6F8942D
:102310009EBF0FBE8DBF0DB71EB70F5F1F4FADB76E
:10232000BEB71296DC93CE93119786E192E0F80146
:102330009383828382E190E095838483C701B60111
:1023400020E030E04AE754E40E946735D801169651
:102350006D937D938D939C9319978DEF90E01B96D1
:102360009C938E931A970E94EA2AEDB7FEB73C968B
:102370000FB6F894FEBF0FBEEDBF8DE294E00E9451
:102380009904DF91CF911F910F91FF90EF90DF9013
:10239000CF900895BF92CF92DF92EF92FF920F936A
:1023A0001F93CF93DF93282F462F8DE294E0622F67
:1023B0000E94E5042091B9053091BA0537FF02C0AB
:1023C0004AE801C047EFC091BB05D091BC05D7FFDB
:1023D00003C06AE8B62E02C058EFB52E8DB79EB77F
:1023E0004C970FB6F8949EBF0FBE8DBF0DB71EB7AA
:1023F0000F5F1F4F9DE2C92E94E0D92EEDB7FEB7B7
:10240000D282C18280E292E0F80193838283842F9A
:10241000992787FD909595838483B901882777FD57
:102420008095982F0E940236F80166837783808713
:1024300091878DE8E82EF12CF386E2868B2D992783
:1024400087FD909595878487BE01882777FD8095C5
:10245000982F0E940236F80166877787808B918BD0
:10246000F38AE28A8BEF90E0958B848B6091BD05B7
:102470007091BE058091BF059091C00520E030E0CD
:102480004AE754E40E946735F801668B778B808FAA
:10249000918F84EF90E0938F828F0E94EA2A8DB70C
:1024A0009EB74C960FB6F8949EBF0FBE8DBFC60167
:1024B0000E949904DF91CF911F910F91FF90EF90AF
:1024C000DF90CF90BF9008950F931F93282F462F32
:1024D0000DE214E0C801622F0E94E5048DB79EB79B
:1024E0000C970FB6F8949EBF0FBE8DBFEDB7FEB729
:1024F0003196ADB7BEB712961C930E9311978EE32B
:1025000092E09383828380914A0490914B04A0913E
:102510004C04B0914D0484839583A683B783809146
:102520005C0490915D04A0915E04B0915F0480878B
:102530009187A287B3870E94EA2A8DB79EB70C962F
:102540000FB6F8949EBF0FBE8DBFC8010E949904BC
:102550001F910F9108950F931F93282F462F8DE2FF
:1025600094E0622F0E94E50480916104282F30E0FE
:10257000823030F474E0220F331F7A95E1F702C005
:102580002150304000D000D000D0EDB7FEB73196DA
:102590000DE214E0ADB7BEB712961C930E931197DF
:1025A00080E091E093838283358324830E94EA2A2A
:1025B0008DB79EB706960FB6F8949EBF0FBE8DBF1F
:1025C000C8010E9499041F910F9108950F931F93C2
:1025D000282F462F0DE214E0C801622F0E94E50467
:1025E0008DB79EB708970FB6F8949EBF0FBE8DBFEC
:1025F000EDB7FEB73196ADB7BEB712961C930E93EA
:1026000011978AE492E0938382838FE090E0958330
:10261000848380916004868317820E94EA2A8DB7A2
:102620009EB708960FB6F8949EBF0FBE8DBFC80127
:102630000E9499041F910F9108950F931F930DE22B
:1026400014E0C80161E047E00E94E50400D000D03A
:10265000EDB7FEB7128301838BE093E0948383830D
:102660000E94D92A0F900F900F900F90C8010E94DE
:1026700099041F910F910895EF92FF920F931F936A
:10268000CF93DF930E942B332091C4053091C50571
:102690004091C6055091C7052617370748075907C7
:1026A00008F029C10E942B336C507E4F8F4F9F4FF3
:1026B0006093C4057093C5058093C6059093C705C4
:1026C0000DE214E0C8010E942F05C80165E043E057
:1026D0000E94E50400D000D0EDB7FEB7128301835D
:1026E0008CE493E0948383830E94D92A0F900F9007
:1026F0000F900F908091950590919605892B31F060
:102700008091C1059091C205892B81F48091580474
:1027100090915904909396058093950580915A0461
:1027200090915B049093C2058093C10520915A0457
:1027300030915B044091C1055091C205C901845696
:1027400090404817590724F48091C3058F5F08C053
:102750002C593F4F241735072CF48091C305815025
:102760008093C3058091C305823014F482E003C0D6
:1027700085301CF084E08093C3058091C3058330CD
:1027800039F0843009F45DC0823009F0B0C003C074
:10279000CAE0D0E002C0C4E6D0E000D000D0FDE244
:1027A000EF2EF4E0FF2EEDB7FEB7F282E1828DE36B
:1027B00093E0948383830E94D92A8DB79EB70897AC
:1027C0000FB6F8949EBF0FBE8DBF0DB71EB70F5F3B
:1027D0001F4FEDB7FEB7F282E18280E592E0F8018B
:1027E000938382836091280370912903882777FD62
:1027F0008095982F0E940236F80164837583868342
:10280000978382E890E09187808780E290E09387C9
:1028100082870E94EA2A8DB79EB70C960FB6F8946D
:102820009EBF0FBE8DBF80912803909129036DEF4D
:1028300073E0AE010E941D0A909329038093280340
:1028400056C000D000D0EDE2EE2EE4E0FE2EEDB753
:10285000FEB7F282E1828DE193E0948383830E944C
:10286000D92A8DB79EB708970FB6F8949EBF0FBEB2
:102870008DBF0DB71EB70F5F1F4FEDB7FEB7F282CA
:10288000E18288E592E0F8019383828360919B0561
:1028900070E0645D7E4F882777FD8095982F0E94B9
:1028A000023620E030E048EC52E40E946735F8013F
:1028B000648375838683978386E790E0918780871A
:1028C00080E290E0938782870E94EA2A8DB79EB7C4
:1028D0000C960FB6F8949EBF0FBE8DBF80919B05DE
:1028E00090E060E873E00E94F20980939B058DE21E
:1028F00094E00E949904DF91CF911F910F91FF9076
:10290000EF9008952F923F924F925F926F927F9235
:102910008F929F92AF92BF92CF92DF92EF92FF92EF
:102920000F931F93DF93CF93CDB7DEB760970FB6AA
:10293000F894DEBF0FBECDBF8D876E870E942B330C
:102940002091C8053091C9054091CA055091CB0529
:10295000261737074807590708F0F4C18091CC05BE
:102960008823C9F0809332031092CC0580E692E070
:102970009093DB058093DA050E942B33625A7E4FD9
:102980008F4F9F4F6093C8057093C9058093CA0508
:102990009093CB0591C180913203282F30E03A8388
:1029A0002983C0905304309181043C874091820474
:1029B0004B87D0905204E090CE05F090CF05009167
:1029C000DA051091DB0550913F045B83809161042F
:1029D0008A879091CD05998720906E0430906F047E
:1029E000409070045090710480919B0590E0845D4C
:1029F0009E4F20911E0330911F03DC01A29FC00156
:102A0000A39F900DB29F900D11246090A803B0E495
:102A10006B227090A9037B22E0911D03E88720912F
:102A2000B9053091BA053F832E834091BB05509183
:102A3000BC055D834C83A981BA81B88BAF874C01FB
:102A4000AA2497FCA094BA2CEF85F8893196F88BCC
:102A5000EF8739972CF021E030E0388B2F8727C0A3
:102A60004F8558894430510509F454C0453051050B
:102A700064F442305105D1F1433051050CF03EC0B1
:102A80004130510509F099C012C08F859889863070
:102A9000910509F460C0863091050CF452C087306E
:102AA000910509F463C0089709F087C077C091E0E9
:102AB0009C15A0F0C91619F40DE612E015C0AC85FE
:102AC000A13049F4BB85B13031F4E2E0ED1518F0E6
:102AD0000AE712E009C007E812E006C0FB85F13002
:102AE00009F46BC004E912E081E070C02B8123304F
:102AF00009F463C001EA12E082E068C03A8532302E
:102B000008F05BC04985442309F457C00EEA12E07F
:102B100083E05CC0C501B4010E94023620E030E0D1
:102B200048EC52E40E9467359B01AC01C201B1013F
:102B30000E94603588230CF040C00BEB12E084E06B
:102B400045C051E0E516F104C1F508EC12E0EE24B1
:102B5000FF2485E03BC0662011F4772071F1888561
:102B6000893B5CF505ED12E086E030C091E09C15F4
:102B700020F19D1510F5A2E0DA1619F402EE12E02C
:102B800005C0B3E0DB1621F40FEE12E087E01EC0B3
:102B9000E4E0DE16D9F70CEF12E0F8CFF1E0FC1517
:102BA00060F42E813F8137FD04C04C815D8157FF69
:102BB00004C009E013E088E009C08F859889A981E5
:102BC000BA818A179B0709F03FCFA1C0F092CF05C9
:102BD000E092CE051093DB050093DA058093CC05D7
:102BE00081E08093D0050E942B3364547D4F8F4F3A
:102BF0009F4F6093C8057093C9058093CA05909351
:102C0000CB050E942B336854744F8F4F9F4F6093B6
:102C1000D6057093D7058093D8059093D9058091F8
:102C2000D1059091D205A091D305B091D40500971C
:102C3000A105B10571F40E942B336059784E8F4F76
:102C40009F4F6093D1057093D2058093D3059093E5
:102C5000D4058091D505882379F40E942B332091E7
:102C6000D1053091D2054091D3055091D405261756
:102C700037074807590720F08DE294E00E942F059E
:102C80000E942B332091D1053091D2054091D3057C
:102C90005091D405261737074807590768F0109256
:102CA000D5050AC01092D0051092D1051092D20518
:102CB0001092D3051092D4050DE214E0C8016D8581
:102CC0004E850E94E50400D000D000D0EDB7FEB7DD
:102CD0003196ADB7BEB712961C930E93119786E14D
:102CE00093E0938382838091DA059091DB0595834D
:102CF00084830E94EA2AEDB7FEB736960FB6F894A1
:102D0000FEBF0FBEEDBFC8010E9499041BC0F09228
:102D1000CF05E092CE051093DB050093DA05109203
:102D2000CC050E942B332091D6053091D7054091D8
:102D3000D8055091D905261737074807590708F4D1
:102D4000B1CFBACF60960FB6F894DEBF0FBECDBF3D
:102D5000CF91DF911F910F91FF90EF90DF90CF9077
:102D6000BF90AF909F908F907F906F905F904F90AB
:102D70003F902F9008952091190330911A03C901B3
:102D8000895097408F5A9440D0F5809153048823FE
:102D900021F481E08093DC052EC08091DC0588233E
:102DA00051F58091D005882311F10E942B33209199
:102DB000D1053091D2054091D3055091D405261705
:102DC000370748075907B8F40E942B332091C805EC
:102DD0003091C9054091CA055091CB052617370798
:102DE0004807590740F48091CC05882321F48DE2EF
:102DF00094E00E942F0582E08093D505089584E039
:102E0000203B380768F48091D505882349F010925B
:102E1000DC058DE294E00E942F051092D5050895FF
:102E2000205B34402955324000F58091D505813032
:102E3000E1F08091D005882379F00E942B33209116
:102E4000D1053091D2054091D3055091D405261774
:102E500037074807590748F41092DC058DE294E0E3
:102E60000E942F0581E08093D5050895EF92FF928F
:102E70000F931F938091DC05882309F060C0809137
:102E80005304823008F05BC08091CD05813009F099
:102E900056C08091580490915904895097400CF481
:102EA0004EC080915A0490915B04805B94400CF07A
:102EB00046C080914A0490914B04A0914C04B0917B
:102EC0004D048093DD059093DE05A093DF05B0935C
:102ED000E00580915C0490915D04A0915E04B09146
:102EE0005F048093E1059093E205A093E305B0931E
:102EF000E4058091620490916304A0916404B09110
:102F000065048093B0059093B105A093B205B0938A
:102F1000B3058091770490917804A0917904B091E1
:102F20007A0480932E0390932F03A0933003B093E1
:102F3000310381E090E09093CF058093CE0580919E
:102F4000E5059091E605A091E705B091E8050097A9
:102F5000A105B10509F04EC0809156049091570427
:102F6000079708F447C080915304823008F442C0A8
:102F70000E942B336093E5057093E6058093E70587
:102F80009093E8051092EA051092E9058091740487
:102F9000909175049093EC058093EB058091240348
:102FA00090912503A0912603B091270380933303CA
:102FB00090933403A0933503B093360380E090E000
:102FC000A0E0B0E08093A8059093A905A093AA057E
:102FD000B093AB058091770490917804A091790427
:102FE000B0917A0480932E0390932F03A093300323
:102FF000B09331038091E5059091E605A091E70536
:10300000B091E8050097A105B10509F462C080916F
:10301000560490915704079720F480915404882314
:1030200059F180915304823038F10E942B33209162
:10303000E5053091E6054091E7055091E805621BF2
:10304000730B840B950B28EE33E040E050E00E94B8
:10305000A13830939805209397058091740490913E
:1030600075042091EB053091EC05821B930B909336
:10307000EA058093E9054DC00E942B337B018C014A
:103080006091970570919805882777FD8095982F16
:1030900028E13CEF4FEF5FEF0E945B38E60EF71E32
:1030A000081F191FE092E505F092E6050093E70579
:1030B0001093E80580917404909175042091E905BE
:1030C0003091EA05821B930B9093EC058093EB05FE
:1030D00020C00E942B3328EE33E040E050E00E94F5
:1030E000A13830939805209397051092EA05109225
:1030F000E9058091240390912503A0912603B091C6
:1031000027038093330390933403A0933503B09344
:1031100036030E94BB168091DC05882319F00E94BB
:103120003C1349C28091A80380FF08C06091FE0350
:103130008091FC0390E070E00E9482148091D5059C
:103140008230A8F08091D005882309F434C20E940F
:103150002B332091D1053091D2054091D305509168
:10316000D405261737074807590708F424C2809169
:10317000D5058093ED05823011F41092D50580912C
:10318000D505A82FB0E0FD01EE55FC4F808185FFED
:103190000BC0FD01E654FC4F6081A854BC4F8C91DC
:1031A00090E070E00E94E6128091D505A82FB0E073
:1031B000FD01EE55FC4F808186FF0BC0FD01E254FE
:1031C000FC4F6081A454BC4F8C9190E070E00E9451
:1031D000AB128091D505A82FB0E0FD01E855FC4F5A
:1031E000808183FF0BC0FD01EE5FFB4F6081A0502B
:1031F000BC4F8C9190E070E00E94030F8091CD0550
:10320000882309F454C08091D505A82FB0E0FD01B2
:10321000EE55FC4F808187FF0BC0FD01EE53FC4F44
:103220006081A054BC4F8C9190E070E00E946412C9
:103230008091D505A82FB0E0FD01EC55FC4F8081B1
:1032400084FF0BC0FD01EE52FC4F6081A053BC4FC8
:103250008C9190E070E00E943D118091D505A82FDF
:10326000B0E0FD01EC55FC4F808183FF0BC0FD01F8
:10327000E253FC4F6081A453BC4F8C9190E070E00E
:103280000E9429118091D505A82FB0E0FD01EC55D1
:10329000FC4F808186FF0BC0FD01EA52FC4F60812C
:1032A000AC52BC4F8C9190E070E00E94CA118091AA
:1032B000D505A82FB0E0FD01EA55FC4F808187FFBE
:1032C0000BC0FD01EA51FC4F6081AC51BC4F8C91A9
:1032D00090E070E00E94D5108091CD05882309F41C
:1032E00059C080916104823008F454C08091D505A2
:1032F000A82FB0E0FD01E655FC4F808182FF0BC096
:10330000FD01E65FFB4F6081A85FBB4F8C9190E0B1
:1033100070E00E94460F8091D505A82FB0E0FD0116
:10332000EA55FC4F808182FF0BC0FD01EE51FC4F3E
:103330006081A052BC4F8C9190E070E00E947010B0
:103340008091D505A82FB0E0FD01EA55FC4F8081A2
:1033500083FF0BC0FD01E651FC4F6081A851BC4FBB
:103360008C9190E070E00E9420108091D505A82FEC
:10337000B0E0FD01EA55FC4F808181FF0BC0FD01EB
:10338000E251FC4F6081A451BC4F8C9190E070E001
:103390000E94D00F8091CD05882321F08091610497
:1033A000823028F48091520481508330A8F48091B7
:1033B000D505A82FB0E0FD01EC55FC4F808180FFC2
:1033C0000BC0FD01E653FC4F6081A853BC4F8C91AC
:1033D00090E070E00E94B40E8091D505A82FB0E077
:1033E000FD01E855FC4F808186FF0FC080917F046E
:1033F000882359F0FD01EA5FFB4F6081AC5FBB4F52
:103400008C9190E070E00E942F0E8091D505A82F3E
:10341000B0E0FD01EE55FC4F808182FF0BC0FD0145
:10342000EE54FC4F6081A055BC4F8C9190E070E051
:103430000E94F60D8091D505A82FB0E0FD01EE5554
:10344000FC4F808181FF0BC0FD01E255FC4F608184
:10345000A455BC4F8C9190E070E00E94BD0D80910E
:10346000D505A82FB0E0FD01EA55FC4F808184FF0F
:103470000BC0FD01EE50FC4F6081A051BC4F8C9100
:1034800090E070E00E94800D8091D505A82FB0E0FB
:10349000FD01EA55FC4F808185FF0BC0FD01EA501C
:1034A000FC4F6081AC50BC4F8C9190E070E00E946A
:1034B000D00C8091D505A82FB0E0FD01EE55FC4F52
:1034C000808183FF0BC0FD01EA54FC4F6081AC5446
:1034D000BC4F8C9190E070E00E945B0C8091D50510
:1034E000A82FB0E0FD01EA55FC4F808180FF0BC0A2
:1034F000FD01E252FC4F6081A452BC4F8C9190E0E0
:1035000070E00E94090C8091D505A82FB0E0FD0164
:10351000EE55FC4F808184FF0BC0FD01EA53FC4F48
:103520006081AC53BC4F8C9190E070E00E94AC0B7A
:103530008091D505A82FB0E0FD01E655FC4F8081B4
:1035400081FF0BC0FD01E25FFB4F6081A45FBB4FB9
:103550008C9190E070E00E94690B8091D505A82FB6
:10356000B0E0FD01EC55FC4F808187FF0BC0FD01F1
:10357000E652FC4F6081A852BC4F8C9190E070E005
:103580000E94F60A8091D505A82FB0E0FD01EA550A
:10359000FC4F808186FF0BC0FD01E650FC4F60812F
:1035A000A850BC4F8C9190E070E00E949E0A8091E0
:1035B000ED058093D5051F910F91FF90EF90089531
:1035C0008DE294E00E942F050E941D130895CF9371
:1035D000DF93EC018DE294E00E940404C817D90740
:1035E0003CF08DE294E00E94F903892B09F42397C3
:1035F000CE01DF91CF910895FF920F931F9301E1C8
:1036000016E0C80160E873E00E949B3180939B053F
:10361000C8016DEF73E00E949B31F82EC8016EEF78
:1036200073E00E949B31382F20E02F0D311D309325
:103630002903209328031F910F91FF900895BC0147
:1036400081E196E00E949B310895EF92FF920F93E3
:103650001F93CF93DF930091D50510E08AEF90E0A0
:10366000089F7001099FF00C189FF00C1124C701EE
:1036700088569F4F0E941F1BF801EE55FC4F882370
:1036800019F08081806102C080818F7E808380916B
:10369000D505C82FD0E0C70186569F4F0E941F1B3B
:1036A000CC53DC4F88838091D505C82FD0E0C7016B
:1036B00084569F4F0E941F1B90E00E94E71ACA5336
:1036C000DC4F88830091D50510E0C70106960E9463
:1036D0001F1BF801EE55FC4F882319F08081826092
:1036E00002C080818D7F80838091D505C82FD0E076
:1036F000C70108960E941F1BC455DC4F8883809128
:10370000D505C82FD0E0C7010A960E941F1B90E084
:103710000E94E71AC255DC4F88830091D50510E05E
:10372000C7010C960E941F1BF801EE55FC4F882321
:1037300019F08081846002C080818B7F80838091BA
:10374000D505C82FD0E0C7010E960E941F1BC0559B
:10375000DC4F88838091D505C82FD0E0C701409603
:103760000E941F1B90E00E94E71ACE54DC4F888312
:103770000091D50510E0C70142960E941F1BF80179
:10378000EE55FC4F882319F08081886002C080814B
:10379000877F80838091D505C82FD0E0C7014496EC
:1037A0000E941F1BCC54DC4F88838091D505C82F05
:1037B000D0E0C70146960E941F1B90E00E94E71AC6
:1037C000CA54DC4F88830091D50510E0C7014E969E
:1037D0000E941F1BF801EE55FC4F882319F08081D1
:1037E000806202C080818F7D80838091D505C82F43
:1037F000D0E0C70180960E941F1BC854DC4F88830D
:103800008091D505C82FD0E0C70182960E941F1B6A
:1038100090E00E94E71AC654DC4F88830091D505DA
:1038200010E0C70184960E941F1BF801EE55FC4F63
:10383000882319F08081806402C080818F7B80831F
:103840008091D505C82FD0E0C70186960E941F1B26
:10385000C454DC4F88838091D505C82FD0E0C701C0
:1038600088960E941F1B90E00E94E71AC254DC4F0A
:1038700088830091D50510E0C7018A960E941F1B1E
:10388000F801EE55FC4F882319F08081806802C052
:1038900080818F7780838091D505C82FD0E0C701C4
:1038A0008C960E941F1BC054DC4F88838091D505E5
:1038B000C82FD0E0C7018E960E941F1B90E00E9487
:1038C000E71ACE53DC4F88830091D50510E0C7017D
:1038D000C0960E941F1BF801EC55FC4F882319F07D
:1038E0008081816002C080818E7F80838091D50538
:1038F000C82FD0E0C701C2960E941F1BC853DC4FDF
:1039000088838091D505C82FD0E0C701C4960E9456
:103910001F1B90E00E94E71AC653DC4F888300917A
:10392000D50510E0C701885B9F4F0E941F1BF8015F
:10393000EC55FC4F882319F08081806102C08081A2
:103940008F7E80838091D505C82FD0E0C701865B2C
:103950009F4F0E941F1BC053DC4F88838091D50569
:10396000C82FD0E0C701845B9F4F0E941F1B90E0CF
:103970000E94E71ACE52DC4F88830091D50510E0F3
:10398000C7018E5B9F4F0E941F1BF801EC55FC4F37
:10399000882319F08081886002C08081877F8083BE
:1039A0008091D505C82FD0E0C7018C5B9F4F0E9446
:1039B0001F1BC453DC4F88838091D505C82FD0E0EE
:1039C000C7018A5B9F4F0E941F1B90E00E94E71A6D
:1039D000C253DC4F88830091D50510E0C7018A5A95
:1039E0009F4F0E941F1BF801EC55FC4F882319F0D4
:1039F0008081806402C080818F7B80838091D50527
:103A0000C82FD0E0C701885A9F4F0E941F1BCC527D
:103A1000DC4F88838091D505C82FD0E0C701865A36
:103A20009F4F0E941F1B90E00E94E71ACA52DC4F72
:103A300088830091D50510E0C70182569F4F0E94F0
:103A40001F1BF801EC55FC4F882319F0808180681A
:103A500002C080818F7780838091D505C82FD0E008
:103A6000C70180569F4F0E941F1BC852DC4F88839E
:103A70008091D505C82FD0E0C7018E559F4F0E9479
:103A80001F1B90E00E94E71AC652DC4F888300910A
:103A9000D50510E0C7018E599F4F0E941F1BF801EA
:103AA000EA55FC4F882319F08081816002C0808133
:103AB0008E7F80838091D505C82FD0E0C7018C59B7
:103AC0009F4F0E941F1BC452DC4F88838091D505F5
:103AD000C82FD0E0C7018A599F4F0E941F1B90E05A
:103AE0000E94E71AC252DC4F88830091D50510E08E
:103AF000C70182599F4F0E941F1BF801EA55FC4FD6
:103B0000882319F08081846002C080818B7F80834C
:103B10008091D505C82FD0E0C70180599F4F0E94E2
:103B20001F1BC052DC4F88838091D505C82FD0E081
:103B3000C7018E589F4F0E941F1B90E00E94E71AFA
:103B4000CE51DC4F88830091D50510E0C701845722
:103B50009F4F0E941F1BF801EA55FC4F882319F064
:103B60008081806802C080818F7780838091D505B5
:103B7000C82FD0E0C70182579F4F0E941F1BCC5116
:103B8000DC4F88838091D505C82FD0E0C7018057CE
:103B90009F4F0E941F1B90E00E94E71ACA51DC4F02
:103BA00088830091D50510E0C7018E569F4F0E9473
:103BB0001F1BF801EA55FC4F882319F080818260B1
:103BC00002C080818D7F80838091D505C82FD0E091
:103BD000C7018C569F4F0E941F1BC451DC4F888326
:103BE0008091D505C82FD0E0C7018A569F4F0E940B
:103BF0001F1B90E00E94E71AC251DC4F888300919E
:103C0000D50510E0C7018C589F4F0E941F1BF8017B
:103C1000EA55FC4F882319F08081886002C08081BA
:103C2000877F80838091D505C82FD0E0C7018A584F
:103C30009F4F0E941F1BC851DC4F88838091D50580
:103C4000C82FD0E0C70188589F4F0E941F1B90E0EB
:103C50000E94E71AC651DC4F88830091D50510E019
:103C6000C70186589F4F0E941F1BF801EA55FC4F61
:103C7000882319F08081806102C080818F7E8083DB
:103C80008091D505C82FD0E0C70184589F4F0E946E
:103C90001F1BC051DC4F88838091D505C82FD0E011
:103CA000C70182589F4F0E941F1B90E00E94E71A95
:103CB000CE50DC4F88830091D50510E0C7018058B5
:103CC0009F4F0E941F1BF801EA55FC4F882319F0F3
:103CD0008081806202C080818F7D80838091D50544
:103CE000C82FD0E0C7018E579F4F0E941F1BCC509A
:103CF000DC4F88838091D505C82FD0E0C7018C5751
:103D00009F4F0E941F1B90E00E94E71ACA50DC4F91
:103D100088830091D50510E0C7018A579F4F0E9404
:103D20001F1BF801EA55FC4F882319F0808180643D
:103D300002C080818F7B80838091D505C82FD0E021
:103D4000C70188579F4F0E941F1BC850DC4F8883B4
:103D50008091D505C82FD0E0C70186579F4F0E949C
:103D60001F1B90E00E94E71AC650DC4F8883009129
:103D7000D50510E0C7018C559F4F0E941F1BF8010D
:103D8000E855FC4F882319F08081816002C0808152
:103D90008E7F80838091D505C82FD0E0C7018A55DA
:103DA0009F4F0E941F1BC450DC4F88838091D50514
:103DB000C82FD0E0C70188559F4F0E941F1B90E07D
:103DC0000E94E71AC250DC4F88830091D50510E0AD
:103DD000C7018A549F4F0E941F1BF801E855FC4FF2
:103DE000882319F08081886002C08081877F80836A
:103DF0008091D505C82FD0E0C70188549F4F0E94FD
:103E00001F1BC050DC4F88838091D505C82FD0E0A0
:103E1000C70186549F4F0E941F1B90E00E94E71A23
:103E2000CE5FDB4F88830091D50510E0C701845A2F
:103E30009F4F0E941F1BF801E855FC4F882319F083
:103E40008081806402C080818F7B80838091D505D2
:103E5000C82FD0E0C701825A9F4F0E941F1BCC5F22
:103E6000DB4F88838091D505C82FD0E0C701805AE9
:103E70009F4F0E941F1B90E00E94E71ACA5FDB4F12
:103E800088830091D50510E0C70180529F4F0E94A2
:103E90001F1BF801E655FC4F882319F080818460D0
:103EA00002C080818B7F80838091D505C82FD0E0B0
:103EB000C7018E519F4F0E941F1BC85FDB4F888335
:103EC0008091D505C82FD0E0C7018C519F4F0E942B
:103ED0001F1B90E00E94E71AC65FDB4F88830091AA
:103EE000D50510E0C7018C529F4F0E941F1BF8019F
:103EF000E655FC4F882319F08081826002C08081E2
:103F00008D7F80838091D505C82FD0E0C7018A526C
:103F10009F4F0E941F1BC45FDB4F88838091D50594
:103F2000C82FD0E0C70188529F4F0E941F1B90E00E
:103F30000E94E71AC25FDB4F8883DF91CF911F9108
:103F40000F91FF90EF9008954F925F927F928F9222
:103F50009F92AF92BF92CF92DF92EF92FF920F9318
:103F60001F93DF93CF93CDB7DEB7C854D0400FB6C1
:103F7000F894DEBF0FBECDBF0DE214E0C8010E9471
:103F80002F05C80166E049E00E94E50400D000D09A
:103F9000EDB7FEB71283018387E793E094838383B1
:103FA0000E94D92A0F900F900F900F90C8010E9485
:103FB000990400D000D000E114E0EDB7FEB7128301
:103FC000018387E693E0948383830E94D92ABCE52A
:103FD0004B2EB3E05B2EEE24FF24CC24DD240F9087
:103FE0000F900F900F90702E012FA9E0AA2EB12CE8
:103FF000AC0EBD1E4E010894811C911C80E194E022
:104000000E948D2B982F8D3031F08D30DCF1805354
:104010008230C0F530C01830A1F59981892F8053C6
:10402000823078F5913311F490E801C090E08A81F4
:10403000813309F4905C8B81813309F4905E8C812B
:10404000813309F4905F8D81813309F4985F8E810B
:10405000813309F49C5F8F81813309F49E5F8885E9
:10406000813309F49F5FF501EE0DFF1D90830894E5
:10407000E11CF11C06C0F401E10FF11D90831F5FEC
:1040800001C010E0F0E4EF16F104C9F48DE294E011
:10409000B601A5010E9412040894C11CD11C00D0D5
:1040A00000D0EDB7FEB771820283548243820E9432
:1040B000D92AEE24FF240F900F900F900F90FFEF5E
:1040C000CF16D10409F00CF499CFC85BDF4F0FB6BF
:1040D000F894DEBF0FBECDBFCF91DF911F910F913E
:1040E000FF90EF90DF90CF90BF90AF909F908F9018
:1040F0007F905F904F9008953F924F925F926F92A2
:104100007F928F929F92AF92BF92CF92DF92EF9267
:10411000FF920F931F93DF93CF93CDB7DEB72A970C
:104120000FB6F894DEBF0FBECDBF93E0492E512CE1
:104130004C0E5D1E87E0682E712C6C0E7D1E0DE905
:10414000302E99C40E942B3360527E4480409040B0
:10415000C8F40E942B33695873418040904090F01E
:104160001A3011F01D3031F480918D058F5F8093EE
:104170008D0502C010928D0580918D05833011F45C
:104180000E94A41F812F63E874E00E946B068823BD
:1041900009F471C48091870490918804A0918904E6
:1041A000B0918A048A37E6EF9E07E1EFAE07EDE9AA
:1041B000BE0709F45BC18B37F6EF9F07F1EFAF073E
:1041C000FDE9BF0740F588322EE5920722EDA207F0
:1041D00024E2B20709F4D7C08932EEE59E07E2ED8A
:1041E000AE07E4E2BE0738F48C5A9A4CA64EB042B1
:1041F00009F041C42EC4823523E2920726E9A207C2
:1042000026E2B20709F40CC2865A9E40A241B84485
:1042100009F031C4C0C38038F4E79F07F0E1AF076D
:10422000F4ECBF0709F4BCC0813824E7920720E111
:10423000A20724ECB20738F48C569846A344B24C3B
:1042400009F019C4D2C18436F9ED9F07F0EEAF072B
:10425000F7EDBF0739F084579743A44DBE4D09F0E1
:104260000AC4EEC30E942B33609340047093410450
:10427000809342049093430483E080933F048091B1
:104280009D0490919E04A0919F04B091A0048F83FF
:104290009887A987BA876F81788589859A850E94D2
:1042A000CF3570934504609344048091A1049091AC
:1042B000A204A091A304B091A4048F839887A98736
:1042C000BA876F81788589859A850E94CF357093EA
:1042D0004704609346048091A5049091A604A091A0
:1042E000A704B091A8048F839887A987BA876F81A4
:1042F000788589859A850E94CF358B017093490412
:104300006093480460914A0470914B0480914C047E
:1043100090914D0420E030E040E050E00E94603594
:10432000882331F0809152048150833008F0ECC32F
:10433000B801882777FD8095982F0E9402367B016F
:104340008C0160934E0470934F04809350049093BB
:10435000510420E030E040E050E00E9460358823C6
:104360000CF0D2C3C801B70120E030E044EB53E4C5
:104370000E949A3460934E0470934F0480935004CB
:1043800090935104C1C380918D0480935304809114
:104390008F048093540480918E04809355046BC3E2
:1043A00080918D0490918E04A0918F04B09190041F
:1043B000F30180839183A283B3836F81788589859C
:1043C0009A8520E030E048EC52E40E9435370E94A4
:1043D000CF357093570460935604693C710520F003
:1043E00010925704109256048091A7049091A8044B
:1043F00090935904809358048091A9049091AA0441
:1044000090935B0480935A048091B3049091B40418
:1044100090931A03809319036091B9047091BA04C0
:104420007A83698370931C0360931B0380E090E0A0
:104430000E94003620E030E04AEF54E40E949934B4
:1044400020E030E040E251E40E94673520E030E0B7
:1044500040E05FE30E9499340E94CF3560931D03D2
:104460006D390CF008C330921D0305C360918D04B3
:1044700070918E0480918F04909190040E94023676
:1044800020E836E948E15BE40E94673560934A041E
:1044900070934B0480934C0490934D04609191046D
:1044A000709192048091930490919404D2016C9342
:1044B00011967C93119712968C93129713969C9356
:1044C0000E94023620E836E948E15BE40E94673545
:1044D00060935C0470935D0480935E0490935F042A
:1044E0008091B204809360048091B1048093610450
:1044F000809152048150833068F560914804709136
:104500004904882777FD8095982F0E9402367B0109
:104510008C0160934E0470934F04809350049093E9
:10452000510420E030E040E050E00E9460358823F4
:1045300054F5C801B70120E030E044EB53E40E9499
:104540009A3460934E0470934F0480935004909378
:10455000510419C080919D0490919E04A0919F04E4
:10456000B091A004F30180839183A283B3838F81F0
:104570009885A985BA8580934E0490934F04A093A3
:104580005004B09351048091950490919604A091A9
:104590009704B0919804F30180839183A283B3833D
:1045A0008F819885A985BA8580936204909363046E
:1045B000A0936404B09365048091A1049091A20437
:1045C000A091A304B091A40480839183A283B383B8
:1045D0008F819885A985BA85809366049093670436
:1045E000A0936804B093690446C2809195049091A9
:1045F0009604A0919704B0919804F301808391836D
:10460000A283B3838F819885A985BA85B05880939A
:104610006A0490936B04A0936C04B0936D042BC256
:1046200080918D0490918E04A0918F04B09190049C
:10463000F30180839183A283B383AF80B884C9845C
:10464000DA84A0926E04B0926F04C0927004D0928B
:1046500071048091910490919204A0919304B0917F
:10466000940480839183A283B3836F817885898545
:104670009A8520E030E048EC52E40E9435370E94F1
:10468000CF3570937304609372048091A10490916C
:10469000A204A091A304B091A404F30180839183A8
:1046A000A283B3836F81788589859A850E94CF35EF
:1046B000709375046093740480901E0390901F03A0
:1046C0001FE5E12E13E0F12E06E010E0C601B50172
:1046D000D7012D913D914D915C910E942A3718167A
:1046E00044F4081519052CF010931F0300931E03C2
:1046F00009C001501040ECEFFFEFEE0EFF1E01303D
:10470000110521F7809176048823C9F499246091DA
:104710001E0370911F03882777FD8095982F0E94B4
:1047200002369B01AC01C601B5010E94673521EE3E
:104730003AE748E850E40E942A37181614F49924FE
:10474000939490927604992029F088E49DE7A5EE51
:10475000B2E404C087E894E1A9E0B3E480932003C5
:1047600090932103A0932203B093230360911E032F
:1047700070911F03882777FD8095982F0E9402363D
:104780009B01AC01C601B5010E9467352CEF39EAE7
:104790004DE550E40E94993420912003309121038B
:1047A00040912203509123030E9435377B018C01F5
:1047B00020E030E040E050E00E94603588235CF467
:1047C0000F2EF0E0EF2EF0E0FF2EF0E00F2FF0E0E4
:1047D0001F2FF02D14C0C801B70120E030E046ECD7
:1047E00052E40E942A37181654F40F2EF0E0EF2EF0
:1047F000F0E0FF2EF6EC0F2FF2E41F2FF02DC80192
:10480000B7010E94D435E62FF0E0992021F0EA525A
:10481000FF4F649103C0E65CFE4F649170E080E05E
:1048200090E00E9400367B018C01A0902403B090A0
:104830002503C0902603D0902703C601B50120E0D0
:1048400030E040E85FEB0E946035882349F4E09255
:104850002403F0922503009326031093270339C005
:10486000C801B701A60195010E94603518168CF0A9
:10487000C801B7012DEC3CEC4CE45DE30E943537F8
:104880007B018C01C601B50123E333E343E75FE31A
:1048900010C0C801B7012AE939E949E95EE30E947D
:1048A00035377B018C01C601B50123E333E343E3D4
:1048B0005FE30E9435379B01AC01C801B7010E943C
:1048C0009A34609324037093250380932603909376
:1048D0002703609174047091750480E090E00E9459
:1048E00000367B018C016091280370912903882791
:1048F00077FD8095982F0E9402369B01AC01C8017C
:10490000B7010E9467359B01AC0160E070E080E870
:104910009FE30E94993420E030E048EC52E40E948A
:10492000353760932A0370932B0380932C03909365
:104930002D0320E030E046EC52E40E942A3718169E
:1049400064F480E090E0A6ECB2E480932A039093B4
:104950002B03A0932C03B0932D0360912A03709135
:104960002B0380912C0390912D0320E030E040E058
:1049700050E00E94603588230CF07DC080E090E01C
:10498000A0E0B0E080932A0390932B03A0932C0324
:10499000B0932D0370C080918D0490918E04A091EE
:1049A0008F04B0919004F30180839183A283B38339
:1049B0006F81788589859A850E94CF35882777FD14
:1049C0008095982F0E9402367B018C0160937704BA
:1049D000709378048093790490937A0460912E0305
:1049E00070912F03809130039091310320E03CE3DC
:1049F0004CE156EC0E946035882341F4E0922E038E
:104A0000F0922F03009330031093310380919104AF
:104A100090919204A0919304B0919404F301808347
:104A20009183A283B3838F819885A985BA8580936A
:104A30007B0490937C04A0937D04B0937E041BC000
:104A40008091F30480937F048091A7048093800475
:104A500012C0209197042093810490919B0490931D
:104A600082048091990480935204913009F04CC0E3
:104A7000213009F049C080E194E00E945D2B1816B6
:104A800019064CF580E194E00E948D2B182F80913F
:104A90003F04882309F076CB55CB10923F04DD24E8
:104AA000D3948D2D90E02A960FB6F894DEBF0FBEFA
:104AB000CDBFCF91DF911F910F91FF90EF90DF90CD
:104AC000CF90BF90AF909F908F907F906F905F90AE
:104AD0004F903F900895DD24E0904004F090410411
:104AE000009142041091430480E197E2A0E0B0E01D
:104AF000E80EF91E0A1F1B1F0E942B33E616F7064D
:104B00000807190750F2CDCFDD24D394E5CF86E016
:104B100061E00E940C34089586E061E00E94CD338C
:104B200080E194E040E051EE60E070E00E94FB2AFA
:104B30000E9487258DE294E00E946E050E94E01A93
:104B400068EE73E080E090E00E9439330E94FC1A26
:104B50001092D50507C00E94251B8091D5058F5F57
:104B60008093D5058091D5058230A8F31092D505A4
:104B700080E194E00E94DA2B68EB7BE080E090E03B
:104B80000E9439338DE294E00E942F050E942B335E
:104B90006093EE057093EF058093F0059093F10517
:104BA00008952F923F924F925F926F927F928F92D1
:104BB0009F92AF92BF92CF92DF92EF92FF920F93AC
:104BC0001F93DF93CF9300D000D0CDB7DEB7E09036
:104BD000FB05F090FC050091FD051091FE058FE5A9
:104BE00090E0A0E0B0E0E80EF91E0A1F1B1F0E9433
:104BF0002B336E157F058007910708F481C1209142
:104C00006604309167044091680450916904E09013
:104C10006A04F0906B0400916C0410916D04CA0159
:104C2000B9010E9435375B016C01C801B701A801C9
:104C300097010E9435379B01AC01C601B5010E9466
:104C40009A340E94BC376093AC057093AD05809395
:104C5000AE059093AF0520E030E040E050E00E94C8
:104C60002A3718160CF042C10E942B332091FB0505
:104C70003091FC054091FD055091FE05621B730BC0
:104C8000840B950B0E9400363B014C01E090AC0573
:104C9000F090AD050091AE051091AF05209166042E
:104CA0003091670440916804509169040E9435373F
:104CB00020E030E04AE754E40E9467359B01AC01F4
:104CC0006091A8057091A9058091AA059091AB0506
:104CD0000E949A346093A8057093A9058093AA0551
:104CE0009093AB058091E9059091EA05892B09F431
:104CF0009AC0C801B701A40193010E94353720E092
:104D000030E04AE754E40E9467351B012C016091B2
:104D1000720470917304882777FD8095982F0E9404
:104D2000023669837A838B839C836091F705709147
:104D3000F8058091F9059091FA052DEC3CEC4CE4D6
:104D40005FE30E9435377B018C01C201B10120E095
:104D500030EA4CE857E40E94353729813A814B818B
:104D60005C810E946735A40193010E9467359B0115
:104D7000AC01C801B7010E949A345B016C016093D9
:104D8000F7057093F8058093F9059093FA05609103
:104D9000280370912903882777FD8095982F0E941A
:104DA00002362DEC3CEC4CE45FE30E9435377B018E
:104DB0008C01609174047091750480E090E00E9411
:104DC00000369B01AC01C801B7010E949934A601CD
:104DD00095010E9435377B018C016091910570919E
:104DE000920580919305909194050E9402369B0153
:104DF000AC01C801B7010E94993420E030E040E0E6
:104E00005FE30E9435370E94CF357093BC056093F5
:104E1000BB05615F784D64F481EF98ED9093BC051C
:104E20008093BB0505C01092BC051092BB0552C013
:104E3000C201B10120E030E040E050E00E942A379A
:104E400018160CF047C06091BD057091BE058091A9
:104E5000BF059091C0052DEC3CEC4CE45FE30E9453
:104E600035377B018C0169817A818B819C8120910E
:104E70006E0430916F0440917004509171040E944F
:104E80003537A40193010E94353720E030E041EE30
:104E900054E40E946735A20191010E9467359B018D
:104EA000AC01C801B7010E949A346093BD057093AC
:104EB000BE058093BF059093C00520E03BE443EC22
:104EC00057E40E942A3718168CF480E09BE4A3EC88
:104ED000B7E404C080E090E0A0E0B0E08093BD05BE
:104EE0009093BE05A093BF05B093C0050E942B33DD
:104EF0006093FB057093FC058093FD059093FE0580
:104F00000F900F900F900F90CF91DF911F910F9105
:104F1000FF90EF90DF90CF90BF90AF909F908F90D9
:104F20007F906F905F904F903F902F9008952F92B9
:104F30003F924F925F926F927F928F929F92AF9229
:104F4000BF92CF92DF92EF92FF920F931F93DF9366
:104F5000CF9300D000D0CDB7DEB78091CD058823A8
:104F600009F438C2E090DD05F090DE050091DF0520
:104F70001091E005C801B7019F7725E33AEF4EE8AD
:104F80005CE30E9435370E94643569837A838B83A2
:104F90009C83C801B70120914A0430914B04409191
:104FA0004C0450914D040E9499349F7720EC3BE6CD
:104FB00049ED57E40E9435375B016C016091E105D2
:104FC0007091E2058091E3059091E40520915C04E5
:104FD00030915D0440915E0450915F040E949934C9
:104FE0009F7720EC3BE649ED57E40E943537298155
:104FF0003A814B815C810E9435377B018C01C6016F
:10500000B501A60195010E9435375B016C01C8010D
:10501000B701A80197010E9435379B01AC01C60179
:10502000B5010E949A340E94BC370E94CF3560932C
:1050300091057093920580939305909394058091C8
:10504000E9059091EA05892B09F4E9C06091990579
:1050500070919A0580E090E00E9400362DEC3CECC7
:105060004CE45FE30E9435373B014C01609128031B
:1050700070912903882777FD8095982F0E9402362A
:105080002DEC3CEC4CE45FE30E9435377B018C0156
:10509000609174047091750480E090E00E94003685
:1050A0009B01AC01C801B7010E9499345B016C01FE
:1050B0000E942B337B018C016091E9057091EA0518
:1050C00080E090E00E9400361B012C018091E505F4
:1050D0009091E605A091E705B091E805E81AF90A74
:1050E0000A0B1B0BC801B7010E940036A2019101F7
:1050F0000E9467359B01AC01C601B5010E9435379E
:1051000020E030E04AE754E40E9467352DEC3CECA7
:105110004CE45EE30E9435379B01AC01C401B3014E
:105120000E949A340E94CF3570939A056093990536
:10513000609174047091750480E090E00E940036E4
:105140005B016C016091280370912903882777FD2A
:105150008095982F0E9402362DEC3CEC4CE45FE3E6
:105160000E9435377B018C01C601B501A80197016A
:105170000E942A37181624F410929A051092990565
:105180008091990590919A058057974130F08FE66C
:1051900097E190939A0580939905C801B701A601FC
:1051A00095010E9499347B018C016091A805709152
:1051B000A9058091AA059091AB05A20191010E94D9
:1051C00067359B01AC01C801B7010E9435377B01EF
:1051D0008C01609191057091920580919305909159
:1051E00094050E9402369B01AC01C801B7010E94E0
:1051F000993420E030E040E05FE30E9435370E94C0
:10520000CF357093BA056093B905615F784D7CF432
:1052100081EF98ED9093BA058093B90508C010927C
:105220009A05109299051092BA051092B9056091ED
:1052300062047091630480916404909165042091EC
:10524000B0053091B1054091B2055091B3050E946F
:1052500099345B016C012091910530919205409148
:10526000930550919405CA01B9010E945B380E94D0
:1052700002367B018C01C601B501A60195010E9491
:1052800035379B01AC01C801B7010E949A340E94D6
:10529000BC370E94CF356093B5057093B6058093F7
:1052A000B7059093B8056091DD057091DE0580919A
:1052B000DF059091E00520914A0430914B04409124
:1052C0004C0450914D040E9499347B018C0160E0A4
:1052D00070E080E89FE329813A814B815C810E94E4
:1052E00067359B01AC01C801B7010E9435377B01CE
:1052F0008C016091E1057091E2058091E305909148
:10530000E40520915C0430915D0440915E0450916D
:105310005F040E9499349B01AC015058C801B70149
:105320000E940D3520EE3EE245E652E40E943537FC
:1053300020E030E044EB52E40E949A340E94CF35E2
:105340009B01AC0197FF04C028593E4F4F4F5F4F60
:10535000CA01B901645B70408040904097FF06C06D
:10536000CA01B9016C547F4F8F4F9F4F0E94023684
:1053700020914E0430914F044091500450915104BB
:105380000E9499340E94CF3597FF04C068597E4F20
:105390008F4F9F4F0E94023620E030E044EB53E4F1
:1053A0000E94673520E030E040E851E40E94353744
:1053B0000E94983720E030E040E85FE30E949A3492
:1053C0000E94D4356093B405613108F47CC010921A
:1053D000B40579C080916104823008F474C0809172
:1053E0006004853008F46FC0D090F205FDE1FD1532
:1053F00008F469C0E0906204F090630400916404D2
:10540000109165046091F3057091F4058091F505A4
:105410009091F605A80197010E9499349F7720E0AA
:1054200030E040E05FE30E942A3718165CF41092E7
:10543000F205E092F305F092F4050093F505109360
:10544000F60541C08D2D8F5F8093F2058E31D9F521
:1054500080914A0490914B04A0914C04B0914D046A
:105460008093DD059093DE05A093DF05B093E00502
:1054700080915C0490915D04A0915E04B0915F0402
:105480008093E1059093E205A093E305B093E405D2
:10549000E092B005F092B1050093B2051093B30508
:1054A0008091770490917804A0917904B0917A0466
:1054B00080932E0390932F03A0933003B093310376
:1054C00081E08093CD050F900F900F900F90CF91BA
:1054D000DF911F910F91FF90EF90DF90CF90BF90E1
:1054E000AF909F908F907F906F905F904F903F9084
:1054F0002F9008950E94D1250E94B4078DE294E078
:105500000E9497270E9436170895EF92FF920F93FB
:105510001F930E947C20892BB9F4E090EE05F09057
:10552000EF050091F0051091F10584E690E0A0E010
:10553000B0E0E80EF91E0A1F1B1F0E942B33E6166F
:10554000F7060807190760F40E942B336093EE05F5
:105550007093EF058093F0059093F1050E947A2AED
:105560001F910F91FF90EF9008956EBD0DB407FE4F
:10557000FDCF8EB508958DE061E00E94CD338BE0C4
:1055800061E00E94CD338CE060E00E94CD338AE080
:1055900061E00E94CD331CBC80E58CBD8DB58EB51D
:1055A00008958FEF95E00E94BB2A08958FEF9FE743
:1055B0000895DF93CF93CDB7DEB7FE0139968D8185
:1055C0009E8161E04F8158859F010E947A2DCF9185
:1055D000DF910895DF93CF93CDB7DEB7FE01399603
:1055E0008D819E8160E04F8158859F010E947A2DB8
:1055F000CF91DF9108950F931F93DC01ED91FC9102
:105600000288F389E02D20E030E000E010E0099509
:105610001F910F9108958F92AF92CF92EF92FF92C8
:105620000F931F93DF93CF93CDB7DEB7FC011382A7
:10563000128288EE93E0A0E0B0E084839583A68395
:10564000B7838BE893E091838083558744873787BE
:105650002687118B008BF38AE28AC48AA58A868A00
:1056600070E0CB0123E0880F991F2A95E1F79C0198
:1056700020503A4F308F278B885F994F928F818FC0
:1056800081E090E002C0880F991F6A95E2F72091AF
:105690001006282B20931006CF0140E051EE60E069
:1056A00070E00E94FB2ACF91DF911F910F91FF9034
:1056B000EF90CF90AF908F900895FC01838D882359
:1056C00019F42FEF3FEF0DC00788F08DE02D2081FA
:1056D000318182819381281B390B84819581282314
:1056E0003923C9010895FC01838D882319F42FEF14
:1056F0003FEF11C0018CF28DE02D2081318182813C
:105700009381281B390B209530958481958128231E
:1057100039232F5F3F4FC9010895FC01838D8823F2
:1057200061F0A789B08D2D913C91119712968D91C2
:105730009C9113972817390721F44FEF5FEFCA01A7
:10574000089512968D919C9113971696ED91FC9168
:105750001797E80FF91F408112968D919C9113972E
:10576000019614962D913C911597822393231396BD
:105770009C938E93129750E0E2CFFC01838D882397
:1057800051F00788F08DE02D208131818281938155
:105790002817390721F42FEF3FEFC90108958281BF
:1057A00093810680F781E02DE80FF91F8081282F73
:1057B00030E0F3CFDC015796ED91FC915897828150
:1057C0009381918380835996ED91FC915A978081C2
:1057D0009181938382830895DC015B968C915B9722
:1057E0008823A9F15996ED91FC915A972081318136
:1057F0002F5F3F4F84819581282339235C968C91BC
:105800005C97882329F08281938128173907F9F062
:105810008281938128173907D9F38081918106808D
:10582000F781E02DE80FF91F60835996ED91FC9107
:105830005A97318320835296ED91FC915397808142
:1058400056969C91892B808321E030E002C020E0B5
:1058500030E0C9010895CF93DF93EC011B821A82D7
:105860008A819B81998388831D821C828E819F817E
:10587000009721F00E944B321F821E82DF91CF9150
:1058800008950F931F938C01DC015296ED91FC91CA
:105890005397208156968C91569755969C91559783
:1058A000892B80958223808357968D919C91589760
:1058B0000E942B2CF801818D928D0E942B2CD801F7
:1058C0005B961C921F910F9108950F931F93CF9396
:1058D000DF938C01FC011382128282819381918378
:1058E000808341E0A1E0B0E001C04F5FFD01042EE4
:1058F00002C0EE0FFF1F0A94E2F79B0182E06130C5
:10590000780710F020E032E0E217F30770F3C1E00F
:10591000D0E002C0CC0FDD1F4A95E2F72197F801D5
:10592000268137812115310541F0848195818C17BD
:105930009D0789F0C9010E944B32F801D583C483C9
:10594000CE0101960E94AE319C01F80197838683B7
:1059500080E0232B09F081E0DF91CF911F910F911F
:105960000895AF92BF92CF92DF92EF92FF920F9382
:105970001F93CF93DF937C015A016B01E901DC0196
:105980005B968C915B978823F1F02115310539F4F2
:105990005796ED91FC915897C481D58121960115B8
:1059A000110549F4D7015996ED91FC915A9704815C
:1059B00015810F5F1F4FD701ED91FC910088F18990
:1059C000E02DC7010995F7018789908D209711F483
:1059D000C0E8D0E0BE010E94652C882381F0D70189
:1059E00059968D919C915A970115110511F400E17A
:1059F00010E0B8010E94652C882309F04DC0D70142
:105A0000ED91FC910088F189E02DC701099567C0EF
:105A1000D7015096ED91FC915197B0E0AB16B1EEE5
:105A2000BB06B0E0CB06B0E0DB0609F454C081E071
:105A300090E0D70154960C9002C0880F991F0A94E9
:105A4000E2F7808360E079E08DE390E0A6019501C4
:105A50000E94C3382150304040405040CA01B90133
:105A600022E030E040E050E00E94C338D7011C96AD
:105A7000ED91FC911D9730831E96ED91FC911F973F
:105A80002083D7015296ED91FC91539780815596D2
:105A90009C91892B808323C0D7015996ED91FC916D
:105AA0005A971382128282819381918380835796C1
:105AB000ED91FC9158971382128282819381918398
:105AC000808381E05B968C931A141B041C041D04D4
:105AD0000CF49ECFD6CF108220E130E0C7CFDF910B
