:100000000C9473020C949B020C949B020C949B0224
:100010000C949B020C949B020C949B020C949B02EC
:100020000C949B020C949B020C949B020C949B02DC
:100030000C949B020C949B020C949B020C949B02CC
:100040000C9418340C949B020C94E1050C941D063E
:100050000C949B020C949B020C949B020C949B02AC
:100060000C949B020C949B02084AD73B3BCE016E3A
:1000700084BCBFFDC12F3D6C74319ABD56833DDAFF
:100080003D00C77F11BED9E4BB4C3E916BAAAABE0E
:10009000000000803F05A84CCDB2D44EB93836A937
:1000A000020C50B9918688083CA6AAAA2ABE000074
:1000B00000803F0664EC1B3C04BC163E3BE5B93CAB
:1000C000C93C37C29E5A3D660498083EEA69AAAA0E
:1000D0003E000000803F0000000000000000000023
:1000E000000000010A0F1315191D202123252729BF
:1000F0002B2D2F3031333537393A3C3E4042434483
:100100004445464748494A4B4D4E4F505051525234
:100110005354555658595A5B5B5C5D5D5E5E5E5F3D
:100120005F5F6060606161616262626363636363B9
:1001300063636363636363636363000000000000E1
:1001400000000000000002070A0C0D0E101214152A
:100150001617191A1B1E2126282A2B2D2F3133344E
:1001600037393C3D3E3F4041424446494A4B4C4D65
:100170004E4F4F5051515252535454555556575853
:10018000595A5B5C5C5D5D5E5F5F5F606060606094
:100190006161616161616262626262626263000701
:1001A0000E091C1B1215383F363124232A2D707777
:1001B0007E796C6B6265484F464154535A5DE0E767
:1001C000EEE9FCFBF2F5D8DFD6D1C4C3CACD9097D7
:1001D0009E998C8B8285A8AFA6A1B4B3BABDC7C0C7
:1001E000C9CEDBDCD5D2FFF8F1F6E3E4EDEAB7B037
:1001F000B9BEABACA5A28F88818693949D9A272027
:10020000292E3B3C35321F18111603040D0A575096
:10021000595E4B4C45426F68616673747D7A898E76
:10022000878095929B9CB1B6BFB8ADAAA3A4F9FEF6
:10023000F7F0E5E2EBECC1C6CFC8DDDAD3D4696EE6
:10024000676075727B7C51565F584D4A4344191E56
:10025000171005020B0C21262F283D3A33344E4946
:10026000404752555C5B7671787F6A6D64633E39B6
:10027000303722252C2B0601080F1A1D1413AEA9A6
:10028000A0A7B2B5BCBB9691989F8A8D8483DED916
:10029000D0D7C2C5CCCBE6E1E8EFFAFDF4F32020DD
:1002A000BF0020BF00BF007C202020202020202075
:1002B000202020202020202020202000C8202020B6
:1002C000202020202020202020C900C820202020FD
:1002D0002020202020202020C97C00D82020202081
:1002E0002020202020202020D97C00C82020202071
:1002F0002020202020202020C97C00C82020202071
:100300002020202020202020C97C006D696E6F7085
:100310006F7364206A646C20322E3533006C697010
:100320006F20626174742063656C6C7C7C77617291
:100330006E696E67206C6576656C3A200062617448
:10034000742063617061636974793A0073657475D0
:10035000702073637265656E7C7C7C00436861729B
:1003600020446F6E650A00526561647920666F7281
:1003700020466F6E740A007570646174652063684E
:1003800061727365740000407A10F35A00A0724ED7
:1003900018090010A5D4E80000E87648170000E42A
:1003A0000B54020000CA9A3B000000E1F505000072
:1003B00080969800000040420F000000A0860100D7
:1003C0000000102700000000E803000000006400A7
:1003D000000000000A000000000001000000000012
:1003E0002C76D888DC674F0823DFC1DFAE59E1B136
:1003F000B796E5E3E453C63AE651997696E8E6C245
:100400008426EB898C9B62ED407C6FFCEFBC9C9F4B
:1004100040F2BAA56FA5F490055A2AF75C936B6C6D
:10042000F9676DC11BFCE0E40D47FEF520E6B50061
:10043000D0ED902E0300943577050080841E0800CF
:1004400000204E0A000000C80C333333330F986E7F
:1004500012831141EF8D2114893BE65516CFFEE63C
:10046000DB18D1844B381BF77C1D901DA4BBE42402
:10047000203284725E228100C9F124ECA1E53D277F
:100480006E616E00696E66000000000024002700A7
:100490002A0000000000250028002B0000000000BA
:1004A00023002600290004040404040404040202B6
:1004B00002020202030303030303010204081020E3
:1004C00040800102040810200102040810200000EE
:1004D0000007000201000003040600000000000005
:1004E00000008D07062C11241FBECFEFD8E0DEBF21
:1004F000CDBF13E0A0E0B1E0E6E3F4E702C0059071
:100500000D92A23CB107D9F716E0A2ECB3E001C00E
:100510001D92A735B107E1F714E0C6EED4E004C0A0
:100520002297FE010E94153AC23ED107C9F70E94E8
:1005300095350C94193A0C940000283008F027E007
:100540003327DA01990F311D87FD9160009661050F
:10055000710539F432602E5F3D9330E32A95E1F75F
:1005600008959F3F30F080387105610509F03C5FC8
:100570003C5F3D93913008F08068911DDF93CF93ED
:100580001F930F93FF92EF92192F987F9695E92F63
:1005900096959695E90FFF27E052FC4F9927332750
:1005A000EE24FF24A701E70105900894079428F49E
:1005B000360FE71EF81E491F511D660F771F881F53
:1005C000991F0694A1F70590079428F4E70EF81EEA
:1005D000491F561FC11D770F881F991F661F06945C
:1005E000A1F70590079428F4F80E491F561FC71F5E
:1005F000D11D880F991F661F771F0694A1F70590DC
:10060000079420F4490F561FC71FD81F990F661F64
:10061000771F881F0694A9F784911095177041F0F1
:10062000D695C79557954795F794E7941A95C1F7CE
:10063000E6E8F3E0689415901591359165919591F0
:1006400005907FE27395E118F10A430B560BC90B35
:10065000D009C0F7E10CF11E431F561FC91FD01D62
:100660007EF4703311F48A95E6CFE894015030F0AF
:10067000080F0AF40027021708F4202F2395022FF1
:100680007A3328F079E37D932A95E9F710C07D93BA
:100690002A9589F606949795679537951795179437
:1006A000E118F10A430B560BC90BD00998F02395BA
:1006B0007E9173957A3308F070E37C932013B8F73A
:1006C0007E9170617D9330F0839571E37D9370E34B
:1006D0002A95E1F71124EF90FF900F911F91CF9190
:1006E000DF91992787FD90950895FA01AA27283070
:1006F00051F1203181F1E8946F936E7F6E5F7F4FEF
:100700008F4F9F4FAF4FB1E03ED0B4E03CD0670F6A
:10071000781F891F9A1FA11D680F791F8A1F911DBD
:10072000A11D6A0F711D811D911DA11D20D009F40D
:1007300068943F912AE0269F11243019305D31934F
:10074000DEF6CF010895462F4770405D4193B3E038
:100750000FD0C9F7F6CF462F4F70405D4A3318F0DF
:10076000495D31FD4052419302D0A9F7EACFB4E090
:10077000A6959795879577956795BA95C9F7009748
:100780006105710508959B01AC010A2E06945795E9
:10079000479537952795BA95C9F7620F731F841F40
:1007A000951FA01D0895FC01059061507040011037
:1007B000D8F7809590958E0F9F1F0895FC0161508A
:1007C000704001900110D8F7809590958E0F9F1F73
:1007D0000895FC011382128288EE93E0A0E0B0E05D
:1007E00084839583A683B78384E693E09183808393
:1007F0000895FC018089803419F421E030E002C0C2
:1008000020E030E0C9010895FC01818990E008955D
:1008100080E090E0089580E090E0089580E090E02E
:1008200008950895EF92FF921F93CF93DF93162FB1
:100830007A0186E060E00E94413587E396E060E05F
:100840000E94EA2B87E396E060E00E94EA2B87E3B0
:1008500096E069E00E94EA2B87E396E0612F0E9410
:10086000EA2BC0E0D0E0F701EC0FFD1F108187E319
:1008700096E06AE00E94EA2B87E396E06C2F0E94E4
:10088000EA2B87E396E06BE00E94EA2B87E396E091
:10089000612F0E94EA2B2196C633D10521F787E309
:1008A00096E068E00E94EA2B87E396E060EA0E9407
:1008B000EA2B87E396E060EA0E94EA2B85FDF9CFF8
:1008C00087E396E060E00E94EA2B87E396E06CE025
:1008D0000E94EA2B86E061E00E944135DF91CF91D2
:1008E0001F91FF90EF9008951F93CF93DF93EC013A
:1008F000162F86E060E00E94413587E396E060E0D5
:100900000E94EA2B112319F0113059F404C087E337
:1009100096E0688904C068896C6187E396E00E946C
:10092000EA2B86E061E00E944135DF91CF911F9173
:100930000895EF92FF920F931F937C0107E316E057
:10094000C80167E00E94EA2BC8016FEF0E94EA2B02
:1009500086E061E00E944135F70187858F5F8787D8
:100960001F910F91FF90EF900895EF92FF920F93D8
:100970001F93FC01E7848EE1E89E700111248685B7
:10098000E80EF11C86E060E00E94413507E316E0C6
:10099000C80164E00E94EA2BC80163E00E94EA2BD0
:1009A000C80165E00E94EA2BC8016F2D0E94EA2B66
:1009B000C80166E00E94EA2BC8016E2D0E94EA2B56
:1009C0001F910F91FF90EF900895FC016487458778
:1009D000668747870E94B50408951F93CF93DF93DE
:1009E000EC01162F6C3731F40E949904CE010E945D
:1009F000B5040AC087E396E067E00E94EA2B87E32C
:100A000096E0612F0E94EA2B81E090E0DF91CF9188
:100A10001F910895EF92FF920F931F938EE1489FCD
:100A200070011124E60EF11C86E060E00E94413561
:100A300007E316E0C80165E00E94EA2BC8016F2DAC
:100A40000E94EA2BC80166E00E94EA2BC8016E2DC5
:100A50000E94EA2B1F910F91FF90EF9008950F9342
:100A60001F9386E060E00E94413507E316E0C8016D
:100A700064E00E94EA2BC80164E00E94EA2B61E076
:100A800070E080E090E00E946E3486E061E00E94B9
:100A900041351F910F9108951F93CF93DF93EC0180
:100AA000188A16E0198B89E496E060E973E00E94E9
:100AB000D032813049F480E4888B88E0898B86E0ED
:100AC00060E00E94413502C0188A198B86E060E020
:100AD0000E944135DF91CF911F9108950F931F938D
:100AE000CF93DF93EC0186E061E00E94023582E063
:100AF00060E00E94023582E061E00E944135CE0153
:100B00000E944C0586E060E00E94413587E396E054
:100B10006CEE0E94EA2B87E396E06FEF0E94EA2BCF
:100B2000182F87E396E060E00E94EA2B68896260F4
:100B300087E396E00E94EA2B62E370E080E090E0B9
:100B40000E946E3487E396E06CE60E94EA2B1F7EDB
:100B500087E396E0612F0E94EA2B8889803419F0A0
:100B60000DE010E002C000E110E01092C30310920B
:100B7000C20317C06091C2037091C303605F87E333
:100B800096E00E94EA2B87E396E069E00E94EA2B58
:100B90008091C2039091C30301969093C303809305
:100BA000C2038091C2039091C3038017910714F38D
:100BB000CE0161E00E947404DF91CF911F910F91EB
:100BC00008951F920F920FB60F9211242F933F9307
:100BD0004F938F939F93EF93FF934091C600209183
:100BE0003806309139062F5F3F4F80913C06909137
:100BF0003D062823392380913A0690913B06281719
:100C0000390779F08091380690913906E0913E06D7
:100C1000F0913F06E80FF91F408330933906209387
:100C20003806FF91EF919F918F914F913F912F91B6
:100C30000F900FBE0F901F9018951F920F920FB636
:100C40000F9211242F933F938F939F93EF93FF93D2
:100C500020914206309143068091400690914106D2
:100C600028173907E9F08091420690914306E091F8
:100C70004606F0914706E80FF91F80818093C60071
:100C8000809142069091430601962091440630914E
:100C9000450682239323909343068093420610C017
:100CA0002091400630914106809142069091430682
:100CB0002817390729F48091C1008F7D8093C100E6
:100CC000FF91EF919F918F913F912F910F900FBEC8
:100CD0000F901F901895CF93DF93482FEB018091D1
:100CE000C805833009F45FC0843028F48130D1F026
:100CF000823068F50AC0853009F4D4C0853008F424
:100D0000AAC0863009F0F4C0EBC04C3309F0F0C043
:100D100081E08093C8054883EAEDF1E0E491E09337
:100D2000C705E6C0842F90E0E091C705F0E0E82712
:100D3000F927E256FE4FE491E093C705887F907053
:100D4000809741F582E08093C805498329C0242F0C
:100D500030E0E091C705F0E0E227F327E256FE4FCE
:100D6000E491E093C7058091C6058F5F8093C60527
:100D7000823018F43B832A83BBC0922F88272A81B4
:100D80003B81820F931F9B838A830A978F3F910534
:100D900021F018F01092C805ABC083E08093C8051D
:100DA0001092C605A5C0E42FF0E08091C70590E041
:100DB000E827F927E256FE4FE491E093C7056091DA
:100DC000C6056F5F6093C605623089F0633020F41A
:100DD000613009F08DC006C0633091F0643009F0D5
:100DE00087C022C0842F90E0A0E0B0E018C0242F7C
:100DF00030E040E050E0542F432F322F222707C02D
:100E0000242F30E040E050E0A901332722278C81D5
:100E10009D81AE81BF81820F931FA41FB51F8C835C
:100E20009D83AE83BF8364C0242F30E040E050E058
:100E3000522F4427332722278C819D81AE81BF8189
:100E4000820F931FA41FB51F8C839D83AE83BF8326
:100E50006093C805A5CF242F30E0E091C705F0E0EE
:100E6000E227F327E256FE4FE491E093C705609135
:100E7000C6056F5F6093C605613019F06230C1F539
:100E800003C03987288734C0922F88272885398561
:100E9000280F391F398728878A819B810A97F1F0AB
:100EA00085E07CCFE42FF0E08091C70590E0E82753
:100EB000F927E256FE4FE491E093C7052091C6055D
:100EC0002F5F2093C60530E0FB01E20FF31F41873F
:100ED0008A819B810A972817390750F086E05ECFF8
:100EE000C75FDE4F4883C950D14087E08093C80573
:100EF0008091C805873069F41092C805C75FDE4F3E
:100F00009091C7058881C950D140981711F48A8102
:100F100001C080E0DF91CF9108958F92AF92CF9280
:100F2000EF92FF920F931F9386E394E060E045EC0D
:100F300050E024EC30E000EC10E0B1ECEB2EF12CB2
:100F4000CC24C394A8E9AA2EF0E28F2E0E94402C54
:100F500083E594E00E94E9031F910F91FF90EF90C9
:100F6000CF90AF908F900895DF93CF9300D000D0B3
:100F7000CDB7DEB7FB01E80FF91F62858385948545
:100F8000258569838A839B832C83492F5C81782FF5
:100F9000CA010F900F900F900F90CF91DF9108959D
:100FA0006091740470917504809176049091770437
:100FB00020E030E040E152E40E946A3820E030E076
:100FC00044EB53E40E949C360E94CD380E940437C3
:100FD0009B012550304037FF03C09B01215E3F4FEE
:100FE000A4EDB5E0F901EA57FC4F80818C932F5FA7
:100FF0003F4F2432310514F020E030E0119685E0B7
:10100000AF3DB80779F71C9208952F923F924F9207
:101010005F926F927F928F929F92AF92BF92CF9288
:10102000DF92EF92FF920F931F93DF93CF9300D045
:1010300000D000D0CDB7DEB7182F662E20916A04FD
:1010400030916B042A35310530F0C9018D549F4F22
:1010500089359105E8F437FF02C02D543F4FC9018F
:1010600037FF03C0909581959F4F8A3191053CF0E1
:1010700004E4802E912CB9ED2B2E312C1DC00A9743
:101080005CF1ABE38A2E912CF2ED2F2E312C20C097
:101090002B35310514F0235B3040C90137FF03C005
:1010A000909581959F4F8A31910554F0E6E58E2EFB
:1010B000912C7CED272E312C67E0A62EB12C15C08B
:1010C0000A9754F05DE4852E912C44ED242E312CAA
:1010D00038E0A32EB12C09C025E0822E912C98E394
:1010E000292E312C89E0A82EB12C60916C047091CE
:1010F0006D04882777FD8095982F0E94373727EA5F
:1011000032E94BE25CEB0E946A380E943E3920E0F3
:1011100030E040EA50E40E946A3820E030E040E9E4
:1011200051E40E946A380E94CD3820E030E044E368
:1011300052E40E94CF350E940437712E0EEBC02E70
:101140000FEFD02E9B01442737FD4095542F298364
:101150003A834B835C8313E5412E14E0512E4AEF12
:101160005FEF240E351E60916A0470916B0488272E
:1011700077FD8095982F0E94373725E33AEF4EE8A8
:101180005CE30E946A380E943E397B018C01B60103
:10119000882777FD8095982F0E9437379B01AC01F7
:1011A000C801B7010E946A387B018C0169817A818C
:1011B0008B819C810E9437379B01AC01C801B7012C
:1011C0000E94CF350E9404379B01CB0101978A35DD
:1011D000910508F071C062E170E00E94C3398B0193
:1011E0002F5F3F4FAEEEBFEF6A9FC0016B9F900D28
:1011F0007A9F900D1124820F931F62E070E00E948D
:10120000C3396D837E83E62CE01A4E2D4C5F83E557
:1012100094E0672D0E940A0500D000D000D0EDB701
:10122000FEB73196ADB7BEB712965C924E9211974B
:1012300020E031E0338322838D819E81880D991DCA
:10124000958384830E941F2C4DB75EB74A5F5F4F22
:101250000FB6F8945EBF0FBE4DBF8D819E818A157B
:101260009B0554F1043011053CF593E0E90EC201F1
:10127000672D4E2D0E940A0500D000D000D0EDB79A
:10128000FEB73196ADB7BEB712965C924E921197EB
:1012900020E031E0338322834D815E81420D531D76
:1012A000558344830E941F2C8DB79EB706960FB6B8
:1012B000F8949EBF0FBE8DBFACE0B0E0CA0EDB1E3F
:1012C0007394BEE4CB16D10409F04DCF26960FB629
:1012D000F894DEBF0FBECDBFCF91DF911F910F916C
:1012E000FF90EF90DF90CF90BF90AF909F908F9046
:1012F0007F906F905F904F903F902F900895CF9286
:10130000DF92EF92FF920F931F93823010F402E06E
:1013100002C0082F000F6091C9057091CA05809125
:10132000CB059091CC050E9437376B017C0120E002
:1013300030E44CE156E40E949536202F30E043E53E
:1013400054E0882334F58DB79EB70E970FB6F89406
:101350009EBF0FBE8DBFEDB7FEB73196ADB7BEB71E
:1013600012965C934E93119783E091E0938382836E
:1013700022573F4F358324832F5F3F4F3783268388
:10138000C086D186E286F3868DE890E095878487D3
:1013900034C08DB79EB70E970FB6F8949EBF0FBEA0
:1013A0008DBF0DB71EB70F5F1F4FADB7BEB71296FB
:1013B0005C934E9311978FE091E0F80193838283C1
:1013C00022573F4F358324832F5F3F4F3783268338
:1013D000C701B60120E030E04AE754E40E949C36A1
:1013E000D80118966D937D938D939C931B978DEFE9
:1013F00090E01D969C938E931C970E941F2CEDB736
:10140000FEB73E960FB6F894FEBF0FBEEDBF1F911C
:101410000F91FF90EF90DF90CF900895CF93DF93DF
:10142000AC01E0917E04F0917F042091CD053091D4
:10143000CE05C9018C599F4F8E179F071CF4EA01F6
:10144000219609C024563040E217F30714F0EA0150
:1014500002C0EA012197842F90E0C817D90729F02C
:1014600089E496E04C2F0E94D732CE01DF91CF91D4
:101470000895CF92DF92EF92FF920F931F93CF9335
:10148000DF937C016B01EA0100D000D003E514E09A
:10149000EDB7FEB71283018387EA92E094838383DA
:1014A0000E940E2C0F900F900F900F90CA30D10514
:1014B00081F0C436D10521F0C130D10519F512C033
:1014C00000D000D0EDB7FEB71283018385EA92E029
:1014D00011C000D000D0EDB7FEB71283018382EABD
:1014E00092E008C000D000D0EDB7FEB712830183B0
:1014F0008EE992E0948383830E940E2C0F900F90CC
:101500000F900F9040917E0450917F042091CD0563
:101510003091CE05C9018C599F4F841795071CF453
:10152000CE0DDF1D0BC0245630404217530714F078
:10153000E70116C0C7018C1B9D0BEC01CE15DF0522
:1015400079F089E496E0B6014C2F0E94D7320894D6
:10155000C11CD11C89E496E0B6014D2F0E94D73200
:10156000CE01DF91CF911F910F91FF90EF90DF900F
:10157000CF900895CF92DF92EF92FF920F931F9337
:101580007C01D62EC72E03E514E0C8016E2D4D2D2B
:101590000E94E50400D000D0EDB7FEB712830183AE
:1015A0008BEF92E0948383830E940E2CEDB7FEB7FD
:1015B000128301838BEE92E0948383830E940E2C2E
:1015C000EDB7FEB7128301838BED92E094838383A2
:1015D0000E940E2CEDB7FEB7128301838BEC92E0D4
:1015E000948383830E940E2CEDB7FEB71283018390
:1015F0008CEB92E0948383830E940E2C0F900F90CB
:101600000F900F90C8010E949904C70101966D2D9B
:101610007C2D0E9405081F910F91FF90EF90DF90A5
:10162000CF900895CF92DF92EF92FF920F931F9386
:10163000282F462F03E514E0C801622F0E94E5041D
:10164000E090CF05F090D005C090D105D090D205A4
:101650008DB79EB744970FB6F8949EBF0FBE8DBF4F
:10166000EDB7FEB73196ADB7BEB712961C930E9389
:1016700011978BE191E09383828383EB90E09583D4
:101680008483C7016CE370E00E94C339CB016CE333
:1016900070E00E94C339978386832AE330E0318764
:1016A0002087C7016CE370E00E94C339938782876B
:1016B00089EF90E095878487C6016CE370E00E9413
:1016C000AF39CB016CE370E00E94C33997878687FE
:1016D000318B208BC6016CE370E00E94AF39938B95
:1016E000828B0E941F2C8DB79EB744960FB6F8943C
:1016F0009EBF0FBE8DBFC8010E9499041F910F911C
:10170000FF90EF90DF90CF9008950F931F93282FB5
:10171000462F03E514E0C801622F0E94E5048DB74F
:101720009EB70C970FB6F8949EBF0FBE8DBFEDB756
:10173000FEB73196ADB7BEB712961C930E931197B4
:1017400083E391E09383828383EE90E095838483A7
:101750008091A1049091A204A091A304B091A4044B
:1017600086839783A087B18780EB90E093878287F9
:101770000E941F2C8DB79EB70C960FB6F8949EBF93
:101780000FBE8DBFC8010E9499041F910F9108954B
:101790000F931F93282F462F03E514E0C801622FF3
:1017A0000E94E5048DB79EB746970FB6F8949EBF8A
:1017B0000FBE8DBFEDB7FEB73196ADB7BEB712966F
:1017C0001C930E9311978DE391E09383828389EBB1
:1017D00090E09583848380919A0490919B049783F1
:1017E000868382E890E09187808787EB90E09387FB
:1017F00082878091470390914803A0914903B0915B
:101800004A0384879587A687B78786EB90E0918BFC
:10181000808B80914D0390914E03A0914F03B09126
:101820005003828B938BA48BB58B0E941F2C8DB79A
:101830009EB746960FB6F8949EBF0FBE8DBFC801E7
:101840000E9499041F910F910895EF92FF920F93B8
:101850001F93282F462F83E5E82E84E0F82EC7013A
:10186000622F0E94E5048DB79EB70C970FB6F894CF
:101870009EBF0FBE8DBF0DB71EB70F5F1F4FEDB7D9
:10188000FEB7F282E18285E591E0F80193838283DD
:1018900084EE90E09583848360919804709199041C
:1018A000882777FD8095982F0E9437372AE037EDFB
:1018B00043E25CE30E946A38F8016683778380879D
:1018C00091878FE890E0938782870E941F2C8DB7C5
:1018D0009EB70C960FB6F8949EBF0FBE8DBFC70182
:1018E0000E9499041F910F91FF90EF900895CF925D
:1018F000DF92EF92FF920F931F93282F462F83E5DD
:1019000094E0622F0E94E504C0909404D090950466
:10191000E0909604F09097048091D30590E0805D6C
:101920009E4F2091410330914203829FB001839FDB
:10193000700D929F700D1124882777FD8095982F48
:101940000E94373720E030E048EC52E40E949C3699
:101950009B01AC01C701B6010E949536181614F41C
:1019600028EB01C024EB8DB79EB70C970FB6F89407
:101970009EBF0FBE8DBFEDB7FEB7319603E514E0F5
:10198000ADB7BEB712961C930E93119785E591E003
:1019900093838283822F992787FD909595838483F3
:1019A000C682D782E086F1868EE890E093878287B0
:1019B0000E941F2C8DB79EB70C960FB6F8949EBF51
:1019C0000FBE8DBFC8010E9499041F910F91FF9017
:1019D000EF90DF90CF9008950F931F93CF93DF93F5
:1019E000282F462F83E594E0622F0E94E504809122
:1019F0007B04882319F4CFE5D1E057C0813019F476
:101A0000C3E6D1E052C0823019F4C7E6D1E04DC040
:101A1000833019F4CBE6D1E048C0843019F4CFE626
:101A2000D1E043C0853019F4C3E7D1E03EC0863031
:101A300019F4C7E7D1E039C0873019F4CBE7D1E01A
:101A400034C0883019F4CFE7D1E02FC0893019F4C1
:101A5000C3E8D1E02AC08A3019F4C7E8D1E025C034
:101A60008B3019F4CBE8D1E020C08C3019F4CFE8EA
:101A7000D1E01BC08D3019F4C3E9D1E016C08E301F
:101A800019F4C7E9D1E011C08F3019F4CBE9D1E0E6
:101A90000CC0803119F4CFE9D1E007C0813119F0D1
:101AA000C3EAD1E002C0C4EAD1E08150863090F4AC
:101AB00080917A04882371F00E9460342CE231E036
:101AC00040E050E00E94D63920FF02C024E003C06D
:101AD00020E201C020EE8DB79EB708970FB6F894AC
:101AE0009EBF0FBE8DBFEDB7FEB7319603E514E084
:101AF000ADB7BEB712961C930E93119788EA91E08A
:101B000093838283822F992787FD90959583848381
:101B1000D783C6830E941F2C8DB79EB708960FB639
:101B2000F8949EBF0FBE8DBFC8010E949904DF913B
:101B3000CF911F910F9108950F931F93282F462F38
:101B400003E514E0C801622F0E94E5048DB79EB73B
:101B50000A970FB6F8949EBF0FBE8DBFEDB7FEB7C4
:101B60003196ADB7BEB712961C930E9311978DEABE
:101B700091E09383828387E890E0958384838091CA
:101B80007C0490917D049783868385E290E0918721
:101B900080870E941F2C8DB79EB70A960FB6F894C7
:101BA0009EBF0FBE8DBFC8010E9499041F910F9167
:101BB00008950F931F93282F462F03E514E0C801C3
:101BC000622F0E94E5048DB79EB708970FB6F89470
:101BD0009EBF0FBE8DBFEDB7FEB73196ADB7BEB796
:101BE00012961C930E93119787EB91E09383828357
:101BF00080916C0490916D049583848381EB90E0D7
:101C0000978386830E941F2C8DB79EB708960FB6C8
:101C1000F8949EBF0FBE8DBFC8010E9499041F910A
:101C20000F9108950F931F93282F462F03E514E07B
:101C3000C801622F0E94E5048DB79EB708970FB6C2
:101C4000F8949EBF0FBE8DBFEDB7FEB73196ADB70E
:101C5000BEB712961C930E93119787EB91E0938376
:101C6000828380916A0490916B049583848382EBD4
:101C700090E0978386830E941F2C8DB79EB70896AD
:101C80000FB6F8949EBF0FBE8DBFC8010E94990485
:101C90001F910F9108950F931F93282F462F03E54F
:101CA00014E0C801622F0E94E5048DB79EB70E971D
:101CB0000FB6F8949EBF0FBE8DBFEDB7FEB731963D
:101CC000ADB7BEB712961C930E9311978DEB91E0B2
:101CD0009383828381EE90E0958384838091AD0429
:101CE000992787FD9095978386838CE890E091876C
:101CF00080878091AE04828713868BE890E0958779
:101D000084870E941F2C8DB79EB70E960FB6F8944D
:101D10009EBF0FBE8DBFC8010E9499041F910F91F5
:101D200008950F931F93282F462F03E514E0C80151
:101D3000622F0E94E5048DB79EB742970FB6F894C4
:101D40009EBF0FBE8DBFEDB7FEB73196ADB7BEB724
:101D500012961C930E9311978BEC91E093838283E0
:101D60008CED91E095838483809174049091750447
:101D7000A0917604B091770486839783A087B1877A
:101D800080EB90E09387828780ED90E09587848751
:101D900084ED95E09787868781ED90E0918B808B2D
:101DA0000E941F2C8DB79EB742960FB6F8949EBF27
:101DB0000FBE8DBFC8010E9499041F910F91089515
:101DC0000F931F93282F462F03E514E0C801622FBD
:101DD0000E94E5048DB79EB70C970FB6F8949EBF8E
:101DE0000FBE8DBFEDB7FEB73196ADB7BEB7129639
:101DF0001C930E93119783E391E09383828386E192
:101E000090E0958384838091900490919104A091B7
:101E10009204B091930486839783A087B18788E862
:101E200090E0938782870E941F2C8DB79EB70C96F7
:101E30000FB6F8949EBF0FBE8DBFC8010E949904D3
:101E40001F910F910895CF92DF92EF92FF920F931F
:101E50001F93CF93DF93282F462FC3E5D4E0CE0105
:101E6000622F0E94E504C090E005D090E105E0906B
:101E7000E205F090E305C701B6010E940437695EF0
:101E80007340804090408CF18DB79EB70C970FB691
:101E9000F8949EBF0FBE8DBF0DB71EB70F5F1F4FCB
:101EA000ADB7BEB71296DC93CE93119785E591E05E
:101EB000F801938382838EEF90E095838483C7013A
:101EC000B60120E030E04AE754E40E949C36D80195
:101ED00016966D937D938D939C9319978DEF90E05B
:101EE0001B969C938E931A9721C08DB79EB70C9723
:101EF0000FB6F8949EBF0FBE8DBFEDB7FEB73196FB
:101F0000ADB7BEB71296DC93CE93119786EE91E0F3
:101F1000938382838EEF90E095838483C682D782F9
:101F2000E086F1868DE890E0938782870E941F2CDF
:101F3000EDB7FEB73C960FB6F894FEBF0FBEEDBFEF
:101F400083E594E00E949904DF91CF911F910F9156
:101F5000FF90EF90DF90CF900895EF92FF920F9354
:101F60001F93282F462F93E5E92E94E0F92EC70101
:101F7000622F0E94E5048DB79EB70C970FB6F894B8
:101F80009EBF0FBE8DBF0DB71EB70F5F1F4FEDB7C2
:101F9000FEB7F282E18283E391E0F80193838283CA
:101FA00088EE90E0958384836091E4057091E50567
:101FB0008091E6059091E70526E636E646E650E490
:101FC0000E946A38F801668377838087918781E869
:101FD00090E0938782870E941F2C8DB79EB70C9646
:101FE0000FB6F8949EBF0FBE8DBFC7010E94990423
:101FF0001F910F91FF90EF900895EF92FF920F9332
:102000001F93282F462F33E5E32E34E0F32EC7012C
:10201000622F0E94E5048DB79EB70C970FB6F89417
:102020009EBF0FBE8DBF0DB71EB70F5F1F4FEDB721
:10203000FEB7F282E18283E391E0F8019383828329
:1020400089EE90E09583848360918C0470918D0477
:1020500080918E0490918F0426E636E646E650E4A1
:102060000E946A38F801668377838087918781E8C8
:1020700090E0938782870E941F2C8DB79EB70C96A5
:102080000FB6F8949EBF0FBE8DBFC7010E94990482
:102090001F910F91FF90EF900895CF92DF92EF92F2
:1020A000FF920F931F93282F462F53E5C52E54E020
:1020B000D52EC601622F0E94E504609188047091BC
:1020C000890480918A0490918B042DB73EB72451E6
:1020D00030400FB6F8943EBF0FBE2DBF0DB71EB7F0
:1020E0000F5F1F4FEDB7FEB7D282C18220EF31E004
:1020F000F8013383228325E830E035832483668327
:102100007783808791874DE8E42EF12CF386E28671
:1021100027EE30E0358724872091E8053091E905E6
:102120004091EA055091EB050E94CE35F801668793
:102130007787808B918BF38AE28A0E941F2C2DB7C0
:102140003EB72C5E3F4F0FB6F8943EBF0FBE2DBF7B
:10215000C6010E9499041F910F91FF90EF90DF90AC
:10216000CF900895EF92FF920F931F93282F462F41
:1021700063E5E62E64E0F62EC701622F0E94E504B7
:102180008DB79EB70C970FB6F8949EBF0FBE8DBF4C
:102190000DB71EB70F5F1F4FEDB7FEB7F282E1829A
:1021A00084E092E0F8019383828386EE90E0958349
:1021B000848360919D0470919E0480919F0490910E
:1021C000A004209151033091520340915303509148
:1021D00054030E94CE35F801668377838087918708
:1021E0008DE890E0938782870E941F2C8DB79EB761
:1021F0000C960FB6F8949EBF0FBE8DBFC7010E940C
:1022000099041F910F91FF90EF9008950F931F93E2
:10221000282F462F03E514E0C801622F0E94E50431
:102220008091EC050E947F09C8010E9499041F91CA
:102230000F910895CF92DF92EF92FF920F931F9329
:10224000CF93DF93282F462FC3E5D4E0CE01622F32
:102250000E94E5046091ED057091EE058091EF0517
:102260009091F0050E9437376B017C0120E030E44B
:102270004CE156E40E949536882314F58DB79EB73D
:102280000C970FB6F8949EBF0FBE8DBFEDB7FEB78B
:102290003196ADB7BEB71296DC93CE93119784E01A
:1022A00092E09383828382E190E095838483C68267
:1022B000D782E086F1868DE890E09387828730C0F0
:1022C0008DB79EB70C970FB6F8949EBF0FBE8DBF0B
:1022D0000DB71EB70F5F1F4FADB7BEB71296DC9399
:1022E000CE9311978EE092E0F8019383828382E18E
:1022F00090E095838483C701B60120E030E04AE78F
:1023000054E40E949C36D80116966D937D938D936C
:102310009C9319978DEF90E01B969C938E931A9740
:102320000E941F2CEDB7FEB73C960FB6F894FEBF87
:102330000FBEEDBF83E594E00E949904DF91CF9139
:102340001F910F91FF90EF90DF90CF900895BF9273
:10235000CF92DF92EF92FF920F931F93CF93DF9371
:10236000282F462F83E594E0622F0E94E5042091F8
:10237000F1053091F20537FF02C04AE801C047EF8E
:10238000C091F305D091F405D7FF03C0AAE8BA2E97
:1023900002C0F8EFBF2E8DB79EB74C970FB6F894DA
:1023A0009EBF0FBE8DBF0DB71EB70F5F1F4FE3E57A
:1023B000CE2EE4E0DE2EEDB7FEB7D282C18288E1F8
:1023C00092E0F80193838283842F992787FD90956B
:1023D00095838483B901882777FD8095982F0E9483
:1023E0003737F80166837783808791877DE8E72E0A
:1023F000F12CF386E2868B2D992787FD90959587A2
:102400008487BE01882777FD8095982F0E943737F3
:10241000F80166877787808B918BF38AE28A8BEF4E
:1024200090E0958B848B6091F5057091F605809115
:10243000F7059091F80520E030E04AE754E40E9467
:102440009C36F801668B778B808F918F84EF90E0BC
:10245000938F828F0E941F2C8DB79EB74C960FB61C
:10246000F8949EBF0FBE8DBFC6010E949904DF91F4
:10247000CF911F910F91FF90EF90DF90CF90BF9081
:1024800008950F931F93282F462F03E514E0C801EA
:10249000622F0E94E5048DB79EB70C970FB6F89493
:1024A0009EBF0FBE8DBFEDB7FEB73196ADB7BEB7BD
:1024B00012961C930E93119786E392E09383828386
:1024C0008091700490917104A0917204B091730492
:1024D00084839583A683B78380918204909183043B
:1024E000A0918404B091850480879187A287B387E7
:1024F0000E941F2C8DB79EB70C960FB6F8949EBF06
:102500000FBE8DBFC8010E9499041F910F910895BD
:102510000F931F93282F462F83E594E0622F0E948C
:10252000E50480918704282F30E0823030F4B4E055
:10253000220F331FBA95E1F702C02150304000D07E
:1025400000D000D0EDB7FEB7319603E514E0ADB78B
:10255000BEB712961C930E93119780E091E093837F
:102560008283358324830E941F2C8DB79EB70696E5
:102570000FB6F8949EBF0FBE8DBFC8010E9499048C
:102580001F910F9108950F931F93282F462F03E556
:1025900014E0C801622F0E94E5048DB79EB708972A
:1025A0000FB6F8949EBF0FBE8DBFEDB7FEB7319644
:1025B000ADB7BEB712961C930E93119782E492E0CA
:1025C000938382838FE090E0958384838091860457
:1025D000868317820E941F2C8DB79EB708960FB670
:1025E000F8949EBF0FBE8DBFC8010E9499041F9131
:1025F0000F9108950F931F9303E514E0C80161E064
:1026000047E00E94E50400D000D0EDB7FEB712838A
:1026100001838BE093E0948383830E940E2C0F90C0
:102620000F900F900F90C8010E9499041F910F9175
:1026300008959F92AF92BF92CF92DF92EF92FF9256
:102640000F931F93CF93DF93282F462FC3E5D4E03A
:10265000CE01622F0E94E50490907B048EE09816D4
:1026600021F09CE0991609F008C16091B5047091C1
:10267000B6048091B7049091B8042091A9043091D8
:10268000AA044091AB045091AC040E94CE357B016A
:102690008C016091B1047091B2048091B304909167
:1026A000B4042091A5043091A6044091A704509150
:1026B000A8040E94CE355B016C01C801B701A801D6
:1026C00097010E946A387B018C01C601B501A60101
:1026D00095010E946A389B01AC01C801B7010E94B4
:1026E000CF350E94F1385B016C01E0908C04F090D2
:1026F0008D0400918E0410918F04C801B70120E071
:1027000030E040E050E00E945F3818161CF000E016
:1027100010E009C0C601B501A80197010E949C36CE
:102720000E9409378B01C601B50120E83FE443EC64
:1027300057E40E945F38181654F40F2EF0E8AF2EBD
:10274000FFE4BF2EF3ECCF2EF7E4DF2EF02DE801EF
:10275000A7E100371A0710F0CFE6D7E18091AF0468
:102760009091B0048436910530F083E690E0909328
:10277000B0048093AF04C601B50120E03CE34CE116
:1027800056E40E945F3818163CF40DEFF02E2FE649
:1027900032E143E85AE306C01DE8F12E20E030E0C4
:1027A00040E85FE3BCE09B1621F41092B004109265
:1027B000AF04EDB7FEB77A970FB6F894FEBF0FBE21
:1027C000EDBF0DB71EB70F5F1F4F83E594E09283F7
:1027D000818388E492E0D80113969C938E9312979C
:1027E00083E190E015969C938E93149784E190E09A
:1027F00017969C938E93169789E190E019969C9377
:102800008E931897C601B5010E946A38F801628755
:102810007387848795878F2D992787FD9095978754
:1028200086878091AF049091B004918B808B8AE170
:1028300090E0938B828BCE016CE370E00E94AF3905
:10284000CB016CE370E00E94C339958B848B8AE3E3
:1028500090E0978B868BCE016CE370E00E94AF39DD
:10286000918F808F0E941F2C8DB79EB74A960FB60E
:10287000F8949EBF0FBE8DBF23C027E632E0ADB7F0
:10288000BEB718970FB6F894BEBF0FBEADBFEDB779
:10289000FEB731961296DC93CE93119780E792E0C3
:1028A0009383828335832483378326830E941F2C5E
:1028B000EDB7FEB738960FB6F894FEBF0FBEEDBF6A
:1028C00083E594E00E949904DF91CF911F910F91CD
:1028D000FF90EF90DF90CF90BF90AF909F900895C2
:1028E0002F923F924F925F926F927F928F929F9220
:1028F000AF92BF92CF92DF92EF92FF920F931F930E
:10290000DF93CF9300D000D0CDB7DEB7E090330691
:10291000F090340600913506109136068FE590E070
:10292000A0E0B0E0E80EF91E0A1F1B1F0E946034F1
:102930006E157F058007910708F481C120918C04F2
:1029400030918D0440918E0450918F04E09090045A
:10295000F09091040091920410919304CA01B9017E
:102960000E946A385B016C01C801B701A801970198
:102970000E946A389B01AC01C601B5010E94CF35A7
:102980000E94F1386093E4057093E5058093E605B5
:102990009093E70520E030E040E050E00E945F388F
:1029A00018160CF042C10E94603420913306309119
:1029B00034064091350650913606621B730B840B2A
:1029C000950B0E9435373B014C01E090E405F090F7
:1029D000E5050091E6051091E70520918C04309102
:1029E0008D0440918E0450918F040E946A3820E03B
:1029F00030E04AE754E40E949C369B01AC016091B0
:102A0000E0057091E1058091E2059091E3050E9457
:102A1000CF356093E0057093E1058093E2059093D4
:102A2000E3058091210690912206892B09F49AC032
:102A3000C801B701A40193010E946A3820E030E088
:102A40004AE754E40E949C361B012C0160919804D3
:102A500070919904882777FD8095982F0E943737C9
:102A600069837A838B839C8360912F0670913006F3
:102A700080913106909132062DEC3CEC4CE45FE302
:102A80000E946A387B018C01C201B10120E030EA6A
:102A90004CE857E40E946A3829813A814B815C8175
:102AA0000E949C36A40193010E949C369B01AC01BC
:102AB000C801B7010E94CF355B016C0160932F06FE
:102AC00070933006809331069093320660914B03E9
:102AD00070914C03882777FD8095982F0E94373797
:102AE0002DEC3CEC4CE45FE30E946A387B018C01E6
:102AF00060919A0470919B0480E090E00E943537C9
:102B00009B01AC01C801B7010E94CE35A601950119
:102B10000E946A387B018C016091C9057091CA05D9
:102B20008091CB059091CC050E9437379B01AC0179
:102B3000C801B7010E94CE3520E030E040E05FE3FD
:102B40000E946A380E9404377093F4056093F3057D
:102B5000615F784D64F481EF98ED9093F405809374
:102B6000F30505C01092F4051092F30552C0C2019E
:102B7000B10120E030E040E050E00E945F381816DC
:102B80000CF047C06091F5057091F6058091F7054E
:102B90009091F8052DEC3CEC4CE45FE30E946A3820
:102BA0007B018C0169817A818B819C8120919404C5
:102BB0003091950440919604509197040E946A3890
:102BC000A40193010E946A3820E030E041EE54E411
:102BD0000E949C36A20191010E949C369B01AC018F
:102BE000C801B7010E94CF356093F5057093F605D3
:102BF0008093F7059093F80520E03BE443EC57E41D
:102C00000E945F3818168CF480E09BE4A3ECB7E4D4
:102C100004C080E090E0A0E0B0E08093F5059093E0
:102C2000F605A093F705B093F8050E946034609311
:102C300033067093340680933506909336060F90D2
:102C40000F900F900F90CF91DF911F910F91FF90F8
:102C5000EF90DF90CF90BF90AF909F908F907F903C
:102C60006F905F904F903F902F900895EF92FF925A
:102C70000F931F93CF93DF930E9460342091FC0544
:102C80003091FD054091FE055091FF05261737074D
:102C90004807590708F029C10E9460346C507E4FE4
:102CA0008F4F9F4F6093FC057093FD058093FE0549
:102CB0009093FF0503E514E0C8010E942F05C801A9
:102CC00065E043E00E94E50400D000D0EDB7FEB718
:102CD000128301838CE493E0948383830E940E2CFF
:102CE0000F900F900F900F908091CD059091CE0591
:102CF000892B31F08091F9059091FA05892B81F4A7
:102D000080917E0490917F049093CE058093CD05B1
:102D100080918004909181049093FA058093F90545
:102D200020918004309181044091F9055091FA0579
:102D3000C901845690404817590724F48091FB0537
:102D40008F5F08C02C593F4F241735072CF4809112
:102D5000FB0581508093FB058091FB05823014F4C4
:102D600082E003C085301CF084E08093FB058091F5
:102D7000FB05833039F0843009F45DC0823009F0FE
:102D8000B0C003C0CAE0D0E002C0C4E6D0E000D0CA
:102D900000D093E5E92E94E0F92EEDB7FEB7F2826C
:102DA000E1828DE393E0948383830E940E2C8DB7A0
:102DB0009EB708970FB6F8949EBF0FBE8DBF0DB794
:102DC0001EB70F5F1F4FEDB7FEB7F282E18286E7B5
:102DD00092E0F8019383828360914B0370914C03DE
:102DE000882777FD8095982F0E943737F8016483F4
:102DF00075838683978382E890E09187808780E25D
:102E000090E0938782870E941F2C8DB79EB70C9607
:102E10000FB6F8949EBF0FBE8DBF80914B0390916B
:102E20004C036DEF73E0AE010E94390A90934C039E
:102E300080934B0356C000D000D083E5E82E84E099
:102E4000F82EEDB7FEB7F282E1828DE193E0948334
:102E500083830E940E2C8DB79EB708970FB6F89407
:102E60009EBF0FBE8DBF0DB71EB70F5F1F4FEDB7D3
:102E7000FEB7F282E1828EE792E0F80193838283CB
:102E80006091D30570E0645D7E4F882777FD809563
:102E9000982F0E94373720E030E048EC52E40E943F
:102EA0009C36F801648375838683978386E790E078
:102EB0009187808780E290E0938782870E941F2C11
:102EC0008DB79EB70C960FB6F8949EBF0FBE8DBF00
:102ED0008091D30590E060E873E00E940E0A809331
:102EE000D30583E594E00E949904DF91CF911F916F
:102EF0000F91FF90EF9008952F923F924F925F9223
:102F00006F927F928F929F92AF92BF92CF92DF92F9
:102F1000EF92FF920F931F93DF93CF93CDB7DEB75E
:102F200061970FB6F894DEBF0FBECDBF8E876F8757
:102F30000E94603420910006309101064091020603
:102F400050910306261737074807590708F0FCC1B8
:102F5000809104068823C9F08093550310920406DB
:102F600086E892E090931306809312060E946034E4
:102F7000625A7E4F8F4F9F4F6093000670930106F9
:102F8000809302069093030699C180915503282FE0
:102F900030E03A832983C09079043091B9043D87A9
:102FA0004091BA044C87D0907804E0900606F090E7
:102FB00007060091120610911306509165045B8379
:102FC000809187048B87909105069A8720909404BE
:102FD0003090950440909604509097048091D305CA
:102FE00090E0845D9E4F2091410330914203DC01CB
:102FF000A29FC001A39F900DB29F900D11246090DD
:10300000CA03B0E46B227090CB037B22E091AD0445
:10301000E987F091AE04F8872091F1053091F2052F
:103020003F832E834091F3055091F4055D834C83DB
:10303000A981BA81B98BA88B4C01AA2497FCA094D2
:10304000BA2CE889F9893196F98BE88B39972CF0FD
:1030500021E030E0398B288B27C0488959894430DA
:10306000510509F454C04530510564F4423051050E
:10307000D1F1433051050CF03EC04130510509F00B
:103080009EC012C0888999898630910509F460C074
:10309000863091050CF452C08730910509F468C060
:1030A000089709F08CC07CC091E09C15A0F0C9166F
:1030B00019F403E912E015C0AD85A13049F4BC85CF
:1030C000B13031F4E2E0ED1518F000EA12E009C089
:1030D0000DEA12E006C0FC85F13009F470C00AEB7D
:1030E00012E081E075C02B81233009F468C007EC41
:1030F00012E082E06DC03B85323008F060C04A8546
:10310000442309F45CC004ED12E083E061C0C50112
:10311000B4010E94373720E030E048EC52E40E94CE
:103120009C369B01AC01C201B1010E9495368823F7
:103130000CF045C001EE12E084E04AC051E0E51613
:10314000F104E9F50EEE12E0EE24FF2485E040C024
:10315000662011F4772099F189858C3A2CF09885B6
:10316000993668F5882359F10BEF12E086E030C0FC
:10317000A1E0AC1520F1AD1510F5B2E0DB1619F4A5
:1031800008E013E005C0E3E0DE1621F405E113E0FA
:1031900087E01EC0F4E0DF16D9F702E213E0F8CFB3
:1031A00021E02C1560F44E815F8157FD04C08C81B5
:1031B0009D8197FF04C00FE213E088E009C0A88951
:1031C000B989E981FA81AE17BF0709F03ACFA1C0EA
:1031D000F0920706E092060610931306009312067B
:1031E0008093040681E0809308060E946034645452
:1031F0007D4F8F4F9F4F6093000670930106809321
:103200000206909303060E9460346854744F8F4FF7
:103210009F4F60930E0670930F0680931006909355
:1032200011068091090690910A06A0910B06B091B3
:103230000C060097A105B10571F40E946034605935
:10324000784E8F4F9F4F6093090670930A068093C4
:103250000B0690930C0680910D06882379F40E944A
:1032600060342091090630910A0640910B06509176
:103270000C06261737074807590720F083E594E026
:103280000E942F050E9460342091090630910A06A1
:1032900040910B0650910C0626173707480759072F
:1032A00068F010920D060AC01092080610920906E6
:1032B00010920A0610920B0610920C0603E514E019
:1032C000C8016E854F850E94E50400D000D000D073
:1032D000EDB7FEB73196ADB7BEB712961C930E93FD
:1032E00011978CE393E093838283809112069091EF
:1032F0001306958384830E941F2CEDB7FEB7369684
:103300000FB6F894FEBF0FBEEDBFC8010E9499042E
:103310001BC0F0920706E092060610931306009376
:103320001206109204060E94603420910E0630911D
:103330000F064091100650911106261737074807CF
:10334000590708F4B1CFBACF61960FB6F894DEBF33
:103350000FBECDBFCF91DF911F910F91FF90EF90E6
:10336000DF90CF90BF90AF909F908F907F906F90A5
:103370005F904F903F902F90089520913F033091A0
:103380004003C901895097408F5A9440D0F58091ED
:103390007904882321F481E0809314062EC0809163
:1033A0001406882351F580910806882311F10E94A4
:1033B00060342091090630910A0640910B06509125
:1033C0000C062617370748075907B8F40E946034DF
:1033D00020910006309101064091020650910306AB
:1033E000261737074807590740F4809104068823B9
:1033F00021F483E594E00E942F0582E080930D067E
:10340000089584E0203B380768F480910D068823F6
:1034100049F01092140683E594E00E942F05109263
:103420000D060895205B34402955324000F5809107
:103430000D068130E1F080910806882379F00E9422
:1034400060342091090630910A0640910B06509194
:103450000C06261737074807590748F41092140638
:1034600083E594E00E942F0581E080930D06089586
:10347000EF92FF920F931F9380911406882309F017
:1034800060C080917904823008F05BC080910506AD
:10349000813009F056C080917E0490917F0489505C
:1034A00097400CF44EC08091800490918104805B21
:1034B00094400CF046C08091700490917104A091EA
:1034C0007204B09173048093150690931606A0932E
:1034D0001706B09318068091820490918304A091FE
:1034E0008404B09185048093190690931A06A093E2
:1034F0001B06B0931C068091880490918904A091CA
:103500008A04B0918B048093E8059093E905A09319
:10351000EA05B093EB0580919D0490919E04A091E3
:103520009F04B091A0048093510390935203A09301
:103530005303B093540381E090E090930706809387
:10354000060680911D0690911E06A0911F06B0915F
:1035500020060097A105B10509F04EC080917C04BA
:1035600090917D04079708F447C0809179048230D8
:1035700008F442C00E94603460931D0670931E06DA
:1035800080931F0690932006109222061092210627
:1035900080919A0490919B04909324068093230633
:1035A0008091470390914803A0914903B0914A0349
:1035B0008093560390935703A0935803B0935903F5
:1035C00080E090E0A0E0B0E08093E0059093E1051A
:1035D000A093E205B093E30580919D0490919E0431
:1035E000A0919F04B091A004809351039093520343
:1035F000A0935303B093540380911D0690911E062F
:10360000A0911F06B09120060097A105B10509F40D
:1036100062C080917C0490917D04079720F4809192
:103620007A04882359F180917904823038F10E941C
:10363000603420911D0630911E0640911F06509166
:103640002006621B730B840B950B28EE33E040E0E1
:1036500050E00E94D6393093D0052093CF05809159
:103660009A0490919B042091230630912406821B9A
:10367000930B90932206809321064DC00E946034E4
:103680007B018C016091CF057091D005882777FD73
:103690008095982F28E13CEF4FEF5FEF0E94903923
:1036A000E60EF71E081F191FE0921D06F0921E0677
:1036B00000931F061093200680919A0490919B041A
:1036C0002091210630912206821B930B90932406B1
:1036D0008093230620C00E94603428EE33E040E04F
:1036E00050E00E94D6393093D0052093CF05109238
:1036F0002206109221068091470390914803A091E1
:103700004903B0914A038093560390935703A093C3
:103710005803B09359030E94BD1980911406882361
:1037200019F00E9436165EC28091CA0380FF08C05D
:10373000609124048091220490E070E00E947C1744
:1037400080910D068230A8F080910806882309F444
:1037500049C20E9460342091090630910A064091C6
:103760000B0650910C06261737074807590708F42F
:1037700039C280910D0680932506823011F4109293
:103780000D0680910D06A82FB0E0FD01EC53FC4F13
:10379000808185FF0BC0FD01E452FC4F6081A65281
:1037A000BC4F8C9190E070E00E94C31280910D0696
:1037B000A82FB0E0FD01EC53FC4F808186FF0BC0C9
:1037C000FD01E052FC4F6081A252BC4F8C9190E011
:1037D00070E00E94881280910D06A82FB0E0FD01D4
:1037E000E653FC4F808183FF0BC0FD01E85DFB4F7A
:1037F0006081AA5DBB4F8C9190E070E00E94E00E6A
:1038000080910506882309F469C080910D06A82FD0
:10381000B0E0FD01EC53FC4F808187FF0BC0FD0140
:10382000EC51FC4F6081AE51BC4F8C9190E070E048
:103830000E94411280910D06A82FB0E0FD01EA53CD
:10384000FC4F808184FF0BC0FD01EC50FC4F608178
:10385000AE50BC4F8C9190E070E00E941A118091A4
:103860000D06A82FB0E0FD01EA53FC4F808183FFD5
:103870000BC0FD01E051FC4F6081A251BC4F8C9107
:1038800090E070E00E94061180910D06A82FB0E034
:10389000FD01EA53FC4F808185FF0BC0FD01E8501C
:1038A000FC4F6081AA50BC4F8C9190E070E00E9468
:1038B000191380910D06A82FB0E0FD01EA53FC4FCB
:1038C000808186FF0BC0FD01E450FC4F6081A65053
:1038D000BC4F8C9190E070E00E94A71180910D0682
:1038E000A82FB0E0FD01E853FC4F808187FF0BC09B
:1038F000FD01E45FFB4F6081A65FBB4F8C9190E0C0
:1039000070E00E94B21080910506882309F459C026
:1039100080918704823008F454C080910D06A82F4E
:10392000B0E0FD01E453FC4F808182FF0BC0FD013C
:10393000E05DFB4F6081A25DBB4F8C9190E070E039
:103940000E94230F80910D06A82FB0E0FD01E853DF
:10395000FC4F808182FF0BC0FD01E85FFB4F60815F
:10396000AA5FBB4F8C9190E070E00E944D10809157
:103970000D06A82FB0E0FD01E853FC4F808183FFC6
:103980000BC0FD01E05FFB4F6081A25FBB4F8C91DC
:1039900090E070E00E94FD0F80910D06A82FB0E02E
:1039A000FD01E853FC4F808181FF0BC0FD01EC5EFF
:1039B000FB4F6081AE5EBB4F8C9190E070E00E9447
:1039C000AD0F80910506882321F080918704823015
:1039D00028F48091780481508330A8F480910D06FA
:1039E000A82FB0E0FD01EA53FC4F808180FF0BC09F
:1039F000FD01E451FC4F6081A651BC4F8C9190E0D9
:103A000070E00E94910E80910D06A82FB0E0FD019C
:103A1000E653FC4F808186FF0FC08091AD04882360
:103A200059F0FD01E45DFB4F6081A65DBB4F8C91B9
:103A300090E070E00E944B0E80910D06A82FB0E040
:103A4000FD01EC53FC4F808182FF0BC0FD01EC5265
:103A5000FC4F6081AE52BC4F8C9190E070E00E94B0
:103A6000120E80910D06A82FB0E0FD01EC53FC4F23
:103A7000808181FF0BC0FD01E053FC4F6081A253A8
:103A8000BC4F8C9190E070E00E94D90D80910D06A2
:103A9000A82FB0E0FD01E853FC4F808184FF0BC0EC
:103AA000FD01E85EFB4F6081AA5EBB4F8C9190E008
:103AB00070E00E949C0D80910D06A82FB0E0FD01E2
:103AC000E853FC4F808185FF0BC0FD01E45EFB4F96
:103AD0006081A65EBB4F8C9190E070E00E94EC0C80
:103AE00080910D06A82FB0E0FD01EC53FC4F8081C2
:103AF00083FF0BC0FD01E852FC4F6081AA52BC4F0E
:103B00008C9190E070E00E94770C80910D06A82FB8
:103B1000B0E0FD01E853FC4F808180FF0BC0FD0148
:103B2000EC5FFB4F6081AE5FBB4F8C9190E070E02B
:103B30000E94250C80910D06A82FB0E0FD01EC53EA
:103B4000FC4F808184FF0BC0FD01E851FC4F608178
:103B5000AA51BC4F8C9190E070E00E94C80B8091FC
:103B60000D06A82FB0E0FD01E453FC4F808181FFDA
:103B70000BC0FD01EC5CFB4F6081AE5CBB4F8C91D8
:103B800090E070E00E94850B80910D06A82FB0E0B8
:103B9000FD01EA53FC4F808187FF0BC0FD01E0501F
:103BA000FC4F6081A250BC4F8C9190E070E00E946D
:103BB000120B80910D06A82FB0E0FD01E853FC4FD9
:103BC000808186FF0BC0FD01E05EFB4F6081A25E3D
:103BD000BB4F8C9190E070E00E94BA0A809125065C
:103BE00080930D061F910F91FF90EF90089583E54C
:103BF00094E00E942F050E94FA120895CF93DF935C
:103C0000EC0183E594E00E940404C817D9073CF056
:103C100083E594E00E94F903892B09F42397CE01F0
:103C2000DF91CF910895FF920F931F9309E416E05F
:103C3000C80160E873E00E94D0328093D305C801C8
:103C40006DEF73E00E94D032F82EC8016EEF73E082
:103C50000E94D032382F20E02F0D311D30934C03BD
:103C600020934B031F910F91FF900895BC0189E4AD
:103C700096E00E94D0320895EF92FF920F931F9327
:103C8000CF93DF9300910D0610E08AEF90E0089F3C
:103C90007001099FF00C189FF00C1124C701885681
:103CA0009F4F0E94361EF801EC53FC4F882319F0F9
:103CB0008081806102C080818F7E808380910D062B
:103CC000C82FD0E0C70186569F4F0E94361ECA51AA
:103CD000DC4F888380910D06C82FD0E0C701845641
:103CE0009F4F0E94361E90E00E94FE1DC851DC4F7F
:103CF000888300910D0610E0C70106960E94361ECB
:103D0000F801EC53FC4F882319F08081826002C0D7
:103D100080818D7F808380910D06C82FD0E0C70100
:103D200008960E94361EC253DC4F888380910D0690
:103D3000C82FD0E0C7010A960E94361E90E00E946C
:103D4000FE1DC053DC4F888300910D0610E0C701B3
:103D50000C960E94361EF801EC53FC4F882319F094
:103D60008081846002C080818B7F808380910D067A
:103D7000C82FD0E0C7010E960E94361ECE52DC4FEF
:103D8000888380910D06C82FD0E0C70140960E941D
:103D9000361E90E00E94FE1DCC52DC4F88830091BD
:103DA0000D0610E0C70142960E94361EF801EC5342
:103DB000FC4F882319F08081886002C08081877F52
:103DC000808380910D06C82FD0E0C70144960E94E1
:103DD000361ECA52DC4F888380910D06C82FD0E072
:103DE000C70146960E94361E90E00E94FE1DC852F2
:103DF000DC4F888300910D0610E0C7014E960E94AB
:103E0000361EF801EC53FC4F882319F08081806244
:103E100002C080818F7D808380910D06C82FD0E005
:103E2000C70180960E94361EC652DC4F888380915F
:103E30000D06C82FD0E0C70182960E94361E90E082
:103E40000E94FE1DC452DC4F888300910D0610E0D5
:103E5000C70184960E94361EF801EC53FC4F88235C
:103E600019F08081806402C080818F7B8083809183
:103E70000D06C82FD0E0C70186960E94361EC2529A
:103E8000DC4F888380910D06C82FD0E0C70188964B
:103E90000E94361E90E00E94FE1DC052DC4F8883B7
:103EA00000910D0610E0C7018A960E94361EF801A7
:103EB000EC53FC4F882319F08081806802C0808118
:103EC0008F77808380910D06C82FD0E0C7018C9634
:103ED0000E94361ECE51DC4F888380910D06C82F7C
:103EE000D0E0C7018E960E94361E90E00E94FE1D13
:103EF000CC51DC4F888300910D0610E0C701C096BD
:103F00000E94361EF801EA53FC4F882319F0808185
:103F1000816002C080818E7F808380910D06C82FD2
:103F2000D0E0C701C2960E94361EC651DC4F88837E
:103F300080910D06C82FD0E0C701C4960E94361E9E
:103F400090E00E94FE1DC451DC4F888300910D0655
:103F500010E0C701885B9F4F0E94361EF801EA53AC
:103F6000FC4F882319F08081806102C080818F7EA0
:103F7000808380910D06C82FD0E0C701865B9F4FDC
:103F80000E94361ECE50DC4F888380910D06C82FCC
:103F9000D0E0C701845B9F4F0E94361E90E00E94D4
:103FA000FE1DCC50DC4F888300910D0610E0C70148
:103FB0008E5B9F4F0E94361EF801EA53FC4F882308
:103FC00019F08081886002C08081877F8083809122
:103FD0000D06C82FD0E0C7018C5B9F4F0E94361E94
:103FE000C251DC4F888380910D06C82FD0E0C701F5
:103FF0008A5B9F4F0E94361E90E00E94FE1DC051BA
:10400000DC4F888300910D0610E0C701805B9F4F55
:104010000E94361EF801EA53FC4F882319F0808174
:10402000806202C080818F7D808380910D06C82FC1
:10403000D0E0C7018E5A9F4F0E94361ECA50DC4FF7
:10404000888380910D06C82FD0E0C7018C5A9F4FFE
:104050000E94361E90E00E94FE1DC850DC4F8883EF
:1040600000910D0610E0C7018A5A9F4F0E94361E2C
:10407000F801EA53FC4F882319F08081806402C064
:1040800080818F7B808380910D06C82FD0E0C7018F
:10409000885A9F4F0E94361EC650DC4F88838091FD
:1040A0000D06C82FD0E0C701865A9F4F0E94361ECA
:1040B00090E00E94FE1DC450DC4F888300910D06E5
:1040C00010E0C70182569F4F0E94361EF801EA5346
:1040D000FC4F882319F08081806802C080818F772F
:1040E000808380910D06C82FD0E0C70180569F4F76
:1040F0000E94361EC250DC4F888380910D06C82F67
:10410000D0E0C7018E559F4F0E94361E90E00E945E
:10411000FE1DC050DC4F888300910D0610E0C701E2
:104120008E599F4F0E94361EF801E853FC4F88239A
:1041300019F08081816002C080818E7F80838091B0
:104140000D06C82FD0E0C7018C599F4F0E94361E24
:10415000CE5FDB4F888380910D06C82FD0E0C7016A
:104160008A599F4F0E94361E90E00E94FE1DCC5F30
:10417000DB4F888300910D0610E0C70182599F4FE5
:104180000E94361EF801E853FC4F882319F0808105
:10419000846002C080818B7F808380910D06C82F50
:1041A000D0E0C70180599F4F0E94361ECA5FDB4F87
:1041B000888380910D06C82FD0E0C7018E589F4F8D
:1041C0000E94361E90E00E94FE1DC85FDB4F888370
:1041D00000910D0610E0C70184579F4F0E94361EC4
:1041E000F801E853FC4F882319F08081806802C0F1
:1041F00080818F77808380910D06C82FD0E0C70122
:1042000082579F4F0E94361EC65FDB4F8883809186
:104210000D06C82FD0E0C70180579F4F0E94361E61
:1042200090E00E94FE1DC45FDB4F888300910D0665
:1042300010E0C7018E569F4F0E94361EF801E853CA
:10424000FC4F882319F08081826002C080818D7FBD
:10425000808380910D06C82FD0E0C7018C569F4FF8
:104260000E94361ECE5EDB4F888380910D06C82FDC
:10427000D0E0C7018A569F4F0E94361E90E00E94F0
:10428000FE1DCC5EDB4F888300910D0610E0C70158
:104290008C589F4F0E94361EF801E853FC4F88232C
:1042A00019F08081886002C08081877F808380913F
:1042B0000D06C82FD0E0C7018A589F4F0E94361EB6
:1042C000C25FDB4F888380910D06C82FD0E0C70105
:1042D00088589F4F0E94361E90E00E94FE1DC05FCE
:1042E000DB4F888300910D0610E0C70186589F4F71
:1042F0000E94361EF801E853FC4F882319F0808194
:10430000806102C080818F7E808380910D06C82FDE
:10431000D0E0C70184589F4F0E94361ECA5EDB4F13
:10432000888380910D06C82FD0E0C70182589F4F27
:104330000E94361E90E00E94FE1DC85EDB4F8883FF
:1043400000910D0610E0C70180589F4F0E94361E55
:10435000F801E853FC4F882319F08081806202C085
:1043600080818F7D808380910D06C82FD0E0C701AA
:104370008E579F4F0E94361EC65EDB4F888380910A
:104380000D06C82FD0E0C7018C579F4F0E94361EE4
:1043900090E00E94FE1DC45EDB4F888300910D06F5
:1043A00010E0C7018A579F4F0E94361EF801E8535C
:1043B000FC4F882319F08081806402C080818F7B4C
:1043C000808380910D06C82FD0E0C70188579F4F8A
:1043D0000E94361EC25EDB4F888380910D06C82F77
:1043E000D0E0C70186579F4F0E94361E90E00E9482
:1043F000FE1DC05EDB4F888300910D0610E0C701F3
:104400008C559F4F0E94361EF801E653FC4F8823BF
:1044100019F08081816002C080818E7F80838091CD
:104420000D06C82FD0E0C7018A559F4F0E94361E47
:10443000CE5DDB4F888380910D06C82FD0E0C70189
:1044400088559F4F0E94361E90E00E94FE1DCC5D55
:10445000DB4F888300910D0610E0C7018A549F4FFF
:104460000E94361EF801E653FC4F882319F0808124
:10447000886002C08081877F808380910D06C82F6D
:10448000D0E0C70188549F4F0E94361ECA5DDB4FA3
:10449000888380910D06C82FD0E0C70186549F4FB6
:1044A0000E94361E90E00E94FE1DC85DDB4F88838F
:1044B00000910D0610E0C701845A9F4F0E94361EDE
:1044C000F801E653FC4F882319F08081806402C014
:1044D00080818F7B808380910D06C82FD0E0C7013B
:1044E000825A9F4F0E94361EC65DDB4F88838091A3
:1044F0000D06C82FD0E0C701805A9F4F0E94361E7C
:1045000090E00E94FE1DC45DDB4F888300910D0684
:1045100010E0C70180529F4F0E94361EF801E453FD
:10452000FC4F882319F08081846002C080818B7FDA
:10453000808380910D06C82FD0E0C7018E519F4F18
:104540000E94361EC25DDB4F888380910D06C82F06
:10455000D0E0C7018C519F4F0E94361E90E00E9410
:10456000FE1DC05DDB4F888300910D0610E0C70182
:104570008C529F4F0E94361EF801E453FC4F882353
:1045800019F08081826002C080818D7F808380915C
:104590000D06C82FD0E0C7018A529F4F0E94361ED9
:1045A000CE5CDB4F888380910D06C82FD0E0C70119
:1045B00088529F4F0E94361E90E00E94FE1DCC5CE8
:1045C000DB4F8883DF91CF911F910F91FF90EF9088
:1045D00008954F925F927F928F929F92AF92BF9277
:1045E000CF92DF92EF92FF920F931F93DF93CF93BF
:1045F000CDB7DEB7C854D0400FB6F894DEBF0FBEBB
:10460000CDBF03E514E0C8010E942F05C80166E094
:1046100049E00E94E50400D000D0EDB7FEB7128358
:10462000018387E793E0948383830E940E2C0F908D
:104630000F900F900F90C8010E94990400D000D0F5
:1046400006E314E0EDB7FEB71283018387E693E03B
:10465000948383830E940E2C3CE5432E33E0532E3B
:10466000EE24FF24CC24DD240F900F900F900F90A8
:10467000702E012F29E0A22EB12CAC0EBD1E4E01D2
:104680000894811C911C86E394E00E94C22C982F10
:104690008D3031F08D30DCF180538230C0F530C088
:1046A0001830A1F59981892F8053823078F59133A4
:1046B00011F490E801C090E08A81813309F4905CA4
:1046C0008B81813309F4905E8C81813309F4905F92
:1046D0008D81813309F4985F8E81813309F49C5F69
:1046E0008F81813309F49E5F8885813309F49F5F50
:1046F000F501EE0DFF1D90830894E11CF11C06C02E
:10470000F401E10FF11D90831F5F01C010E0F0E4A0
:10471000EF16F104C9F483E594E0B601A5010E9407
:1047200012040894C11CD11C00D000D0EDB7FEB714
:1047300071820283548243820E940E2CEE24FF2455
:104740000F900F900F900F90FFEFCF16D10409F04C
:104750000CF499CFC85BDF4F0FB6F894DEBF0FBEE5
:10476000CDBFCF91DF911F910F91FF90EF90DF9020
:10477000CF90BF90AF909F908F907F905F904F9021
:1047800008952F923F924F925F926F927F928F92F5
:104790009F92AF92BF92CF92DF92EF92FF920F93D0
:1047A0001F93DF93CF9300D000D000D0CDB7DEB7FA
:1047B00053E0652E712C6C0E7D1E0F2EF7E82F2E08
:1047C000F4E13F2EF9E04F2EF3E45F2EF02D4DC4BF
:1047D0000E94603460527E4480409040C8F40E9441
:1047E0006034695873418040904090F01A3011F065
:1047F0001D3031F48091C5058F5F8093C50502C0DF
:104800001092C5058091C505833011F40E94E922FC
:10481000812F6BEB74E00E946B06882309F425C49A
:104820008091BF049091C004A091C104B091C204D2
:104830008835E6EB9E07EDEFAE07EAE4BE0709F424
:10484000B3C38935F6EB9F07FDEFAF07FAE4BF0767
:1048500088F588322EE5920722EDA20724E2B207FE
:1048600009F4D4C08932EEE59E07E2EDAE07E4E23A
:10487000BE0780F48C39F1EB9F07F5EAAF07FEE144
:10488000BF0709F4B7C38C5A9A4CA64EB04209F040
:10489000ECC3D9C38235E3E29E07E6E9AE07E6E260
:1048A000BE0709F49BC1865A9E40A241B84409F054
:1048B000DCC33BC38C3628E6920723E4A20722EC34
:1048C000B20709F47BC18D36E8E69E07E3E4AE0744
:1048D000E2ECBE0780F48A37F6EF9F07F1EFAF07EF
:1048E000FDE9BF0709F4D3C08659934BA34DBC4BD8
:1048F00009F0BBC38BC38436E9ED9E07E0EEAE073B
:10490000E7EDBE0781F08437F7E39F07F4EDAF07CB
:10491000FEEDBF0709F465C380589447A041B44C2D
:1049200009F0A3C380C00E94603460936604709352
:104930006704809368049093690483E0809365041E
:104940008BEB94E060E170E00E94B4070E940437B2
:1049500070936B0460936A048BEB94E064E170E005
:104960000E94B4070E94043770936D0460936C0436
:104970008BEB94E068E170E00E94B4070E9404377A
:104980008B0170936F0460936E046091700470915A
:104990007104809172049091730420E030E040E053
:1049A00050E00E949536882331F080917804815040
:1049B000833008F0A4C3B801882777FD8095982F2D
:1049C0000E9437377B018C016093740470937504E7
:1049D000809376049093770420E030E040E050E04C
:1049E0000E94953688230CF08AC3C801B70120E0E5
:1049F00030E044EB53E40E94CF356093740470932D
:104A00007504809376049093770479C38091C504EC
:104A1000809379048091C70480937A048091C604BE
:104A200080937B0422C38BEB94E060E070E00E94F3
:104A3000B40720E030E048EC52E40E946A380E945B
:104A4000043770937D0460937C04693C710520F009
:104A500010927D0410927C048091DF049091E00418
:104A600090937F0480937E048091E1049091E2040E
:104A700090938104809380048091EB049091EC04E6
:104A80009A8389839093400380933F03EEC26091A1
:104A9000C5047091C6048091C7049091C8040E9417
:104AA000373720E836E948E15BE40E949C366093A2
:104AB00070047093710480937204909373046091F6
:104AC000C9047091CA048091CB049091CC04D301A5
:104AD0006C9311967C93119712968C931297139660
:104AE0009C930E94373720E836E948E15BE40E9456
:104AF0009C36609382047093830480938404909323
:104B000085048091EA04809386048091E90480936F
:104B10008704809178048150833028F560916E0479
:104B200070916F04882777FD8095982F0E94373702
:104B30007B018C01609374047093750480937604F8
:104B40009093770420E030E040E050E00E949536FA
:104B50008823BCF4C801B70120E030E044EB53E403
:104B60000E94CF3506C08BEB94E060E170E00E94BC
:104B7000B4076093740470937504809376049093E3
:104B800077048BEB94E068E070E00E94B4076093D8
:104B900088047093890480938A0490938B048BEB30
:104BA00094E064E170E00E94B40760938C04709319
:104BB0008D0480938E0490938F0457C28BEB94E006
:104BC00068E070E00E94B40790586093900470937E
:104BD0009104809392049093930447C28BEB94E0EA
:104BE00060E070E00E94B4076093940470939504B1
:104BF00080939604909397048BEB94E064E070E0CC
:104C00000E94B40720E030E048EC52E40E946A3889
:104C10000E94043770939904609398048BEB94E09E
:104C200064E170E00E94B4070E94043770939B0413
:104C300060939A04A0909404B0909504C090960458
:104C4000D0909704809041039090420342E8E42E74
:104C500043E0F42E06E010E0C601B501F701208123
:104C60003181428153810E945F38181644F408153F
:104C700019052CF0109342030093410309C0015021
:104C800010408CEF9FEFE80EF91E0130110521F75F
:104C900080919C048823C9F4992460914103709108
:104CA0004203882777FD8095982F0E9437379B0114
:104CB000AC01C601B5010E949C3621EE3AE748E8F6
:104CC00050E40E945F38181614F49924939490923B
:104CD0009C04992069F088E49DE7A5EEB2E48093F6
:104CE000430390934403A0934503B093460308C045
:104CF000209243033092440340924503509246036E
:104D00006091410370914203882777FD8095982F29
:104D10000E9437379B01AC01C601B5010E949C3649
:104D20002CEF39EA4DE550E40E94CE352091430343
:104D30003091440340914503509146030E946A38E4
:104D40007B018C0120E030E040E050E00E9495368D
:104D500088235CF40F2EF0E0EF2EF0E0FF2EF0E061
:104D60000F2FF0E01F2FF02D14C0C801B70120E075
:104D700030E046EC52E40E945F38181654F40F2ECF
:104D8000F0E0EF2EF0E0FF2EF6EC0F2FF2E41F2FF5
:104D9000F02DC801B7010E940937E62FF0E09920F5
:104DA00021F0EA52FF4F649103C0E65CFE4F64912C
:104DB00070E080E090E00E9435377B018C01A0908C
:104DC0004703B0904803C0904903D0904A03C601FE
:104DD000B50120E030E040E85FEB0E949536882383
:104DE00049F4E0924703F09248030093490310937B
:104DF0004A0339C0C801B701A60195010E94953642
:104E000018168CF0C801B7012DEC3CEC4CE45DE3C6
:104E10000E946A387B018C01C601B50123E333E3AC
:104E200043E75FE310C0C801B7012AE939E949E95E
:104E30005EE30E946A387B018C01C601B50123E361
:104E400033E343E35FE30E946A389B01AC01C8018E
:104E5000B7010E94CF356093470370934803809356
:104E6000490390934A0360919A0470919B0480E0F7
:104E700090E00E9435377B018C0160914B0370916B
:104E80004C03882777FD8095982F0E9437379B0128
:104E9000AC01C801B7010E949C369B01AC0160E0E7
:104EA00070E080E89FE30E94CE3520E030E048ECDF
:104EB00052E40E946A3860934D0370934E038093CE
:104EC0004F039093500320E030E046EC52E40E9400
:104ED0005F38181664F480E090E0A6ECB2E48093AA
:104EE0004D0390934E03A0934F03B09350036091F2
:104EF0004D0370914E0380914F039091500320E039
:104F000030E040E050E00E94953688230CF0ADC0C0
:104F100080E090E0A0E0B0E080934D0390934E03DA
:104F2000A0934F03B0935003A0C08BEB94E060E0DC
:104F300070E00E94B4070E940437882777FD8095AF
:104F4000982F0E9437377B018C0160939D047093EA
:104F50009E0480939F049093A004609151037091EC
:104F60005203809153039091540320E03CE34CE1C1
:104F700056EC0E949536882341F4E0925103F0925A
:104F8000520300935303109354038BEB94E064E0BB
:104F900070E00E94B4076093A1047093A204809310
:104FA000A3049093A40461C08BEB94E060E070E0F4
:104FB0000E94B4076093A5047093A6048093A7048D
:104FC0009093A8048BEB94E064E070E00E94B40737
:104FD0006093A9047093AA048093AB049093AC04EB
:104FE00044C080912B058093AD048091DF048093B1
:104FF000AE043BC08091C5049091C6049A83898316
:1050000001969093B0048093AF042FC08BEB94E093
:105010006CE070E00E94B4076093B1047093B20436
:105020008093B3049093B4048BEB94E060E170E060
:105030000E94B4076093B5047093B6048093B704DC
:105040009093B80412C02091CF042093B90490919A
:10505000D3049093BA048091D10480937804913062
:1050600009F04DC0213009F04AC086E394E00E9467
:10507000922C1816190654F586E394E00E94C22C6F
:10508000182F80916504882309F0C2CBA1CB109220
:105090006504DD24D3948D2D90E026960FB6F89408
:1050A000DEBF0FBECDBFCF91DF911F910F91FF905B
:1050B000EF90DF90CF90BF90AF909F908F907F90B8
:1050C0006F905F904F903F902F900895DD24E09077
:1050D0006604F0906704009168041091690480E10F
:1050E00097E2A0E0B0E0E80EF91E0A1F1B1F0E9425
:1050F0006034E616F7060807190748F2CCCFDD241E
:10510000D394E5CF86E061E00E944135089586E0C2
:1051100061E00E94023586E394E040E051EE60E0F9
:1051200070E00E94302C0E94822883E594E00E9467
:105130006E050E94F71D68EE73E080E090E00E942B
:105140006E340E94131E10920D0607C00E943C1E72
:1051500080910D068F5F80930D0680910D06823041
:10516000A8F310920D0686E394E00E940F2D68EBE1
:105170007BE080E090E00E946E3483E594E00E9442
:105180002F050E9460346093260670932706809353
:1051900028069093290608952F923F924F925F928E
:1051A0006F927F928F929F92AF92BF92CF92DF9237
:1051B000EF92FF920F931F93DF93CF9300D000D015
:1051C000CDB7DEB780910506882309F438C2E09098
:1051D0001506F09016060091170610911806C801E2
:1051E000B7019F7725E33AEF4EE85CE30E946A3807
:1051F0000E94993669837A838B839C83C801B701A7
:1052000020917004309171044091720450917304A4
:105210000E94CE359F7720EC3BE649ED57E40E9493
:105220006A385B016C016091190670911A068091D1
:105230001B0690911C0620918204309183044091BA
:105240008404509185040E94CE359F7720EC3BE684
:1052500049ED57E40E946A3829813A814B815C818B
:105260000E946A387B018C01C601B501A601950137
:105270000E946A385B016C01C801B701A80197015F
:105280000E946A389B01AC01C601B5010E94CF356E
:105290000E94F1380E9404376093C9057093CA05D3
:1052A0008093CB059093CC058091210690912206A6
:1052B000892B09F4E9C06091D1057091D20580E095
:1052C00090E00E9435372DEC3CEC4CE45FE30E940B
:1052D0006A383B014C0160914B0370914C03882765
:1052E00077FD8095982F0E9437372DEC3CEC4CE4ED
:1052F0005FE30E946A387B018C0160919A0470918F
:105300009B0480E090E00E9435379B01AC01C8010E
:10531000B7010E94CE355B016C010E9460347B01B5
:105320008C01609121067091220680E090E00E943D
:1053300035371B012C0180911D0690911E06A0910E
:105340001F06B0912006E81AF90A0A0B1B0BC801C8
:10535000B7010E943537A20191010E949C369B0142
:10536000AC01C601B5010E946A3820E030E04AE78E
:1053700054E40E949C362DEC3CEC4CE45EE30E942D
:105380006A389B01AC01C401B3010E94CF350E9471
:1053900004377093D2056093D10560919A0470919F
:1053A0009B0480E090E00E9435375B016C016091C6
:1053B0004B0370914C03882777FD8095982F0E94AE
:1053C00037372DEC3CEC4CE45FE30E946A387B01FC
:1053D0008C01C601B501A80197010E945F3818161B
:1053E00024F41092D2051092D1058091D1059091AC
:1053F000D2058057974130F08FE697E19093D20520
:105400008093D105C801B701A60195010E94CE3550
:105410007B018C016091E0057091E1058091E205CE
:105420009091E305A20191010E949C369B01AC0181
:10543000C801B7010E946A387B018C016091C905DF
:105440007091CA058091CB059091CC050E943737A9
:105450009B01AC01C801B7010E94CE3520E030E0CD
:1054600040E05FE30E946A380E9404377093F205BF
:105470006093F105615F784D7CF481EF98ED909336
:10548000F2058093F10508C01092D2051092D10563
:105490001092F2051092F1056091880470918904D0
:1054A00080918A0490918B042091E8053091E90560
:1054B0004091EA055091EB050E94CE355B016C01ED
:1054C0002091C9053091CA054091CB055091CC057A
:1054D000CA01B9010E9490390E9437377B018C01C3
:1054E000C601B501A60195010E946A389B01AC0175
:1054F000C801B7010E94CF350E94F1380E940437DD
:105500006093ED057093EE058093EF059093F005A1
:1055100060911506709116068091170690911806F5
:105520002091700430917104409172045091730481
:105530000E94CE357B018C0160E070E080E89FE343
:1055400029813A814B815C810E949C369B01AC0190
:10555000C801B7010E946A387B018C01609119066D
:1055600070911A0680911B0690911C06209182046E
:105570003091830440918404509185040E94CE357B
:105580009B01AC015058C801B7010E94423620EE81
:105590003EE245E652E40E946A3820E030E044EB07
:1055A00052E40E94CF350E9404379B01AC0197FF63
:1055B00004C028593E4F4F4F5F4FCA01B901645B89
:1055C00070408040904097FF06C0CA01B9016C54FA
:1055D0007F4F8F4F9F4F0E94373720917404309137
:1055E000750440917604509177040E94CE350E9454
:1055F000043797FF04C068597E4F8F4F9F4F0E941A
:10560000373720E030E044EB53E40E949C3620E042
:1056100030E040E851E40E946A380E94CD3820E032
:1056200030E040E85FE30E94CF350E940937609385
:10563000EC05613108F47CC01092EC0579C08091D2
:105640008704823008F474C080918604853008F4A1
:105650006FC0D0902A06FDE1FD1508F469C0E09006
:105660008804F090890400918A0410918B04609161
:105670002B0670912C0680912D0690912E06A80184
:1056800097010E94CE359F7720E030E040E05FE355
:105690000E945F3818165CF410922A06E0922B06DE
:1056A000F0922C0600932D0610932E0641C08D2DEE
:1056B0008F5F80932A068E31D9F580917004909186
:1056C0007104A0917204B0917304809315069093B5
:1056D0001606A0931706B093180680918204909145
:1056E0008304A0918404B09185048093190690935B
:1056F0001A06A0931B06B0931C06E092E805F092F0
:10570000E9050093EA051093EB0580919D049091C3
:105710009E04A0919F04B091A004809351039093A4
:105720005203A0935303B093540381E08093050682
:105730000F900F900F900F90CF91DF911F910F91CD
:10574000FF90EF90DF90CF90BF90AF909F908F90A1
:105750007F906F905F904F903F902F9008950E94A0
:1057600070140E94D00783E594E00E94CC280E9428
:10577000381A0895EF92FF920F931F930E94C1234E
:10578000892BB9F4E0902606F090270600912806B0
:105790001091290684E690E0A0E0B0E0E80EF91E42
:1057A0000A1F1B1F0E946034E616F7060807190738
:1057B00060F40E94603460932606709327068093FD
:1057C0002806909329060E94AF2B1F910F91FF90FE
:1057D000EF9008956EBD0DB407FEFDCF8EB5089510
:1057E0008DE061E00E9402358BE061E00E940235AD
:1057F0008CE060E00E9402358AE061E00E940235A0
:105800001CBC80E58CBD8DB58EB5089587E396E010
:105810000E94F02B08958FEF9FE70895DF93CF93B9
:10582000CDB7DEB7FE0139968D819E8161E04F8153
:1058300058859F010E94AF2ECF91DF910895DF938D
:10584000CF93CDB7DEB7FE0139968D819E8160E0A2
:105850004F8158859F010E94AF2ECF91DF9108950F
:105860000F931F93DC01ED91FC910288F389E02DE9
:1058700020E030E000E010E009951F910F910895BD
:105880008F92AF92CF92EF92FF920F931F93DF937D
:10589000CF93CDB7DEB7FC011382128288EE93E07E
:1058A000A0E0B0E084839583A683B7838EEA93E07B
:1058B000918380835587448737872687118B008B98
:1058C000F38AE28AC48AA58A868A70E0CB0123E043
:1058D000880F991F2A95E1F79C01285C394F308F7A
:1058E000278B805C994F928F818F81E090E002C07E
:1058F000880F991F6A95E2F720914806282B20937C
:105900004806CF0140E051EE60E070E00E94302C8C
:10591000CF91DF911F910F91FF90EF90CF90AF90BB
:105920008F900895FC01838D882319F42FEF3FEFAA
:105930000DC00788F08DE02D208131818281938117
:10594000281B390B8481958128233923C9010895A7
:10595000FC01838D882319F42FEF3FEF11C0018CD8
:10596000F28DE02D2081318182819381281B390BBA
:105970002095309584819581282339232F5F3F4FCF
:10598000C9010895FC01838D882361F0A789B08D3A
:105990002D913C91119712968D919C9113972817F8
:1059A000390721F44FEF5FEFCA01089512968D91E8
:1059B0009C9113971696ED91FC911797E80FF91F9C
:1059C000408112968D919C911397019614962D917A
:1059D0003C9115978223932313969C938E93129751
:1059E00050E0E2CFFC01838D882351F00788F08DD1
:1059F000E02D20813181828193812817390721F49C
:105A00002FEF3FEFC9010895828193810680F781CE
:105A1000E02DE80FF91F8081282F30E0F3CFDC0163
:105A20005796ED91FC915897828193819183808361
:105A30005996ED91FC915A9780819181938382834D
:105A40000895DC015B968C915B978823A9F15996A8
:105A5000ED91FC915A97208131812F5F3F4F8481D6
:105A60009581282339235C968C915C97882329F0B3
:105A70008281938128173907F9F082819381281751
:105A80003907D9F3808191810680F781E02DE80FF5
:105A9000F91F60835996ED91FC915A9731832083C9
:105AA0005296ED91FC915397808156969C91892B4B
:105AB000808321E030E002C020E030E0C901089599
:105AC000CF93DF93EC011B821A828A819B81998399
:105AD00088831D821C828E819F81009721F00E9405
