:100000000C943B020C9463020C9463020C94630204
:100010000C9463020C9463020C9463020C946302CC
:100020000C9463020C9463020C9463020C946302BC
:100030000C9463020C9463020C9463020C946302AC
:100040000C9460340C9463020C9478050C94B40501
:100050000C9463020C9463020C9463020C9463028C
:100060000C9463020C946302084AD73B3BCE016EAA
:1000700084BCBFFDC12F3D6C74319ABD56833DDAFF
:100080003D00C77F11BED9E4BB4C3E916BAAAABE0E
:10009000000000803F05A84CCDB2D44EB93836A937
:1000A000020C50B9918688083CA6AAAA2ABE000074
:1000B00000803F0664EC1B3C04BC163E3BE5B93CAB
:1000C000C93C37C29E5A3D660498083EEA69AAAA0E
:1000D0003E000000803F0000000000000000000023
:1000E000000002070A0C0D0E101214151617191A2B
:1000F0001B1E2126282A2B2D2F31333437393C3D26
:100100003E3F4041424446494A4B4C4D4E4F4F5072
:10011000515152525354545555565758595A5B5C85
:100120005C5D5D5E5F5F5F606060606061616161DA
:100130006161626262626262626300070E091C1B97
:100140001215383F363124232A2D70777E796C6B57
:100150006265484F464154535A5DE0E7EEE9FCFBC7
:10016000F2F5D8DFD6D1C4C3CACD90979E998C8BB7
:100170008285A8AFA6A1B4B3BABDC7C0C9CEDBDC27
:10018000D5D2FFF8F1F6E3E4EDEAB7B0B9BEABAC17
:10019000A5A28F88818693949D9A2720292E3B3C87
:1001A00035321F18111603040D0A5750595E4B4C77
:1001B00045426F68616673747D7A898E87809592F7
:1001C0009B9CB1B6BFB8ADAAA3A4F9FEF7F0E5E2D7
:1001D000EBECC1C6CFC8DDDAD3D4696E6760757247
:1001E0007B7C51565F584D4A4344191E1710050237
:1001F0000B0C21262F283D3A33344E4940475255A7
:100200005C5B7671787F6A6D64633E393037222596
:100210002C2B0601080F1A1D1413AEA9A0A7B2B506
:10022000BCBB9691989F8A8D8483DED9D0D7C2C5F6
:10023000CCCBE6E1E8EFFAFDF4F32020BF0020BFCD
:1002400000BF007C202020202020202020202020F3
:100250002020202020202000C82020202020202016
:100260002020202020C900C820202020202020205D
:1002700020202020C97C00D82020202020202020E1
:1002800020202020D97C00C82020202020202020D1
:1002900020202020C97C00C82020202020202020D1
:1002A00020202020C97C006D696E6F706F73642000
:1002B0006A646C20322E3533006C69706F20626185
:1002C00074742063656C6C7C7C7761726E696E6798
:1002D000206C6576656C3A200062617474206361FD
:1002E0007061636974793A003473206C69696F6E68
:1002F000006C69706F20202020006261747420748B
:100300007970653A20007365747570207363726547
:10031000656E7C7C7C0000407A10F35A00A0724E1F
:1003200018090010A5D4E80000E87648170000E49A
:100330000B54020000CA9A3B000000E1F5050000E2
:1003400080969800000040420F000000A086010047
:100350000000102700000000E80300000000640017
:10036000000000000A000000000001000000000082
:100370002C76D888DC674F0823DFC1DFAE59E1B1A6
:10038000B796E5E3E453C63AE651997696E8E6C2B5
:100390008426EB898C9B62ED407C6FFCEFBC9C9FBC
:1003A00040F2BAA56FA5F490055A2AF75C936B6CDE
:1003B000F9676DC11BFCE0E40D47FEF520E6B500D2
:1003C000D0ED902E0300943577050080841E080040
:1003D00000204E0A000000C80C333333330F986EF0
:1003E00012831141EF8D2114893BE65516CFFEE6AD
:1003F000DB18D1844B381BF77C1D901DA4BBE42473
:10040000203284725E228100C9F124ECA1E53D27EF
:100410006E616E00696E6600000000002400270017
:100420002A0000000000250028002B00000000002A
:100430002300260029000404040404040404020226
:100440000202020203030303030301020408102053
:10045000408001020408102001020408102000005E
:100460000007000201000003040600000000000075
:10047000000024074E2C11241FBECFEFD8E0DEBFB2
:10048000CDBF13E0A0E0B1E0E6ECF4E702C00590D8
:100490000D92AA3EB107D9F716E0AAEEB3E001C06B
:1004A0001D92A038B107E1F714E0C6E7D4E004C01C
:1004B0002297FE010E945D3AC237D107C9F70E9418
:1004C000DD350C94613A0C940000283008F027E0E8
:1004D0003327DA01990F311D87FD91600096610580
:1004E000710539F432602E5F3D9330E32A95E1F7D0
:1004F00008959F3F30F080387105610509F03C5F39
:100500003C5F3D93913008F08068911DDF93CF935D
:100510001F930F93FF92EF92192F987F9695E92FD3
:1005200096959695E90FFF27E059FC4F99273327B9
:10053000EE24FF24A701E70105900894079428F40E
:10054000360FE71EF81E491F511D660F771F881FC3
:10055000991F0694A1F70590079428F4E70EF81E5A
:10056000491F561FC11D770F881F991F661F0694CC
:10057000A1F70590079428F4F80E491F561FC71FCE
:10058000D11D880F991F661F771F0694A1F705904C
:10059000079420F4490F561FC71FD81F990F661FD5
:1005A000771F881F0694A9F784911095177041F062
:1005B000D695C79557954795F794E7941A95C1F73F
:1005C000E6E1F3E068941590159135916591959168
:1005D00005907FE27395E118F10A430B560BC90BA6
:1005E000D009C0F7E10CF11E431F561FC91FD01DD3
:1005F0007EF4703311F48A95E6CFE894015030F020
:10060000080F0AF40027021708F4202F2395022F61
:100610007A3328F079E37D932A95E9F710C07D932A
:100620002A9589F6069497956795379517951794A7
:10063000E118F10A430B560BC90BD00998F023952A
:100640007E9173957A3308F070E37C932013B8F7AA
:100650007E9170617D9330F0839571E37D9370E3BB
:100660002A95E1F71124EF90FF900F911F91CF9100
:10067000DF91992787FD90950895FA01AA272830E0
:1006800051F1203181F1E8946F936E7F6E5F7F4F5F
:100690008F4F9F4FAF4FB1E03ED0B4E03CD0670FDB
:1006A000781F891F9A1FA11D680F791F8A1F911D2E
:1006B000A11D6A0F711D811D911DA11D20D009F47E
:1006C00068943F912AE0269F11243019305D3193C0
:1006D000DEF6CF010895462F4770405D4193B3E0A9
:1006E0000FD0C9F7F6CF462F4F70405D4A3318F050
:1006F000495D31FD4052419302D0A9F7EACFB4E001
:10070000A6959795879577956795BA95C9F70097B8
:100710006105710508959B01AC010A2E0694579559
:10072000479537952795BA95C9F7620F731F841FB0
:10073000951FA01D0895FC010590615070400110A7
:10074000D8F7809590958E0F9F1F0895FC016150FA
:10075000704001900110D8F7809590958E0F9F1FE3
:100760000895FB019F01E8944230C4F04532B4F48F
:100770004A3029F497FB1EF4909581959F4F642F82
:1007800077270E94F739805D8A330CF0895D819369
:10079000CB010097A1F716F45DE251931082C901D5
:1007A0000C94D203DC01FC01672F71917723E1F7F0
:1007B000329704C07C916D9370836291AE17BF072E
:1007C000C8F30895FC011382128288EE93E0A0E042
:1007D000B0E084839583A683B7838CE893E091830C
:1007E00080830895FC018089803419F421E030E091
:1007F00002C020E030E0C9010895FC01818990E049
:10080000089580E090E0089580E090E0089580E011
:1008100090E0089508951F93CF93DF93EC01162F76
:1008200086E060E00E94893580E696E060E00E9404
:10083000322C112319F0113059F404C080E696E0EF
:10084000688904C068896C6180E696E00E94322C59
:1008500086E061E00E948935DF91CF911F91089574
:10086000EF92FF920F931F937C0100E616E0C80100
:1008700067E00E94322CC8016FEF0E94322C86E0A4
:1008800061E00E948935F70187858F5F87871F9117
:100890000F91FF90EF900895EF92FF920F931F93A7
:1008A000FC01E7848EE1E89E700111248685E80E44
:1008B000F11C86E060E00E94893500E616E0C80180
:1008C00064E00E94322CC80163E00E94322CC8010F
:1008D00065E00E94322CC8016F2D0E94322CC801A5
:1008E00066E00E94322CC8016E2D0E94322C1F91AE
:1008F0000F91FF90EF900895FC016487458766870C
:1009000047870E944C0408951F93CF93DF93EC0117
:10091000162F6C3731F40E943004CE010E944C0433
:100920000AC080E696E067E00E94322C80E696E0FE
:10093000612F0E94322C81E090E0DF91CF911F91D6
:100940000895EF92FF920F931F938EE1489F7001DD
:100950001124E60EF11C86E060E00E94893500E675
:1009600016E0C80165E00E94322CC8016F2D0E947C
:10097000322CC80166E00E94322CC8016E2D0E9404
:10098000322C1F910F91FF90EF9008950F931F93BA
:1009900086E060E00E94893500E616E0C80164E068
:1009A0000E94322CC80164E00E94322C61E070E0A9
:1009B00080E090E00E94B63486E061E00E948935D4
:1009C0001F910F9108951F93CF93DF93EC01188A25
:1009D00016E0198B82E796E060E973E00E94183315
:1009E000813049F480E4888B88E0898B86E060E080
:1009F0000E94893502C0188A198B86E060E00E9447
:100A00008935DF91CF911F9108950F931F93CF9355
:100A1000DF93EC0186E061E00E944A3582E060E00D
:100A20000E944A3582E061E00E948935CE010E9431
:100A3000E30486E060E00E94893580E696E06CEE93
:100A40000E94322C80E696E06FEF0E94322C182F25
:100A500080E696E060E00E94322C6889626080E661
:100A600096E00E94322C62E370E080E090E00E9409
:100A7000B63480E696E06CE60E94322C1F7E80E65B
:100A800096E0612F0E94322C8889803419F00DE0A5
:100A900010E002C000E110E01092EB031092EA03B4
:100AA00017C06091EA037091EB03605F80E696E007
:100AB0000E94322C80E696E069E00E94322C809100
:100AC000EA039091EB0301969093EB038093EA0382
:100AD0008091EA039091EB038017910714F3CE0104
:100AE00061E00E940B04DF91CF911F910F91089557
:100AF0001F920F920FB60F9211242F933F934F9393
:100B00008F939F93EF93FF934091C60020916106CE
:100B1000309162062F5F3F4F809165069091660687
:100B2000282339238091630690916406281739079A
:100B300079F08091610690916206E0916706F091EC
:100B40006806E80FF91F4083309362062093610620
:100B5000FF91EF919F918F914F913F912F910F9026
:100B60000FBE0F901F9018951F920F920FB60F9205
:100B700011242F933F938F939F93EF93FF93209193
:100B80006B0630916C068091690690916A06281771
:100B90003907E9F080916B0690916C06E0916F0641
:100BA000F0917006E80FF91F80818093C600809154
:100BB0006B0690916C06019620916D0630916E0641
:100BC0008223932390936C0680936B0610C0209130
:100BD000690630916A0680916B0690916C06281721
:100BE000390729F48091C1008F7D8093C100FF9166
:100BF000EF919F918F913F912F910F900FBE0F908A
:100C00001F901895CF93DF93482FEB018091F30548
:100C1000833009F45FC0843028F48130D1F0823011
:100C200068F50AC0853009F4D4C0853008F4AAC03C
:100C3000863009F0F4C0EBC04C3309F0F0C081E01D
:100C40008093F3054883E6E7F1E0E491E093F20551
:100C5000E6C0842F90E0E091F205F0E0E827F92764
:100C6000E65CFE4FE491E093F205887F90708097F8
:100C700041F582E08093F305498329C0242F30E0B9
:100C8000E091F205F0E0E227F327E65CFE4FE49105
:100C9000E093F2058091F1058F5F8093F10582303A
:100CA00018F43B832A83BBC0922F88272A813B817B
:100CB000820F931F9B838A830A978F3F910521F0B0
:100CC00018F01092F305ABC083E08093F305109207
:100CD000F105A5C0E42FF0E08091F20590E0E8274F
:100CE000F927E65CFE4FE491E093F2056091F1058F
:100CF0006F5F6093F105623089F0633020F46130FA
:100D000009F08DC006C0633091F0643009F087C0EF
:100D100022C0842F90E0A0E0B0E018C0242F30E083
:100D200040E050E0542F432F322F222707C0242FBA
:100D300030E040E050E0A901332722278C819D81DB
:100D4000AE81BF81820F931FA41FB51F8C839D832B
:100D5000AE83BF8364C0242F30E040E050E0522FC8
:100D60004427332722278C819D81AE81BF81820F4A
:100D7000931FA41FB51F8C839D83AE83BF83609395
:100D8000F305A5CF242F30E0E091F205F0E0E22753
:100D9000F327E65CFE4FE491E093F2056091F105E4
:100DA0006F5F6093F105613019F06230C1F503C0E7
:100DB0003987288734C0922F882728853985280FBE
:100DC000391F398728878A819B810A97F1F085E04E
:100DD0007CCFE42FF0E08091F20590E0E827F9273E
:100DE000E65CFE4FE491E093F2052091F1052F5F60
:100DF0002093F10530E0FB01E20FF31F41878A8168
:100E00009B810A972817390750F086E05ECFC75FAD
:100E1000DE4F4883C950D14087E08093F30580912D
:100E2000F305873069F41092F305C75FDE4F9091A8
:100E3000F2058881C950D140981711F48A8101C008
:100E400080E0DF91CF9108958F92AF92CF92EF9291
:100E5000FF920F931F938EE594E060E045EC50E025
:100E600024EC30E000EC10E0B1ECEB2EF12CCC24C3
:100E7000C394A8E9AA2EF0E28F2E0E94882C8BE75B
:100E800094E00E94E2031F910F91FF90EF90CF90AA
:100E9000AF908F900895DF93CF9300D000D0CDB75F
:100EA000DEB7FB01E80FF91F6285838594852585F0
:100EB00069838A839B832C83492F5C81782FCA01A5
:100EC0000F900F900F900F90CF91DF9108955F9248
:100ED0006F927F928F929F92AF92BF92CF92DF924A
:100EE000EF92FF920F931F93DF93CF9300D000D028
:100EF00000D0CDB7DEB783E0682E712C6C0E7D1E5E
:100F00000DE9502EA9C40E94A83460527E4480404E
:100F1000904098F40E94A8346958734180409040F2
:100F200060F01A3011F01D3031F48091F0058F5FC0
:100F30008093F00502C01092F005812F66EE74E0F8
:100F40000E940206882309F487C48091EA049091E4
:100F5000EB04A091EC04B091ED048A37E6EF9E0714
:100F6000E1EFAE07EDE9BE0709F457C18B37F6EFA5
:100F70009F07F1EFAF07FDE9BF0708F03AC08832DD
:100F80002EE5920722EDA20724E2B20709F4DDC0A4
:100F90008932EEE59E07E2EDAE07E4E2BE0780F49B
:100FA0008C39F1EB9F07F5EAAF07FEE1BF0709F4C3
:100FB00009C48C5A9A4CA64EB04209F04DC42BC4B9
:100FC000863AEEE09E07E2E1AE07E8E4BE0709F4E8
:100FD00094C38835F6EB9F07FDEFAF07FAE4BF0730
:100FE00009F4CAC382559342A649B64209F034C4F3
:100FF000BBC18038E4E79E07E0E1AE07E4ECBE0742
:1010000009F4B0C08138F4E79F07F0E1AF07F4ECD2
:10101000BF0780F4863923EB920723EDA2072CEB60
:10102000B20709F4DBC38C569846A344B24C09F0CE
:1010300013C48AC18436F9ED9F07F0EEAF07F7EDD0
:10104000BF0781F0843727E3920724EDA2072EED36
:10105000B20709F4AEC388529F49A040B74C09F0CB
:10106000FBC3ECC30E94A83460938E0470938F047A
:10107000809390049093910483E080938D0486EE96
:1010800094E060E170E00E944B070E944C3770933F
:1010900093046093920486EE94E064E170E00E9411
:1010A0004B070E944C37709395046093940486EE2E
:1010B00094E068E170E00E944B070E944C378B017E
:1010C00070939704609396046091980470919904CA
:1010D00080919A0490919B0420E030E040E050E041
:1010E0000E94DD36882331F08091A0048150833046
:1010F00008F0F9C3B801882777FD8095982F0E94E2
:101100007F377B018C0160939C0470939D048093D6
:101110009E0490939F0420E030E040E050E00E9465
:10112000DD3688230CF0DFC3C801B70120E030E0D2
:1011300044EB53E40E94173660939C0470939D0423
:1011400080939E0490939F04CEC38091F00480937B
:10115000A1048091F2048093A2048091F104809311
:10116000A3047AC386EE94E060E070E00E944B072F
:1011700020E030E048EC52E40E94B2380E944C3744
:101180007093A5046093A404693C710520F010924B
:10119000A5041092A40480910A0590910B059093E8
:1011A000A7048093A60480910C0590910D0590935F
:1011B000A9048093A8048091160590911705909337
:1011C00064038093630360911C0570911D057A830D
:1011D0006983709366036093650380E090E00E94EA
:1011E0007D3720E030E04AEF54E40E94163620E0DC
:1011F00030E040E251E40E94E43620E030E040E09C
:101200005FE30E9416360E944C37609367036D3986
:101210000CF022C3509267031FC36091F0047091D9
:10122000F1048091F2049091F3040E947F3720E84A
:1012300036E948E15BE40E94E436609398047093D9
:10124000990480939A0490939B046091F4047091A4
:10125000F5048091F6049091F704D3016C931196F4
:101260007C93119712968C93129713969C930E94DD
:101270007F3720E836E948E15BE40E94E43660937A
:10128000AA047093AB048093AC049093AD04809156
:1012900015058093AE04809114058093AF0480916E
:1012A000A0048150833028F56091960470919704D2
:1012B000882777FD8095982F0E947F377B018C01CE
:1012C00060939C0470939D0480939E0490939F046C
:1012D00020E030E040E050E00E94DD368823BCF49E
:1012E000C801B70120E030E044EB53E40E94173618
:1012F00006C086EE94E060E170E00E944B076093C8
:101300009C0470939D0480939E0490939F0486EEAA
:1013100094E068E070E00E944B076093B004709323
:10132000B1048093B2049093B30486EE94E064E138
:1013300070E00E944B076093B4047093B5048093EF
:10134000B6049093B70488C286EE94E068E070E03B
:101350000E944B0790586093B8047093B90480932F
:10136000BA049093BB0478C286EE94E060E070E02B
:101370000E944B076093BC047093BD048093BE042D
:101380009093BF0486EE94E064E070E00E944B0707
:1013900020E030E048EC52E40E94B2380E944C3722
:1013A0007093C1046093C00486EE94E064E170E041
:1013B0000E944B070E944C377093C3046093C20491
:1013C00080916803882379F1A090BC04B090BD049B
:1013D000C090BE04D090BF048090690390906A03CF
:1013E0001AEAE12E13E0F12E06E010E0C601B50185
:1013F000F70120813181428153810E94A73818165C
:1014000044F4081519052CF010936A03009369033E
:1014100010C0015010408CEF9FEFE80EF91E013014
:10142000110521F706C084E090E090936A03809351
:101430006903809168032091690330916A038823CE
:1014400009F452C0B901882777FD8095982F0E9432
:101450007F379B01AC016091BC047091BD04809109
:10146000BE049091BF040E94E4362CEF39EA4DE5AA
:1014700050E40E94163627E834E149E053E40E9424
:10148000B2387B018C0120E030E040E050E00E9467
:10149000DD3688235CF40F2EF0E0EF2EF0E0FF2E17
:1014A000F0E00F2FF0E01F2FF02D14C0C801B7019E
:1014B00020E030E046EC52E40E94A738181654F4BD
:1014C0000F2EF0E0EF2EF0E0FF2EF6EC0F2FF2E4FF
:1014D0001F2FF02DC801B7010E945137E62FF0E011
:1014E000EA52FF4F64914CC0B901882777FD80957F
:1014F000982F0E947F379B01AC016091BC047091D2
:10150000BD048091BE049091BF040E94E43620E0A7
:1015100030E040E450E40E94163628E63FE249EB12
:1015200052E40E94B2387B018C0120E030E040E0C0
:1015300050E00E94DD3688235CF40F2EF0E0EF2EA1
:10154000F0E0FF2EF0E00F2FF0E01F2FF02D14C081
:10155000C801B70120E030E046EC52E40E94A73811
:10156000181654F40F2EF0E0EF2EF0E0FF2EF6ECFC
:101570000F2FF2E41F2FF02DC801B7010E94513741
:1015800070E080E090E00E947D377B018C01A090AC
:101590006B03B0906C03C0906D03D0906E03C601D6
:1015A000B50120E030E040E85FEB0E94DD368823A3
:1015B00049F4E0926B03F0926C0300936D03109377
:1015C0006E0339C0C801B701A60195010E94DD363E
:1015D00018168CF0C801B7012DEC3CEC4CE45DE32F
:1015E0000E94B2387B018C01C601B50123E333E3CD
:1015F00043E75FE310C0C801B7012AE939E949E9C7
:101600005EE30E94B2387B018C01C601B50123E381
:1016100033E343E35FE30E94B2389B01AC01C801AE
:10162000B7010E94173660936B0370936C0380932D
:101630006D0390936E036091C2047091C30480E0C7
:1016400090E00E947D377B018C0160916F03709167
:101650007003882777FD8095982F0E947F379B0124
:10166000AC01C801B7010E94E4369B01AC0160E007
:1016700070E080E89FE30E94163620E030E048ECFE
:1016800052E40E94B23860937103709372038093A6
:1016900073039093740320E030E046EC52E40E9420
:1016A000A738181664F480E090E0A6ECB2E48093CA
:1016B000710390937203A0937303B09374036091CA
:1016C000710370917203809173039091740320E011
:1016D00030E040E050E00E94DD3688230CF0BCC0D2
:1016E00080E090E0A0E0B0E08093710390937203FB
:1016F000A0937303B0937403AFC086EE94E060E0F0
:1017000070E00E944B070E944C37882777FD809538
:10171000982F0E947F377B018C016093C4047093E3
:10172000C5048093C6049093C704609175037091BB
:101730007603809177039091780320E03CE34CE1BD
:1017400056EC0E94DD36882341F4E0927503F09256
:101750007603009377031093780386EE94E064E0B9
:1017600070E00E944B076093C8047093C904809393
:10177000CA049093CB0470C086EE94E060E070E001
:101780000E944B076093CC047093CD048093CE04E9
:101790009093CF0486EE94E064E070E00E944B07E3
:1017A0006093D0047093D1048093D2049093D304B7
:1017B00053C0809156058093D40480910A0580938C
:1017C000D5044AC08091F0049091F1049A838983F2
:1017D00001969093D7048093D6043EC086EE94E0A1
:1017E0006CE070E00E944B076093D8047093D904BA
:1017F0008093DA049093DB0486EE94E060E170E07D
:101800000E944B076093DC047093DD048093DE0438
:101810009093DF0421C02091FA042093E00490917A
:10182000FE049093E1048091FC048093A004913025
:1018300009F059C0213009F056C00EC086EE94E080
:1018400060E070E00E944B076093E2047093E30451
:101850008093E4049093E5048EE594E00E94DA2CF2
:10186000181619063CF58EE594E00E940A2D182FF3
:1018700080918D04882309F060CB45CB10928D04B4
:10188000DD24D3948D2D90E026960FB6F894DEBF1C
:101890000FBECDBFCF91DF911F910F91FF90EF90C1
:1018A000DF90CF90BF90AF909F908F907F906F9080
:1018B0005F900895DD24E0908E04F0908F040091F5
:1018C00090041091910480E197E2A0E0B0E0E80E6E
:1018D000F91E0A1F1B1F0E94A834E616F706080708
:1018E000190760F2CFCFDD24D394E5CF60919C043B
:1018F00070919D0480919E0490919F0420E030E0BF
:1019000040E152E40E94B23820E030E044EB53E47E
:101910000E94E4360E9415390E944C379B012550E5
:10192000304037FF03C09B01215E3F4FAFEFB5E072
:10193000F901E255FC4F80818C932F5F3F4F243299
:10194000310514F020E030E0119686E0AA30B807A7
:1019500079F71C9208952F923F924F925F926F9267
:101960007F928F929F92AF92BF92CF92DF92EF922F
:10197000FF920F931F93DF93CF9300D000D000D03E
:10198000CDB7DEB7182F662E2091920430919304C4
:101990002A35310530F0C9018D549F4F89359105A5
:1019A000E8F437FF02C02D543F4FC90137FF03C091
:1019B000909581959F4F8A3191053CF024E4822EC9
:1019C000912C99ED292E312C1DC00A975CF18BE3E7
:1019D000882E912C02ED202E312C20C02B35310584
:1019E00014F0235B3040C90137FF03C09095819507
:1019F0009F4F8A31910554F0B6E58B2E912CACEDBA
:101A00002A2E312CF7E0AF2EB12C15C00A9754F0D6
:101A1000EDE48E2E912C74ED272E312C68E0A62E4D
:101A2000B12C09C055E0852E912C48E3242E312C91
:101A300039E0A32EB12C609194047091950488270D
:101A400077FD8095982F0E947F3727EA32E94BE295
:101A50005CEB0E94B2380E94863920E030E040EA18
:101A600050E40E94B23820E030E040E951E40E94A6
:101A7000B2380E94153920E030E044E352E40E947D
:101A800017360E944C37712E2EEBC22E2FEFD22E1E
:101A90009B01442737FD4095542F29833A834B837C
:101AA0005C839BE7492E94E0592E4AEF5FEF240EAA
:101AB000351E6091920470919304882777FD80957C
:101AC000982F0E947F3725E33AEF4EE85CE30E94AF
:101AD000B2380E9486397B018C01B601882777FDD8
:101AE0008095982F0E947F379B01AC01C801B701F8
:101AF0000E94B2387B018C0169817A818B819C8143
:101B00000E947F379B01AC01C801B7010E941736C4
:101B10000E944C379B01CB0101978A35910508F053
:101B200071C062E170E00E940B3A8B012F5F3F4F62
:101B3000AEEEBFEF6A9FC0016B9F900D7A9F900D34
:101B40001124820F931F62E070E00E940B3A6D83B4
:101B50007E83E62CE01A4E2D4C5F8BE794E0672DD8
:101B60000E94A10400D000D000D0EDB7FEB731969E
:101B7000ADB7BEB712965C924E92119720E031E05D
:101B8000338322838D819E81880D991D9583848363
:101B90000E94672C4DB75EB74A5F5F4F0FB6F8944F
:101BA0005EBF0FBE4DBF8D819E818A159B0554F18E
:101BB000043011053CF593E0E90EC201672D4E2D6E
:101BC0000E94A10400D000D000D0EDB7FEB731963E
:101BD000ADB7BEB712965C924E92119720E031E0FD
:101BE000338322834D815E81420D531D558344838F
:101BF0000E94672C8DB79EB706960FB6F8949EBFCD
:101C00000FBE8DBFACE0B0E0CA0EDB1E7394BEE425
:101C1000CB16D10409F04DCF26960FB6F894DEBF4F
:101C20000FBECDBFCF91DF911F910F91FF90EF902D
:101C3000DF90CF90BF90AF909F908F907F906F90EC
:101C40005F904F903F902F900895CF92DF92EF9248
:101C5000FF920F931F93823010F402E002C0082F0E
:101C6000000F6091F4057091F5058091F605909153
:101C7000F7050E947F376B017C0120E030E44CE1E6
:101C800056E40E94DD36202F30E04BE754E08823F5
:101C900034F58DB79EB70E970FB6F8949EBF0FBE62
:101CA0008DBFEDB7FEB73196ADB7BEB712965C9358
:101CB0004E93119783E091E09383828322573F4FA5
:101CC000358324832F5F3F4F37832683C086D18699
:101CD000E286F3868DE890E09587848734C08DB7DF
:101CE0009EB70E970FB6F8949EBF0FBE8DBF0DB76F
:101CF0001EB70F5F1F4FADB7BEB712965C934E93E2
:101D000011978FE091E0F8019383828322573F4F30
:101D1000358324832F5F3F4F37832683C701B60166
:101D200020E030E04AE754E40E94E436D8011896F7
:101D30006D937D938D939C931B978DEF90E01D96F3
:101D40009C938E931C970E94672CEDB7FEB73E962E
:101D50000FB6F894FEBF0FBEEDBF1F910F91FF901D
:101D6000EF90DF90CF900895CF93DF93AC01E09197
:101D7000A604F091A7042091F8053091F905C90156
:101D80008C599F4F8E179F071CF4EA01219609C0BA
:101D900024563040E217F30714F0EA0102C0EA01CA
:101DA0002197842F90E0C817D90729F082E796E0A1
:101DB0004C2F0E941F33CE01DF91CF910895CF9217
:101DC000DF92EF92FF920F931F93CF93DF937C01EB
:101DD0006B01EA0100D000D00BE714E0EDB7FEB7CD
:101DE0001283018383E492E0948383830E94562CC0
:101DF0000F900F900F900F90CA30D10581F0C4362C
:101E0000D10521F0C130D10519F512C000D000D0A4
:101E1000EDB7FEB71283018381E492E011C000D0D8
:101E200000D0EDB7FEB7128301838EE392E008C0C5
:101E300000D000D0EDB7FEB7128301838AE392E0B1
:101E4000948383830E94562C0F900F900F900F90D5
:101E50004091A6045091A7042091F8053091F9050E
:101E6000C9018C599F4F841795071CF4CE0DDF1DB7
:101E70000BC0245630404217530714F0E70116C038
:101E8000C7018C1B9D0BEC01CE15DF0579F082E7B5
:101E900096E0B6014C2F0E941F330894C11CD11C40
:101EA00082E796E0B6014D2F0E941F33CE01DF91ED
:101EB000CF911F910F91FF90EF90DF90CF900895F9
:101EC000CF92DF92EF92FF920F931F937C01D62E59
:101ED000C72E0BE714E0C8016E2D4D2D0E947C0427
:101EE00000D000D0EDB7FEB71283018387E992E0FE
:101EF000948383830E94562CEDB7FEB7128301832F
:101F000087E892E0948383830E94562CEDB7FEB756
:101F10001283018387E792E0948383830E94562C87
:101F2000EDB7FEB71283018387E692E09483838343
:101F30000E94562CEDB7FEB71283018388E592E02C
:101F4000948383830E94562C0F900F900F900F90D4
:101F5000C8010E943004C70101966D2D7C2D0E949E
:101F6000AB0C1F910F91FF90EF90DF90CF900895F1
:101F7000CF92DF92EF92FF920F931F93282F462F5D
:101F80000BE714E0C801622F0E947C04E090FA0580
:101F9000F090FB05C090FC05D090FD058DB79EB775
:101FA00044970FB6F8949EBF0FBE8DBFEDB7FEB736
:101FB0003196ADB7BEB712961C930E9311978BE175
:101FC00091E09383828383EB90E095838483C701C0
:101FD0006CE370E00E940B3ACB016CE370E00E946E
:101FE0000B3A978386832AE330E031872087C70145
:101FF0006CE370E00E940B3A9387828789EF90E050
:1020000095878487C6016CE370E00E94F739CB01A5
:102010006CE370E00E940B3A97878687318B208BA8
:10202000C6016CE370E00E94F739938B828B0E94AB
:10203000672C8DB79EB744960FB6F8949EBF0FBE1F
:102040008DBFC8010E9430041F910F91FF90EF9047
:10205000DF90CF9008950F931F93282F462F0BE703
:1020600014E0C801622F0E947C048DB79EB70C97C4
:102070000FB6F8949EBF0FBE8DBFEDB7FEB7319679
:10208000ADB7BEB712961C930E93119783E391E000
:102090009383828383EE90E0958384838091C80448
:1020A0009091C904A091CA04B091CB048683978310
:1020B000A087B18780EB90E0938782870E94672C8E
:1020C0008DB79EB70C960FB6F8949EBF0FBE8DBF0E
:1020D000C8010E9430041F910F9108950F931F9320
:1020E000282F462F0BE714E0C801622F0E947C04C2
:1020F0008DB79EB746970FB6F8949EBF0FBE8DBFA3
:10210000EDB7FEB73196ADB7BEB712961C930E93DE
:1021100011978DE391E09383828389EB90E095831F
:1021200084838091C2049091C3049783868382E85C
:1021300090E09187808787EB90E0938782878091FA
:102140006B0390916C03A0916D03B0916E03848733
:102150009587A687B78786EB90E0918B808B8091DF
:10216000710390917203A0917303B0917403828BF9
:10217000938BA48BB58B0E94672C8DB79EB7469628
:102180000FB6F8949EBF0FBE8DBFC8010E943004E9
:102190001F910F910895EF92FF920F931F93282F95
:1021A000462F3BE7E32E34E0F32EC701622F0E9457
:1021B0007C048DB79EB70C970FB6F8949EBF0FBEE8
:1021C0008DBF0DB71EB70F5F1F4FEDB7FEB7F28281
:1021D000E18285E591E0F8019383828384EE90E0CB
:1021E000958384836091C0047091C104882777FD32
:1021F0008095982F0E947F372AE037ED43E25CE319
:102200000E94B238F80166837783808791878FE8D0
:1022100090E0938782870E94672C8DB79EB70C96BB
:102220000FB6F8949EBF0FBE8DBFC7010E94300449
:102230001F910F91FF90EF900895CF92DF92EF9250
:10224000FF920F931F93282F462F8BE794E0622F66
:102250000E947C04C090BC04D090BD04E090BE04F9
:10226000F090BF04809168032091FE05829FC00119
:102270001124805D9E4F2091690330916A03829FF3
:10228000B001839F700D929F700D1124882777FDF8
:102290008095982F0E947F3720E030E048EC52E490
:1022A0000E94E4369B01AC01C701B6010E94DD36F5
:1022B000181614F428EB01C024EB8DB79EB70C97C9
:1022C0000FB6F8949EBF0FBE8DBFEDB7FEB7319627
:1022D0000BE714E0ADB7BEB712961C930E9311979F
:1022E00085E591E093838283822F992787FD9095DE
:1022F00095838483C682D782E086F1868EE890E05B
:10230000938782870E94672C8DB79EB70C960FB675
:10231000F8949EBF0FBE8DBFC8010E9430041F916C
:102320000F91FF90EF90DF90CF9008950F931F9340
:10233000282F462F8BE794E0622F0E947C04809127
:10234000A304882319F42FE531E057C0813019F434
:1023500023E631E052C0823019F427E631E04DC067
:10236000833019F42BE631E048C0843019F42FE6AD
:1023700031E043C0853019F423E731E03EC08630B8
:1023800019F427E731E039C0873019F42BE731E041
:1023900034C0883019F42FE731E02FC0893019F4A8
:1023A00023E831E02AC08A3019F427E831E025C05B
:1023B0008B3019F42BE831E020C08C3019F42FE871
:1023C00031E01BC08D3019F423E931E016C08E30A6
:1023D00019F427E931E011C08F3019F42BE931E00D
:1023E0000CC0803119F42FE931E007C0813119F0B8
:1023F00023EA31E002C024EA31E08150863030F433
:102400008091A204882311F044E001C040EE8DB712
:102410009EB708970FB6F8949EBF0FBE8DBFEDB75D
:10242000FEB731960BE714E0ADB7BEB712961C931A
:102430000E93119788EA91E093838283842F9927E2
:1024400087FD909595838483378326830E94672C2C
:102450008DB79EB708960FB6F8949EBF0FBE8DBF7E
:10246000C8010E9430041F910F9108950F931F938C
:10247000282F462F0BE714E0C801622F0E947C042E
:102480008DB79EB70A970FB6F8949EBF0FBE8DBF4B
:10249000EDB7FEB73196ADB7BEB712961C930E934B
:1024A00011978DEA91E09383828387E890E095838A
:1024B00084838091A4049091A5049783868385E208
:1024C00090E0918780870E94672C8DB79EB70A960F
:1024D0000FB6F8949EBF0FBE8DBFC8010E94300496
:1024E0001F910F9108950F931F93282F462F0BE7ED
:1024F00014E0C801622F0E947C048DB79EB7089734
:102500000FB6F8949EBF0FBE8DBFEDB7FEB73196E4
:10251000ADB7BEB712961C930E93119787EB91E05F
:10252000938382838091940490919504958384830E
:1025300081EB90E0978386830E94672C8DB79EB7CE
:1025400008960FB6F8949EBF0FBE8DBFC8010E94BB
:1025500030041F910F9108950F931F93282F462F3A
:102560000BE714E0C801622F0E947C048DB79EB770
:1025700008970FB6F8949EBF0FBE8DBFEDB7FEB79C
:102580003196ADB7BEB712961C930E93119787EB99
:1025900091E0938382838091920490919304958338
:1025A000848382EB90E0978386830E94672C8DB7AB
:1025B0009EB708960FB6F8949EBF0FBE8DBFC80198
:1025C0000E9430041F910F910895AF92BF92CF9255
:1025D000DF92EF92FF920F931F93B82EA62E0BE778
:1025E00014E0C8016B2D4A2D0E947C048DB79EB764
:1025F0000E970FB6F8949EBF0FBE8DBFEDB7FEB716
:102600003196ADB7BEB712961C930E9311978DEB12
:1026100091E09383828351EEC52ED12CD582C48262
:102620008091D404992787FD9095978386834CE801
:10263000E42EF12CF186E0868091D5048287138602
:102640008BE890E0958784870E94672C8DB79EB7B2
:102650000E960FB6F8949EBF0FBE8DBFC8010E94A4
:102660003004C8016B2D4A2D0E947C04ADB7BEB763
:102670001A970FB6F894BEBF0FBEADBFEDB7FEB749
:10268000319612961C930E9311978BEC91E09383E5
:102690008283D582C48280916703992787FD9095B4
:1026A00097838683F186E0860E94672C8DB79EB75C
:1026B0000A960FB6F8949EBF0FBE8DBFC8010E9448
:1026C00030041F910F91FF90EF90DF90CF90BF905B
:1026D000AF9008950F931F93282F462F0BE714E018
:1026E000C801622F0E947C048DB79EB742970FB637
:1026F000F8949EBF0FBE8DBFEDB7FEB73196ADB754
:10270000BEB712961C930E93119783ED91E09383BD
:10271000828384EE91E09583848380919C049091E0
:102720009D04A0919E04B0919F0486839783A08707
:10273000B18780EB90E09387828780ED90E095876A
:1027400084878FEF95E09787868781ED90E0918B66
:10275000808B0E94672C8DB79EB742960FB6F89477
:102760009EBF0FBE8DBFC8010E9430041F910F9104
:102770000895EF92FF920F931F93CF93DF93282F2B
:10278000462F8BE794E0622F0E947C04E090B8040F
:10279000F090B9040091BA041091BB04C801B701CC
:1027A00020E030E040E050E00E94A738181614F412
:1027B0002BE701C02DE78DB79EB70C970FB6F894A5
:1027C0009EBF0FBE8DBFCDB7DEB721968BE794E0DD
:1027D000EDB7FEB7928381838EEE91E09B838A836F
:1027E0002C831D82C801B70120E030E040E752E4AD
:1027F0000E94B2380E944C379B0177FF03C030958E
:1028000021953F4FB901882777FD8095982F0E9429
:102810007F376E837F83888799878FE790E09B87D8
:102820008A870E94672C8DB79EB70C960FB6F894D6
:102830009EBF0FBE8DBF8BE794E00E943004DF91F6
:10284000CF911F910F91FF90EF900895CF92DF925B
:10285000EF92FF920F931F93CF93DF93282F462F72
:10286000CBE7D4E0CE01622F0E947C04C0900B061F
:10287000D0900C06E0900D06F0900E06C701B60150
:102880000E944C37695E7340804090408CF18DB758
:102890009EB70C970FB6F8949EBF0FBE8DBF0DB7B5
:1028A0001EB70F5F1F4FADB7BEB71296DC93CE9326
:1028B000119785E591E0F801938382838EEF90E094
:1028C00095838483C701B60120E030E04AE754E4F1
:1028D0000E94E436D80116966D937D938D939C9358
:1028E00019978DEF90E01B969C938E931A9721C0B9
:1028F0008DB79EB70C970FB6F8949EBF0FBE8DBFD5
:10290000EDB7FEB73196ADB7BEB71296DC93CE9356
:10291000119788EF91E0938382838EEF90E0958307
:102920008483C682D782E086F1868DE890E0938723
:1029300082870E94672CEDB7FEB73C960FB6F894DD
:10294000FEBF0FBEEDBF8BE794E00E943004DF9125
:10295000CF911F910F91FF90EF90DF90CF9008954E
:10296000EF92FF920F931F93282F462F6BE7E62ECF
:1029700064E0F62EC701622F0E947C048DB79EB7DB
:102980000C970FB6F8949EBF0FBE8DBF0DB71EB744
:102990000F5F1F4FEDB7FEB7F282E18283E391E054
:1029A000F8019383828389EE90E09583848360911C
:1029B000B4047091B5048091B6049091B70426E6F2
:1029C00036E646E650E40E94B238F8016683778323
:1029D0008087918781E890E0938782870E94672CA7
:1029E0008DB79EB70C960FB6F8949EBF0FBE8DBFE5
:1029F000C7010E9430041F910F91FF90EF9008953E
:102A0000CF92DF92EF92FF920F931F93282F462FC2
:102A1000BBE7CB2EB4E0DB2EC601622F0E947C0404
:102A20006091B0047091B1048091B2049091B304AC
:102A30002DB73EB7245130400FB6F8943EBF0FBEBD
:102A40002DBF0DB71EB70F5F1F4FEDB7FEB7D28278
:102A5000C18222E032E0F8013383228325E830E0AE
:102A6000358324836683778380879187ADE8EA2E58
:102A7000F12CF386E28627EE30E03587248720911B
:102A80001706309118064091190650911A060E94B7
:102A90001636F80166877787808B918BF38AE28AF6
:102AA0000E94672C2DB73EB72C5E3F4F0FB6F894AF
:102AB0003EBF0FBE2DBFC6010E9430041F910F9173
:102AC000FF90EF90DF90CF900895EF92FF920F93D9
:102AD0001F93282F462F1BE7E12E14E0F12EC7018C
:102AE000622F0E947C048DB79EB70C970FB6F894A6
:102AF0009EBF0FBE8DBF0DB71EB70F5F1F4FEDB747
:102B0000FEB7F282E1828EEE91E0F8019383828338
:102B100086EE90E0958384836091C4047091C5042F
:102B20008091C6049091C70420917503309176037B
:102B300040917703509178030E941636F80166831E
:102B40007783808791878DE890E0938782870E94C2
:102B5000672C8DB79EB70C960FB6F8949EBF0FBE2C
:102B60008DBFC7010E9430041F910F91FF90EF901D
:102B700008950F931F93282F462F0BE714E0C801E9
:102B8000622F0E947C0480911B060E94250EC801C2
:102B90000E9430041F910F910895CF92DF92EF921F
:102BA000FF920F931F93CF93DF93282F462FCBE7EE
:102BB000D4E0CE01622F0E947C0460911C067091CB
:102BC0001D0680911E0690911F060E947F376B01A3
:102BD0007C0120E030E44CE156E40E94DD3688239D
:102BE00014F58DB79EB70C970FB6F8949EBF0FBE25
:102BF0008DBFEDB7FEB73196ADB7BEB71296DC9379
:102C0000CE9311978EEE91E09383828382E190E0E0
:102C100095838483C682D782E086F1868DE890E032
:102C20009387828730C08DB79EB70C970FB6F89404
:102C30009EBF0FBE8DBF0DB71EB70F5F1F4FADB745
:102C4000BEB71296DC93CE93119786E192E0F8011D
:102C50009383828382E190E095838483C701B601E8
:102C600020E030E04AE754E40E94E436D8011696AA
:102C70006D937D938D939C9319978DEF90E01B96A8
:102C80009C938E931A970E94672CEDB7FEB73C96E3
:102C90000FB6F894FEBF0FBEEDBF8BE794E00E9425
:102CA0003004DF91CF911F910F91FF90EF90DF9053
:102CB000CF9008956F927F928F929F92AF92BF9222
:102CC000CF92DF92EF92FF920F931F93CF93DF93F8
:102CD000282F462F8BE794E0622F0E947C04C0913E
:102CE0002006D0912106D7FF02C00AE801C007EFF5
:102CF0008090220690902306A0902406B09025068E
:102D00008091A4049091A504069708F05DC0C501C8
:102D1000B4010E944C3716161706180619060CF057
:102D200053C0C090B804D090B904E090BA04F090B9
:102D3000BB04C701B60120E030E040E050E00E9453
:102D4000DD3688230CF040C08091A3048730E0F585
:102D50006091750370917603809177039091780369
:102D60002091C4043091C5044091C6045091C70419
:102D70000E9416362091B4043091B5044091B604F7
:102D80005091B7040E94B238A70196010E94E43620
:102D90004B015C0120E83FE443EC57E40E94A73874
:102DA00018166CF44EE7742E0F2EF0E88F2EFFE409
:102DB0009F2EF3ECAF2EF7E4BF2EF02D02C03EE7BE
:102DC000732E2DE8622E04C09BEF792E8CEF682EB7
:102DD000BE01882777FD8095982F0E947F376B0171
:102DE0007C010E944C374BE754E0202F332727FD0E
:102DF00030956051774280409040CCF1EDB7FEB7FE
:102E000074970FB6F894FEBF0FBEEDBF0DB71EB797
:102E10000F5F1F4F5283418380E292E0D8011396E7
:102E20009C938E93129715963C932E931497C701FB
:102E3000B60120E030E04AE754E40E94E436F801AD
:102E400066837783808791878DEF90E09387828771
:102E500074861586D8011E968D929D92AD92BC9275
:102E6000519752966C92529753961C9227C08DB7E9
:102E70009EB744970FB6F8949EBF0FBE8DBFEDB7B7
:102E8000FEB73196ADB7BEB712965C934E931197CD
:102E900084E392E09383828335832483C682D7823E
:102EA000E086F1868DE890E09387828774861586A8
:102EB00086869786A08AB18A628A138A0E94672CC6
:102EC000EDB7FEB774960FB6F894FEBF0FBEEDBF18
:102ED0008BE794E00E943004DF91CF911F910F9116
:102EE000FF90EF90DF90CF90BF90AF909F908F902A
:102EF0007F906F9008950F931F93282F462F0BE715
:102F000014E0C801622F0E947C048DB79EB70C9715
:102F10000FB6F8949EBF0FBE8DBFEDB7FEB73196CA
:102F2000ADB7BEB712961C930E93119788E492E04A
:102F3000938382838091980490919904A0919A043C
:102F4000B0919B0484839583A683B7838091AA0460
:102F50009091AB04A091AC04B091AD0480879187AF
:102F6000A287B3870E94672C8DB79EB70C960FB6C9
:102F7000F8949EBF0FBE8DBFC8010E9430041F9100
:102F80000F9108950F931F93282F462F8BE794E0FE
:102F9000622F0E947C048091AF04282F30E08230A1
:102FA00030F454E0220F331F5A95E1F702C021504C
:102FB000304000D000D000D0EDB7FEB731960BE71F
:102FC00014E0ADB7BEB712961C930E93119780E034
:102FD00091E093838283358324830E94672C8DB78D
:102FE0009EB706960FB6F8949EBF0FBE8DBFC80160
:102FF0000E9430041F910F9108950F931F93282F63
:10300000462F0BE714E0C801622F0E947C048DB7A5
:103010009EB708970FB6F8949EBF0FBE8DBFEDB751
:10302000FEB73196ADB7BEB712961C930E931197AB
:1030300084E592E0938382838FE090E0958384839C
:103040008091AE04868317820E94672C8DB79EB74D
:1030500008960FB6F8949EBF0FBE8DBFC8010E94A0
:1030600030041F910F9108950F931F930BE714E005
:10307000C80161E047E00E947C0400D000D0EDB7B9
:10308000FEB71283018387EA92E0948383830E94D0
:10309000562C0F900F900F900F90C8010E94300493
:1030A0001F910F910895EF92FF920F931F93282F76
:1030B000462F8BE794E0622F0E947C046091E2042B
:1030C0007091E3048091E4049091E50426E636E6ED
:1030D00046E650E40E94B2380E944C37DC01CB0136
:1030E00063E176E04AE050E00E94B1038091A104E0
:1030F000823058F16091790370917A0380917B035B
:1031000090917C0324EE38E34EE85FE30E9417368B
:103110009B01AC016091E2047091E3048091E404AE
:103120009091E5040E94DD3618167CF00E94A834C8
:1031300028EC30E040E050E00E941E3A20FF05C03D
:1031400080E280931306109214068DB79EB74297C3
:103150000FB6F8949EBF0FBE8DBF0DB71EB70F5FA1
:103160001F4F6BE7E62E64E0F62EEDB7FEB7F28256
:10317000E1828AE592E0F8019383828388EE90E011
:103180009583848360910F067091100680911106DB
:103190009091120626E636E646E650E40E94B238E2
:1031A000F801668377838087918721E830E0338751
:1031B000228789E890E09587848783E196E0978766
:1031C0008687318B208B0E94672C8DB79EB74296E5
:1031D0000FB6F8949EBF0FBE8DBFC7010E9430048A
:1031E0001F910F91FF90EF9008959F92AF92BF9221
:1031F000CF92DF92EF92FF920F931F93CF93DF93C3
:10320000282F462FCBE7D4E0CE01622F0E947C040A
:103210009090A3048EE0981621F09CE0991609F096
:1032200008C16091DC047091DD048091DE0490910E
:10323000DF042091D0043091D1044091D204509108
:10324000D3040E9416367B018C016091D8047091E2
:10325000D9048091DA049091DB042091CC04309160
:10326000CD044091CE045091CF040E9416365B01EC
:103270006C01C801B701A80197010E94B2387B0117
:103280008C01C601B501A60195010E94B2389B01CF
:10329000AC01C801B7010E9417360E9439395B01A1
:1032A0006C01E090B404F090B5040091B604109164
:1032B000B704C801B70120E030E040E050E00E94D0
:1032C000A73818161CF000E010E009C0C601B501CF
:1032D000A80197010E94E4360E9451378B01C60174
:1032E000B50120E83FE443EC57E40E94A7381816E4
:1032F00054F40F2EF0E8AF2EFFE4BF2EF3ECCF2EE8
:10330000F7E4DF2EF02DE801A7E100371A0710F0EF
:10331000CFE6D7E18091D6049091D7048436910509
:1033200030F083E690E09093D7048093D604C601F2
:10333000B50120E03CE34CE156E40E94A7381816A2
:103340003CF4EDEFFE2E2FE632E143E85AE306C0EF
:103350007DE8F72E20E030E040E85FE3BCE09B161C
:1033600021F41092D7041092D604EDB7FEB77A97E5
:103370000FB6F894FEBF0FBEEDBF0DB71EB70F5FBF
:103380001F4F8BE794E0928381838CE692E0D80113
:1033900013969C938E93129783E190E015969C93DD
:1033A0008E93149784E190E017969C938E931697D2
:1033B00089E190E019969C938E931897C601B50108
:1033C0000E94B238F80162877387848795878F2DB2
:1033D000992787FD9095978786878091D60490914D
:1033E000D704918B808B8AE190E0938B828BCE0106
:1033F0006CE370E00E94F739CB016CE370E00E944F
:103400000B3A958B848B8AE390E0978B868BCE0169
:103410006CE370E00E94F739918F808F0E94672CD7
:103420008DB79EB74A960FB6F8949EBF0FBE8DBF5C
:1034300023C02BE832E0ADB7BEB718970FB6F894AB
:10344000BEBF0FBEADBFEDB7FEB731961296DC938F
:10345000CE93119784E992E093838283358324830A
:10346000378326830E94672CEDB7FEB738960FB6D8
:10347000F894FEBF0FBEEDBF8BE794E00E943004CE
:10348000DF91CF911F910F91FF90EF90DF90CF9040
:10349000BF90AF909F9008956F927F928F929F926E
:1034A000AF92BF92CF92DF92EF92FF920F931F9352
:1034B000E0905C06F0905D0600915E0610915F065C
:1034C0008FE590E0A0E0B0E0E80EF91E0A1F1B1F98
:1034D0000E94A8346E157F058007910708F4F4C098
:1034E0002091B4043091B5044091B6045091B704D2
:1034F000E090B804F090B9040091BA041091BB04B4
:10350000CA01B9010E94B2385B016C01C801B70160
:10351000A80197010E94B2389B01AC01C601B50118
:103520000E9417360E94393960930F067093100677
:10353000809311069093120620E030E040E050E0C6
:103540000E94A73818160CF0B5C00E94A83420912C
:103550005C0630915D0640915E0650915F06621BED
:10356000730B840B950B0E947D375B016C01E0901F
:103570000F06F0901006009111061091120620918E
:10358000B4043091B5044091B6045091B7040E9440
:10359000B23820E030E04AE754E40E94E4369B0170
:1035A000AC0160910B0670910C0680910D06909114
:1035B0000E060E94173660930B0670930C068093DC
:1035C0000D0690930E0680914E0690914F06892B22
:1035D00009F464C0C801B701A60195010E94B23880
:1035E00020E030E04AE754E40E94E4363B014C011D
:1035F00020E030E040E050E00E94A73818160CF0C0
:103600004DC060912206709123068091240690910E
:1036100025062DEC3CEC4CE45FE30E94B2387B01C4
:103620008C016091C0047091C104882777FD80955A
:10363000982F0E947F372091BC043091BD044091A7
:10364000BE045091BF040E94B238A60195010E94A9
:10365000B23820E030E041EE54E40E94E436A401A8
:1036600093010E94E4369B01AC01C801B7010E949E
:103670001736609322067093230680932406909356
:10368000250620E03BE443EC57E40E94A7381816D7
:103690008CF480E09BE4A3ECB7E404C080E090E00D
:1036A000A0E0B0E08093220690932306A093240626
:1036B000B09325060E94A83460935C0670935D0663
:1036C00080935E0690935F061F910F91FF90EF909D
:1036D000DF90CF90BF90AF909F908F907F906F9032
:1036E0000895EF92FF920F931F93CF93DF930E9461
:1036F000A8342091290630912A0640912B0650913A
:103700002C06261737074807590708F08DC10E9475
:10371000A8346C507E4F8F4F9F4F60932906709353
:103720002A0680932B0690932C060BE714E0C80121
:103730000E94C604C80165E043E00E947C0400D0FA
:1037400000D0EDB7FEB71283018386E093E0948347
:1037500083830E94562C0F900F900F900F908091B2
:10376000F8059091F905892B31F08091260690910A
:103770002706892B81F48091A6049091A704909349
:10378000F9058093F8058091A8049091A90490937D
:103790002706809326062091A8043091A904409121
:1037A000260650912706C9018456904048175907AC
:1037B00024F4809128068F5F08C02C593F4F2417AE
:1037C00035072CF48091280681508093280680913B
:1037D0002806181614F081E003C085301CF084E040
:1037E0008093280600912806023069F0033024F403
:1037F000013009F015C10AC0033009F465C0043076
:1038000009F00EC1B7C0C4E6D0E060C000D000D05F
:10381000CBE7D4E0EDB7FEB7D283C1838AEF92E065
:10382000948383830E94562C0F900F900F900F90DB
:1038300080916803882301F100D000D0EDB7FEB776
:10384000D283C18381EF92E0948383830E94562CBC
:103850008091F8059091F905845690400F900F9053
:103860000F900F902091A6043091A70428173907D4
:1038700014F5109268031FC000D000D0EDB7FEB75A
:10388000D283C18388EE92E0948383830E94562C76
:103890008091F8059091F9058C599F4F0F900F90EA
:1038A0000F900F902091A6043091A70482179307E0
:1038B00014F40093680382E796E06CEF73E04091A4
:1038C00068030E941F33ACC0CAE0D0E000D000D033
:1038D000ABE7EA2EA4E0FA2EEDB7FEB7F282E18262
:1038E00089ED92E0948383830E94562C8DB79EB716
:1038F00008970FB6F8949EBF0FBE8DBF0DB71EB7C9
:103900000F5F1F4FEDB7FEB7F282E1828AE992E0C6
:10391000F8019383828360916F037091700388270D
:1039200077FD8095982F0E947F37F8016483758317
:103930008683978382E890E09187808780E290E099
:10394000938782870E94672C8DB79EB70C960FB61F
:10395000F8949EBF0FBE8DBF80916F03909170034E
:103960006DEF73E0AE010E94DF0E909370038093C1
:103970006F0356C000D000D0FBE7EF2EF4E0FF2E1F
:10398000EDB7FEB7F282E18289EB92E09483838304
:103990000E94562C8DB79EB708970FB6F8949EBF1D
:1039A0000FBE8DBF0DB71EB70F5F1F4FEDB7FEB730
:1039B000F282E18282EA92E0F8019383828360914D
:1039C000FE0570E0645D7E4F882777FD8095982F17
:1039D0000E947F3720E030E048EC52E40E94E43659
:1039E000F801648375838683978386E790E09187E7
:1039F000808780E290E0938782870E94672C8DB752
:103A00009EB70C960FB6F8949EBF0FBE8DBF8091E7
:103A1000FE0590E060E873E00E94B40E8093FE051E
:103A20008BE794E00E943004DF91CF911F910F91BA
:103A3000FF90EF9008952F923F924F925F926F9276
:103A40007F928F929F92AF92BF92CF92DF92EF922E
:103A5000FF920F931F93DF93CF93CDB7DEB7699794
:103A60000FB6F894DEBF0FBECDBF8E8B6F8B0E945A
:103A7000A83420912D0630912E0640912F065091AA
:103A80003006261737074807590708F027C28091E4
:103A900031068823C9F080937D03109231068AEAAB
:103AA00092E09093400680933F060E94A834625AA9
:103AB0007E4F8F4F9F4F60932D0670932E068093FD
:103AC0002F0690933006C4C180917D03282F30E0EB
:103AD0003A832983D090A1043091E0043D8B40913A
:103AE000E1044C8BC090A004E0903306F0903406C3
:103AF00000913F061091400660910B0670910C06F4
:103B000080910D0690910E060E944C37688B798B40
:103B10008A8B9B8B8091E2049091E304A091E40452
:103B2000B091E5048C879D87AE87BF87209179038C
:103B300030917A0340917B0350917C032887398729
:103B40004A875B873091AF043F83409132064E83B2
:103B50002090BC043090BD044090BE045090BF043F
:103B6000809168032091FE05829FC0011124845D2D
:103B70009E4F2091690330916A03DC01A29FC0012E
:103B8000A39F900DB29F900D11246090F203B0E4BA
:103B90006B227090F3037B22E0916703ED83209109
:103BA0002006309121063C832B8349815A81598F0D
:103BB000488F4C01AA2497FCA094BA2C888D998D2B
:103BC0000196998F888F09972CF0A1E0B0E0B98F0A
:103BD000A88F27C0E88DF98DE430F10509F46BC09A
:103BE000E530F1055CF4E230F105D1F1E330F105A7
:103BF0000CF055C0319709F0ACC013C0288D398D39
:103C00002630310509F477C0263031050CF469C03F
:103C10002730310509F47AC02830310509F099C000
:103C20008DC031E03D15A0F0D31619F407EB12E07A
:103C300015C04D89413049F45C89513031F482E03E
:103C40008C1518F004EC12E009C001ED12E006C07A
:103C50009C89913009F47DC00EED12E081E082C0B4
:103C6000A1E0AD1508F075C0288939894A895B89BA
:103C700023333105410551050CF46BC06C857D85FE
:103C80008E859F85288539854A855B850E94DD362E
:103C900088230CF05EC00BEE12E082E063C03F812F
:103CA000323008F056C04E81442309F452C008EF68
:103CB00012E083E057C0C501B4010E947F3720E0C5
:103CC00030E048EC52E40E94E4369B01AC01C201B2
:103CD000B1010E94DD368823E4F505E013E084E0BD
:103CE00041C051E0E516F104A1F502E113E0EE2434
:103CF000FF2485E037C0662011F4772051F18D81D3
:103D0000893B3CF50FE113E086E02CC091E09D1566
:103D100000F19C15F0F4A2E0CA1619F40CE213E0CD
:103D200005C0B3E0CB1621F409E313E087E01AC025
:103D3000E4E0CE16D9F706E413E0F8CFF1E0FD1584
:103D400040F42B813C8137FF04C003E513E088E099
:103D500009C0488D598D89819A814817590709F002
:103D60002DCFA1C0F0923406E092330610934006A6
:103D700000933F068093310681E0809335060E94D0
:103D8000A83464547D4F8F4F9F4F60932D067093DE
:103D90002E0680932F06909330060E94A834685414
:103DA000744F8F4F9F4F60933B0670933C068093F8
:103DB0003D0690933E068091360690913706A0917D
:103DC0003806B09139060097A105B10571F40E943B
:103DD000A8346059784E8F4F9F4F6093360670938A
:103DE0003706809338069093390680913A068823E7
:103DF00079F40E94A834209136063091370640911C
:103E0000380650913906261737074807590720F01A
:103E10008BE794E00E94C6040E94A83420913606E5
:103E200030913706409138065091390626173707EA
:103E30004807590768F010923A060AC010923506F2
:103E400010923606109237061092380610923906F4
:103E50000BE714E0C8016E894F890E947C0400D0F2
:103E600000D000D0EDB7FEB73196ADB7BEB7129611
:103E70001C930E93119780E693E093838283809145
:103E80003F0690914006958384830E94672CEDB78E
:103E9000FEB736960FB6F894FEBF0FBEEDBFC80151
:103EA0000E9430041BC0F0923406E0923306109357
:103EB000400600933F06109231060E94A8342091DC
:103EC0003B0630913C0640913D0650913E06261738
:103ED00037074807590708F4B1CFBACF69960FB62C
:103EE000F894DEBF0FBECDBFCF91DF911F910F9130
:103EF000FF90EF90DF90CF90BF90AF909F908F900A
:103F00007F906F905F904F903F902F9008952091F9
:103F1000630330916403C901895097408F5A9440DC
:103F2000D0F58091A104882321F481E0809341069B
:103F30002EC080914106882351F580913506882353
:103F400011F10E94A8342091360630913706409135
:103F50003806509139062617370748075907B8F42D
:103F60000E94A83420912D0630912E0640912F06F4
:103F700050913006261737074807590740F48091BB
:103F80003106882321F48BE794E00E94C60482E086
:103F900080933A06089584E0203B380768F48091C6
:103FA0003A06882349F0109241068BE794E00E947C
:103FB000C60410923A060895205B344029553240D9
:103FC00000F580913A068130E1F080913506882332
:103FD00079F00E94A834209136063091370640913E
:103FE000380650913906261737074807590748F40D
:103FF000109241068BE794E00E94C60481E0809312
:104000003A060895EF92FF920F931F938091410615
:10401000882309F060C08091A104823008F05BC061
:1040200080913206813009F056C08091A6049091AB
:10403000A704895097400CF44EC08091A804909139
:10404000A904805B94400CF046C080919804909144
:104050009904A0919A04B0919B0480934206909396
:104060004306A0934406B09345068091AA0490911C
:10407000AB04A091AC04B091AD048093460690933C
:104080004706A0934806B09349068091B0049091EA
:10409000B104A091B204B091B30480931706909339
:1040A0001806A0931906B0931A068091C404909143
:1040B000C504A091C604B091C70480937503909382
:1040C0007603A0937703B093780381E090E0909318
:1040D00034068093330680914A0690914B06A09156
:1040E0004C06B0914D060097A105B10509F04EC0F0
:1040F0008091A4049091A504CD9708F447C08091C5
:10410000A104823008F442C00E94A83460934A0699
:1041100070934B0680934C0690934D0610924F0679
:1041200010924E068091C2049091C3049093510660
:104130008093500680916B0390916C03A0916D0366
:10414000B0916E0380937E0390937F03A0938003CE
:10415000B093810380E090E0A0E0B0E080930B0694
:1041600090930C06A0930D06B0930E068091C404A4
:104170009091C504A091C604B091C70480937503C3
:1041800090937603A0937703B093780380914A06C7
:1041900090914B06A0914C06B0914D060097A10559
:1041A000B10509F458C08091A104823038F10E9411
:1041B000A83420914A0630914B0640914C0650910C
:1041C0004D06621B730B840B950B28EE33E040E029
:1041D00050E00E941E3A3093FB052093FA0580912F
:1041E000C2049091C3042091500630915106821B65
:1041F000930B90934F0680934E064DC00E94A834B7
:104200007B018C016091FA057091FB05882777FD91
:104210008095982F28E13CEF4FEF5FEF0E94D8394F
:10422000E60EF71E081F191FE0924A06F0924B0691
:1042300000934C0610934D068091C2049091C304E4
:1042400020914E0630914F06821B930B909351069E
:104250008093500620C00E94A83428EE33E040E04E
:1042600050E00E941E3A3093FB052093FA0510920D
:104270004F0610924E0680916B0390916C03A091B3
:104280006D03B0916E0380937E0390937F03A093A0
:104290008003B09381030E94871F80914106882389
:1042A00019F00E94711B5EC28091F20380FF08C06A
:1042B00060914C0480914A0490E070E00E941B1DC4
:1042C00080913A068230A8F080913506882309F45F
:1042D00049C20E94A8342091360630913706409199
:1042E000380650913906261737074807590708F44A
:1042F00039C280913A0680935206823011F41092AE
:104300003A0680913A06A82FB0E0FD01E451FC4F37
:10431000808185FF0BC0FD01EC5FFB4F6081AE5FCC
:10432000BB4F8C9190E070E00E94FD1780913A069F
:10433000A82FB0E0FD01E451FC4F808186FF0BC047
:10434000FD01E85FFB4F6081AA5FBB4F8C9190E05D
:1043500070E00E94C21780913A06A82FB0E0FD01DC
:10436000EE50FC4F808183FF0BC0FD01E05BFB4FF3
:104370006081A25BBB4F8C9190E070E00E94B9130A
:1043800080913206882309F469C080913A06A82FEB
:10439000B0E0FD01E451FC4F808187FF0BC0FD01BF
:1043A000E45FFB4F6081A65FBB4F8C9190E070E0B3
:1043B0000E947B1780913A06A82FB0E0FD01E251E0
:1043C000FC4F808184FF0BC0FD01E45EFB4F6081E8
:1043D000A65EBB4F8C9190E070E00E94CD1580915D
:1043E0003A06A82FB0E0FD01E251FC4F808183FF27
:1043F0000BC0FD01E85EFB4F6081AA5EBB4F8C9154
:1044000090E070E00E94B91580913A06A82FB0E0C4
:10441000FD01E251FC4F808185FF0BC0FD01E05E94
:10442000FB4F6081A25EBB4F8C9190E070E00E94D8
:10443000F51880913A06A82FB0E0FD01E251FC4F3B
:10444000808186FF0BC0FD01EC5DFB4F6081AE5D9E
:10445000BB4F8C9190E070E00E945A1680913A0612
:10446000A82FB0E0FD01E051FC4F808187FF0BC019
:10447000FD01EC5CFB4F6081AE5CBB4F8C9190E02A
:1044800070E00E94651580913A06A82FB0E0FD010A
:10449000E051FC4F808181FF0BC0FD01E45CFB4FCC
:1044A0006081A65CBB4F8C9190E070E00E94531835
:1044B00080913206882309F444C08091AF04823091
:1044C00008F43FC080913A06A82FB0E0FD01EC50FF
:1044D000FC4F808182FF0BC0FD01E85AFB4F6081D9
:1044E000AA5ABB4F8C9190E070E00E9426148091F4
:1044F0003A06A82FB0E0FD01E051FC4F808182FF19
:104500000BC0FD01E05DFB4F6081A25DBB4F8C9154
:1045100090E070E00E94001580913A06A82FB0E06C
:10452000FD01E051FC4F808183FF0BC0FD01E85C81
:10453000FB4F6081AA5CBB4F8C9190E070E00E94C1
:10454000B01480913206882321F08091AF0482302C
:1045500028F48091A00481508330A8F480913A0619
:10456000A82FB0E0FD01E251FC4F808180FF0BC01D
:10457000FD01EC5EFB4F6081AE5EBB4F8C9190E025
:1045800070E00E946A1380913A06A82FB0E0FD0106
:10459000EE50FC4F808186FF0FC08091D4048823A9
:1045A00059F0FD01EC5AFB4F6081AE5ABB4F8C9124
:1045B00090E070E00E94E51280913A06A82FB0E0EA
:1045C000FD01E451FC4F808182FF0BC0FD01E450EE
:1045D000FC4F6081A650BC4F8C9190E070E00E942F
:1045E000AC1280913A06A82FB0E0FD01E451FC4FD7
:1045F000808181FF0BC0FD01E850FC4F6081AA5013
:10460000BC4F8C9190E070E00E94731280913A064A
:10461000A82FB0E0FD01E051FC4F808184FF0BC06A
:10462000FD01E05CFB4F6081A25CBB4F8C9190E090
:1046300070E00E94361280913A06A82FB0E0FD018A
:10464000E051FC4F808185FF0BC0FD01EC5BFB4F0F
:104650006081AE5BBB4F8C9190E070E00E94961140
:1046600080913A06A82FB0E0FD01E451FC4F808113
:1046700083FF0BC0FD01E050FC4F6081A250BC4F96
:104680008C9190E070E00E941D1180913A06A82F55
:10469000B0E0FD01E051FC4F808180FF0BC0FD01C7
:1046A000E45DFB4F6081A65DBB4F8C9190E070E0B4
:1046B0000E94CB1080913A06A82FB0E0FD01E45192
:1046C000FC4F808184FF0BC0FD01E05FFB4F6081E8
:1046D000A25FBB4F8C9190E070E00E946E108091C1
:1046E0003A06A82FB0E0FD01EC50FC4F808181FF1D
:1046F0000BC0FD01E45AFB4F6081A65ABB4F8C9161
:1047000090E070E00E942B1080913A06A82FB0E054
:10471000FD01E251FC4F808187FF0BC0FD01E85D88
:10472000FB4F6081AA5DBB4F8C9190E070E00E94CE
:10473000B80F80913A06A82FB0E0FD01E051FC4F80
:10474000808186FF0BC0FD01E85BFB4F6081AA5BA7
:10475000BB4F8C9190E070E00E94600F80915206F8
:1047600080933A061F910F91FF90EF9008958BE789
:1047700094E00E94C6040E9434180895CF93DF93FA
:10478000EC018BE794E00E94FD03C817D9073CF0C9
:104790008BE794E00E94F203892B09F42397CE0162
:1047A000DF91CF910895FF920F931F9302E716E0D8
:1047B000C8016EE773E00E94183390E0A0E0B0E01B
:1047C000BC01CD010E947D3726E636E646E650E480
:1047D0000E94E4366093790370937A0380937B039D
:1047E00090937C03C80160E873E00E9418338093C3
:1047F000FE05C8016CEF73E00E94183380936803D4
:10480000C8016DEF73E00E941833F82EC8016EEFF7
:1048100073E00E941833382F20E02F0D311D3093A4
:10482000700320936F031F910F91FF900895BC01B7
:1048300082E796E00E9418330895EF92FF920F935B
:104840001F93CF93DF9300913A0610E08AEF90E038
:10485000089F7001099FF00C189FF00C1124C701EC
:1048600088569F4F0E941724F801E451FC4F88237B
:1048700019F08081806102C080818F7E8083809169
:104880003A06C82FD0E0C70186569F4F0E941724D2
:10489000C25FDB4F888380913A06C82FD0E0C70102
:1048A00084569F4F0E94172490E00E94BE23C05F51
:1048B000DB4F888300913A0610E0C70106960E94FC
:1048C0001724F801E451FC4F882319F0808182609D
:1048D00002C080818D7F808380913A06C82FD0E00E
:1048E000C70108960E941724CA50DC4F8883809124
:1048F0003A06C82FD0E0C7010A960E94172490E01C
:104900000E94BE23C850DC4F888300913A0610E015
:10491000C7010C960E941724F801E451FC4F88232C
:1049200019F08081846002C080818B7F80838091B8
:104930003A06C82FD0E0C7010E960E941724C65031
:10494000DC4F888380913A06C82FD0E0C70140969B
:104950000E94172490E00E94BE23C450DC4F88833D
:1049600000913A0610E0C70142960E941724F80110
:10497000E451FC4F882319F08081886002C0808157
:10498000877F808380913A06C82FD0E0C701449684
:104990000E941724C250DC4F888380913A06C82FAA
:1049A000D0E0C70146960E94172490E00E94BE23E3
:1049B000C050DC4F888300913A0610E0C7014E9644
:1049C0000E941724F801E451FC4F882319F08081DC
:1049D000806202C080818F7D808380913A06C82FDB
:1049E000D0E0C70180960E941724CE5FDB4F8883FA
:1049F00080913A06C82FD0E0C70182960E94172402
:104A000090E00E94BE23CC5FDB4F888300913A0682
:104A100010E0C70184960E941724F801E451FC4F6E
:104A2000882319F08081806402C080818F7B80831D
:104A300080913A06C82FD0E0C70186960E941724BD
:104A4000CA5FDB4F888380913A06C82FD0E0C70148
:104A500088960E94172490E00E94BE23C85FDB4F17
:104A6000888300913A0610E0C7018A960E941724B5
:104A7000F801E451FC4F882319F08081806802C05E
:104A800080818F77808380913A06C82FD0E0C7015C
:104A90008C960E941724C65FDB4F888380913A066C
:104AA000C82FD0E0C7018E960E94172490E00E9484
:104AB000BE23C45FDB4F888300913A0610E0C70134
:104AC000C0960E941724F801E251FC4F882319F088
:104AD0008081816002C080818E7F808380913A06D0
:104AE000C82FD0E0C701C2960E941724CE5EDB4FCC
:104AF000888380913A06C82FD0E0C701C4960E94EF
:104B0000172490E00E94BE23CC5EDB4F8883009187
:104B10003A0610E0C701885B9F4F0E941724F801F6
:104B2000E251FC4F882319F08081806102C08081AE
:104B30008F7E808380913A06C82FD0E0C701865BC4
:104B40009F4F0E941724C65EDB4F888380913A06F0
:104B5000C82FD0E0C701845B9F4F0E94172490E0CC
:104B60000E94BE23C45EDB4F888300913A0610E0AA
:104B7000C7018E5B9F4F0E941724F801E251FC4F42
:104B8000882319F08081886002C08081877F8083BC
:104B900080913A06C82FD0E0C7018C5B9F4F0E94DE
:104BA0001724CA5EDB4F888380913A06C82FD0E075
:104BB000C7018A5B9F4F0E94172490E00E94BE238A
:104BC000C85EDB4F888300913A0610E0C701805B26
:104BD0009F4F0E941724F801E251FC4F882319F0DF
:104BE0008081806202C080818F7D808380913A06BF
:104BF000C82FD0E0C7018E5A9F4F0E941724C25E73
:104C0000DB4F888380913A06C82FD0E0C7018C5AC9
:104C10009F4F0E94172490E00E94BE23C05EDB4F8E
:104C2000888300913A0610E0C7018A5A9F4F0E947C
:104C30001724F801E251FC4F882319F08081806429
:104C400002C080818F7B808380913A06C82FD0E09C
:104C5000C701885A9F4F0E941724CE5DDB4F88837F
:104C600080913A06C82FD0E0C701865A9F4F0E9414
:104C7000172490E00E94BE23CC5DDB4F8883009117
:104C80003A0610E0C70182569F4F0E941724F80190
:104C9000E251FC4F882319F08081806802C0808136
:104CA0008F77808380913A06C82FD0E0C701805665
:104CB0009F4F0E941724CA5DDB4F888380913A067C
:104CC000C82FD0E0C7018E559F4F0E94172490E057
:104CD0000E94BE23C85DDB4F888300913A0610E036
:104CE000C7018E599F4F0E941724F801E051FC4FD5
:104CF000882319F08081816002C080818E7F80834B
:104D000080913A06C82FD0E0C7018C599F4F0E946E
:104D10001724C65DDB4F888380913A06C82FD0E008
:104D2000C7018A599F4F0E94172490E00E94BE231A
:104D3000C45DDB4F888300913A0610E0C7018259B9
:104D40009F4F0E941724F801E051FC4F882319F06F
:104D50008081846002C080818B7F808380913A064D
:104D6000C82FD0E0C70180599F4F0E941724C25D11
:104D7000DB4F888380913A06C82FD0E0C7018E5858
:104D80009F4F0E94172490E00E94BE23C05DDB4F1E
:104D9000888300913A0610E0C70184579F4F0E9414
:104DA0001724F801E051FC4F882319F080818068B6
:104DB00002C080818F77808380913A06C82FD0E02F
:104DC000C70182579F4F0E941724CE5CDB4F888318
:104DD00080913A06C82FD0E0C70180579F4F0E94AC
:104DE000172490E00E94BE23CC5CDB4F88830091A7
:104DF0003A0610E0C7018E569F4F0E941724F80113
:104E0000E051FC4F882319F08081826002C08081CC
:104E10008D7F808380913A06C82FD0E0C7018C56E1
:104E20009F4F0E941724C65CDB4F888380913A060F
:104E3000C82FD0E0C7018A569F4F0E94172490E0E8
:104E40000E94BE23C45CDB4F888300913A0610E0C9
:104E5000C7018C589F4F0E941724F801E051FC4F66
:104E6000882319F08081886002C08081877F8083D9
:104E700080913A06C82FD0E0C7018A589F4F0E9400
:104E80001724CA5CDB4F888380913A06C82FD0E094
:104E9000C70188589F4F0E94172490E00E94BE23AC
:104EA000C85CDB4F888300913A0610E0C701865842
:104EB0009F4F0E941724F801E051FC4F882319F0FE
:104EC0008081806102C080818F7E808380913A06DC
:104ED000C82FD0E0C70184589F4F0E941724C25C9E
:104EE000DB4F888380913A06C82FD0E0C7018258F3
:104EF0009F4F0E94172490E00E94BE23C05CDB4FAE
:104F0000888300913A0610E0C70180589F4F0E94A5
:104F10001724F801E051FC4F882319F0808180624A
:104F200002C080818F7D808380913A06C82FD0E0B7
:104F3000C7018E579F4F0E941724CE5BDB4F88839B
:104F400080913A06C82FD0E0C7018C579F4F0E942E
:104F5000172490E00E94BE23CC5BDB4F8883009136
:104F60003A0610E0C7018A579F4F0E941724F801A4
:104F7000E051FC4F882319F08081806402C0808159
:104F80008F7B808380913A06C82FD0E0C701885775
:104F90009F4F0E941724CA5BDB4F888380913A069B
:104FA000C82FD0E0C70186579F4F0E94172490E07A
:104FB0000E94BE23C85BDB4F888300913A0610E055
:104FC000C7018C559F4F0E941724F801EE50FC4FEB
:104FD000882319F08081816002C080818E7F808368
:104FE00080913A06C82FD0E0C7018A559F4F0E9492
:104FF0001724C65BDB4F888380913A06C82FD0E028
:10500000C70188559F4F0E94172490E00E94BE233D
:10501000C45BDB4F888300913A0610E0C7018A54D5
:105020009F4F0E941724F801EE50FC4F882319F07F
:105030008081886002C08081877F808380913A066A
:10504000C82FD0E0C70188549F4F0E941724C25B2D
:10505000DB4F888380913A06C82FD0E0C701865481
:105060009F4F0E94172490E00E94BE23C05BDB4F3D
:10507000888300913A0610E0C701845A9F4F0E942E
:105080001724F801EE50FC4F882319F080818064CA
:1050900002C080818F7B808380913A06C82FD0E048
:1050A000C701825A9F4F0E941724CE5ADB4F888334
:1050B00080913A06C82FD0E0C701805A9F4F0E94C6
:1050C000172490E00E94BE23CC5ADB4F88830091C6
:1050D0003A0610E0C70180529F4F0E941724F80142
:1050E000EC50FC4F882319F08081846002C08081DD
:1050F0008B7F808380913A06C82FD0E0C7018E5104
:105100009F4F0E941724CA5ADB4F888380913A062A
:10511000C82FD0E0C7018C519F4F0E94172490E008
:105120000E94BE23C85ADB4F888300913A0610E0E4
:10513000C7018C529F4F0E941724F801EC50FC4F7E
:10514000882319F08081826002C080818D7F8083F6
:1051500080913A06C82FD0E0C7018A529F4F0E9423
:105160001724C65ADB4F888380913A06C82FD0E0B7
:10517000C70188529F4F0E94172490E00E94BE23CF
:10518000C45ADB4F8883DF91CF911F910F91FF901D
:10519000EF90089586E061E00E948935089586E0E9
:1051A00061E00E944A358EE594E040E051EE60E017
:1051B00070E00E94782C0E94CA288BE794E00E943D
:1051C00005050E94B72368EE73E080E090E00E943E
:1051D000B6340E94D32310923A0607C00E941D24C1
:1051E00080913A068F5F80933A0680913A0682302A
:1051F000A8F310923A068EE594E00E94572D68EBD2
:105200007BE080E090E00E94B6348BE794E00E945F
:10521000C6040E94A834609353067093540680938A
:1052200055069093560608952F923F924F925F92A3
:105230006F927F928F929F92AF92BF92CF92DF92A6
:10524000EF92FF920F931F93DF93CF9300D000D084
:10525000CDB7DEB780913206882309F438C2E090DA
:105260004206F09043060091440610914506C8019D
:10527000B7019F7725E33AEF4EE85CE30E94B2382E
:105280000E94E13669837A838B839C83C801B701CE
:10529000209198043091990440919A0450919B0474
:1052A0000E9416369F7720EC3BE649ED57E40E94BA
:1052B000B2385B016C01609146067091470680919F
:1052C0004806909149062091AA043091AB04409180
:1052D000AC045091AD040E9416369F7720EC3BE65B
:1052E00049ED57E40E94B23829813A814B815C81B3
:1052F0000E94B2387B018C01C601B501A60195015F
:105300000E94B2385B016C01C801B701A801970186
:105310000E94B2389B01AC01C601B5010E9417364C
:105320000E9439390E944C376093F4057093F5055B
:105330008093F6059093F70580914E0690914F0665
:10534000892B09F4E9C06091FC057091FD0580E0AE
:1053500090E00E947D372DEC3CEC4CE45FE30E9432
:10536000B2383B014C0160916F0370917003882744
:1053700077FD8095982F0E947F372DEC3CEC4CE414
:105380005FE30E94B2387B018C016091C20470918E
:10539000C30480E090E00E947D379B01AC01C8010E
:1053A000B7010E9416365B016C010E94A8347B0194
:1053B0008C0160914E0670914F0680E090E00E9453
:1053C0007D371B012C0180914A0690914B06A091DC
:1053D0004C06B0914D06E81AF90A0A0B1B0BC801DE
:1053E000B7010E947D37A20191010E94E4369B0122
:1053F000AC01C601B5010E94B23820E030E04AE7B6
:1054000054E40E94E4362DEC3CEC4CE45EE30E9454
:10541000B2389B01AC01C401B3010E9417360E944F
:105420004C377093FD056093FC056091C204709148
:10543000C30480E090E00E947D375B016C016091C5
:105440006F0370917003882777FD8095982F0E94D5
:105450007F372DEC3CEC4CE45FE30E94B2387B01DB
:105460008C01C601B501A80197010E94A738181642
:1054700024F41092FD051092FC058091FC0590919A
:10548000FD058057974130F08FE697E19093FD0539
:105490008093FC05C801B701A60195010E9416364C
:1054A0007B018C0160910B0670910C0680910D06BA
:1054B00090910E06A20191010E94E4369B01AC017D
:1054C000C801B7010E94B2387B018C016091F405DC
:1054D0007091F5058091F6059091F7050E947F3750
:1054E0009B01AC01C801B7010E94163620E030E0F4
:1054F00040E05FE30E94B2380E944C37709321066F
:1055000060932006615F784D7CF481EF98ED909375
:1055100021068093200608C01092FD051092FC051C
:1055200010922106109220066091B0047091B1048F
:105530008091B2049091B30420911706309118061F
:105540004091190650911A060E9416365B016C01B3
:105550002091F4053091F5054091F6055091F7053D
:10556000CA01B9010E94D8390E947F377B018C01A2
:10557000C601B501A60195010E94B2389B01AC019C
:10558000C801B7010E9417360E9439390E944C3772
:1055900060931C0670931D0680931E0690931F0651
:1055A00060914206709143068091440690914506B1
:1055B000209198043091990440919A0450919B0451
:1055C0000E9416367B018C0160E070E080E89FE36A
:1055D00029813A814B815C810E94E4369B01AC01B8
:1055E000C801B7010E94B2387B018C016091460668
:1055F0007091470680914806909149062091AA042F
:105600003091AB044091AC045091AD040E94163629
:105610009B01AC015058C801B7010E948A3620EEA8
:105620003EE245E652E40E94B23820E030E044EB2E
:1056300052E40E9417360E944C379B01AC0197FF41
:1056400004C028593E4F4F4F5F4FCA01B901645BF8
:1056500070408040904097FF06C0CA01B9016C5469
:105660007F4F8F4F9F4F0E947F3720919C04309136
:105670009D0440919E0450919F040E9416360E9402
:105680004C3797FF04C068597E4F8F4F9F4F0E9441
:105690007F3720E030E044EB53E40E94E43620E022
:1056A00030E040E851E40E94B2380E94153920E011
:1056B00030E040E85FE30E9417360E945137609364
:1056C0001B06613108F47CC010921B0679C08091E2
:1056D000AF04823008F474C08091AE04853008F4C1
:1056E0006FC0D0905706FDE1FD1508F469C0E09049
:1056F000B004F090B1040091B2041091B304609131
:1057000058067091590680915A0690915B06A8013F
:1057100097010E9416369F7720E030E040E05FE37B
:105720000E94A73818165CF410925706E0925806AB
:10573000F092590600935A0610935B0641C08D2DD6
:105740008F5F809357068E31D9F5809198049091A0
:105750009904A0919A04B0919B048093420690937F
:105760004306A0934406B09345068091AA04909105
:10577000AB04A091AC04B091AD0480934606909325
:105780004706A0934806B0934906E0921706F092A8
:1057900018060093190610931A068091C40490917C
:1057A000C504A091C604B091C7048093750390937B
:1057B0007603A0937703B093780381E08093320659
:1057C0000F900F900F900F90CF91DF911F910F913D
:1057D000FF90EF90DF90CF90BF90AF909F908F9011
:1057E0007F906F905F904F903F902F9008950E9410
:1057F0004C1A0E94760C8BE794E00E9414290E94B8
:1058000002200895EF92FF920F931F930E94670763
:10581000892BB9F4E0905306F09054060091550698
:105820001091560684E690E0A0E0B0E0E80EF91E84
:105830000A1F1B1F0E94A834E616F706080719075F
:1058400060F40E94A83460935306709354068093CA
:105850005506909356060E94F72B1F910F91FF90CB
:10586000EF9008956EBD0DB407FEFDCF8EB508957F
:105870008DE061E00E944A358BE061E00E944A358C
:105880008CE060E00E944A358AE061E00E944A357F
:105890001CBC80E58CBD8DB58EB5089580E696E084
:1058A0000E94382C08958FEF9FE70895DF93CF93E0
:1058B000CDB7DEB7FE0139968D819E8161E04F81C3
:1058C00058859F010E94F72ECF91DF910895DF93B5
:1058D000CF93CDB7DEB7FE0139968D819E8160E012
:1058E0004F8158859F010E94F72ECF91DF91089537
:1058F0000F931F93DC01ED91FC910288F389E02D59
:1059000020E030E000E010E009951F910F9108952C
:105910008F92AF92CF92EF92FF920F931F93DF93EC
:10592000CF93CDB7DEB7FC011382128288EE93E0ED
:10593000A0E0B0E084839583A683B78386ED93E0EF
:10594000918380835587448737872687118B008B07
:10595000F38AE28AC48AA58A868A70E0CB0123E0B2
:10596000880F991F2A95E1F79C012F59394F308FE5
:10597000278B8759994F928F818F81E090E002C0E9
:10598000880F991F6A95E2F720917106282B2093C2
:105990007106CF0140E051EE60E070E00E94782C8B
:1059A000CF91DF911F910F91FF90EF90CF90AF902B
:1059B0008F900895FC01838D882319F42FEF3FEF1A
:1059C0000DC00788F08DE02D208131818281938187
:1059D000281B390B8481958128233923C901089517
:1059E000FC01838D882319F42FEF3FEF11C0018C48
:1059F000F28DE02D2081318182819381281B390B2A
:105A00002095309584819581282339232F5F3F4F3E
:105A1000C9010895FC01838D882361F0A789B08DA9
:105A20002D913C91119712968D919C911397281767
:105A3000390721F44FEF5FEFCA01089512968D9157
:105A40009C9113971696ED91FC911797E80FF91F0B
:105A5000408112968D919C911397019614962D91E9
:105A60003C9115978223932313969C938E931297C0
:105A700050E0E2CFFC01838D882351F00788F08D40
:105A8000E02D20813181828193812817390721F40B
:105A90002FEF3FEFC9010895828193810680F7813E
:105AA000E02DE80FF91F8081282F30E0F3CFDC01D3
:105AB0005796ED91FC9158978281938191838083D1
:105AC0005996ED91FC915A978081918193838283BD
:105AD0000895DC015B968C915B978823A9F1599618
